:020000040800F2
:100000000000022005ED00084DEA000853EA000850
:1000100059EA00085FEA000865EA000800000000ED
:100020000000000000000000000000006BEA000873
:1000300079EA00080000000087EA000895EA000855
:1000400055ED000855ED000855ED000855ED000888
:10005000A1EA000855ED000855ED000855ED00082F
:1000600055ED000855ED000855ED000855ED000868
:1000700055ED000855ED000855ED000855ED000858
:1000800055ED000855ED0008ADEA000855ED0008F3
:1000900055ED000855ED000855ED000855ED000838
:1000A00055ED0008C9EA000855ED000855ED0008B7
:1000B000DDEA0008F1EA000805EB000855ED00084C
:1000C00055ED000855ED000855ED000855ED000808
:1000D00055ED000855ED000855ED000855ED0008F8
:1000E00055ED000855ED000855ED000855ED0008E8
:1000F00019EB00082DEB000841EB000855ED000856
:1001000055ED000855ED000855EB000855ED0008C9
:1001100055ED000855ED000855ED000855ED0008B7
:1001200069EB000855ED00087DEB000855ED00086F
:1001300055ED0008000000000000000055ED00082B
:1001400055ED000855ED000855ED000855ED000887
:1001500055ED000855ED000855ED000855ED000877
:1001600055ED000855ED000855ED000855ED000867
:1001700055ED000855ED00080000000000000000EB
:0801800055ED000855ED0008E3
:1080000010B5054C237833B9044B13B10448AFF3D2
:1080100000800123237010BDE00E0020000000004E
:108020009869010808B5034B1BB103490348AFF336
:10803000008008BD00000000E40E002098690108DF
:10804000034613F8012B002AFBD1181A0138704798
:1080500001F0FF01102A2BDB10F0070F08D010F8F9
:10806000013B013A8B422DD010F0070F42B3F6D1FD
:10807000F0B441EA012141EA014122F007047FF016
:1080800000070023F0E80256083C85EA010586EA6D
:10809000010685FA47F5A3FA87F586FA47F6A5FAA9
:1080A00087F68EB9EED1F0BC01F0FF0102F00702B5
:1080B00032B110F8013B013A83EA010313B1F8D160
:1080C0000020704701387047002D06BF3546033841
:1080D000073815F0010F07D1013015F4807F02BF7A
:1080E000013015F4C03F0130F0BC0138704700BFCB
:1080F00081F0004102E000BF83F0004330B54FEA59
:1081000041044FEA430594EA050F08BF90EA020FC5
:108110001FBF54EA000C55EA020C7FEA645C7FEA58
:10812000655C00F0E2804FEA5454D4EB5555B8BF7B
:108130006D420CDD2C4480EA020281EA030382EAEC
:10814000000083EA010180EA020281EA0303362D7E
:1081500088BF30BD11F0004F4FEA01314FF4801C51
:108160004CEA113102D0404261EB410113F0004F63
:108170004FEA03334CEA133302D0524263EB43031A
:1081800094EA050F00F0A780A4F10104D5F1200EB8
:108190000DDB02FA0EFC22FA05F2801841F1000113
:1081A00003FA0EF2801843FA05F359410EE0A5F1E7
:1081B00020050EF1200E012A03FA0EFC28BF4CF018
:1081C000020C43FA05F3C01851EBE37101F00045CE
:1081D00007D54FF0000EDCF1000C7EEB00006EEBDB
:1081E0000101B1F5801F1BD3B1F5001F0CD3490865
:1081F0005FEA30004FEA3C0C04F101044FEA4452BC
:1082000012F5800F80F09A80BCF1004F08BF5FEA42
:10821000500C50F1000041EB045141EA050130BD22
:108220005FEA4C0C404141EB010111F4801FA4F1C5
:108230000104E9D191F0000F04BF01460020B1FA1A
:1082400081F308BF2033A3F10B03B3F120020CDA52
:108250000C3208DD02F1140CC2F10C0201FA0CF030
:1082600021FA02F10CE002F11402D8BFC2F1200C95
:1082700001FA02F120FA0CFCDCBF41EA0C0190404B
:10828000E41AA2BF01EB0451294330BD6FEA040494
:108290001F3C1CDA0C340EDC04F11404C4F120027F
:1082A00020FA04F001FA02F340EA030021FA04F391
:1082B00045EA030130BDC4F10C04C4F1200220FAE8
:1082C00002F001FA04F340EA0300294630BD21FA26
:1082D00004F0294630BD94F0000F83F4801306BFEC
:1082E00081F480110134013D4EE77FEA645C18BFE0
:1082F0007FEA655C29D094EA050F08BF90EA020F77
:1083000005D054EA000C04BF1946104630BD91EA6E
:10831000030F1EBF0021002030BD5FEA545C05D171
:108320004000494128BF41F0004130BD14F58004B0
:108330003CBF01F5801130BD01F0004545F0FE4124
:1083400041F470014FF0000030BD7FEA645C1ABF59
:10835000194610467FEA655C1CBF0B46024650EA90
:10836000013406BF52EA033591EA030F41F40021BC
:1083700030BD00BF90F0000F04BF0021704730B542
:108380004FF4806404F132044FF000054FF0000117
:1083900050E700BF90F0000F04BF0021704730B5D8
:1083A0004FF4806404F1320410F0004548BF4042AD
:1083B0004FF000013EE700BF42004FEAE2014FEA02
:1083C00031014FEA02701FBF12F07F4393F07F4FDD
:1083D00081F06051704732F07F4208BF704793F0E0
:1083E0007F4F04BF41F40021704730B54FF46074F3
:1083F00001F0004521F000411CE700BF50EA0102F6
:1084000008BF704730B54FF000050AE050EA01029E
:1084100008BF704730B511F0004502D5404261EB0E
:1084200041014FF4806404F132045FEA915C3FF44F
:10843000D8AE4FF003025FEADC0C18BF03325FEAEC
:10844000DC0C18BF033202EBDC02C2F1200300FA9D
:1084500003FC20FA02F001FA03FE40EA0E0021FAC2
:1084600002F11444BDE600BF70B54FF0FF0C4CF4B0
:10847000E06C1CEA11541DBF1CEA135594EA0C0F62
:1084800095EA0C0F00F0DEF82C4481EA030621EA9D
:108490004C5123EA4C5350EA013518BF52EA0335D8
:1084A00041F4801143F4801338D0A0FB02CE4FF08A
:1084B0000005E1FB02E506F00042E0FB03E54FF0BA
:1084C0000006E1FB03569CF0000F18BF4EF0010EB2
:1084D000A4F1FF04B6F5007F64F5407404D25FEAAE
:1084E0004E0E6D4146EB060642EAC62141EA555161
:1084F0004FEAC52040EA5E504FEACE2EB4F1FD0CA3
:1085000088BFBCF5E06F1ED8BEF1004F08BF5FEA20
:10851000500E50F1000041EB045170BD06F00046D2
:1085200046EA010140EA020081EA0301B4EB5C047F
:10853000C2BFD4EB0C0541EA045170BD41F4801177
:108540004FF0000E013C00F3AB8014F1360FDEBF9C
:10855000002001F0004170BDC4F10004203C35DA78
:108560000C341BDC04F11404C4F1200500FA05F3FB
:1085700020FA04F001FA05F240EA020001F000429C
:1085800021F0004110EBD37021FA04F642EB060112
:108590005EEA430E08BF20EAD37070BDC4F10C043C
:1085A000C4F1200500FA04F320FA05F001FA04F200
:1085B00040EA020001F0004110EBD37041F10001EC
:1085C0005EEA430E08BF20EAD37070BDC4F12005F7
:1085D00000FA05F24EEA020E20FA04F301FA05F25F
:1085E00043EA020321FA04F001F0004121FA04F207
:1085F00020EA020000EBD3705EEA430E08BF20EAD7
:10860000D37070BD94F0000F0FD101F00046400010
:1086100041EB010111F4801F08BF013CF7D041EA92
:10862000060195F0000F18BF704703F00046520096
:1086300043EB030313F4801F08BF013DF7D043EA67
:108640000603704794EA0C0F0CEA135518BF95EA1D
:108650000C0F0CD050EA410618BF52EA4306D1D1A4
:1086600081EA030101F000414FF0000070BD50EAC3
:10867000410606BF1046194652EA430619D094EA4D
:108680000C0F02D150EA013613D195EA0C0F05D137
:1086900052EA03361CBF104619460AD181EA03018B
:1086A00001F0004141F0FE4141F470014FF0000043
:1086B00070BD41F0FE4141F4780170BD70B54FF0DE
:1086C000FF0C4CF4E06C1CEA11541DBF1CEA13555E
:1086D00094EA0C0F95EA0C0F00F0A7F8A4EB050440
:1086E00081EA030E52EA03354FEA013100F0888037
:1086F0004FEA03334FF0805545EA131343EA126300
:108700004FEA022245EA111545EA10654FEA0026B4
:108710000EF000419D4208BF964244F1FD0404F56D
:10872000407402D25B084FEA3202B61A65EB0305C9
:108730005B084FEA32024FF480104FF4002CB6EB86
:10874000020E75EB030E22BFB61A754640EA0C0006
:108750005B084FEA3202B6EB020E75EB030E22BF46
:10876000B61A754640EA5C005B084FEA3202B6EB87
:10877000020E75EB030E22BFB61A754640EA9C0046
:108780005B084FEA3202B6EB020E75EB030E22BF16
:10879000B61A754640EADC0055EA060E18D04FEAD4
:1087A000051545EA16754FEA06164FEAC30343EA74
:1087B00052734FEAC2025FEA1C1CC0D111F4801F41
:1087C0000BD141EA00014FF000004FF0004CB6E73A
:1087D00011F4801F04BF01430020B4F1FD0C88BFD9
:1087E000BCF5E06F3FF6AFAEB5EB030C04BFB6EBE4
:1087F000020C5FEA500C50F1000041EB045170BDD7
:108800000EF0004E4EEA113114EB5C04C2BFD4EB03
:108810000C0541EA045170BD41F480114FF0000E87
:10882000013C90E645EA060E8DE60CEA135594EA03
:108830000C0F08BF95EA0C0F3FF43BAF94EA0C0F06
:108840000AD150EA01347FF434AF95EA0C0F7FF47B
:1088500025AF104619462CE795EA0C0F06D152EACF
:1088600003353FF4FDAE1046194622E750EA4106B3
:1088700018BF52EA43067FF4C5AE50EA41047FF4C4
:108880000DAF52EA43057FF4EBAE12E74FF0FF3C29
:1088900006E000BF4FF0010C02E000BF4FF0010CFA
:1088A0004DF804CD4FEA410C7FEA6C5C4FEA430C73
:1088B00018BF7FEA6C5C1BD001B050EA410C0CBFC2
:1088C00052EA430C91EA030F02BF90EA020F002024
:1088D000704710F1000F91EA030F58BF994208BF8B
:1088E00090422CBFD8176FEAE37040F00100704748
:1088F0004FEA410C7FEA6C5C02D150EA013C07D19F
:108900004FEA430C7FEA6C5CD6D152EA033CD3D0E9
:108910005DF8040B704700BF8446104662468C46E3
:108920001946634600E000BF01B5FFF7B7FF002816
:1089300048BF10F1000F01BD4DF808EDFFF7F4FF3F
:108940000CBF012000205DF808FB00BF4DF808EDCA
:10895000FFF7EAFF34BF012000205DF808FB00BFED
:108960004DF808EDFFF7E0FF94BF012000205DF80F
:1089700008FB00BF4DF808EDFFF7CEFF94BF0120C4
:1089800000205DF808FB00BF4DF808EDFFF7C4FFBD
:1089900034BF012000205DF808FB00BF4FEA410C06
:1089A0007FEA6C5C02D150EA013C0AD14FEA430CE9
:1089B0007FEA6C5C02D152EA033C02D14FF0000026
:1089C00070474FF0010070474FEA410212F5001264
:1089D00015D211D56FF47873B3EB625212D94FEA06
:1089E000C12343F0004343EA505311F0004F23FAF0
:1089F00002F018BF404270474FF00000704750EA45
:108A0000013005D111F0004008BF6FF00040704701
:108A10004FF00000704700BF4FEA4102B2F1E0435F
:108A200024BFB3F5001CDCF1FE5C0DD901F0004C55
:108A30004FEAC0024CEA5070B2F1004F40EB8300A5
:108A400008BF20F00100704711F0804F21D113F1D1
:108A50003872BCBF01F00040704741F480114FEA0A
:108A60005252C2F11802C2F1200C10FA0CF320FA93
:108A700002F018BF40F001004FEAC1234FEAD323B0
:108A800003FA0CFC40EA0C0023FA02F34FEA43031A
:108A9000CCE77FEA625307D150EA01331EBF4FF0A3
:108AA000FE4040F44000704701F0004040F0FE40BE
:108AB00040F40000704700BF53B94AB9002908BF0D
:108AC00000281CBF4FF0FF314FF0FF3000F072B9AB
:108AD000ADF1080C6DE904CE00F006F8DDF804E015
:108AE000DDE9022304B070472DE9F047089E0446F3
:108AF0008846002B4BD18A42154667D9B2FA82F2DA
:108B00004AB1C2F1200701FA02F320FA07F79540B3
:108B100047EA030894404FEA154E230CB8FBFEF7D2
:108B20001FFA85FC0EFB178843EA084307FB0CF18C
:108B3000994209D9EB1807F1FF3080F01B81994267
:108B400040F21881023F2B445B1AA4B2B3FBFEF043
:108B50000EFB103344EA034400FB0CFCA44509D986
:108B60002C1900F1FF3380F00781A44540F2048105
:108B700002382C4440EA0740A4EB0C0400271EB145
:108B8000D4400023C6E900433946BDE8F0878B4254
:108B900009D9002E00F0EB800027C6E90001384615
:108BA0003946BDE8F087B3FA83F7002F47D18B42EF
:108BB00002D3824200F2FA80841A61EB030301209F
:108BC0009846002EE0D0C6E90048DDE702B9FFDE96
:108BD000B2FA82F2002A40F08F80491B4FEA154E0C
:108BE0001FFA85F80127B1FBFEFC230C0EFB1C11BC
:108BF00043EA014308FB0CF1994207D9EB180CF149
:108C0000FF3002D2994200F2CD808446591AA3B2B5
:108C1000B1FBFEF00EFB101443EA044408FB00F81D
:108C2000A04507D92C1900F1FF3302D2A04500F26C
:108C3000B6801846A4EB080440EA0C409FE7C7F151
:108C4000200CBB4022FA0CFE4EEA030E01FA07F498
:108C500020FA0CF521FA0CF34FEA1E482543B3FB2A
:108C6000F8F92C0C08FB19331FFA8EFA44EA034377
:108C700009FB0AF49C4202FA07F200FA07F10BD949
:108C80001EEB030309F1FF3080F087809C4240F225
:108C90008480A9F1020973441B1BADB2B3FBF8F049
:108CA00008FB103345EA034400FB0AFAA24508D941
:108CB0001EEB040400F1FF336BD2A24569D90238E0
:108CC000744440EA0940A0FB0289A4EB0A044C4525
:108CD000C2464B4654D351D0002E69D0B1EB0A05A1
:108CE00064EB030404FA0CFCFD40FC404CEA05056F
:108CF000C6E90054002747E7C2F1200320FA03F732
:108D0000954001FA02F021FA03F34FEA154E384379
:108D1000010CB3FBFEF71FFA85F80EFB173341EA8F
:108D2000034107FB08F38B4204FA02F407D96918E0
:108D300007F1FF3C2FD28B422DD9023F2944CB1A99
:108D400081B2B3FBFEF00EFB103341EA034100FB9E
:108D500008F38B4207D9691800F1FF3C17D28B4208
:108D600015D902382944C91A40EA07473BE7374674
:108D7000304609E70746E7E61846FBE64145ABD231
:108D8000B8EB020A69EB0E0201381346A4E760460D
:108D9000E9E7184695E76746D1E781467CE7023860
:108DA0002C4447E7ACF1020C2B442FE7384608E788
:108DB0003746E9E6704700BF90B587B000AF87ED52
:108DC000050AC7ED040A87ED031AC7ED021A87EDFD
:108DD000012AC7ED002A544B1B78002B0FD1534BAF
:108DE0004FF000021A60524B4FF000021A60514BD4
:108DF0004FF000021A60504B4FF000021A604A4BCD
:108E000001221A70D7ED057A9FED4C7A37EE877AFA
:108E1000D7ED047A77EE677A444BC3ED007A434B83
:108E200093ED007AD7ED037A27EE277A404BD3ED06
:108E3000007A77EE277A3E4BC3ED007A3B4B93EDF9
:108E4000007A3D4BD3ED007A77EE676A97ED037AAF
:108E5000C6EE877A374BC3ED007A344B1B68364A2F
:108E60001360324B93ED007AD7ED027A27EE277A22
:108E70002F4BD3ED006AD7ED017A66EEA77A37EE75
:108E8000277A2C4BD3ED006AD7ED007A66EEA77AED
:108E900077EE277A17EE900AFFF78EFA03460C4614
:108EA00044EC103B0BF070F954EC103B1846214693
:108EB000FFF78AFD03461AB2214B1A801B4B93ED34
:108EC000007AD7ED027A27EE277A194BD3ED006AA4
:108ED000D7ED017A66EEA77A37EE277A154BD3EDF8
:108EE000006AD7ED007A66EEA77A77EE277A17EE5A
:108EF000900AFFF761FA03460C4644EC103B0BF076
:108F000043F954EC103B18462146FFF75DFD03463C
:108F10001BB29BB25B429BB21AB20A4B1A8000BFD3
:108F20001C37BD4690BD00BFFC0E0020000F002086
:108F3000040F0020080F00200C0F0020000020422A
:108F40004E5000206050002090B587B000AF87EDF4
:108F5000050AC7ED040A87ED031AC7ED021A87ED6B
:108F6000012AC7ED002A594B1B78002B0FD1584B13
:108F70004FF000021A60574B4FF000021A60564B38
:108F80004FF000021A60554B4FF000021A604F4B31
:108F900001221A7097ED057AD7ED047A77EE677A99
:108FA00017EE900AFFF708FA4FF033324C4BFFF7F9
:108FB0005BFA03460C4618462146FFF72DFD024694
:108FC000434B1A60424B93ED007AD7ED037A27EEBC
:108FD000277A404BD3ED007A77EE277A3D4BC3EDED
:108FE000007A3B4B93ED007A3C4BD3ED007A77EE61
:108FF000676A97ED037AC6EE877A374BC3ED007A3E
:10900000334B1B68354A1360314B93ED007AD7ED33
:10901000027A27EE277A2F4BD3ED006AD7ED017A3B
:1090200066EEA77A37EE277A2B4BD3ED006AD7EDA1
:10903000007A66EEA77A77EE277A17EE900AFFF7A6
:10904000BBF903460C4644EC103B0BF09DF854EC86
:10905000103B18462146FFF7B7FC03461BB29BB2F4
:109060005B429BB21AB21F4B1A80194B93ED007AE8
:10907000D7ED027A27EE277A164BD3ED006AD7EDAB
:10908000017A66EEA77A37EE277A134BD3ED006AA2
:10909000D7ED007A66EEA77A77EE277A17EE900A78
:1090A000FFF78AF903460C4644EC103B0BF06CF8D2
:1090B00054EC103B18462146FFF786FC03461AB2D3
:1090C000094B1A8000BF1C37BD4690BDFC0E002026
:1090D000100F0020140F0020180F00201C0F00207C
:1090E0003333F33F4A5000206C50002090B587B0D6
:1090F00000AF87ED050AC7ED040A87ED031AC7ED37
:10910000021A87ED012AC7ED002A594B1B78002B64
:109110000FD1584B4FF000021A60574B4FF000022E
:109120001A60564B4FF000021A60554B4FF0000288
:109130001A604F4B01221A7097ED057AD7ED047A29
:1091400077EE677A17EE900AFFF736F94FF0333271
:109150004C4BFFF789F903460C4618462146FFF7AA
:109160005BFC0246434B1A60424B93ED007AD7ED0D
:10917000037A27EE277A404BD3ED007A77EE277AF1
:109180003D4BC3ED007A3B4B93ED007A3C4BD3ED66
:10919000007A77EE676A97ED037AC6EE877A374BE7
:1091A000C3ED007A334B1B68354A1360314B93EDA6
:1091B000007AD7ED027A27EE277A2F4BD3ED006A9B
:1091C000D7ED017A66EEA77A37EE277A2B4BD3EDEF
:1091D000006AD7ED007A66EEA77A77EE277A17EE67
:1091E000900AFFF7E9F803460C4644EC103B0AF0FE
:1091F000CBFF54EC103B18462146FFF7E5FB034636
:109200001AB2214B1A801B4B93ED007AD7ED027AEC
:1092100027EE277A184BD3ED006AD7ED017A66EE78
:10922000A77A37EE277A154BD3ED006AD7ED007A8F
:1092300066EEA77A77EE277A17EE900AFFF7BCF86A
:1092400003460C4644EC103B0AF09EFF54EC103BE6
:1092500018462146FFF7B8FB03461BB29BB25B42A0
:109260009BB21AB2094B1A8000BF1C37BD4690BD95
:10927000FC0E0020200F0020240F0020280F0020CB
:109280002C0F00203333F33F3C500020545000207B
:1092900090B587B000AF87ED050AC7ED040A87EDEA
:1092A000031AC7ED021A87ED012AC7ED002A504BB9
:1092B0001B78002B0FD14F4B4FF000021A604E4B22
:1092C0004FF000021A604D4B4FF000021A604C4BF9
:1092D0004FF000021A60464B01221A7097ED057A92
:1092E000D7ED047A77EE677A424BC3ED007A414BB3
:1092F00093ED007AD7ED037A27EE277A3E4BD3ED34
:10930000007A77EE277A3C4BC3ED007A394B93ED28
:10931000007A3B4BD3ED007A77EE676A97ED037ADC
:10932000C6EE877A354BC3ED007A324B1B68344A60
:109330001360304B93ED007AD7ED027A27EE277A4F
:109340002D4BD3ED006AD7ED017A66EEA77A37EEA2
:10935000277A2A4BD3ED006AD7ED007A66EEA77A1A
:1093600077EE277A17EE900AFFF726F803460C46A9
:1093700044EC103B0AF008FF54EC103B1846214621
:10938000FFF722FB03461AB21E4B1A80194B93EDCE
:10939000007AD7ED027A27EE277A174BD3ED006AD1
:1093A000D7ED017A66EEA77A37EE277A134BD3ED25
:1093B000006AD7ED007A66EEA77A77EE277A17EE85
:1093C000900AFEF7F9FF03460C4644EC103B0AF006
:1093D000DBFE54EC103B18462146FFF7F5FA034636
:1093E0001AB2094B1A8000BF1C37BD4690BD00BFA2
:1093F000FC0E0020300F0020340F0020380F00201A
:109400003C0F0020505000204850002090B587B0FD
:1094100000AF87ED050AC7ED040A87ED031AC7ED13
:10942000021A87ED012AC7ED002A394B1B78002B61
:109430000FD1384B4FF000021A60374B4FF000024B
:109440001A60364B4FF000021A60354B4FF00002A5
:109450001A602F4B01221A7097ED057AD7ED047A26
:1094600077EE677A2B4BC3ED007A2A4B93ED007AA7
:10947000D7ED037A27EE277A274BD3ED007A77EEE4
:10948000277A254BC3ED007A224B93ED007A244BCB
:10949000D3ED007A77EE676A97ED037AC6EE877AA6
:1094A0001E4BC3ED007A1B4B1B681D4A1360194B02
:1094B00093ED007AD7ED027A27EE277A164BD3ED9B
:1094C000006AD7ED017A66EEA77A37EE277A134B5A
:1094D000D3ED006AD7ED007A66EEA77A77EE277AA9
:1094E00017EE900AFEF768FF03460C4644EC103B6B
:1094F0000AF04AFE54EC103B18462146FFF764FA86
:1095000003461AB2074B1A8000BF1C37BD4690BDF8
:10951000FC0E0020400F0020440F0020480F0020C8
:109520004C0F00204050002090B587B000AF87ED71
:10953000050AC7ED040A87ED031AC7ED021A87ED85
:10954000012AC7ED002A394B1B78002B0FD1384B6D
:109550004FF000021A60374B4FF000021A60364B92
:109560004FF000021A60354B4FF000021A602F4B8B
:1095700001221A7097ED057AD7ED047A77EE677AB3
:109580002B4BC3ED007A2A4B93ED007AD7ED037A8B
:1095900027EE277A274BD3ED007A77EE277A254BF3
:1095A000C3ED007A224B93ED007A244BD3ED007A81
:1095B00077EE676A97ED037AC6EE877A1E4BC3EDA6
:1095C000007A1B4B1B681D4A1360194B93ED007A00
:1095D000D7ED027A27EE277A164BD3ED006AD7ED46
:1095E000017A66EEA77A37EE277A134BD3ED006A3D
:1095F000D7ED007A66EEA77A77EE277A17EE900A13
:10960000FEF7DAFE03460C4644EC103B0AF0BCFDC4
:1096100054EC103B18462146FFF7D6F903461AB220
:10962000074B1A8000BF1C37BD4690BDFC0E0020C2
:10963000500F0020540F0020580F00205C0F002016
:109640006250002090B585B000AF87ED030AC7EDEA
:10965000020A87ED011AC7ED001A534B1B78002B45
:109660000FD1524B4FF000021A60514B4FF00002E5
:109670001A60504B4FF000021A604F4B4FF000023F
:109680001A60494B01221A704C4B93ED007A4C4BF7
:10969000D3ED007A77EE677A444BC3ED007A434B03
:1096A00093ED007AD7ED037A27EE277A404BD3ED7E
:1096B000007A77EE277A3E4BC3ED007A3B4B93ED71
:1096C000007A3D4BD3ED007A77EE676A97ED037A27
:1096D000C6EE877A374BC3ED007A344B1B68364AA7
:1096E0001360324B93ED007AD7ED027A27EE277A9A
:1096F0002F4BD3ED006AD7ED017A66EEA77A37EEED
:10970000277A2C4BD3ED006AD7ED007A66EEA77A64
:1097100077EE277A17EE900AFEF74EFE03460C46C8
:1097200044EC103B0AF030FD54EC103B1846214647
:10973000FFF74AF903461AB2224B1A801B4B93EDEE
:10974000007AD7ED027A27EE277A194BD3ED006A1B
:10975000D7ED017A66EEA77A37EE277A154BD3ED6F
:10976000006AD7ED007A66EEA77A77EE277A17EED1
:10977000900AFEF721FE03460C4644EC103B0AF02B
:1097800003FD54EC103B18462146FFF71DF9034634
:109790001BB29BB25B429BB21AB20B4B1A8000BF4A
:1097A0001437BD4690BD00BFFC0E0020600F0020A6
:1097B000640F0020680F00206C0F00205C50002018
:1097C000685000204C5000203E50002080B584B0EE
:1097D00000AF0346FB71FB7963F07F03DBB2FB73E1
:1097E000002204210D4807F0FFFA07F10F0164235E
:1097F00001220B4807F0D8FF07F10E016423012274
:10980000074808F005F901220421044807F0ECFAA2
:10981000BB7B18461037BD4680BD00BF000C024020
:10982000B45B012080B584B000AF03460A46FB71EB
:109830001346BB71FB7903F07F03DBB2FB7300229D
:1098400004210C4807F0D0FA07F10F01642301222C
:10985000094807F0A9FFB91D64230122064807F053
:10986000A3FF01220421034807F0BEFA00BF10370E
:10987000BD4680BD000C0240B45B012080B582B0C3
:1098800000AF0020FFF7A2FF0346BB71BB79E02BBE
:1098900019D10123FB7101210620FFF7C3FF10211D
:1098A0000320FFF7BFFF20217F20FFF7BBFF172119
:1098B0000120FFF7B7FF06211420FFF7B3FF0021B7
:1098C0007F20FFF7AFFFFB7918460837BD4680BD04
:1098D00098B500AF3320FFF779FF03461B021CB297
:1098E0003420FFF773FF03461BB223431AB2114B18
:1098F0001A803520FFF76AFF03461B021CB2362090
:10990000FFF764FF03461BB223431AB20A4B1A80C7
:109910003720FFF75BFF03461B021CB23820FFF71E
:1099200055FF03461BB223431AB2044B1A8000BFF3
:1099300098BD00BF76500020745000206E5000206B
:1099400098B500AF2D20FFF741FF03461B021CB264
:109950002E20FFF73BFF03461BB223431AB2114BE5
:109960001A802F20FFF732FF03461B021CB2302063
:10997000FFF72CFF03461BB223431AB20A4B1A808F
:109980003120FFF723FF03461B021CB23220FFF7F2
:109990001DFF03461BB223431AB2044B1A8000BFBB
:1099A00098BD00BF725000207850002070500020F9
:1099B00080B582B000AF7860391D4FF6FF73012289
:1099C000034809F081FF7B6818460837BD4680BD13
:1099D0005C5C012080B400AF2D4B00221A802C4B20
:1099E000B3F900202B4B1A802A4BB3F900202A4BE5
:1099F0001A80294BB3F90020284B1A80274BB3F962
:109A00000020274B1A80264BB3F90020254B1A80E3
:109A1000244BB3F90020244B1A80234BB3F90020C8
:109A2000224B1A80214BB3F90020214B1A80214B85
:109A300000221A801F4BB3F900201F4B1A801E4BC7
:109A4000B3F900201D4B1A801C4BB3F900201C4BAE
:109A50001A801B4BB3F900201A4B1A80194BB3F92B
:109A60000020194B1A80184BB3F90020174B1A80AD
:109A7000164BB3F90020164B1A80154BB3F9002092
:109A8000144B1A8000BFBD465DF8047B704700BFD1
:109A9000625000203E5000205250002058500020BC
:109AA0003C5000204A5000206050002048500020C8
:109AB000B8650120405000204C5000205650002036
:109AC0005A500020545000206C5000204E5000206E
:109AD00050500020245B012098B500AF194B93F93A
:109AE0000430002B03F00103B8BF5B425BB2012BD3
:109AF00025D0154BD3E900014FF00002134BFEF7C0
:109B0000FDFA03460C46104AC2E900340E4BD3E975
:109B100000014FF000020E4BFEF70EFF0346002B34
:109B200000D10CE00B4BD3E900014FF00002074BD2
:109B3000FEF7E4FA03460C46064AC2E9003400BFC9
:109B400098BD00BFF40C0020A00F00200000F03FE3
:109B500000408F40980F0020B0B400AF354B00227A
:109B60001A605EE0344B00221A6051E0314B1968F4
:109B7000314B1A68314C8B00981814F810300225BC
:109B800065F3871304F810302A4B1C682A4B1868B9
:109B90002A4D8B00134415F81330C3F38113DDB243
:109BA0002649A3001A1811F8123065F3051301F8BD
:109BB0001230204B1968204B1A68204DA300034433
:109BC00015F81330C3F30113DDB21C4C8B00981849
:109BD00014F8103065F3830304F81030154B1C683B
:109BE000154B1B68154889000A4410F81220C2F36F
:109BF0008102D0B21149A2001A4411F8123060F368
:109C0000010301F812300C4B1B6801330A4A136040
:109C1000094B1B68032BA9DD064B1B680133054A62
:109C20001360044B1B68032B9CDD00BFBD46B0BC1A
:109C3000704700BFCC4F0020D04F00205865012056
:109C400080B400AF4B4B03221A605DE04A4B002208
:109C50001A6050E0484B1A68464B1B68474992000F
:109C6000134411F81330C3F30103DAB2444B1B68F9
:109C70001146444AD154404B1A683E4B1B683F4939
:109C80009200134411F81330C3F38103DAB23C4B52
:109C90001B68013311463B4AD154374B1A68354B88
:109CA0001B6836499200134411F81330C3F30113B3
:109CB000DAB2334B1B6802331146324AD1542E4B71
:109CC0001A682C4B1B682D499200134411F813306D
:109CD000C3F38113DAB22A4B1B6803331146294AB6
:109CE000D154274B1B680433254A1360224B1B6851
:109CF0000133214A1360204B1B68032BAADD1D4B47
:109D00001B68013B1B4A13601A4B1B68002B9DDA32
:109D1000184B03221A6023E0174B00221A6016E04A
:109D2000154B1968134B1A68154B1B6816488900A8
:109D300001440A441178134AD154114B1B68013372
:109D40000F4A13600C4B1B6801330B4A13600A4B1C
:109D50001B68032BE4DD074B1B68013B054A1360BE
:109D6000044B1B68002BD7DA00BFBD465DF8047BAF
:109D7000704700BFD44F0020D84F00205865012005
:109D8000DC4F0020CC0F0020E860012080B500AF40
:109D90003F4B00221A6041E03E4B00221A6031E046
:109DA0003D4B1B683D4AD35C19463D480AF0D0FE46
:109DB000394B1B68013303F00F03002B0ED0364BD9
:109DC0001B680133032B09DD334B1B68013303F0A0
:109DD0000303002B02D133480AF0BAFE2E4B1B6856
:109DE000013303F00F03002B02D12F480AF024FFA8
:109DF000294B1B680133284A1360264B1B6801332B
:109E0000244A1360234B1B680F2BC9DD26480AF038
:109E100013FF1F4B1B6801331D4A13601C4B1B684B
:109E2000032BB9DD20480AF007FF1F480AF004FFA2
:109E3000174B00221A6024E0164B00221A6011E032
:109E4000154B1B68154AD35C194618480AF080FE6A
:109E5000114B1B680133104A13600E4B1B68013312
:109E60000C4A13600B4B1B68032BE9DD0E480AF00C
:109E7000E3FE0D480AF0E0FE054B1B680133044A7F
:109E80001360034B1B68032BD6DD00BF80BD00BFF2
:109E9000E04F0020E44F0020E84F0020CC0F0020CE
:109EA000B0690108B4690108B8690108BC69010812
:109EB00080B588B000AF06F063FB0023BB600123D0
:109EC0003B610223BB6101237B613A1D07F108035B
:109ED0001146184606F0B4FC0346FB7706F072FB09
:109EE000FB7F002B05D17B68B3F1FF3F01D101233C
:109EF00000E0002303F00103DBB218462037BD4623
:109F000080BD000080B500AF054A064B10461946DB
:109F10004FF480431A460AF0ABF9014B184680BD56
:109F2000CC0F00200040000890B585B000AFFFF7CF
:109F3000BFFF034683F00103DBB2002B01D00023F7
:109F40002FE01A4B7B6006F01BFB4FF480533B6005
:109F50000023BB6017E0BB689B00154A9918BB68DB
:109F60009B007A6813441B684FF000041A4623468E
:109F7000022006F0FDF90346FB73FB7B002B07D1A3
:109F8000BB680133BB60BA683B689A42E3D300E028
:109F900000BF06F017FBFB7B002B0CBF0123002347
:109FA000DBB218461437BD4690BD00BFCC0F002071
:109FB0000040000880B500AF0021044808F094F983
:109FC0000021024809F061FA00BF80BD88500020DE
:109FD00080B500AF0021044808F00AFA00210248C9
:109FE00009F0A8FA00BF80BD8850002080B500AFFE
:109FF00003220A490A4805F0C7F80346002B01D09E
:10A0000004F098F902220749074805F0BDF8034615
:10A01000002B01D004F08EF900BF80BDB00F0020EE
:10A02000105C0120B80F00200C51002080B500AF5B
:10A03000084805F09BF90346002B01D004F07AF99B
:10A04000054805F093F90346002B01D004F072F99E
:10A0500000BF80BD105C01200C51002080B500AF16
:10A060003C21044808F0BCFB3C21034808F0B8FB45
:10A0700000BF80BD705B0120CC50002080B500AFD8
:10A080000C21094808F084FA0346002B01D004F0A3
:10A0900051F90421054808F07BFA0346002B01D052
:10A0A00004F048F900BF80BD786501202C5B0120D9
:10A0B00080B500AF0C21094808F0A8FA0346002B30
:10A0C00001D004F037F90421054808F09FFA03464F
:10A0D000002B01D004F02EF900BF80BD786501206F
:10A0E0002C5B012080B500AFFFF764FFFFF77EFF18
:10A0F000FFF7C4FBFFF7C2FF00BF80BD00000000F8
:10A10000B0B500AFFFF7E4FBFFF71AFC564B1B8816
:10A110001BB21846FEF73EF9544BD3E900341A46F9
:10A120002346FDF7E9FF03460C461846214648A39F
:10A13000D3E90023FEF7C2FA03460C46184621462F
:10A1400045A3D3E90023FEF78FF903460C461846D2
:10A1500021464FF00002464BFEF7B0FA03460C468C
:10A16000444AC2E90034444BD3E90001414BD3E9EE
:10A1700000341A462346FDF7C1FF03460C46184635
:10A18000214637A3D3E90023FEF76EF903460C46B8
:10A19000184621464FF000024FF08043FEF78EFA3A
:10A1A00003460C4618462146344BD3E900341A4680
:10A1B0002346FDF7A3FF03460C46304AC2E90034AC
:10A1C0002E4BD3E900452E4BD3E9000122A3D3E95E
:10A1D0000023FEF749F902460B46104619464FF098
:10A1E0000002234BFEF76AFA02460B462046294638
:10A1F000FDF782FF03460C46204AC2E900341D4B9E
:10A20000D3E900341C4AC2E900341C4BD3E90001F5
:10A210004FF00002164BFEF727F903460C4618468E
:10A2200021460DA3D3E90023FEF748FA03460C4666
:10A23000144AC2E900340F4BD3E9003444EC173B15
:10A24000B0EE470AF0EE670AB0BD00BFAFF3008082
:10A250006666666666663040182D4454FB210940E8
:10A26000FCA9F1D24D62503F6E500020900F0020AB
:10A2700000806640F04F0020F84F0020800F002043
:10A2800018000020780F0020B0B58CB000AF87ED2B
:10A290000A0B87ED081B87ED062B87ED043B87ED46
:10A2A000024B87ED005B7C4B9B7903F00103DBB233
:10A2B000002B0FD0794BD3ED007AF5EE407AF1EE1A
:10A2C00010FA23D1764BD3ED007AF5EE407AF1EE19
:10A2D00010FA1BD1734A4FF000034FF00004C2E99B
:10A2E0000034714A4FF000034FF00004C2E900341B
:10A2F0006E4A4FF000034FF00004C2E900346C4A8C
:10A300004FF000034FF00004C2E90034624A937931
:10A3100043F001039371D7E90823D7E90A01FDF758
:10A32000EBFE03460C465F4AC2E900345D4BD3E9BD
:10A330000001D7E90623FEF797F803460C461846B6
:10A340002146594BD3E900341A462346FDF7D6FE81
:10A3500003460C46544AC2E90034524BD3E900018B
:10A36000534BD3E900341A462346FDF7C5FE034696
:10A370000C4618462146D7E90623FEF79FF9034607
:10A380000C464A4AC2E90034464BD3E90034484AF5
:10A39000C2E90034434BD3E90001D7E90423FEF7B7
:10A3A00063F803460C4625461C463F4BD3E90001A3
:10A3B000D7E90223FEF758F802460B462046294605
:10A3C000FDF79CFE03460C4625461C46374BD3E959
:10A3D0000001D7E90023FEF747F802460B46204666
:10A3E0002946FDF78BFE03460C4644EC173BB0EEC6
:10A3F000470AF0EE670A09F0C7FE54EC103B184616
:10A400002146FEF7E1FA03461BB29BB25B429BB2C8
:10A410001AB2284B1A80234BD3E90001D7E9042351
:10A42000FEF722F803460C4625461C461E4BD3E990
:10A430000001D7E90223FEF717F802460B46204633
:10A440002946FDF75BFE03460C4625461C46174B86
:10A45000D3E90001D7E90023FEF706F802460B46D0
:10A4600020462946FDF74AFE03460C4644EC173BBE
:10A47000B0EE470AF0EE670A09F086FE54EC103B96
:10A4800018462146FEF7A0FA03461AB20A4B1A8074
:10A4900000BF3037BD46B0BDF40C0020700F002067
:10A4A000740F0020005000200850002010500020A1
:10A4B000185000205250002056500020F0B589B0AE
:10A4C00000AF6B461E464FF47A7004F0B7FC4FF4B1
:10A4D000FA63FB81B7F90E000346013BBB600346FC
:10A4E00019464FF000024FF000034FF000049401B2
:10A4F00044EA91648B01034619464FF000024FF085
:10A5000000034FF00004940144EA91648B01034678
:10A51000DB0007330733DB08DB00ADEB030D6B46D5
:10A520000733DB08DB007B600023FB8323E0204B49
:10A530001B881BB2FD8B1846FDF72CFF03460C460B
:10A540007968EA000A44C2E90034FB8B7A68DB00D0
:10A550001344D3E900341A462346D7E90401FDF732
:10A56000CDFD03460C46C7E90434022004F066FC26
:10A57000FB8B0133FB83FA8BB7F90E309A42D6DBA3
:10A58000B7F90E301846FDF705FF03460C461A468C
:10A590002346D7E90401FEF791F803460C46054A25
:10A5A000C2E90034B54600BF2437BD46F0BD00BF48
:10A5B0006E500020900F002080B500AF5A4B93F9E9
:10A5C0000030072B00F2AC8001A252F823F000BF4C
:10A5D000F1A5000817A600083DA6000863A600081C
:10A5E00089A60008AFA60008D5A60008FBA60008AB
:10A5F00000224FF400714D4806F0F6FB00224FF4A4
:10A6000080714A4806F0F0FB00224FF40071484880
:10A6100006F0EAFB85E001224FF40071434806F0A2
:10A62000E3FB00224FF48071404806F0DDFB00227E
:10A630004FF400713E4806F0D7FB72E000224FF461
:10A6400000713A4806F0D0FB01224FF48071374880
:10A6500006F0CAFB00224FF40071354806F0C4FB37
:10A660005FE001224FF40071304806F0BDFB01228B
:10A670004FF480712D4806F0B7FB00224FF40071B3
:10A680002B4806F0B1FB4CE000224FF40071274844
:10A6900006F0AAFB00224FF48071244806F0A4FBC8
:10A6A00001224FF40071224806F09EFB39E001229E
:10A6B0004FF400711D4806F097FB00224FF48071A3
:10A6C0001A4806F091FB01224FF40071184806F079
:10A6D0008BFB26E000224FF40071144806F084FB47
:10A6E00001224FF48071114806F07EFB01224FF4E5
:10A6F00000710F4806F078FB13E001224FF400715F
:10A700000A4806F071FB01224FF48071074806F0F9
:10A710006BFB01224FF40071054806F065FB00E079
:10A7200000BF00BF80BD00BFF40C00200008024045
:10A730000004024080B582B000AF03460A46FB80A9
:10A740001346BB80B7F90630002B05DD012204213A
:10A750001A4806F049FB0CE0B7F90630002B08DA7E
:10A7600000220421154806F03FFBFB885B429BB2A8
:10A77000FB80B7F90430002B05DD002201210F48D2
:10A7800006F032FB0CE0B7F90430002B08DA0122A6
:10A7900001210A4806F028FBBB885B429BB2BB80C4
:10A7A000074B1B68B7F906201A64064B1B68B7F9FC
:10A7B00004209A6300BF0837BD4680BD00000240F8
:10A7C000786501202C5B012080B400AF804B1B8892
:10A7D0001AB2804B1A807E4B5B881AB27E4B1A806D
:10A7E0007E4B1B881AB27E4B1A807C4B5B881AB258
:10A7F0007C4B1A807C4BB3F900301A46754BB3F989
:10A800000030D31A002BB8BF5B421AB2774B1A80C4
:10A81000774BB3F900301A466F4BB3F90030D31AB7
:10A82000002BB8BF5B421AB2724B1A80724BB3F95D
:10A8300000301A466A4BB3F90030D31A002BB8BF68
:10A840005B421AB26D4B1A806D4BB3F900301A4659
:10A85000644BB3F90030D31A002BB8BF5B421AB275
:10A86000684B1A805B4BB3F900205F4B1A805A4B40
:10A87000B3F900205E4B1A80594BB3F900205E4BB0
:10A880001A80584BB3F900205D4B1A80504B9B88BF
:10A8900007EE903AF8EE677A5B4BC3ED007A5B4BBC
:10A8A000B3F900309AB2514BB3F900309BB2134464
:10A8B0009BB21AB2554B1A80554BB3F900309AB27D
:10A8C0004C4BB3F900309BB213449BB21AB2504BBD
:10A8D0001A80504BB3F900309AB2484BB3F90030AC
:10A8E0009BB213449BB21AB24A4B1A804A4BB3F93B
:10A8F00000309AB2434BB3F900309BB213449BB281
:10A900001AB2454B1A80454B1B680133434A13600A
:10A91000424B1B680A2B56D13C4BB3F9003007EE73
:10A92000903AF8EEE76A3D4B1B6807EE903AB8EEB6
:10A93000E77AC6EE877A3A4BC3ED007A344BB3F927
:10A94000003007EE903AF8EEE76A344B1B6807EEEA
:10A95000903AB8EEE77AC6EE877A324BC3ED007ACA
:10A960002C4BB3F9003007EE903AF8EEE76A2B4B28
:10A970001B6807EE903AB8EEE77AC6EE877A2A4B64
:10A98000C3ED007A244BB3F9003007EE903AF8EEAD
:10A99000E76A224B1B6807EE903AB8EEE77AC6EEFC
:10A9A000877A224BC3ED007A184B00221A80184B8D
:10A9B00000221A80174B00221A80174B00221A809F
:10A9C000164B00221A6000BFBD465DF8047B70473D
:10A9D000B00F00205451002028000020B80F0020A4
:10A9E000BE0F0020BA6501205851002056510020AA
:10A9F000C20F0020C40F0020C00F0020C60F00208F
:10AA0000805000206C5B012034660120265B012011
:10AA1000585C01200C5C0120B05B0120205000201C
:10AA2000206601205065012084500020285B012011
:10AA300080B487B000AF87ED010AC7ED000A0F4B65
:10AA40007B614FF08E433B61D7ED056AD7ED047A09
:10AA500086EEA77AD7ED017A67EE276A97ED007A3E
:10AA6000C6EE877AC7ED037AFB6807EE903AB0EE40
:10AA7000670A1C37BD465DF8047B70470E1F824293
:10AA800080B400AF064B47F22F525A62054B47F293
:10AA90002F525A6200BFBD465DF8047B704700BF6D
:10AAA000000400400008004080B483B000AF0346BB
:10AAB000FB80B7F90630002B02D10023FB8030E089
:10AAC000B7F90630012B2CD11A4B5A68194B1B6869
:10AAD0001344184A5360184B5A68174B1B681344A9
:10AAE000154A5360134B5A68134B5B68134407EEC7
:10AAF000903AB8EEE77AF0EE006AC7EE267AFDEEFD
:10AB0000E77A17EE902A0D4B5A600A4B1A680A4BE7
:10AB10001B681A440A4B1B681344094A136001233B
:10AB2000FB80B7F9063018460C37BD465DF8047B4C
:10AB3000704700BFD00C0020DC0C0020E80C002087
:10AB4000A80F00200000000080B500AF224B0022BB
:10AB50001A70FEF73FFF214B00225A60204B002263
:10AB60005A60204B00225A601F4B0122DA7005E028
:10AB70001D4B04225A711C4B01225A70174B5A6804
:10AB8000174B5B681344002B0FDB144B5A68144BB4
:10AB90005B6813441846FDF7FDFB0DA3D3E90023C2
:10ABA000FDF7D4FE0346002BE2D10F4B00225A7072
:10ABB0000E4B0F4A1A60094B00225A60084B0022C4
:10ABC0005A60084B00225A6000BF80BDAFF300807E
:10ABD000C8BD6EFC245FEE40FC0E0020D00C0020AF
:10ABE000DC0C0020E80C0020F40C0020700F00208A
:10ABF00000005C430000000080B500AF4A4B00221B
:10AC00001A70FEF7E7FE494B03225A71484B0022A7
:10AC10005A60484B00225A60474B00225A60434B0F
:10AC20000122DA704DE0414B02225A70404B5A68C3
:10AC3000404B5B6813441846FDF7ACFB36A3D3E9E1
:10AC40000023FDF7A1FE0346002B37D03B4BD3ED8D
:10AC5000007A9FED3B7AF4EEC77AF1EE10FA0DDD43
:10AC6000384BD3ED007A9FED387AF4EEC77AF1EEE7
:10AC700010FA03DD2D4B00225A7122E0314BD3ED47
:10AC8000007A9FED317AF4EEC77AF1EE10FA03DD27
:10AC9000264B01225A7114E0284BD3ED007A9FED28
:10ACA000287AF4EEC77AF1EE10FA03DD1F4B022288
:10ACB0005A7106E01D4B04225A7102E01B4B04221C
:10ACC0005A711B4B5A681B4B5B681344002B0FDBFC
:10ACD000174B5A68174B5B6813441846FDF75AFB2D
:10ACE0000FA3D3E90023FDF731FE0346002B9AD1D1
:10ACF0000E4B00225A70154B154A1A600C4B00225D
:10AD00005A600C4B00225A600B4B00225A6000BF65
:10AD100080BD00BFAFF3008066AE04DEA997D840C7
:10AD2000F59C6AE11822E640FC0E0020F40C00209D
:10AD3000D00C0020DC0C0020E80C00205065012025
:10AD40000000C8428450002000000C43700F002017
:10AD500000005C430000000080B500AF484B0322B8
:10AD60005A714DE0464B03225A70464B5A68464B87
:10AD70005B6813441846FDF70DFB3DA3D3E90023A0
:10AD8000FDF7E4FD0346002B37D0404BD3ED007AAE
:10AD90009FED3F7AF4EEC77AF1EE10FA0DDD3D4BF0
:10ADA000D3ED007A9FED3C7AF4EEC77AF1EE10FA1B
:10ADB00003DD334B00225A7122E0364BD3ED007A8B
:10ADC0009FED357AF4EEC77AF1EE10FA03DD2C4BE5
:10ADD00001225A7114E02D4BD3ED007A9FED2C7AAD
:10ADE000F4EEC77AF1EE10FA03DD254B02225A7118
:10ADF00006E0234B04225A7102E0214B04225A71CF
:10AE0000204B5A68204B5B6813441846FDF7C2FA82
:10AE100019A3D3E90023FDF799FD0346002B12D0B7
:10AE20001E4B93ED007A1E4BD3ED007A37EE277A56
:10AE3000F0EE006AC7EE267A9FED1A7AF4EEC77A32
:10AE4000F1EE10FA8ED40E4B00225A700C4B0522F4
:10AE50005A71154B4FF000021A60094B0022DA704C
:10AE6000124B00221A70FEF7B5FD00BF80BD00BF77
:10AE700047D138D7CB82DD40F59C6AE11822E64005
:10AE8000F40C0020D00C0020DC0C002050650120C8
:10AE90000000C8428450002000000C4320660120BE
:10AEA000285B012000600645700F0020FC0E00208A
:10AEB000B0B500AF7EE0544B5A68544B5B68134406
:10AEC0001846FDF767FA04460D46514BD3ED007A5C
:10AED00077EEA77A17EE900AFDF76EFA46A3D3E94C
:10AEE0000023FDF7C1FA02460B4620462946FDF72E
:10AEF0002DFD0346002B22D1454BD3ED007A77EE92
:10AF0000A77A17EE900AFDF757FA3DA3D3E900237D
:10AF1000FDF7F2F803460C4625461C463A4B5A68A4
:10AF20003A4B5B6813441846FDF734FA02460B4669
:10AF300020462946FDF70AFD0346002B37D0354B46
:10AF4000D3ED007A9FED347AF4EEC77AF1EE10FA81
:10AF50000DDD324BD3ED007A9FED317AF4EEC77AF6
:10AF6000F1EE10FA03DD2F4B00225A711EE02B4B3D
:10AF7000D3ED007A9FED2A7AF4EEC77AF1EE10FA5B
:10AF800003DD284B01225A7114E0224BD3ED007AE5
:10AF90009FED217AF4EEC77AF1EE10FA03DD214B32
:10AFA00002225A7106E01F4B04225A7102E01D4B27
:10AFB00004225A71144B5A68144B5B68134407EE11
:10AFC000903AB8EEE77A124BD3ED007A77EEA77A93
:10AFD000B4EEE77AF1EE10FA3FF56DAF0A4B0022BE
:10AFE0005A600A4B00225A600F4B00225A6000BF81
:10AFF000B0BD00BFAFF30080CDCCCCCCCCCCDC3F1F
:10B0000046D138D7CB82DD40D00C0020DC0C0020AC
:10B0100000000020506501200000C842845000203C
:10B0200000000C43F40C0020E80C0020000000009D
:10B030002DE9B0432DED028B84B000AF034687EDC0
:10B04000000BFB73FFF71AF897F90F30002B37DA74
:10B0500027E0474B93ED008B464B1B681846FDF7E6
:10B06000ABF904460D46434B5B681846FDF7A4F95F
:10B07000804689463F4B9B681846FDF79DF902467E
:10B080000B4643EC152B49EC148B45EC134B9FED11
:10B09000362BB0EE481AF0EE681A97ED000BFFF76A
:10B0A000F3F897F90F301846FDF774F9324BD3E9EE
:10B0B00000341A462346FDF749FC0346002BC8D14D
:10B0C00097F90F30002B37DD27E0294B93ED008BEC
:10B0D000284B1B681846FDF76FF904460D46254BB3
:10B0E0005B681846FDF768F980468946214B9B68E6
:10B0F0001846FDF761F902460B4643EC152B49EC67
:10B10000148B45EC134B9FED182BB0EE481AF0EE64
:10B11000681A97ED000BFFF7B7F897F90F3018464C
:10B12000FDF738F9144BD3E900341A462346FDF7EE
:10B130002BFC0346002BC8D1104B0022DA70104ABA
:10B140004FF000034FF00004C2E900340A4A4FF008
:10B1500000034FF00004C2E9003400BF1037BD46C1
:10B16000BDEC028BBDE8B083FCA9F1D24D62503F2B
:10B17000880F0020C40C0020780F0020F40C002061
:10B18000800F002080B582B000AF0023FB7145E046
:10B19000284B4FF000021A60274B00221A70FEF76E
:10B1A00019FC264B00225A60254B00225A60254B81
:10B1B00000225A60244B0122DA7005E0224B032260
:10B1C0005A71224B224A1A601C4B5A681C4B5B680E
:10B1D000D31A07EE903AB8EEE77A1E4BD3ED007A19
:10B1E00077EEA77AB4EEE77AF1EE10FAE6D9164BCD
:10B1F0000022DA70154B4FF000021A600D4B4FF031
:10B2000000021A600D4B00225A600D4B00225A605A
:10B210000C4B00225A60FB790133FB71FB79002B48
:10B22000B6D0054B00221A70FEF7D4FB00BF0837DA
:10B23000BD4680BD700F0020FC0E0020D00C002009
:10B24000DC0C0020E80C0020F40C0020740F00201F
:10B25000000040C00400002080B582B000AF002391
:10B26000FB7145E0284B4FF000021A60274B00228B
:10B270001A70FEF7AFFB264B00225A60254B0022C6
:10B280005A60254B00225A60244B0122DA7005E0F7
:10B29000224B03225A71224B224A1A601D4B5A68D4
:10B2A0001B4B5B68D31A07EE903AB8EEE77A1E4B59
:10B2B000D3ED007A77EEA77AB4EEE77AF1EE10FAE2
:10B2C000E6D9164B0022DA70154B4FF000021A60D7
:10B2D0000D4B4FF000021A600D4B00225A600D4BCF
:10B2E00000225A600C4B00225A60FB790133FB713B
:10B2F000FB79002BB6D0054B00221A70FEF76AFBD3
:10B3000000BF0837BD4680BD700F0020FC0E002036
:10B31000D00C0020DC0C0020E80C0020F40C0020F5
:10B32000740F0020000040400400002000000000D6
:10B3300098B500AF504B06225A7102E04E4B0622E0
:10B340005A704E4B5A684E4B5B6813441846FDF7D3
:10B3500021F83FA3D3E90023FDF7F8FA0346002BB9
:10B36000ECD1454B00225A7021E0464B464A1A6008
:10B37000464B474A1A60454B1B681846FDF71CF8B8
:10B3800035A3D3E90023FDF76FF803460C461846B2
:10B39000214633A3D3E90023FDF790F903460C4679
:10B3A00018462146FDF738FB02463A4B1A60334BEC
:10B3B0005A68334B5B6813441846FCF7EBFF24A331
:10B3C000D3E90023FDF7D6FA0346002B0FD02B4B11
:10B3D0005A682B4B5B6813441846FCF7DBFF22A32B
:10B3E000D3E90023FDF7B2FA0346002BBDD102E0FA
:10B3F000214B07225A70214B5A68214B5B6813443A
:10B400001846FCF7C7FF1AA3D3E90023FDF79EFAFD
:10B410000346002BECD1184B00225A70164B042225
:10B420005A71164B00225A60154B00225A601A4B73
:10B4300000225A60154B4FF000021A60154B4FF076
:10B4400000021A600F4B154A1A6000BF98BD00BF7A
:10B4500039484F2382F0B7403333333333B34B4053
:10B460006666666666265F403F3A959A38C6EF4044
:10B47000A3917F6F2462F140F40C0020D00C0020D7
:10B48000DC0C0020700F00200000344364500020CA
:10B490003333794344500020E80C002000005C4323
:10B4A00098B500AF504B06225A7102E04E4B042271
:10B4B0005A704E4B5A684E4B5B6813441846FCF763
:10B4C00069FF3FA3D3E90023FDF740FA0346002BB1
:10B4D000ECD1454B00225A7021E0464B464A1A6097
:10B4E000464B474A1A60454B1B681846FCF764FFF9
:10B4F00035A3D3E90023FCF7B7FF03460C461846F3
:10B50000214633A3D3E90023FDF7D8F803460C46C0
:10B5100018462146FDF780FA02463A4B1A60334B33
:10B520005A68334B5B6813441846FCF733FF24A377
:10B53000D3E90023FDF71EFA0346002B0FD02B4B57
:10B540005A682B4B5B6813441846FCF723FF22A371
:10B55000D3E90023FDF7FAF90346002BBDD102E041
:10B56000214B05225A70214B5A68214B5B681344CA
:10B570001846FCF70FFF1AA3D3E90023FDF7E6F9FD
:10B580000346002BECD1184B00225A70164B0422B4
:10B590005A71164B00225A60154B00225A601A4B02
:10B5A00000225A60174B4FF000021A60134B4FF005
:10B5B00000021A600F4B154A1A6000BF98BD00BF09
:10B5C00039484F2382F0B7403333333333B34B40E2
:10B5D0006666666666265F403F3A959A38C6EF40D3
:10B5E000A3917F6F2462F140F40C0020D00C002066
:10B5F000DC0C0020700F0020000034434450002079
:10B600003333794364500020E80C002000005C4391
:10B6100080B500AF70E0564B5A68564B5B681344D8
:10B620001846FCF7B7FE4AA3D3E90023FDF78EF9CD
:10B630000346002B05D0504B04225A714F4B504A01
:10B640001A604B4B5A684B4B5B6813441846FCF727
:10B65000A1FE3FA3D3E90023FDF78CF90346002B9D
:10B6600022D0434B5A68434B5B6813441846FCF79F
:10B6700091FE39A3D3E90023FDF768F90346002BB7
:10B6800012D03D4B06225A713C4B3D4A1A603D4B4D
:10B690003D4A1A603B4BD3ED007A9FED3C7A67EE52
:10B6A000877A3B4BC3ED007A314B5A68314B5B686C
:10B6B00013441846FCF76EFE27A3D3E90023FDF7D9
:10B6C00059F90346002B00D116E0294B5A68294B43
:10B6D0005B6813441846FCF75DFE21A3D3E9002301
:10B6E000FDF734F90346002B00D105E0224B04227C
:10B6F0005A71224B224A1A601D4B5A681D4B5B68D7
:10B7000013441846FCF746FE17A3D3E90023FDF7C0
:10B710001DF90346002B7FF47EAF174B04225A71AC
:10B72000134B00225A60134B00225A60194B00221F
:10B730005A60144B4FF000021A60154B4FF0000294
:10B740001A600E4B144A1A6000BF80BDAFF3008030
:10B7500052AFCD04962ADA4002170040854CEB40E8
:10B7600055773321E830F44056773321E830F44000
:10B77000D00C0020DC0C0020F40C0020700F002006
:10B7800000003443645000200000B4430000000077
:10B7900044500020E80C002000005C430000000042
:10B7A00080B500AF70E0564B5A68564B5B68134447
:10B7B0001846FCF7EFFD4AA3D3E90023FDF7C6F8CE
:10B7C0000346002B05D0504B04225A714F4B504A70
:10B7D0001A604B4B5A684B4B5B6813441846FCF796
:10B7E000D9FD3FA3D3E90023FDF7C4F80346002B9E
:10B7F00022D0434B5A68434B5B6813441846FCF70E
:10B80000C9FD39A3D3E90023FDF7A0F80346002BB7
:10B8100012D03D4B06225A713C4B3D4A1A603D4BBB
:10B820003D4A1A603B4BD3ED007A9FED3C7A67EEC0
:10B83000877A3B4BC3ED007A314B5A68314B5B68DA
:10B8400013441846FCF7A6FD27A3D3E90023FDF710
:10B8500091F80346002B00D116E0294B5A68294B7A
:10B860005B6813441846FCF795FD21A3D3E9002338
:10B87000FDF76CF80346002B00D105E0224B0422B3
:10B880005A71224B224A1A601D4B5A681D4B5B6845
:10B8900013441846FCF77EFD17A3D3E90023FDF7F8
:10B8A00055F80346002B7FF47EAF174B04225A71E4
:10B8B000134B00225A60134B00225A60194B00228E
:10B8C0005A60174B4FF000021A60124B4FF0000203
:10B8D0001A600E4B144A1A6000BF80BDAFF300809F
:10B8E00052AFCD04962ADA4002170040854CEB4057
:10B8F00055773321E830F44056773321E830F4406F
:10B90000D00C0020DC0C0020F40C0020700F002074
:10B9100000003443445000200000B4430000000005
:10B9200064500020E80C002000005C4380B582B029
:10B9300000AF0023FB7154E0304B4FF000021A605F
:10B940002F4B00221A70FEF745F82E4B00225A604A
:10B950002D4B00225A602D4B00225A602C4B0122A5
:10B96000DA7005E02A4B03225A712A4B2A4A1A60E0
:10B97000244B5B6807EE903AB8EEE77A274BD3ED9D
:10B98000007A77EEA77AB4EEE77AF1EE10FAE9D909
:10B990001D4B5B6807EE903AB8EEE77A1F4BD3ED8C
:10B9A000007AF1EE677A77EEA77AB4EEE77AF1EEF5
:10B9B00010FAD7DA164B0022DA70104B4FF0000263
:10B9C0001A60144B4FF000021A600E4B00225A60AE
:10B9D0000D4B00225A600D4B00225A60FB79013357
:10B9E000FB71FB79002BA7D0054B00221A70FDF7E5
:10B9F000F1FF00BF0837BD4680BD00BF700F0020BB
:10BA0000FC0E0020D00C0020DC0C0020E80C0020F4
:10BA1000F40C0020740F0020000040C0040000203F
:10BA200080B582B000AF2A4B00221A70FDF7D2FF1A
:10BA3000284B00225A60284B00225A60274B0022D4
:10BA40005A60274B0122DA7005E0264B264A1A601D
:10BA5000234B04225A711F4B5A681F4B5B681344D7
:10BA60001846FCF797FC18A3D3E90023FCF78CFFDA
:10BA70000346002BE9D11B4B4FF000021A60184B14
:10BA800005225A71164B0022DA70124B00225A60BE
:10BA9000114B00225A60114B00225A600C4B0022BD
:10BAA0001A70FDF797FF00237B6002E07B6801338B
:10BAB0007B607B680D4A9342F8DD00BF0837BD46C6
:10BAC00080BD00BFAFF3008039E245CEEB75D1C039
:10BAD000FC0E0020D00C0020DC0C0020E80C002024
:10BAE000F40C0020700F00200000B4C27F1A060082
:10BAF00080B582B000AF224B5B7A032B38D801A20D
:10BB000052F823F015BB00084BBB000851BB0008DE
:10BB100057BB0008FFF720F900237B6002E07B6839
:10BB200001337B607B68174A9342F8DDFFF72AFBFD
:10BB300000233B6002E03B6801333B603B68114AF5
:10BB40009342F8DDFFF758F812E0FFF7F1FB0FE042
:10BB5000FFF75EFD0CE0FFF7FFF89FED070B6FF0BE
:10BB60005900FFF765FAFDF789FEFFF745F800BFBA
:10BB700000BF0837BD4680BD00000000000014C0B3
:10BB8000F40C00209F86010080B582B000AF224BEC
:10BB90005B7A032B37D801A252F823F0ADBB000823
:10BBA000E3BB0008E9BB0008EFBB0008FFF7D4F8CF
:10BBB00000237B6002E07B6801337B607B68174A6F
:10BBC0009342F8DDFFF748FB00233B6002E03B684F
:10BBD00001333B603B68114A9342F8DDFFF70CF8F4
:10BBE00011E0FFF75DFC0EE0FFF7DAFD0BE0FFF779
:10BBF000B3F89FED070B5A20FFF71AFAFDF73EFE48
:10BC0000FEF7FAFF00BF00BF0837BD4680BD00BF8A
:10BC10000000000000001440F40C00209F8601008A
:10BC200080B500AF4FF480515B4805F0C5F803467E
:10BC3000012B40F0A380594808F0FEFFFEF738FAC8
:10BC4000574806F0F0FA574806F0EDFAFEF7C0F94B
:10BC5000FEF7ECF94FF4C87003F0F0F8524B93F98B
:10BC60000430DBB20133DBB25AB24F4B1A714E4B88
:10BC700093F90430052B40F081804B4B03221A715D
:10BC80007CE04A4B5B6A1A46494B1A60484B1B687A
:10BC90001946484808F05CFF454B1B6849F22E5294
:10BCA00093421EDD404B93F90030DBB20133DBB22F
:10BCB0005AB23D4B1A703C4B93F90030072B02DD12
:10BCC000394B00221A70FEF777FCFEF7D9FE364B8F
:10BCD00093F90020344B9A704FF4FA7003F0AEF8E9
:10BCE0004CE0334B1B6845F22F5293421EDC2E4B27
:10BCF00093F90030DBB2013BDBB25AB22A4B1A7027
:10BD0000294B93F90030002B02DA274B07221A70D7
:10BD1000FEF752FCFEF7B4FE234B93F90020224BB2
:10BD20009A704FF4FA7003F089F827E04FF48051CD
:10BD3000194805F041F80346012B1FD11E4808F0B1
:10BD40007BFF4FF4FA7003F079F8FEF7CBF9174B4D
:10BD500047F22F525A62194B47F22F525A6211483A
:10BD600006F03DFA0E4806F03AFA0F4B93F904300C
:10BD7000DBB20133DBB25AB20B4B1A710A4B93F9A7
:10BD80000430002B03F00103B8BF5B425BB2012B10
:10BD90003FF477AF00BF80BD000402404C6A010849
:10BDA0002861012088500020F40C0020000400408D
:10BDB000D00C0020586A0108B8690108000800404A
:10BDC00080B485B000AF0023FB600023BB6000237C
:10BDD0007B6000233B600023FB6013E00023BB601B
:10BDE0000AE0934AFB689B001A44BB6813440F2285
:10BDF0001A70BB680133BB60BB68032BF1DDFB68C5
:10BE00000133FB60FB68032BE8DD0223FB6013E0DA
:10BE10000023BB600AE0864AFB689B001A44BB68AB
:10BE2000134400221A70BB680133BB60BB68012B4E
:10BE3000F1DDFB680133FB60FB68032BE8DD0023C9
:10BE40007B600023FB60E2E00023BB60D8E0784A1F
:10BE5000FB689B001A44BB6813441B781A463B6876
:10BE6000934240F0CA807349FB689A00BB68134450
:10BE700011F81330C3F30103DBB2012B25D0BB68EB
:10BE800001336B49FA6892000A4413441A786849EE
:10BE9000FB689B001944BB680B441B789A4214D979
:10BEA000BB68022B11DC624AFB689B001A44BB682A
:10BEB00013441A78BB6801330132D0B25C49FA6886
:10BEC00092000A44134402461A705A49FB689A00C9
:10BED000BB68134411F81330C3F38103DBB2012BA9
:10BEE00025D0FB680133524A9B001A44BB681344B7
:10BEF0001A784F49FB689B001944BB680B441B78B8
:10BF00009A4214D9FB68022B11DC494AFB689B005A
:10BF10001A44BB6813441A78FB6801330132D1B26A
:10BF2000434A9B001A44BB6813440A461A704149AD
:10BF3000FB689A00BB68134411F81330C3F3011374
:10BF4000DBB2012B25D0BB68013B3949FA6892006E
:10BF50000A4413441A783649FB689B001944BB68AD
:10BF60000B441B789A4214D9BB68002B11DD304A70
:10BF7000FB689B001A44BB6813441A78BB68013BFA
:10BF80000132D0B22A49FA6892000A4413440246A8
:10BF90001A702849FB689A00BB68134411F81330E3
:10BFA000C3F38113DBB2012B25D0FB68013B204A90
:10BFB0009B001A44BB6813441A781D49FB689B0018
:10BFC0001944BB680B441B789A4214D9FB68002BB8
:10BFD00011DD174AFB689B001A44BB6813441A78AA
:10BFE000FB68013B0132D1B2114A9B001A44BB6885
:10BFF00013440A461A7001237B60BB680133BB609F
:10C00000BB68032B7FF723AFFB680133FB60FB6842
:10C01000032B7FF719AF3B6801333B607B68002B34
:10C020007FF40DAF00BF1437BD465DF8047B704749
:10C03000E86001205865012080B500AF4FF47A70A8
:10C0400002F0FCFEFEF7D8FDFEF732FFFEF730FFF0
:10C05000FEF782FEFEF72CF80A4806F0E4F80A48DC
:10C0600006F0E1F8094B1B681946094808F070FD15
:10C07000084B1B681946084808F06AFD074808F095
:10C08000DBFDEFE72861012088500020AC0F002085
:10C09000606A0108A80F00207C6A0108B8690108DD
:10C0A00090B482B000AF8B4B93ED007A8A4BD3ED06
:10C0B000007A37EE277AF0EE006AC7EE267AB3EE02
:10C0C0000E7AF4EEC77AF1EE10FACCBF012300230A
:10C0D000DAB2824B1B7807F108010B4403F8042CF9
:10C0E0007F4BD3ED007A9FED7F7AF4EEC77AF1EEC5
:10C0F00010FACCBF01230023D9B2784B1B7801334F
:10C100005A4203F0030302F0030258BF53420A46A7
:10C1100007F108010B4403F8042C704B1B78023321
:10C120005A4203F0030302F0030258BF534207F1DF
:10C1300008021344002203F8042C6B4BD3ED007A61
:10C140009FED6A7AF4EEC77AF1EE10FACCBF0123C4
:10C150000023D9B2614B1B7803335A4203F0030327
:10C1600002F0030258BF53420A4607F108010B448C
:10C1700003F8042C39795E4B1B781C465D4B1B7809
:10C180001A460B4603F00303D8B25B49A3001A44D6
:10C1900011F8123060F3010301F812307979544B31
:10C1A0001B781C46534B1B781A460B4603F00303BF
:10C1B000D8B25149A3001A4411F8123060F3830336
:10C1C00001F81230B9794A4B1B781C46494B1B7851
:10C1D0001A460B4603F00303D8B24749A3001A449A
:10C1E00011F8123060F3051301F81230F979404B61
:10C1F0001B781C463F4B1B781A460B4603F0030383
:10C20000D8B23D49A3001A4411F8123060F38713E5
:10C2100001F81230374B1B78022B12D83979344B86
:10C220001B781A46334B1B78013301F00301C8B267
:10C23000314992001A4411F8123060F3051301F8E5
:10C2400012302B4B1B78022B11D87979284B1B7895
:10C250000133284A127801F00301C8B226499B0035
:10C260001A4411F8123060F3871301F81230214B91
:10C270001B78002B12D0B9791D4B1B781A461D4B29
:10C280001B78013B01F00301C8B21B4992001A441C
:10C2900011F8123060F3010301F81230144B1B78CF
:10C2A000002B11D0F979124B1B78013B114A1278FF
:10C2B00001F00301C8B210499B001A4411F8123072
:10C2C00060F3830301F8123000BF0837BD4690BC0D
:10C2D000704700BF20660120285B01205A510020D2
:10C2E000506501200000C8428450002000000C432B
:10C2F000BC0F0020BD0F00205865012090B58DB007
:10C3000000AF954B00225A72944B1B78032B00F21E
:10C31000B58301A252F823F029C30008E9C400083C
:10C32000C5C60008A1C800088D4B1B7818468D4B68
:10C330001B7819468C4A83000B4412F81330C3F360
:10C340000103DBB2002B27D1854B1B781A46854BA6
:10C350001B780133854992000A4413441A78804BB4
:10C360001B781C467F4B1B7818468049A3000B4462
:10C3700003441B789A420FD27A4B1B78022B0BD8BE
:10C38000FEF796FD754B00221A70764B1B78013331
:10C39000DAB2744B1A70A6E0714B1B781846714BD9
:10C3A0001B781946704A83000B4412F81330C3F30C
:10C3B0008113DBB2002B27D1694B1B78013B694A03
:10C3C00012781146694A9B0013440B441A78644B57
:10C3D0001B781C46634B1B7818466449A3000B442A
:10C3E00003441B789A420FD25D4B1B78002B0BD075
:10C3F000FFF7CAFB594B03221A70594B1B78013BBC
:10C40000DAB2574B1A706EE0554B1B781846554BF5
:10C410001B781946544A83000B4412F81330C3F3B7
:10C420008103DBB2002B27D14D4B1B7801334D4AE2
:10C43000127811464D4A9B0013440B441A78484B1E
:10C440001B781C46474B1B7818464849A3000B44F1
:10C4500003441B789A420FD2414B1B78022B0BD816
:10C46000FFF746FB3D4B01221A703D4B1B78013311
:10C47000DAB23B4B1A7036E0FEF76EFC0023FB622B
:10C4800002E0FB6A0133FB62FB6A394A9342F8DD42
:10C49000314B93F90230012B01D1FDF709FEFFF773
:10C4A00045FA0023BB6202E0BB6A0133BB62BB6A90
:10C4B0002F4A9342F8DDFFF7B3FA00237B6202E0D4
:10C4C0007B6A01337B627B6A294A9342F8DDFEF77F
:10C4D0003BFB224B02221A70224B1B78013BDAB243
:10C4E000204B1A70CBE2CAE21D4B1B7818461D4B3D
:10C4F0001B7819461C4A83000B4412F81330C3F30F
:10C500008103DBB2002B35D1154B1B780133154A63
:10C5100012781146154A9B0013440B441A78104BAD
:10C520001B781C460F4B1B7818461049A3000B4480
:10C5300003441B789A421DD2094B1B78022B19D851
:10C54000FEF7B6FC054B01221A70054B1B78013330
:10C55000DAB2034B1A70B4E0F40C00205A510020F8
:10C56000BC0F0020BD0F002058650120E8600120AD
:10C570009F8601008B4B1B7818468B4B1B78194606
:10C580008A4A83000B4412F81330C3F30103DBB271
:10C59000002B27D1834B1B781A46834B1B78013322
:10C5A000834992000A4413441A787E4B1B781C4638
:10C5B0007D4B1B7818467E49A3000B4403441B782F
:10C5C0009A420FD2784B1B78022B0BD8FFF7DCFA7C
:10C5D000784B00221A70744B1B780133DAB2724B1D
:10C5E0001A706EE06F4B1B7818466F4B1B7819461C
:10C5F0006E4A83000B4412F81330C3F30113DBB20D
:10C60000002B27D1674B1B781A46674B1B78013BE1
:10C61000674992000A4413441A78624B1B781C46FF
:10C62000614B1B7818466249A3000B4403441B78F6
:10C630009A420FD25C4B1B78002B0BD0FFF758FAB5
:10C640005C4B02221A70584B1B78013BDAB2564BF6
:10C650001A7036E0FEF780FB00233B6202E03B6A83
:10C6600001333B623B6A544A9342F8DD534B93F9E2
:10C670000230012B01D1FDF71BFDFFF757F9002315
:10C68000FB6102E0FB690133FB61FB694A4A9342AB
:10C69000F8DDFFF7C5F90023BB6102E0BB69013398
:10C6A000BB61BB69444A9342F8DDFEF74DFA414B4A
:10C6B00003221A703B4B1B78013BDAB2394B1A70DC
:10C6C000DDE1DCE1374B1B781846374B1B78194608
:10C6D000364A83000B4412F81330C3F30113DBB264
:10C6E000002B27D12F4B1B781A462F4B1B78013B71
:10C6F0002F4992000A4413441A782A4B1B781C468F
:10C70000294B1B7818462A49A3000B4403441B7885
:10C710009A420FD2244B1B78002B0BD0FEF7C8FB9C
:10C72000244B02221A70204B1B78013BDAB21E4BBD
:10C730001A70B4E01B4B1B7818461B4B1B7819462C
:10C740001A4A83000B4412F81330C3F38103DBB29F
:10C75000002B35D1134B1B780133134A1278114645
:10C76000134A9B0013440B441A780E4B1B781C464B
:10C770000D4B1B7818460E49A3000B4403441B784D
:10C780009A421DD2074B1B78022B19D8FFF7FCF9F0
:10C79000084B01221A70034B1B780133DAB2014BAC
:10C7A0001A707CE0BC0F0020BD0F002058650120EE
:10C7B000E86001205A5100209F860100F40C0020FF
:10C7C0009D4B1B7818469D4B1B7819469C4A83004D
:10C7D0000B4412F81330C3F38113DBB2002B27D1C3
:10C7E000954B1B78013B954A12781146954A9B0060
:10C7F00013440B441A78904B1B781C468F4B1B78C4
:10C8000018469049A3000B4403441B789A420FD268
:10C81000894B1B78002B0BD0FFF76AF98A4B032258
:10C820001A70854B1B78013BDAB2834B1A7036E0E5
:10C83000FEF792FA00237B6102E07B6901337B61A2
:10C840007B69824A9342F8DD814B93F90230012BD8
:10C8500001D1FDF72DFCFFF769F800233B6102E0F1
:10C860003B6901333B613B69784A9342F8DDFFF74E
:10C87000D7F80023FB6002E0FB680133FB60FB6834
:10C88000724A9342F8DDFEF75FF96F4B00221A708F
:10C890006A4B1B780133DAB2684B1A70EFE0EEE0B6
:10C8A000654B1B781846654B1B781946644A830014
:10C8B0000B4412F81330C3F38113DBB2002B27D1E2
:10C8C0005D4B1B78013B5D4A127811465D4A9B0027
:10C8D00013440B441A78584B1B781C46574B1B7853
:10C8E00018465849A3000B4403441B789A420FD2C0
:10C8F000514B1B78002B0BD0FEF7DAFA524B032278
:10C900001A704D4B1B78013BDAB24B4B1A70B4E0F6
:10C91000494B1B781846494B1B781946484A8300F7
:10C920000B4412F81330C3F30113DBB2002B27D1F1
:10C93000414B1B781A46414B1B78013B4149920001
:10C940000A4413441A783C4B1B781C463B4B1B781B
:10C9500018463C49A3000B4403441B789A420FD26B
:10C96000364B1B78002B0BD0FFF70EF9364B02220B
:10C970001A70324B1B78013BDAB2304B1A707CE0F4
:10C980002D4B1B7818462D4B1B7819462C4A8300DB
:10C990000B4412F81330C3F30103DBB2002B27D191
:10C9A000254B1B781A46254B1B78013325499200ED
:10C9B0000A4413441A78204B1B781C461F4B1B78E3
:10C9C00018462049A3000B4403441B789A420FD217
:10C9D0001A4B1B78022B0BD8FFF78AF81A4B002250
:10C9E0001A70164B1B780133DAB2144B1A7044E0FC
:10C9F000FEF7B2F90023BB6002E0BB680133BB6005
:10CA0000BB68124A9342F8DD114B93F90230012BB7
:10CA100001D1FDF74DFBFEF789FF00237B6002E0AB
:10CA20007B6801337B607B68084A9342F8DDFEF740
:10CA3000F7FF00233B6010E0BC0F0020BD0F00207B
:10CA400058650120E86001205A5100209F860100AE
:10CA5000F40C00203B6801333B603B680A4A934278
:10CA6000F8DDFEF771F8094B01221A70084B1B78AC
:10CA70000133DAB2064B1A7001E000E000BF00BFDC
:10CA80003437BD4690BD00BF9F8601005A5100203B
:10CA9000BC0F002080B500AFFDF75EF82A4B0022E6
:10CAA0001A70294B1A78294B1A70294B00221A70D8
:10CAB000FFF7F6FA254B1B781846234B1B781A46CE
:10CAC000244983001A4411F81230012060F3051341
:10CAD00001F81230FFF774F9FEF736F81B4B00220D
:10CAE0001A70194B1B780133DAB2174B1A7005E034
:10CAF000FFF7D6FAFFF764F9FFF700FC134B1B783A
:10CB0000012BF5D9114B1B78032BF1D80E4B1B7859
:10CB1000012BEDD8FEF720F9FFF7C2FAFDF7C8FAAE
:10CB20000D4B07221A70FDF747FD4FF47A7002F0A3
:10CB300085F9FDF785F8FDF7F7F9074B00221A7024
:10CB4000FDF73AFD00BF80BDBD0F0020BC0F0020E7
:10CB50005A51002058650120F40C002080B483B0A5
:10CB600000AF786000BF0C37BD465DF8047B7047AE
:10CB70002DE9B04F2DED028B82B000AF78607B685D
:10CB8000B94A934240F0F684B84B1B7A002B04D08C
:10CB9000012B00F0238400F0EEBCFCF79DFFB44BAA
:10CBA0005B6A1A46B34B1A60B34B5B6A1A46B34BC7
:10CBB0001A60B04B1B68C3F5EA432F33AD4A1360CC
:10CBC000AE4B1B68C3F5EA432F33AC4A1360A74B47
:10CBD00093F903301BB21846FDF766FF03465AB2BD
:10CBE000A24BDA70A54B1A68A24B1B681A44A44BDF
:10CBF0001B681344A24A1360FDF742FF9D4B1B685C
:10CC000007EE903AF8EEE77ADFED9E0AB0EE670A9B
:10CC1000FDF70EFFF0EE407A9B4BC3ED007A974B89
:10CC20001B6807EE903AF8EEE77ADFED960AB0EE71
:10CC3000670AFDF7FDFEF0EE407A944BC3ED007AF3
:10CC4000914B93ED007A914BD3ED007A37EE277A32
:10CC5000F0EE006AC7EE267A8D4BC3ED007AFDF741
:10CC60004FFAB0EE407AF0EE607A8A4B83ED007BAB
:10CC70007E4B5B79062B00F25C8101A252F823F017
:10CC80009DCC0008E3CC000829CD00086FCD00083A
:10CC9000CFCD000847CE0008BDCE00087E4BD3EDB7
:10CCA000007A7E4B93ED007A7D4BD3ED006A7C4B8E
:10CCB00093ED016A7A4BD3ED025AF0EE652AB0EE9D
:10CCC000462AF0EE661A9FED771AF0EE470AB0EEAC
:10CCD000670AFCF771F8654A93796FF30003937163
:10CCE00028E1714BD3ED007A6C4B93ED007A6C4BDD
:10CCF000D3ED006A6A4B93ED016A694BD3ED025A9A
:10CD0000F0EE652AB0EE462AF0EE661A9FED651A3F
:10CD1000F0EE470AB0EE670AFCF716F9534A93792A
:10CD20006FF30003937105E1604BD3ED007A5A4B2A
:10CD300093ED007A5A4BD3ED006A594B93ED016A9B
:10CD4000574BD3ED025AF0EE652AB0EE462AF0EECC
:10CD5000661A9FED541AF0EE470AB0EE670AFCF728
:10CD6000C5F9424A93796FF300039371E2E0504BA7
:10CD70001B681846FBF720FB04460D46454B93ED18
:10CD8000008B4C4B1B681846FBF716FB8046894608
:10CD9000484B5B681846FBF70FFB82468B46454BBA
:10CDA0009B681846FBF708FB02460B4643EC152B25
:10CDB0004BEC14AB49EC138B9FED272BB0EE481ACC
:10CDC000F0EE681A45EC104BFDF75EFAB2E03A4B14
:10CDD000D3ED007A384B93ED017A374BD3ED026AED
:10CDE000F0EE661AB0EE471AF0EE670A9FED250ADC
:10CDF000FCF728FC274B93ED008B2E4B1B68184645
:10CE0000FBF7DAFA04460D462A4B5B681846FBF737
:10CE1000D3FA80468946274B9B681846FBF7CCFA25
:10CE200002460B4643EC152B49EC148B45EC134B97
:10CE30009FED092BB0EE481AF0EE681A9FED080B33
:10CE4000FDF722FA76E0094A93796FF300039371B4
:10CE500070E000BFAFF30080FCA9F1D24D62503FFB
:10CE6000000000000000000028610120F40C0020F8
:10CE700000040040D00C002000080040DC0C002022
:10CE8000AC0F00206F12833A5C50002068500020E5
:10CE9000C8500020880F00205065012084500020D9
:10CEA000AC0C002017B751382400002020000020CF
:10CEB000740F0020C40C0020B80C0020864BD3ED6A
:10CEC000007A864B93ED007A854BD3ED006A844B54
:10CED00093ED016A824BD3ED025AF0EE652AB0EE73
:10CEE000462AF0EE661A9FED7F1AF0EE470AB0EE82
:10CEF000670AFCF78BFA7C4BD3ED007A7B4B93ED02
:10CF0000007A774BD3ED006A754B93ED016A744B51
:10CF1000D3ED025AF0EE652AB0EE462AF0EE661A1C
:10CF20009FED701AF0EE470AB0EE670AFCF7FCFAC4
:10CF300000E000BF6E4B93F90130012B16D16D4B11
:10CF4000D3ED007A9FED6C7AF4EEC77AF1EE10FA29
:10CF500040F1FF80674B93ED007A684BD3ED007A88
:10CF600077EE277A634BC3ED007AF2E0604B93F9DA
:10CF70000130022B16D15F4BD3ED007A9FED5E7A24
:10CF8000F4EEC77AF1EE10FA40F1E380594B93EDDD
:10CF9000007A5B4BD3ED007A77EE277A554BC3EDE1
:10CFA000007AD6E0524B93F90130032B14D1514B48
:10CFB000D3ED007AF5EEC07AF1EE10FA40F3C980B5
:10CFC0004C4B93ED007A4E4BD3ED007A77EE677AB7
:10CFD000484BC3ED007ABCE0454B93F90130042B7C
:10CFE00024D13D4B1B681846FBF7E6F938A3D3E97B
:10CFF0000023FBF7ABFC0346002B00F0AA80364B66
:10D0000093ED007A3F4BD3ED007A77EE277A324BDF
:10D01000C3ED007A344B93ED007A3A4BD3ED007AAE
:10D0200077EE677A304BC3ED007A92E0304B93F99C
:10D030000130052B21D1284BD3ED007A9FED2E7ABC
:10D04000F4EEC77AF1EE10FA40F38380224B93EDB1
:10D05000007A2C4BD3ED007A77EE677A1E4BC3ED46
:10D06000007A214B93ED007A264BD3ED007A77EED0
:10D07000277A1D4BC3ED007A6BE01D4B93F901300D
:10D08000062B41D1184B1B681846FBF795F910A3E6
:10D09000D3E90023FBF75AFC0346002B59D00E4B73
:10D0A00093ED007A174BD3ED007A77EE677A0A4B4F
:10D0B000C3ED007A0C4B93ED007A124BD3ED007A5E
:10D0C00077EE277A084BC3ED007A42E0AFF3008099
:10D0D000943EE9933E09734044500020685000207C
:10D0E000B80C00206F12833A645000205C5000207E
:10D0F000F40C0020700F002000005C4308000020AA
:10D100000C000020100000208D4B93F90130072BFC
:10D110001FD18C4BD3ED007A9FED8B7AF4EEC77A5A
:10D12000F1EE10FA15DD894B93ED007A884BD3EDC3
:10D13000007A77EE277A854BC3ED007A814B93ED29
:10D14000007A834BD3ED007A77EE677A7D4BC3ED9F
:10D15000007A804BD3ED007A7F4B93ED007A7F4BC2
:10D16000D3ED006A7D4B93ED016A7C4BD3ED025AFF
:10D17000F0EE652AB0EE462AF0EE661A9FED781AB8
:10D18000F0EE470AB0EE670AFCF782F8754BB3F988
:10D1900000309AB2744BB3F900309BB213449AB288
:10D1A000724BB3F900309BB213449AB2704BB3F98F
:10D1B00000309BB213449AB26E4BB3F900309BB26D
:10D1C00013449AB26C4BB3F900309BB213449AB239
:10D1D0006A4BB3F900309BB213449AB2684BB3F96F
:10D1E00000309BB213449BB21AB2664B1A80664B56
:10D1F000B3F900309AB2654BB3F900309BB21344D7
:10D200009AB2634BB3F900309BB213449AB2614BAC
:10D21000B3F900309BB213449AB25F4BB3F90030BC
:10D220009BB213449AB25D4BB3F900309BB21344E6
:10D230009AB25B4BB3F900309BB213449AB2594B8C
:10D24000B3F900309BB213449BB21AB2564B1A800A
:10D25000564BD3E900014FF00002554BFBF780FB22
:10D260000346002B2BD0514BD3E9003418462146FE
:10D27000FBF7AAFB01464F4B83FB01235A10CB1748
:10D28000D21A13469B001344CA1A002A17D14A4BDC
:10D2900093ED007A494BD3ED007A37EE277A484B6D
:10D2A0001B68F0EE006AC7EE267A464A9B001344DC
:10D2B000C3ED007A424B1B680133414A1360424B75
:10D2C0001B680133404A13603F4B1A683F4B83FB96
:10D2D00002131911D317CB1A322101FB03F3D31A0E
:10D2E000002B1BD13A4B1B683A4A9B0013441B6826
:10D2F0001846FBF761F810A3D3E90023FBF7B4F855
:10D3000003460C4618462146FBF786FB0246324B85
:10D310001A602F4B1B6801332D4A1360194BB3F968
:10D320000020214BB3F9003019461046FDF702FAF0
:10D3300021E100BFAFF30080B81E85EB51B8AE3FCE
:10D34000F40C00206450002000005C434450002096
:10D3500010000020700F0020C8500020B80C0020E2
:10D360006F12833A48500020605000204A5000203D
:10D370003C50002058500020525000203E500020C9
:10D3800062500020B8650120505000204E5000200F
:10D390006C500020545000205A500020565000205D
:10D3A0004C50002040500020245B0120A00F0020A2
:10D3B00000409F40676666665C5000206850002011
:10D3C000245000205C510020285000201F85EB5184
:10D3D0002C5000202C000020C80F0020FCF77CFB04
:10D3E0006F4B5B6A1A466F4B1A606F4B5B6A1A464B
:10D3F0006E4B1A606B4B1B68C3F5EA432F33694AC7
:10D4000013606A4B1B68C3F5EA432F33674A136006
:10D41000674B93F903301BB21846FDF745FB0346F3
:10D420005AB2634BDA70614B1A685E4B1B681A4440
:10D43000604B1B6813445F4A1360FDF721FB594B97
:10D440001B6807EE903AF8EEE77ADFED5B0AB0EE84
:10D45000670AFDF7EDFAF0EE407A584BC3ED007A1B
:10D46000524B1B6807EE903AF8EEE77ADFED520A6E
:10D47000B0EE670AFDF7DCFAF0EE407A504BC3EDF0
:10D48000007AFCF73DFEB0EE407AF0EE607A4D4B4C
:10D4900083ED007B4C4BD3E900013DA3D3E900238E
:10D4A000FBF75EFA0346002B59D0474BD3E9003413
:10D4B00018462146FBF788FA0146444B83FB0123BB
:10D4C0000B445A11CB17D21A13461B019B1A9B000F
:10D4D000CA1A002A12D13B4BD3E900343C4A1568E2
:10D4E00018462146FBF798FA01463A4AAB00134426
:10D4F0001960374B1B680133354A1360364B1B6884
:10D500000133354A1360344B1A68304B83FB0213E6
:10D5100013445911D317C91A0B461B015B1A9B0000
:10D52000D11A00291BD12D4B1B682D4A9B00134497
:10D530001B681846FAF740FF17A3D3E90023FAF750
:10D5400093FF03460C4618462146FBF765FA024650
:10D55000244B1A60214B1B680133204A1360224B75
:10D56000B3F90020214BB3F9003019461046FDF7FE
:10D57000E1F800E000BF7B681D4A934201D1FDF74E
:10D5800023F900BF0837BD46BDEC028BBDE8B08F64
:10D59000000000000070E740B81E85EB51B8AE3FB8
:10D5A00000040040D00C002000080040DC0C0020EB
:10D5B000F40C0020AC0F00206F12833A5C50002066
:10D5C00068500020880F0020A00F002089888888DC
:10D5D000245000205C510020285000202C500020B6
:10D5E0002C000020C80F0020B8650120245B01201A
:10D5F0008850002080B400AF074B03225A71074BBC
:10D60000074A1A60074B4FF000021A6000BFBD4680
:10D610005DF8047B704700BFF40C0020700F002001
:10D620000000B442740F002080B500AFFCF76AFC24
:10D630004FF4FA6001F002FCFCF7A8FBFEE780B5AE
:10D6400000AFFEF7F9FC00BF80BD000080B500AF61
:10D6500040F2DC5001F0F2FB034B00225A71034B05
:10D66000034A1A60FEE700BFF40C0020700F002090
:10D670000000B4420000000090B583B000AF304B12
:10D6800001221A722F4A4FF000034FF00004C2E942
:10D6900000342D4A4FF000034FF00004C2E900347B
:10D6A0002A4BD3ED007A9FED2A7A67EE877AFDEE5A
:10D6B000E77A17EE903A1AB2264B1A80234BD3ED35
:10D6C000007AF1EE677A9FED227A67EE877AFDEEB7
:10D6D000E77A17EE903A1AB21F4B1A80194BD3E92A
:10D6E000000115A3D3E90023FBF744F90346002BFF
:10D6F0001ED0FCF7DDFC44F6206001F09FFB002308
:10D700007B6011E0154A7B689B0013441B68184638
:10D71000FAF752FE03460C461A462346104807F015
:10D7200017FA7B6801337B607B68B3F5487FE9DBE0
:10D73000B6E700BFAFF30080000000000070E740D4
:10D74000F40C0020A00F0020980F0020C80F00202C
:10D7500000408345245B0120B86501205C51002016
:10D76000E86A010890B583B000AFFFF7FBFF1F4BDD
:10D7700004225A711E4B1F4A1A601F4A4FF00003C1
:10D780004FF00004C2E900341C4A4FF000034FF090
:10D790000004C2E90034184BD3E900014FF0000245
:10D7A000174BFBF7E7F80346002BF4D0FCF780FC9F
:10D7B00044F2682001F042FB00237B6011E0114A33
:10D7C0007B689B0013441B681846FAF7F5FD034677
:10D7D0000C461A4623460C4807F0BAF97B68013319
:10D7E0007B607B68B3F5C87FE9DBD4E7F40C0020ED
:10D7F000700F00200000B442A00F0020980F0020FE
:10D8000000409F405C510020E86A010880B400AFEE
:10D81000074B084A1A60084B03225A71074B4FF016
:10D8200000021A6000BFBD465DF8047B704700BF70
:10D83000700F002000000743F40C0020740F00203C
:10D8400080B500AFFFF726F900BF80BD80B500AFFF
:10D8500001F082FA00F066F800F0B0FC00F086FCFF
:10D8600000F0CAF800F036F900F090FA00F018FA6B
:10D8700000F090F900F050FC00F030FB00F0DAFA14
:10D8800000F0A2FB00F0BCF9FCF7E8FBFDF7F8F8AC
:10D8900001224FF40071214803F0A6FA4FF47A7088
:10D8A00001F0CCFA00224FF400711C4803F09CFAFE
:10D8B000FEF7B6F9FCF702FE194B93F90230072B7D
:10D8C0002AD801A252F823F0E9D80008EFD80008BE
:10D8D000F5D80008FBD8000801D9000807D90008CE
:10D8E0000DD9000813D90008FFF784FE15E0FFF7F3
:10D8F0009BFE12E0FFF7A3FE0FE0FFF7A7FE0CE090
:10D90000FFF7BAFE09E0FFF72DFF06E0FFF77EFF05
:10D9100003E0FFF795FF00E000BFCDE700080240FD
:10D92000F40C002080B594B000AF07F12003302242
:10D930000021184606F0A7FC07F10C0300221A602C
:10D940005A609A60DA601A610023BB60284B1B6C36
