:020000040800F2
:10000000000002200501010865E800086BE800080F
:1000100071E8000877E800087DE8000800000000AB
:1000200000000000000000000000000083E800085D
:1000300091E80008000000009FE80008ADE8000813
:100040005501010855010108550101085501010834
:100050005501010855010108550101085501010824
:100060005501010855010108550101085501010814
:100070005501010855010108550101085501010804
:1000800055010108550101085501010855010108F4
:1000900055010108550101085501010855010108E4
:1000A00055010108B9E8000855010108550101088A
:1000B00055010108550101085501010855010108C4
:1000C00055010108550101085501010855010108B4
:1000D00055010108550101085501010855010108A4
:1000E000CDE8000855010108550101085501010836
:1000F000DDE8000855010108550101085501010816
:100100005501010855010108550101085501010873
:100110005501010855010108550101085501010863
:10012000F1E800085501010805E90008550101083A
:100130005501010800000000000000005501010801
:100140005501010855010108550101085501010833
:100150005501010855010108550101085501010823
:100160005501010855010108550101085501010813
:1001700055010108550101080000000000000000C1
:080180005501010855010108B9
:1080000010B5054C237833B9044B13B10448AFF3D2
:1080100000800123237010BDF80100200000000043
:10802000B8A2010808B5034B1BB103490348AFF3DD
:10803000008008BD00000000FC010020B8A201087B
:10804000034613F8012B002AFBD1181A0138704798
:1080500001F0FF01102A2BDB10F0070F08D010F8F9
:10806000013B013A8B422DD010F0070F42B3F6D1FD
:10807000F0B441EA012141EA014122F007047FF016
:1080800000070023F0E80256083C85EA010586EA6D
:10809000010685FA47F5A3FA87F586FA47F6A5FAA9
:1080A00087F68EB9EED1F0BC01F0FF0102F00702B5
:1080B00032B110F8013B013A83EA010313B1F8D160
:1080C0000020704701387047002D06BF3546033841
:1080D000073815F0010F07D1013015F4807F02BF7A
:1080E000013015F4C03F0130F0BC0138704700BFCB
:1080F00081F0004102E000BF83F0004330B54FEA59
:1081000041044FEA430594EA050F08BF90EA020FC5
:108110001FBF54EA000C55EA020C7FEA645C7FEA58
:10812000655C00F0E2804FEA5454D4EB5555B8BF7B
:108130006D420CDD2C4480EA020281EA030382EAEC
:10814000000083EA010180EA020281EA0303362D7E
:1081500088BF30BD11F0004F4FEA01314FF4801C51
:108160004CEA113102D0404261EB410113F0004F63
:108170004FEA03334CEA133302D0524263EB43031A
:1081800094EA050F00F0A780A4F10104D5F1200EB8
:108190000DDB02FA0EFC22FA05F2801841F1000113
:1081A00003FA0EF2801843FA05F359410EE0A5F1E7
:1081B00020050EF1200E012A03FA0EFC28BF4CF018
:1081C000020C43FA05F3C01851EBE37101F00045CE
:1081D00007D54FF0000EDCF1000C7EEB00006EEBDB
:1081E0000101B1F5801F1BD3B1F5001F0CD3490865
:1081F0005FEA30004FEA3C0C04F101044FEA4452BC
:1082000012F5800F80F09A80BCF1004F08BF5FEA42
:10821000500C50F1000041EB045141EA050130BD22
:108220005FEA4C0C404141EB010111F4801FA4F1C5
:108230000104E9D191F0000F04BF01460020B1FA1A
:1082400081F308BF2033A3F10B03B3F120020CDA52
:108250000C3208DD02F1140CC2F10C0201FA0CF030
:1082600021FA02F10CE002F11402D8BFC2F1200C95
:1082700001FA02F120FA0CFCDCBF41EA0C0190404B
:10828000E41AA2BF01EB0451294330BD6FEA040494
:108290001F3C1CDA0C340EDC04F11404C4F120027F
:1082A00020FA04F001FA02F340EA030021FA04F391
:1082B00045EA030130BDC4F10C04C4F1200220FAE8
:1082C00002F001FA04F340EA0300294630BD21FA26
:1082D00004F0294630BD94F0000F83F4801306BFEC
:1082E00081F480110134013D4EE77FEA645C18BFE0
:1082F0007FEA655C29D094EA050F08BF90EA020F77
:1083000005D054EA000C04BF1946104630BD91EA6E
:10831000030F1EBF0021002030BD5FEA545C05D171
:108320004000494128BF41F0004130BD14F58004B0
:108330003CBF01F5801130BD01F0004545F0FE4124
:1083400041F470014FF0000030BD7FEA645C1ABF59
:10835000194610467FEA655C1CBF0B46024650EA90
:10836000013406BF52EA033591EA030F41F40021BC
:1083700030BD00BF90F0000F04BF0021704730B542
:108380004FF4806404F132044FF000054FF0000117
:1083900050E700BF90F0000F04BF0021704730B5D8
:1083A0004FF4806404F1320410F0004548BF4042AD
:1083B0004FF000013EE700BF42004FEAE2014FEA02
:1083C00031014FEA02701FBF12F07F4393F07F4FDD
:1083D00081F06051704732F07F4208BF704793F0E0
:1083E0007F4F04BF41F40021704730B54FF46074F3
:1083F00001F0004521F000411CE700BF50EA0102F6
:1084000008BF704730B54FF000050AE050EA01029E
:1084100008BF704730B511F0004502D5404261EB0E
:1084200041014FF4806404F132045FEA915C3FF44F
:10843000D8AE4FF003025FEADC0C18BF03325FEAEC
:10844000DC0C18BF033202EBDC02C2F1200300FA9D
:1084500003FC20FA02F001FA03FE40EA0E0021FAC2
:1084600002F11444BDE600BF70B54FF0FF0C4CF4B0
:10847000E06C1CEA11541DBF1CEA135594EA0C0F62
:1084800095EA0C0F00F0DEF82C4481EA030621EA9D
:108490004C5123EA4C5350EA013518BF52EA0335D8
:1084A00041F4801143F4801338D0A0FB02CE4FF08A
:1084B0000005E1FB02E506F00042E0FB03E54FF0BA
:1084C0000006E1FB03569CF0000F18BF4EF0010EB2
:1084D000A4F1FF04B6F5007F64F5407404D25FEAAE
:1084E0004E0E6D4146EB060642EAC62141EA555161
:1084F0004FEAC52040EA5E504FEACE2EB4F1FD0CA3
:1085000088BFBCF5E06F1ED8BEF1004F08BF5FEA20
:10851000500E50F1000041EB045170BD06F00046D2
:1085200046EA010140EA020081EA0301B4EB5C047F
:10853000C2BFD4EB0C0541EA045170BD41F4801177
:108540004FF0000E013C00F3AB8014F1360FDEBF9C
:10855000002001F0004170BDC4F10004203C35DA78
:108560000C341BDC04F11404C4F1200500FA05F3FB
:1085700020FA04F001FA05F240EA020001F000429C
:1085800021F0004110EBD37021FA04F642EB060112
:108590005EEA430E08BF20EAD37070BDC4F10C043C
:1085A000C4F1200500FA04F320FA05F001FA04F200
:1085B00040EA020001F0004110EBD37041F10001EC
:1085C0005EEA430E08BF20EAD37070BDC4F12005F7
:1085D00000FA05F24EEA020E20FA04F301FA05F25F
:1085E00043EA020321FA04F001F0004121FA04F207
:1085F00020EA020000EBD3705EEA430E08BF20EAD7
:10860000D37070BD94F0000F0FD101F00046400010
:1086100041EB010111F4801F08BF013CF7D041EA92
:10862000060195F0000F18BF704703F00046520096
:1086300043EB030313F4801F08BF013DF7D043EA67
:108640000603704794EA0C0F0CEA135518BF95EA1D
:108650000C0F0CD050EA410618BF52EA4306D1D1A4
:1086600081EA030101F000414FF0000070BD50EAC3
:10867000410606BF1046194652EA430619D094EA4D
:108680000C0F02D150EA013613D195EA0C0F05D137
:1086900052EA03361CBF104619460AD181EA03018B
:1086A00001F0004141F0FE4141F470014FF0000043
:1086B00070BD41F0FE4141F4780170BD70B54FF0DE
:1086C000FF0C4CF4E06C1CEA11541DBF1CEA13555E
:1086D00094EA0C0F95EA0C0F00F0A7F8A4EB050440
:1086E00081EA030E52EA03354FEA013100F0888037
:1086F0004FEA03334FF0805545EA131343EA126300
:108700004FEA022245EA111545EA10654FEA0026B4
:108710000EF000419D4208BF964244F1FD0404F56D
:10872000407402D25B084FEA3202B61A65EB0305C9
:108730005B084FEA32024FF480104FF4002CB6EB86
:10874000020E75EB030E22BFB61A754640EA0C0006
:108750005B084FEA3202B6EB020E75EB030E22BF46
:10876000B61A754640EA5C005B084FEA3202B6EB87
:10877000020E75EB030E22BFB61A754640EA9C0046
:108780005B084FEA3202B6EB020E75EB030E22BF16
:10879000B61A754640EADC0055EA060E18D04FEAD4
:1087A000051545EA16754FEA06164FEAC30343EA74
:1087B00052734FEAC2025FEA1C1CC0D111F4801F41
:1087C0000BD141EA00014FF000004FF0004CB6E73A
:1087D00011F4801F04BF01430020B4F1FD0C88BFD9
:1087E000BCF5E06F3FF6AFAEB5EB030C04BFB6EBE4
:1087F000020C5FEA500C50F1000041EB045170BDD7
:108800000EF0004E4EEA113114EB5C04C2BFD4EB03
:108810000C0541EA045170BD41F480114FF0000E87
:10882000013C90E645EA060E8DE60CEA135594EA03
:108830000C0F08BF95EA0C0F3FF43BAF94EA0C0F06
:108840000AD150EA01347FF434AF95EA0C0F7FF47B
:1088500025AF104619462CE795EA0C0F06D152EACF
:1088600003353FF4FDAE1046194622E750EA4106B3
:1088700018BF52EA43067FF4C5AE50EA41047FF4C4
:108880000DAF52EA43057FF4EBAE12E74FF0FF3C29
:1088900006E000BF4FF0010C02E000BF4FF0010CFA
:1088A0004DF804CD4FEA410C7FEA6C5C4FEA430C73
:1088B00018BF7FEA6C5C1BD001B050EA410C0CBFC2
:1088C00052EA430C91EA030F02BF90EA020F002024
:1088D000704710F1000F91EA030F58BF994208BF8B
:1088E00090422CBFD8176FEAE37040F00100704748
:1088F0004FEA410C7FEA6C5C02D150EA013C07D19F
:108900004FEA430C7FEA6C5CD6D152EA033CD3D0E9
:108910005DF8040B704700BF8446104662468C46E3
:108920001946634600E000BF01B5FFF7B7FF002816
:1089300048BF10F1000F01BD4DF808EDFFF7F4FF3F
:108940000CBF012000205DF808FB00BF4DF808EDCA
:10895000FFF7EAFF34BF012000205DF808FB00BFED
:108960004DF808EDFFF7E0FF94BF012000205DF80F
:1089700008FB00BF4DF808EDFFF7CEFF94BF0120C4
:1089800000205DF808FB00BF4DF808EDFFF7C4FFBD
:1089900034BF012000205DF808FB00BF4FEA410C06
:1089A0007FEA6C5C02D150EA013C0AD14FEA430CE9
:1089B0007FEA6C5C02D152EA033C02D14FF0000026
:1089C00070474FF0010070474FEA410212F5001264
:1089D00015D211D56FF47873B3EB625212D94FEA06
:1089E000C12343F0004343EA505311F0004F23FAF0
:1089F00002F018BF404270474FF00000704750EA45
:108A0000013005D111F0004008BF6FF00040704701
:108A10004FF00000704700BF4A0011D212F500125B
:108A200011D20DD56FF47873B3EB62520ED44FEAC6
:108A3000C12343F0004343EA505323FA02F0704746
:108A40004FF00000704750EA013002D14FF0FF3084
:108A500070474FF0000070474FEA4102B2F1E04327
:108A600024BFB3F5001CDCF1FE5C0DD901F0004C15
:108A70004FEAC0024CEA5070B2F1004F40EB830065
:108A800008BF20F00100704711F0804F21D113F191
:108A90003872BCBF01F00040704741F480114FEACA
:108AA0005252C2F11802C2F1200C10FA0CF320FA53
:108AB00002F018BF40F001004FEAC1234FEAD32370
:108AC00003FA0CFC40EA0C0023FA02F34FEA4303DA
:108AD000CCE77FEA625307D150EA01331EBF4FF063
:108AE000FE4040F44000704701F0004040F0FE407E
:108AF00040F40000704700BF53B94AB9002908BFCD
:108B000000281CBF4FF0FF314FF0FF3000F072B96A
:108B1000ADF1080C6DE904CE00F006F8DDF804E0D4
:108B2000DDE9022304B070472DE9F047089E0446B2
:108B30008846002B4BD18A42154667D9B2FA82F299
:108B40004AB1C2F1200701FA02F320FA07F7954073
:108B500047EA030894404FEA154E230CB8FBFEF792
:108B60001FFA85FC0EFB178843EA084307FB0CF14C
:108B7000994209D9EB1807F1FF3080F01B81994227
:108B800040F21881023F2B445B1AA4B2B3FBFEF003
:108B90000EFB103344EA034400FB0CFCA44509D946
:108BA0002C1900F1FF3380F00781A44540F20481C5
:108BB00002382C4440EA0740A4EB0C0400271EB105
:108BC000D4400023C6E900433946BDE8F0878B4214
:108BD00009D9002E00F0EB800027C6E900013846D5
:108BE0003946BDE8F087B3FA83F7002F47D18B42AF
:108BF00002D3824200F2FA80841A61EB030301205F
:108C00009846002EE0D0C6E90048DDE702B9FFDE55
:108C1000B2FA82F2002A40F08F80491B4FEA154ECB
:108C20001FFA85F80127B1FBFEFC230C0EFB1C117B
:108C300043EA014308FB0CF1994207D9EB180CF108
:108C4000FF3002D2994200F2CD808446591AA3B275
:108C5000B1FBFEF00EFB101443EA044408FB00F8DD
:108C6000A04507D92C1900F1FF3302D2A04500F22C
:108C7000B6801846A4EB080440EA0C409FE7C7F111
:108C8000200CBB4022FA0CFE4EEA030E01FA07F458
:108C900020FA0CF521FA0CF34FEA1E482543B3FBEA
:108CA000F8F92C0C08FB19331FFA8EFA44EA034337
:108CB00009FB0AF49C4202FA07F200FA07F10BD909
:108CC0001EEB030309F1FF3080F087809C4240F2E5
:108CD0008480A9F1020973441B1BADB2B3FBF8F009
:108CE00008FB103345EA034400FB0AFAA24508D901
:108CF0001EEB040400F1FF336BD2A24569D90238A0
:108D0000744440EA0940A0FB0289A4EB0A044C45E4
:108D1000C2464B4654D351D0002E69D0B1EB0A0560
:108D200064EB030404FA0CFCFD40FC404CEA05052E
:108D3000C6E90054002747E7C2F1200320FA03F7F1
:108D4000954001FA02F021FA03F34FEA154E384339
:108D5000010CB3FBFEF71FFA85F80EFB173341EA4F
:108D6000034107FB08F38B4204FA02F407D96918A0
:108D700007F1FF3C2FD28B422DD9023F2944CB1A59
:108D800081B2B3FBFEF00EFB103341EA034100FB5E
:108D900008F38B4207D9691800F1FF3C17D28B42C8
:108DA00015D902382944C91A40EA07473BE7374634
:108DB000304609E70746E7E61846FBE64145ABD2F1
:108DC000B8EB020A69EB0E0201381346A4E76046CD
:108DD000E9E7184695E76746D1E781467CE7023820
:108DE0002C4447E7ACF1020C2B442FE7384608E748
:108DF0003746E9E6704700BF80B400AF0B4B002256
:108E00001A700A4B00225A70084B0022DA70074B86
:108E100000229A70054B04221A71044B01225A71E8
:108E200000BFBD465DF8047B704700BF0000002016
:108E300080B400AF9A4BDB78032B00F22B8101A2A8
:108E400052F823F0558E0008E58E0008758F000853
:108E500005900008924B1B781846914B5B78194699
:108E6000904A03010B4412F81330C3F38103DBB2C1
:108E7000012B11D18A4B1B781846894B5B78194618
:108E8000884A03010B4412F81330C3F38113DBB299
:108E9000012B01D10123FEE0814B1B781846804B4A
:108EA0005B7819467F4A03010B4412F81330C3F371
:108EB0008103DBB2012B01D10323ECE0784B1B785B
:108EC0001846774B5B781946764A03010B4412F833
:108ED0001330C3F38113DBB2012B01D10223DAE09B
:108EE0000623D8E06E4B1B7818466D4B5B7819460D
:108EF0006C4A03010B4412F81330C3F30103DBB2D5
:108F0000012B11D1664B1B781846654B5B781946CF
:108F1000644A03010B4412F81330C3F30113DBB2AC
:108F2000012B01D10123B6E05D4B1B7818465C4B49
:108F30005B7819465B4A03010B4412F81330C3F304
:108F40000103DBB2012B01D10223A4E0544B1B78B7
:108F50001846534B5B781946524A03010B4412F8EA
:108F60001330C3F30113DBB2012B01D1032392E0D1
:108F7000062390E04A4B1B781846494B5B7819460C
:108F8000484A03010B4412F81330C3F38103DBB2E8
:108F9000012B11D1424B1B781846414B5B78194687
:108FA000404A03010B4412F81330C3F38113DBB2C0
:108FB000012B01D101236EE0394B1B781846384B49
:108FC0005B781946374A03010B4412F81330C3F398
:108FD0008103DBB2012B01D102235CE0304B1B7813
:108FE00018462F4B5B7819462E4A03010B4412F8A2
:108FF0001330C3F38113DBB2012B01D103234AE009
:10900000062348E0264B1B781846254B5B7819460B
:10901000244A03010B4412F81330C3F30103DBB2FB
:10902000012B11D11E4B1B7818461D4B5B7819463E
:109030001C4A03010B4412F81330C3F30113DBB2D3
:10904000012B01D1012326E0154B1B781846144B48
:109050005B781946134A03010B4412F81330C3F32B
:109060000103DBB2012B01D1032314E00C4B1B786D
:1090700018460B4B5B7819460A4A03010B4412F859
:109080001330C3F30113DBB2012B01D1022302E041
:10909000062300E006231846BD465DF8047B7047B2
:1090A000000000209803012080B400AF114B9B7892
:1090B000022B12D0032B09D0012B00D014E00D4B52
:1090C000DB780133DAB20B4BDA700DE0094BDB7859
:1090D000013BDAB2074BDA7006E0064BDB7802336D
:1090E000DAB2044BDA7000BF00BFBD465DF8047B06
:1090F000704700BF0000002080B400AF034B002287
:109100005A7100BFBD465DF8047B70470000002027
:1091100080B400AF034B01225A7100BFBD465DF819
:10912000047B70470000002080B582B000AFFFF7DD
:109130007FFE78600021022006F05AFD0021032006
:1091400006F056FD0021012006F052FD002100200E
:1091500006F04EFD7C4B9B78002B3FD17A4B1B7960
:10916000052B00F2EC8001A252F823F08591000853
:109170003F9300083F9300083F9300083F93000887
:109180008F9100080121002006F032FDD8E07B68B5
:10919000062B1DD06D4BD3ED007AF5EE407AF1EE43
:1091A00010FA15D1684B5B79002B08D10121786842
:1091B00006F01EFD0021002006F01AFD0DE0002142
:1091C000786806F015FD0121002006F011FD04E08D
:1091D0000121002006F00CFDB2E0B1E05A4B9B7873
:1091E000032B40D1584B1B79022B08D1584B4FF021
:1091F00000021A60574B4FF000021A60A0E0524B79
:109200001B79012B1DD17B68062B15D04E4B5B794A
:10921000002B08D10121786806F0EAFC002100202B
:1092200006F0E6FC8CE00021786806F0E1FC012104
:10923000002006F0DDFC83E00121002006F0D8FCD0
:109240007EE0414B1B79002B04D10121002006F068
:10925000CFFC75E03C4B1B79032B71D10021002022
:1092600006F0C6FC6CE0384B9B78012B40D1364BA6
:109270001B79022B08D1364B4FF000021A60354B98
:109280004FF000021A605BE02F4B1B79012B1DD1C0
:109290007B68062B15D02C4B5B79002B08D1012164
:1092A000786806F0A5FC0021002006F0A1FC47E04C
:1092B0000021786806F09CFC0121002006F098FC53
:1092C0003EE00121002006F093FC39E01E4B1B79A3
:1092D000002B04D10121002006F08AFC30E01A4B5B
:1092E0001B79032B2CD10021002006F081FC27E004
:1092F000154B9B78022B23D1134B1B79012B15D1D6
:10930000114B5B79002B08D10121786806F070FCC5
:109310000021002006F06CFC12E00021786806F0C5
:1093200067FC0121002006F063FC09E0064B1B7975
:10933000002B05D10121002006F05AFC00E000BFFF
:1093400000BF0837BD4680BD00000020F4FE0020AD
:10935000F8FE00202CFC002080B500AF174B042243
:109360001A71FFF7E1FE164B4FF000029A60154BA1
:109370004FF000021A60144B4FF000021A60134BBA
:109380004FF000021A60124BD3ED007A9FED117A74
:10939000F4EEC77AF1EE10FA02DD0F480CF030FE61
:1093A0000B4BD3ED027AF5EE407AF1EE10FADAD1FA
:1093B000642006F043FF00BF80BD00BF0000002016
:1093C000E8FE002028FC0020F8FE00202CFC0020F5
:1093D00024FF00200000FA43D0A201080000000092
:1093E00090B58DB000AF87ED010AC7ED000AB24B12
:1093F00003221A71FFF78CFEFFF796FEAF4B4FF07A
:1094000000021A60D7ED017AB3EE0E7A27EE877A62
:10941000DFEDAB6AC7EE267AC7ED0B7AD7ED017A9E
:10942000B3EE0E7A27EE877ADFEDA56AC7EE267ACD
:10943000C7ED0A7AD7ED017AB3EE0E7A27EE877A76
:10944000DFED9F6AC7EE267AC7ED097AD7ED007A7D
:109450009FED9C7A27EE877AD7ED007A67EE276A30
:10946000D7ED0B7A37EEA77AC6EE877AC7ED057A85
:109470004FF00003BB61D7ED007A9FED927A27EEA3
:10948000877AD7ED007A67EE276AD7ED097A37EE4B
:10949000A77AC6EE877AC7ED077AF86AFEF78CFFDF
:1094A00083A3D3E90023FEF7DFFF03460C461846EB
:1094B00021464FF00002844BFFF700F903460C46AB
:1094C00018462146FFF7C8FA0346BB60B86AFEF7A4
:1094D00073FF77A3D3E90023FEF7C6FF03460C46CC
:1094E000184621464FF00002774BFFF7E7F8034696
:1094F0000C4618462146FFF7AFFA0346FB60786A30
:10950000FEF75AFF6AA3D3E90023FEF7ADFF034637
:109510000C46184621464FF000026B4BFFF7CEF881
:1095200003460C4618462146FFF796FA03463B6170
:10953000D7ED007AF5EEC07AF1EE10FA57DD97ED2F
:10954000027A624BD3ED007A77EE277A5F4BC3ED58
:10955000007A02E07B695E4A13605C4B93ED007A0F
:109560005C4BD3ED007AB4EEE77AF1EE10FAF1DC61
:1095700097ED037A554BD3ED007A77EE277A534B6C
:10958000C3ED007A02E0BB69514A13604F4B93ED83
:10959000007A504BD3ED007AB4EEE77AF1EE10FA90
:1095A000F1DC97ED047A494BD3ED007A77EE277A18
:1095B000464BC3ED007A0EE0D7ED077AF1EE677AFD
:1095C000434BC3ED007A444BD3ED007AF5EEC07AFD
:1095D000F1EE10FA6AD93D4B93ED007A3D4BD3ED95
:1095E000007AB4EEE77AF1EE10FAE5DC77E0D7ED39
:1095F000007AF5EEC07AF1EE10FA70D5334B93EDA8
:10960000007AD7ED027A77EE677A304BC3ED007AB5
:1096100006E0D7ED057AF1EE677A2D4BC3ED007ABF
:109620002A4B93ED007A2B4BD3ED007AB4EEE77A18
:10963000F1EE10FAEDD4254B93ED007AD7ED037AD5
:1096400077EE677A214BC3ED007A02E0BB69204ACE
:1096500013601E4B93ED007A1E4BD3ED007AB4EEEF
:10966000E77AF1EE10FAF1D4184B93ED007AD7EDCA
:10967000047A77EE677A154BC3ED007A0AE0FB694E
:10968000134A1360144BD3ED007AF5EEC07AF1EE75
:1096900010FA23DA0D4B93ED007A0E4BD3ED007ADE
:1096A000B4EEE77AF1EE10FAE9D418E000BF16E064
:1096B000182D4454FB21094000000020F8FE002032
:1096C0000000B4426F12833D0080664014FF00200A
:1096D0002CFC002024FC002020FC002000BF324B8A
:1096E0004FF000021A60FFF737FEFFF71DFDD7EDC0
:1096F000017A9FED2E7AC7EE876A16EE900AFEF782
:109700005BFE27A3D3E90023FEF7AEFE03460C461B
:1097100018462146FFF758F903463B62D7ED007A19
:10972000F5EEC07AF1EE10FA13D5214B1A683B6AB8
:10973000D90F0B445B105B4213441D4A13601C4B52
:109740005A683B6AD90F0B445B101344184A5360A4
:1097500019E0D7ED007AF5EEC07AF1EE10FA12DDDD
:10976000134B1A683B6AD90F0B445B101344104A21
:1097700013600F4B5A683B6AD90F0B445B105B4276
:1097800013440B4A53600A4B9B68094A9360FFF7E6
:109790008BFC00BF3437BD4690BD00BFAFF30080E7
:1097A000691660FB0B6FFD402CFC00200000B443E9
:1097B0004CFF002080B400AF284BDB78032B47D848
:1097C00001A252F823F000BFD9970008F7970008CC
:1097D0001598000833980008204B1B7818461F4B3B
:1097E0005B7819461E4A03010B4412F81330C3F389
:1097F0000103DBB22DE0194B1B781846174B5B7841
:109800001946174A03010B4412F81330C3F38103BE
:10981000DBB21EE0114B1B781846104B5B781946E3
:109820000F4A03010B4412F81330C3F30113DBB2E8
:109830000FE00A4B1B781846084B5B781946084A1C
:1098400003010B4412F81330C3F38113DBB200E0C1
:1098500000BF1846BD465DF8047B7047000000203D
:109860009803012000000000B0B58AB000AFAA4BF9
:1098700002221A71FFF758FCA84B1B687B62A84BA9
:109880001B683B62A64B5B68FB61A54B9B68BB6199
:10989000A34B1B691846FEF78FFD9BA3D3E900235A
:1098A000FEF7E2FD03460C46184621464FF0000243
:1098B0009C4BFEF703FF03460C4618462146FFF774
:1098C000CBF803467B61964B5B691846FEF774FD47
:1098D0008DA3D3E90023FEF7C7FD03460C461846C7
:1098E00021464FF000028F4BFEF7E8FE03460C4680
:1098F00018462146FFF7B0F803463B61884B9B6949
:109900001846FEF759FD80A3D3E90023FEF7ACFD0E
:1099100003460C46184621464FF00002814BFEF7E5
:10992000CDFE03460C4618462146FFF795F8034640
:10993000FB607D4B1B68BB607C4B1A687B4B5B6894
:1099400013447B60FFF736FF0346012B33D10EE053
:10995000774B4FF000021A60764B4FF000021A600E
:10996000754B4FF000021A60744A7B6A9360744B27
:10997000D3ED007A9FED737AF4EEC77AF1EE10FA28
:10998000E6D46F4BD3ED037A9FED6F7AF4EEC77A8E
:10999000F1EE10FADCD43BE0654B4FF000021A60A8
:1099A000644B4FF000021A60634B4FF000021A60E4
:1099B000624A7B6A93607868FEF7ECFC04460D46C9
:1099C000D7ED087A77EEA77A17EE900AFEF7F4FC47
:1099D0004FA3D3E90023FEF771FE02460B46204653
:1099E0002946FEF78BFB03460C4625461C464F4B8B
:1099F0001A684E4B5B6813441846FEF7CBFC0246D0
:109A00000B4620462946FEF7BFFF0346002BC3D175
:109A1000454B1B68BB604D4B1B683B6005E0464AED
:109A2000BB691360454A7B6A936097ED007AD7ED76
:109A3000057A37EE277A454BD3ED007AB4EEE77A14
:109A4000F1EE10FAEBDC3C4B4FF000021A60394BA0
:109A50004FF000021A60344B1B68BB6006E0344BC9
:109A60001B68334A1360354A7B6A936097ED007A2E
:109A7000D7ED047A37EE277A344BD3ED007AB4EE83
:109A8000E77AF1EE10FAEADC274B1B68BB6016E0C0
:109A9000D7ED067AF1EE677A274BC3ED007A244BB7
:109AA000D3ED007AF5EEC07AF1EE10FA04D5204B32
:109AB0004FF000021A6010E0204A7B6A936097ED35
:109AC000007AD7ED037A37EE277A204BD3ED007A70
:109AD000B4EEE77AF1EE10FADADC174B4FF0000241
:109AE0001A60144B4FF000021A60114B4FF0000245
:109AF0001A60174B1B68174A13600C4B1A680B4B04
:109B00005B6813447B603CE0182D4454FB21094002
:109B1000533AA26FD928503F00000020680101206D
:109B200030FF00200080664020FC002018FF00204D
:109B3000F8FE002030FC00202CFC0020E8FE002075
:109B400058FF002000005C430000874324FC0020F5
:109B5000980501209C050120334B4FF000021A604C
:109B6000324A7B6A9360324B1B68002B09D101F0AB
:109B7000ADFC01220321052001F01AFE2C4B01222D
:109B80001A607868FEF706FC04460D46D7ED077AA2
:109B900077EEA77A17EE900AFEF70EFC1EA3D3E924
:109BA0000023FEF78BFD02460B4620462946FEF7B2
:109BB000A5FA03460C4625461C461E4B1A681D4B4B
:109BC0005B6813441846FEF7E5FB02460B46204649
:109BD0002946FEF7D9FE0346002BBDD1164B1B6864
:109BE0001846FEF7E9FB0EA3D3E90023FEF786FA39
:109BF00003460C4618462146FEF72EFF02460E4B42
:109C00001A600C4B9B680D4A936000BF2837BD4615
:109C1000B0BD00BFAFF30080533AA26FD928503FC8
:109C2000182D4454FB21F93FF8FE0020E8FE0020E7
:109C30009C05012018FF002014FF00204CFF00208D
:109C4000B0B58AB000AFA44B02221A71FFF76CFACC
:109C5000A24B1B687B62A24B1B683B62A04B5B68FC
:109C6000FB619F4BD3ED027AF1EE677AC7ED067A7E
:109C70009B4B1B691846FEF79FFB93A3D3E9002378
:109C8000FEF7F2FB03460C46184621464FF0000251
:109C9000944BFEF713FD03460C4618462146FEF78B
:109CA000DBFE03467B618E4B5B691846FEF784FB47
:109CB00085A3D3E90023FEF7D7FB03460C461846DD
:109CC00021464FF00002874BFEF7F8FC03460C4696
:109CD00018462146FEF7C0FE03463B61804B9B6958
:109CE0001846FEF769FB78A3D3E90023FEF7BCFB17
:109CF00003460C46184621464FF00002794BFEF70A
:109D0000DDFC03460C4618462146FEF7A5FE034639
:109D1000FB60754B1A68744B5B681344BB60FFF7BC
:109D200049FD0346012B2FD10EE0704B4FF000028E
:109D30001A606F4B4FF000021A606E4B4FF000023A
:109D40001A606D4A7B6A93606C4BD3ED007A9FED8D
:109D50006C7AF4EEC77AF1EE10FAE6D4674BD3EDE5
:109D6000037A9FED687AF4EEC77AF1EE10FADCD44C
:109D700037E05E4B4FF000021A605E4B4FF000027E
:109D80001A605D4A7B6A9360B868FEF703FB04467D
:109D90000D46D7ED087A77EEA77A17EE900AFEF710
:109DA0000BFB4BA3D3E90023FEF788FC02460B46CE
:109DB00020462946FEF7A2F903460C4625461C46D6
:109DC000494B1A68484B5B6813441846FEF7E2FAA1
:109DD00002460B4620462946FEF7D6FD0346002BD9
:109DE000C7D1494B1B687B6005E0424ABB691360E1
:109DF000414A7B6A936097ED017AD7ED057A37EE99
:109E0000677A414BD3ED007AB4EEE77AF1EE10FABF
:109E1000EBD4384B4FF000021A60354B4FF0000284
:109E20001A6006E0314B1B68304A1360324A7B6A85
:109E3000936097ED017AD7ED047A37EE677A324B6B
:109E4000D3ED007AB4EEE77AF1EE10FAEAD416E038
:109E5000D7ED067AF1EE677A264BC3ED007A234BF5
:109E6000D3ED007AF5EEC07AF1EE10FA04DD1F4B67
:109E70004FF000021A6010E01F4A7B6A936097ED72
:109E8000017AD7ED037A37EE677A1F4BD3ED007A6C
:109E9000B4EEE77AF1EE10FADAD4164B4FF0000286
:109EA0001A60134B4FF000021A60104B4FF0000283
:109EB0001A60164B1B68164A13600B4B1A680A4B44
:109EC0005B681344BB603AE0182D4454FB21094001
:109ED000533AA26FD928503F0000002068010120AA
:109EE00030FF00200080664018FF0020F8FE0020B0
:109EF00030FC00202CFC0020E8FE002058FF002051
:109F000000005C430000874324FC002098050120EA
:109F10009C050120324B4FF000021A60314A7B6AE7
:109F20009360314B1B68002B09D101F0CFFA01225D
:109F30000321052001F03CFC2B4B01221A60B8687C
:109F4000FEF728FA04460D46D7ED077A77EEA77A92
:109F500017EE900AFEF730FA1DA3D3E90023FEF7AF
:109F6000ADFB02460B4620462946FEF7C7F80346DE
:109F70000C4625461C461D4B1A681C4B5B68134457
:109F80001846FEF707FA02460B4620462946FEF71A
:109F9000FBFC0346002BBDD1154B1B681846FEF792
:109FA0000BFA0DA3D3E90023FEF7A6F803460C46EF
:109FB00018462146FEF750FD02460D4B1A600B4B2A
:109FC0009B680C4A936000BF2837BD46B0BD00BFF8
:109FD000533AA26FD928503F182D4454FB21F93F22
:109FE000F8FE0020E8FE00209C05012018FF00205C
:109FF00014FF00204CFF0020B0B584B000AF87ED07
:10A00000010AC7ED000A564B00221A71FFF78CF8BF
:10A01000544B4FF000021A604FF00003FB60524BAC
:10A02000D3ED027A97ED007A77EE677AC7ED037A7F
:10A03000D7ED037A9FED4D7A27EE877AD7ED037A35
:10A0400067EE276AD7ED017A37EEA77AC6EE877AF0
:10A05000474BC3ED007AFFF75BF8D7ED017A77EE57
:10A06000A77A17EE900AFEF7A7F939A3D3E90023E0
:10A07000FEF724FB03460C4618462146FEF7A4FCD7
:10A080000346BB603B4B1B683B4A136035E03B4BD0
:10A090009B681846FEF77EF904460D46B868FEF741
:10A0A00079F92DA3D3E90023FEF7DEF902460B462A
:10A0B00020462946FEF722F803460C4625461C4654
:10A0C0002F4B9B681846FEF765F902460B46204663
:10A0D0002946FEF73BFC0346002B00D10DE0264B42
:10A0E0001B68002B09D101F0F1F9012203210520A1
:10A0F00001F05EFB204B01221A60204B9A68BB687E
:10A100001A441F4B9B689A42C1DC194B4FF0000266
:10A110001A601A4B9A68BB681344184A9360174B2D
:10A120001A68BB68D90F0B445B101344134A1360C1
:10A13000124B5A68BB68D90F0B445B1013440F4A8B
:10A14000536000BF1037BD46B0BD00BFAFF3008005
:10A15000533AA26FD928503F9A9999999999E93F12
:10A1600000000020F8FE002024FF00206F12833A38
:10A1700028FC0020980501209C0501204CFF0020B0
:10A1800018FF002000000000B0B584B000AF87EDDC
:10A19000010AC7ED000A604B01221A714FF000035B
:10A1A000FB605E4B93ED027AD7ED007A77EE677A2B
:10A1B000C7ED037AD7ED037A9FED597A27EE877AB8
:10A1C000D7ED037A67EE276AD7ED017A37EEA77AE3
:10A1D000C6EE877AF1EE677A524BC3ED007AFEF74E
:10A1E0008BFFFEF7A1FFD7ED017A77EEA77A17EE86
:10A1F000900AFEF7E1F844A3D3E90023FEF75EFAE4
:10A2000003460C4618462146FEF7DEFB0346BB60BC
:10A2100052E0454BD3ED027AF5EEC07AF1EE10FA3A
:10A2200010D8414B4FF000029A603E4B4FF00002B5
:10A230001A603E4B4FF000021A603D4B4FF0000297
:10A240001A6041E03B4B9B681846FEF7A3F80446B2
:10A250000D46B868FEF79EF82DA3D3E90023FEF75C
:10A2600003F902460B4620462946FDF747FF034601
:10A270000C4625461C46304B9B681846FEF78AF86C
:10A2800002460B4620462946FEF760FB0346002B9C
:10A2900000D111E0FEF73CFF0021022005F0A8FCF0
:10A2A0000021032005F0A4FC0021012005F0A0FC02
:10A2B0000121002005F09CFC1E4B9A68BB681A44E3
:10A2C0001D4B9B689A42A4DCFFF746F8194B9A682D
:10A2D000BB681344174A9360164B1A68BB68D90FC2
:10A2E0000B445B101344134A1360124B5A68BB684B
:10A2F000D90F0B445B1013440E4A536000BF103754
:10A30000BD46B0BDAFF30080533AA26FD928503F8D
:10A31000CDCCCCCCCCCCE43F0000002024FF0020EE
:10A320006F12833A28FC0020E8FE0020F8FE00208F
:10A330002CFC00204CFF002018FF00200000000033
:10A3400090B585B000AF78607B685B001846FEF77B
:10A3500021F82BA3D3E90023FEF7B0F903460C46FE
:10A3600018462146FEF730FB0346FB60FB68002BD6
:10A3700015DD06E01C4B4FF000021A601B4B1C4A17
:10A380009A601C4B9A68FB681A441B4B9B689A4264
:10A39000F0DC184B9A68FB681344164A9360FB681C
:10A3A000002B15DA06E0104B4FF000021A600F4B3D
:10A3B000124A9A600F4B9A68FB681A440E4B9B68CE
:10A3C0009A42F0DB0B4B9A68FB681344094A93608E
:10A3D000064B4FF000029A60034B4FF000021A60E8
:10A3E00000BF1437BD4690BD28FC0020E8FE0020C9
:10A3F00000008C424CFF002018FF00200000C8C263
:10A40000533AA26FD928503F80B500AF044B0622C3
:10A410001A716FF03100FFF793FF00BF80BD00BFDE
:10A420000000002080B582B000AF0021022005F0BE
:10A43000DFFB0021032005F0DBFB0021012005F0FC
:10A44000D7FB0021002005F0D3FBFEF7F1FC78607C
:10A450000121786805F0CCFB7A4BDB7803F003032D
:10A46000032B00F2D28001A252F823F07DA4000851
:10A47000E3A4000847A50008A9A50008714B1B78B4
:10A480001846704B5B7819466F4A03010B4412F86B
:10A490001330C3F30103DBB2012B00F0B880694B2A
:10A4A0001B781846674B5B781946674A03010B44D3
:10A4B00012F81330C3F30113DBB2012B40F0A78075
:10A4C000FFF7A2FF614A7B682C2101FB03F31344D1
:10A4D000283300221A605E4B4FF000021A605D4B79
:10A4E000A8E0584B1B781846564B5B781946564ADD
:10A4F00003010B4412F81330C3F38103DBB2012BC9
:10A5000000F087804F4B1B7818464E4B5B781946FE
:10A510004D4A03010B4412F81330C3F38113DBB22D
:10A52000012B76D1FFF770FF484A7B682C2101FB95
:10A5300003F31344283300221A60454B4FF0000206
:10A540001A60444B76E03F4B1B7818463D4B5B78D6
:10A5500019463D4A03010B4412F81330C3F30113AB
:10A56000DBB2012B57D0374B1B781846354B5B7845
:10A570001946354A03010B4412F81330C3F30103A3
:10A58000DBB2012B47D1FFF73FFF304A7B682C211C
:10A5900001FB03F31344283300221A602C4B4FF0C5
:10A5A00000021A602B4B45E0264B1B781846254BC2
:10A5B0005B781946244A03010B4412F81330C3F3A5
:10A5C0008113DBB2012B20D01E4B1B7818461D4B8C
:10A5D0005B7819461C4A03010B4412F81330C3F38D
:10A5E0008103DBB2012B10D1FFF70EFF174A7B6806
:10A5F0002C2101FB03F31344283300221A60144B6F
:10A600004FF000021A60134B14E000BF04E000BFDB
:10A6100002E000BF00E000BF0C4A7B682C2101FB78
:10A6200003F31344283300221A60094B4FF0000251
:10A630001A60094B07EE903AB0EE670A0837BD463C
:10A6400080BD00BF000000209803012018FD0020FD
:10A65000F8FE0020000076420000344200000000B6
:10A66000B0B586B000AF87ED030AC7ED020A87EDEB
:10A67000011AD7ED037A77EEA77A17EE900AFDF765
:10A680009BFE77A3D3E90023FEF718F803460C4698
:10A6900018462146FEF798F903467B61D7ED017A0B
:10A6A000F5EE407AF1EE10FA22D0FEF731FDFEF71A
:10A6B0003BFDD7ED037AB0EE007AC7EE876A97EDDF
:10A6C000027AD7ED017A77EE277AF0EE670AB0EEDC
:10A6D000660AFFF791FC00BF5B4B9A687B69D90F54
:10A6E0000B445B101A44594B9B689A42F4DC82E09D
:10A6F000574B05221A71FEF7FFFCFEF715FD554B6F
:10A700001B68554A13606EE04F4B9B681846FDF777
:10A7100041FE04460D467869FDF73CFE46A3D3E9A9
:10A720000023FDF7A1FE02460B4620462946FDF711
:10A73000E5FC03460C4625461C46444B9B681846E0
:10A74000FDF728FE02460B4620462946FEF7FEF896
:10A750000346002B11D0FEF7DBFC0021022005F0A0
:10A7600047FA0021032005F043FA0021012005F0FB
:10A770003FFA0121002005F03BFA334B9B68184655
:10A78000FDF708FE04460D467869FDF703FE2CA38D
:10A79000D3E90023FDF768FE02460B462046294612
:10A7A000FDF7ACFC03460C4625461C46274B9B6830
:10A7B0001846FDF7EFFD02460B4620462946FEF7F8
:10A7C000C5F80346002B00D10DE0234B1B68002B7E
:10A7D00009D100F07BFE01220321052000F0E8FFF3
:10A7E0001D4B01221A60184B9A687B691A44174B5B
:10A7F0009B689A4288DC194B4FF000021A60124B9A
:10A800009A687B691344104A93600F4B1A687B69FE
:10A81000D90F0B445B1013440B4A13600A4B5A6860
:10A820007B69D90F0B445B101344074A536000BF88
:10A830001837BD46B0BD00BF9A9999999999D93FEB
:10A840009A9999999999E93F4CFF002018FF0020A7
:10A8500000000020980501209C05012028FC002014
:10A86000533AA26FD928503F80B584B000AF034659
:10A87000FB71FB79532B23D0542B00D023E0DFED69
:10A88000140A9FED140AFFF77FFCDFED130A9FED1A
:10A89000130AFEF7A5FDFFF7C5FD87ED030A642047
:10A8A00005F0CCFC0121002005F0A2F90C4BD3ED02
:10A8B000007AF0EE670A97ED030AFFF79DFB02E0CE
:10A8C000FEF7D2FF00BF00BF1037BD4680BD00BFFE
:10A8D0000000000000003442DB0FC9400000B44219
:10A8E0006801012080B584B000AF0346FB71FB799D
:10A8F000532B26D0542B00D026E0DFED150A9FED18
:10A90000150AFFF741FCDFED140A9FED140AFEF76C
:10A9100067FD642005F092FCFFF784FD87ED030AD4
:10A92000642005F08BFC0121002005F061F90C4B3F
:10A93000D3ED007AF0EE670A97ED030AFFF75CFBB0
:10A9400002E0FFF77DF900BF00BF1037BD4680BDB4
:10A950000000000000003442DB0FC9C00000B44218
:10A960006801012080B582B000AFDFED100A9FEDD5
:10A97000100AFFF709FCDFED0F0A9FED0F0AFEF743
:10A980002FFDFFF74FFD87ED010AC82005F056FCAB
:10A990000A4BD3ED007AF0EE670A97ED010AFFF754
:10A9A0002BFB00BF0837BD4680BD00BF0000000084
:10A9B00000003442DB0FC94000003443680101202D
:10A9C00080B582B000AF0346FB711B4B9B7803F050
:10A9D0000303032B2AD801A252F823F0EDA90008A3
:10A9E00013AA000827AA00081DAA0008134B4FF05D
:10A9F00000021A60124BD3ED007A104B93ED007AEF
:10AA0000B0EE471AF0EE670A9FED0E0AFFF728FE38
:10AA10000DE0FB791846FFF727FF08E0FB791846A1
:10AA2000FFF760FF03E0FFF79DFF00E000BF00BFFE
:10AA30000837BD4680BD00BF00000020F4FE0020A6
:10AA4000680101200000B442B0B586B000AFB04B41
:10AA50005B6AC3F5EA432F331A46AE4B1A60AC4B20
:10AA600047F22F525A62AC4B5B6AC3F5EA432F336D
:10AA70001A46A84B5A60A84B47F22F525A62A54B70
:10AA80001B6807EE903AF8EEE77A9FEDA47A67EE3E
:10AA9000877AA34BC3ED007A9E4B5B6807EE903A32
:10AAA000F8EEE77A9FED9D7A67EE877A9C4BC3EDCF
:10AAB000017A9B4B93ED007A994BD3ED017A77EEB7
:10AAC000277AB6EE007A67EE877A954BC3ED027A65
:10AAD000944B1B68002B1BDD924B1B68B3F5FA5F90
:10AAE00016DC904B1B68013B8D4A12688E499B0017
:10AAF0000B441A608B4B1B68013B894A52688B4997
:10AB00009B000B441A60874B1B680133854A136016
:10AB1000874B1A687F4B1B681344854A1360844B2C
:10AB20005A687C4B5B681344814A5360804B1A68B7
:10AB30007F4B5B6813447E4A93603821372004F0D2
:10AB400049F9F0EE407A7B4BC3ED007A794B93EDF7
:10AB5000007A794BD3ED007A77EE677A9FED777ABA
:10AB600067EE877AC7ED057A7869FDF725FC62A361
:10AB7000D3E90023FDF778FC03460C4625461C4626
:10AB80006F4B1B681846FDF717FC5DA3D3E9002344
:10AB9000FDF76AFC02460B4620462946FDF7AEFA51
:10ABA00003460C4618462146FDF756FF034607EEBE
:10ABB000903AF1EE677A634BC3ED007A604A7B69A5
:10ABC0001360604BD3ED007A9FED5F7A27EE877AB2
:10ABD0005E4BD3ED007A77EE277A5C4BC3ED007ABB
:10ABE00000233B610023FB600023BB6000237B60EC
:10ABF00000233B60564B9B78002B08D0544B1B79AD
:10AC0000062B04D0524B1B79032B40F02981514B6A
:10AC10009B6A012B16D1504BD3ED007A4B4B93ED31
:10AC2000007AF0EE470AB0EE670A002005F034F82B
:10AC300038603B6807EE903AF8EEE77A474BC3ED91
:10AC4000007A0DE1434B5B6D012B2AD1444BD3EDD0
:10AC5000026A434B93ED017A424BD3ED007A77EED3
:10AC6000277AF0EE670AB0EE660A012005F014F8C4
:10AC700038613B6907EE903AF8EEE77A17EE900AF2
:10AC8000FDF79AFB20A3D3E90023FDF7EDFB034674
:10AC90000C4618462146FDF7DFFE02462F4B1A6090
:10ACA000DEE02C4BD3F88030012B5FD12C4BD3ED61
:10ACB000027A2D4B93ED027AF0EE470AB0EE670A66
:10ACC000022004F0E9FFF860FB6807EE903AF8EE26
:10ACD000E77A17EE900AFDF76FFB0BA3D3E9002389
:10ACE000FDF7C2FB03460C4618462146FDF7B4FEAD
:10ACF00002461A4B1A60B3E07B14AE47E17A843FF8
:10AD0000AE47E17A14AEEF3FFCA9F1D24D62503F5D
:10AD1000000400408C03012000080040457E7C3F79
:10AD200024FF002014FC002014020020147F0020C7
:10AD300018FF0020D4FC0020D0FC0020787D8B3A46
:10AD400018FC002020FC00206F12833A24FC002015
:10AD50000000002018FD002014FF0020F8FE002055
:10AD600058FF00200CFF002074010120784BD3F81D
:10AD7000AC30012B25D1774BD3ED017A764B93ED97
:10AD8000017AF0EE470AB0EE670A032004F084FF70
:10AD9000B860BB6807EE903AF8EEE77A17EE900AD3
:10ADA000FDF70AFB66A3D3E90023FDF75DFB03462D
:10ADB0000C4618462146FDF74FFE0246674B1A60C7
:10ADC0004EE0634BD3F88831012B49D1624BD3ED70
:10ADD000036A614BD3ED007A9FED617A77EE877A53
:10ADE000F0EE670AB0EE660A082004F055FF7860BE
:10ADF0007B6807EE903AF8EEE77A17EE900AFDF7D7
:10AE0000DBFA4FA3D3E90023FDF72EFB03460C46E4
:10AE100018462146FDF720FE0246504B1A604E4B65
:10AE200093ED037A4C4BD3ED007A77EE277ADFED82
:10AE30004D0AB0EE670A092004F02EFF03461846BB
:10AE4000FDF7A8FA40A3D3E90023FDF70DFB034665
:10AE50000C4618462146FDF7FFFD0246424B9A601C
:10AE6000414B93ED027A414BD3ED007A77EE277A8E
:10AE70003D4BC3ED027A3E4B93ED007A3D4BD3ED53
:10AE8000007A77EE277A3A4BC3ED007A334B93ED95
:10AE9000007A374BD3ED007A77EE277A2F4BC3ED4C
:10AEA000007A314B93ED027A2C4BD3ED007ADFED33
:10AEB000326A67EEA67AF6EE006A67EEA67A77EE59
:10AEC000677A294BC3ED017A244BD3ED007A9FEDCD
:10AED0002A7A27EE877A244BD3ED017A77EE277A08
:10AEE000214BC3ED007A204BD3ED007A234B93ED39
:10AEF000007AF0EE470AB0EE670A042004F0CCFEB8
:10AF000002461F4B1A60184BD3ED017A1B4B93ED91
:10AF1000017AF0EE470AB0EE670A052004F0BCFEA5
:10AF20000246184B1A60164B1A68164B1B681946D6
:10AF3000104604F0B9F900BF1837BD46B0BD00BFD8
:10AF4000FCA9F1D24D62503F9A9999999999B93FCC
:10AF500018FD00207401012058FF0020F8FE002099
:10AF600000007A4400007A45E8FE002028FC00201A
:10AF70002CFC002030FC00206666174224FF0020D5
:10AF80006C01012088010120B0B582B000AF904B68
:10AF90005B6AC3F5EA432F331A468E4B1A608C4B1B
:10AFA00047F22F525A628C4B5B6AC3F5EA432F3348
:10AFB0001A46884B5A60884B47F22F525A62854B8B
:10AFC0001B6807EE903AF8EEE77A9FED847A67EE19
:10AFD000877A834BC3ED007A7E4B5B6807EE903A2D
:10AFE000F8EEE77A9FED7D7A67EE877A7C4BC3EDCA
:10AFF000017A7B4B93ED007A794BD3ED017A77EEB2
:10B00000277AB6EE007A67EE877A754BC3ED027A3F
:10B01000744B1A686F4B1B681344724A1360714B70
:10B020005A686C4B5B6813446E4A53606D4B1A68E8
:10B030006C4B5B6813446B4A93603821372003F0F4
:10B04000C9FEF0EE407A684BC3ED007A664B93ED93
:10B05000007A664BD3ED007A77EE677A9FED647ADB
:10B0600067EE877AC7ED017A7868FDF7A5F954A3F2
:10B07000D3E90023FDF7F8F903460C4625461C46A4
:10B080005C4B1B681846FDF797F94FA3D3E90023E3
:10B09000FDF7EAF902460B4620462946FDF72EF851
:10B0A00003460C4618462146FDF7D6FC034607EE3C
:10B0B000903AF1EE677A504BC3ED007A4D4A7B68C7
:10B0C00013604D4BD3ED007A9FED4C7A27EE877AD3
:10B0D0004B4BD3ED007A77EE277A494BC3ED007ADC
:10B0E000484B93ED007A484BD3ED007A77EE277A00
:10B0F000444BC3ED007A454B93ED027A444BD3EDBC
:10B10000007A77EE277A414BC3ED027A414B93EDFB
:10B11000007A3C4BD3ED007A77EE277A3D4BC3EDB6
:10B12000007A3A4B93ED027A3A4BD3ED007ADFED99
:10B130003A6A67EEA67AF6EE006A67EEA67A77EECE
:10B14000677A324BC3ED017A324BD3ED007A9FED33
:10B15000327A27EE877A2D4BD3ED017A77EE277A74
:10B160002A4BC3ED007A294BD3ED007A1C4B93EDAB
:10B17000007AF0EE470AB0EE670A042004F08CFD76
:10B180000246264B1A60214BD3ED017A144B93ED06
:10B19000017AF0EE470AB0EE670A052004F07CFD64
:10B1A00002461F4B1A601D4B1A681D4B1B6819463F
:10B1B000104604F079F800BF0837BD46B0BD00BFA7
:10B1C0007B14AE47E17A843FAE47E17A14AEEF3F9D
:10B1D000000400408C03012000080040457E7C3FB5
:10B1E00024FF002018FF0020D4FC0020D0FC002009
:10B1F000787D8B3A1CFC002020FC00206F12833AE3
:10B2000024FC00202CFC002030FC0020E8FE002064
:10B2100028FC0020F8FE0020666617426C01012021
:10B220008801012080B582B000AF78607B68264A33
:10B2300093420ED1254B1B68012B07D0022B0AD05D
:10B24000002B00D008E0FFF7FFFB05E0FFF79CFEB6
:10B2500002E000BF00E000BF7B681D4A93422FD18F
:10B260001C4B1B6800221946142004F08DF8F0EEE8
:10B27000407A194BC3ED007A164B5B6801221946E0
:10B28000142004F081F8F0EE407A134BC3ED017AFC
:10B29000124B1B6802221946142004F075F8F0EED8
:10B2A000407A0D4BC3ED027A0C4B5B6803221946C2
:10B2B000142004F069F8F0EE407A074BC3ED037AEE
:10B2C00000BF0837BD4680BDE8070120DCFE002036
:10B2D000A0050120BCFC002058FF0020C8FC002075
:10B2E00080B584B000AF2C4B1B68FB600023BB60B3
:10B2F0004BE000237B6042E028497B681A01BB6871
:10B30000134411F81330C3F30103DBB21946F86894
:10B3100003F03CFCFB68181D20497B681A01BB68E0
:10B32000134411F81330C3F38103DBB2194603F061
:10B330002DFCFB6803F1080018497B681A01BB6803
:10B34000134411F81330C3F30113DBB2194603F0B1
:10B350001DFCFB6803F10C0010497B681A01BB68F7
:10B36000134411F81330C3F38113DBB2194603F011
:10B370000DFCFB681033FB607B6801337B607B68EE
:10B380000F2BB9DDBB680133BB60BB680F2BB0DD91
:10B3900000BF1037BD4680BDC4A501089803012039
:10B3A00080B485B000AF0023FB603BE00023BB60AE
:10B3B00032E04549FB681A01BB681A4411F81230A3
:10B3C000022060F3010301F812303F49FB681A01C3
:10B3D000BB681A4411F81230022060F3830301F8AD
:10B3E00012303949FB681A01BB681A4411F812304F
:10B3F000022060F3051301F812303349FB681A018B
:10B40000BB681A4411F81230022060F3871301F868
:10B410001230BB680133BB60BB680F2BC9DDFB6812
:10B420000133FB60FB680F2BC0DD00237B602AE04B
:10B43000254A7B685B01134403F11E021378012146
:10B4400061F30103137020497B6803F1F00211F8E6
:10B450001230012060F3830301F812301A4A7B682E
:10B460005B011A441378012161F305131370164927
:10B470007A6811F81230012060F3871301F8123056
:10B480007B6801337B607B680F2BD1DD0E4A13781C
:10B49000012161F3830313700B4A13786FF30103E7
:10B4A0001370094A92F82030012161F3871382F862
:10B4B0002030054A93786FF30513937000BF14375B
:10B4C000BD465DF8047B70479803012090B482B0BC
:10B4D00000AF8B4B93ED007A894BD3ED037A37EEB7
:10B4E000277AF0EE006AC7EE267A9FED867AF4EEB0
:10B4F000C77AF1EE10FACCBF01230023DAB2824BF7
:10B500005B7A07F108010B4403F8042C7C4BD3ED64
:10B51000017A9FED7E7AF4EEC77AF1EE10FACCBF95
:10B5200001230023D9B2784B5B7A01335A4203F0EE
:10B53000030302F0030258BF53420A4607F1080111
:10B540000B4403F8042C704B5B7A02335A4203F02D
:10B55000030302F0030258BF534207F108021344E9
:10B56000002203F8042C664BD3ED027A9FED687A33
:10B57000F4EEC77AF1EE10FACCBF01230023D9B262
:10B58000614B5B7A03335A4203F0030302F0030278
:10B5900058BF53420A4607F108010B4403F8042C34
:10B5A0003979594B9B791C46574BDB791A460B4628
:10B5B00003F00303D8B2574923011A4411F812309B
:10B5C00060F3010301F8123079794F4B9B791C46E7
:10B5D0004D4BDB791A460B4603F00303D8B24D49B5
:10B5E00023011A4411F8123060F3830301F812307A
:10B5F000B979454B9B791C46434BDB791A460B4680
:10B6000003F00303D8B2434923011A4411F812305E
:10B6100060F3051301F81230F9793B4B9B791C4616
:10B62000394BDB791A460B4603F00303D8B239498C
:10B6300023011A4411F8123060F3871301F8123015
:10B64000314BDB790E2B12D839792F4B9B791A4667
:10B650002D4BDB79013301F00301C8B22D491201F2
:10B660001A4411F8123060F3051301F81230264B1A
:10B670009B790E2B11D87979234B9B790133224A80
:10B68000D27901F00301C8B222491B011A4411F812
:10B69000123060F3871301F812301B4BDB79002B5B
:10B6A00012D0B979184B9B791A46174BDB79013BBD
:10B6B00001F00301C8B2174912011A4411F81230FF
:10B6C00060F3010301F812300F4B9B79002B11D06E
:10B6D000F9790D4B9B79013B0B4AD27901F00301BB
:10B6E000C8B20C491B011A4411F8123060F38303ED
:10B6F00001F8123000BF0837BD4690BC704700BF4C
:10B7000058FF002000008C42000000200000B442DE
:10B710000000C8429803012080B485B000AF786073
:10B7200039600023FB6013E00023BB600AE01F497F
:10B73000FB681A01BB681344FF2221F81320BB6881
:10B740000133BB60BB680F2BF1DDFB680133FB608D
:10B75000FB680F2BE8DD15497B681A013B68134431
:10B76000002221F813203B68013310497A68120146
:10B770001344002221F813207B6801330B491A017E
:10B780003B681344002221F813207B685A1C3B6855
:10B790000133064912011344002221F8132000BF8F
:10B7A0001437BD465DF8047B704700BF68FF00207A
:10B7B00080B588B000AFF860B9607A60B968F868A1
:10B7C000FFF7AAFF0023FB750023FB61D8E00023ED
:10B7D000BB61CEE07049FB691A01BB69134431F8C3
:10B7E0001330FF2B00F0C180BB690E2B2CDC6B49A2
:10B7F000FB691A01BB69134411F81330C3F3010349
:10B80000DBB21A467B681340002B1DD1BB690133A4
:10B810006149FA691201134431F81330FF2B13D137
:10B820005D49FB691A01BB69134431F81320BB69F8
:10B830000133013290B25849FA69120113440246A9
:10B8400021F813200123FB75FB690E2B2CDC5349D7
:10B85000FB691A01BB69134411F81330C3F3810368
:10B86000DBB21A467B681340002B1DD1FB69013304
:10B8700049491A01BB69134431F81330FF2B13D126
:10B880004549FB691A01BB69134431F81320FB6970
:10B890000133013290B240491A01BB691344024698
:10B8A00021F813200123FB75BB69002B2CDD3B49DC
:10B8B000FB691A01BB69134411F81330C3F3011378
:10B8C000DBB21A467B681340002B1DD1BB69013BDC
:10B8D0003149FA691201134431F81330FF2B13D1A7
:10B8E0002D49FB691A01BB69134431F81320BB6968
:10B8F000013B013290B22849FA6912011344024611
:10B9000021F813200123FB75FB69002B2EDD234951
:10B91000FB691A01BB69134411F81330C3F3811397
:10B92000DBB21A467B681340002B1FD1FB69013B39
:10B9300019491A01BB69134431F81330FF2B15D193
:10B940001549FB691A01BB69134431F81320FB69DF
:10B95000013B013290B210491A01BB6913440246FF
:10B9600021F813200123FB7500E000BFBB69013300
:10B97000BB61BB690F2B7FF72DAFFB690133FB6107
:10B98000FB690F2B7FF723AFFB7D002B7FF41AAFF2
:10B9900000BF2037BD4680BD68FF0020980301200E
:10B9A000B0B584B002AF0F237B6040E000233B6062
:10B9B00034E025493B681A017B68134411F81330C1
:10B9C000C3F30103DBB218461F493B681A017B68C9
:10B9D000134411F81330C3F38103DBB21C461A4938
:10B9E0003B681A017B68134411F81330C3F3011349
:10B9F000DBB21D4614493B681A017B68134411F8F9
:10BA00001330C3F38113DBB200932B462246014669
:10BA10000E480AF081FA3B6801333B603B680F2B0C
:10BA2000C7DD0B480AF0ECFA7B68013B7B607B6862
:10BA3000002BBBDA06480AF0E3FA05480AF0E0FA00
:10BA400000BF0837BD46B0BD98030120FCA2010825
:10BA5000E8A2010880B588B000AF3E4B1B68FB61CF
:10BA60000023BB616FE000237B6166E03B1D002289
:10BA70001A605A609A60DA603B1D1946F86903F053
:10BA8000ADF8FB691A1D3B1D04331946104603F03F
:10BA9000A5F8FB6903F108023B1D0833194610465F
:10BAA00003F09CF8FB6903F10C023B1D0C331946B3
:10BAB000104603F093F87B6803F00303D8B22649DD
:10BAC0007B691A01BB691A4411F8123060F3010353
:10BAD00001F81230BB6803F00303D8B21E497B693A
:10BAE0001A01BB691A4411F8123060F3830301F89C
:10BAF0001230FB6803F00303D8B217497B691A01BF
:10BB0000BB691A4411F8123060F3051301F81230C2
:10BB10003B6903F00303D8B20F497B691A01BB6983
:10BB20001A4411F8123060F3871301F81230FB69E0
:10BB30001033FB617B6901337B617B690F2B95DDE2
:10BB4000BB690133BB61BB690F2B8CDD00BF2037A4
:10BB5000BD4680BDC4A501089803012090B583B0FF
:10BB600000AF03F06BFB03F06FFA03F08DFA02F005
:10BB70008DFF03F0BDF90346FB71FB791946494877
:10BB80000AF0CAF903F0B4F90346FB71FB791946D0
:10BB900044480AF0C1F9642004F050FB38213720F2
:10BBA00003F018F9F0EE407A3F4BC3ED007A3E4BBC
:10BBB0001B681846FCF700FC03460C461A46234651
:10BBC0003A480AF0A9F90021042004F011F80021F4
:10BBD000052004F00DF80021022004F009F80021EE
:10BBE000032004F005F80021012004F001F80021F1
:10BBF000002003F0FDFF03F03FFD47F22F512C48DA
:10BC000003F0B4FB47F22F512A4803F0AFFB2A4858
:10BC100007F0FBF9294807F0F8F9294B4FF000022B
:10BC20009A60284B4FF000021A60274B4FF0000239
:10BC30001A60264B4FF000021A60254B00221A6052
:10BC4000234B00225A60224B00229A6003F07AF9BB
:10BC5000204B9B68204A93601E4B5B681E4A5360D2
:10BC60001D4B93ED027A1C4BD3ED017A77EE677A88
:10BC70001A4BC3ED007A042003F0D0FF052003F037
:10BC8000CDFF002003F0CAFF022003F0C7FF03200E
:10BC900003F0C4FF012003F0C1FF00BF0C37BD4615
:10BCA00090BD00BF0CA30108D4FC002028A301080C
:10BCB0002404004024080040E8070120A0050120DA
:10BCC000E8FE0020F8FE002028FC00202CFC0020CC
:10BCD00018FF002058FF0020740101200CFF0020F5
:10BCE00080B582B000AF03F0A9FA03F0ADF903F01C
:10BCF000CBF902F0CBFE03F0FBF80346FB71FB79B6
:10BD0000194638480AF008F90021042003F070FFB2
:10BD10000021052003F06CFF0021022003F068FFE2
:10BD20000021032003F064FF0021012003F060FFE5
:10BD30000021002003F05CFF03F09EFC47F22F512E
:10BD4000294803F013FB47F22F51284803F00EFB5C
:10BD5000274807F05AF9274807F057F9264B4FF0C4
:10BD600000029A60254B4FF000021A60244B4FF0FE
:10BD700000021A60234B4FF000021A60224B00228F
:10BD80001A60214B00225A601F4B00229A6003F078
:10BD9000D9F81E4B9B681E4A93601C4B5B681C4A7B
:10BDA00053601B4B93ED027A194BD3ED017A77EE7A
:10BDB000677A184BC3ED007A042003F02FFF0520AB
:10BDC00003F02CFF002003F029FF022003F026FFE0
:10BDD000032003F023FF012003F020FF00BF0837FA
:10BDE000BD4680BD0CA30108240400402408004087
:10BDF000E8070120A0050120E8FE0020F8FE002051
:10BE000028FC00202CFC002018FF002058FF0020F8
:10BE1000740101200CFF002080B582B000AFFFF755
:10BE20009DFEFCF7E9FFFFF7BBFA374B00225A6093
:10BE3000354B00221A60344B00229A600121042005
:10BE400003F0D6FE0121052003F0D2FE2E4B9968A7
:10BE50002D4B1A682C4B5B682C480AF05DF80021CA
:10BE6000012003F0C5FE0021022003F0C1FE0021E5
:10BE7000032003F0BDFE0121002003F0B9FE244B96
:10BE80004FF000021A60032003F01AF9214B002240
:10BE90001A601F4B204A1A60204B00229A701C4BDC
:10BEA000D3ED007AF0EE670A9FED1D0AFEF7A4F8C5
:10BEB00000237B6015E0194B00229A70144BD3EDE0
:10BEC000007A184B93ED007AB0EE471AF0EE670A4D
:10BED0009FED150AFEF7C4FBFDF7C6FC7B68013336
:10BEE0007B607B68002BE6DD0C4B00229A700F4BC9
:10BEF0004FF000029A604FF47A7004F09FF900BF8F
:10BF00000837BD4680BD00BF18FF002034A30108DC
:10BF100068010120DCFE0020000007430000002033
:10BF200000007742F4FE00200000B442E8FE00204A
:10BF300080B500AF03F0A0FB03F05AFC00BF80BD4A
:10BF400080B500AF184B00221A60FFF707FEFCF720
:10BF500053FFFFF725FA154B00225A60134B0022BE
:10BF60001A60124B00229A600121042003F040FE67
:10BF70000121052003F03CFE0021012003F038FEE2
:10BF80000021022003F034FE0121032003F030FEE3
:10BF9000074B4FF000021A60012003F091F8054BA7
:10BFA0004FF000029A60FAE7DCFE002018FF002044
:10BFB00068010120E8FE00202DE9B04F86B006AFF1
:10BFC0002C4B00221A60FFF7C9FDFCF715FFFFF7A5
:10BFD000E7F9294B00225A60274B00221A60264BB2
:10BFE00000229A600121042003F002FE01210520B5
:10BFF00003F0FEFD0121012003F0FAFD00210220E3
:10C0000003F0F6FD0021032003F0F2FD1B4B4FF07F
:10C0100000021A60022003F053F8194B4FF000029F
:10C020009A60184B1B681846FCF7C6F982468B4687
:10C03000144BDB681846FCF7BFF904460D46114B5C
:10C040009B681846FCF7B8F9804689460D4B5B683B
:10C050001846FCF7B1F902460B46CDE90423CDE9B9
:10C060000289CDE9004552465B46074809F054FF76
:10C07000D3E700BFDCFE002018FF0020680101208C
:10C08000E8FE002058FF002068A3010880B500AF3B
:10C090001A4B00221A60FFF761FDFCF7ADFEFFF7B7
:10C0A0007FF9174B00225A60154B00221A60144B7F
:10C0B00000229A600121042003F09AFD012105204D
:10C0C00003F096FD0121002003F092FD00210120E4
:10C0D00003F08EFD0021022003F08AFD00210320E1
:10C0E00003F086FD074B4FF000021A60052002F0B6
:10C0F000E7FF054B4FF000029A60FAE7DCFE0020F4
:10C1000018FF002068010120E8FE00202DE9B04F53
:10C110008AB008AF3C4B01221A60FFF71FFD3B4875
:10C1200009F06EFFFCF768FEFFF73AF9384809F0AE
:10C1300067FF384B00225A60364B00221A60354B9D
:10C1400000229A600121042003F052FD0121052004
:10C1500003F04EFD0021012003F04AFD00210220E2
:10C1600003F046FD0021032003F042FD2A4B4FF06F
:10C1700000021A60072002F0A3FF284B4FF00002D4
:10C180009A60274B1B681846FCF716F9C7E90001AF
:10C19000244B1B681846FCF70FF904460D46214B4B
:10C1A000DB681846FCF708F9804689461D4B93ED7D
:10C1B000007A1C4BD3ED037A77EE277A17EE900ABC
:10C1C000FCF7FAF882468B46164B93ED007A154B36
:10C1D000D3ED037A77EE277AB0EE007AC7EE876A5E
:10C1E00016EE900AFCF7E8F802460B46CDE9062366
:10C1F000CDE904ABCDE90289CDE90045D7E90023BB
:10C20000094809F089FEB8E7DCFE002098A3010880
:10C210009CA3010818FF002068010120E8FE00200F
:10C22000D4FC002058FF0020A0A3010880B584B0F2
:10C2300002AF764B00221A60FA2003F0FFFF744B26
:10C240004FF00002DA600123BB7197F906301946FE
:10C25000704809F061FEBB1D1A460221012003F05F
:10C260009DFE97F90630184603F046FE6A4809F02D
:10C27000C7FEFA2003F0E2FF654B4FF00002DA60E0
:10C2800001237B7197F905301946624809F044FE95
:10C290007B1D1A460421012003F080FE97F905302A
:10C2A000184603F029FE5C4809F0AAFE01F08AF95D
:10C2B000FFF716FDFCF7A0FDFFF772F8574B0022C1
:10C2C0005A60564B00221A60544B00229A6001219A
:10C2D000042003F08DFC0121052003F089FC4F4B65
:10C2E00099684E4B1A684D4B5B684D4809F014FE37
:10C2F0000021012003F07CFC0021022003F078FCE7
:10C300000021032003F074FC97F90630012B05D1BE
:10C31000444B454A1A605423FB7105E097F90630F7
:10C32000022B01D15323FB7197F90530013B032BFD
:10C330004DD801A252F823F049C3000875C3000884
:10C34000A1C30008CFC30008364B384A1A60384BE7
:10C35000384A1A60364B384A5A60354B374A9A6029
:10C36000334B374A1A61324B364A5A61304B2F4AA7
:10C370009A612CE02B4B344A1A602D4B334A1A60D9
:10C380002B4B324A5A602A4B314A9A60284B2C4A2E
:10C390001A61274B2B4A5A61254B244A9A6116E0B1
:10C3A000204B2C4A1A60224B4FF080421A60204BDF
:10C3B000294A5A601E4B294A9A601D4B204A1A612D
:10C3C0001B4B204A5A611A4B184A9A6100BF04203D
:10C3D00002F076FEFFF73EFBFB7900930423062272
:10C3E0000321052001F018F8DFED1D0A9FED1D0A5D
:10C3F000FDF7CAFE072003F07FFD42F2107003F044
:10C400001DFF194809F0FCFDF7E700BFDCFE002026
:10C4100058FF0020B8A30108C4A3010818FF00209A
:10C4200034A30108680101200000C8430000B442A1
:10C4300030FF002000001041000050414260653C88
:10C440000000F04100007042000007430000A040DF
:10C4500040A4DF3C00003443000060400AD7233D85
:10C460000000000000003442CCA3010880B582B077
:10C4700000AFA14B00221A60642003F0DFFE9F4B47
:10C480004FF00002DA600123BB7197F906301946BC
:10C490009B4809F041FDBB1D1A460221012003F013
:10C4A0007DFD97F90630184603F026FD954809F002
:10C4B000A7FD642003F0C2FE904B4FF00002DA604B
:10C4C00001237B7197F9053019468D4809F024FD49
:10C4D0007B1D1A460421012003F060FD97F9053009
:10C4E000184603F009FD874809F08AFD01F06AF853
:10C4F000FFF734FB844809F083FDFCF77DFC83489B
:10C5000009F07EFDFEF74CFF814809F079FD814B73
:10C5100000225A607F4B00221A607E4B00229A60F4
:10C520000121042003F064FB0121052003F060FBDE
:10C530000021012003F05CFB0021022003F058FBE6
:10C540000021032003F054FB022002F0B9FD97F90B
:10C550000630012B05D15423FB716F4B6F4A1A60D3
:10C5600005E097F90630022B01D15323FB7197F9AF
:10C570000530013B032B66D801A252F823F000BF1F
:10C5800091C50008BDC50008EBC5000817C6000826
:10C59000614B634A1A60634B634A1A60614B634A9A
:10C5A0005A60604B624A9A605E4B624A1A615D4B08
:10C5B000614A5A615B4B5A4A9A6144E0564B5F4A62
:10C5C0001A60584B4FF080421A60564B5C4A5A60D2
:10C5D000544B5C4A9A60534B564A1A61514B564A27
:10C5E0005A61504B4E4A9A612DE04B4B564A1A60A5
:10C5F0004C4B564A1A604B4B554A5A60494B554A68
:10C600009A60484B4B4A1A61464B4B4A5A61454B1C
:10C61000434A9A6117E0404B404A1A60414B4FF041
:10C6200080421A603F4B4FF081425A603D4B4A4A6C
:10C63000DA603C4B3F4A1A613A4B3F4A5A61394BE8
:10C64000374A9A6100BF454B00221A60444B0022D2
:10C650009A70434B0022DA70414B1A78404B9A7122
:10C660003F4B5B780133DAB23D4BDA713C4B002231
:10C670005A723C4B01221A60274BD3ED007AF0EE40
:10C68000670A9FED390AFDF7B7FC354B9A79344BB1
:10C690001A70334BDA79324B5A70314B5A7A304B2D
:10C6A000DA7008E02E4BDB78184602F009FDFB79C2
:10C6B000184600F05FF82A4B1B78042BF2D9284B60
:10C6C0001B78062BEED8264B5B78022BEAD9244B3D
:10C6D0005B78042BE6D8DFED250A9FED250AFDF7F0
:10C6E00053FD02F0F9FAFEF7FBFD072003F004FC0E
:10C6F000FFF756F9FCE700BFDCFE002058FF0020E2
:10C70000B8A30108C4A30108DCA30108E4A301083D
:10C71000ECA3010818FF00206801012000009643E7
:10C720000000B44230FF00200000104100005041E2
:10C730004260653C0000F04100007042000034435C
:10C74000000060400AD7233D0000704300004040D5
:10C75000000020410AD7A33D8FC2F53D9805012076
:10C760000000002014FC00200000764200000000C1
:10C770000000344290B583B000AF0346FB718D4B8F
:10C78000DB78032B00F2458401A252F823F000BFAE
:10C79000A1C70008C1C90008E1CB000801CE00080C
:10C7A000844B1B781846834B5B781946824A0301F9
:10C7B0000B4412F81330C3F30103DBB2002B3CD15E
:10C7C0007C4B1B781A467B4B5B7801337B4912010B
:10C7D000134431F81320774B1B781C46754B5B785C
:10C7E000184676492301034431F813309A4224D283
:10C7F000704B5B780E2B20D86E4B00229A706D4BDD
:10C800001A786C4B9A716B4B5B780133DAB2694BD7
:10C81000DA71684B00225A72FB791846FEF7D0F89D
:10C82000644B5A7A634BDA70624B9A79614B1A7097
:10C83000604BDA795F4B5A70BAE05E4B1B78184652
:10C840005C4B5B7819465C4A03010B4412F81330C9
:10C85000C3F38113DBB2002B3CD1564B1B78013B59
:10C86000544A52781146554A1B010B4432F81320A2
:10C87000504B1B781C464F4B5B7818464F492301A1
:10C88000034431F813309A4224D24A4B1B78002BD0
:10C8900020D0484B03229A70464B1B78013BDAB2FA
:10C8A000444B9A71434B5A78424BDA71414B032205
:10C8B0005A72FB791846FEF783F83E4B5A7A3D4B85
:10C8C000DA703C4B9A793B4B1A703A4BDA79394B18
:10C8D0005A706DE0374B1B781846364B5B7819461B
:10C8E000354A03010B4412F81330C3F38103DBB262
:10C8F000002B3CD12F4B1B7801332E4A5278114626
:10C900002E4A1B010B4432F813202A4B1B781C467D
:10C91000284B5B78184629492301034431F813302A
:10C920009A4224D2234B1B780E2B20D8214B012274
:10C930009A70204B1B780133DAB21E4B9A711D4B53
:10C940005A781C4BDA711B4B01225A72FB7918463C
:10C95000FEF736F8174B5A7A164BDA70154B9A7960
:10C96000144B1A70134BDA79124B5A7020E0114BAA
:10C9700002229A700F4B1A780E4B9A710D4B5B780E
:10C98000013BDAB20B4BDA710A4B02225A72FB7985
:10C990001846FEF715F8074B5A7A064BDA70054B26
:10C9A0009A79044B1A70034BDA79024B5A7031E3CF
:10C9B00030E300BF000000209803012068FF002042
:10C9C000844B1B781846834B5B781946824A0301D7
:10C9D0000B4412F81330C3F38103DBB2002B3CD1BC
:10C9E0007C4B1B7801337B4A527811467B4A1B01F2
:10C9F0000B4432F81320774B1B781C46754B5B7841
:10CA0000184676492301034431F813309A4224D260
:10CA1000704B1B780E2B20D86E4B00229A706D4BFA
:10CA20001B780133DAB26B4B9A716A4B5A78694BB7
:10CA3000DA71684B01225A72FB791846FDF7C0FF84
:10CA4000644B5A7A634BDA70624B9A79614B1A7075
:10CA5000604BDA795F4B5A70BAE05E4B1B78184630
:10CA60005C4B5B7819465C4A03010B4412F81330A7
:10CA7000C3F30103DBB2002B3CD1564B1B781A46A3
:10CA8000544B5B78013355491201134431F813209C
:10CA9000504B1B781C464F4B5B7818464F4923017F
:10CAA000034431F813309A4224D24A4B5B780E2B60
:10CAB00020D8484B03229A70464B1A78454B9A71FE
:10CAC000444B5B780133DAB2424BDA71414B0022BE
:10CAD0005A72FB791846FDF773FF3E4B5A7A3D4B6D
:10CAE000DA703C4B9A793B4B1A703A4BDA79394BF6
:10CAF0005A706DE0374B1B781846364B5B781946F9
:10CB0000354A03010B4412F81330C3F30113DBB2AF
:10CB1000002B3CD12F4B1B781A462E4B5B78013BE8
:10CB20002E491201134431F813202A4B1B781C465E
:10CB3000284B5B78184629492301034431F8133008
:10CB40009A4224D2234B5B78002B20D0214B012228
:10CB50009A70204B1A781F4B9A711E4B5B78013BE1
:10CB6000DAB21C4BDA711B4B02225A72FB7918465F
:10CB7000FDF726FF174B5A7A164BDA70154B9A7948
:10CB8000144B1A70134BDA79124B5A7020E0114B88
:10CB900002229A700F4B1B78013BDAB20D4B9A714F
:10CBA0000C4B5A780B4BDA710A4B03225A72FB7901
:10CBB0001846FDF705FF074B5A7A064BDA70054B0E
:10CBC0009A79044B1A70034BDA79024B5A7021E2BE
:10CBD00020E200BF000000209803012068FF002031
:10CBE000844B1B781846834B5B781946824A0301B5
:10CBF0000B4412F81330C3F30113DBB2002B3CD10A
:10CC00007C4B1B781A467B4B5B78013B7B491201BE
:10CC1000134431F81320774B1B781C46754B5B7817
:10CC2000184676492301034431F813309A4224D23E
:10CC3000704B5B78002B20D06E4B00229A706D4BAE
:10CC40001A786C4B9A716B4B5B78013BDAB2694B8B
:10CC5000DA71684B02225A72FB791846FDF7B0FE72
:10CC6000644B5A7A634BDA70624B9A79614B1A7053
:10CC7000604BDA795F4B5A70BAE05E4B1B7818460E
:10CC80005C4B5B7819465C4A03010B4412F8133085
:10CC9000C3F38103DBB2002B3CD1564B1B7801332D
:10CCA000544A52781146554A1B010B4432F813205E
:10CCB000504B1B781C464F4B5B7818464F4923015D
:10CCC000034431F813309A4224D24A4B1B780E2B7E
:10CCD00020D8484B03229A70464B1B780133DAB2B6
:10CCE000444B9A71434B5A78424BDA71414B0122C3
:10CCF0005A72FB791846FDF763FE3E4B5A7A3D4B5C
:10CD0000DA703C4B9A793B4B1A703A4BDA79394BD3
:10CD10005A706DE0374B1B781846364B5B781946D6
:10CD2000354A03010B4412F81330C3F38113DBB20D
:10CD3000002B3CD12F4B1B78013B2E4A52781146D9
:10CD40002E4A1B010B4432F813202A4B1B781C4639
:10CD5000284B5B78184629492301034431F81330E6
:10CD60009A4224D2234B1B78002B20D0214B012246
:10CD70009A70204B1B78013BDAB21E4B9A711D4B07
:10CD80005A781C4BDA711B4B03225A72FB791846F6
:10CD9000FDF716FE174B5A7A164BDA70154B9A7937
:10CDA000144B1A70134BDA79124B5A7020E0114B66
:10CDB00002229A700F4B1A780E4B9A710D4B5B78CA
:10CDC0000133DAB20B4BDA710A4B00225A72FB794B
:10CDD0001846FDF7F5FD074B5A7A064BDA70054BFE
:10CDE0009A79044B1A70034BDA79024B5A7011E1AD
:10CDF00010E100BF000000209803012068FF002020
:10CE0000864B1B781846854B5B781946844A03018C
:10CE10000B4412F81330C3F38113DBB2002B3CD167
:10CE20007E4B1B78013B7D4A527811467D4A1B019F
:10CE30000B4432F81320794B1B781C46774B5B78F8
:10CE4000184678492301034431F813309A4224D21A
:10CE5000724B1B78002B20D0704B00229A706F4BC6
:10CE60001B78013BDAB26D4B9A716C4B5A786B4B65
:10CE7000DA716A4B03225A72FB791846FDF7A0FD5E
:10CE8000664B5A7A654BDA70644B9A79634B1A7029
:10CE9000624BDA79614B5A70BAE0604B1B781846E6
:10CEA0005E4B5B7819465E4A03010B4412F813305F
:10CEB000C3F30113DBB2002B3CD1584B1B781A464D
:10CEC000564B5B78013B57491201134431F813204C
:10CED000524B1B781C46514B5B7818465149230135
:10CEE000034431F813309A4224D24C4B5B78002B28
:10CEF00020D04A4B03229A70484B1A78474B9A71BC
:10CF0000464B5B78013BDAB2444BDA71434B022269
:10CF10005A72FB791846FDF753FD404B5A7A3F4B46
:10CF2000DA703E4B9A793D4B1A703C4BDA793B4BA9
:10CF30005A706DE0394B1B781846384B5B781946B0
:10CF4000374A03010B4412F81330C3F30103DBB279
:10CF5000002B3CD1314B1B781A46304B5B780133A8
:10CF600030491201134431F813202C4B1B781C4616
:10CF70002A4B5B7818462B492301034431F81330C0
:10CF80009A4224D2254B5B780E2B20D8234B0122CA
:10CF90009A70224B1A78214B9A71204B5B7801339F
:10CFA000DAB21E4BDA711D4B00225A72FB79184619
:10CFB000FDF706FD194B5A7A184BDA70174B9A7920
:10CFC000164B1A70154BDA79144B5A7020E0134B3C
:10CFD00002229A70114B1B780133DAB20F4B9A710F
:10CFE0000E4B5A780D4BDA710C4B01225A72FB79B9
:10CFF0001846FDF7E5FC094B5A7A084BDA70074BE7
:10D000009A79064B1A70054BDA79044B5A7001E095
:10D0100000E000BF00BF0C37BD4690BD00000020FF
:10D020009803012068FF002080B483B000AF7860CF
:10D0300039601C497B681A013B68134411F81330AE
:10D04000C3F30103DBB2022B23D016497B681A011C
:10D050003B68134411F81330C3F38103DBB2022B96
:10D0600017D010497B681A013B68134411F813303C
:10D07000C3F30113DBB2022B0BD00A497B681A0100
:10D080003B68134411F81330C3F38113DBB2022B56
:10D0900001D1012300E0002318460C37BD465DF89E
:10D0A000047B70479803012080B586B000AFF8601C
:10D0B000B9601346FB7100237B61154BDB78FA796D
:10D0C0009A4202D102237B6112E0114BDB781A1DD8
:10D0D000FB79D31A5A4203F0030302F0030258BF4C
:10D0E0005342022B02D100237B6101E001237B61CB
:10D0F000B968F868FFF798FF0346002B02D07B69F8
:10D1000004337B617B6918461837BD4680BD00BF7C
:10D110000000002080B588B000AFF860B9607A6088
:10D120007A68B968F868FEF743FBFF23FB610023C8
:10D13000BB61A14B1B7818469F4B5B7819469F4AF1
:10D1400003010B4412F81330C3F30103DBB21A4698
:10D150007B681340002B43D1974B1B781846964BA6
:10D160005B78013300221946FFF79EFF7861924BEE
:10D170001B781A46904B5B78013391491201134496
:10D1800031F813301A46FB69934211DD8A4B1B7844
:10D190001A46894B5B78013389491201134431F8EF
:10D1A0001330FB61844B00225A727B69BB6117E02C
:10D1B000814B1B781A46804B5B7801338049120102
:10D1C000134431F813301A46FB69934208D1BA6907
:10D1D0007B699A4204DA784B00225A727B69BB6100
:10D1E000754B1B781846744B5B781946734A0301DC
:10D1F0000B4412F81330C3F38103DBB21A467B6889
:10D200001340002B42D16C4B1B78581C6A4B5B7847
:10D2100001221946FFF748FF7861674B1B780133FD
:10D22000654A52781146664A1B010B4432F81330A6
:10D230001A46FB69934211DD5F4B1B7801335E4A4E
:10D24000527811465E4A1B010B4432F81330FB61E1
:10D25000594B01225A727B69BB6117E0564B1B7810
:10D260000133554A52781146554A1B010B4432F896
:10D2700013301A46FB69934208D1BA697B699A4216
:10D2800004DA4D4B01225A727B69BB614A4B1B7811
:10D290001846494B5B781946484A03010B4412F87B
:10D2A0001330C3F30113DBB21A467B681340002B23
:10D2B00043D1414B1B7818463F4B5B78013B022220
:10D2C0001946FFF7F1FE78613B4B1B781A463A4B43
:10D2D0005B78013B3A491201134431F813301A4686
:10D2E000FB69934211DD344B1B781A46324B5B7855
:10D2F000013B33491201134431F81330FB612E4BCB
:10D3000002225A727B69BB6117E02B4B1B781A46CD
:10D31000294B5B78013B2A491201134431F8133041
:10D320001A46FB69934208D1BA697B699A4204DACA
:10D33000214B02225A727B69BB611F4B1B78184636
:10D340001D4B5B7819461D4A03010B4412F813303C
:10D35000C3F38113DBB21A467B681340002B45D11F
:10D36000154B1B78581E144B5B7803221946FFF7A8
:10D370009BFE7861104B1B78013B0F4A5278114697
:10D380000F4A1B010B4432F813301A46FB699342D3
:10D3900018DD094B1B78013B074A52781146084AB1
:10D3A0001B010B4432F81330FB61034B03225A720A
:10D3B0007B69BB611AE000BF0000002098030120D8
:10D3C00068FF0020124B1B78013B114A527811462E
:10D3D000104A1B010B4432F813301A46FB69934282
:10D3E00004D10B4B03225A727B69BB61084B5B7AF9
:10D3F0000433074AD2789B1A5A4203F0030302F01F
:10D40000030258BF534218462037BD4680BD00BFB7
:10D410000000002068FF002080B584B000AFF860F5
:10D42000B9607A603B604E4B01221A604D4B00227E
:10D430009A704C4B0022DA704A4B1A78494B9A7119
:10D44000484B5B780133DAB2464BDA71454B002228
:10D450005A72454BD3ED007AF0EE670A9FED430A0E
:10D46000FCF7CAFD3F4B9A793E4B1A703D4BDA7977
:10D470003C4B5A703B4B5A7A3A4BDA7054E00322D9
:10D48000B968F868FFF746FE0346DAB2354B9A7082
:10D49000344B5B7A032B37D801A252F823F000BF3C
:10D4A000B1D40008C7D40008DDD40008F3D40008C4
:10D4B0002C4B1A782B4B9A712A4B5B780133DAB2DA
:10D4C000284BDA7120E0274B1B780133DAB2254B69
:10D4D0009A71244B5A78234BDA7115E0214B1A7854
:10D4E000204B9A711F4B5B78013BDAB21D4BDA710E
:10D4F0000AE01C4B1B78013BDAB21A4B9A71194BAC
:10D500005A78184BDA7100BF3B7E1846FDF758FA7F
:10D51000144B9A79134B1A70124BDA79114B5A70DB
:10D52000104B5A7A0F4BDA700E4B1B781A46FB6879
:10D530009342A4DC0B4B1B781A467B6893429EDB1C
:10D54000084B5B781A46BB68934298DC054B5B78C6
:10D550001A463B68934292DB00BF1037BD4680BD40
:10D56000980501200000002068010120000077429A
:10D5700080B582B000AF7860391D4FF6FF7301228D
:10D58000034807F0FDF87B6818460837BD4680BDA4
:10D590004807012080B582B000AF0223FB7107E08D
:10D5A000B91D0A230122064807F083F90346FB71DF
:10D5B000FB79002BF4D1BB7918460837BD4680BDF6
:10D5C0004807012080B500AF00F0C2FB024808F018
:10D5D00017FD00BF80BD00BFF4A3010880B483B075
:10D5E00000AF0346FB80FB88B3F5805F0BD1094B8E
:10D5F0001B680133074A1360064B1B68012B02DDD1
:10D60000044B00221A6000BF0C37BD465DF8047B56
:10D61000704700BF34FC002080B582B000AF02F03C
:10D620009BFD00F0B9F800F003FD00F0D9FC00F01C
:10D630001DF900F089F900F0E3FA00F06BFA00F050
:10D64000E3F900F0A3FC00F083FB00F02DFB00F0F9
:10D65000F5FB00F00FFA01F019FA4FF4FA7002F03E
:10D66000EDFD464B9B68184602F064FC0023FB71FD
:10D6700097F907301946424808F04EFCFB1D1A4640
:10D680000721002002F08AFC00F062FB97F90730C6
:10D69000184602F031FC3B4808F0B2FC9FED3A1A04
:10D6A000DFED3A0A9FED3A0A042002F075FA9FED89
:10D6B000361ADFED360A9FED360A052002F06CFAC5
:10D6C0009FED341ADFED330AB2EE080A002002F0B3
:10D6D00063FA9FED301ADFED2F0AB1EE080A082039
:10D6E00002F05AFA9FED2B1ADFED2A0AB1EE080A72
:10D6F000012002F051FA9FED271ADFED260AB2EE63
:10D70000080A022002F048FA9FED221ADFED210AF2
:10D71000B2EE080A032002F03FFA97F90730072B10
:10D720002AD801A252F823F049D700084FD70008A1
:10D7300055D700085BD7000861D7000867D70008F5
:10D740006DD7000873D70008FEF7F2FB15E0FEF76F
:10D75000F7FB12E0FEF730FC0FE0FEF75DFB0CE09C
:10D76000FEF764FD09E0FEF791FC06E0FEF77EFEA1
:10D7700003E0FEF7CBFC00E000BFCEE7BCFC0020DE
:10D78000FCA3010808A401086F12833A00002F458A
:10D790009A9969410000000080B594B000AF07F18C
:10D7A000200330220021184607F06FFD07F10C031B
:10D7B00000221A605A609A60DA601A610023BB6026
:10D7C000284B1B6C274A43F080531364254B1B6C7A
:10D7D00003F08053BB60BB6800237B60224B1B6857
:10D7E000214A43F4804313601F4B1B6803F48043BA
:10D7F0007B607B6801233B624FF480337B620223B2
:10D80000BB634FF48003FB6304233B64A8237B6466
:10D810000223BB640423FB6407F12003184604F0D1
:10D8200013FA0346002B01D000F0D6FC0F23FB6057
:10D8300002233B6100237B614FF4A053BB614FF493
:10D840008053FB6107F10C030521184604F06CFCC2
:10D850000346002B01D000F0BFFC00BF5037BD468F
:10D8600080BD00BF003802400070004080B584B029
:10D8700000AF3B4600221A605A609A60DA602F4B74
:10D880002F4A1A602D4B4FF400325A602B4B002266
:10D890009A602A4B01221A61284B01221A76274BE3
:10D8A000002283F82020254B0022DA62234B254AF0
:10D8B0009A62224B0022DA60204B0322DA611F4B6E
:10D8C000012283F830201D4B01225A611B4802F0CF
:10D8D000D7FC0346002B01D000F07EFC0A233B60FE
:10D8E00001237B600323BB603B461946134802F0CB
:10D8F00065FE0346002B01D000F06EFC0E233B605A
:10D9000002237B603B4619460C4802F057FE034653
:10D91000002B01D000F060FC09233B6003237B60F7
:10D920003B461946054802F049FE0346002B01D04C
:10D9300000F052FC00BF1037BD4680BD000701203B
:10D94000002001400100000F80B584B000AF3B46CD
