:020000040800F2
:10000000000002205DFE0008A5FB0008ABFB000815
:10001000B1FB0008B7FB0008BDFB000800000000B2
:10002000000000000000000000000000C3FB00080A
:10003000D1FB000800000000DFFB0008EDFB00081A
:10004000ADFE0008ADFE0008ADFE0008ADFE0008E4
:10005000F9FB0008ADFE0008ADFE0008ADFE00088B
:10006000ADFE0008ADFE0008ADFE0008ADFE0008C4
:10007000ADFE0008ADFE0008ADFE0008ADFE0008B4
:10008000ADFE0008ADFE000805FC0008ADFE00084E
:10009000ADFE0008ADFE0008ADFE0008ADFE000894
:1000A000ADFE000821FC0008ADFE0008ADFE000812
:1000B00035FC000849FC00085DFC0008ADFE0008A6
:1000C000ADFE0008ADFE0008ADFE0008ADFE000864
:1000D000ADFE0008ADFE0008ADFE0008ADFE000854
:1000E000ADFE0008ADFE0008ADFE0008ADFE000844
:1000F00071FC000885FC000899FC0008ADFE0008B2
:10010000ADFE0008ADFE0008ADFC0008ADFE000825
:10011000ADFE0008ADFE0008ADFE0008ADFE000813
:10012000C1FC0008ADFE0008D5FC0008ADFE0008CB
:10013000ADFE00080000000000000000ADFE000859
:10014000ADFE0008ADFE0008ADFE0008ADFE0008E3
:10015000ADFE0008ADFE0008ADFE0008ADFE0008D3
:10016000ADFE0008ADFE0008ADFE0008ADFE0008C3
:10017000ADFE0008ADFE0008000000000000000019
:08018000ADFE0008ADFE000811
:1080000010B5054C237833B9044B13B10448AFF3D2
:1080100000800123237010BD6002002000000000DA
:10802000F07A010808B5034B1BB103490348AFF3CD
:10803000008008BD0000000064020020F07A010802
:10804000034613F8012B002AFBD1181A0138704798
:1080500001F0FF01102A2BDB10F0070F08D010F8F9
:10806000013B013A8B422DD010F0070F42B3F6D1FD
:10807000F0B441EA012141EA014122F007047FF016
:1080800000070023F0E80256083C85EA010586EA6D
:10809000010685FA47F5A3FA87F586FA47F6A5FAA9
:1080A00087F68EB9EED1F0BC01F0FF0102F00702B5
:1080B00032B110F8013B013A83EA010313B1F8D160
:1080C0000020704701387047002D06BF3546033841
:1080D000073815F0010F07D1013015F4807F02BF7A
:1080E000013015F4C03F0130F0BC0138704700BFCB
:1080F00081F0004102E000BF83F0004330B54FEA59
:1081000041044FEA430594EA050F08BF90EA020FC5
:108110001FBF54EA000C55EA020C7FEA645C7FEA58
:10812000655C00F0E2804FEA5454D4EB5555B8BF7B
:108130006D420CDD2C4480EA020281EA030382EAEC
:10814000000083EA010180EA020281EA0303362D7E
:1081500088BF30BD11F0004F4FEA01314FF4801C51
:108160004CEA113102D0404261EB410113F0004F63
:108170004FEA03334CEA133302D0524263EB43031A
:1081800094EA050F00F0A780A4F10104D5F1200EB8
:108190000DDB02FA0EFC22FA05F2801841F1000113
:1081A00003FA0EF2801843FA05F359410EE0A5F1E7
:1081B00020050EF1200E012A03FA0EFC28BF4CF018
:1081C000020C43FA05F3C01851EBE37101F00045CE
:1081D00007D54FF0000EDCF1000C7EEB00006EEBDB
:1081E0000101B1F5801F1BD3B1F5001F0CD3490865
:1081F0005FEA30004FEA3C0C04F101044FEA4452BC
:1082000012F5800F80F09A80BCF1004F08BF5FEA42
:10821000500C50F1000041EB045141EA050130BD22
:108220005FEA4C0C404141EB010111F4801FA4F1C5
:108230000104E9D191F0000F04BF01460020B1FA1A
:1082400081F308BF2033A3F10B03B3F120020CDA52
:108250000C3208DD02F1140CC2F10C0201FA0CF030
:1082600021FA02F10CE002F11402D8BFC2F1200C95
:1082700001FA02F120FA0CFCDCBF41EA0C0190404B
:10828000E41AA2BF01EB0451294330BD6FEA040494
:108290001F3C1CDA0C340EDC04F11404C4F120027F
:1082A00020FA04F001FA02F340EA030021FA04F391
:1082B00045EA030130BDC4F10C04C4F1200220FAE8
:1082C00002F001FA04F340EA0300294630BD21FA26
:1082D00004F0294630BD94F0000F83F4801306BFEC
:1082E00081F480110134013D4EE77FEA645C18BFE0
:1082F0007FEA655C29D094EA050F08BF90EA020F77
:1083000005D054EA000C04BF1946104630BD91EA6E
:10831000030F1EBF0021002030BD5FEA545C05D171
:108320004000494128BF41F0004130BD14F58004B0
:108330003CBF01F5801130BD01F0004545F0FE4124
:1083400041F470014FF0000030BD7FEA645C1ABF59
:10835000194610467FEA655C1CBF0B46024650EA90
:10836000013406BF52EA033591EA030F41F40021BC
:1083700030BD00BF90F0000F04BF0021704730B542
:108380004FF4806404F132044FF000054FF0000117
:1083900050E700BF90F0000F04BF0021704730B5D8
:1083A0004FF4806404F1320410F0004548BF4042AD
:1083B0004FF000013EE700BF42004FEAE2014FEA02
:1083C00031014FEA02701FBF12F07F4393F07F4FDD
:1083D00081F06051704732F07F4208BF704793F0E0
:1083E0007F4F04BF41F40021704730B54FF46074F3
:1083F00001F0004521F000411CE700BF50EA0102F6
:1084000008BF704730B54FF000050AE050EA01029E
:1084100008BF704730B511F0004502D5404261EB0E
:1084200041014FF4806404F132045FEA915C3FF44F
:10843000D8AE4FF003025FEADC0C18BF03325FEAEC
:10844000DC0C18BF033202EBDC02C2F1200300FA9D
:1084500003FC20FA02F001FA03FE40EA0E0021FAC2
:1084600002F11444BDE600BF70B54FF0FF0C4CF4B0
:10847000E06C1CEA11541DBF1CEA135594EA0C0F62
:1084800095EA0C0F00F0DEF82C4481EA030621EA9D
:108490004C5123EA4C5350EA013518BF52EA0335D8
:1084A00041F4801143F4801338D0A0FB02CE4FF08A
:1084B0000005E1FB02E506F00042E0FB03E54FF0BA
:1084C0000006E1FB03569CF0000F18BF4EF0010EB2
:1084D000A4F1FF04B6F5007F64F5407404D25FEAAE
:1084E0004E0E6D4146EB060642EAC62141EA555161
:1084F0004FEAC52040EA5E504FEACE2EB4F1FD0CA3
:1085000088BFBCF5E06F1ED8BEF1004F08BF5FEA20
:10851000500E50F1000041EB045170BD06F00046D2
:1085200046EA010140EA020081EA0301B4EB5C047F
:10853000C2BFD4EB0C0541EA045170BD41F4801177
:108540004FF0000E013C00F3AB8014F1360FDEBF9C
:10855000002001F0004170BDC4F10004203C35DA78
:108560000C341BDC04F11404C4F1200500FA05F3FB
:1085700020FA04F001FA05F240EA020001F000429C
:1085800021F0004110EBD37021FA04F642EB060112
:108590005EEA430E08BF20EAD37070BDC4F10C043C
:1085A000C4F1200500FA04F320FA05F001FA04F200
:1085B00040EA020001F0004110EBD37041F10001EC
:1085C0005EEA430E08BF20EAD37070BDC4F12005F7
:1085D00000FA05F24EEA020E20FA04F301FA05F25F
:1085E00043EA020321FA04F001F0004121FA04F207
:1085F00020EA020000EBD3705EEA430E08BF20EAD7
:10860000D37070BD94F0000F0FD101F00046400010
:1086100041EB010111F4801F08BF013CF7D041EA92
:10862000060195F0000F18BF704703F00046520096
:1086300043EB030313F4801F08BF013DF7D043EA67
:108640000603704794EA0C0F0CEA135518BF95EA1D
:108650000C0F0CD050EA410618BF52EA4306D1D1A4
:1086600081EA030101F000414FF0000070BD50EAC3
:10867000410606BF1046194652EA430619D094EA4D
:108680000C0F02D150EA013613D195EA0C0F05D137
:1086900052EA03361CBF104619460AD181EA03018B
:1086A00001F0004141F0FE4141F470014FF0000043
:1086B00070BD41F0FE4141F4780170BD70B54FF0DE
:1086C000FF0C4CF4E06C1CEA11541DBF1CEA13555E
:1086D00094EA0C0F95EA0C0F00F0A7F8A4EB050440
:1086E00081EA030E52EA03354FEA013100F0888037
:1086F0004FEA03334FF0805545EA131343EA126300
:108700004FEA022245EA111545EA10654FEA0026B4
:108710000EF000419D4208BF964244F1FD0404F56D
:10872000407402D25B084FEA3202B61A65EB0305C9
:108730005B084FEA32024FF480104FF4002CB6EB86
:10874000020E75EB030E22BFB61A754640EA0C0006
:108750005B084FEA3202B6EB020E75EB030E22BF46
:10876000B61A754640EA5C005B084FEA3202B6EB87
:10877000020E75EB030E22BFB61A754640EA9C0046
:108780005B084FEA3202B6EB020E75EB030E22BF16
:10879000B61A754640EADC0055EA060E18D04FEAD4
:1087A000051545EA16754FEA06164FEAC30343EA74
:1087B00052734FEAC2025FEA1C1CC0D111F4801F41
:1087C0000BD141EA00014FF000004FF0004CB6E73A
:1087D00011F4801F04BF01430020B4F1FD0C88BFD9
:1087E000BCF5E06F3FF6AFAEB5EB030C04BFB6EBE4
:1087F000020C5FEA500C50F1000041EB045170BDD7
:108800000EF0004E4EEA113114EB5C04C2BFD4EB03
:108810000C0541EA045170BD41F480114FF0000E87
:10882000013C90E645EA060E8DE60CEA135594EA03
:108830000C0F08BF95EA0C0F3FF43BAF94EA0C0F06
:108840000AD150EA01347FF434AF95EA0C0F7FF47B
:1088500025AF104619462CE795EA0C0F06D152EACF
:1088600003353FF4FDAE1046194622E750EA4106B3
:1088700018BF52EA43067FF4C5AE50EA41047FF4C4
:108880000DAF52EA43057FF4EBAE12E74FF0FF3C29
:1088900006E000BF4FF0010C02E000BF4FF0010CFA
:1088A0004DF804CD4FEA410C7FEA6C5C4FEA430C73
:1088B00018BF7FEA6C5C1BD001B050EA410C0CBFC2
:1088C00052EA430C91EA030F02BF90EA020F002024
:1088D000704710F1000F91EA030F58BF994208BF8B
:1088E00090422CBFD8176FEAE37040F00100704748
:1088F0004FEA410C7FEA6C5C02D150EA013C07D19F
:108900004FEA430C7FEA6C5CD6D152EA033CD3D0E9
:108910005DF8040B704700BF8446104662468C46E3
:108920001946634600E000BF01B5FFF7B7FF002816
:1089300048BF10F1000F01BD4DF808EDFFF7F4FF3F
:108940000CBF012000205DF808FB00BF4DF808EDCA
:10895000FFF7EAFF34BF012000205DF808FB00BFED
:108960004DF808EDFFF7E0FF94BF012000205DF80F
:1089700008FB00BF4DF808EDFFF7CEFF94BF0120C4
:1089800000205DF808FB00BF4DF808EDFFF7C4FFBD
:1089900034BF012000205DF808FB00BF4FEA410C06
:1089A0007FEA6C5C02D150EA013C0AD14FEA430CE9
:1089B0007FEA6C5C02D152EA033C02D14FF0000026
:1089C00070474FF0010070474FEA410212F5001264
:1089D00015D211D56FF47873B3EB625212D94FEA06
:1089E000C12343F0004343EA505311F0004F23FAF0
:1089F00002F018BF404270474FF00000704750EA45
:108A0000013005D111F0004008BF6FF00040704701
:108A10004FF00000704700BF4FEA4102B2F1E0435F
:108A200024BFB3F5001CDCF1FE5C0DD901F0004C55
:108A30004FEAC0024CEA5070B2F1004F40EB8300A5
:108A400008BF20F00100704711F0804F21D113F1D1
:108A50003872BCBF01F00040704741F480114FEA0A
:108A60005252C2F11802C2F1200C10FA0CF320FA93
:108A700002F018BF40F001004FEAC1234FEAD323B0
:108A800003FA0CFC40EA0C0023FA02F34FEA43031A
:108A9000CCE77FEA625307D150EA01331EBF4FF0A3
:108AA000FE4040F44000704701F0004040F0FE40BE
:108AB00040F40000704700BF53B94AB9002908BF0D
:108AC00000281CBF4FF0FF314FF0FF3000F072B9AB
:108AD000ADF1080C6DE904CE00F006F8DDF804E015
:108AE000DDE9022304B070472DE9F047089E0446F3
:108AF0008846002B4BD18A42154667D9B2FA82F2DA
:108B00004AB1C2F1200701FA02F320FA07F79540B3
:108B100047EA030894404FEA154E230CB8FBFEF7D2
:108B20001FFA85FC0EFB178843EA084307FB0CF18C
:108B3000994209D9EB1807F1FF3080F01B81994267
:108B400040F21881023F2B445B1AA4B2B3FBFEF043
:108B50000EFB103344EA034400FB0CFCA44509D986
:108B60002C1900F1FF3380F00781A44540F2048105
:108B700002382C4440EA0740A4EB0C0400271EB145
:108B8000D4400023C6E900433946BDE8F0878B4254
:108B900009D9002E00F0EB800027C6E90001384615
:108BA0003946BDE8F087B3FA83F7002F47D18B42EF
:108BB00002D3824200F2FA80841A61EB030301209F
:108BC0009846002EE0D0C6E90048DDE702B9FFDE96
:108BD000B2FA82F2002A40F08F80491B4FEA154E0C
:108BE0001FFA85F80127B1FBFEFC230C0EFB1C11BC
:108BF00043EA014308FB0CF1994207D9EB180CF149
:108C0000FF3002D2994200F2CD808446591AA3B2B5
:108C1000B1FBFEF00EFB101443EA044408FB00F81D
:108C2000A04507D92C1900F1FF3302D2A04500F26C
:108C3000B6801846A4EB080440EA0C409FE7C7F151
:108C4000200CBB4022FA0CFE4EEA030E01FA07F498
:108C500020FA0CF521FA0CF34FEA1E482543B3FB2A
:108C6000F8F92C0C08FB19331FFA8EFA44EA034377
:108C700009FB0AF49C4202FA07F200FA07F10BD949
:108C80001EEB030309F1FF3080F087809C4240F225
:108C90008480A9F1020973441B1BADB2B3FBF8F049
:108CA00008FB103345EA034400FB0AFAA24508D941
:108CB0001EEB040400F1FF336BD2A24569D90238E0
:108CC000744440EA0940A0FB0289A4EB0A044C4525
:108CD000C2464B4654D351D0002E69D0B1EB0A05A1
:108CE00064EB030404FA0CFCFD40FC404CEA05056F
:108CF000C6E90054002747E7C2F1200320FA03F732
:108D0000954001FA02F021FA03F34FEA154E384379
:108D1000010CB3FBFEF71FFA85F80EFB173341EA8F
:108D2000034107FB08F38B4204FA02F407D96918E0
:108D300007F1FF3C2FD28B422DD9023F2944CB1A99
:108D400081B2B3FBFEF00EFB103341EA034100FB9E
:108D500008F38B4207D9691800F1FF3C17D28B4208
:108D600015D902382944C91A40EA07473BE7374674
:108D7000304609E70746E7E61846FBE64145ABD231
:108D8000B8EB020A69EB0E0201381346A4E760460D
:108D9000E9E7184695E76746D1E781467CE7023860
:108DA0002C4447E7ACF1020C2B442FE7384608E788
:108DB0003746E9E6704700BF90B587B000AF87ED52
:108DC000050AC7ED040A87ED031AC7ED021A87EDFD
:108DD000012AC7ED002A544B1B78002B0FD1534BAF
:108DE0004FF000021A60524B4FF000021A60514BD4
:108DF0004FF000021A60504B4FF000021A604A4BCD
:108E000001221A70D7ED057A9FED4C7A37EE877AFA
:108E1000D7ED047A77EE677A444BC3ED007A434B83
:108E200093ED007AD7ED037A27EE277A404BD3ED06
:108E3000007A77EE277A3E4BC3ED007A3B4B93EDF9
:108E4000007A3D4BD3ED007A77EE676A97ED037AAF
:108E5000C6EE877A374BC3ED007A344B1B68364A2F
:108E60001360324B93ED007AD7ED027A27EE277A22
:108E70002F4BD3ED006AD7ED017A66EEA77A37EE75
:108E8000277A2C4BD3ED006AD7ED007A66EEA77AED
:108E900077EE277A17EE900AFFF78EFA03460C4614
:108EA00044EC103B0CF01CFA54EC103B18462146E5
:108EB000FFF78AFD03461AB2214B1A801B4B93ED34
:108EC000007AD7ED027A27EE277A194BD3ED006AA4
:108ED000D7ED017A66EEA77A37EE277A154BD3EDF8
:108EE000006AD7ED007A66EEA77A77EE277A17EE5A
:108EF000900AFFF761FA03460C4644EC103B0CF075
:108F0000EFF954EC103B18462146FFF75DFD034690
:108F10001BB29BB25B429BB21AB20A4B1A8000BFD3
:108F20001C37BD4690BD00BF7C020020800200209F
:108F300084020020880200208C02002000002042D1
:108F4000EE4300200044002090B587B000AF87EDCD
:108F5000050AC7ED040A87ED031AC7ED021A87ED6B
:108F6000012AC7ED002A594B1B78002B0FD1584B13
:108F70004FF000021A60574B4FF000021A60564B38
:108F80004FF000021A60554B4FF000021A604F4B31
:108F900001221A7097ED057AD7ED047A77EE677A99
:108FA00017EE900AFFF708FA4FF033324C4BFFF7F9
:108FB0005BFA03460C4618462146FFF72DFD024694
:108FC000434B1A60424B93ED007AD7ED037A27EEBC
:108FD000277A404BD3ED007A77EE277A3D4BC3EDED
:108FE000007A3B4B93ED007A3C4BD3ED007A77EE61
:108FF000676A97ED037AC6EE877A374BC3ED007A3E
:10900000334B1B68354A1360314B93ED007AD7ED33
:10901000027A27EE277A2F4BD3ED006AD7ED017A3B
:1090200066EEA77A37EE277A2B4BD3ED006AD7EDA1
:10903000007A66EEA77A77EE277A17EE900AFFF7A6
:10904000BBF903460C4644EC103B0CF049F954ECD8
:10905000103B18462146FFF7B7FC03461BB29BB2F4
:109060005B429BB21AB21F4B1A80194B93ED007AE8
:10907000D7ED027A27EE277A164BD3ED006AD7EDAB
:10908000017A66EEA77A37EE277A134BD3ED006AA2
:10909000D7ED007A66EEA77A77EE277A17EE900A78
:1090A000FFF78AF903460C4644EC103B0CF018F924
:1090B00054EC103B18462146FFF786FC03461AB2D3
:1090C000094B1A8000BF1C37BD4690BD7C020020B2
:1090D0009002002094020020980200209C020020B0
:1090E0003333F33FEA4300200C44002090B587B0AF
:1090F00000AF87ED050AC7ED040A87ED031AC7ED37
:10910000021A87ED012AC7ED002A594B1B78002B64
:109110000FD1584B4FF000021A60574B4FF000022E
:109120001A60564B4FF000021A60554B4FF0000288
:109130001A604F4B01221A7097ED057AD7ED047A29
:1091400077EE677A17EE900AFFF736F94FF0333271
:109150004C4BFFF789F903460C4618462146FFF7AA
:109160005BFC0246434B1A60424B93ED007AD7ED0D
:10917000037A27EE277A404BD3ED007A77EE277AF1
:109180003D4BC3ED007A3B4B93ED007A3C4BD3ED66
:10919000007A77EE676A97ED037AC6EE877A374BE7
:1091A000C3ED007A334B1B68354A1360314B93EDA6
:1091B000007AD7ED027A27EE277A2F4BD3ED006A9B
:1091C000D7ED017A66EEA77A37EE277A2B4BD3EDEF
:1091D000006AD7ED007A66EEA77A77EE277A17EE67
:1091E000900AFFF7E9F803460C4644EC103B0CF0FC
:1091F00077F854EC103B18462146FFF7E5FB034691
:109200001AB2214B1A801B4B93ED007AD7ED027AEC
:1092100027EE277A184BD3ED006AD7ED017A66EE78
:10922000A77A37EE277A154BD3ED006AD7ED007A8F
:1092300066EEA77A77EE277A17EE900AFFF7BCF86A
:1092400003460C4644EC103B0CF04AF854EC103B3F
:1092500018462146FFF7B8FB03461BB29BB25B42A0
:109260009BB21AB2094B1A8000BF1C37BD4690BD95
:109270007C020020A0020020A4020020A8020020FE
:10928000AC0200203333F33FDC430020F4430020E2
:1092900090B587B000AF87ED050AC7ED040A87EDEA
:1092A000031AC7ED021A87ED012AC7ED002A504BB9
:1092B0001B78002B0FD14F4B4FF000021A604E4B22
:1092C0004FF000021A604D4B4FF000021A604C4BF9
:1092D0004FF000021A60464B01221A7097ED057A92
:1092E000D7ED047A77EE677A424BC3ED007A414BB3
:1092F00093ED007AD7ED037A27EE277A3E4BD3ED34
:10930000007A77EE277A3C4BC3ED007A394B93ED28
:10931000007A3B4BD3ED007A77EE676A97ED037ADC
:10932000C6EE877A354BC3ED007A324B1B68344A60
:109330001360304B93ED007AD7ED027A27EE277A4F
:109340002D4BD3ED006AD7ED017A66EEA77A37EEA2
:10935000277A2A4BD3ED006AD7ED007A66EEA77A1A
:1093600077EE277A17EE900AFFF726F803460C46A9
:1093700044EC103B0BF0B4FF54EC103B1846214674
:10938000FFF722FB03461AB21E4B1A80194B93EDCE
:10939000007AD7ED027A27EE277A174BD3ED006AD1
:1093A000D7ED017A66EEA77A37EE277A134BD3ED25
:1093B000006AD7ED007A66EEA77A77EE277A17EE85
:1093C000900AFEF7F9FF03460C4644EC103B0BF005
:1093D00087FF54EC103B18462146FFF7F5FA034689
:1093E0001AB2094B1A8000BF1C37BD4690BD00BFA2
:1093F0007C020020B0020020B4020020B80200204D
:10940000BC020020F0430020E843002090B587B064
:1094100000AF87ED050AC7ED040A87ED031AC7ED13
:10942000021A87ED012AC7ED002A394B1B78002B61
:109430000FD1384B4FF000021A60374B4FF000024B
:109440001A60364B4FF000021A60354B4FF00002A5
:109450001A602F4B01221A7097ED057AD7ED047A26
:1094600077EE677A2B4BC3ED007A2A4B93ED007AA7
:10947000D7ED037A27EE277A274BD3ED007A77EEE4
:10948000277A254BC3ED007A224B93ED007A244BCB
:10949000D3ED007A77EE676A97ED037AC6EE877AA6
:1094A0001E4BC3ED007A1B4B1B681D4A1360194B02
:1094B00093ED007AD7ED027A27EE277A164BD3ED9B
:1094C000006AD7ED017A66EEA77A37EE277A134B5A
:1094D000D3ED006AD7ED007A66EEA77A77EE277AA9
:1094E00017EE900AFEF768FF03460C4644EC103B6B
:1094F0000BF0F6FE54EC103B18462146FFF764FAD9
:1095000003461AB2074B1A8000BF1C37BD4690BDF8
:109510007C020020C0020020C4020020C8020020FB
:10952000CC020020E043002090B587B000AF87ED6B
:10953000050AC7ED040A87ED031AC7ED021A87ED85
:10954000012AC7ED002A394B1B78002B0FD1384B6D
:109550004FF000021A60374B4FF000021A60364B92
:109560004FF000021A60354B4FF000021A602F4B8B
:1095700001221A7097ED057AD7ED047A77EE677AB3
:109580002B4BC3ED007A2A4B93ED007AD7ED037A8B
:1095900027EE277A274BD3ED007A77EE277A254BF3
:1095A000C3ED007A224B93ED007A244BD3ED007A81
:1095B00077EE676A97ED037AC6EE877A1E4BC3EDA6
:1095C000007A1B4B1B681D4A1360194B93ED007A00
:1095D000D7ED027A27EE277A164BD3ED006AD7ED46
:1095E000017A66EEA77A37EE277A134BD3ED006A3D
:1095F000D7ED007A66EEA77A77EE277A17EE900A13
:10960000FEF7DAFE03460C4644EC103B0BF068FE16
:1096100054EC103B18462146FFF7D6F903461AB220
:10962000074B1A8000BF1C37BD4690BD7C0200204E
:10963000D0020020D4020020D8020020DC0200204A
:109640000244002090B587B000AF87ED050AC7ED52
:10965000040A87ED031AC7ED021A87ED012A6F4B42
:109660001B78002B1FD16E4B4FF000021A606D4B20
:109670004FF000021A606C4B4FF000021A606B4B07
:109680004FF000021A606A4B4FF000021A60694BFB
:109690004FF000021A60684B4FF000021A60674BEF
:1096A0004FF000021A605D4B01221A70644BD3ED3B
:1096B000007A97ED057A77EE677A594BC3ED007A19
:1096C000D7ED057AB1EE677A5E4BD3ED007A77EE8F
:1096D000677A544BC3ED007A514B93ED007AD7ED86
:1096E000047A27EE277A504BD3ED007A77EE277A6B
:1096F0004D4BC3ED007A4B4B93ED007AD7ED047AD6
:1097000027EE277A494BD3ED007A77EE277A474B3D
:10971000C3ED007A424B93ED007A474BD3ED007ACC
:1097200077EE676A97ED047AC6EE877A404BC3ED11
:10973000007A3C4B93ED007A404BD3ED007A77EE04
:10974000676A97ED047AC6EE877A3A4BC3ED007AE2
:10975000334B1B68384A1360324B1B68374A13601F
:109760002F4B93ED007AD7ED037A27EE277A2E4B15
:10977000D3ED006AD7ED027A66EEA77A37EE277A44
:109780002B4BD3ED006AD7ED017A66EEA77A77EE20
:10979000277A17EE900AFEF70FFE03460C4644ECBC
:1097A000103B0BF09DFD54EC103B18462146FFF793
:1097B0000BF903461AB2244B1A801A4B93ED007A28
:1097C000D7ED037A27EE277A184BD3ED006AD7ED51
:1097D000027A66EEA77A37EE277A164BD3ED006A47
:1097E000D7ED017A66EEA77A77EE277A17EE900A20
:1097F000FEF7E2FD03460C4644EC103B0BF070FD17
:1098000054EC103B18462146FFF7DEF803461AB227
:109810000E4B1A8000BF1C37BD4690BD7C02002055
:10982000E0020020E4020020E8020020EC02002018
:10983000F0020020F4020020F8020020FC020020C8
:1098400008440020FC430020FA430020F843002095
:1098500090B585B000AF87ED030AC7ED020A87ED2A
:10986000011AC7ED001A534B1B78002B0FD1524B36
:109870004FF000021A60514B4FF000021A60504B3B
:109880004FF000021A604F4B4FF000021A60494B34
:1098900001221A704C4B93ED007A4C4BD3ED007AB9
:1098A00077EE677A444BC3ED007A434B93ED007A31
:1098B000D7ED037A27EE277A404BD3ED007A77EE87
:1098C000277A3E4BC3ED007A3B4B93ED007A3D4B3C
:1098D000D3ED007A77EE676A97ED037AC6EE877A62
:1098E000374BC3ED007A344B1B68364A1360324B5A
:1098F00093ED007AD7ED027A27EE277A2F4BD3ED3E
:10990000006AD7ED017A66EEA77A37EE277A2C4BFC
:10991000D3ED006AD7ED007A66EEA77A77EE277A64
:1099200017EE900AFEF748FD03460C4644EC103B48
:109930000BF0D6FC54EC103B18462146FFF744F8D8
:1099400003461AB2224B1A801B4B93ED007AD7EDD7
:10995000027A27EE277A194BD3ED006AD7ED017A08
:1099600066EEA77A37EE277A154BD3ED006AD7ED6E
:10997000007A66EEA77A77EE277A17EE900AFEF75E
:109980001BFD03460C4644EC103B0BF0A9FC54ECC9
:10999000103B18462146FFF717F803461BB29BB24F
:1099A0005B429BB21AB20B4B1A8000BF1437BD4604
:1099B00090BD00BF7C0200200003002004030020B3
:1099C000080300200C030020FC4300200844002072
:1099D000EC430020DE43002080B584B000AF034696
:1099E000FB71FB7963F07F03DBB2FB730022042180
:1099F0000D4808F0A5FA07F10F01642301220B4876
:109A000008F07EFF07F10E0164230122074809F0E8
:109A1000ABF801220421044808F092FABB7B1846F7
:109A20001037BD4680BD00BF000C024094DC012011
:109A300080B584B000AF03460A46FB711346BB7184
:109A4000FB7903F07F03DBB2FB73002204210C4897
:109A500008F076FA07F10F0164230122094808F0A3
:109A60004FFFB91D64230122064808F049FF012277
:109A70000421034808F064FA00BF1037BD4680BDDA
:109A8000000C024094DC012080B582B000AF0020C1
:109A9000FFF7A2FF0346BB71BB79E02B19D101236D
:109AA000FB7101210620FFF7C3FF10210320FFF700
:109AB000BFFF20217F20FFF7BBFF17210120FFF709
:109AC000B7FF06211420FFF7B3FF00217F20FFF727
:109AD000AFFFFB7918460837BD4680BD98B500AF8B
:109AE0003320FFF779FF03461B021CB23420FFF737
:109AF00073FF03461BB223431AB2114B1A80352061
:109B0000FFF76AFF03461B021CB23620FFF764FF13
:109B100003461BB223431AB20A4B1A803720FFF7C1
:109B20005BFF03461B021CB23820FFF755FF0346BC
:109B30001BB223431AB2044B1A8000BF98BD00BF6A
:109B400016440020144400200E44002098B500AFB5
:109B50002D20FFF741FF03461B021CB22E20FFF70A
:109B60003BFF03461BB223431AB2114B1A802F202E
:109B7000FFF732FF03461B021CB23020FFF72CFF19
:109B800003461BB223431AB20A4B1A803120FFF757
:109B900023FF03461B021CB23220FFF71DFF0346C2
:109BA0001BB223431AB2044B1A8000BF98BD00BFFA
:109BB00012440020184400201044002080B582B0D8
:109BC00000AF7860391D4FF6FF73012203480AF099
:109BD00027FF7B6818460837BD4680BD3CDD012065
:109BE00090B585B000AF87ED030AB860C7ED010AF4
:109BF0003960D7ED037A9FED1B7A67EE877A17EE0F
:109C0000900AFEF7D9FB03460C4644EC103B0BF0E0
:109C100067FB54EC103B18462146FEF7D5FE034681
:109C20001AB2BB681A80D7ED017A9FED0E7A67EE03
:109C3000877A17EE900AFEF7BFFB03460C4644EC0A
:109C4000103B0BF04DFB54EC103B18462146FEF741
:109C5000BBFE03461AB23B681A8000BF1437BD46EC
:109C600090BD00BF00C00D4480B400AF284B00225F
:109C70001A80274BB3F90020264B1A80254BB3F9E5
:109C80000020254B1A80244BB3F90020234B1A8067
:109C9000224BB3F90020224B1A80214BB3F900204C
:109CA000204B1A801F4BB3F900201F4B1A801E4B0C
:109CB000B3F900201D4B1A801D4B00221A801C4B4B
:109CC000B3F900201B4B1A801A4BB3F900201A4B32
:109CD0001A80194BB3F90020184B1A80174BB3F9AF
:109CE0000020174B1A80164BB3F90020154B1A8031
:109CF000144BB3F90020144B1A80134BB3F9002016
:109D0000124B1A8000BFBD465DF8047B704700BF50
:109D100002440020DE430020F2430020F8430020EC
:109D2000DC430020EA43002000440020E8430020F8
:109D3000E0430020EC430020F6430020FA430020DB
:109D4000F44300200C440020EE430020F0430020A8
:109D500098B500AF194B93F90430002B03F00103C1
:109D6000B8BF5B425BB2012B25D0154BD3E9000194
:109D70004FF00002134BFEF7C1F903460C46104AA0
:109D8000C2E900340E4BD3E900014FF000020E4B44
:109D9000FEF7D2FD0346002B00D10CE00B4BD3E9BC
:109DA00000014FF00002074BFEF7A8F903460C46EE
:109DB000064AC2E9003400BF98BD00BF740000200D
:109DC000400300200000F03F00408F403803002097
:109DD000B0B400AF354B00221A605EE0344B002275
:109DE0001A6051E0314B1968314B1A68314C8B00C5
:109DF000981814F81030022565F3871304F8103012
:109E00002A4B1C682A4B18682A4D8B00134415F8FE
:109E10001330C3F38113DDB22649A3001A1811F8D9
:109E2000123065F3051301F81230204B1968204BEE
:109E30001A68204DA300034415F81330C3F301132F
:109E4000DDB21C4C8B00981814F8103065F38303B6
:109E500004F81030154B1C68154B1B681548890019
:109E60000A4410F81220C2F38102D0B21149A200B4
:109E70001A4411F8123060F3010301F812300C4B50
:109E80001B6801330A4A1360094B1B68032BA9DDC9
:109E9000064B1B680133054A1360044B1B68032BF8
:109EA0009CDD00BFBD46B0BC704700BF68430020CA
:109EB0006C43002038E6012080B400AF4B4B0322F6
:109EC0001A605DE04A4B00221A6050E0484B1A6865
:109ED000464B1B6847499200134411F81330C3F3F3
:109EE0000103DAB2444B1B681146444AD154404B3B
:109EF0001A683E4B1B683F499200134411F8133017
:109F0000C3F38103DAB23C4B1B68013311463B4A71
:109F1000D154374B1A68354B1B68364992001344AD
:109F200011F81330C3F30113DAB2334B1B68023359
:109F30001146324AD1542E4B1A682C4B1B682D49BE
:109F40009200134411F81330C3F38113DAB22A4B91
:109F50001B6803331146294AD154274B1B6804332D
:109F6000254A1360224B1B680133214A1360204BA2
:109F70001B68032BAADD1D4B1B68013B1B4A1360AA
:109F80001A4B1B68002B9DDA184B03221A6023E042
:109F9000174B00221A6016E0154B1968134B1A680C
:109FA000154B1B681648890001440A441178134A6E
:109FB000D154114B1B6801330F4A13600C4B1B68C3
:109FC00001330B4A13600A4B1B68032BE4DD074B7C
:109FD0001B68013B054A1360044B1B68002BD7DA52
:109FE00000BFBD465DF8047B704700BF7043002092
:109FF0007443002038E601207843002068030020E5
:10A00000C8E1012080B500AF3F4B00221A6041E05B
:10A010003E4B00221A6031E03D4B1B683D4AD35C49
:10A0200019463D480BF040FE394B1B68013303F0E5
:10A030000F03002B0ED0364B1B680133032B09DDB9
:10A04000334B1B68013303F00303002B02D1334869
:10A050000BF02AFE2E4B1B68013303F00F03002B7D
:10A0600002D12F480BF094FE294B1B680133284A7C
:10A070001360264B1B680133244A1360234B1B6873
:10A080000F2BC9DD26480BF083FE1F4B1B680133E5
:10A090001D4A13601C4B1B68032BB9DD20480BF0D5
:10A0A00077FE1F480BF074FE174B00221A6024E065
:10A0B000164B00221A6011E0154B1B68154AD35C41
:10A0C000194618480BF0F0FD114B1B680133104A7C
:10A0D00013600E4B1B6801330C4A13600B4B1B685B
:10A0E000032BE9DD0E480BF053FE0D480BF050FE3C
:10A0F000054B1B680133044A1360034B1B68032B99
:10A10000D6DD00BF80BD00BF7C430020804300201F
:10A110008443002068030020087B01080C7B0108B1
:10A12000107B0108147B010880B588B000AF07F0F0
:10A13000D3FA0023BB6001233B610223BB610123EF
:10A140007B613A1D07F108031146184607F024FC0D
:10A150000346FB7707F0E2FAFB7F002B05D17B6813
:10A16000B3F1FF3F01D1012300E0002303F001031D
:10A17000DBB218462037BD4680BD000080B500AF79
:10A18000054A064B104619464FF480431A460BF019
:10A190001BF9014B184680BD6803002000400008F1
:10A1A00090B585B000AFFFF7BFFF034683F0010312
:10A1B000DBB2002B01D000232FE01A4B7B6007F0AD
:10A1C0008BFA4FF480533B600023BB6017E0BB6801
:10A1D0009B00154A9918BB689B007A6813441B685A
:10A1E0004FF000041A462346022007F06DF903469B
:10A1F000FB73FB7B002B07D1BB680133BB60BA68E4
:10A200003B689A42E3D300E000BF07F087FAFB7B8C
:10A21000002B0CBF01230023DBB218461437BD46C8
:10A2200090BD00BF680300200040000880B500AF6B
:10A230000021044809F004F9002102480AF0D1F98C
:10A2400000BF80BD2844002080B500AF0021044835
:10A2500009F07AF9002102480AF018FA00BF80BD1F
:10A260002844002080B500AF03220A490A4806F0BE
:10A2700037F80346002B01D005F008F90222074900
:10A28000074806F02DF80346002B01D005F0FEF834
:10A2900000BF80BD50030020F0DC012058030020E7
:10A2A000AC44002080B500AF084806F00BF9034627
:10A2B000002B01D005F0EAF8054806F003F9034643
:10A2C000002B01D005F0E2F800BF80BDF0DC0120DA
:10A2D000AC44002080B500AF3C21044809F02CFBC1
:10A2E0003C21034809F028FB00BF80BD50DC012061
:10A2F0006C44002080B500AF0C21094809F0F4F946
:10A300000346002B01D005F0C1F80421054809F0EF
:10A31000EBF90346002B01D005F0B8F800BF80BD73
:10A3200058E601200CDC012080B500AF0C21094863
:10A3300009F018FA0346002B01D005F0A7F8042114
:10A34000054809F00FFA0346002B01D005F09EF8EE
:10A3500000BF80BD58E601200CDC012080B500AFB5
:10A36000FFF764FFFFF77EFFFFF78EFBFFF7C2FFEB
:10A3700000BF80BD00000000B0B500AFFFF7AEFB2E
:10A38000FFF7E4FB544B1B881BB21846FEF702F89C
:10A390004FF000024FF08043FDF7B0FE03460C463D
:10A3A0001846214646A3D3E90023FEF787F9034662
:10A3B0000C461846214644A3D3E90023FEF754F87F
:10A3C00003460C46184621464FF00002434BFEF769
:10A3D00075F903460C46424AC2E90034414BD3E9C1
:10A3E00000013F4BD3E900341A462346FDF786FEB1
:10A3F00003460C461846214635A3D3E90023FEF751
:10A4000033F803460C46184621464FF000024FF041
:10A410008043FEF753F903460C4618462146324B5B
:10A42000D3E900341A462346FDF768FE03460C467E
:10A430002D4AC2E900342C4BD3E900452B4BD3E91C
:10A44000000121A3D3E90023FEF70EF802460B46D4
:10A45000104619464FF00002204BFEF72FF9024636
:10A460000B4620462946FDF747FE03460C461E4A8A
:10A47000C2E900341A4BD3E900341A4AC2E9003465
:10A48000194BD3E900014FF00002144BFDF7ECFF2C
:10A4900003460C46184621460BA3D3E90023FEF7DA
:10A4A0000DF903460C46124AC2E900340C4BD3E9BD
:10A4B000003444EC173BB0EE470AF0EE670AB0BD3B
:10A4C0006666666666663040182D4454FB21094076
:10A4D000FCA9F1D24D62503F0E440020008066403E
:10A4E000884300209043002028030020180000200B
:10A4F00020030020B0B58CB000AF87ED0A0B87EDCC
:10A50000081B87ED062B87ED043B87ED024B87ED9B
:10A51000005B744B9B7903F00103DBB2002B1BD172
:10A52000714A4FF000034FF00004C2E900346F4A53
:10A530004FF000034FF00004C2E900346C4A4FF0C2
:10A5400000034FF00004C2E900346A4A4FF00003F0
:10A550004FF00004C2E90034624A937943F00103EA
:10A560009371D7E90823D7E90A01FDF7C5FD034632
:10A570000C465D4AC2E900345B4BD3E90001D7E9E0
:10A580000623FDF771FF03460C4618462146574B3C
:10A59000D3E900341A462346FDF7B0FD03460C46C6
:10A5A000524AC2E90034504BD3E90001514BD3E980
:10A5B00000341A462346FDF79FFD03460C46184615
:10A5C0002146D7E90623FEF779F803460C46484AA8
:10A5D000C2E90034444BD3E90034464AC2E90034AE
:10A5E000414BD3E90001D7E90423FDF73DFF0346C2
:10A5F0000C4625461C463D4BD3E90001D7E9022312
:10A60000FDF732FF02460B4620462946FDF776FD50
:10A6100003460C4625461C46354BD3E90001D7E9D5
:10A620000023FDF721FF02460B4620462946FDF791
:10A6300065FD03460C4644EC173BB0EE470AF0EECE
:10A64000670A0AF04DFE54EC103B18462146FEF70F
:10A65000BBF903461BB29BB25B429BB21AB2264BBC
:10A660001A80214BD3E90001D7E90423FDF7FCFE52
:10A6700003460C4625461C461C4BD3E90001D7E98E
:10A680000223FDF7F1FE02460B4620462946FDF760
:10A6900035FD03460C4625461C46154BD3E9000103
:10A6A000D7E90023FDF7E0FE02460B462046294687
:10A6B000FDF724FD03460C4644EC173BB0EE470A79
:10A6C000F0EE670A0AF00CFE54EC103B18462146E7
:10A6D000FEF77AF903461AB2084B1A8000BF3037EA
:10A6E000BD46B0BD7400002098430020A043002068
:10A6F000A8430020B0430020F2430020F64300208E
:10A7000080B500AF5A4B93F90030072B00F2AC80B4
:10A7100001A252F823F000BF39A700085FA7000884
:10A7200085A70008ABA70008D1A70008F7A7000875
:10A730001DA8000843A8000800224FF400714D48EE
:10A7400007F0FEFB00224FF480714A4807F0F8FB47
:10A7500000224FF40071484807F0F2FB85E0012227
:10A760004FF40071434807F0EBFB00224FF4807177
:10A77000404807F0E5FB00224FF400713E4807F027
:10A78000DFFB72E000224FF400713A4807F0D8FB7B
:10A7900001224FF48071374807F0D2FB00224FF4BA
:10A7A0000071354807F0CCFB5FE001224FF40071E7
:10A7B000304807F0C5FB01224FF480712D4807F0A7
:10A7C000BFFB00224FF400712B4807F0B9FB4CE0AF
:10A7D00000224FF40071274807F0B2FB00224FF42B
:10A7E0008071244807F0ACFB01224FF4007122482D
:10A7F00007F0A6FB39E001224FF400711D4807F075
:10A800009FFB00224FF480711A4807F099FB012248
:10A810004FF40071184807F093FB26E000224FF434
:10A820000071144807F08CFB01224FF4807111482D
:10A8300007F086FB01224FF400710F4807F080FB00
:10A8400013E001224FF400710A4807F079FB01225E
:10A850004FF48071074807F073FB01224FF4007139
:10A86000054807F06DFB00E000BF00BF80BD00BFE2
:10A8700074000020000802400004024080B582B04D
:10A8800000AF03460A46FB801346BB80B7F906308B
:10A89000002B05DD012204211A4807F051FB0CE0D2
:10A8A000B7F90630002B08DA00220421154807F01A
:10A8B00047FBFB885B429BB2FB80B7F90430002B5F
:10A8C00005DD002201210F4807F03AFB0CE0B7F943
:10A8D0000430002B08DA012201210A4807F030FB7E
:10A8E000BB885B429BB2BB80074B1B68B7F9062055
:10A8F0001A64064B1B68B7F904209A6300BF083737
:10A90000BD4680BD0000024058E601200CDC01205D
:10A9100080B400AF804B1B881AB2804B1A807E4BEC
:10A920005B881AB27E4B1A807E4B1B881AB27E4B14
:10A930001A807C4B5B881AB27C4B1A807C4BB3F933
:10A9400000301A46754BB3F90030D31A002BB8BF4C
:10A950005B421AB2774B1A80774BB3F900301A4634
:10A960006F4BB3F90030D31A002BB8BF5B421AB259
:10A97000724B1A80724BB3F900301A466A4BB3F926
:10A980000030D31A002BB8BF5B421AB26D4B1A804D
:10A990006D4BB3F900301A46644BB3F90030D31A4B
:10A9A000002BB8BF5B421AB2684B1A805B4BB3F9FD
:10A9B00000205F4B1A805A4BB3F900205E4B1A807F
:10A9C000594BB3F900205E4B1A80584BB3F9002065
:10A9D0005D4B1A80504B9B8807EE903AF8EE677AF1
:10A9E0005B4BC3ED007A5B4BB3F900309AB2514B2D
:10A9F000B3F900309BB213449BB21AB2554B1A8084
:10AA0000554BB3F900309AB24C4BB3F900309BB2BE
:10AA100013449BB21AB2504B1A80504BB3F900301A
:10AA20009AB2484BB3F900309BB213449BB21AB2AE
:10AA30004A4B1A804A4BB3F900309AB2434BB3F9F0
:10AA400000309BB213449BB21AB2454B1A80454B5F
:10AA50001B680133434A1360424B1B680A2B56D1D3
:10AA60003C4BB3F9003007EE903AF8EEE76A3D4B05
:10AA70001B6807EE903AB8EEE77AC6EE877A3A4B53
:10AA8000C3ED007A344BB3F9003007EE903AF8EE9C
:10AA9000E76A344B1B6807EE903AB8EEE77AC6EEE9
:10AAA000877A324BC3ED007A2C4BB3F9003007EEB6
:10AAB000903AF8EEE76A2B4B1B6807EE903AB8EE37
:10AAC000E77AC6EE877A2A4BC3ED007A244BB3F9B6
:10AAD000003007EE903AF8EEE76A224B1B6807EE6B
:10AAE000903AB8EEE77AC6EE877A224BC3ED007A49
:10AAF000184B00221A80184B00221A80174B002294
:10AB00001A80174B00221A80164B00221A6000BFD1
:10AB1000BD465DF8047B704750030020F4440020DC
:10AB200028000020580300205E0300209AE6012040
:10AB3000F8440020F6440020620300206403002053
:10AB40006003002066030020204400204CDC01202C
:10AB500014E7012006DC012038DD0120ECDC0120B7
:10AB600090DC0120B843002000E7012030E60120FE
:10AB70002444002008DC012080B487B000AF87EDBA
:10AB8000010AC7ED000A0F4B7B614FF08E433B611A
:10AB9000D7ED056AD7ED047A86EEA77AD7ED017A6C
:10ABA00067EE276A97ED007AC6EE877AC7ED037ADB
:10ABB000FB6807EE903AB0EE670A1C37BD465DF8B9
:10ABC000047B70470E1F824280B400AF064B47F2F1
:10ABD0002F525A62054B47F22F525A6200BFBD46B0
:10ABE0005DF8047B704700BF00040040000800408F
:10ABF00080B483B000AF0346FB80B7F90630002B6A
:10AC000002D10023FB8030E0B7F90630012B2CD1B4
:10AC10001A4B5A68194B1B681344184A5360184B57
:10AC20005A68174B1B681344154A5360134B5A68F4
:10AC3000134B5B68134407EE903AB8EEE77AF0EEF8
:10AC4000006AC7EE267AFDEEE77A17EE902A0D4BE2
:10AC50005A600A4B1A680A4B1B681A440A4B1B6855
:10AC60001344094A13600123FB80B7F906301846E4
:10AC70000C37BD465DF8047B704700BF50000020D4
:10AC80005C00002068000020480300200000000055
:10AC900080B500AF224B00221A70FEF7E5FF214B72
:10ACA00004225A71204B00225A60204B00225A6025
:10ACB0001F4B00225A601B4B0122DA7002E0194B35
:10ACC00001225A70184B5A68184B5B681344002BCA
:10ACD0000FDB154B5A68154B5B6813441846FDF79C
:10ACE00059FB0DA3D3E90023FDF730FE0346002BEB
:10ACF000E5D10C4B00225A700E4B0F4A1A600A4BDA
:10AD000000225A60094B00225A60094B00225A6007
:10AD100000BF80BDAFF30080C8BD6EFC245FEE4075
:10AD20007C02002074000020500000205C00002005
:10AD3000680000201003002000000743000000000E
:10AD400080B500AF4A4B00221A70FEF78DFF494BC9
:10AD500004225A71484B00225A60484B00225A6024
:10AD6000474B00225A60434B0122DA704DE0414BC1
:10AD700002225A70404B5A68404B5B681344184695
:10AD8000FDF708FB36A3D3E90023FDF7FDFD0346DD
:10AD9000002B37D03B4BD3ED007A9FED3B7AF4EE9E
:10ADA000C77AF1EE10FA0DDD384BD3ED007A9FED46
:10ADB000387AF4EEC77AF1EE10FA03DD2D4B00225B
:10ADC0005A7122E0314BD3ED007A9FED317AF4EEE7
:10ADD000C77AF1EE10FA03DD264B01225A7114E016
:10ADE000284BD3ED007A9FED287AF4EEC77AF1EE86
:10ADF00010FA03DD1F4B02225A7106E01D4B04229C
:10AE00005A7102E01B4B04225A711B4B5A681B4BB0
:10AE10005B681344002B0FDB174B5A68174B5B68BA
:10AE200013441846FDF7B6FA0FA3D3E90023FDF744
:10AE30008DFD0346002B9AD10E4B00225A70154B04
:10AE4000154A1A600C4B00225A600C4B00225A60C3
:10AE50000B4B00225A6000BF80BD00BFAFF30080E3
:10AE600066AE04DEA997D840F59C6AE11822E64058
:10AE70007C02002074000020500000205C000020B4
:10AE80006800002030E601200000C8422444002071
:10AE900000000C43100300200000074300000000E6
:10AEA00080B500AF484B04225A714DE0464B032257
:10AEB0005A70464B5A68464B5B6813441846FDF778
:10AEC00069FA3DA3D3E90023FDF740FD0346002BBB
:10AED00037D0404BD3ED007A9FED3F7AF4EEC77A3E
:10AEE000F1EE10FA0DDD3D4BD3ED007A9FED3C7A8B
:10AEF000F4EEC77AF1EE10FA03DD334B00225A71FB
:10AF000022E0364BD3ED007A9FED357AF4EEC77A26
:10AF1000F1EE10FA03DD2C4B01225A7114E02D4B97
:10AF2000D3ED007A9FED2C7AF4EEC77AF1EE10FAA9
:10AF300003DD254B02225A7106E0234B04225A718D
:10AF400002E0214B04225A71204B5A68204B5B6867
:10AF500013441846FDF71EFA19A3D3E90023FDF7A1
:10AF6000F5FC0346002B12D01E4B93ED007A1E4BCE
:10AF7000D3ED007A37EE277AF0EE006AC7EE267A34
:10AF80009FED1A7AF4EEC77AF1EE10FA8ED40E4BDA
:10AF900000225A700C4B05225A71154B4FF00002DB
:10AFA0001A60094B0022DA70124B00221A70FEF769
:10AFB0005BFE00BF80BD00BF88AF6B95D3B2E3409E
:10AFC000F59C6AE11822E640740000205000002041
:10AFD0005C00002030E601200000C842244400202C
:10AFE00000000C4300E7012008DC0120006006455A
:10AFF000100300207C020020B0B500AF7EE0544B6F
:10B000005A68544B5B6813441846FDF7C3F904466D
:10B010000D46514BD3ED007A77EEA77A17EE900AE2
:10B02000FDF7CAF946A3D3E90023FDF71DFA02464E
:10B030000B4620462946FDF789FC0346002B22D10A
:10B04000454BD3ED007A77EEA77A17EE900AFDF71D
:10B05000B3F93DA3D3E90023FDF74EF803460C46B0
:10B0600025461C463A4B5A683A4B5B6813441846CF
:10B07000FDF790F902460B4620462946FDF766FC8F
:10B080000346002B37D0354BD3ED007A9FED347A51
:10B09000F4EEC77AF1EE10FA0DDD324BD3ED007A03
:10B0A0009FED317AF4EEC77AF1EE10FA03DD2F4B03
:10B0B00000225A711EE02B4BD3ED007A9FED2A7AC5
:10B0C000F4EEC77AF1EE10FA03DD284B01225A7133
:10B0D00014E0224BD3ED007A9FED217AF4EEC77A8B
:10B0E000F1EE10FA03DD214B02225A7106E01F4BEC
:10B0F00004225A7102E01D4B04225A71144B5A6803
:10B10000144B5B68134407EE903AB8EEE77A124BA3
:10B11000D3ED007A77EEA77AB4EEE77AF1EE10FA83
:10B120003FF56DAF0A4B00225A600A4B00225A606D
:10B130000F4B00225A6000BFB0BD00BFAFF30080CC
:10B14000CDCCCCCCCCCCDC3F46D138D7CB82DD408B
:10B15000500000205C0000200000002030E60120AC
:10B160000000C8422444002000000C43740000206A
:10B170006800002080B485B000AF87ED030AC7EDFA
:10B18000020A87ED011AC7ED001A97ED017AF1EE78
:10B19000046AC7EE267A97ED007AB4EEE77AF1EE0C
:10B1A00010FA0DD5D7ED027ADFED2F6A87EEA67A79
:10B1B000D7ED037A77EE277A2C4BC3ED007A48E07F
:10B1C00097ED017AF1EE046AC7EE267A97ED007AE0
:10B1D000B4EEE77AF1EE10FA14DBD7ED017AB1EEB6
:10B1E000007A27EE877AF1EE046AC7EE267A97EDA9
:10B1F000007AB4EEE77AF1EE10FA03D81B4AFB6846
:10B20000136026E0D7ED017AB1EE007A27EE877A57
:10B21000F1EE046AC7EE267A97ED007AB4EEE77A8B
:10B22000F1EE10FA15DD97ED007AD7ED017AB4EE64
:10B23000E77AF1EE10FA0CD597ED027ADFED0A6AA3
:10B24000C7EE267A97ED037A77EE677A074BC3ED60
:10B25000007A064B1B6807EE903AB0EE670A143787
:10B26000BD465DF8047B704700B0B346BC43002088
:10B270002DE9B0432DED028B84B000AF034687ED7E
:10B28000000BFB73FFF736F897F90F30002B37DA16
:10B2900027E0474B93ED008B464B1B681846FDF7A4
:10B2A0008BF804460D46434B5B681846FDF784F85F
:10B2B000804689463F4B9B681846FDF77DF802465D
:10B2C0000B4643EC152B49EC148B45EC134B9FEDCF
:10B2D000362BB0EE481AF0EE681A97ED000BFFF728
:10B2E00009F997F90F301846FDF754F8324BD3E9B6
:10B2F00000341A462346FDF729FB0346002BC8D12C
:10B3000097F90F30002B37DD27E0294B93ED008BA9
:10B31000284B1B681846FDF74FF804460D46254B91
:10B320005B681846FDF748F880468946214B9B68C4
:10B330001846FDF741F802460B4643EC152B49EC45
:10B34000148B45EC134B9FED182BB0EE481AF0EE22
:10B35000681A97ED000BFFF7CDF897F90F301846F4
:10B36000FDF718F8144BD3E900341A462346FDF7CD
:10B370000BFB0346002BC8D1104B0022DA70104A99
:10B380004FF000034FF00004C2E900340A4A4FF0C6
:10B3900000034FF00004C2E9003400BF1037BD467F
:10B3A000BDEC028BBDE8B083FCA9F1D24D62503FE9
:10B3B00030030020440000202003002074000020FF
:10B3C0002803002080B582B000AF0023FB7178E035
:10B3D000424B4FF000021A60414B00221A70FEF7F8
:10B3E00043FC404B00225A603F4B00225A603F4BC7
:10B3F00000225A603E4B0122DA7032E03D4BD3ED21
:10B40000007A3D4B93ED007A364B5B6806EE903A3E
:10B41000F8EEE66AF0EE661AB0EE471ADFED370A8C
:10B42000B0EE670AFFF7A6FEF0EE407A314BC3EDAF
:10B43000007A304BD3ED007A314B93ED007A304BEC
:10B44000D3ED016A2E4B93ED026AB0EE462AF0EE80
:10B45000661AB0EE471ADFED2B0AB0EE670AFEF768
:10B46000F1F8204B5A68204B5B68D31A07EE903AEC
:10B47000B8EEE77A204BD3ED007A77EEA77AB4EEF8
:10B48000E77AF1EE10FAB9D9194B0022DA701E4BA7
:10B4900000221A801D4B00221A80104B4FF0000230
:10B4A0001A60144B4FF000021A600E4B00225A60D3
:10B4B0000D4B00225A600D4B00225A60FB7901337C
:10B4C000FB71FB79002B83D0054B00221A70FEF72D
:10B4D000CBFB00BF0837BD4680BD00BF1003002076
:10B4E0007C020020500000205C000020680000204A
:10B4F000740000201403002004000020000016C483
:10B50000380000206F12833AFA430020F8430020ED
:10B5100080B582B000AF0023FB7178E0424B4FF062
:10B5200000021A60414B00221A70FEF79DFB404B4F
:10B5300000225A603F4B00225A603F4B00225A6063
:10B540003E4B0122DA7032E03D4BD3ED007A3D4BA9
:10B5500093ED007A374B5B6806EE903AF8EEE66AB8
:10B56000F0EE661AB0EE471ADFED370AB0EE670A62
:10B57000FFF700FEF0EE407A314BC3ED007A304B1E
:10B58000D3ED007A314B93ED007A304BD3ED016A65
:10B590002E4B93ED026AB0EE462AF0EE661AB0EE3C
:10B5A000471ADFED2B0AB0EE670AFEF74BF8214B86
:10B5B0005A681F4B5B68D31A07EE903AB8EEE77AE9
:10B5C000204BD3ED007A77EEA77AB4EEE77AF1EE6E
:10B5D00010FAB9D9194B0022DA701E4B00221A80DA
:10B5E0001D4B00221A80104B4FF000021A60144BC2
:10B5F0004FF000021A600E4B00225A600D4B0022E1
:10B600005A600D4B00225A60FB790133FB71FB79C4
:10B61000002B83D0054B00221A70FEF725FB00BFDC
:10B620000837BD4680BD00BF100300207C0200200B
:10B63000500000205C000020680000207400002002
:10B6400014030020040000200000164438000020ED
:10B650006F12833AFA430020F843002000000000F4
:10B6600098B500AF504B06225A7102E04E4B0622AD
:10B670005A704E4B5A684E4B5B6813441846FCF7A1
:10B6800089FE3FA3D3E90023FDF760F90346002BB1
:10B69000ECD1454B00225A7021E0464B464A1A60D5
:10B6A000464B474A1A60454B1B681846FCF784FE18
:10B6B00035A3D3E90023FCF7D7FE03460C46184612
:10B6C000214633A3D3E90023FCF7F8FF03460C46D9
:10B6D00018462146FDF7A0F902463A4B1A60334B53
:10B6E0005A68334B5B6813441846FCF753FE24A397
:10B6F000D3E90023FDF73EF90346002B0FD02B4B77
:10B700005A682B4B5B6813441846FCF743FE22A390
:10B71000D3E90023FDF71AF90346002BBDD102E05F
:10B72000214B07225A70214B5A68214B5B68134406
:10B730001846FCF72FFE1AA3D3E90023FDF706F9FC
:10B740000346002BECD1184B00225A70164B0422F2
:10B750005A71164B00225A60154B00225A601A4B40
:10B7600000225A60154B4FF000021A60154B4FF043
:10B7700000021A600F4B104A1A6000BF98BD00BF4C
:10B7800039484F2382F0B7403333333333B34B4020
:10B790006666666666265F403F3A959A38C6EF4011
:10B7A000A3917F6F2462F1407400002050000020BC
:10B7B0005C00002010030020000007430444002028
:10B7C00066E63A43E44300206800002000000000E1
:10B7D00098B500AF504B06225A7102E04E4B04223E
:10B7E0005A704E4B5A684E4B5B6813441846FCF730
:10B7F000D1FD3FA3D3E90023FDF7A8F80346002BB2
:10B80000ECD1454B00225A7021E0464B464A1A6063
:10B81000464B474A1A60454B1B681846FCF7CCFD5F
:10B8200035A3D3E90023FCF71FFE03460C46184658
:10B83000214633A3D3E90023FCF740FF03460C461F
:10B8400018462146FDF7E8F802463A4B1A60334B9A
:10B850005A68334B5B6813441846FCF79BFD24A3DE
:10B86000D3E90023FDF786F80346002B0FD02B4BBE
:10B870005A682B4B5B6813441846FCF78BFD22A3D8
:10B88000D3E90023FDF762F80346002BBDD102E0A7
:10B89000214B05225A70214B5A68214B5B68134497
:10B8A0001846FCF777FD1AA3D3E90023FDF74EF8FD
:10B8B0000346002BECD1184B00225A70164B042281
:10B8C0005A71164B00225A60154B00225A601A4BCF
:10B8D00000225A60174B4FF000021A60134B4FF0D2
:10B8E00000021A600F4B104A1A6000BF98BD00BFDB
:10B8F00039484F2382F0B7403333333333B34B40AF
:10B900006666666666265F403F3A959A38C6EF409F
:10B91000A3917F6F2462F14074000020500000204A
:10B920005C0000201003002000000743E4430020D7
:10B9300066E63A430444002068000020000000004E
:10B9400080B500AF70E0564B5A68564B5B681344A5
:10B950001846FCF71FFD4AA3D3E90023FCF7F6FFC6
:10B960000346002B05D0504B04225A714F4B504ACE
:10B970001A604B4B5A684B4B5B6813441846FCF7F4
:10B9800009FD3FA3D3E90023FCF7F4FF0346002B96
:10B9900022D0434B5A68434B5B6813441846FCF76C
:10B9A000F9FC39A3D3E90023FCF7D0FF0346002BB1
:10B9B00012D03D4B06225A713C4B3D4A1A603D4B1A
:10B9C0003D4A1A603B4BD3ED007A9FED3C7A67EE1F
:10B9D000877A3B4BC3ED007A314B5A68314B5B6839
:10B9E00013441846FCF7D6FC27A3D3E90023FCF741
:10B9F000C1FF0346002B00D116E0294B5A68294BA2
:10BA00005B6813441846FCF7C5FC21A3D3E9002367
:10BA1000FCF79CFF0346002B00D105E0224B0422DB
:10BA20005A71224B224A1A601D4B5A681D4B5B68A3
:10BA300013441846FCF7AEFC17A3D3E90023FCF728
:10BA400085FF0346002B7FF47EAF174B04225A710B
:10BA5000134B00225A60134B00225A60194B0022EC
:10BA60005A60144B4FF000021A60154B4FF0000261
:10BA70001A600E4B0E4A1A6000BF80BDAFF3008003
:10BA80008DEF7F0E518FDA40089DBF0AAA92EB40DE
:10BA900068CAFF48296DF44067CAFF48296DF44021
:10BAA000500000205C0000207400002010030020E3
:10BAB000000007430444002000008743000000000A
:10BAC000E44300206800002080B500AF70E0564BD2
:10BAD0005A68564B5B6813441846FCF75BFC4AA354
:10BAE000D3E90023FCF732FF0346002B05D0504B6F
:10BAF00004225A714F4B504A1A604B4B5A684B4BB9
:10BB00005B6813441846FCF745FC3FA3D3E90023C8
:10BB1000FCF730FF0346002B22D0434B5A68434BBF
:10BB20005B6813441846FCF735FC39A3D3E90023BE
:10BB3000FCF70CFF0346002B12D03D4B06225A7136
:10BB40003C4B3D4A1A603D4B3D4A1A603B4BD3ED9E
:10BB5000007A9FED3C7A67EE877A3B4BC3ED007A23
:10BB6000314B5A68314B5B6813441846FCF712FCA2
:10BB700027A3D3E90023FCF7FDFE0346002B00D1E9
:10BB800016E0294B5A68294B5B6813441846FCF7AA
:10BB900001FC21A3D3E90023FCF7D8FE0346002BC8
:10BBA00000D105E0224B04225A71224B224A1A602E
:10BBB0001D4B5A681D4B5B6813441846FCF7EAFBA3
:10BBC00017A3D3E90023FCF7C1FE0346002B7FF443
:10BBD0007EAF174B04225A71134B00225A60134B4D
:10BBE00000225A60194B00225A60174B4FF0000296
:10BBF0001A60124B4FF000021A600E4B0E4A1A6088
:10BC000000BF80BDAFF300808DEF7F0E518FDA4013
:10BC1000089DBF0AAA92EB4068CAFF48296DF4400C
:10BC200067CAFF48296DF440500000205C000020E6
:10BC3000740000201003002000000743E4430020AC
:10BC4000000087430000000004440020680000203A
:10BC500080B582B000AF0023FB7189E04B4B4FF001
:10BC600000021A604A4B00221A70FDF7FDFF494B93
:10BC700000225A60484B00225A60484B00225A600A
:10BC8000474B0122DA7034E0464B93ED007A464B85
:10BC9000D3ED007A77EEA77A3E4B5B6806EE903ADA
:10BCA000F8EEE66AF0EE661AB0EE671ADFED3F0ACC
:10BCB000B0EE470AFFF75EFAF0EE407A394BC3ED7B
:10BCC000007A384BD3ED007A394B93ED007A384B3C
:10BCD000D3ED016A364B93ED026AB0EE462AF0EEE0
:10BCE000661AB0EE471ADFED330AB0EE670AFDF7C9
:10BCF000A9FC284B5B6807EE903AB8EEE77A2A4B2E
:10BD0000D3ED007A77EEA77AB4EEE77AF1EE10FA87
:10BD1000BAD9214B5B6807EE903AB8EEE77A224B2E
:10BD2000D3ED007AF1EE677A77EEA77AB4EEE77A90
:10BD3000F1EE10FAA8DA1A4B0022DA701E4B00223C
:10BD40001A801E4B00221A80104B4FF000021A601E
:10BD5000144B4FF000021A600E4B00225A600E4B3B
:10BD600000225A600D4B00225A60FB790133FB71AF
:10BD7000FB79002B3FF472AF054B00221A70FDF7E0
:10BD800073FF00BF0837BD4680BD00BF1003002011
:10BD90007C020020500000205C0000206800002091
:10BDA000740000201403002004000020000016C4CA
:10BDB000380000206F12833AFA430020F843002035
:10BDC00080B500AF264B00221A70FDF74DFF254BC2
:10BDD00004225A71244B00225A60244B00225A60DC
:10BDE000234B00225A601F4B0122DA7002E0214BE4
:10BDF000214A1A601C4B5A681C4B5B681344002B89
:10BE00000FDB194B5A68194B5B6813441846FCF753
:10BE1000C1FA11A3D3E90023FCF798FD0346002BD8
:10BE2000E5D1104B0022DA70124B4FF000021A607D
:10BE30000C4B05225A710C4B00225A600B4B00220E
:10BE40005A600B4B00225A60054B00221A70FDF716
:10BE50000BFF00BF80BD00BFA6410836187AD04056
:10BE60007C02002074000020500000205C000020B4
:10BE700068000020100300200000B4420000000011
:10BE800080B582B000AF2A4B00221A70FDF7ECFE9D
:10BE9000284B00225A60284B00225A60274B002270
:10BEA0005A60274B0122DA7005E0264B264A1A60B9
:10BEB000234B04225A711F4B5A681F4B5B68134473
:10BEC0001846FCF767FA18A3D3E90023FCF75CFDDA
:10BED0000346002BE9D11B4B4FF000021A60184BB0
:10BEE00005225A71164B0022DA70124B00225A605A
:10BEF000114B00225A60114B00225A600C4B002259
:10BF00001A70FDF7B1FE00237B6002E07B6801330D
:10BF10007B607B680D4A9342F8DD00BF0837BD4661
:10BF200080BD00BFAFF3008039E245CEEB75D1C0D4
:10BF30007C020020500000205C00002068000020EF
:10BF400074000020100300200000B4C27F1A060015
:10BF500080B500AFFFF734FFFFF734FAFFF790FF2B
:10BF6000FFF72EFFFFF7D4FAFFF78AFFFFF728FF4E
:10BF7000FFF7CEFAFFF784FFFFF722FFFFF722FA61
:10BF8000FFF77EFF00BF80BD80B582B000AF224BBF
:10BF90005B7A032B38D801A252F823F0ADBF00081A
:10BFA000E3BF0008E9BF0008EFBF0008FEF778FF15
:10BFB00000237B6002E07B6801337B607B68174A6B
:10BFC0009342F8DDFFF7FEF900233B6002E03B6897
:10BFD00001333B603B68114A9342F8DDFEF7B0FE47
:10BFE00012E0FFF73DFB0FE0FFF7AAFC0CE0FEF7C5
:10BFF00057FF9FED070B6FF05900FFF739F9FDF779
:10C0000043FDFEF79DFE00BF00BF0837BD4680BD63
:10C0100000000000000014C0740000209F86010092
:10C0200080B582B000AF224B5B7A032B37D801A2D8
:10C0300052F823F045C000087BC0000881C000080A
:10C0400087C00008FEF72CFF00237B6002E07B68BE
:10C0500001337B607B68174A9342F8DDFFF758FA9B
:10C0600000233B6002E03B6801333B603B68114AC0
:10C070009342F8DDFEF764FE11E0FFF7A9FB0EE046
:10C08000FFF722FD0BE0FEF70BFF9FED070B5A2099
:10C09000FFF7EEF8FDF7F8FCFEF752FE00BF00BF19
:10C0A0000837BD4680BD00BF0000000000001440FE
:10C0B000740000209F86010080B500AF4FF48051CE
:10C0C0005B4805F025FF0346012B40F0A38059484B
:10C0D00009F05EFEFEF728F9574807F050F9574877
:10C0E00007F04DF9FEF7B0F8FEF7DCF84FF4C87032
:10C0F00003F050FF524B93F90430DBB20133DBB253
:10C100005AB24F4B1A714E4B93F90430052B40F045
:10C1100081804B4B03221A717CE04A4B5B6A1A46C2
:10C12000494B1A60484B1B681946484809F0BCFD4A
:10C13000454B1B6849F22E5293421EDD404B93F94A
:10C140000030DBB20133DBB25AB23D4B1A703C4BCC
:10C1500093F90030072B02DD394B00221A70FEF7ED
:10C16000CFFAFEF731FD364B93F90020344B9A702D
:10C170004FF4FA7003F00EFF4CE0334B1B6845F2AE
:10C180002F5293421EDC2E4B93F90030DBB2013B61
:10C19000DBB25AB22A4B1A70294B93F90030002BAC
:10C1A00002DA274B07221A70FEF7AAFAFEF70CFDF7
:10C1B000234B93F90020224B9A704FF4FA7003F04E
:10C1C000E9FE27E04FF48051194805F0A1FE03462F
:10C1D000012B1FD11E4809F0DBFD4FF4FA7003F06C
:10C1E000D9FEFEF7BBF8174B47F22F525A62194B94
:10C1F00047F22F525A62114807F09DF80E4807F097
:10C200009AF80F4B93F90430DBB20133DBB25AB228
:10C210000B4B1A710A4B93F90430002B03F0010306
:10C22000B8BF5B425BB2012B3FF477AF00BF80BD6C
:10C2300000040240A47B010808E2012028440020F9
:10C24000740000200004004050000020B07B010872
:10C25000107B01080008004080B485B000AF0023C7
:10C26000FB600023BB6000237B6000233B60002356
:10C27000FB6013E00023BB600AE0934AFB689B006D
:10C280001A44BB6813440F221A70BB680133BB60A9
:10C29000BB68032BF1DDFB680133FB60FB68032BFC
:10C2A000E8DD0223FB6013E00023BB600AE0864A5E
:10C2B000FB689B001A44BB68134400221A70BB68D9
:10C2C0000133BB60BB68012BF1DDFB680133FB6010
:10C2D000FB68032BE8DD00237B600023FB60E2E0CA
:10C2E0000023BB60D8E0784AFB689B001A44BB6817
:10C2F00013441B781A463B68934240F0CA80734946
:10C30000FB689A00BB68134411F81330C3F30103B0
:10C31000DBB2012B25D0BB6801336B49FA68920070
:10C320000A4413441A786849FB689B001944BB68A7
:10C330000B441B789A4214D9BB68022B11DC624A69
:10C34000FB689B001A44BB6813441A78BB6801332E
:10C350000132D0B25C49FA6892000A4413440246A2
:10C360001A705A49FB689A00BB68134411F81330DD
:10C37000C3F38103DBB2012B25D0FB680133524AA2
:10C380009B001A44BB6813441A784F49FB689B0012
:10C390001944BB680B441B789A4214D9FB68022BE2
:10C3A00011DC494AFB689B001A44BB6813441A78A5
:10C3B000FB6801330132D1B2434A9B001A44BB6887
:10C3C00013440A461A704149FB689A00BB6813443B
:10C3D00011F81330C3F30113DBB2012B25D0BB6876
:10C3E000013B3949FA6892000A4413441A783649E5
:10C3F000FB689B001944BB680B441B789A4214D914
:10C40000BB68002B11DD304AFB689B001A44BB68F7
:10C4100013441A78BB68013B0132D0B22A49FA684A
:10C4200092000A44134402461A702849FB689A0095
:10C43000BB68134411F81330C3F38113DBB2012B33
:10C4400025D0FB68013B204A9B001A44BB6813447B
:10C450001A781D49FB689B001944BB680B441B7884
:10C460009A4214D9FB68002B11DD174AFB689B0028
:10C470001A44BB6813441A78FB68013B0132D1B2FD
:10C48000114A9B001A44BB6813440A461A700123E0
:10C490007B60BB680133BB60BB68032B7FF723AFB6
:10C4A000FB680133FB60FB68032B7FF719AF3B6828
:10C4B00001333B607B68002B7FF40DAF00BF143766
:10C4C000BD465DF8047B7047C8E1012038E60120D5
:10C4D00080B500AF4FF47A7003F05CFDFEF730FCDE
:10C4E000FEF78AFDFEF788FDFEF7DAFCFDF71CFF7C
:10C4F0000A4806F044FF0A4806F041FF094B1B6852
:10C500001946094809F0D0FB084B1B681946084832
:10C5100009F0CAFB074809F03BFCEFE708E20120FD
:10C52000284400204C030020B87B01084803002069
:10C53000D47B0108107B010890B482B000AF8B4B14
:10C5400093ED007A8A4BD3ED007A37EE277AF0EE3E
:10C55000006AC7EE267AB3EE0E7AF4EEC77AF1EEF1
:10C5600010FACCBF01230023DAB2824B1B7807F10B
:10C5700008010B4403F8042C7F4BD3ED007A9FEDA8
:10C580007F7AF4EEC77AF1EE10FACCBF01230023D4
:10C59000D9B2784B1B7801335A4203F0030302F0FF
:10C5A000030258BF53420A4607F108010B4403F83F
:10C5B000042C704B1B7802335A4203F0030302F041
:10C5C000030258BF534207F108021344002203F844
:10C5D000042C6B4BD3ED007A9FED6A7AF4EEC77AA8
:10C5E000F1EE10FACCBF01230023D9B2614B1B78C6
:10C5F00003335A4203F0030302F0030258BF5342CD
:10C600000A4607F108010B4403F8042C39795E4B04
:10C610001B781C465D4B1B781A460B4603F0030340
:10C62000D8B25B49A3001A4411F8123060F3010339
:10C6300001F812307979544B1B781C46534B1B7808
:10C640001A460B4603F00303D8B25149A3001A441B
:10C6500011F8123060F3830301F81230B9794A4BB4
:10C660001B781C46494B1B781A460B4603F0030304
:10C67000D8B24749A3001A4411F8123060F30513E9
:10C6800001F81230F979404B1B781C463F4B1B7860
:10C690001A460B4603F00303D8B23D49A3001A44DF
:10C6A00011F8123060F3871301F81230374B1B7802
:10C6B000022B12D83979344B1B781A46334B1B782E
:10C6C000013301F00301C8B2314992001A4411F854
:10C6D000123060F3051301F812302B4B1B78022B3C
:10C6E00011D87979284B1B780133284A127801F048
:10C6F0000301C8B226499B001A4411F8123060F3B6
:10C70000871301F81230214B1B78002B12D0B97916
:10C710001D4B1B781A461D4B1B78013B01F0030192
:10C72000C8B21B4992001A4411F8123060F3010399
:10C7300001F81230144B1B78002B11D0F979124BF1
:10C740001B78013B114A127801F00301C8B210496D
:10C750009B001A4411F8123060F3830301F8123081
:10C7600000BF0837BD4690BC704700BF00E70120FE
:10C7700008DC0120FA44002030E601200000C84215
:10C780002444002000000C435C0300205D030020D3
:10C7900038E6012080B588B000AFA54B1B78032B8D
:10C7A00000F21C8201A252F823F000BFBDC70008AE
:10C7B000BFC80008C1C90008DBCA00089D4B1B7830
:10C7C00018469D4B1B7819469C4A83000B4412F86F
:10C7D0001330C3F38113DBB2002B0BD1FFF720FC26
:10C7E000934B03221A70934B1B78013BDAB2914BA7
:10C7F0001A70F4E18F4B1B7818468F4B1B78194643
:10C800008E4A83000B4412F81330C3F30103DBB2EA
:10C81000002B0BD1FEF7F0FB854B00221A70864BE4
:10C820001B780133DAB2844B1A70D8E1814B1B7844
:10C830001846814B1B781946804A83000B4412F836
:10C840001330C3F38103DBB2002B0BD1FFF79CFB4A
:10C85000774B01221A70774B1B780133DAB2754B94
:10C860001A70BCE1FEF71CFB0023FB6102E0FB69D0
:10C870000133FB61FB69724A9342F8DD714B93F916
:10C880000230012B01D1FDF74FFDFFF7E1F9002345
:10C89000BB6102E0BB690133BB61BB69684A93427B
:10C8A000F8DDFFF7EDFAFEF7F3F9614B02221A709B
:10C8B000614B1B78013BDAB25F4B1A708FE15D4B25
:10C8C0001B7818465C4B1B7819465C4A83000B4466
:10C8D00012F81330C3F30103DBB2002B0BD1FFF7C7
:10C8E0009FFB534B00221A70534B1B780133DAB273
:10C8F000514B1A7073E14F4B1B7818464E4B1B7807
:10C9000019464E4A83000B4412F81330C3F38103D7
:10C91000DBB2002B0BD1FEF76FFB454B01221A70E7
:10C92000444B1B780133DAB2424B1A7057E1414B4A
:10C930001B781846404B1B781946404A83000B442D
:10C9400012F81330C3F30113DBB2002B0BD1FFF746
:10C950001BFB374B02221A70374B1B78013BDAB2B4
:10C96000354B1A703BE1FEF79BFA00237B6102E036
:10C970007B6901337B617B69314A9342F8DD314B3E
:10C9800093F90230012B01D1FDF7CEFCFFF760F9DE
:10C9900000233B6102E03B6901333B613B69284A6C
:10C9A0009342F8DDFFF76CFAFEF772F9204B032291
:10C9B0001A70204B1B78013BDAB21E4B1A700EE145
:10C9C0001C4B1B7818461C4B1B7819461B4A8300CE
:10C9D0000B4412F81330C3F38103DBB2002B0BD1ED
:10C9E000FFF71EFB124B01221A70124B1B7801330A
:10C9F000DAB2104B1A70F2E00E4B1B7818460E4B51
:10CA00001B7819460D4A83000B4412F81330C3F308
:10CA10000113DBB2002B17D1FEF7EEFA044B022212
:10CA20001A70054B1B78013BDAB2034B1A70D6E043
:10CA3000FA4400205C0300205D03002038E601205A
:10CA40009F86010074000020674B1B781846674BD7
:10CA50001B781946664A83000B4412F81330C3F35F
:10CA60008113DBB2002B0BD1FFF78EFA614B03224F
:10CA70001A705D4B1B78013BDAB25B4B1A70AEE06B
:10CA8000FEF70EFA0023FB6002E0FB680133FB6057
:10CA9000FB68594A9342F8DD584B93F90230012B59
:10CAA00001D1FDF741FCFFF7D3F80023BB6002E0A2
:10CAB000BB680133BB60BB684F4A9342F8DDFFF7A8
:10CAC000DFF9FEF7E5F84B4B00221A70474B1B7855
:10CAD0000133DAB2454B1A7081E0434B1B7818469C
:10CAE000424B1B781946424A83000B4412F813301C
:10CAF000C3F30113DBB2002B0BD1FFF791FA3D4BCF
:10CB000002221A70394B1B78013BDAB2374B1A708C
:10CB100065E0354B1B781846344B1B781946344A70
:10CB200083000B4412F81330C3F38113DBB2002BE4
:10CB30000BD1FEF761FA2F4B03221A702A4B1B7898
:10CB4000013BDAB2284B1A7049E0274B1B78184694
:10CB5000264B1B781946264A83000B4412F81330E3
:10CB6000C3F30103DBB2002B0BD1FFF70DFA214B0E
:10CB700000221A701D4B1B780133DAB21B4B1A705E
:10CB80002DE0FEF78DF900237B6002E07B68013326
:10CB90007B607B68184A9342F8DD184B93F90230AA
:10CBA000012B01D1FDF7C0FBFFF752F800233B60DA
:10CBB00002E03B6801333B603B680F4A9342F8DD7B
:10CBC000FFF75EF9FEF764F80A4B01221A70064B74
:10CBD0001B780133DAB2044B1A7000E000BF00BFCB
:10CBE0002037BD4680BD00BF5C0300205D030020F0
:10CBF00038E60120FA4400209F86010074000020DE
:10CC000080B500AFFFF7A4F92F4B00225A72FDF751
:10CC1000DFF82E4B00221A702C4B1A782C4B1A700E
:10CC20002C4B00221A70FFF787FC294B1B78184603
:10CC3000264B1B781A46284983001A4411F81230F3
:10CC4000012060F3051301F81230FEF721F8204BA4
:10CC500000221A701D4B1B780133DAB21B4B1A707D
:10CC60000FE0FFF769FCFFF795FD194B1B7819469C
:10CC70001A4809F019F8154B1B781946184809F09D
:10CC800013F8134B1B78032BEBD1104B1B78012BA4
:10CC9000E7D1FEF705F9FFF74FFCFDF745FB0A4B1F
:10CCA00007221A70FDF72CFD4FF47A7003F072F929
:10CCB000FDF702F9FDF774FA034B00221A70FDF735
:10CCC0001FFD00BF80BD00BF740000205D03002079
:10CCD0005C030020FA44002038E60120F07B0108C4
:10CCE000FC7B010890B58DB000AF954B00225A72C5
:10CCF000944B1B78032B00F2B58301A252F823F06A
:10CD000011CD0008D1CE0008ADD0000889D20008AE
:10CD10008D4B1B7818468D4B1B7819468C4A830027
:10CD20000B4412F81330C3F30103DBB2002B27D1FD
:10CD3000854B1B781A46854B1B7801338549920039
:10CD40000A4413441A78804B1B781C467F4B1B788F
:10CD500018468049A3000B4403441B789A420FD223
:10CD60007A4B1B78022B0BD8FEF746F9754B002245
:10CD70001A70764B1B780133DAB2744B1A70A6E046
:10CD8000714B1B781846714B1B781946704A83000B
:10CD90000B4412F81330C3F38113DBB2002B27D1FD
:10CDA000694B1B78013B694A12781146694A9B001E
:10CDB00013440B441A78644B1B781C46634B1B7856
:10CDC00018466449A3000B4403441B789A420FD2CF
:10CDD0005D4B1B78002B0BD0FFF722F9594B032238
:10CDE0001A70594B1B78013BDAB2574B1A706EE040
:10CDF000554B1B781846554B1B781946544A8300EF
:10CE00000B4412F81330C3F38103DBB2002B27D19C
:10CE10004D4B1B7801334D4A127811464D4A9B0009
:10CE200013440B441A78484B1B781C46474B1B781D
:10CE300018464849A3000B4403441B789A420FD27A
:10CE4000414B1B78022B0BD8FFF79EF83D4B01227C
:10CE50001A703D4B1B780133DAB23B4B1A7036E047
:10CE6000FEF71EF80023FB6202E0FB6A0133FB625F
:10CE7000FB6A394A9342F8DD314B93F90230012BBA
:10CE800001D1FDF751FAFEF7E3FE0023BB6202E099
:10CE9000BB6A0133BB62BB6A2F4A9342F8DDFEF7DF
:10CEA000EFFF00237B6202E07B6A01337B627B6AD7
:10CEB000294A9342F8DDFDF7EBFE224B02221A705D
:10CEC000224B1B78013BDAB2204B1A70CBE2CAE24C
:10CED0001D4B1B7818461D4B1B7819461C4A8300B6
:10CEE0000B4412F81330C3F38103DBB2002B35D1AE
:10CEF000154B1B780133154A12781146154A9B00D1
:10CF000013440B441A78104B1B781C460F4B1B78AC
:10CF100018461049A3000B4403441B789A421DD2C3
:10CF2000094B1B78022B19D8FEF766F8054B012236
:10CF30001A70054B1B780133DAB2034B1A70B4E058
:10CF400074000020FA4400205C0300205D030020F0
:10CF500038E60120C8E101209F8601008B4B1B7839
:10CF600018468B4B1B7819468A4A83000B4412F8EB
:10CF70001330C3F30103DBB2002B27D1834B1B78A3
:10CF80001A46834B1B780133834992000A441344A9
:10CF90001A787E4B1B781C467D4B1B7818467E49C1
:10CFA000A3000B4403441B789A420FD2784B1B78A2
:10CFB000022B0BD8FFF734F8784B00221A70744B11
:10CFC0001B780133DAB2724B1A706EE06F4B1B782C
:10CFD00018466F4B1B7819466E4A83000B4412F8B3
:10CFE0001330C3F30113DBB2002B27D1674B1B783F
:10CFF0001A46674B1B78013B674992000A44134469
:10D000001A78624B1B781C46614B1B7818466249A4
:10D01000A3000B4403441B789A420FD25C4B1B784D
:10D02000002B0BD0FEF7B0FF5C4B02221A70584B5E
:10D030001B78013BDAB2564B1A7036E0FDF730FF31
:10D0400000233B6202E03B6A01333B623B6A544A85
:10D050009342F8DD534B93F90230012B01D1FDF7D8
:10D0600063F9FEF7F5FD0023FB6102E0FB69013384
:10D07000FB61FB694A4A9342F8DDFEF701FF00239A
:10D08000BB6102E0BB690133BB61BB69444A9342A7
:10D09000F8DDFDF7FDFD414B03221A703B4B1B7879
:10D0A000013BDAB2394B1A70DDE1DCE1374B1B781A
:10D0B0001846374B1B781946364A83000B4412F842
:10D0C0001330C3F30113DBB2002B27D12F4B1B7896
:10D0D0001A462F4B1B78013B2F4992000A441344F8
:10D0E0001A782A4B1B781C46294B1B7818462A496C
:10D0F000A3000B4403441B789A420FD2244B1B78A5
:10D10000002B0BD0FDF778FF244B02221A70204B26
:10D110001B78013BDAB21E4B1A70B4E01B4B1B7834
:10D1200018461B4B1B7819461A4A83000B4412F809
:10D130001330C3F38103DBB2002B35D1134B1B78C3
:10D140000133134A12781146134A9B0013440B44CF
:10D150001A780E4B1B781C460D4B1B7818460E494F
:10D16000A3000B4403441B789A421DD2074B1B7843
:10D17000022B19D8FEF754FF084B01221A70034BFB
:10D180001B780133DAB2014B1A707CE05C0300209B
:10D190005D03002038E60120C8E10120FA440020A8
:10D1A0009F860100740000209D4B1B7818469D4B04
:10D1B0001B7819469C4A83000B4412F81330C3F3C2
:10D1C0008113DBB2002B27D1954B1B78013B954A8D
:10D1D00012781146954A9B0013440B441A78904BE1
:10D1E0001B781C468F4B1B7818469049A3000B44B4
:10D1F00003441B789A420FD2894B1B78002B0BD02B
:10D20000FEF7C2FE8A4B03221A70854B1B78013B46
:10D21000DAB2834B1A7036E0FDF742FE00237B61E1
:10D2200002E07B6901337B617B69824A9342F8DDCE
:10D23000814B93F90230012B01D1FDF775F8FEF710
:10D2400007FD00233B6102E03B6901333B613B6921
:10D25000784A9342F8DDFEF713FE0023FB6002E0FC
:10D26000FB680133FB60FB68724A9342F8DDFDF70F
:10D270000FFD6F4B00221A706A4B1B780133DAB234
:10D28000684B1A70EFE0EEE0654B1B781846654B73
:10D290001B781946644A83000B4412F81330C3F319
:10D2A0008113DBB2002B27D15D4B1B78013B5D4A1C
:10D2B000127811465D4A9B0013440B441A78584B70
:10D2C0001B781C46574B1B7818465849A3000B4443
:10D2D00003441B789A420FD2514B1B78002B0BD082
:10D2E000FDF78AFE524B03221A704D4B1B78013B0F
:10D2F000DAB24B4B1A70B4E0494B1B781846494BD5
:10D300001B781946484A83000B4412F81330C3F3C4
:10D310000113DBB2002B27D1414B1B781A46414B3E
:10D320001B78013B414992000A4413441A783C4B54
:10D330001B781C463B4B1B7818463C49A3000B440A
:10D3400003441B789A420FD2364B1B78002B0BD02C
:10D35000FEF766FE364B02221A70324B1B78013BF9
:10D36000DAB2304B1A707CE02D4B1B7818462D4BEF
:10D370001B7819462C4A83000B4412F81330C3F370
:10D380000103DBB2002B27D1254B1B781A46254B16
:10D390001B780133254992000A4413441A78204B24
:10D3A0001B781C461F4B1B7818462049A3000B44D2
:10D3B00003441B789A420FD21A4B1B78022B0BD8CE
:10D3C000FEF7E2FD1A4B00221A70164B1B78013350
:10D3D000DAB2144B1A7044E0FDF762FD0023BB6023
:10D3E00002E0BB680133BB60BB68124A9342F8DDC0
:10D3F000114B93F90230012B01D1FCF795FFFEF799
:10D4000027FC00237B6002E07B6801337B607B6844
:10D41000084A9342F8DDFEF733FD00233B6010E03D
:10D420005C0300205D03002038E60120C8E10120F4
:10D43000FA4400209F860100740000203B680133FD
:10D440003B603B680A4A9342F8DDFDF721FC094B3B
:10D4500001221A70084B1B780133DAB2064B1A709E
:10D4600001E000E000BF00BF3437BD4690BD00BF03
:10D470009F860100FA4400205C03002080B500AFC5
:10D48000FCF7A6FC2A4B00221A70294B1A78294B6C
:10D490001A70294B00221A70FFF74EF8254B1B78A3
:10D4A0001846234B1B781A46244983001A4411F866
:10D4B0001230012060F3051301F81230FEF7CCFEA4
:10D4C000FDF7E6FB1B4B00221A70194B1B7801334A
:10D4D000DAB2174B1A7005E0FFF72EF8FEF7BCFE24
:10D4E000FFF700FC134B1B78012BF5D9114B1B7870
:10D4F000032BF1D80E4B1B78012BEDD8FDF7D0FC98
:10D50000FFF71AF8FCF710FF0D4B07221A70FDF712
:10D51000F7F84FF47A7002F03DFDFCF7CDFCFCF714
:10D520003FFE074B00221A70FDF7EAF800BF80BDEE
:10D530005D0300205C030020FA44002038E601204F
:10D540007400002080B500AFFCF718FE504B03229A
:10D550001A6069E04F4B00221A605CE04E4B1B687A
:10D560004E4AD15C4B4B1A68494B1B6801F00301D2
:10D57000C8B24B4992001A4411F8123060F301030B
:10D5800001F81230444B1B680133444AD15C414BD3
:10D590001A683F4B1B6801F00301C8B24049920072
:10D5A0001A4411F8123060F3830301F812303A4B39
:10D5B0001B680233394AD15C364B1A68344B1B68FE
:10D5C00001F00301C8B2364992001A4411F8123032
:10D5D00060F3051301F812302F4B1B6803332F4AF9
:10D5E000D15C2C4B1A682A4B1B6801F00301C8B2AE
:10D5F0002B4992001A4411F8123060F3871301F896
:10D600001230254B1B680433234A1360214B1B68DF
:10D610000133204A13601F4B1B68032B9EDD1C4BFC
:10D620001B68013B1A4A1360194B1B68002B91DAE7
:10D63000174B03221A6024E0164B00221A6017E0F1
:10D64000154B1968134B1A68114B1B681348405C43
:10D65000144992000A44134402461A700E4B1B6888
:10D6600001330D4A13600B4B1B680133094A1360E9
:10D67000084B1B68032BE3DD054B1B68013B044A89
:10D680001360034B1B68002BD6DA00BF80BD00BFC0
:10D69000C0430020C4430020C8430020680300208A
:10D6A00038E60120C8E1012090B589B000AF8F4B6A
:10D6B00001225A728E4B1B78032B00F2788301A251
:10D6C00052F823F0D5D600087DD8000841DA0008CA
:10D6D00007DC0008874B1B781846874B1B781946D8
:10D6E000864A83000B4412F81330C3F30103DBB204
:10D6F000002B27D17F4B1B781A467F4B1B780133B9
:10D700007F4992000A4413441A787A4B1B781C46CE
:10D71000794B1B7818467A49A3000B4403441B78C5
:10D720009A420FD2744B1B78022B0BD8FDF764FC86
:10D730006F4B00221A70704B1B780133DAB26E4BBC
:10D740001A709AE06B4B1B7818466B4B1B78194686
:10D750006A4A83000B4412F81330C3F38113DBB21F
:10D76000002B27D1634B1B78013B634A127811468B
:10D77000634A9B0013440B441A785E4B1B781C468B
:10D780005D4B1B7818465E49A3000B4403441B788D
:10D790009A420FD2574B1B78002B0BD0FEF740FC60
:10D7A000534B03221A70534B1B78013BDAB2514B97
:10D7B0001A7062E04F4B1B7818464F4B1B78194686
:10D7C0004E4A83000B4412F81330C3F38103DBB2DB
:10D7D000002B27D1474B1B780133474A127811465B
:10D7E000474A9B0013440B441A78424B1B781C4653
:10D7F000414B1B7818464249A3000B4403441B7855
:10D800009A420FD23B4B1B78022B0BD8FEF7BCFB86
:10D81000374B01221A70374B1B780133DAB2354B84
:10D820001A702AE0FDF73CFB0023FB6102E0FB6974
:10D830000133FB61FB69334A9342F8DD2B4B93F9CB
:10D840000230012B01D1FCF76FFDFEF701FA002336
:10D85000BB6102E0BB690133BB61BB69294A9342EA
:10D86000F8DDFDF76DFA224B02221A70224B1B786D
:10D87000013BDAB2204B1A709AE299E21D4B1B78F9
:10D8800018461D4B1B7819461C4A83000B4412F89E
:10D890001330C3F38103DBB2002B35D1154B1B785A
:10D8A0000133154A12781146154A9B0013440B4464
:10D8B0001A78104B1B781C460F4B1B7818461049E2
:10D8C000A3000B4403441B789A421DD2094B1B78DA
:10D8D000022B19D8FDF790FB054B01221A70054B5E
:10D8E0001B780133DAB2034B1A70A8E074000020F1
:10D8F000FA4400205C0300205D03002038E601208C
:10D90000C8E101209F860100A44B1B781846A44B58
:10D910001B781946A34A83000B4412F81330C3F353
:10D920000103DBB2002B27D19C4B1B781A469C4B82
:10D930001B7801339C4992000A4413441A78974B90
:10D940001B781C46964B1B7818469749A3000B443E
