:020000040800F2
:1000000000000220C9EF000811ED000817ED0008FC
:100010001DED000823ED000829ED00080000000098
:100020000000000000000000000000002FED0008AC
:100030003DED0008000000004BED000859ED000800
:1000400019F0000819F0000819F0000819F000086C
:1000500065ED000819F0000819F0000819F0000813
:1000600019F0000819F0000819F0000819F000084C
:1000700019F0000819F0000819F0000819F000083C
:1000800019F0000819F0000871ED000819F00008D7
:1000900019F0000819F0000819F0000819F000081C
:1000A00019F000088DED000819F0000819F000089B
:1000B000A1ED0008B5ED0008C9ED000819F0000831
:1000C00019F0000819F0000819F0000819F00008EC
:1000D00019F0000819F0000819F0000819F00008DC
:1000E00019F0000819F0000819F0000819F00008CC
:1000F000DDED0008F1ED000805EE000819F000083C
:1001000019F0000819F0000819EE000819F00008AD
:1001100019F0000819F0000819F0000819F000089B
:100120002DEE000819F0000841EE000819F0000853
:1001300019F00008000000000000000019F000089D
:1001400019F0000819F0000819F0000819F000086B
:1001500019F0000819F0000819F0000819F000085B
:1001600019F0000819F0000819F0000819F000084B
:1001700019F0000819F0000800000000000000005D
:0801800019F0000819F0000855
:1080000010B5054C237833B9044B13B10448AFF3D2
:1080100000800123237010BDE00E0020000000004E
:10802000606C010808B5034B1BB103490348AFF36B
:10803000008008BD00000000E40E0020606C010814
:10804000034613F8012B002AFBD1181A0138704798
:1080500001F0FF01102A2BDB10F0070F08D010F8F9
:10806000013B013A8B422DD010F0070F42B3F6D1FD
:10807000F0B441EA012141EA014122F007047FF016
:1080800000070023F0E80256083C85EA010586EA6D
:10809000010685FA47F5A3FA87F586FA47F6A5FAA9
:1080A00087F68EB9EED1F0BC01F0FF0102F00702B5
:1080B00032B110F8013B013A83EA010313B1F8D160
:1080C0000020704701387047002D06BF3546033841
:1080D000073815F0010F07D1013015F4807F02BF7A
:1080E000013015F4C03F0130F0BC0138704700BFCB
:1080F00081F0004102E000BF83F0004330B54FEA59
:1081000041044FEA430594EA050F08BF90EA020FC5
:108110001FBF54EA000C55EA020C7FEA645C7FEA58
:10812000655C00F0E2804FEA5454D4EB5555B8BF7B
:108130006D420CDD2C4480EA020281EA030382EAEC
:10814000000083EA010180EA020281EA0303362D7E
:1081500088BF30BD11F0004F4FEA01314FF4801C51
:108160004CEA113102D0404261EB410113F0004F63
:108170004FEA03334CEA133302D0524263EB43031A
:1081800094EA050F00F0A780A4F10104D5F1200EB8
:108190000DDB02FA0EFC22FA05F2801841F1000113
:1081A00003FA0EF2801843FA05F359410EE0A5F1E7
:1081B00020050EF1200E012A03FA0EFC28BF4CF018
:1081C000020C43FA05F3C01851EBE37101F00045CE
:1081D00007D54FF0000EDCF1000C7EEB00006EEBDB
:1081E0000101B1F5801F1BD3B1F5001F0CD3490865
:1081F0005FEA30004FEA3C0C04F101044FEA4452BC
:1082000012F5800F80F09A80BCF1004F08BF5FEA42
:10821000500C50F1000041EB045141EA050130BD22
:108220005FEA4C0C404141EB010111F4801FA4F1C5
:108230000104E9D191F0000F04BF01460020B1FA1A
:1082400081F308BF2033A3F10B03B3F120020CDA52
:108250000C3208DD02F1140CC2F10C0201FA0CF030
:1082600021FA02F10CE002F11402D8BFC2F1200C95
:1082700001FA02F120FA0CFCDCBF41EA0C0190404B
:10828000E41AA2BF01EB0451294330BD6FEA040494
:108290001F3C1CDA0C340EDC04F11404C4F120027F
:1082A00020FA04F001FA02F340EA030021FA04F391
:1082B00045EA030130BDC4F10C04C4F1200220FAE8
:1082C00002F001FA04F340EA0300294630BD21FA26
:1082D00004F0294630BD94F0000F83F4801306BFEC
:1082E00081F480110134013D4EE77FEA645C18BFE0
:1082F0007FEA655C29D094EA050F08BF90EA020F77
:1083000005D054EA000C04BF1946104630BD91EA6E
:10831000030F1EBF0021002030BD5FEA545C05D171
:108320004000494128BF41F0004130BD14F58004B0
:108330003CBF01F5801130BD01F0004545F0FE4124
:1083400041F470014FF0000030BD7FEA645C1ABF59
:10835000194610467FEA655C1CBF0B46024650EA90
:10836000013406BF52EA033591EA030F41F40021BC
:1083700030BD00BF90F0000F04BF0021704730B542
:108380004FF4806404F132044FF000054FF0000117
:1083900050E700BF90F0000F04BF0021704730B5D8
:1083A0004FF4806404F1320410F0004548BF4042AD
:1083B0004FF000013EE700BF42004FEAE2014FEA02
:1083C00031014FEA02701FBF12F07F4393F07F4FDD
:1083D00081F06051704732F07F4208BF704793F0E0
:1083E0007F4F04BF41F40021704730B54FF46074F3
:1083F00001F0004521F000411CE700BF50EA0102F6
:1084000008BF704730B54FF000050AE050EA01029E
:1084100008BF704730B511F0004502D5404261EB0E
:1084200041014FF4806404F132045FEA915C3FF44F
:10843000D8AE4FF003025FEADC0C18BF03325FEAEC
:10844000DC0C18BF033202EBDC02C2F1200300FA9D
:1084500003FC20FA02F001FA03FE40EA0E0021FAC2
:1084600002F11444BDE600BF70B54FF0FF0C4CF4B0
:10847000E06C1CEA11541DBF1CEA135594EA0C0F62
:1084800095EA0C0F00F0DEF82C4481EA030621EA9D
:108490004C5123EA4C5350EA013518BF52EA0335D8
:1084A00041F4801143F4801338D0A0FB02CE4FF08A
:1084B0000005E1FB02E506F00042E0FB03E54FF0BA
:1084C0000006E1FB03569CF0000F18BF4EF0010EB2
:1084D000A4F1FF04B6F5007F64F5407404D25FEAAE
:1084E0004E0E6D4146EB060642EAC62141EA555161
:1084F0004FEAC52040EA5E504FEACE2EB4F1FD0CA3
:1085000088BFBCF5E06F1ED8BEF1004F08BF5FEA20
:10851000500E50F1000041EB045170BD06F00046D2
:1085200046EA010140EA020081EA0301B4EB5C047F
:10853000C2BFD4EB0C0541EA045170BD41F4801177
:108540004FF0000E013C00F3AB8014F1360FDEBF9C
:10855000002001F0004170BDC4F10004203C35DA78
:108560000C341BDC04F11404C4F1200500FA05F3FB
:1085700020FA04F001FA05F240EA020001F000429C
:1085800021F0004110EBD37021FA04F642EB060112
:108590005EEA430E08BF20EAD37070BDC4F10C043C
:1085A000C4F1200500FA04F320FA05F001FA04F200
:1085B00040EA020001F0004110EBD37041F10001EC
:1085C0005EEA430E08BF20EAD37070BDC4F12005F7
:1085D00000FA05F24EEA020E20FA04F301FA05F25F
:1085E00043EA020321FA04F001F0004121FA04F207
:1085F00020EA020000EBD3705EEA430E08BF20EAD7
:10860000D37070BD94F0000F0FD101F00046400010
:1086100041EB010111F4801F08BF013CF7D041EA92
:10862000060195F0000F18BF704703F00046520096
:1086300043EB030313F4801F08BF013DF7D043EA67
:108640000603704794EA0C0F0CEA135518BF95EA1D
:108650000C0F0CD050EA410618BF52EA4306D1D1A4
:1086600081EA030101F000414FF0000070BD50EAC3
:10867000410606BF1046194652EA430619D094EA4D
:108680000C0F02D150EA013613D195EA0C0F05D137
:1086900052EA03361CBF104619460AD181EA03018B
:1086A00001F0004141F0FE4141F470014FF0000043
:1086B00070BD41F0FE4141F4780170BD70B54FF0DE
:1086C000FF0C4CF4E06C1CEA11541DBF1CEA13555E
:1086D00094EA0C0F95EA0C0F00F0A7F8A4EB050440
:1086E00081EA030E52EA03354FEA013100F0888037
:1086F0004FEA03334FF0805545EA131343EA126300
:108700004FEA022245EA111545EA10654FEA0026B4
:108710000EF000419D4208BF964244F1FD0404F56D
:10872000407402D25B084FEA3202B61A65EB0305C9
:108730005B084FEA32024FF480104FF4002CB6EB86
:10874000020E75EB030E22BFB61A754640EA0C0006
:108750005B084FEA3202B6EB020E75EB030E22BF46
:10876000B61A754640EA5C005B084FEA3202B6EB87
:10877000020E75EB030E22BFB61A754640EA9C0046
:108780005B084FEA3202B6EB020E75EB030E22BF16
:10879000B61A754640EADC0055EA060E18D04FEAD4
:1087A000051545EA16754FEA06164FEAC30343EA74
:1087B00052734FEAC2025FEA1C1CC0D111F4801F41
:1087C0000BD141EA00014FF000004FF0004CB6E73A
:1087D00011F4801F04BF01430020B4F1FD0C88BFD9
:1087E000BCF5E06F3FF6AFAEB5EB030C04BFB6EBE4
:1087F000020C5FEA500C50F1000041EB045170BDD7
:108800000EF0004E4EEA113114EB5C04C2BFD4EB03
:108810000C0541EA045170BD41F480114FF0000E87
:10882000013C90E645EA060E8DE60CEA135594EA03
:108830000C0F08BF95EA0C0F3FF43BAF94EA0C0F06
:108840000AD150EA01347FF434AF95EA0C0F7FF47B
:1088500025AF104619462CE795EA0C0F06D152EACF
:1088600003353FF4FDAE1046194622E750EA4106B3
:1088700018BF52EA43067FF4C5AE50EA41047FF4C4
:108880000DAF52EA43057FF4EBAE12E74FF0FF3C29
:1088900006E000BF4FF0010C02E000BF4FF0010CFA
:1088A0004DF804CD4FEA410C7FEA6C5C4FEA430C73
:1088B00018BF7FEA6C5C1BD001B050EA410C0CBFC2
:1088C00052EA430C91EA030F02BF90EA020F002024
:1088D000704710F1000F91EA030F58BF994208BF8B
:1088E00090422CBFD8176FEAE37040F00100704748
:1088F0004FEA410C7FEA6C5C02D150EA013C07D19F
:108900004FEA430C7FEA6C5CD6D152EA033CD3D0E9
:108910005DF8040B704700BF8446104662468C46E3
:108920001946634600E000BF01B5FFF7B7FF002816
:1089300048BF10F1000F01BD4DF808EDFFF7F4FF3F
:108940000CBF012000205DF808FB00BF4DF808EDCA
:10895000FFF7EAFF34BF012000205DF808FB00BFED
:108960004DF808EDFFF7E0FF94BF012000205DF80F
:1089700008FB00BF4DF808EDFFF7CEFF94BF0120C4
:1089800000205DF808FB00BF4DF808EDFFF7C4FFBD
:1089900034BF012000205DF808FB00BF4FEA410C06
:1089A0007FEA6C5C02D150EA013C0AD14FEA430CE9
:1089B0007FEA6C5C02D152EA033C02D14FF0000026
:1089C00070474FF0010070474FEA410212F5001264
:1089D00015D211D56FF47873B3EB625212D94FEA06
:1089E000C12343F0004343EA505311F0004F23FAF0
:1089F00002F018BF404270474FF00000704750EA45
:108A0000013005D111F0004008BF6FF00040704701
:108A10004FF00000704700BF4FEA4102B2F1E0435F
:108A200024BFB3F5001CDCF1FE5C0DD901F0004C55
:108A30004FEAC0024CEA5070B2F1004F40EB8300A5
:108A400008BF20F00100704711F0804F21D113F1D1
:108A50003872BCBF01F00040704741F480114FEA0A
:108A60005252C2F11802C2F1200C10FA0CF320FA93
:108A700002F018BF40F001004FEAC1234FEAD323B0
:108A800003FA0CFC40EA0C0023FA02F34FEA43031A
:108A9000CCE77FEA625307D150EA01331EBF4FF0A3
:108AA000FE4040F44000704701F0004040F0FE40BE
:108AB00040F40000704700BF53B94AB9002908BF0D
:108AC00000281CBF4FF0FF314FF0FF3000F072B9AB
:108AD000ADF1080C6DE904CE00F006F8DDF804E015
:108AE000DDE9022304B070472DE9F047089E0446F3
:108AF0008846002B4BD18A42154667D9B2FA82F2DA
:108B00004AB1C2F1200701FA02F320FA07F79540B3
:108B100047EA030894404FEA154E230CB8FBFEF7D2
:108B20001FFA85FC0EFB178843EA084307FB0CF18C
:108B3000994209D9EB1807F1FF3080F01B81994267
:108B400040F21881023F2B445B1AA4B2B3FBFEF043
:108B50000EFB103344EA034400FB0CFCA44509D986
:108B60002C1900F1FF3380F00781A44540F2048105
:108B700002382C4440EA0740A4EB0C0400271EB145
:108B8000D4400023C6E900433946BDE8F0878B4254
:108B900009D9002E00F0EB800027C6E90001384615
:108BA0003946BDE8F087B3FA83F7002F47D18B42EF
:108BB00002D3824200F2FA80841A61EB030301209F
:108BC0009846002EE0D0C6E90048DDE702B9FFDE96
:108BD000B2FA82F2002A40F08F80491B4FEA154E0C
:108BE0001FFA85F80127B1FBFEFC230C0EFB1C11BC
:108BF00043EA014308FB0CF1994207D9EB180CF149
:108C0000FF3002D2994200F2CD808446591AA3B2B5
:108C1000B1FBFEF00EFB101443EA044408FB00F81D
:108C2000A04507D92C1900F1FF3302D2A04500F26C
:108C3000B6801846A4EB080440EA0C409FE7C7F151
:108C4000200CBB4022FA0CFE4EEA030E01FA07F498
:108C500020FA0CF521FA0CF34FEA1E482543B3FB2A
:108C6000F8F92C0C08FB19331FFA8EFA44EA034377
:108C700009FB0AF49C4202FA07F200FA07F10BD949
:108C80001EEB030309F1FF3080F087809C4240F225
:108C90008480A9F1020973441B1BADB2B3FBF8F049
:108CA00008FB103345EA034400FB0AFAA24508D941
:108CB0001EEB040400F1FF336BD2A24569D90238E0
:108CC000744440EA0940A0FB0289A4EB0A044C4525
:108CD000C2464B4654D351D0002E69D0B1EB0A05A1
:108CE00064EB030404FA0CFCFD40FC404CEA05056F
:108CF000C6E90054002747E7C2F1200320FA03F732
:108D0000954001FA02F021FA03F34FEA154E384379
:108D1000010CB3FBFEF71FFA85F80EFB173341EA8F
:108D2000034107FB08F38B4204FA02F407D96918E0
:108D300007F1FF3C2FD28B422DD9023F2944CB1A99
:108D400081B2B3FBFEF00EFB103341EA034100FB9E
:108D500008F38B4207D9691800F1FF3C17D28B4208
:108D600015D902382944C91A40EA07473BE7374674
:108D7000304609E70746E7E61846FBE64145ABD231
:108D8000B8EB020A69EB0E0201381346A4E760460D
:108D9000E9E7184695E76746D1E781467CE7023860
:108DA0002C4447E7ACF1020C2B442FE7384608E788
:108DB0003746E9E6704700BF90B587B000AF87ED52
:108DC000050AC7ED040A87ED031AC7ED021A87EDFD
:108DD000012AC7ED002A544B1B78002B0FD1534BAF
:108DE0004FF000021A60524B4FF000021A60514BD4
:108DF0004FF000021A60504B4FF000021A604A4BCD
:108E000001221A70D7ED057A9FED4C7A37EE877AFA
:108E1000D7ED047A77EE677A444BC3ED007A434B83
:108E200093ED007AD7ED037A27EE277A404BD3ED06
:108E3000007A77EE277A3E4BC3ED007A3B4B93EDF9
:108E4000007A3D4BD3ED007A77EE676A97ED037AAF
:108E5000C6EE877A374BC3ED007A344B1B68364A2F
:108E60001360324B93ED007AD7ED027A27EE277A22
:108E70002F4BD3ED006AD7ED017A66EEA77A37EE75
:108E8000277A2C4BD3ED006AD7ED007A66EEA77AED
:108E900077EE277A17EE900AFFF78EFA03460C4614
:108EA00044EC103B0BF0D2FA54EC103B1846214630
:108EB000FFF78AFD03461AB2214B1A801B4B93ED34
:108EC000007AD7ED027A27EE277A194BD3ED006AA4
:108ED000D7ED017A66EEA77A37EE277A154BD3EDF8
:108EE000006AD7ED007A66EEA77A77EE277A17EE5A
:108EF000900AFFF761FA03460C4644EC103B0BF076
:108F0000A5FA54EC103B18462146FFF75DFD0346D9
:108F10001BB29BB25B429BB21AB20A4B1A8000BFD3
:108F20001C37BD4690BD00BFFC0E0020000F002086
:108F3000040F0020080F00200C0F0020000020422A
:108F4000725000208450002090B587B000AF87EDAC
:108F5000050AC7ED040A87ED031AC7ED021A87ED6B
:108F6000012AC7ED002A594B1B78002B0FD1584B13
:108F70004FF000021A60574B4FF000021A60564B38
:108F80004FF000021A60554B4FF000021A604F4B31
:108F900001221A7097ED057AD7ED047A77EE677A99
:108FA00017EE900AFFF708FA4FF033324C4BFFF7F9
:108FB0005BFA03460C4618462146FFF72DFD024694
:108FC000434B1A60424B93ED007AD7ED037A27EEBC
:108FD000277A404BD3ED007A77EE277A3D4BC3EDED
:108FE000007A3B4B93ED007A3C4BD3ED007A77EE61
:108FF000676A97ED037AC6EE877A374BC3ED007A3E
:10900000334B1B68354A1360314B93ED007AD7ED33
:10901000027A27EE277A2F4BD3ED006AD7ED017A3B
:1090200066EEA77A37EE277A2B4BD3ED006AD7EDA1
:10903000007A66EEA77A77EE277A17EE900AFFF7A6
:10904000BBF903460C4644EC103B0BF0FFF954EC23
:10905000103B18462146FFF7B7FC03461BB29BB2F4
:109060005B429BB21AB21F4B1A80194B93ED007AE8
:10907000D7ED027A27EE277A164BD3ED006AD7EDAB
:10908000017A66EEA77A37EE277A134BD3ED006AA2
:10909000D7ED007A66EEA77A77EE277A17EE900A78
:1090A000FFF78AF903460C4644EC103B0BF0CEF96F
:1090B00054EC103B18462146FFF786FC03461AB2D3
:1090C000094B1A8000BF1C37BD4690BDFC0E002026
:1090D000100F0020140F0020180F00201C0F00207C
:1090E0003333F33F6E5000209050002090B587B08E
:1090F00000AF87ED050AC7ED040A87ED031AC7ED37
:10910000021A87ED012AC7ED002A594B1B78002B64
:109110000FD1584B4FF000021A60574B4FF000022E
:109120001A60564B4FF000021A60554B4FF0000288
:109130001A604F4B01221A7097ED057AD7ED047A29
:1091400077EE677A17EE900AFFF736F94FF0333271
:109150004C4BFFF789F903460C4618462146FFF7AA
:109160005BFC0246434B1A60424B93ED007AD7ED0D
:10917000037A27EE277A404BD3ED007A77EE277AF1
:109180003D4BC3ED007A3B4B93ED007A3C4BD3ED66
:10919000007A77EE676A97ED037AC6EE877A374BE7
:1091A000C3ED007A334B1B68354A1360314B93EDA6
:1091B000007AD7ED027A27EE277A2F4BD3ED006A9B
:1091C000D7ED017A66EEA77A37EE277A2B4BD3EDEF
:1091D000006AD7ED007A66EEA77A77EE277A17EE67
:1091E000900AFFF7E9F803460C4644EC103B0BF0FD
:1091F0002DF954EC103B18462146FFF7E5FB0346DA
:109200001AB2214B1A801B4B93ED007AD7ED027AEC
:1092100027EE277A184BD3ED006AD7ED017A66EE78
:10922000A77A37EE277A154BD3ED006AD7ED007A8F
:1092300066EEA77A77EE277A17EE900AFFF7BCF86A
:1092400003460C4644EC103B0BF000F954EC103B89
:1092500018462146FFF7B8FB03461BB29BB25B42A0
:109260009BB21AB2094B1A8000BF1C37BD4690BD95
:10927000FC0E0020200F0020240F0020280F0020CB
:109280002C0F00203333F33F605000207850002033
:1092900090B587B000AF87ED050AC7ED040A87EDEA
:1092A000031AC7ED021A87ED012AC7ED002A504BB9
:1092B0001B78002B0FD14F4B4FF000021A604E4B22
:1092C0004FF000021A604D4B4FF000021A604C4BF9
:1092D0004FF000021A60464B01221A7097ED057A92
:1092E000D7ED047A77EE677A424BC3ED007A414BB3
:1092F00093ED007AD7ED037A27EE277A3E4BD3ED34
:10930000007A77EE277A3C4BC3ED007A394B93ED28
:10931000007A3B4BD3ED007A77EE676A97ED037ADC
:10932000C6EE877A354BC3ED007A324B1B68344A60
:109330001360304B93ED007AD7ED027A27EE277A4F
:109340002D4BD3ED006AD7ED017A66EEA77A37EEA2
:10935000277A2A4BD3ED006AD7ED007A66EEA77A1A
:1093600077EE277A17EE900AFFF726F803460C46A9
:1093700044EC103B0BF06AF854EC103B18462146C5
:10938000FFF722FB03461AB21E4B1A80194B93EDCE
:10939000007AD7ED027A27EE277A174BD3ED006AD1
:1093A000D7ED017A66EEA77A37EE277A134BD3ED25
:1093B000006AD7ED007A66EEA77A77EE277A17EE85
:1093C000900AFEF7F9FF03460C4644EC103B0BF005
:1093D0003DF854EC103B18462146FFF7F5FA0346DA
:1093E0001AB2094B1A8000BF1C37BD4690BD00BFA2
:1093F000FC0E0020300F0020340F0020380F00201A
:109400003C0F0020745000206C50002090B587B0B5
:1094100000AF87ED050AC7ED040A87ED031AC7ED13
:10942000021A87ED012AC7ED002A394B1B78002B61
:109430000FD1384B4FF000021A60374B4FF000024B
:109440001A60364B4FF000021A60354B4FF00002A5
:109450001A602F4B01221A7097ED057AD7ED047A26
:1094600077EE677A2B4BC3ED007A2A4B93ED007AA7
:10947000D7ED037A27EE277A274BD3ED007A77EEE4
:10948000277A254BC3ED007A224B93ED007A244BCB
:10949000D3ED007A77EE676A97ED037AC6EE877AA6
:1094A0001E4BC3ED007A1B4B1B681D4A1360194B02
:1094B00093ED007AD7ED027A27EE277A164BD3ED9B
:1094C000006AD7ED017A66EEA77A37EE277A134B5A
:1094D000D3ED006AD7ED007A66EEA77A77EE277AA9
:1094E00017EE900AFEF768FF03460C4644EC103B6B
:1094F0000AF0ACFF54EC103B18462146FFF764FA23
:1095000003461AB2074B1A8000BF1C37BD4690BDF8
:10951000FC0E0020400F0020440F0020480F0020C8
:109520004C0F00206450002090B587B000AF87ED4D
:10953000050AC7ED040A87ED031AC7ED021A87ED85
:10954000012AC7ED002A394B1B78002B0FD1384B6D
:109550004FF000021A60374B4FF000021A60364B92
:109560004FF000021A60354B4FF000021A602F4B8B
:1095700001221A7097ED057AD7ED047A77EE677AB3
:109580002B4BC3ED007A2A4B93ED007AD7ED037A8B
:1095900027EE277A274BD3ED007A77EE277A254BF3
:1095A000C3ED007A224B93ED007A244BD3ED007A81
:1095B00077EE676A97ED037AC6EE877A1E4BC3EDA6
:1095C000007A1B4B1B681D4A1360194B93ED007A00
:1095D000D7ED027A27EE277A164BD3ED006AD7ED46
:1095E000017A66EEA77A37EE277A134BD3ED006A3D
:1095F000D7ED007A66EEA77A77EE277A17EE900A13
:10960000FEF7DAFE03460C4644EC103B0AF01EFF60
:1096100054EC103B18462146FFF7D6F903461AB220
:10962000074B1A8000BF1C37BD4690BDFC0E0020C2
:10963000500F0020540F0020580F00205C0F002016
:109640008650002090B587B000AF87ED050AC7EDC2
:10965000040A87ED031AC7ED021A87ED012A6F4B42
:109660001B78002B1FD16E4B4FF000021A606D4B20
:109670004FF000021A606C4B4FF000021A606B4B07
:109680004FF000021A606A4B4FF000021A60694BFB
:109690004FF000021A60684B4FF000021A60674BEF
:1096A0004FF000021A605D4B01221A70644BD3ED3B
:1096B000007A97ED057A77EE677A594BC3ED007A19
:1096C000D7ED057AB1EE677A5E4BD3ED007A77EE8F
:1096D000677A544BC3ED007A514B93ED007AD7ED86
:1096E000047A27EE277A504BD3ED007A77EE277A6B
:1096F0004D4BC3ED007A4B4B93ED007AD7ED047AD6
:1097000027EE277A494BD3ED007A77EE277A474B3D
:10971000C3ED007A424B93ED007A474BD3ED007ACC
:1097200077EE676A97ED047AC6EE877A404BC3ED11
:10973000007A3C4B93ED007A404BD3ED007A77EE04
:10974000676A97ED047AC6EE877A3A4BC3ED007AE2
:10975000334B1B68384A1360324B1B68374A13601F
:109760002F4B93ED007AD7ED037A27EE277A2E4B15
:10977000D3ED006AD7ED027A66EEA77A37EE277A44
:109780002B4BD3ED006AD7ED017A66EEA77A77EE20
:10979000277A17EE900AFEF70FFE03460C4644ECBC
:1097A000103B0AF053FE54EC103B18462146FFF7DD
:1097B0000BF903461AB2244B1A801A4B93ED007A28
:1097C000D7ED037A27EE277A184BD3ED006AD7ED51
:1097D000027A66EEA77A37EE277A164BD3ED006A47
:1097E000D7ED017A66EEA77A77EE277A17EE900A20
:1097F000FEF7E2FD03460C4644EC103B0AF026FE61
:1098000054EC103B18462146FFF7DEF803461AB227
:109810000E4B1A8000BF1C37BD4690BDFC0E0020C9
:10982000600F0020640F0020680F00206C0F0020E4
:10983000700F0020740F0020780F00207C0F002094
:109840008C500020805000207E5000207C50002052
:1098500090B585B000AF87ED030AC7ED020A87ED2A
:10986000011AC7ED001A534B1B78002B0FD1524B36
:109870004FF000021A60514B4FF000021A60504B3B
:109880004FF000021A604F4B4FF000021A60494B34
:1098900001221A704C4B93ED007A4C4BD3ED007AB9
:1098A00077EE677A444BC3ED007A434B93ED007A31
:1098B000D7ED037A27EE277A404BD3ED007A77EE87
:1098C000277A3E4BC3ED007A3B4B93ED007A3D4B3C
:1098D000D3ED007A77EE676A97ED037AC6EE877A62
:1098E000374BC3ED007A344B1B68364A1360324B5A
:1098F00093ED007AD7ED027A27EE277A2F4BD3ED3E
:10990000006AD7ED017A66EEA77A37EE277A2C4BFC
:10991000D3ED006AD7ED007A66EEA77A77EE277A64
:1099200017EE900AFEF748FD03460C4644EC103B48
:109930000AF08CFD54EC103B18462146FFF744F822
:1099400003461AB2224B1A801B4B93ED007AD7EDD7
:10995000027A27EE277A194BD3ED006AD7ED017A08
:1099600066EEA77A37EE277A154BD3ED006AD7ED6E
:10997000007A66EEA77A77EE277A17EE900AFEF75E
:109980001BFD03460C4644EC103B0AF05FFD54EC13
:10999000103B18462146FFF717F803461BB29BB24F
:1099A0005B429BB21AB20B4B1A8000BF1437BD4604
:1099B00090BD00BFFC0E0020800F0020840F00200F
:1099C000880F00208C0F0020805000208C50002039
:1099D000705000206250002080B584B000AF034674
:1099E000FB71FB7963F07F03DBB2FB730022042180
:1099F0000D4807F05BFB07F10F01642301220B48C0
:109A000008F034F807F10E0164230122074808F03A
:109A100061F901220421044807F048FBBB7B18468A
:109A20001037BD4680BD00BF000C0240D45B012052
:109A300080B584B000AF03460A46FB711346BB7184
:109A4000FB7903F07F03DBB2FB73002204210C4897
:109A500007F02CFB07F10F0164230122094808F0ED
:109A600005F8B91D64230122064807F0FFFF012213
:109A70000421034807F01AFB00BF1037BD4680BD24
:109A8000000C0240D45B012080B582B000AF002002
:109A9000FFF7A2FF0346BB71BB79E02B19D101236D
:109AA000FB7101210620FFF7C3FF10210320FFF700
:109AB000BFFF20217F20FFF7BBFF17210120FFF709
:109AC000B7FF06211420FFF7B3FF00217F20FFF727
:109AD000AFFFFB7918460837BD4680BD98B500AF8B
:109AE0003320FFF779FF03461B021CB23420FFF737
:109AF00073FF03461BB223431AB2114B1A80352061
:109B0000FFF76AFF03461B021CB23620FFF764FF13
:109B100003461BB223431AB20A4B1A803720FFF7C1
:109B20005BFF03461B021CB23820FFF755FF0346BC
:109B30001BB223431AB2044B1A8000BF98BD00BF6A
:109B40009A500020985000209250002098B500AF05
:109B50002D20FFF741FF03461B021CB22E20FFF70A
:109B60003BFF03461BB223431AB2114B1A802F202E
:109B7000FFF732FF03461B021CB23020FFF72CFF19
:109B800003461BB223431AB20A4B1A803120FFF757
:109B900023FF03461B021CB23220FFF71DFF0346C2
:109BA0001BB223431AB2044B1A8000BF98BD00BFFA
:109BB000965000209C5000209450002080B582B028
:109BC00000AF7860391D4FF6FF730122034809F09A
:109BD000DDFF7B6818460837BD4680BD7C5C0120F0
:109BE00090B585B000AF87ED030AB860C7ED010AF4
:109BF0003960D7ED037A9FED1B7A67EE877A17EE0F
:109C0000900AFEF7D9FB03460C4644EC103B0AF0E1
:109C10001DFC54EC103B18462146FEF7D5FE0346CA
:109C20001AB2BB681A80D7ED017A9FED0E7A67EE03
:109C3000877A17EE900AFEF7BFFB03460C4644EC0A
:109C4000103B0AF003FC54EC103B18462146FEF78B
:109C5000BBFE03461AB23B681A8000BF1437BD46EC
:109C600090BD00BF00C00D4480B400AF2D4B00225A
:109C70001A802C4BB3F900202B4B1A802A4BB3F9D6
:109C800000202A4B1A80294BB3F90020284B1A8058
:109C9000274BB3F90020274B1A80264BB3F900203D
:109CA000254B1A80244BB3F90020244B1A80234BF8
:109CB000B3F90020224B1A80214BB3F90020214B2D
:109CC0001A80214B00221A801F4BB3F900201F4B32
:109CD0001A801E4BB3F900201D4B1A801C4BB3F9A0
:109CE00000201C4B1A801B4BB3F900201A4B1A8022
:109CF000194BB3F90020194B1A80184BB3F9002007
:109D0000174B1A80164BB3F90020164B1A80154BCF
:109D1000B3F90020144B1A8000BFBD465DF8047BE8
:109D2000704700BF8650002062500020765000200F
:109D30007C500020605000206E5000208450002095
:109D40006C500020D8650120645000207050002025
:109D50007A5000207E500020785000209050002043
:109D60007250002074500020445B012098B500AF71
:109D7000194B93F90430002B03F00103B8BF5B4289
:109D80005BB2012B25D0154BD3E900014FF0000247
:109D9000134BFEF7B3F903460C46104AC2E90034F0
:109DA0000E4BD3E900014FF000020E4BFEF7C4FD4D
:109DB0000346002B00D10CE00B4BD3E900014FF020
:109DC0000002074BFEF79AF903460C46064AC2E921
:109DD000003400BF98BD00BFF40C0020C00F00206D
:109DE0000000F03F00408F40B80F0020B0B400AF3B
:109DF000354B00221A605EE0344B00221A6051E0BD
:109E0000314B1968314B1A68314C8B00981814F893
:109E10001030022565F3871304F810302A4B1C68B4
:109E20002A4B18682A4D8B00134415F81330C3F3DE
:109E30008113DDB22649A3001A1811F8123065F318
:109E4000051301F81230204B1968204B1A68204D79
:109E5000A300034415F81330C3F30113DDB21C4C07
:109E60008B00981814F8103065F3830304F8103051
:109E7000154B1C68154B1B68154889000A4410F8DF
:109E80001220C2F38102D0B21149A2001A4411F883
:109E9000123060F3010301F812300C4B1B680133E0
:109EA0000A4A1360094B1B68032BA9DD064B1B688C
:109EB0000133054A1360044B1B68032B9CDD00BF74
:109EC000BD46B0BC704700BFEC4F0020F04F0020F3
:109ED0007865012080B400AF4B4B03221A605DE02F
:109EE0004A4B00221A6050E0484B1A68464B1B68E8
:109EF00047499200134411F81330C3F30103DAB257
:109F0000444B1B681146444AD154404B1A683E4B9F
:109F10001B683F499200134411F81330C3F38103C7
:109F2000DAB23C4B1B68013311463B4AD154374BE4
:109F30001A68354B1B6836499200134411F81330E8
:109F4000C3F30113DAB2334B1B6802331146324AB2
:109F5000D1542E4B1A682C4B1B682D499200134488
:109F600011F81330C3F38113DAB22A4B1B680333A1
:109F70001146294AD154274B1B680433254A1360E4
:109F8000224B1B680133214A1360204B1B68032BB3
:109F9000AADD1D4B1B68013B1B4A13601A4B1B6853
:109FA000002B9DDA184B03221A6023E0174B002286
:109FB0001A6016E0154B1968134B1A68154B1B688D
:109FC0001648890001440A441178134AD154114BB0
:109FD0001B6801330F4A13600C4B1B6801330B4A9B
:109FE00013600A4B1B68032BE4DD074B1B68013B26
:109FF000054A1360044B1B68002BD7DA00BFBD462F
:10A000005DF8047B704700BFF44F0020F84F00203C
:10A0100078650120FC4F0020EC0F00200861012032
:10A0200080B500AF3F4B00221A6041E03E4B00225A
:10A030001A6031E03D4B1B683D4AD35C19463D48F0
:10A040000AF0E8FE394B1B68013303F00F03002BC5
:10A050000ED0364B1B680133032B09DD334B1B68D5
:10A06000013303F00303002B02D133480AF0D2FE80
:10A070002E4B1B68013303F00F03002B02D12F4836
:10A080000AF03CFF294B1B680133284A1360264B1A
:10A090001B680133244A1360234B1B680F2BC9DD57
:10A0A00026480AF02BFF1F4B1B6801331D4A136023
:10A0B0001C4B1B68032BB9DD20480AF01FFF1F480B
:10A0C0000AF01CFF174B00221A6024E0164B0022F6
:10A0D0001A6011E0154B1B68154AD35C19461848E5
:10A0E0000AF098FE114B1B680133104A13600E4BA7
:10A0F0001B6801330C4A13600B4B1B68032BE9DD13
:10A100000E480AF0FBFE0D480AF0F8FE054B1B68EE
:10A110000133044A1360034B1B68032BD6DD00BFD9
:10A1200080BD00BF005000200450002008500020D7
:10A13000EC0F0020786C01087C6C0108806C010831
:10A14000846C010880B588B000AF06F07BFB00236B
:10A15000BB6001233B610223BB6101237B613A1D8C
:10A1600007F108031146184606F0CCFC0346FB77BE
:10A1700006F08AFBFB7F002B05D17B68B3F1FF3F24
:10A1800001D1012300E0002303F00103DBB21846F4
:10A190002037BD4680BD000080B500AF054A064BA4
:10A1A000104619464FF480431A460AF0C3F9014B92
:10A1B000184680BDEC0F00200040000890B585B027
:10A1C00000AFFFF7BFFF034683F00103DBB2002BB4
:10A1D00001D000232FE01A4B7B6006F033FB4FF4D5
:10A1E00080533B600023BB6017E0BB689B00154AAF
:10A1F0009918BB689B007A6813441B684FF00004F1
:10A200001A462346022006F015FA0346FB73FB7B31
:10A21000002B07D1BB680133BB60BA683B689A4228
:10A22000E3D300E000BF06F02FFBFB7B002B0CBF4D
:10A2300001230023DBB218461437BD4690BD00BF92
:10A24000EC0F00200040000880B500AF002104485A
:10A2500008F0ACF90021024809F079FA00BF80BD8E
:10A26000A850002080B500AF0021044808F022FA71
:10A270000021024809F0C0FA00BF80BDA8500020AC
:10A2800080B500AF03220A490A4805F0DFF803460B
:10A29000002B01D004F0B0F902220749074805F06D
:10A2A000D5F80346002B01D004F0A6F900BF80BD0D
:10A2B000D00F0020305C0120D80F00202C5100204E
:10A2C00080B500AF084805F0B3F90346002B01D074
:10A2D00004F092F9054805F0ABF90346002B01D0D4
:10A2E00004F08AF900BF80BD305C01202C510020B1
:10A2F00080B500AF3C21044808F0D4FB3C21034862
:10A3000008F0D0FB00BF80BD905B0120EC50002026
:10A3100080B500AF0C21094808F09CFA0346002BD9
:10A3200001D004F069F90421054808F093FA0346C6
:10A33000002B01D004F060F900BF80BD98650120BA
:10A340004C5B012080B500AF0C21094808F0C0FA31
:10A350000346002B01D004F04FF90421054808F012
:10A36000B7FA0346002B01D004F046F900BF80BDC8
:10A37000986501204C5B012080B500AFFFF764FFBA
:10A38000FFF77EFFFFF780FBFFF7C2FF00BF80BD36
:10A39000B0B500AFFFF7A2FBFFF7D8FB544B1B880B
:10A3A0001BB21846FDF7F6FF4FF000024FF0804356
:10A3B000FDF7A4FE03460C461846214646A3D3E902
:10A3C0000023FEF77BF903460C461846214644A3BA
:10A3D000D3E90023FEF748F803460C461846214609
:10A3E0004FF00002434BFEF769F903460C46424A20
:10A3F000C2E90034414BD3E900013F4BD3E90034BB
:10A400001A462346FDF77AFE03460C4618462146B7
:10A4100035A3D3E90023FEF727F803460C46184678
:10A4200021464FF000024FF08043FEF747F9034604
:10A430000C4618462146324BD3E900341A462346CF
:10A44000FDF75CFE03460C462D4AC2E900342C4B56
:10A45000D3E900452B4BD3E9000121A3D3E9002325
:10A46000FEF702F802460B46104619464FF000026E
:10A47000204BFEF723F902460B4620462946FDF7FE
:10A480003BFE03460C461E4AC2E900341A4BD3E990
:10A4900000341A4AC2E90034194BD3E900014FF0E5
:10A4A0000002144BFDF7E0FF03460C461846214618
:10A4B0000BA3D3E90023FEF701F903460C46124A29
:10A4C000C2E900340C4BD3E9003444EC173BB0EE46
:10A4D000470AF0EE670AB0BD66666666666630409B
:10A4E000182D4454FB210940FCA9F1D24D62503F84
:10A4F000925000200080664010500020185000202C
:10A50000A80F002018000020A00F0020B0B58CB0CC
:10A5100000AF87ED0A0B87ED081B87ED062B87ED53
:10A52000043B87ED024B87ED005B744B9B7903F096
:10A530000103DBB2002B1BD1714A4FF000034FF037
:10A540000004C2E900346F4A4FF000034FF00004EA
:10A55000C2E900346C4A4FF000034FF00004C2E936
:10A5600000346A4A4FF000034FF00004C2E900349F
:10A57000624A937943F001039371D7E90823D7E93D
:10A580000A01FDF7B9FD03460C465D4AC2E90034F5
:10A590005B4BD3E90001D7E90623FDF765FF0346CE
:10A5A0000C4618462146574BD3E900341A46234639
:10A5B000FDF7A4FD03460C46524AC2E90034504B55
:10A5C000D3E90001514BD3E900341A462346FDF785
:10A5D00093FD03460C4618462146D7E90623FEF7AD
:10A5E0006DF803460C46484AC2E90034444BD3E9AF
:10A5F0000034464AC2E90034414BD3E90001D7E9AF
:10A600000423FDF731FF03460C4625461C463D4B0F
:10A61000D3E90001D7E90223FDF726FF02460B46E6
:10A6200020462946FDF76AFD03460C4625461C4692
:10A63000354BD3E90001D7E90023FDF715FF0246AA
:10A640000B4620462946FDF759FD03460C4644ECCF
:10A65000173BB0EE470AF0EE670A09F0F7FE54EC3C
:10A66000103B18462146FEF7AFF903461BB29BB2DA
:10A670005B429BB21AB2264B1A80214BD3E90001F0
:10A68000D7E90423FDF7F0FE03460C4625461C4699
:10A690001C4BD3E90001D7E90223FDF7E5FE024692
:10A6A0000B4620462946FDF729FD03460C46254664
:10A6B0001C46154BD3E90001D7E90023FDF7D4FE72
:10A6C00002460B4620462946FDF718FD03460C4678
:10A6D00044EC173BB0EE470AF0EE670A09F0B6FE0D
:10A6E00054EC103B18462146FEF76EF903461AB2A9
:10A6F000084B1A8000BF3037BD46B0BDF40C0020B7
:10A7000020500020285000203050002038500020D9
:10A71000765000207A50002080B500AF5A4B93F954
:10A720000030072B00F2AC8001A252F823F000BFEA
:10A7300051A7000877A700089DA70008C3A7000835
:10A74000E9A700080FA8000835A800085BA80008C2
:10A7500000224FF400714D4806F0A8FC00224FF48F
:10A7600080714A4806F0A2FC00224FF4007148486C
:10A7700006F09CFC85E001224FF40071434806F08E
:10A7800095FC00224FF48071404806F08FFC0022B7
:10A790004FF400713E4806F089FC72E000224FF44D
:10A7A00000713A4806F082FC01224FF4807137486C
:10A7B00006F07CFC00224FF40071354806F076FC70
:10A7C0005FE001224FF40071304806F06FFC012277
:10A7D0004FF480712D4806F069FC00224FF400719F
:10A7E0002B4806F063FC4CE000224FF40071274830
:10A7F00006F05CFC00224FF48071244806F056FC01
:10A8000001224FF40071224806F050FC39E0012289
:10A810004FF400711D4806F049FC00224FF480718E
:10A820001A4806F043FC01224FF40071184806F064
:10A830003DFC26E000224FF40071144806F036FC7F
:10A8400001224FF48071114806F030FC01224FF4D0
:10A8500000710F4806F02AFC13E001224FF400714A
:10A860000A4806F023FC01224FF48071074806F0E5
:10A870001DFC01224FF40071054806F017FC00E0B2
:10A8800000BF00BF80BD00BFF40C002000080240E4
:10A890000004024080B582B000AF03460A46FB8048
:10A8A0001346BB80B7F90630002B05DD01220421D9
:10A8B0001A4806F0FBFB0CE0B7F90630002B08DA6B
:10A8C00000220421154806F0F1FBFB885B429BB295
:10A8D000FB80B7F90430002B05DD002201210F4871
:10A8E00006F0E4FB0CE0B7F90430002B08DA012293
:10A8F00001210A4806F0DAFBBB885B429BB2BB80B1
:10A90000074B1B68B7F906201A64064B1B68B7F99A
:10A9100004209A6300BF0837BD4680BD0000024096
:10A92000986501204C5B012080B400AF804B1B88F0
:10A930001AB2804B1A807E4B5B881AB27E4B1A800B
:10A940007E4B1B881AB27E4B1A807C4B5B881AB2F6
:10A950007C4B1A807C4BB3F900301A46754BB3F927
:10A960000030D31A002BB8BF5B421AB2774B1A8063
:10A97000774BB3F900301A466F4BB3F90030D31A56
:10A98000002BB8BF5B421AB2724B1A80724BB3F9FC
:10A9900000301A466A4BB3F90030D31A002BB8BF07
:10A9A0005B421AB26D4B1A806D4BB3F900301A46F8
:10A9B000644BB3F90030D31A002BB8BF5B421AB214
:10A9C000684B1A805B4BB3F900205F4B1A805A4BDF
:10A9D000B3F900205E4B1A80594BB3F900205E4B4F
:10A9E0001A80584BB3F900205D4B1A80504B9B885E
:10A9F00007EE903AF8EE677A5B4BC3ED007A5B4B5B
:10AA0000B3F900309AB2514BB3F900309BB2134402
:10AA10009BB21AB2554B1A80554BB3F900309AB21B
:10AA20004C4BB3F900309BB213449BB21AB2504B5B
:10AA30001A80504BB3F900309AB2484BB3F900304A
:10AA40009BB213449BB21AB24A4B1A804A4BB3F9D9
:10AA500000309AB2434BB3F900309BB213449BB21F
:10AA60001AB2454B1A80454B1B680133434A1360A9
:10AA7000424B1B680A2B56D13C4BB3F9003007EE12
:10AA8000903AF8EEE76A3D4B1B6807EE903AB8EE55
:10AA9000E77AC6EE877A3A4BC3ED007A344BB3F9C6
:10AAA000003007EE903AF8EEE76A344B1B6807EE89
:10AAB000903AB8EEE77AC6EE877A324BC3ED007A69
:10AAC0002C4BB3F9003007EE903AF8EEE76A2B4BC7
:10AAD0001B6807EE903AB8EEE77AC6EE877A2A4B03
:10AAE000C3ED007A244BB3F9003007EE903AF8EE4C
:10AAF000E76A224B1B6807EE903AB8EEE77AC6EE9B
:10AB0000877A224BC3ED007A184B00221A80184B2B
:10AB100000221A80174B00221A80174B00221A803D
:10AB2000164B00221A6000BFBD465DF8047B7047DB
:10AB3000D00F00207451002028000020D80F0020E2
:10AB4000DE0F0020DA6501207851002076510020C8
:10AB5000E20F0020E40F0020E00F0020E60F0020AD
:10AB6000A05000208C5B012054660120465B012030
:10AB7000785C01202C5C0120D05B0120405000203B
:10AB80004066012070650120A4500020485B012030
:10AB900080B487B000AF87ED010AC7ED000A0F4B04
:10ABA0007B614FF08E433B61D7ED056AD7ED047AA8
:10ABB00086EEA77AD7ED017A67EE276A97ED007ADD
:10ABC000C6EE877AC7ED037AFB6807EE903AB0EEDF
:10ABD000670A1C37BD465DF8047B70470E1F824232
:10ABE00080B400AF064B47F22F525A62054B47F232
:10ABF0002F525A6200BFBD465DF8047B704700BF0C
:10AC0000000400400008004080B483B000AF034659
:10AC1000FB80B7F90630002B02D10023FB8030E027
:10AC2000B7F90630012B2CD11A4B5A68194B1B6807
:10AC30001344184A5360184B5A68174B1B68134447
:10AC4000154A5360134B5A68134B5B68134407EE65
:10AC5000903AB8EEE77AF0EE006AC7EE267AFDEE9B
:10AC6000E77A17EE902A0D4B5A600A4B1A680A4B86
:10AC70001B681A440A4B1B681344094A13600123DA
:10AC8000FB80B7F9063018460C37BD465DF8047BEB
:10AC9000704700BFD00C0020DC0C0020E80C002026
:10ACA000C80F00200000000080B500AF224B00223A
:10ACB0001A70FEF7D9FF214B04225A71204B002253
:10ACC0005A60204B00225A601F4B00225A601B4BD7
:10ACD0000122DA7002E0194B01225A70184B5A68AF
:10ACE000184B5B681344002B0FDB154B5A68154B50
:10ACF0005B6813441846FDF74DFB0DA3D3E9002311
:10AD0000FDF724FE0346002BE5D10C4B00225A70C0
:10AD10000E4B0F4A1A600A4B00225A60094B002260
:10AD20005A60094B00225A6000BF80BDAFF300801B
:10AD3000C8BD6EFC245FEE40FC0E0020F40C002029
:10AD4000D00C0020DC0C0020E80C0020900F00202C
:10AD5000000034430000000080B500AF4A4B0022E1
:10AD60001A70FEF781FF494B04225A71484B0022AA
:10AD70005A60484B00225A60474B00225A60434BAE
:10AD80000122DA704DE0414B02225A70404B5A6862
:10AD9000404B5B6813441846FDF7FCFA36A3D3E931
:10ADA0000023FDF7F1FD0346002B37D03B4BD3EDDD
:10ADB000007A9FED3B7AF4EEC77AF1EE10FA0DDDE2
:10ADC000384BD3ED007A9FED387AF4EEC77AF1EE86
:10ADD00010FA03DD2D4B00225A7122E0314BD3EDE6
:10ADE000007A9FED317AF4EEC77AF1EE10FA03DDC6
:10ADF000264B01225A7114E0284BD3ED007A9FEDC7
:10AE0000287AF4EEC77AF1EE10FA03DD1F4B022226
:10AE10005A7106E01D4B04225A7102E01B4B0422BA
:10AE20005A711B4B5A681B4B5B681344002B0FDB9A
:10AE3000174B5A68174B5B6813441846FDF7AAFA7C
:10AE40000FA3D3E90023FDF781FD0346002B9AD120
:10AE50000E4B00225A70154B154A1A600C4B0022FB
:10AE60005A600C4B00225A600B4B00225A6000BF04
:10AE700080BD00BFAFF3008066AE04DEA997D84066
:10AE8000F59C6AE11822E640FC0E0020F40C00203C
:10AE9000D00C0020DC0C0020E80C002070650120A4
:10AEA0000000C842A450002000000C43900F002076
:10AEB000000034430000000080B500AF484B04227E
:10AEC0005A714DE0464B03225A70464B5A68464B26
:10AED0005B6813441846FDF75DFA3DA3D3E90023F0
:10AEE000FDF734FD0346002B37D0404BD3ED007AFD
:10AEF0009FED3F7AF4EEC77AF1EE10FA0DDD3D4B8F
:10AF0000D3ED007A9FED3C7AF4EEC77AF1EE10FAB9
:10AF100003DD334B00225A7122E0364BD3ED007A29
:10AF20009FED357AF4EEC77AF1EE10FA03DD2C4B83
:10AF300001225A7114E02D4BD3ED007A9FED2C7A4B
:10AF4000F4EEC77AF1EE10FA03DD254B02225A71B6
:10AF500006E0234B04225A7102E0214B04225A716D
:10AF6000204B5A68204B5B6813441846FDF712FAD1
:10AF700019A3D3E90023FDF7E9FC0346002B12D007
:10AF80001E4B93ED007A1E4BD3ED007A37EE277AF5
:10AF9000F0EE006AC7EE267A9FED1A7AF4EEC77AD1
:10AFA000F1EE10FA8ED40E4B00225A700C4B052293
:10AFB0005A71154B4FF000021A60094B0022DA70EB
:10AFC000124B00221A70FEF74FFE00BF80BD00BF7B
:10AFD00088AF6B95D3B2E340F59C6AE11822E64056
:10AFE000F40C0020D00C0020DC0C00207065012047
:10AFF0000000C842A450002000000C43406601201D
:10B00000485B012000600645900F0020FC0E0020E8
:10B01000B0B500AF7EE0544B5A68544B5B681344A4
:10B020001846FDF7B7F904460D46514BD3ED007AAB
:10B0300077EEA77A17EE900AFDF7BEF946A3D3E99B
:10B040000023FDF711FA02460B4620462946FDF77C
:10B050007DFC0346002B22D1454BD3ED007A77EEE1
:10B06000A77A17EE900AFDF7A7F93DA3D3E90023CD
:10B07000FDF742F803460C4625461C463A4B5A68F3
:10B080003A4B5B6813441846FDF784F902460B46B9
:10B0900020462946FDF75AFC0346002B37D0354B96
:10B0A000D3ED007A9FED347AF4EEC77AF1EE10FA20
:10B0B0000DDD324BD3ED007A9FED317AF4EEC77A95
:10B0C000F1EE10FA03DD2F4B00225A711EE02B4BDC
:10B0D000D3ED007A9FED2A7AF4EEC77AF1EE10FAFA
:10B0E00003DD284B01225A7114E0224BD3ED007A84
:10B0F0009FED217AF4EEC77AF1EE10FA03DD214BD1
:10B1000002225A7106E01F4B04225A7102E01D4BC5
:10B1100004225A71144B5A68144B5B68134407EEAF
:10B12000903AB8EEE77A124BD3ED007A77EEA77A31
:10B13000B4EEE77AF1EE10FA3FF56DAF0A4B00225C
:10B140005A600A4B00225A600F4B00225A6000BF1F
:10B15000B0BD00BFAFF30080CDCCCCCCCCCCDC3FBD
:10B1600046D138D7CB82DD40D00C0020DC0C00204B
:10B1700000000020706501200000C842A45000209B
:10B1800000000C43F40C0020E80C002080B485B0D3
:10B1900000AF87ED030AC7ED020A87ED011AC7ED7C
:10B1A000001A97ED017AF1EE046AC7EE267A97ED60
:10B1B000007AB4EEE77AF1EE10FA0DD5D7ED027A07
:10B1C000DFED2F6A87EEA67AD7ED037A77EE277A3E
:10B1D0002C4BC3ED007A48E097ED017AF1EE046A5A
:10B1E000C7EE267A97ED007AB4EEE77AF1EE10FA20
:10B1F00014DBD7ED017AB1EE007A27EE877AF1EE13
:10B20000046AC7EE267A97ED007AB4EEE77AF1EE9B
:10B2100010FA03D81B4AFB68136026E0D7ED017AC9
:10B22000B1EE007A27EE877AF1EE046AC7EE267A4D
:10B2300097ED007AB4EEE77AF1EE10FA15DD97EDAE
:10B24000007AD7ED017AB4EEE77AF1EE10FA0CD578
:10B2500097ED027ADFED0A6AC7EE267A97ED037A58
:10B2600077EE677A074BC3ED007A064B1B6807EE53
:10B27000903AB0EE670A1437BD465DF8047B70471C
:10B2800000B0B346445000202DE9B0432DED028BB1
:10B2900084B000AF034687ED000BFB73FFF738F86F
:10B2A00097F90F30002B37DA27E0474B93ED008BEF
:10B2B000464B1B681846FDF77FF804460D46434B86
:10B2C0005B681846FDF778F8804689463F4B9B68D7
:10B2D0001846FDF771F802460B4643EC152B49EC76
:10B2E000148B45EC134B9FED362BB0EE481AF0EE65
:10B2F000681A97ED000BFFF709F997F90F30184618
:10B30000FDF748F8324BD3E900341A462346FDF7DF
:10B310001DFB0346002BC8D197F90F30002B37DDFA
:10B3200027E0294B93ED008B284B1B681846FDF74F
:10B3300043F804460D46254B5B681846FDF73CF87C
:10B3400080468946214B9B681846FDF735F8024632
:10B350000B4643EC152B49EC148B45EC134B9FED3E
:10B36000182BB0EE481AF0EE681A97ED000BFFF7B5
:10B37000CDF897F90F301846FDF70CF8144BD3E9C8
:10B3800000341A462346FDF7FFFA0346002BC8D1C6
:10B39000104B0022DA70104A4FF000034FF0000407
:10B3A000C2E900340A4A4FF000034FF00004C2E93A
:10B3B000003400BF1037BD46BDEC028BBDE8B08342
:10B3C000FCA9F1D24D62503FB00F0020C40C002008
:10B3D000A00F0020F40C0020A80F002080B582B040
:10B3E00000AF0023FB7178E0424B4FF000021A607F
:10B3F000414B00221A70FEF737FC404B00225A6086
:10B400003F4B00225A603F4B00225A603E4B0122C4
:10B41000DA7032E03D4BD3ED007A3D4B93ED007A8C
:10B42000364B5B6806EE903AF8EEE66AF0EE661A86
:10B43000B0EE471ADFED370AB0EE670AFFF7A6FE57
:10B44000F0EE407A314BC3ED007A304BD3ED007A09
:10B45000314B93ED007A304BD3ED016A2E4B93EDD7
:10B46000026AB0EE462AF0EE661AB0EE471ADFED39
:10B470002B0AB0EE670AFEF7E5F8204B5A68204B1E
:10B480005B68D31A07EE903AB8EEE77A204BD3ED1B
:10B49000007A77EEA77AB4EEE77AF1EE10FAB9D92E
:10B4A000194B0022DA701E4B00221A801D4B00221D
:10B4B0001A80104B4FF000021A60144B4FF000023C
:10B4C0001A600E4B00225A600D4B00225A600D4B41
:10B4D00000225A60FB790133FB71FB79002B83D08A
:10B4E000054B00221A70FEF7BFFB00BF0837BD46B0
:10B4F00080BD00BF900F0020FC0E0020D00C00206B
:10B50000DC0C0020E80C0020F40C0020940F00203C
:10B5100004000020000016C4B80C00206F12833A0B
:10B520007E5000207C50002080B582B000AF002308
:10B53000FB7178E0424B4FF000021A60414B002251
:10B540001A70FEF791FB404B00225A603F4B0022DD
:10B550005A603F4B00225A603E4B0122DA7032E0C3
:10B560003D4BD3ED007A3D4B93ED007A374B5B6852
:10B5700006EE903AF8EEE66AF0EE661AB0EE471A7A
:10B58000DFED370AB0EE670AFFF700FEF0EE407A13
:10B59000314BC3ED007A304BD3ED007A314B93ED54
:10B5A000007A304BD3ED016A2E4B93ED026AB0EE78
:10B5B000462AF0EE661AB0EE471ADFED2B0AB0EE1F
:10B5C000670AFEF73FF8214B5A681F4B5B68D31A96
:10B5D00007EE903AB8EEE77A204BD3ED007A77EE9B
:10B5E000A77AB4EEE77AF1EE10FAB9D9194B002236
:10B5F000DA701E4B00221A801D4B00221A80104B5D
:10B600004FF000021A60144B4FF000021A600E4B0C
:10B6100000225A600D4B00225A600D4B00225A60E6
:10B62000FB790133FB71FB79002B83D0054B0022A2
:10B630001A70FEF719FB00BF0837BD4680BD00BF7A
:10B64000900F0020FC0E0020D00C0020DC0C00200D
:10B65000E80C0020F40C0020940F002004000020CF
:10B6600000001644B80C00206F12833A7E50002070
:10B670007C5000200000000098B500AF504B06221F
:10B680005A7102E04E4B06225A704E4B5A684E4B8E
:10B690005B6813441846FCF77DFE3FA3D3E9002303
:10B6A000FDF754F90346002BECD1454B00225A70AC
:10B6B00021E0464B464A1A60464B474A1A60454BC2
:10B6C0001B681846FCF778FE35A3D3E90023FCF786
:10B6D000CBFE03460C461846214633A3D3E900238C
:10B6E000FCF7ECFF03460C4618462146FDF794F99B
:10B6F00002463A4B1A60334B5A68334B5B6813442B
:10B700001846FCF747FE24A3D3E90023FDF732F9DE
:10B710000346002B0FD02B4B5A682B4B5B6813440E
:10B720001846FCF737FE22A3D3E90023FDF70EF9F4
:10B730000346002BBDD102E0214B07225A70214B5A
:10B740005A68214B5B6813441846FCF723FE1AA382
:10B75000D3E90023FDF7FAF80346002BECD1184B90
:10B7600000225A70164B04225A71164B00225A605E
:10B77000154B00225A601A4B00225A60154B4FF0AD
:10B7800000021A60154B4FF000021A600F4B104A6E
:10B790001A6000BF98BD00BF39484F2382F0B74000
:10B7A0003333333333B34B406666666666265F4099
:10B7B0003F3A959A38C6EF40A3917F6F2462F140DB
:10B7C000F40C0020D00C0020DC0C0020900F002096
:10B7D0000000344388500020333379436850002000
:10B7E000E80C00200000000098B500AF504B062286
:10B7F0005A7102E04E4B04225A704E4B5A684E4B1F
:10B800005B6813441846FCF7C5FD3FA3D3E900234A
:10B81000FDF79CF80346002BECD1454B00225A70F3
:10B8200021E0464B464A1A60464B474A1A60454B50
:10B830001B681846FCF7C0FD35A3D3E90023FCF7CD
:10B8400013FE03460C461846214633A3D3E90023D2
:10B85000FCF734FF03460C4618462146FDF7DCF89A
:10B8600002463A4B1A60334B5A68334B5B681344B9
:10B870001846FCF78FFD24A3D3E90023FDF77AF8DF
:10B880000346002B0FD02B4B5A682B4B5B6813449D
:10B890001846FCF77FFD22A3D3E90023FDF756F8F5
:10B8A0000346002BBDD102E0214B05225A70214BEB
:10B8B0005A68214B5B6813441846FCF76BFD1AA3CA
:10B8C000D3E90023FDF742F80346002BECD1184BD7
:10B8D00000225A70164B04225A71164B00225A60ED
:10B8E000154B00225A601A4B00225A60174B4FF03A
:10B8F00000021A60134B4FF000021A600F4B104AFF
:10B900001A6000BF98BD00BF39484F2382F0B7408E
:10B910003333333333B34B406666666666265F4027
:10B920003F3A959A38C6EF40A3917F6F2462F14069
:10B93000F40C0020D00C0020DC0C0020900F002024
:10B94000000034436850002033337943885000208E
:10B95000E80C00200000000080B500AF70E0564BFE
:10B960005A68564B5B6813441846FCF713FD4AA30C
:10B97000D3E90023FCF7EAFF0346002B05D0504B28
:10B9800004225A714F4B504A1A604B4B5A684B4B2A
:10B990005B6813441846FCF7FDFC3FA3D3E9002382
:10B9A000FCF7E8FF0346002B22D0434B5A68434B79
:10B9B0005B6813441846FCF7EDFC39A3D3E9002378
:10B9C000FCF7C4FF0346002B12D03D4B06225A71F0
:10B9D0003C4B3D4A1A603D4B3D4A1A603B4BD3ED10
:10B9E000007A9FED3C7A67EE877A3B4BC3ED007A95
:10B9F000314B5A68314B5B6813441846FCF7CAFC5C
:10BA000027A3D3E90023FCF7B5FF0346002B00D1A1
:10BA100016E0294B5A68294B5B6813441846FCF71B
:10BA2000B9FC21A3D3E90023FCF790FF0346002BC8
:10BA300000D105E0224B04225A71224B224A1A609F
:10BA40001D4B5A681D4B5B6813441846FCF7A2FC5B
:10BA500017A3D3E90023FCF779FF0346002B7FF4FB
:10BA60007EAF174B04225A71134B00225A60134BBE
:10BA700000225A60194B00225A60144B4FF000020A
:10BA80001A60154B4FF000021A600E4B0E4A1A60F6
:10BA900000BF80BDAFF3008052AFCD04962ADA40DC
:10BAA00002170040854CEB4055773321E830F440D5
:10BAB00056773321E830F440D00C0020DC0C002015
:10BAC000F40C0020900F0020000034438850002028
:10BAD0000000B4430000000068500020E80C002083
:10BAE00080B500AF70E0564B5A68564B5B68134404
:10BAF0001846FCF74FFC4AA3D3E90023FCF726FFC6
:10BB00000346002B05D0504B04225A714F4B504A2C
:10BB10001A604B4B5A684B4B5B6813441846FCF752
:10BB200039FC3FA3D3E90023FCF724FF0346002B95
:10BB300022D0434B5A68434B5B6813441846FCF7CA
:10BB400029FC39A3D3E90023FCF700FF0346002BAF
:10BB500012D03D4B06225A713C4B3D4A1A603D4B78
:10BB60003D4A1A603B4BD3ED007A9FED3C7A67EE7D
:10BB7000877A3B4BC3ED007A314B5A68314B5B6897
:10BB800013441846FCF706FC27A3D3E90023FCF76F
:10BB9000F1FE0346002B00D116E0294B5A68294BD1
:10BBA0005B6813441846FCF7F5FB21A3D3E9002397
:10BBB000FCF7CCFE0346002B00D105E0224B04220B
:10BBC0005A71224B224A1A601D4B5A681D4B5B6802
:10BBD00013441846FCF7DEFB17A3D3E90023FCF758
:10BBE000B5FE0346002B7FF47EAF174B04225A713B
:10BBF000134B00225A60134B00225A60194B00224B
:10BC00005A60174B4FF000021A60124B4FF00002BF
:10BC10001A600E4B0E4A1A6000BF80BDAFF3008061
:10BC200052AFCD04962ADA4002170040854CEB4013
:10BC300055773321E830F44056773321E830F4402B
:10BC4000D00C0020DC0C0020F40C0020900F002011
:10BC500000003443685000200000B443000000009E
:10BC600088500020E80C002080B582B000AF00238F
:10BC7000FB7189E04B4B4FF000021A604A4B0022E7
:10BC80001A70FDF7F1FF494B00225A60484B002221
:10BC90005A60484B00225A60474B0122DA7034E068
:10BCA000464B93ED007A464BD3ED007A77EEA77AB8
:10BCB0003E4B5B6806EE903AF8EEE66AF0EE661AE6
:10BCC000B0EE671ADFED3F0AB0EE470AFFF75EFA03
:10BCD000F0EE407A394BC3ED007A384BD3ED007A61
:10BCE000394B93ED007A384BD3ED016A364B93ED27
:10BCF000026AB0EE462AF0EE661AB0EE471ADFEDA1
:10BD0000330AB0EE670AFDF79DFC284B5B6807EE2F
:10BD1000903AB8EEE77A2A4BD3ED007A77EEA77A1D
:10BD2000B4EEE77AF1EE10FABAD9214B5B6807EE70
:10BD3000903AB8EEE77A224BD3ED007AF1EE677ACB
:10BD400077EEA77AB4EEE77AF1EE10FAA8DA1A4B9A
:10BD50000022DA701E4B00221A801E4B00221A802D
:10BD6000104B4FF000021A60144B4FF000021A60A3
:10BD70000E4B00225A600E4B00225A600D4B0022DF
:10BD80005A60FB790133FB71FB79002B3FF472AFF2
:10BD9000054B00221A70FDF767FF00BF0837BD464C
:10BDA00080BD00BF900F0020FC0E0020D00C0020B2
:10BDB000DC0C0020E80C0020F40C0020940F002084
:10BDC00004000020000016C4B80C00206F12833A53
:10BDD0007E5000207C50002080B582B000AF2A4BFE
:10BDE00000221A70FDF740FF284B00225A60284BB2
:10BDF00000225A60274B00225A60274B0122DA703A
:10BE000005E0264B264A1A60234B04225A711F4B29
:10BE10005A681F4B5B6813441846FCF7BBFA18A31B
:10BE2000D3E90023FCF7B0FD0346002BE9D11B4BFF
:10BE30004FF000021A60184B05225A71164B00226F
:10BE4000DA70124B00225A60114B00225A60114BDB
:10BE500000225A600C4B00221A70FDF705FF0023E8
:10BE60007B6002E07B6801337B607B680D4A934214
:10BE7000F8DD00BF0837BD4680BD00BFAFF30080CE
:10BE800039E245CEEB75D1C0FC0E0020D00C00206D
:10BE9000DC0C0020E80C0020F40C0020900F0020A7
:10BEA0000000B4C27F1A060080B582B000AF224BFA
:10BEB0005B7A032B38D801A252F823F0CDBE0008DC
:10BEC00003BF000809BF00080FBF0008FEF7F4FF1A
:10BED00000237B6002E07B6801337B607B68174A4C
:10BEE0009342F8DDFFF77AFA00233B6002E03B68FB
:10BEF00001333B603B68114A9342F8DDFEF72CFFAB
:10BF000012E0FFF7B9FB0FE0FFF726FD0CE0FEF7AC
:10BF1000D3FF9FED070B6FF05900FFF7B5F9FDF761
:10BF2000B3FDFEF719FF00BF00BF0837BD4680BD57
:10BF300000000000000014C0F40C00209F860100E7
:10BF400080B582B000AF224B5B7A032B37D801A2B9
:10BF500052F823F065BF00089BBF0008A1BF00088E
:10BF6000A7BF0008FEF7A8FF00237B6002E07B6804
:10BF700001337B607B68174A9342F8DDFFF7D4FA00
:10BF800000233B6002E03B6801333B603B68114AA1
:10BF90009342F8DDFEF7E0FE11E0FFF725FC0EE02E
:10BFA000FFF79EFD0BE0FEF787FF9FED070B5A2082
:10BFB000FFF76AF9FDF768FDFEF7CEFE00BF00BF90
:10BFC0000837BD4680BD00BF0000000000001440DF
:10BFD000F40C00209F86010080B500AF4FF4805123
:10BFE0005B4805F04BF80346012B40F0A38059480D
:10BFF00008F084FFFEF7A6F9574806F076FA57488E
:10C0000006F073FAFEF72EF9FEF75AF94FF4C870EE
:10C0100003F076F8524B93F90430DBB20133DBB214
:10C020005AB24F4B1A714E4B93F90430052B40F026
:10C0300081804B4B03221A717CE04A4B5B6A1A46A3
:10C04000494B1A60484B1B681946484808F0E2FE05
:10C05000454B1B6849F22E5293421EDD404B93F92B
:10C060000030DBB20133DBB25AB23D4B1A703C4BAD
:10C0700093F90030072B02DD394B00221A70FEF7CE
:10C080004BFBFEF7ADFD364B93F90020344B9A7015
:10C090004FF4FA7003F034F84CE0334B1B6845F270
:10C0A0002F5293421EDC2E4B93F90030DBB2013B42
:10C0B000DBB25AB22A4B1A70294B93F90030002B8D
:10C0C00002DA274B07221A70FEF726FBFEF788FDDF
:10C0D000234B93F90020224B9A704FF4FA7003F02F
:10C0E0000FF827E04FF48051194804F0C7FF0346CA
:10C0F000012B1FD11E4808F001FF4FF4FA7002F027
:10C10000FFFFFEF739F9174B47F22F525A62194BCE
:10C1100047F22F525A62114806F0C3F90E4806F052
:10C12000C0F90F4B93F90430DBB20133DBB25AB2E2
:10C130000B4B1A710A4B93F90430002B03F00103E7
:10C14000B8BF5B425BB2012B3FF477AF00BF80BD4D
:10C1500000040240146D010848610120A85000202D
:10C16000F40C002000040040D00C0020206D0108D9
:10C17000806C01080008004080B485B000AF002347
:10C18000FB600023BB6000237B6000233B60002337
:10C19000FB6013E00023BB600AE0934AFB689B004E
:10C1A0001A44BB6813440F221A70BB680133BB608A
:10C1B000BB68032BF1DDFB680133FB60FB68032BDD
:10C1C000E8DD0223FB6013E00023BB600AE0864A3F
:10C1D000FB689B001A44BB68134400221A70BB68BA
:10C1E0000133BB60BB68012BF1DDFB680133FB60F1
:10C1F000FB68032BE8DD00237B600023FB60E2E0AB
:10C200000023BB60D8E0784AFB689B001A44BB68F7
:10C2100013441B781A463B68934240F0CA80734926
:10C22000FB689A00BB68134411F81330C3F3010391
:10C23000DBB2012B25D0BB6801336B49FA68920051
:10C240000A4413441A786849FB689B001944BB6888
:10C250000B441B789A4214D9BB68022B11DC624A4A
:10C26000FB689B001A44BB6813441A78BB6801330F
:10C270000132D0B25C49FA6892000A441344024683
:10C280001A705A49FB689A00BB68134411F81330BE
:10C29000C3F38103DBB2012B25D0FB680133524A83
:10C2A0009B001A44BB6813441A784F49FB689B00F3
:10C2B0001944BB680B441B789A4214D9FB68022BC3
:10C2C00011DC494AFB689B001A44BB6813441A7886
:10C2D000FB6801330132D1B2434A9B001A44BB6868
:10C2E00013440A461A704149FB689A00BB6813441C
:10C2F00011F81330C3F30113DBB2012B25D0BB6857
:10C30000013B3949FA6892000A4413441A783649C5
:10C31000FB689B001944BB680B441B789A4214D9F4
:10C32000BB68002B11DD304AFB689B001A44BB68D8
:10C3300013441A78BB68013B0132D0B22A49FA682B
:10C3400092000A44134402461A702849FB689A0076
:10C35000BB68134411F81330C3F38113DBB2012B14
:10C3600025D0FB68013B204A9B001A44BB6813445C
:10C370001A781D49FB689B001944BB680B441B7865
:10C380009A4214D9FB68002B11DD174AFB689B0009
:10C390001A44BB6813441A78FB68013B0132D1B2DE
:10C3A000114A9B001A44BB6813440A461A700123C1
:10C3B0007B60BB680133BB60BB68032B7FF723AF97
:10C3C000FB680133FB60FB68032B7FF719AF3B6809
:10C3D00001333B607B68002B7FF40DAF00BF143747
:10C3E000BD465DF8047B7047086101207865012037
:10C3F00080B500AF4FF47A7002F082FEFEF7ACFC1D
:10C40000FEF706FEFEF704FEFEF756FDFDF79AFF67
:10C410000A4806F06AF80A4806F067F8094B1B68F4
:10C420001946094808F0F6FC084B1B6819460848ED
:10C4300008F0F0FC074808F061FDEFE748610120D3
:10C44000A8500020CC0F0020286D0108C80F002044
:10C45000446D0108806C010890B482B000AF8B4B32
:10C4600093ED007A8A4BD3ED007A37EE277AF0EE1F
:10C47000006AC7EE267AB3EE0E7AF4EEC77AF1EED2
:10C4800010FACCBF01230023DAB2824B1B7807F1EC
:10C4900008010B4403F8042C7F4BD3ED007A9FED89
:10C4A0007F7AF4EEC77AF1EE10FACCBF01230023B5
:10C4B000D9B2784B1B7801335A4203F0030302F0E0
:10C4C000030258BF53420A4607F108010B4403F820
:10C4D000042C704B1B7802335A4203F0030302F022
:10C4E000030258BF534207F108021344002203F825
:10C4F000042C6B4BD3ED007A9FED6A7AF4EEC77A89
:10C50000F1EE10FACCBF01230023D9B2614B1B78A6
:10C5100003335A4203F0030302F0030258BF5342AD
:10C520000A4607F108010B4403F8042C39795E4BE5
:10C530001B781C465D4B1B781A460B4603F0030321
:10C54000D8B25B49A3001A4411F8123060F301031A
:10C5500001F812307979544B1B781C46534B1B78E9
:10C560001A460B4603F00303D8B25149A3001A44FC
:10C5700011F8123060F3830301F81230B9794A4B95
:10C580001B781C46494B1B781A460B4603F00303E5
:10C59000D8B24749A3001A4411F8123060F30513CA
:10C5A00001F81230F979404B1B781C463F4B1B7841
:10C5B0001A460B4603F00303D8B23D49A3001A44C0
:10C5C00011F8123060F3871301F81230374B1B78E3
:10C5D000022B12D83979344B1B781A46334B1B780F
:10C5E000013301F00301C8B2314992001A4411F835
:10C5F000123060F3051301F812302B4B1B78022B1D
:10C6000011D87979284B1B780133284A127801F028
:10C610000301C8B226499B001A4411F8123060F396
:10C62000871301F81230214B1B78002B12D0B979F7
:10C630001D4B1B781A461D4B1B78013B01F0030173
:10C64000C8B21B4992001A4411F8123060F301037A
:10C6500001F81230144B1B78002B11D0F979124BD2
:10C660001B78013B114A127801F00301C8B210494E
:10C670009B001A4411F8123060F3830301F8123062
:10C6800000BF0837BD4690BC704700BF4066012020
:10C69000485B01207A510020706501200000C842EB
:10C6A000A450002000000C43DC0F0020DD0F002010
:10C6B0007865012090B58DB000AF954B00225A727D
:10C6C000944B1B78032B00F2B58301A252F823F0A0
:10C6D000E1C60008A1C800087DCA000859CC0008BE
:10C6E0008D4B1B7818468D4B1B7819468C4A83005E
:10C6F0000B4412F81330C3F30103DBB2002B27D134
:10C70000854B1B781A46854B1B780133854992006F
:10C710000A4413441A78804B1B781C467F4B1B78C5
:10C7200018468049A3000B4403441B789A420FD259
:10C730007A4B1B78022B0BD8FEF76AFC754B002254
:10C740001A70764B1B780133DAB2744B1A70A6E07C
:10C75000714B1B781846714B1B781946704A830041
:10C760000B4412F81330C3F38113DBB2002B27D133
:10C77000694B1B78013B694A12781146694A9B0054
:10C7800013440B441A78644B1B781C46634B1B788C
:10C7900018466449A3000B4403441B789A420FD205
:10C7A0005D4B1B78002B0BD0FFF7CAFB594B0322C4
:10C7B0001A70594B1B78013BDAB2574B1A706EE076
:10C7C000554B1B781846554B1B781946544A830025
:10C7D0000B4412F81330C3F38103DBB2002B27D1D3
:10C7E0004D4B1B7801334D4A127811464D4A9B0040
:10C7F00013440B441A78484B1B781C46474B1B7854
:10C8000018464849A3000B4403441B789A420FD2B0
:10C81000414B1B78022B0BD8FFF746FB3D4B012207
:10C820001A703D4B1B780133DAB23B4B1A7036E07D
:10C83000FEF742FB0023FB6202E0FB6A0133FB626E
:10C84000FB6A394A9342F8DD314B93F90230012BF0
:10C8500001D1FDF777FDFFF707FA0023BB6202E085
:10C86000BB6A0133BB62BB6A2F4A9342F8DDFFF714
:10C87000B3FA00237B6202E07B6A01337B627B6A4E
:10C88000294A9342F8DDFEF70FFA224B02221A7072
:10C89000224B1B78013BDAB2204B1A70CBE2CAE282
:10C8A0001D4B1B7818461D4B1B7819461C4A8300EC
:10C8B0000B4412F81330C3F38103DBB2002B35D1E4
:10C8C000154B1B780133154A12781146154A9B0007
:10C8D00013440B441A78104B1B781C460F4B1B78E3
:10C8E00018461049A3000B4403441B789A421DD2FA
:10C8F000094B1B78022B19D8FEF78AFB054B012246
:10C900001A70054B1B780133DAB2034B1A70B4E08E
:10C91000F40C00207A510020DC0F0020DD0F0020F5
:10C9200078650120086101209F8601008B4B1B78F0
:10C9300018468B4B1B7819468A4A83000B4412F821
:10C940001330C3F30103DBB2002B27D1834B1B78D9
:10C950001A46834B1B780133834992000A441344DF
:10C960001A787E4B1B781C467D4B1B7818467E49F7
:10C97000A3000B4403441B789A420FD2784B1B78D8
:10C98000022B0BD8FFF7DCFA784B00221A70744B9D
:10C990001B780133DAB2724B1A706EE06F4B1B7862
:10C9A00018466F4B1B7819466E4A83000B4412F8E9
:10C9B0001330C3F30113DBB2002B27D1674B1B7875
:10C9C0001A46674B1B78013B674992000A4413449F
:10C9D0001A78624B1B781C46614B1B7818466249DB
:10C9E000A3000B4403441B789A420FD25C4B1B7884
:10C9F000002B0BD0FFF758FA5C4B02221A70584BF1
:10CA00001B78013BDAB2564B1A7036E0FEF754FA47
:10CA100000233B6202E03B6A01333B623B6A544ABB
:10CA20009342F8DD534B93F90230012B01D1FDF70E
:10CA300089FCFFF719F90023FB6102E0FB69013370
:10CA4000FB61FB694A4A9342F8DDFFF7C5F9002311
:10CA5000BB6102E0BB690133BB61BB69444A9342DD
:10CA6000F8DDFEF721F9414B03221A703B4B1B788E
:10CA7000013BDAB2394B1A70DDE1DCE1374B1B7850
:10CA80001846374B1B781946364A83000B4412F878
:10CA90001330C3F30113DBB2002B27D12F4B1B78CC
:10CAA0001A462F4B1B78013B2F4992000A4413442E
:10CAB0001A782A4B1B781C46294B1B7818462A49A2
:10CAC000A3000B4403441B789A420FD2244B1B78DB
:10CAD000002B0BD0FEF79CFA244B02221A70204B3D
:10CAE0001B78013BDAB21E4B1A70B4E01B4B1B786B
:10CAF00018461B4B1B7819461A4A83000B4412F840
:10CB00001330C3F38103DBB2002B35D1134B1B78F9
:10CB10000133134A12781146134A9B0013440B4405
:10CB20001A780E4B1B781C460D4B1B7818460E4985
:10CB3000A3000B4403441B789A421DD2074B1B7879
:10CB4000022B19D8FFF7FCF9084B01221A70034B8E
:10CB50001B780133DAB2014B1A707CE0DC0F002045
:10CB6000DD0F002078650120086101207A51002046
:10CB70009F860100F40C00209D4B1B7818469D4BAE
:10CB80001B7819469C4A83000B4412F81330C3F3F8
:10CB90008113DBB2002B27D1954B1B78013B954AC3
:10CBA00012781146954A9B0013440B441A78904B17
:10CBB0001B781C468F4B1B7818469049A3000B44EA
:10CBC00003441B789A420FD2894B1B78002B0BD061
:10CBD000FFF76AF98A4B03221A70854B1B78013BD9
:10CBE000DAB2834B1A7036E0FEF766F900237B61F8
:10CBF00002E07B6901337B617B69824A9342F8DD05
:10CC0000814B93F90230012B01D1FDF79BFBFFF71C
:10CC10002BF800233B6102E03B6901333B613B6938
:10CC2000784A9342F8DDFFF7D7F80023FB6002E073
:10CC3000FB680133FB60FB68724A9342F8DDFEF744
:10CC400033F86F4B00221A706A4B1B780133DAB24B
:10CC5000684B1A70EFE0EEE0654B1B781846654BA9
:10CC60001B781946644A83000B4412F81330C3F34F
:10CC70008113DBB2002B27D15D4B1B78013B5D4A52
:10CC8000127811465D4A9B0013440B441A78584BA6
:10CC90001B781C46574B1B7818465849A3000B4479
:10CCA00003441B789A420FD2514B1B78002B0BD0B8
:10CCB000FEF7AEF9524B03221A704D4B1B78013B25
:10CCC000DAB24B4B1A70B4E0494B1B781846494B0B
:10CCD0001B781946484A83000B4412F81330C3F3FB
:10CCE0000113DBB2002B27D1414B1B781A46414B75
:10CCF0001B78013B414992000A4413441A783C4B8B
:10CD00001B781C463B4B1B7818463C49A3000B4440
:10CD100003441B789A420FD2364B1B78002B0BD062
:10CD2000FFF70EF9364B02221A70324B1B78013B8B
:10CD3000DAB2304B1A707CE02D4B1B7818462D4B25
:10CD40001B7819462C4A83000B4412F81330C3F3A6
:10CD50000103DBB2002B27D1254B1B781A46254B4C
:10CD60001B780133254992000A4413441A78204B5A
:10CD70001B781C461F4B1B7818462049A3000B4408
:10CD800003441B789A420FD21A4B1B78022B0BD804
:10CD9000FFF78AF81A4B00221A70164B1B780133E2
:10CDA000DAB2144B1A7044E0FEF786F80023BB6039
:10CDB00002E0BB680133BB60BB68124A9342F8DDF6
:10CDC000114B93F90230012B01D1FDF7BBFAFEF7AD
:10CDD0004BFF00237B6002E07B6801337B607B6854
:10CDE000084A9342F8DDFEF7F7FF00233B6010E0AE
:10CDF000DC0F0020DD0F0020786501200861012094
:10CE00007A5100209F860100F40C00203B6801331A
:10CE10003B603B680A4A9342F8DDFDF745FF094B4A
:10CE200001221A70084B1B780133DAB2064B1A70D4
:10CE300001E000E000BF00BF3437BD4690BD00BF39
:10CE40009F8601007A510020DC0F002080B500AFE2
:10CE5000FCF7CCFF2A4B00221A70294B1A78294B79
:10CE60001A70294B00221A70FFF7F6FA254B1B782F
:10CE70001846234B1B781A46244983001A4411F89C
:10CE80001230012060F3051301F81230FFF774F936
:10CE9000FDF70AFF1B4B00221A70194B1B78013358
:10CEA000DAB2174B1A7005E0FFF7D6FAFFF764F90C
:10CEB000FFF700FC134B1B78012BF5D9114B1B78A6
:10CEC000032BF1D80E4B1B78012BEDD8FDF7F4FFA7
:10CED000FFF7C2FAFDF736FA0D4B07221A70FDF77D
:10CEE0001BFC4FF47A7002F00BF9FCF7F3FFFDF72F
:10CEF00065F9074B00221A70FDF70EFC00BF80BDDC
:10CF0000DD0F0020DC0F00207A5100207865012021
:10CF1000F40C002080B483B000AF786000BF0C3701
:10CF2000BD465DF8047B70472DE9B04F2DED028BB7
:10CF300082B000AF78607B68BF4A934240F00485BE
:10CF4000BE4B1B7A002B04D0012B00F0358400F07F
:10CF5000FCBCFCF70BFFBA4B5B6A1A46B94B1A6074
:10CF6000B94B5B6A1A46B94B1A60B64B1B68C3F5DE
:10CF7000EA432F33B34A1360B44B1B68C3F5EA434B
:10CF80002F33B24A1360AD4B93F903301BB21846EE
:10CF9000FDF73AFE03465AB2A84BDA70AB4B1A685B
:10CFA000A84B1B681A44AA4B1B681344A84A136079
:10CFB000FDF716FEA34B1B6807EE903AF8EEE77AF2
:10CFC000DFEDA40AB0EE670AFDF7E2FDF0EE407A6D
:10CFD000A14BC3ED007A9D4B1B6807EE903AF8EE2B
:10CFE000E77ADFED9C0AB0EE670AFDF7D1FDF0EEBF
:10CFF000407A9A4BC3ED007A974B93ED007A974BAA
:10D00000D3ED007A37EE277AF0EE006AC7EE267A83
:10D01000934BC3ED007AFDF7BBF9B0EE407AF0EE2A
:10D02000607A904B83ED007B844B5B79062B00F29A
:10D03000688101A252F823F055D00008C1D0000841
:10D040002DD1000899D10008F9D1000821D200089B
:10D050008DD20008844BD3ED007A844B93ED007A97
:10D06000834BD3ED006A824B93ED016A804BD3ED85
:10D07000025AF0EE652AB0EE462AF0EE661A9FEDEF
:10D080007D1AF0EE470AB0EE670AFBF795FE7A4B81
:10D09000D3ED007A784B93ED017A774BD3ED026AAA
:10D0A000F0EE661AB0EE471AF0EE670A9FED690AD5
:10D0B000FCF7CEFB614A93796FF30003937121E192
:10D0C0006E4BD3ED007A694B93ED007A684BD3ED4C
:10D0D000006A674B93ED016A654BD3ED025AF0EE9F
:10D0E000652AB0EE462AF0EE661A9FED621AF0EE5F
:10D0F000470AB0EE670AFBF727FF5F4BD3ED007AD4
:10D100005D4B93ED017A5C4BD3ED026AF0EE661A4B
:10D11000B0EE471AF0EE670A9FED4E0AFCF798FB57
:10D12000464A93796FF300039371EBE0544BD3EDD0
:10D13000007A4D4B93ED007A4D4BD3ED006A4C4B8A
:10D1400093ED016A4A4BD3ED025AF0EE652AB0EE38
:10D15000462AF0EE661A9FED471AF0EE470AB0EE47
:10D16000670AFBF7C3FF444BD3ED007A424B93EDC4
:10D17000017A414BD3ED026AF0EE661AB0EE471A1F
:10D18000F0EE670A9FED330AFCF762FB2B4A9379B6
:10D190006FF300039371B5E03A4B1B681846FBF739
:10D1A0000BF904460D462F4B93ED008B364B1B6855
:10D1B0001846FBF701F980468946334B5B681846F1
:10D1C000FBF7FAF882468B462F4B9B681846FBF715
:10D1D000F3F802460B4643EC152B4BEC14AB49EC31
:10D1E000138B9FED132BB0EE481AF0EE681A45EC46
:10D1F000104BFDF78BF985E01F4BD3ED007A1E4BEA
:10D2000093ED017A1C4BD3ED026AF0EE661AB0EE94
:10D21000471AF0EE670A9FED0F0AFCF719FB71E061
:10D22000064A93796FF3000393716BE0AFF30080CC
:10D23000FCA9F1D24D62503F48610120F40C00205E
:10D2400000040040D00C002000080040DC0C00204E
:10D25000CC0F00206F12833A805000208C500020A9
:10D26000E8500020B00F002070650120A45000207D
:10D27000AC0C002017B75138B80C00202400002057
:10D2800020000020980F0020C40C0020864BD3ED16
:10D29000007A864B93ED007A854BD3ED006A844B80
:10D2A00093ED016A824BD3ED025AF0EE652AB0EE9F
:10D2B000462AF0EE661A9FED7F1AF0EE470AB0EEAE
:10D2C000670AFCF7A3F87C4BD3ED007A7B4B93ED18
:10D2D000007A774BD3ED006A754B93ED016A744B7E
:10D2E000D3ED025AF0EE652AB0EE462AF0EE661A49
:10D2F0009FED701AF0EE470AB0EE670AFCF714F9DA
:10D3000000E000BF6E4B93F90130012B16D16D4B3D
:10D31000D3ED007A9FED6C7AF4EEC77AF1EE10FA55
:10D3200040F1FF80674B93ED007A684BD3ED007AB4
:10D3300077EE277A634BC3ED007AF2E0604B93F906
:10D340000130022B16D15F4BD3ED007A9FED5E7A50
:10D35000F4EEC77AF1EE10FA40F1E380594B93ED09
:10D36000007A5B4BD3ED007A77EE277A554BC3ED0D
:10D37000007AD6E0524B93F90130032B14D1514B74
:10D38000D3ED007AF5EEC07AF1EE10FA40F3C980E1
:10D390004C4B93ED007A4E4BD3ED007A77EE677AE3
:10D3A000484BC3ED007ABCE0454B93F90130042BA8
:10D3B00024D13D4B1B681846FAF7FEFF38A3D3E98A
:10D3C0000023FBF7C3FA0346002B00F0AA80364B7C
:10D3D00093ED007A3F4BD3ED007A77EE277A324B0C
:10D3E000C3ED007A344B93ED007A3A4BD3ED007ADB
:10D3F00077EE677A304BC3ED007A92E0304B93F9C9
:10D400000130052B21D1284BD3ED007A9FED2E7AE8
:10D41000F4EEC77AF1EE10FA40F38380224B93EDDD
:10D42000007A2C4BD3ED007A77EE677A1E4BC3ED72
:10D43000007A214B93ED007A264BD3ED007A77EEFC
:10D44000277A1D4BC3ED007A6BE01D4B93F9013039
:10D45000062B41D1184B1B681846FAF7ADFF10A3F5
:10D46000D3E90023FBF772FA0346002B59D00E4B89
:10D4700093ED007A174BD3ED007A77EE677A0A4B7B
:10D48000C3ED007A0C4B93ED007A124BD3ED007A8A
:10D4900077EE277A084BC3ED007A42E0AFF30080C5
:10D4A0006666666666266F40685000208C500020D5
:10D4B000B80C00206F12833A885000208050002062
:10D4C000F40C0020900F00200000344308000020DE
:10D4D0000C000020100000208E4B93F90130072B28
:10D4E0001FD18D4BD3ED007A9FED8C7AF4EEC77A85
:10D4F000F1EE10FA15DD8A4B93ED007A894BD3EDEE
:10D50000007A77EE277A864BC3ED007A824B93ED53
:10D51000007A844BD3ED007A77EE677A7E4BC3EDC9
:10D52000007A814BD3ED007AF5EE407AF1EE10FAF5
:10D530001CD17E4BD3ED007A7D4B93ED007A7D4B71
:10D54000D3ED006A7B4B93ED016A7A4BD3ED025A1F
:10D55000F0EE652AB0EE462AF0EE661A9FED761AD6
:10D56000F0EE470AB0EE670AFBF792FE734BB3F991
:10D5700000309AB2724BB3F900309BB213449AB2A6
:10D58000704BB3F900309BB213449AB26E4BB3F9AF
:10D5900000309BB213449AB26C4BB3F900309BB28B
:10D5A00013449AB26A4BB3F900309BB213449AB257
:10D5B000684BB3F900309BB213449AB2664BB3F98F
:10D5C00000309BB213449BB21AB2644B1A80644B76
:10D5D000B3F900309AB2634BB3F900309BB21344F5
:10D5E0009AB2614BB3F900309BB213449AB25F4BCD
:10D5F000B3F900309BB213449AB25D4BB3F90030DB
:10D600009BB213449AB25B4BB3F900309BB2134404
:10D610009AB2594BB3F900309BB213449AB2574BAC
:10D62000B3F900309BB213449BB21AB2544B1A8028
:10D63000544BD3E900014FF00002534BFBF790F934
:10D640000346002B2BD04F4BD3E90034184621461C
:10D65000FBF7BAF901464D4B83FB01235A10CB1758
:10D66000D21A13469B001344CA1A002A17D1484BFA
:10D6700093ED007A474BD3ED007A37EE277A464B8D
:10D680001B68F0EE006AC7EE267A444A9B001344FA
:10D69000C3ED007A404B1B6801333F4A1360404B97
:10D6A0001B6801333E4A13603D4B1A683D4B83FBB8
:10D6B00002131911D317CB1A322101FB03F3D31A2A
:10D6C000002B1BD1384B1B68384A9B0013441B6846
:10D6D0001846FAF771FE4FF03332354BFAF7C4FEB5
:10D6E00003460C4618462146FBF796F90246314B95
:10D6F0001A602D4B1B6801332B4A1360174BB3F98B
:10D7000000201F4BB3F9003019461046FDF7C2F850
:10D710001BE100BFF40C00208850002000003443BF
:10D720006850002010000020980F0020900F00206B
:10D73000E8500020B80C00206F12833A6C50002093
:10D74000845000206E500020605000207C5000204B
:10D75000765000206250002086500020D8650120BD
:10D76000745000207250002090500020785000200B
:10D770007E5000207A50002070500020645000201D
:10D78000445B0120C00F002000409F406766666632
:10D79000805000208C500020485000207C510020F8
:10D7A0004C5000201F85EB51505000202C000020D1
:10D7B0003333B33FE80F0020FCF7D8FA694B5B6ABC
:10D7C0001A46694B1A60694B5B6A1A46684B1A60C5
:10D7D000654B1B68C3F5EA432F33634A1360644B00
:10D7E0001B68C3F5EA432F33614A1360614B93F919
:10D7F00003301BB21846FDF707FA03465AB25D4BD9
:10D80000DA705B4B1A68584B1B681A445A4B1B68FA
:10D810001344594A1360FDF7E3F9534B1B6807EEB5
:10D82000903AF8EEE77ADFED550AB0EE670AFDF7B9
:10D83000AFF9F0EE407A524BC3ED007A4C4B1B68C7
:10D8400007EE903AF8EEE77ADFED4C0AB0EE670AA1
:10D85000FDF79EF9F0EE407A4A4BC3ED007AFCF7F3
:10D8600097FDB0EE407AF0EE607A474B83ED007B97
:10D87000464BD3E900014FF00002454BFBF770F82F
:10D880000346002B26D0414BD3E9003418462146ED
:10D89000FBF79AF801463F4B83FB01235A10CB1745
:10D8A000D21A13469B001344CA1A002A12D1364BCF
:10D8B000D3E90034384A156818462146FBF7ACF81E
:10D8C0000146364AAB0013441960334B1B680133E1
:10D8D000314A1360324B1B680133314A1360304BBD
:10D8E00019682C4B83FB01235A10CB17D21A13460D
:10D8F0009B001344CA1A002A1BD12A4B1B682A4AD0
:10D900009B0013441B681846FAF756FD4FF033325C
:10D91000264BFAF7A9FD03460C4618462146FBF7AD
:10D920007BF80246224B1A601E4B1B6801331D4ACE
:10D930001360204BB3F900201F4BB3F90030194698
:10D940001046FCF7A7FF00E000BF7B681B4A93422C
