:020000040800F2
:100000000000022005E8000899DC00089FDC0008D9
:10001000A5DC0008ABDC0008B1DC00080000000033
:10002000000000000000000000000000B7DC000835
:10003000C5DC000800000000D3DC0008E1DC00089B
:1000400055E8000855E8000855E8000855E800089C
:10005000EDDC000855E8000855E8000855E8000800
:1000600055E8000855E8000855E8000855E800087C
:1000700055E8000855E8000855E8000855E800086C
:1000800055E8000855E80008F9DC000855E80008C4
:1000900055E8000855E8000855E8000855E800084C
:1000A00055E8000815DD000855E8000855E8000887
:1000B00029DD00083DDD000851DD000855E8000895
:1000C00055E8000855E8000855E8000855E800081C
:1000D00055E8000855E8000855E8000855E800080C
:1000E00055E8000855E8000855E8000855E80008FC
:1000F00065DD000879DD00088DDD000855E80008A1
:1001000055E8000855E80008A1DD000855E800089A
:1001100055E8000855E8000855E8000855E80008CB
:10012000B5DD000855E80008C9DD000855E80008FD
:1001300055E80008000000000000000055E8000835
:1001400055E8000855E8000855E8000855E800089B
:1001500055E8000855E8000855E8000855E800088B
:1001600055E8000855E8000855E8000855E800087B
:1001700055E8000855E800080000000000000000F5
:0801800055E8000855E80008ED
:1080000010B5054C237833B9044B13B10448AFF3D2
:1080100000800123237010BDF80100200000000043
:10802000988D010808B5034B1BB103490348AFF312
:10803000008008BD00000000FC010020988D0108B0
:10804000034613F8012B002AFBD1181A0138704798
:1080500001F0FF01102A2BDB10F0070F08D010F8F9
:10806000013B013A8B422DD010F0070F42B3F6D1FD
:10807000F0B441EA012141EA014122F007047FF016
:1080800000070023F0E80256083C85EA010586EA6D
:10809000010685FA47F5A3FA87F586FA47F6A5FAA9
:1080A00087F68EB9EED1F0BC01F0FF0102F00702B5
:1080B00032B110F8013B013A83EA010313B1F8D160
:1080C0000020704701387047002D06BF3546033841
:1080D000073815F0010F07D1013015F4807F02BF7A
:1080E000013015F4C03F0130F0BC0138704700BFCB
:1080F00081F0004102E000BF83F0004330B54FEA59
:1081000041044FEA430594EA050F08BF90EA020FC5
:108110001FBF54EA000C55EA020C7FEA645C7FEA58
:10812000655C00F0E2804FEA5454D4EB5555B8BF7B
:108130006D420CDD2C4480EA020281EA030382EAEC
:10814000000083EA010180EA020281EA0303362D7E
:1081500088BF30BD11F0004F4FEA01314FF4801C51
:108160004CEA113102D0404261EB410113F0004F63
:108170004FEA03334CEA133302D0524263EB43031A
:1081800094EA050F00F0A780A4F10104D5F1200EB8
:108190000DDB02FA0EFC22FA05F2801841F1000113
:1081A00003FA0EF2801843FA05F359410EE0A5F1E7
:1081B00020050EF1200E012A03FA0EFC28BF4CF018
:1081C000020C43FA05F3C01851EBE37101F00045CE
:1081D00007D54FF0000EDCF1000C7EEB00006EEBDB
:1081E0000101B1F5801F1BD3B1F5001F0CD3490865
:1081F0005FEA30004FEA3C0C04F101044FEA4452BC
:1082000012F5800F80F09A80BCF1004F08BF5FEA42
:10821000500C50F1000041EB045141EA050130BD22
:108220005FEA4C0C404141EB010111F4801FA4F1C5
:108230000104E9D191F0000F04BF01460020B1FA1A
:1082400081F308BF2033A3F10B03B3F120020CDA52
:108250000C3208DD02F1140CC2F10C0201FA0CF030
:1082600021FA02F10CE002F11402D8BFC2F1200C95
:1082700001FA02F120FA0CFCDCBF41EA0C0190404B
:10828000E41AA2BF01EB0451294330BD6FEA040494
:108290001F3C1CDA0C340EDC04F11404C4F120027F
:1082A00020FA04F001FA02F340EA030021FA04F391
:1082B00045EA030130BDC4F10C04C4F1200220FAE8
:1082C00002F001FA04F340EA0300294630BD21FA26
:1082D00004F0294630BD94F0000F83F4801306BFEC
:1082E00081F480110134013D4EE77FEA645C18BFE0
:1082F0007FEA655C29D094EA050F08BF90EA020F77
:1083000005D054EA000C04BF1946104630BD91EA6E
:10831000030F1EBF0021002030BD5FEA545C05D171
:108320004000494128BF41F0004130BD14F58004B0
:108330003CBF01F5801130BD01F0004545F0FE4124
:1083400041F470014FF0000030BD7FEA645C1ABF59
:10835000194610467FEA655C1CBF0B46024650EA90
:10836000013406BF52EA033591EA030F41F40021BC
:1083700030BD00BF90F0000F04BF0021704730B542
:108380004FF4806404F132044FF000054FF0000117
:1083900050E700BF90F0000F04BF0021704730B5D8
:1083A0004FF4806404F1320410F0004548BF4042AD
:1083B0004FF000013EE700BF42004FEAE2014FEA02
:1083C00031014FEA02701FBF12F07F4393F07F4FDD
:1083D00081F06051704732F07F4208BF704793F0E0
:1083E0007F4F04BF41F40021704730B54FF46074F3
:1083F00001F0004521F000411CE700BF50EA0102F6
:1084000008BF704730B54FF000050AE050EA01029E
:1084100008BF704730B511F0004502D5404261EB0E
:1084200041014FF4806404F132045FEA915C3FF44F
:10843000D8AE4FF003025FEADC0C18BF03325FEAEC
:10844000DC0C18BF033202EBDC02C2F1200300FA9D
:1084500003FC20FA02F001FA03FE40EA0E0021FAC2
:1084600002F11444BDE600BF70B54FF0FF0C4CF4B0
:10847000E06C1CEA11541DBF1CEA135594EA0C0F62
:1084800095EA0C0F00F0DEF82C4481EA030621EA9D
:108490004C5123EA4C5350EA013518BF52EA0335D8
:1084A00041F4801143F4801338D0A0FB02CE4FF08A
:1084B0000005E1FB02E506F00042E0FB03E54FF0BA
:1084C0000006E1FB03569CF0000F18BF4EF0010EB2
:1084D000A4F1FF04B6F5007F64F5407404D25FEAAE
:1084E0004E0E6D4146EB060642EAC62141EA555161
:1084F0004FEAC52040EA5E504FEACE2EB4F1FD0CA3
:1085000088BFBCF5E06F1ED8BEF1004F08BF5FEA20
:10851000500E50F1000041EB045170BD06F00046D2
:1085200046EA010140EA020081EA0301B4EB5C047F
:10853000C2BFD4EB0C0541EA045170BD41F4801177
:108540004FF0000E013C00F3AB8014F1360FDEBF9C
:10855000002001F0004170BDC4F10004203C35DA78
:108560000C341BDC04F11404C4F1200500FA05F3FB
:1085700020FA04F001FA05F240EA020001F000429C
:1085800021F0004110EBD37021FA04F642EB060112
:108590005EEA430E08BF20EAD37070BDC4F10C043C
:1085A000C4F1200500FA04F320FA05F001FA04F200
:1085B00040EA020001F0004110EBD37041F10001EC
:1085C0005EEA430E08BF20EAD37070BDC4F12005F7
:1085D00000FA05F24EEA020E20FA04F301FA05F25F
:1085E00043EA020321FA04F001F0004121FA04F207
:1085F00020EA020000EBD3705EEA430E08BF20EAD7
:10860000D37070BD94F0000F0FD101F00046400010
:1086100041EB010111F4801F08BF013CF7D041EA92
:10862000060195F0000F18BF704703F00046520096
:1086300043EB030313F4801F08BF013DF7D043EA67
:108640000603704794EA0C0F0CEA135518BF95EA1D
:108650000C0F0CD050EA410618BF52EA4306D1D1A4
:1086600081EA030101F000414FF0000070BD50EAC3
:10867000410606BF1046194652EA430619D094EA4D
:108680000C0F02D150EA013613D195EA0C0F05D137
:1086900052EA03361CBF104619460AD181EA03018B
:1086A00001F0004141F0FE4141F470014FF0000043
:1086B00070BD41F0FE4141F4780170BD70B54FF0DE
:1086C000FF0C4CF4E06C1CEA11541DBF1CEA13555E
:1086D00094EA0C0F95EA0C0F00F0A7F8A4EB050440
:1086E00081EA030E52EA03354FEA013100F0888037
:1086F0004FEA03334FF0805545EA131343EA126300
:108700004FEA022245EA111545EA10654FEA0026B4
:108710000EF000419D4208BF964244F1FD0404F56D
:10872000407402D25B084FEA3202B61A65EB0305C9
:108730005B084FEA32024FF480104FF4002CB6EB86
:10874000020E75EB030E22BFB61A754640EA0C0006
:108750005B084FEA3202B6EB020E75EB030E22BF46
:10876000B61A754640EA5C005B084FEA3202B6EB87
:10877000020E75EB030E22BFB61A754640EA9C0046
:108780005B084FEA3202B6EB020E75EB030E22BF16
:10879000B61A754640EADC0055EA060E18D04FEAD4
:1087A000051545EA16754FEA06164FEAC30343EA74
:1087B00052734FEAC2025FEA1C1CC0D111F4801F41
:1087C0000BD141EA00014FF000004FF0004CB6E73A
:1087D00011F4801F04BF01430020B4F1FD0C88BFD9
:1087E000BCF5E06F3FF6AFAEB5EB030C04BFB6EBE4
:1087F000020C5FEA500C50F1000041EB045170BDD7
:108800000EF0004E4EEA113114EB5C04C2BFD4EB03
:108810000C0541EA045170BD41F480114FF0000E87
:10882000013C90E645EA060E8DE60CEA135594EA03
:108830000C0F08BF95EA0C0F3FF43BAF94EA0C0F06
:108840000AD150EA01347FF434AF95EA0C0F7FF47B
:1088500025AF104619462CE795EA0C0F06D152EACF
:1088600003353FF4FDAE1046194622E750EA4106B3
:1088700018BF52EA43067FF4C5AE50EA41047FF4C4
:108880000DAF52EA43057FF4EBAE12E74FF0FF3C29
:1088900006E000BF4FF0010C02E000BF4FF0010CFA
:1088A0004DF804CD4FEA410C7FEA6C5C4FEA430C73
:1088B00018BF7FEA6C5C1BD001B050EA410C0CBFC2
:1088C00052EA430C91EA030F02BF90EA020F002024
:1088D000704710F1000F91EA030F58BF994208BF8B
:1088E00090422CBFD8176FEAE37040F00100704748
:1088F0004FEA410C7FEA6C5C02D150EA013C07D19F
:108900004FEA430C7FEA6C5CD6D152EA033CD3D0E9
:108910005DF8040B704700BF8446104662468C46E3
:108920001946634600E000BF01B5FFF7B7FF002816
:1089300048BF10F1000F01BD4DF808EDFFF7F4FF3F
:108940000CBF012000205DF808FB00BF4DF808EDCA
:10895000FFF7EAFF34BF012000205DF808FB00BFED
:108960004DF808EDFFF7E0FF94BF012000205DF80F
:1089700008FB00BF4DF808EDFFF7CEFF94BF0120C4
:1089800000205DF808FB00BF4DF808EDFFF7C4FFBD
:1089900034BF012000205DF808FB00BF4FEA410C06
:1089A0007FEA6C5C02D150EA013C0AD14FEA430CE9
:1089B0007FEA6C5C02D152EA033C02D14FF0000026
:1089C00070474FF0010070474FEA410212F5001264
:1089D00015D211D56FF47873B3EB625212D94FEA06
:1089E000C12343F0004343EA505311F0004F23FAF0
:1089F00002F018BF404270474FF00000704750EA45
:108A0000013005D111F0004008BF6FF00040704701
:108A10004FF00000704700BF4A0011D212F500125B
:108A200011D20DD56FF47873B3EB62520ED44FEAC6
:108A3000C12343F0004343EA505323FA02F0704746
:108A40004FF00000704750EA013002D14FF0FF3084
:108A500070474FF0000070474FEA4102B2F1E04327
:108A600024BFB3F5001CDCF1FE5C0DD901F0004C15
:108A70004FEAC0024CEA5070B2F1004F40EB830065
:108A800008BF20F00100704711F0804F21D113F191
:108A90003872BCBF01F00040704741F480114FEACA
:108AA0005252C2F11802C2F1200C10FA0CF320FA53
:108AB00002F018BF40F001004FEAC1234FEAD32370
:108AC00003FA0CFC40EA0C0023FA02F34FEA4303DA
:108AD000CCE77FEA625307D150EA01331EBF4FF063
:108AE000FE4040F44000704701F0004040F0FE407E
:108AF00040F40000704700BF53B94AB9002908BFCD
:108B000000281CBF4FF0FF314FF0FF3000F072B96A
:108B1000ADF1080C6DE904CE00F006F8DDF804E0D4
:108B2000DDE9022304B070472DE9F047089E0446B2
:108B30008846002B4BD18A42154667D9B2FA82F299
:108B40004AB1C2F1200701FA02F320FA07F7954073
:108B500047EA030894404FEA154E230CB8FBFEF792
:108B60001FFA85FC0EFB178843EA084307FB0CF14C
:108B7000994209D9EB1807F1FF3080F01B81994227
:108B800040F21881023F2B445B1AA4B2B3FBFEF003
:108B90000EFB103344EA034400FB0CFCA44509D946
:108BA0002C1900F1FF3380F00781A44540F20481C5
:108BB00002382C4440EA0740A4EB0C0400271EB105
:108BC000D4400023C6E900433946BDE8F0878B4214
:108BD00009D9002E00F0EB800027C6E900013846D5
:108BE0003946BDE8F087B3FA83F7002F47D18B42AF
:108BF00002D3824200F2FA80841A61EB030301205F
:108C00009846002EE0D0C6E90048DDE702B9FFDE55
:108C1000B2FA82F2002A40F08F80491B4FEA154ECB
:108C20001FFA85F80127B1FBFEFC230C0EFB1C117B
:108C300043EA014308FB0CF1994207D9EB180CF108
:108C4000FF3002D2994200F2CD808446591AA3B275
:108C5000B1FBFEF00EFB101443EA044408FB00F8DD
:108C6000A04507D92C1900F1FF3302D2A04500F22C
:108C7000B6801846A4EB080440EA0C409FE7C7F111
:108C8000200CBB4022FA0CFE4EEA030E01FA07F458
:108C900020FA0CF521FA0CF34FEA1E482543B3FBEA
:108CA000F8F92C0C08FB19331FFA8EFA44EA034337
:108CB00009FB0AF49C4202FA07F200FA07F10BD909
:108CC0001EEB030309F1FF3080F087809C4240F2E5
:108CD0008480A9F1020973441B1BADB2B3FBF8F009
:108CE00008FB103345EA034400FB0AFAA24508D901
:108CF0001EEB040400F1FF336BD2A24569D90238A0
:108D0000744440EA0940A0FB0289A4EB0A044C45E4
:108D1000C2464B4654D351D0002E69D0B1EB0A0560
:108D200064EB030404FA0CFCFD40FC404CEA05052E
:108D3000C6E90054002747E7C2F1200320FA03F7F1
:108D4000954001FA02F021FA03F34FEA154E384339
:108D5000010CB3FBFEF71FFA85F80EFB173341EA4F
:108D6000034107FB08F38B4204FA02F407D96918A0
:108D700007F1FF3C2FD28B422DD9023F2944CB1A59
:108D800081B2B3FBFEF00EFB103341EA034100FB5E
:108D900008F38B4207D9691800F1FF3C17D28B42C8
:108DA00015D902382944C91A40EA07473BE7374634
:108DB000304609E70746E7E61846FBE64145ABD2F1
:108DC000B8EB020A69EB0E0201381346A4E76046CD
:108DD000E9E7184695E76746D1E781467CE7023820
:108DE0002C4447E7ACF1020C2B442FE7384608E748
:108DF0003746E9E6704700BF80B400AF0B4B002256
:108E00001A700A4B00225A70084B0022DA70074B86
:108E100000229A70054B04221A71044B01225A71E8
:108E200000BFBD465DF8047B704700BF0400002012
:108E300080B400AFAA4BDB78032B00F24B8101A278
:108E400052F823F0558E0008F58E0008958F000823
:108E500035900008A24B1B781946A14B5B78184649
:108E6000A04A0B46DB000B44034412F81330C3F353
:108E70008103DBB2012B13D1994B1B781946984B18
:108E80005B781846974A0B46DB000B44034412F804
:108E90001330C3F38113DBB2012B01D100231AE19C
:108EA0008F4B1B7819468E4B5B7818468D4A0B46C4
:108EB000DB000B44034412F81330C3F38103DBB22D
:108EC000012B01D1022306E1854B1B781946844B07
:108ED0005B781846834A0B46DB000B44034412F8C8
:108EE0001330C3F38113DBB2012B01D10123F2E074
:108EF0000323F0E07A4B1B781946794B5B781846D0
:108F0000784A0B46DB000B44034412F81330C3F3DA
:108F10000103DBB2012B13D1714B1B781946704B47
:108F20005B7818466F4A0B46DB000B44034412F88B
:108F30001330C3F30113DBB2012B01D10023CAE0CC
:108F4000674B1B781946664B5B781846654A0B469B
:108F5000DB000B44034412F81330C3F30103DBB20C
:108F6000012B01D10123B6E05D4B1B7819465C4B08
:108F70005B7818465B4A0B46DB000B44034412F84F
:108F80001330C3F30113DBB2012B01D10223A2E0A2
:108F90000323A0E0524B1B781946514B5B781846CF
:108FA000504A0B46DB000B44034412F81330C3F362
:108FB0008103DBB2012B13D1494B1B781946484B77
:108FC0005B781846474A0B46DB000B44034412F813
:108FD0001330C3F38113DBB2012B01D100237AE0FC
:108FE0003F4B1B7819463E4B5B7818463D4A0B4673
:108FF000DB000B44034412F81330C3F38103DBB2EC
:10900000012B01D1012366E0354B1B781946344B07
:109010005B781846334A0B46DB000B44034412F8D6
:109020001330C3F38113DBB2012B01D1022352E0D1
:10903000032350E02A4B1B781946294B5B781846CE
:10904000284A0B46DB000B44034412F81330C3F3E9
:109050000103DBB2012B13D1214B1B781946204BA6
:109060005B7818461F4A0B46DB000B44034412F89A
:109070001330C3F30113DBB2012B01D100232AE02B
:10908000174B1B781946164B5B781846154A0B464A
:10909000DB000B44034412F81330C3F30103DBB2CB
:1090A000012B01D1022316E00D4B1B7819460C4B06
:1090B0005B7818460B4A0B46DB000B44034412F85E
:1090C0001330C3F30113DBB2012B01D1012302E002
:1090D000032300E003231846BD465DF8047B704778
:1090E000040000208004002080B400AF034B002265
:1090F0005A7100BFBD465DF8047B70470400002034
:1091000080B400AF034B01225A7100BFBD465DF829
:10911000047B70470400002080B582B000AFFFF7E9
:1091200087FE78600021012003F0B8F900210220B9
:1091300003F0B4F90021002003F0B0F9002106206B
:1091400003F0ACF97C4B9B78002B3FD17A4B1B7919
:10915000052B00F2EC8001A252F823F07591000873
:109160002F9300082F9300082F9300082F930008D7
:109170007F9100080121062003F090F9D8E07B6878
:10918000032B1DD06D4BD3ED007AF5EE407AF1EE56
:1091900010FA15D1684B5B79002B08D10121786852
:1091A00003F07CF90021062003F078F90DE000219E
:1091B000786803F073F90121062003F06FF904E0E9
:1091C0000121062003F06AF9B2E0B1E05A4B9B7826
:1091D000022B40D1584B1B79022B08D1584B4FF032
:1091E00000021A60574B4FF000021A60A0E0524B89
:1091F0001B79012B1DD17B68032B15D04E4B5B795E
:10920000002B08D10121786803F048F900210620DD
:1092100003F044F98CE00021786803F03FF9012164
:10922000062003F03BF983E00121062003F036F924
:109230007EE0414B1B79002B04D10121062003F075
:109240002DF975E03C4B1B79032B71D100210620D1
:1092500003F024F96CE0384B9B78012B40D1364B5E
:109260001B79022B08D1364B4FF000021A60354BA8
:109270004FF000021A605BE02F4B1B79012B1DD1D0
:109280007B68032B15D02C4B5B79002B08D1012177
:10929000786803F003F90021062003F0FFF847E0A7
:1092A0000021786803F0FAF80121062003F0F6F8AF
:1092B0003EE00121062003F0F1F839E01E4B1B7956
:1092C000002B04D10121062003F0E8F830E01A4B0E
:1092D0001B79032B2CD10021062003F0DFF827E0B7
:1092E000154B9B78032B23D1134B1B79012B15D1E5
:1092F000114B5B79002B08D10121786803F0CEF87F
:109300000021062003F0CAF812E00021786803F07B
:10931000C5F80121062003F0C1F809E0064B1B79CE
:10932000002B05D10121062003F0B8F800E000BFB2
:1093300000BF0837BD4680BD04000020C4020020E5
:10934000CC020020D002002080B500AF174B0422D1
:109350001A71FFF7E1FE164B4FF000029A60154BB1
:109360004FF000021A60144B4FF000021A60134BCA
:109370004FF000021A60124BD3ED007A9FED117A84
:10938000F4EEC77AF1EE10FA02DD0F480BF0A8FBFD
:109390000B4BD3ED027AF5EE407AF1EE10FADAD10A
:1093A000C82005F0CBFA00BF80BD00BF040000203C
:1093B000B8020020C8020020CC020020D002002009
:1093C0008C0200200000FA43B08D0108000000006C
:1093D0002DE9B04F92B00AAF87ED030AC7ED020A3C
:1093E000894B4FF000021A604FF00003FB61BB682D
:1093F000FB61F868FEF7E0FF7DA3D3E90023FFF7E8
:1094000033F803460C46184621464FF000027F4BC6
:10941000FFF754F903460C4618462146FFF71CFB9C
:109420000346BB6107F1100300221A605A60784BB3
:109430001B683B61D7ED027AF5EEC07AF1EE10FAC7
:1094400040F38280724BD3ED007A97ED067A77EE87
:10945000277AC7ED067ABB697B616AE0F869FEF797
:10946000ABFF65A3D3E90023FEF7FEFF03460C46DE
:1094700025461C46F869FEF79FFF02460B4620462C
:109480002946FEF7F1FF03460C4625461C46D7ED5C
:10949000037A77EEA77A17EE900AFEF78DFF024661
:1094A0000B4620462946FFF709F903460C461846A5
:1094B0002146FFF7D1FA0246564B1A60564BD3EDC0
:1094C000007A9FED567AF4EEC77AF1EE10FA00DCDE
:1094D0002FE03B691846FEF76FFFC7E900017B6983
:1094E0001846FEF769FF04460D46B869FEF764FFAB
:1094F00080468946464B1B681846FEF75DFF82464C
:109500008B46474B1B681846FEF756FF02460B4634
:109510004449098809B20891CDE90623CDE904AB95
:10952000CDE90289CDE90045D7E900233E480BF09B
:1095300063FA374BD3ED007A97ED067AB4EEE77A0B
:10954000F1EE10FA8ADC4AE0D7ED027AF5EEC07A45
:10955000F1EE10FA43D52E4B93ED007AD7ED067A53
:1095600077EE677AC7ED067A2FE0F869FEF724FFF9
:1095700023A3D3E90023FEF777FF03460C462546D5
:109580001C46F869FEF718FF02460B46204629469E
:10959000FEF76AFF03460C4625461C46D7ED037AC4
:1095A00077EEA77A17EE900AFEF706FF02460B4603
:1095B00020462946FFF782F803460C461846214606
:1095C000FFF74AFA0246134B1A60114BD3ED007AAB
:1095D00097ED067AB4EEE77AF1EE10FAC5D40D4BAA
:1095E0004FF000021A6000BF2037BD46BDE8B08FC3
:1095F000182D4454FB210940FCA9F1D24D62B03F23
:10960000FCA9F1D24D62B0BFCC02002000806640C0
:10961000B4020020D00200208C0200200000FA4397
:10962000B00200208C080020C48D0108000000005A
:1096300090B585B000AF87ED010AC7ED000A7868E4
:10964000FEF7BAFE3EA3D3E90023FEF70DFF034663
:109650000C46184621464FF00002334BFFF72EF818
:1096600003460C4618462146FFF7F6F90346FB6011
:10967000D7ED007AF5EEC07AF1EE10FA2DDD2B4B26
:10968000D3ED007A97ED037A77EE277AC7ED037A68
:1096900018E0274B4FF000021A60264BD3ED007AFA
:1096A0009FED257AF4EEC77AF1EE10FA00DC09E0BE
:1096B000F868FEF781FE03460C461A4623461F480B
:1096C0000BF09AF9194BD3ED007A97ED037AB4EECB
:1096D000E77AF1EE10FADCDC1EE0D7ED007AF5EE69
:1096E000C07AF1EE10FA17D5104B93ED007AD7ED52
:1096F000037A77EE677AC7ED037A03E00C4B4FF0FD
:1097000000021A60094BD3ED007A97ED037AB4EEAC
:10971000E77AF1EE10FAF1D4054B4FF000021A602F
:1097200000BF1437BD4690BD00806640B4020020E3
:10973000D00200208C0200200000FA43F08D0108C6
:10974000182D4454FB210940B0B584B000AF87ED1B
:10975000010AC7ED000A4FF00003FB603B68FB60A5
:109760007868FEF729FE86A3D3E90023FEF77CFE86
:1097700003460C46184621464FF00002764BFEF792
:109780009DFF03460C4618462146FFF765F9034640
:10979000BB60D7ED007AF5EEC07AF1EE10FA69DD24
:1097A0006E4BD3ED007A97ED027A77EE277AC7ED0C
:1097B000027A54E0F868FEF7FFFD65A3D3E90023C1
:1097C000FEF752FE03460C4625461C46F868FEF797
:1097D000F3FD02460B4620462946FEF745FE0346AA
:1097E0000C4625461C46D7ED017A77EEA77A17EE90
:1097F000900AFEF7E1FD02460B4620462946FEF799
:109800005DFF03460C46184621464FF00002544BBC
:10981000FEF72AFE03460C4618462146FFF71CF9C0
:109820000246504B1A60504BD3ED007A9FED4F7AB1
:10983000F4EEC77AF1EE10FA09DDB868FEF7BCFD68
:1098400003460C461A46234649480BF0D5F8494BC7
:10985000D3ED007AF5EEC07AF1EE10FA67D93F4BFE
:10986000D3ED007A97ED027AB4EEE77AF1EE10FAD2
:10987000A0DC5FE0D7ED007AF5EEC07AF1EE10FAE9
:1098800058D5364B93ED007AD7ED027A77EE677AAA
:10989000C7ED027A40E0F868FEF78EFD2CA3D3E90D
:1098A0000023FEF7E1FD03460C4625461C46F868FA
:1098B000FEF782FD02460B4620462946FEF7D4FD00
:1098C00003460C4625461C46D7ED017A77EEA77A6B
:1098D00017EE900AFEF770FD02460B462046294619
:1098E000FEF7ECFE03460C46184621464FF00002F8
:1098F000214BFEF7B9FD03460C4618462146FFF7FB
:10990000ABF80246174B1A601A4BD3ED007AF5EE0E
:10991000C07AF1EE10FA0CDA104BD3ED007A97ED25
:10992000027AB4EEE77AF1EE10FAB4D402E000BFA6
:1099300000E000BF0B4B4FF000021A600F4B4FF0DE
:1099400000021A6000BF1037BD46B0BDAFF3008003
:10995000FCA9F1D24D62503F00806640B402002065
:10996000000050C0D00200208C0200200000FA430A
:10997000088E0108B002002000005040CC020020F8
:10998000182D4454FB21094090B585B000AF87EDF8
:10999000010AC7ED000A4A4B03221A71FFF7B0FB18
:1099A000FFF7BAFBD7ED017AB2EE0E7A67EE877A4F
:1099B0009FED447AC7EE876AD7ED000AB0EE660ADB
:1099C000FFF706FDD7ED017AB3EE097A67EE877AE5
:1099D0009FED3C7AC7EE876AD7ED000AB0EE660AC3
:1099E000FFF726FED7ED017A9FED377A67EE877A8B
:1099F0009FED347AC7EE876AD7ED000AB0EE660AAB
:109A0000FFF7A2FEFFF7A0FCFFF786FBD7ED017A78
:109A10009FED2E7AC7EE876A16EE900AFEF7CCFC11
:109A200025A3D3E90023FEF71FFD03460C46184685
:109A30002146FEF7C9FF0346FB60D7ED007AF5EE3D
:109A4000C07AF1EE10FA13D5214B1A68FB68D90FD2
:109A50000B445B105B4213441D4A13601C4B5A6855
:109A6000FB68D90F0B445B101344194A536019E08B
:109A7000D7ED007AF5EEC07AF1EE10FA12DD144B54
:109A80001A68FB68D90F0B445B101344104A13602B
:109A90000F4B5A68FB68D90F0B445B105B421344B1
:109AA0000B4A53600A4B9B68094A936000BF143706
:109AB000BD4690BDAFF30080F70452C97959FC4010
:109AC000040000200000B442000048420000B443FB
:109AD000A402002000000000B0B58AB000AF884B9F
:109AE00002221A71FFF718FB864B1B687B624FF04E
:109AF00080433B62844BFB614FF07853BB61834BE7
:109B00007B61834B3B61834BFB60834B1A68824BC9
:109B10005B681344BB600AE0804B4FF000021A60A0
:109B20007F4B4FF000021A607E4A7B6A9360B868F0
:109B3000FEF730FC04460D46D7ED087A77EEA77A9B
:109B400017EE900AFEF738FC69A3D3E90023FEF76D
:109B5000B5FD02460B4620462946FEF7CFFA0346DE
:109B60000C4625461C466C4B1A686B4B5B681344CD
:109B70001846FEF70FFC02460B4620462946FEF724
:109B800003FF0346002BC7D1674B1B687B6005E0D2
:109B9000634ABB691360634A7B6A936097ED017AFD
:109BA000D7ED057A37EE277A5F4BD3ED007AB4EE26
:109BB000E77AF1EE10FAEBDC594B4FF000021A6035
:109BC00006E0564B1B68554A1360564A7B6A936001
:109BD00097ED017AD7ED047A37EE277A524BD3ED21
:109BE000007AB4EEE77AF1EE10FAEADC16E0D7ED8F
:109BF000067AF1EE677A4A4BC3ED007A474BD3ED14
:109C0000007AF5EEC07AF1EE10FA04D5434B4FF02E
:109C100000021A6010E0434A7B6A936097ED017A74
:109C2000D7ED037A37EE277A3F4BD3ED007AB4EEC7
:109C3000E77AF1EE10FADADC394B4FF000021A60E5
:109C4000364B4FF000021A60334B1A68324B5B6898
:109C50001344BB6006E0314B4FF000021A60314AFA
:109C60007B6A9360B868FEF795FB04460D46D7ED16
:109C7000077A77EEA77A17EE900AFEF79DFB1CA3F2
:109C8000D3E90023FEF71AFD02460B46204629467B
:109C9000FEF734FA03460C4625461C461E4B1A684E
:109CA0001D4B5B6813441846FEF774FB02460B46D7
:109CB00020462946FEF768FE0346002BCBD11B4BFE
:109CC0001B681846FEF778FB0BA3D3E90023FEF7C9
:109CD00015FA03460C4618462146FEF7BDFE02461D
:109CE000124B1A6000BF2837BD46B0BDAFF30080ED
:109CF000D5497231E02D503F182D4454FB21F93FD6
:109D0000040000200000002000004040920A063FAE
:109D1000920A863FDB0FC93F98020020CC02002048
:109D2000D0020020B8020020B4020020D40200209B
:109D3000B0B58AB000AF884B02221A71FFF7ECF978
:109D4000864B1B687B624FF080433B62844BFB6118
:109D50004FF03E43BB61834B7B61834B3B61834B45
:109D6000FB60834B1A68824B5B681344BB600AE05C
:109D7000804B4FF000021A607F4B4FF000021A60D8
:109D80007E4A7B6A9360B868FEF704FB04460D4682
:109D9000D7ED087A77EEA77A17EE900AFEF70CFB5C
:109DA00069A3D3E90023FEF789FC02460B4620464F
:109DB0002946FEF7A3F903460C4625461C466C4B84
:109DC0001A686B4B5B6813441846FEF7E3FA0246C9
:109DD0000B4620462946FEF7D7FD0346002BC7D188
:109DE000674B1B687B6005E0634ABB691360634A8D
:109DF0007B6A936097ED017AD7ED057A37EE677A43
:109E00005F4BD3ED007AB4EEE77AF1EE10FAEBD4C3
:109E1000594B4FF000021A6006E0564B1B68554A3A
:109E20001360564A7B6A936097ED017AD7ED047A06
:109E300037EE677A524BD3ED007AB4EEE77AF1EE63
:109E400010FAEAD416E0D7ED067AF1EE677A4A4BBB
:109E5000C3ED007A474BD3ED007AF5EEC07AF1EE10
:109E600010FA04DD434B4FF000021A6010E0434A41
:109E70007B6A936097ED017AD7ED037A37EE677AC4
:109E80003F4BD3ED007AB4EEE77AF1EE10FADAD474
:109E9000394B4FF000021A60364B4FF000021A6047
:109EA000334B1A68324B5B681344BB6006E0314B9E
:109EB0004FF000021A60314A7B6A9360B868FEF77F
:109EC00069FA04460D46D7ED077A77EEA77A17EEC2
:109ED000900AFEF771FA1CA3D3E90023FEF7EEFB0C
:109EE00002460B4620462946FEF708F903460C4673
:109EF00025461C461E4B1A681D4B5B6813441846CA
:109F0000FEF748FA02460B4620462946FEF73CFD7E
:109F10000346002BCBD11B4B1B681846FEF74CFAAF
:109F20000BA3D3E90023FEF7E7F803460C461846D7
:109F30002146FEF791FD0246124B1A6000BF2837FA
:109F4000BD46B0BDAFF30080D5497231E02D503F22
:109F5000182D4454FB21F93F04000020000000208C
:109F600000004040920A063F920A863FDB0FC93F3D
:109F700098020020CC020020D0020020B80200206D
:109F8000B4020020D4020020B0B584B000AF87ED49
:109F9000010AC7ED000A464B00221A71FFF7BCF810
:109FA000444B4FF000021A604FF00003FB60424B3D
:109FB000D3ED027A97ED007A77EE677AC7ED037AF0
:109FC000F868FEF7F9F936A3D3E90023FEF74CFA57
:109FD00003460C4625461C46F868FEF7EDF9024696
:109FE0000B4620462946FEF73FFA03460C46254617
:109FF0001C46D7ED017A77EEA77A17EE900AFEF7A6
:10A00000DBF902460B4620462946FEF757FB03467E
:10A010000C4618462146FEF71FFD0246274B1A60E4
:10A02000FFF76EF8D7ED017A77EEA77A17EE900A70
:10A03000FEF7C2F91CA3D3E90023FEF73FFB03465A
:10A040000C4618462146FEF7BFFC0346BB6000BF26
:10A050001B4B9A68BB681A441A4B9B689A42F7DC00
:10A06000164B4FF000021A60154B9A68BB681344F8
:10A07000134A9360124B1A68BB68D90F0B445B10EC
:10A0800013440F4A13600E4B5A68BB68D90F0B4438
:10A090005B1013440A4A536000BF1037BD46B0BD81
:10A0A000FCA9F1D24D62503FD5497231E02D503FAD
:10A0B00004000020CC0200208C020020C8020020F6
:10A0C000A402002098020020B0B584B000AF87ED54
:10A0D000010AC7ED000A684B01221A714FF0000314
:10A0E000FB60664B93ED027AD7ED007A77EE677AE4
:10A0F000C7ED037AF868FEF75FF95BA3D3E90023A5
:10A10000FEF7B2F903460C4625461C46F868FEF7F2
:10A1100053F902460B4620462946FEF7A5F90346A9
:10A120000C4625461C46D7ED017A77EEA77A17EE46
:10A13000900AFEF741F902460B4620462946FEF7F3
:10A14000BDFA03460C4618462146FEF785FC034639
:10A1500007EE903AF1EE677A494BC3ED007AFEF7CD
:10A16000C3FFFEF7D9FFD7ED017A77EEA77A17EE96
:10A17000900AFEF721F93EA3D3E90023FEF79EFAE9
:10A1800003460C4618462146FEF71EFC0346BB60FC
:10A1900035E03C4BD3ED027AF5EEC07AF1EE10FAE1
:10A1A00010D8384B4FF000029A60354B4FF0000248
:10A1B0001A60354B4FF000021A60344B4FF000022A
:10A1C0001A6033E0324B9A68BB68D90F0B445B10BE
:10A1D0001A44304B9B689A4211DAFEF791FF002136
:10A1E000012002F05BF90021022002F057F9002162
:10A1F000002002F053F90121062002F04FF9264B0E
:10A2000093ED037A244BD3ED007A77EE277A9FED16
:10A21000237AF4EEC77AF1EE10FA07D51C4B9A6850
:10A22000BB681A441B4B9B689A42B2DCFFF78CF860
:10A23000174B9A68BB681344154A9360144B1A680D
:10A24000BB68D90F0B445B101344114A1360104BC9
:10A250005A68BB68D90F0B445B1013440C4A536017
:10A2600000BF1037BD46B0BDFCA9F1D24D62503FD2
:10A27000D5497231E02D503F040000208C020020AF
:10A28000C8020020B8020020CC020020D00200202A
:10A29000A402002098020020600200200000E14497
:10A2A00090B585B000AF78607B685B001846FEF71C
:10A2B00071F82BA3D3E90023FEF700FA03460C46FE
:10A2C00018462146FEF780FB0346FB60FB68002B27
:10A2D00015DD06E01C4B4FF000021A601B4B1C4AB8
:10A2E0009A601C4B9A68FB681A441B4B9B689A4205
:10A2F000F0DC184B9A68FB681344164A9360FB68BD
:10A30000002B15DA06E0104B4FF000021A600F4BDD
:10A31000124A9A600F4B9A68FB681A440E4B9B686E
:10A320009A42F0DB0B4B9A68FB68D31A094A936098
:10A33000064B4FF000029A60034B4FF000021A6088
:10A3400000BF1437BD4690BDC8020020B8020020EF
:10A3500000008C42A40200209802002000008CC261
:10A36000D5497231E02D503F80B500AF084B062231
:10A370001A71FEF7D1FE6FF01300FFF791FF4FF453
:10A38000967004F0DBFA0F20FFF78AFF00BF80BD54
:10A390000400002000000000B0B586B000AF87EDDB
:10A3A000030AC7ED020A87ED011AD7ED037A77EEAB
:10A3B000A77A17EE900AFDF7FFFF57A3D3E9002312
:10A3C000FEF77CF903460C4618462146FEF7FCFAD8
:10A3D00003467B61D7ED017AF5EE407AF1EE10FA93
:10A3E00022D0FEF78DFEFEF797FED7ED037AB0EE92
:10A3F000007AC7EE876A97ED027AD7ED017A77EE99
:10A40000277AF0EE670AB0EE660AFFF7BDFD00BFDF
:10A410003D4B9A687B69D90F0B445B101A443B4B48
:10A420009B689A42F4DC49E0394B05221A71FEF729
:10A430005BFEFEF771FE39E0334B9B681846FDF773
:10A44000A9FF04460D467869FDF7A4FF2CA3D3E9C4
:10A450000023FEF709F802460B4620462946FDF781
:10A460004DFE03460C4625461C46284B9B68184665
:10A47000FDF790FF02460B4620462946FEF766FA96
:10A480000346002B00D111E0FEF73AFE0021012027
:10A4900002F004F80021022002F000F80021002060
:10A4A00001F0FCFF0121062001F0F8FF164B9A682D
:10A4B0007B691A44154B9B689A42BDDC154B4FF0E3
:10A4C00000021A60104B9A687B6913440E4A93602D
:10A4D0000D4B1A687B69D90F0B445B1013440A4A71
:10A4E0001360094B5A687B69D90F0B445B10134406
:10A4F000054A536000BF1837BD46B0BDAFF30080BA
:10A500009A9999999999D93FA4020020980200201C
:10A5100004000020C8020020D5497231E02D503FD0
:10A5200090B583B000AF0346FB71FB79532B3CD051
:10A53000542B00D03CE0DFED220A9FED220AFFF70A
:10A54000C3FDF0EE040A9FED200AFFF71DFA1F4B32
:10A550001B681846FDF730FF17A3D3E90023FDF76A
:10A56000CDFD03460C4618462146FEF775FA024615
:10A57000164B1A60042001F0BBFF052001F0B8FF64
:10A58000062001F0B5FF4FF4FA7004F0D7F901216D
:10A59000062001F083FF0E4BD3ED007AF0EE670A40
:10A5A0009FED080AFFF7F0FC02E0FFF795FA00BF05
:10A5B00000BF0C37BD4690BD182D4454FB21F93F18
:10A5C00000000000000034420000B442D402002029
:10A5D000000000200000000090B583B000AF0346EB
:10A5E000FB71FB79532B3CD0542B00D03CE0DFEDCA
:10A5F000220A9FED220AFFF767FDF8EE040A9FED9D
:10A60000200AFFF7C1F91F4B1B681846FDF7D4FE5F
:10A6100017A3D3E90023FDF76FFD03460C46184648
:10A620002146FEF719FA0246164B1A60042001F083
:10A630005FFF052001F05CFF062001F059FF4FF499
:10A64000FA7004F07BF90121062001F027FF0E4B80
:10A65000D3ED007AF0EE670A9FED080AFFF794FC4D
:10A6600002E0FFF765FB00BF00BF0C37BD4690BDA1
:10A67000182D4454FB21F93F000000000000344233
:10A680000000B442D40200200000002000000000BE
:10A6900098B500AFDFED3A0A9FED3A0AFFF714FDD7
:10A6A000F0EE040A9FED380AFFF76EF9374B1B688E
:10A6B0001846FDF781FE30A3D3E90023FDF71EFD08
:10A6C00003460C4618462146FEF7C6F902462F4BB4
:10A6D0001A60042001F00CFF052001F009FF06209C
:10A6E00001F006FF4FF4FA7004F028F9FFF73CFE82
:10A6F000042001F0FDFE052001F0FAFE062001F025
:10A70000F7FE4FF4FA7004F019F9F0EE040A9FED29
:10A710001E0AFFF739F91D4B1B681846FDF74CFE62
:10A7200015A3D3E90023FDF7E9FC03460C461846C0
:10A730002146FEF791F90246144B1A60042001F0FD
:10A74000D7FE052001F0D4FE062001F0D1FE4FF423
:10A75000FA7004F0F3F80121062001F09FFE0C4B83
:10A76000D3ED007AF0EE670A9FED060AFFF70CFCC6
:10A7700000BF98BDAFF30080182D4454FB21F93F72
:10A7800000000000000034420000B442D402002067
:10A790000000002080B500AF164B9B78032B25D816
:10A7A00001A252F823F000BFB9A70008D7A70008FC
:10A7B000DFA70008E7A700080F4BD3ED007A0F4B87
:10A7C00093ED007AB0EE471AF0EE670A9FED0C0A9F
:10A7D000FFF7E2FD0BE05320FFF7A2FE07E0532056
:10A7E000FFF7FAFE03E0FFF753FF00E000BF00BFF2
:10A7F00080BD00BF0400002000000020C402002033
:10A800000000B44280B483B000AF786039607B68E8
:10A810003A681A6000BF0C37BD465DF8047B70478C
:10A8200080B584B000AF786039607B681B68FB60DE
:10A830003A68FB68D31ABB6039687868FFF7E2FFB3
:10A84000BB6818461037BD4680BD000080B487B095
:10A8500000AFF860B9607A60BB687B612C4A7B68A6
:10A8600052F823207B69D31A002BB8BF5B423B61AF
:10A8700027497B687A6941F82320264A7B6852F889
:10A8800023203B691A4423497B6841F82320224A4C
:10A890007B6852F823305A1C1F497B6841F82320FB
:10A8A0001D4A7B6852F82330FA689A4221D1194A2E
:10A8B0007B6852F8233007EE903AF8EEE76A164AC2
:10A8C0007B6852F8233007EE903AB8EEE77AC6EE8E
:10A8D000877A124A7B689B001344C3ED007A0D4AC5
:10A8E0007B68002142F823100B4A7B68002142F864
:10A8F00023100A4A7B689B0013441B6807EE903ABA
:10A90000B0EE670A1C37BD465DF8047B704700BF98
:10A9100014020020240200203402002044020020FF
:10A9200080B487B000AFF86087ED020AC7ED010A76
:10A9300087ED001A4FF000037B61FB6807EE903A49
:10A94000B8EEE77AD7ED027A27EE277AD7ED017ACB
:10A9500067EE276A97ED007AC6EE877AC7ED057A2B
:10A960007B6907EE903AB0EE670A1C37BD465DF88A
:10A97000047B704780B485B000AF786039600123F4
:10A98000FB600023BB6007E0FB687A6802FB03F30F
:10A99000FB60BB680133BB60BA683B689A42F3DB7B
:10A9A000FB6818461437BD465DF8047B704780B4D9
:10A9B0008BB000AF87ED030AC7ED020A87ED011ADD
:10A9C0003860D7ED036A97ED017AC6EE877AC7ED56
:10A9D000077AD7ED026A97ED017AC6EE877AC7ED5E
:10A9E000067AB7EE007AD7ED067A77EE676A3B68AB
:10A9F00007EE903AB8EEE77AC6EE877AC7ED057AA9
:10AA000000237B6200233B6218E03B6A07EE903A2A
:10AA1000B8EEE77AD7ED057A27EE277AD7ED067AF2
:10AA200077EE277A97ED077AB4EEE77AF1EE10FA2F
:10AA300001DB3B6A7B623B6A01333B623A6A3B68FB
:10AA40009A42E2DB7B6A18462C37BD465DF8047BF0
:10AA50007047000080B500AF074B1B689B68002162
:10AA600018460AF05DF8044B1B685B680021184625
:10AA70000AF056F800BF80BD2800002080B592B0D3
:10AA800000AF2C4B1B687B643B46402200211846DC
:10AA900009F06BF9284BD3F8B0303B60264BD3F864
:10AAA000B4307B60244BD3F8B830BB60224BD3F872
:10AAB0000831FB60204BD3F80C313B611E4BD3F8BF
:10AAC00010317B611C4BDB6ABB611B4B1B6BFB6159
:10AAD000194B5B6B3B62184B9B6D7B62164BDB6DBE
:10AAE000BB62154B1B6EFB62134B1B683B63124B27
:10AAF0005B687B63104B9B68BB6300233B6412E085
:10AB00003B6C9B0007F148021344483BD3ED007AAD
:10AB1000B0EE670A786C03F09BFA7B6C04337B64BD
:10AB20003B6C01333B643B6C0E2BE9DD00BF4837C7
:10AB3000BD4680BD30900108E802002090B595B078
:10AB400000AF594B1B68FB643B464022002118466E
:10AB500009F00BF9002387F84B3000237B6438E0C1
:10AB60003A467B6C9B0013441946F86C03F09AFA42
:10AB7000FB6C0433FB647B6C9B0007F150021344B5
:10AB8000503B1B681846FDF717FC03460C461A4657
:10AB90002346796C454809F02FFF7B6C9B0007F139
:10ABA00050021344503BD3ED007AF4EE677AF1EE95
:10ABB00010FA6CBF01230023DBB23B643B6C002B1B
:10ABC00004D097F84B30013387F84B307B6C01335E
:10ABD0007B647B6C0E2BC3DD97F84B3019463448F1
:10ABE00009F00AFF97F84B300F2B59D0D7ED007AB8
:10ABF00097ED017AD7ED026AB0EE661AF0EE470AD9
:10AC0000B0EE670A042001F01DFCD7ED007A97ED45
:10AC1000017AD7ED026AB0EE661AF0EE470AB0EE9E
:10AC2000670A052001F00EFCD7ED037A97ED047A50
:10AC3000D7ED056AB0EE661AF0EE470AB0EE670A85
:10AC4000062001F0FFFBD7ED067A97ED077AD7EDE6
:10AC5000086AB0EE661AF0EE470AB0EE670A012005
:10AC600001F0F0FBD7ED097A97ED0A7AD7ED0B6A80
:10AC7000B0EE661AF0EE470AB0EE670A022001F065
:10AC8000E1FBD7ED0C7A97ED0D7AD7ED0E6AB0EEB9
:10AC9000661AF0EE470AB0EE670A002001F0D2FB18
:10ACA00000BF5437BD4690BD30900108208E01088A
:10ACB0002C8E01082DE9B04386B004AFAF4806F0F2
:10ACC00038FFAF4806F035FF03F01EFD03F036FCF9
:10ACD000C82003F033FE3023FB713023BB71A94839
:10ACE00009F0FEFEA84BD3F8B0301846FDF764FB20
:10ACF00080468946A44BD3F8B4301846FDF75CFB78
:10AD000004460D46A04BD3F8B8301846FDF754FB67
:10AD100002460B46CDE90223CDE9004542464B46AB
:10AD20009A4809F069FE984BD3F808311846FDF7A8
:10AD300043FB80468946944BD3F80C311846FDF707
:10AD40003BFB04460D46904BD3F810311846FDF7F7
:10AD500033FB02460B46CDE90223CDE900454246CE
:10AD60004B468B4809F048FE874BDB6A1846FDF7D7
:10AD700023FB80468946844B1B6B1846FDF71CFB62
:10AD800004460D46804B5B6B1846FDF715FB0246EB
:10AD90000B46CDE90223CDE9004542464B467D48AE
:10ADA00009F02AFE784B9B6D1846FDF705FB80469F
:10ADB0008946754BDB6D1846FDF7FEFA04460D46D5
:10ADC000714B1B6E1846FDF7F7FA02460B46CDE9AC
:10ADD0000223CDE9004542464B466F4809F00CFE80
:10ADE000694B1B681846FDF7E7FA80468946664BB3
:10ADF0005B681846FDF7E0FA04460D46624B9B6817
:10AE00001846FDF7D9FA02460B46CDE90223CDE9F3
:10AE1000004542464B46614809F0EEFDFFF71AFE39
:10AE20005F4809F0E9FDFB1D19465E4809F060FE28
:10AE3000FB79302B00F0F480FFF70CFE5A4809F044
:10AE4000DBFDBB1D1946574809F052FEFB79194638
:10AE5000BB791A46554809F0CFFDFFF7FBFD544872
:10AE600009F0CAFDFB79313B042B00F2C18001A23D
:10AE700052F823F089AE0008BBAE0008EDAE000822
:10AE80001DAF00084DAF0008BB79702B04D14949B4
:10AE9000494809F02DFEAFE0BB79692B04D1474941
:10AEA000454809F025FEA7E0BB79642B40F0A4805B
:10AEB0004349414809F01CFE9EE0BB79702B04D148
:10AEC00040493D4809F014FE98E0BB79692B04D154
:10AED0003D49394809F00CFE90E0BB79642B40F005
:10AEE0008D803A49344809F003FE87E0BB79702B26
:10AEF00004D13749304809F0FBFD81E0BB79692B6B
:10AF000004D134492C4809F0F3FD79E0BB79642B76
:10AF100076D13149284809F0EBFD71E0BB79702BFF
:10AF200004D12E49244809F0E3FD6BE0BB79692B7D
:10AF300004D12B49204809F0DBFD63E0BB79642B89
:10AF400060D128491C4809F0D3FD5BE0BB79702B28
:10AF500004D10D49184809F0CBFD55E0BB79692BA8
:10AF600004D12149144809F0C3FD4DE0BB79642B9D
:10AF70004AD11E49104809F0BBFD45E0AC0700204E
:10AF800024050020348E0108E80200204C8E0108C0
:10AF90006C8E0108888E0108A48E0108C08E0108FD
:10AFA000DC8E0108F48E0108F88E01080C8F010870
:10AFB000308F010898030020448F01089C03002073
:10AFC000A0030020F0030020F4030020F803002079
:10AFD00014030020180300201C030020400300205D
:10AFE0004403002048030020EC020020F00200206F
:10AFF000164809F075FD08E000BF06E000BF04E058
:10B0000000BF02E000BF00E000BFFFF723FD7B1D93
:10B0100019460F4809F06CFD0E4809F061FD5EE627
:10B0200000BF0D4809F05CFD03F066F8FFF726FD50
:10B03000072003F091FAC82003F080FC002003F001
:10B040008BFA00BF0837BD46BDE8B083488F0108C2
:10B05000F48E01085C8F0108608F010880B400AF96
:10B0600000BFBD465DF8047B704700000000000093
:10B0700090B583B000AF4FF000037B604FF000034A
:10B080003B6003F0E5F803F01BF92B4B1B881BB268
:10B0900007EE903AF8EEE77A17EE900AFDF78CF992
:10B0A000264BD3E900341A462346FDF725F803461C
:10B0B0000C46184621461CA3D3E90023FDF7FEFAEF
:10B0C00003460C461846214619A3D3E90023FDF791
:10B0D000CBF903460C46184621464FF00002184BA8
:10B0E000FDF7ECFA03460C4618462146FDF7B4FC82
:10B0F00003463B60134BD3ED007A9FED131AF0EE3D
:10B10000670A97ED000A03F0A7F987ED010A0D4AD7
:10B110003B681360D7ED017AF1EE677AB0EE670A0B
:10B120000C37BD4690BD00BF6666666666663040F9
:10B13000182D4454FB2109408C0800206004002095
:10B14000008066405C0200200AD7233C000000001B
:10B15000B0B586B000AF47F22F519948FFF760FBBA
:10B160000246984B1A6047F22F519748FFF758FB59
:10B170000246944B5A60934B1B6807EE903AF8EEE8
:10B18000E77A17EE900AFDF717F989A3D3E90023B0
:10B19000FDF76AF903460C461846214686A3D3E913
:10B1A0000023FDF78BFA03460C4618462146FDF7AF
:10B1B00053FC0246854B1A60824B5B6807EE903A5F
:10B1C000F8EEE77A17EE900AFDF7F6F878A3D3E9E0
:10B1D0000023FDF749F903460C461846214676A39D
:10B1E000D3E90023FDF76AFA03460C4618462146C8
:10B1F000FDF732FC0246754B5A60744B93ED007AB2
:10B20000724BD3ED017A37EE277AF0EE006AC7EE83
:10B21000267A6E4BC3ED027A6D4B1A68694B1B6838
:10B2200013446B4A13606A4B5A68664B5B6813445D
:10B23000674A5360664B1A68654B5B681344644AFF
:10B240009360FFF715FFF0EE407A624BC3ED007A92
:10B25000614B1B681846FDF7AFF804460D465D4B81
:10B260001B681846FDF7A8F853A3D3E90023FDF7A0
:10B27000FBF802460B4620462946FCF73FFF0346F3
:10B280000C4618462146FDF7E7FB0246524B1A6072
:10B2900000237B6100233B610023FB600023BB6034
:10B2A0004E4B9B78002B40F0D480062001F00CF927
:10B2B0000346002B18D04A4BD3ED007A464B93ED52
:10B2C000007AB0EE471AF0EE670A9FED460A0620B4
:10B2D00001F040FAB860BB6807EE903AF8EEE77A02
:10B2E000414BC3ED007AB4E0002001F0EDF80346D5
:10B2F000002B2CD03D4BD3ED026A3C4B93ED017AF1
:10B300003B4BD3ED007A77EE277AB0EE671AF0EE7A
:10B31000660A9FED340A002001F01CFA78617B690F
:10B3200007EE903AF8EEE77A17EE900AFDF744F848
:10B3300021A3D3E90023FDF797F803460C461846EE
:10B340002146FDF789FB0246274B1A6081E0012068
:10B3500001F0BAF80346002B4ED0244BD3ED027A0D
:10B36000244B93ED027AB0EE471AF0EE670A9FED98
:10B370001D0A012001F0EEF938613B6907EE903AB1
:10B38000F8EEE77A17EE900AFDF716F80AA3D3E96C
:10B390000023FDF769F803460C4618462146FDF7E1
:10B3A0005BFB0246104B1A6053E000BFAFF3008016
:10B3B000D5497231E02D503FFCA9F1D24D62503F8A
:10B3C0002404004084020020240800408C02002055
:10B3D00098020020B0020020B402002004000020E7
:10B3E000D40200206F12833ACC02002060020020B9
:10B3F0008002002070020020022001F065F8034660
:10B40000002B26D0684BD3ED017A684B93ED017A7F
:10B41000B0EE471AF0EE670A9FED650A022001F0D0
:10B4200099F9F860FB6807EE903AF8EEE77A17EEC4
:10B43000900AFCF7C1FF5AA3D3E90023FDF714F8E3
:10B4400003460C4618462146FDF706FB0246594BBB
:10B450001A60594B93ED027A584BD3ED007A77EE90
:10B46000277A554BC3ED027A524B93ED007A544B39
:10B47000D3ED007A77EE277A4E4BC3ED007A4E4B30
:10B48000D3ED027A77EEA77A17EE900AFCF794FFD5
:10B4900004460D46474B1B681846FCF78DFF4FF0DE
:10B4A0000002484BFCF7E0FF02460B4620462946C7
:10B4B000FCF722FE03460C46184621464FF00002D8
:10B4C0004FF08043FDF7FAF803460C461846214634
:10B4D000FDF7C2FA0246384B5A60364B1B681846D5
:10B4E000FCF76AFF4FF00002364BFCF7BDFF034646
:10B4F0000C4625461C46304B5B681846FCF75CFF43
:10B5000002460B4620462946FCF7F8FD03460C464A
:10B5100018462146FDF7A0FA0246274B1A60264B33
:10B52000D3ED007A284B93ED007AB0EE471AF0EE97
:10B53000670A9FED1F0A042001F00CF90246234B15
:10B540001A601D4BD3ED017A1F4B93ED017AB0EEDB
:10B55000471AF0EE670A9FED160A052001F0FAF887
:10B5600002461B4B1A6000237B60184B1A687B68ED
:10B570001344184A1360164B1A687B68D31A164A8C
:10B580001360144B1A68144B1B681946104603F0DD
:10B59000D7F800BF1837BD46B0BD00BFAFF300807D
:10B5A000FCA9F1D24D62503F7002002060020020E1
:10B5B0006F12833ACC020020B8020020C80200209B
:10B5C000D0020020004042408C020020D80200201F
:10B5D000DC020020E0020020E402002080B500AF81
:10B5E000184B1B68002219460A20FFF72FF9F0EECE
:10B5F000407A154BC3ED007A124B5B680122194665
:10B600000A20FFF723F9F0EE407A0F4BC3ED017AE1
:10B610000E4B1B68022219460A20FFF717F9F0EEBD
:10B62000407A094BC3ED027A084B5B680322194646
:10B630000A20FFF70BF9F0EE407A034BC3ED037AD3
:10B6400000BF80BD4C040020600200205804002090
:10B6500080B582B000AF78607B680C4A934203D11A
:10B66000FFF7FCFCFFF774FD7B68094A934208D1A1
:10B67000084B1A68084B1B681344064A1360FFF70F
:10B68000ADFF00BF0837BD4680BD00BFAC0700203E
:10B6900024050020540200205802002080B485B008
:10B6A00000AF0023FB603FE00023BB6036E044496D
:10B6B000FA681346DB001344BA681A4411F81230D2
:10B6C00043F0030301F812303D49FA681346DB00EA
:10B6D0001344BA681A4411F8123043F00C0301F80D
:10B6E00012303749FA681346DB001344BA681A442B
:10B6F00011F8123043F0300301F812303049FA6883
:10B700001346DB001344BA681A4411F8123043F0B0
:10B71000C00301F81230BB680133BB60BB68082B63
:10B72000C5DDFB680133FB60FB68082BBCDD002333
:10B730007B6030E022497A681346DB0013445B00EB
:10B740000B4403F110021378012161F3010313701C
:10B750001B497B6803F1480211F81230012060F3A5
:10B76000830301F8123016497A681346DB0013444C
:10B770005B00CA181378012161F305131370104997
:10B780007A6811F81230012060F3871301F8123043
:10B790007B6801337B607B68082BCBDD084A13781C
:10B7A000012161F383031370054A13786FF30103DA
:10B7B000137000BF1437BD465DF8047B704700BFAF
:10B7C0008004002090B488B000AF034687ED040ADF
:10B7D000C7ED030A87ED021AC7ED011AFB750B4688
:10B7E000BB7513467B7597ED027AD7ED017A37EE7C
:10B7F000277AF0EE006AC7EE267A9FED7B7AF4EEA8
:10B80000C77AF1EE10FACCBF01230023DAB27B7DB8
:10B8100007F120010B4403F8042CD7ED037A9FEDC8
:10B82000737AF4EEC77AF1EE10FACCBF012300234D
:10B83000D9B27B7D01335A4203F0030302F00302C5
:10B8400058BF53420A4607F120010B4403F8042C69
:10B850007B7D02335A4203F0030302F0030258BF18
:10B86000534207F120021344002203F8042CD7EDC1
:10B87000047A9FED5F7AF4EEC77AF1EE10FACCBF4E
:10B8800001230023D9B27B7D03335A4203F0030323
:10B8900002F0030258BF53420A4607F120010B444D
:10B8A00003F8042C3B7FFA7DBC7D03F00303D8B280
:10B8B00050491346DB0013441A1911F8123060F393
:10B8C000010301F812307B7FFA7DBC7D03F0030396
:10B8D000D8B248491346DB0013441A1911F8123044
:10B8E00060F3830301F81230BB7FFA7DBC7D03F067
:10B8F0000303D8B23F491346DB0013441A1911F869
:10B90000123060F3051301F81230FB7FFA7DBC7D25
:10B9100003F00303D8B237491346DB0013441A1966
:10B9200011F8123060F3871301F81230BB7D072B3A
:10B9300012D8397FFA7DBB7D5C1C0B4603F00303F4
:10B94000D8B22C491346DB0013441A1911F81230EF
:10B9500060F3051301F81230FB7D072B12D8797FB5
:10B96000FB7D5A1CBC7D0B4603F00303D8B2214972
:10B970001346DB0013441A1911F8123060F38713D1
:10B9800001F81230BB7D002B12D0B97FFA7DBB7D50
:10B990005C1E0B4603F00303D8B216491346DB00C6
:10B9A00013441A1911F8123060F3010301F8123030
:10B9B000FB7D002B12D0F97FFB7D5A1EBC7D0B4610
:10B9C00003F00303D8B20B491346DB0013441A19E2
:10B9D00011F8123060F3830301F8123000BF2037F2
:10B9E000BD4690BC704700BF00008C420000B442CE
:10B9F0000000C8428004002080B500AFAB4BDB786C
:10BA0000032B00F2D88101A252F823F01DBA0008DE
:10BA100001BB0008E5BB0008D3BC0008A34B1B78A2
:10BA20001946A24B5B781846A14A0B46DB000B4433
:10BA3000034412F81330C3F38113DBB2002B0ED191
:10BA40009A4B02229A70FEF7A5FE984B0322DA70F9
:10BA5000964B1B78013BDAB2944B1A70ACE1934BD6
:10BA60001B781946914B5B781846914A0B46DB00D0
:10BA70000B44034412F81330C3F30103DBB2002B71
:10BA80000ED18A4B00229A70FEF784FE874B00226B
:10BA9000DA70864B5B780133DAB2844B5A708BE1F3
:10BAA000824B1B781946814B5B781846804A0B46BF
:10BAB000DB000B44034412F81330C3F38103DBB201
:10BAC000002B0ED1794B01229A70FEF763FE774B63
:10BAD0000122DA70754B1B780133DAB2734B1A709E
:10BAE0006AE1724B03229A70FEF754FE6F4B0222FA
:10BAF000DA706E4B5B78013BDAB26C4B5A705BE1EB
:10BB00006A4B1B781946694B5B781846684A0B46A6
:10BB1000DB000B44034412F81330C3F30103DBB220
:10BB2000002B0ED1614B02229A70FEF733FE5F4B61
:10BB30000022DA705D4B5B780133DAB25B4B5A70EE
:10BB40003AE15A4B1B781946584B5B781846584ACD
:10BB50000B46DB000B44034412F81330C3F381039C
:10BB6000DBB2002B0ED1514B00229A70FEF712FE71
:10BB70004E4B0122DA704D4B1B780133DAB24B4B3E
:10BB80001A7019E1494B1B781946484B5B781846E7
:10BB9000474A0B46DB000B44034412F81330C3F34F
:10BBA0000113DBB2002B0ED1404B01229A70FEF73D
:10BBB000F1FD3E4B0222DA703C4B5B78013BDAB27E
:10BBC0003A4B5A70F8E0394B03229A70FEF7E2FDC7
:10BBD000364B0322DA70354B1B78013BDAB2334B1C
:10BBE0001A70E9E0314B1B781946304B5B781846E8
:10BBF0002F4A0B46DB000B44034412F81330C3F307
:10BC00008103DBB2002B0ED1284B02229A70FEF783
:10BC1000C1FD264B0122DA70244B1B780133DAB2C6
:10BC2000224B1A70C8E0214B1B7819461F4B5B78DA
:10BC300018461F4A0B46DB000B44034412F813302E
:10BC4000C3F30113DBB2002B0ED1184B00229A7004
:10BC5000FEF7A0FD154B0222DA70144B5B78013B16
:10BC6000DAB2124B5A70A7E0104B1B7819460F4BF3
:10BC70005B7818460E4A0B46DB000B44034412F86F
:10BC80001330C3F38113DBB2002B13D1074B012216
:10BC90009A70FEF77FFD054B0322DA70034B1B7889
:10BCA000013BDAB2014B1A7086E000BF04000020AD
:10BCB00080040020414B03229A70FEF76BFD3F4B3E
:10BCC0000022DA703D4B5B780133DAB23B4B5A709D
:10BCD00072E03A4B1B781946384B5B781846384A65
:10BCE0000B46DB000B44034412F81330C3F301137B
:10BCF000DBB2002B0ED1314B02229A70FEF74AFDC7
:10BD00002E4B0222DA702D4B5B78013BDAB22B4BC3
:10BD10005A7051E0294B1B781946284B5B7818461E
:10BD2000274A0B46DB000B44034412F81330C3F3DD
:10BD30008113DBB2002B0ED1204B00229A70FEF74C
:10BD400029FD1E4B0322DA701C4B1B78013BDAB233
:10BD50001A4B1A7030E0194B1B781946174B5B7859
:10BD60001846174A0B46DB000B44034412F8133005
:10BD7000C3F30103DBB2002B0ED1104B01229A70EA
:10BD8000FEF708FD0D4B0022DA700C4B5B78013397
:10BD9000DAB20A4B5A700FE0084B03229A70FEF792
:10BDA000F9FC064B0122DA70044B1B780133DAB23E
:10BDB000024B1A7000E000BF00BF80BD04000020ED
:10BDC0008004002080B500AF02F084FC02F088FB04
:10BDD00002F0A6FB02F0BCF802F010FA00210420E9
:10BDE00000F05CFB0021052000F058FB0021012041
:10BDF00000F054FB0021022000F050FB0021002045
:10BE000000F04CFB0021062000F048FBFEF796FEF8
:10BE100047F22F512748FEF7F5FC47F22F512648ED
:10BE2000FEF7F0FC254805F060FE254805F05DFEB4
:10BE3000244B4FF000029A60234B4FF000021A602F
:10BE4000224B4FF000021A60214B4FF000021A60A3
:10BE5000204B00221A601F4B00225A601D4B00220B
:10BE60009A6002F065FA1C4B9B681C4A93601A4B5F
:10BE70005B681A4A5360194B93ED027A174BD3ED66
:10BE8000017A77EE677A164BC3ED007A042000F052
:10BE90002FFB052000F02CFB062000F029FB0120E1
:10BEA00000F026FB022000F023FB002000F020FB26
:10BEB00000BF80BD2404004024080040AC070020DF
:10BEC00024050020B8020020CC020020C802002077
:10BED000D0020020980200206002002070020020A2
:10BEE0008002002090B5A3B000AFFFF76BFFFCF716
:10BEF00083FFFFF7D3FB664B00221A60644B0022DE
:10BF00005A60634B00229A600121042000F0C6FAB7
:10BF10000121052000F0C2FA5D4B99685C4B1A685C
:10BF20005B4B5B685B4808F067FD0021002000F078
:10BF3000B5FA0021012000F0B1FA0021022000F042
:10BF4000ADFA0021062000F0A9FA534B4FF0000291
:10BF50001A60032002F000FB4F4B504A1A60002386
:10BF6000C7F8843022E04E4B00229A704A4BD3ED42
:10BF7000007AF0EE670A9FED4B0AFEF705F8484B92
:10BF800002229A70FDF7D4FE454B00229A70DFED35
:10BF9000460A9FED440AFEF797F84FF4FA7002F054
:10BFA000CDFCD7F884300133C7F88430D7F884301B
:10BFB000012BD8DD0023C7F8803048E0072002F0CD
:10BFC000CBFA374B0022DA70354B03229A70374B8D
:10BFD0001A68D7F880309B0007F188010B44843B36
:10BFE0001A60F0EE040A9FED320AFDF7CDFCD7F897
:10BFF000803001332D4A12689B0007F188010B4401
:10C00000843B1A60642002F099FCD7F88030023338
:10C01000264A12689B0007F188010B44843B1A6092
:10C02000002002F099FA1E4B0022DA701C4B03220A
:10C030009A70F8EE040A9FED1E0AFDF7A5FC642035
:10C0400002F07CFCD7F880300333C7F88030D7F893
:10C0500080301D2BB2DD0023FB6714E0FB6F9B00DB
:10C0600007F188021344843B1B681846FCF7A4F9C7
:10C0700003460C461A462346F96F0E4808F0BCFCEE
:10C08000FB6F0133FB67FB6F1D2BE7DDE3E700BFB1
:10C09000980200206C8F01080000002000009643E9
:10C0A000040000200000344200000000B402002020
:10C0B0000000B442A08F010880B500AFFEF73EFD3E
:10C0C000FEF7F8FD00BF80BD80B500AFFFF77AFE38
:10C0D000FCF792FEFFF7E2FA124B00221A60114BB6
:10C0E00000225A600F4B00229A600121042000F0C8
:10C0F000D5F90121052000F0D1F90021002000F040
:10C10000CDF90121012000F0C9F90021022000F041
:10C11000C5F9054B4FF000021A60042002F01CFA2A
:10C12000FEE700BF980200200000002080B500AFAD
:10C13000FFF748FEFCF760FEFFF7B0FA124B002253
:10C140001A60114B00225A600F4B00229A600121A5
:10C15000042000F0A3F90121052000F09FF900213F
:10C16000002000F09BF90021012000F097F9012147
:10C17000022000F093F9054B4FF000021A600120F5
:10C1800002F0EAF9FEE700BF98020020000000205C
:10C1900080B500AFFFF716FEFCF72EFEFFF77EFA24
:10C1A000124B00221A60114B00225A600F4B0022E2
:10C1B0009A600121042000F071F90121052000F0AE
:10C1C0006DF90121002000F069F90021012000F043
:10C1D00065F90021022000F061F9054B4FF00002E3
:10C1E0001A60022002F0B8F9FEE700BF98020020B2
:10C1F0000000002080B500AFFFF7E4FDFCF7FCFD78
:10C20000FFF74CFA144B00221A60134B00225A60BD
:10C21000114B00229A600121042000F03FF9012116
:10C22000052000F03BF90121062000F037F900213C
:10C23000002000F033F90021012000F02FF9002147
:10C24000022000F02BF9054B4FF000021A60052088
:10C2500002F082F9FEE700BF9802002000000020F3
:10C2600080B500AFFFF7AEFD1B4808F039FCFCF7C6
:10C27000C3FDFFF713FA194808F032FC184B0022EF
:10C280001A60174B00225A60154B00229A60012158
:10C29000042000F003F90121052000F0FFF8104B05
:10C2A00099680F4B1A680E4B5B680E4808F0A4FBA8
:10C2B0000021002000F0F2F80021012000F0EEF84B
:10C2C0000021022000F0EAF8074B4FF000021A604C
:10C2D000072002F041F9FEE7AC8F0108B08F01089A
:10C2E000980200206C8F01080000002080B582B009
:10C2F00000AFFFF767FD484808F0F2FBFCF77CFD54
:10C30000FFF7CCF9454808F0EBFB454B00221A60DB
:10C31000434B00225A60424B00229A6001210420C4
:10C3200000F0BCF80121052000F0B8F83C4B9968FA
:10C330003B4B1A683A4B5B683A4808F05DFB0021BA
:10C34000002000F0ABF80021012000F0A7F8002148
:10C35000022000F0A3F8344B344A1A60022002F0A5
:10C36000FBF800237B60304BD3ED007AF0EE670AD8
:10C370009FED2F0AFDF708FE2E4B5B780133DAB2F2
:10C380002C4B5A702CE07B6801337B607B6803F098
:10C390000103002B03D0072002F0DEF802E00020AA
:10C3A00002F0DAF8234B1878224B5978214BDA78CF
:10C3B000214BD3ED027A204B93ED017A1E4BD3ED46
:10C3C000006A1D4B93ED036AF0EE461AB0EE661A52
:10C3D000F0EE470AB0EE670AFFF7F4F9FFF70CFB3F
:10C3E000144B1B78032BCED1124B5B78032BCAD195
:10C3F000DFED120A9FED120AFDF766FE072000F03E
:10C40000DBF900237B6002E07B6801337B607B68A3
:10C41000092BF9DDF5E700BFAC8F0108B08F0108EB
:10C42000980200206C8F0108000000200000964355
:10C43000000076420400002060020020000000009E
:10C4400000000C4280B485B000AFF86087ED020AAE
:10C45000C7ED010A87ED001A0F4AFB682C2101FB8A
:10C4600003F31344BA681A600B4AFB682C2101FBE2
:10C4700003F3134404337A681A60074AFB682C21DB
:10C4800001FB03F3134408333A681A6000BF143702
:10C49000BD465DF8047B7047E802002080B483B09D
:10C4A00000AF78603960074A7B682C2101FB03F3F9
:10C4B000134428333A681A6000BF0C37BD465DF854
:10C4C000047B7047E802002080B483B000AF78603E
:10C4D000064A7B682C2101FB03F3134428331B68B5
:10C4E00018460C37BD465DF8047B7047E802002013
:10C4F00080B483B000AF78601B4A7B682C2101FBBD
:10C5000003F313440C334FF000021A60164A7B68A1
:10C510002C2101FB03F3134410334FF000021A6087
:10C52000114A7B682C2101FB03F3134414334FF0B1
:10C5300000021A600C4A7B682C2101FB03F31344B0
:10C5400018334FF000021A60074A7B682C2101FB68
:10C5500003F31344243300221A6000BF0C37BD4696
:10C560005DF8047B704700BFE802002090B583B0FF
:10C5700000AF786087ED000A644A7B682C2101FBDC
:10C5800003F31344203393ED007A604A7B682C2137
:10C5900001FB03F313441C33D3ED007A77EE677A83
:10C5A0005A4A7B682C2101FB03F313440C33C3ED7F
:10C5B000007A564A7B682C2101FB03F313441033A5
:10C5C00093ED007A514A7B682C2101FB03F313445D
:10C5D0000C33D3ED006AD7ED007A66EEA77A77EEDA
:10C5E000277A4A4A7B682C2101FB03F3134410335A
:10C5F000C3ED007A454A7B682C2101FB03F3134409
:10C600000C3393ED007A414A7B682C2101FB03F344
:10C6100013441833D3ED007A77EE676A97ED007A0A
:10C62000C6EE877A394A7B682C2101FB03F3134459
:10C630001433C3ED007A354A7B682C2101FB03F3E8
:10C6400013440C331A6831497B682C2000FB03F338
:10C650000B4418331A602D4A7B682C2101FB03F32D
:10C66000134493ED007A294A7B682C2101FB03F3E4
:10C6700013440C33D3ED007A27EE277A234A7B68E4
:10C680002C2101FB03F313440433D3ED006A1F4A4A
:10C690007B682C2101FB03F313441033D3ED007AA4
:10C6A00066EEA77A37EE277A184A7B682C2101FBC1
:10C6B00003F313440833D3ED006A144A7B682C213A
:10C6C00001FB03F313441433D3ED007A66EEA77A2B
:10C6D00077EE277A17EE900AFBF76EFE03460C46BC
:10C6E00044EC103B07F0C2FA54EC103B18462146CC
:10C6F000FCF76AF9054A7B682C2101FB03F313441C
:10C700002433186000BF0C37BD4690BDE8020020FE
:10C7100080B485B000AFF86087ED020AC7ED010A6A
:10C720000B4AFB682C2101FB03F313442033BA6846
:10C730001A60074AFB682C2101FB03F313441C33E6
:10C740007A681A6000BF1437BD465DF8047B7047F5
:10C75000E802002080B584B000AFF86087ED020ADF
:10C76000C7ED010A87ED001AD7ED000A97ED010A1F
:10C77000F868FFF7CDFF97ED020AF868FFF7F6FEBD
:10C780000C4AFB682C2101FB03F3134428331B687C
:10C79000002B02D1F868FFF7ABFE064AFB682C219C
:10C7A00001FB03F3134424331B6818461037BD46BE
:10C7B00080BD00BFE802002080B584B000AF786083
:10C7C0000023FB600EE0786801F0C6FE642002F0F2
:10C7D000B5F8002001F0C0FE642002F0AFF8FB685D
:10C7E0000133FB60FB68042BEDDD00BF1037BD4655
:10C7F00080BD000080B586B000AF78609FED121A52
:10C80000DFED120AB0EE080A7868FEF789F887EDC6
:10C81000050A03210220FEF7ADF8386138699FED63
:10C820000C1ADFED0C0A97ED050AFEF7C0F8F86068
:10C83000F968094808F0E0F8F868FFF7BDFF00BFA5
:10C840001837BD4680BD00BF0000804533335340DC
:10C85000666606416666E640B48F010890B585B00D
:10C8600000AF03463A60FB710B46BB7101F058FE06
:10C8700001F06EFB404805F038F901F031FE3B68ED
:10C88000FA791A7047F22F513C48FDF7BBFF5CE084
:10C890003B4BDB681846FBF78FFD03460C461A46F8
:10C8A0002346384808F0A8F8374B5B6AFB60FB6802
:10C8B0004BF22E52934221DD3B6893F90030DBB2FC
:10C8C0000133DBB25AB23B681A703B6893F900300F
:10C8D00097F906209A4202DA3B68FA791A703B68A7
:10C8E00093F90030184601F037FE47F22F512348E4
:10C8F000FDF788FF4FF4FA7002F020F8FB6843F26E
:10C900002F52934221DC3B6893F90030DBB2013BAC
:10C91000DBB25AB23B681A703B6893F9003097F962
:10C9200007209A4202DD3B68BA791A703B6893F996
:10C930000030184601F010FE47F22F510F48FDF766
:10C9400061FF4FF4FA7001F0F9FF0D4BD3ED037A5C
:10C950009FED0E7AF4EEC77AF1EE10FA98D401F05A
:10C96000EDFD01F015FB044805F0E3F801F0C8FD0A
:10C9700000BF1437BD4690BD2405002024040040AC
:10C9800060020020BC8F01080004004000007A43D0
:10C9900080B582B000AF7860391D4FF6FF73012279
:10C9A000034806F05DFC7B6818460837BD4680BD2D
:10C9B0000C07002080B582B000AF0223FB7107E0B6
:10C9C000B91D0A230122064806F0E3FC0346FB7169
:10C9D000FB79002BF4D1BB7918460837BD4680BDE2
:10C9E0000C07002080B582B000AF01F035FF00F0E9
:10C9F000B1F800F0FBFC00F0D1FC00F015F900F0FC
:10CA000081F900F0DBFA00F063FA00F0DBF900F0E6
:10CA10009BFC00F07BFB00F025FB00F0EDFB00F041
:10CA200007FA01F095FA4FF4FA7001F087FF414BD5
:10CA30009B681846FFF7DEFE0023FB7197F907306D
:10CA400019463D4807F0D8FFFB1D1A460721002074
:10CA5000FFF704FF97F907301846FFF7ADFE374898
:10CA600008F03EF89FED361ADFED360A9FED360AE4
:10CA70000420FFF7E7FC9FED321ADFED320A9FED4D
:10CA8000320A0520FFF7DEFC9FED301AF3EE0E0AA6
:10CA9000B2EE0E0A0620FFF7D5FC9FED2D1ADFED52
:10CAA0002C0AB2EE040A0020FFF7CCFC9FED281AF6
:10CAB000DFED270AB2EE040A0120FFF7C3FC9FED69
:10CAC000241ADFED230AB2EE040A0220FFF7BAFCB3
:10CAD00097F90730072B2BD801A252F823F000BF9B
:10CAE00001CB000807CB00080DCB000813CB0008D2
:10CAF00019CB00081FCB000825CB00082BCB000862
:10CB0000FFF7DAFA15E0FFF711FB12E0FFF740FB41
:10CB10000FE0FFF7E7F90CE0FFF7D6FA09E0FFF7BF
:10CB200069FB06E0FFF7E2FB03E0FFF799FB00E09B
:10CB300000BFCDE74C040020D08F0108DC8F010836
:10CB40006F12033B00E017459A9931416F12833A07
:10CB50000000000080B594B000AF07F12003302240
:10CB60000021184607F001F907F10C0300221A60B2
:10CB70005A609A60DA601A610023BB60284B1B6C14
:10CB8000274A43F080531364254B1B6C03F08053FA
:10CB9000BB60BB6800237B60224B1B68214A43F4C7
:10CBA000804313601F4B1B6803F480437B607B68EA
:10CBB00001233B624FF480337B620223BB634FF45B
:10CBC0008003FB6304233B64A8237B640223BB64D0
:10CBD0000423FB6407F12003184603F0A5FD034678
:10CBE000002B01D000F0CCFC0F23FB6002233B6143
:10CBF00000237B614FF4A053BB614FF48053FB6172
:10CC000007F10C030521184603F0FEFF0346002B35
:10CC100001D000F0B5FC00BF5037BD4680BD00BF5D
:10CC2000003802400070004080B584B000AF3B4641
:10CC300000221A605A609A60DA602F4B2F4A1A60FD
:10CC40002D4B4FF400325A602B4B00229A602A4B36
:10CC500001221A61284B01221A76274B002283F801
:10CC60002020254B0022DA62234B254A9A62224B70
:10CC70000022DA60204B0322DA611F4B012283F885
:10CC800030201D4B01225A611B4801F079FE0346FA
:10CC9000002B01D000F074FC0A233B6001237B6071
:10CCA0000323BB603B461946134802F051F9034683
:10CCB000002B01D000F064FC0E233B6002237B605C
:10CCC0003B4619460C4802F043F90346002B01D0BD
:10CCD00000F056FC09233B6003237B603B4619466A
:10CCE000054802F035F90346002B01D000F048FC5E
:10CCF00000BF1037BD4680BDC406002000200140A3
:10CD00000100000F80B584B000AF3B4600221A60DE
:10CD10005A609A60DA60284B284A1A60264B4FF412
:10CD200000325A60244B00229A60234B01221A6180
:10CD3000214B01221A76204B002283F820201E4B23
:10CD40000022DA621C4B1E4A9A621B4B0022DA60F8
:10CD5000194B0222DA61184B012283F83020164B5E
:10CD600001225A61144801F00BFE0346002B01D04A
:10CD700000F006FC0B233B6001237B600323BB60B8
:10CD80003B4619460C4802F0E3F80346002B01D05D
:10CD900000F0F6FB0F233B6002237B603B46194605
:10CDA000054802F0D5F80346002B01D000F0E8FB5F
:10CDB00000BF1037BD4680BDA40500200021014002
:10CDC0000100000F80B500AF174B184A1A60164BD0
:10CDD0004FF482725A60144B00229A60124B002268
:10CDE000DA60114B02221A610F4B01225A610E4B7D
:10CDF0004FF400729A610C4B2822DA610A4B002230
:10CE00001A62094B00225A62074B00229A62064BB3
:10CE10000A22DA62044804F0E9F80346002B01D044
:10CE200000F0AEFB00BF80BD6C060020003C00405F
:10CE300080B586B000AF07F1080300221A605A607F
:10CE40009A60DA603B4600221A605A601E4B1F4A05
:10CE50001A601D4BA7225A601B4B00229A601A4B86
:10CE600040F2E732DA60184B00221A61164B0022BA
:10CE70005A61154B00229A61134804F00BFE0346D9
:10CE8000002B01D000F07CFB4FF48053BB6007F116
:10CE9000080319460C4805F0D5FB0346002B01D0CA
:10CEA00000F06EFB00233B6000237B603B4619468D
:10CEB000054806F081F80346002B01D000F060FB26
:10CEC00000BF1837BD4680BDAC0700200000014000
:10CED00080B58EB000AF07F1280300221A605A60B7
:10CEE0009A60DA6007F1200300221A605A603B1D45
:10CEF00000221A605A609A60DA601A615A619A6177
:10CF00002D4B4FF080421A602B4B00225A602A4B67
:10CF100000229A60284B41F26702DA60264B002219
:10CF20001A61254B00229A61234804F0B3FD0346A1
:10CF3000002B01D000F024FB4FF48053BB6207F1BB
:10CF4000280319461C4805F07DFB0346002B01D041
:10CF500000F016FB184804F06BFF0346002B01D0CD
:10CF600000F00EFB00233B6200237B6207F12003ED
:10CF70001946114806F020F80346002B01D000F0B6
:10CF8000FFFA60237B600023BB600023FB6000236B
:10CF90007B613B1D0C221946074805F08DFA0346BC
:10CFA000002B01D000F0ECFA034800F089FD00BF2F
:10CFB0003837BD4680BD00BFEC07002080B58CB07F
:10CFC00000AF07F10C0324220021184606F0CDFE25
:10CFD0003B1D00221A605A60204B214A1A601F4BE9
:10CFE00000225A601D4B00229A601C4B4EF65F22B5
:10CFF000DA601A4B00221A61184B00229A6103234F
:10D00000FB6000233B6101237B610023BB610023A4
:10D01000FB6100233B6201237B620023BB62002390
:10D02000FB6207F10C0319460C4804F0CDFF0346E0
:10D03000002B01D000F0A4FA00237B600023BB602A
:10D040003B1D1946054805F0B7FF0346002B01D0EC
:10D0500000F096FA00BF3037BD4680BD2C06002098
:10D060000004004080B58CB000AF07F10C0324220F
:10D070000021184606F079FE3B1D00221A605A6016
:10D08000204B214A1A601F4B00225A601D4B002280
:10D090009A601C4B4EF65F22DA601A4B00221A612E
:10D0A000184B00229A610323FB6000233B6101239C
:10D0B0007B610023BB610023FB6100233B620123F2
:10D0C0007B620023BB620023FB6207F10C0319465D
:10D0D0000C4804F079FF0346002B01D000F050FA11
:10D0E00000237B600023BB603B1D1946054805F00B
:10D0F00063FF0346002B01D000F042FA00BF303737
:10D10000BD4680BD640500200008004080B58EB09B
:10D1100000AF07F1280300221A605A609A60DA60B3
:10D1200007F1200300221A605A603B1D00221A609A
:10D130005A609A60DA601A615A619A612C4B2D4AE2
:10D140001A602B4B00225A60294B00229A60284B10
:10D1500041F26702DA60264B00221A61244B00225A
:10D160009A61234804F096FC0346002B01D000F09E
:10D1700007FA4FF48053BB6207F1280319461C4895
:10D1800005F060FA0346002B01D000F0F9F91848C9
:10D1900004F04EFE0346002B01D000F0F1F900230D
:10D1A0003B6200237B6207F120031946104805F01B
:10D1B00003FF0346002B01D000F0E2F960237B60FF
:10D1C0000023BB600023FB6000237B613B1D042226
:10D1D0001946074805F070F90346002B01D000F00E
:10D1E000CFF9034800F06CFC00BF3837BD4680BD66
:10D1F000EC050020000C004080B596B000AF07F1B0
:10D20000480300221A605A609A60DA6007F140030E
:10D2100000221A605A6007F1240300221A605A6043
:10D220009A60DA601A615A619A613B1D20220021DE
:10D23000184606F09AFD424B424A1A60404BA7221C
:10D240005A603F4B00229A603D4B3122DA603C4BE2
:10D2500000221A613A4B00225A61394B80229A61AE
:10D26000374804F017FC0346002B01D000F088F982
:10D270004FF48053BB6407F148031946304805F06A
:10D28000E1F90346002B01D000F07AF92C4804F0B4
:10D290007BFC0346002B01D000F072F900233B64B5
:10D2A00000237B6407F140031946254805F084FEFE
:10D2B0000346002B01D000F063F930237B62182372
:10D2C000BB620023FB6200233B6300237B630023DC
:10D2D000BB630023FB6307F12403002219461848AF
:10D2E00005F08AF80346002B01D000F049F9144BF1
:10D2F0001B689A69124B1B6842F008029A6100236E
:10D300007B600023BB600023FB6000233B610023A4
:10D310007B614FF40053BB6100233B623B1D194608
:10D32000074805F0C5FE0346002B01D000F028F9A0
:10D33000034800F0C5FB00BF5837BD4680BD00BFA5
:10D34000240500200004014080B500AF114B124AB3
:10D350001A60104B4FF4E1325A600E4B00229A6073
:10D360000C4B0022DA600B4B00221A61094B0C2295
:10D370005A61084B00229A61064B0022DA61054887
:10D3800005F021FF0346002B01D000F0F9F800BFA3
:10D3900080BD00BF0C0700200010014080B582B0A6
:10D3A00000AF00237B60104B1B6B0F4A43F48003DC
:10D3B00013630D4B1B6B03F480037B607B680022BF
:10D3C0000021382002F049F9382002F062F90022E9
:10D3D00000213A2002F041F93A2002F05AF900BF48
:10D3E0000837BD4680BD00BF0038024080B58AB016
:10D3F00000AF07F1140300221A605A609A60DA60E5
:10D400001A6100233B61594B1B6B584A43F0800360
:10D410001363564B1B6B03F080033B613B69002396
:10D42000FB60524B1B6B514A43F0040313634F4B99
:10D430001B6B03F00403FB60FB680023BB604B4BDA
:10D440001B6B4A4A43F001031363484B1B6B03F009
:10D450000103BB60BB6800237B60444B1B6B434AEA
:10D4600043F002031363414B1B6B03F002037B6029
:10D470007B6800233B603D4B1B6B3C4A43F0080339
:10D4800013633A4B1B6B03F008033B603B680022BD
:10D490004FF44171364803F02DF90022052135483B
:10D4A00003F028F900220421334803F023F9002275
:10D4B0004FF40071314803F01DF94FF441737B6163
:10D4C0000123BB610023FB6100233B6207F11403CE
:10D4D0001946274802F074FF05237B610123BB61D5
:10D4E0000023FB6100233B6207F114031946214826
:10D4F00002F066FF41F204037B610023BB6100235D
:10D50000FB6107F1140319461C4802F059FF4FF460
:10D5100080437B610023BB610023FB6107F114039F
:10D520001946144802F04CFF04237B610123BB61C0
:10D530000023FB6100233B6207F1140319460E48E8
:10D5400002F03EFF4FF400737B610123BB610023B7
:10D55000FB6100233B6207F114031946074802F000
:10D560002FFF00BF2837BD4680BD00BF00380240F6
:10D570000008024000000240000C0240000402408B
:10D5800080B400AF72B6FEE780B582B000AF002372
:10D590007B60134B5B6C124A43F480435364104B23
:10D5A0005B6C03F480437B607B6800233B600C4B27
:10D5B0001B6C0B4A43F080531364094B1B6C03F044
:10D5C00080533B603B6800220021042002F045F8B4
:10D5D000042002F05EF800BF0837BD4680BD00BFE2
:10D5E0000038024080B58CB000AF786007F11C03B2
:10D5F00000221A605A609A60DA601A617B681B68C0
:10D60000734A93427AD10023BB61724B5B6C714ABF
:10D6100043F4807353646F4B5B6C03F48073BB61A2
:10D62000BB6900237B616B4B1B6B6A4A43F00403AD
:10D630001363684B1B6B03F004037B617B6900235E
:10D640003B61644B1B6B634A43F002031363614B02
:10D650001B6B03F002033B613B691123FB61032356
:10D660003B6200237B6207F11C0319465A4802F013
:10D67000A7FE0223FB6103233B6200237B6207F1C9
:10D680001C031946554802F09BFE554B554A1A603B
:10D69000534B00225A60524B00229A60504B00229A
:10D6A000DA604F4B4FF480621A614D4B4FF4805259
:10D6B0005A614B4B4FF480429A61494B4FF4807250
:10D6C000DA61474B00221A62454B00225A624448F5
:10D6D00001F0FAFF0346002B01D0FFF751FF7B68F2
:10D6E0003F4A9A633E4A7B689363002200211220DE
:10D6F00001F0B3FF122001F0CCFF65E07B681B68EE
:10D70000394A934260D10023FB60324B5B6C314A53
:10D7100043F4007353642F4B5B6C03F40073FB60A2
:10D72000FB680023BB602B4B1B6B2A4A43F00403AE
:10D730001363284B1B6B03F00403BB60BB682223FD
:10D74000FB6103233B6200237B6207F11C03194644
:10D75000214802F035FE254B254A1A60234B4FF035
:10D7600000725A60214B00229A60204B0022DA603E
:10D770001E4B4FF480621A611C4B4FF480525A6169
:10D780001A4B4FF480429A61184B4FF48072DA6161
:10D79000164B00221A62154B00225A62134801F000
:10D7A00093FF0346002B01D0FFF7EAFE7B680F4A88
:10D7B0009A630E4A7B68936300220021122001F0D5
:10D7C0004CFF122001F065FF00BF3037BD4680BD21
:10D7D00000200140003802400008024000040240DE
:10D7E0004C07002010640240002101402C0800205A
:10D7F0004064024080B58AB000AF786007F114033E
:10D8000000221A605A609A60DA601A617B681B68AD
:10D81000194A93422CD100233B61184B1B6C174AC9
:10D8200043F400431364154B1B6C03F400433B614A
:10D830003B690023FB60114B1B6B104A43F0040350
:10D8400013630E4B1B6B03F00403FB60FB684FF488
:10D85000E0537B610223BB610023FB6103233B6236
:10D8600006237B6207F114031946054802F0A8FD60
:10D8700000BF2837BD4680BD003C00400038024054
:10D880000008024080B586B000AF78607B681B68F6
:10D89000404A934216D100237B613F4B5B6C3E4A6A
:10D8A00043F0010353643C4B5B6C03F001037B6169
:10D8B0007B6900220121192001F0CFFE192001F01F
:10D8C000E8FE62E07B681B68B3F1804F16D100234D
:10D8D0003B61314B1B6C304A43F0010313642E4B08
:10D8E0001B6C03F001033B613B69002200211C20FB
:10D8F00001F0B3FE1C2001F0CCFE46E07B681B6803
:10D90000264A934216D10023FB60234B1B6C224A0C
:10D9100043F008031364204B1B6C03F00803FB6007
:10D92000FB6800220021322001F097FE322001F036
:10D93000B0FE2AE07B681B68194A934225D1002378
:10D94000BB60154B5B6C144A43F002035364124BEB
