:020000040800F2
:10000000000002200100010849F400084FF4000834
:1000100055F400085BF4000861F4000800000000DB
:1000200000000000000000000000000067F400086D
:1000300075F400080000000083F4000891F4000843
:100040005100010851000108510001085100010848
:100050005100010851000108510001085100010838
:100060009DF40008510001085100010851000108E9
:100070005100010851000108510001085100010818
:100080005100010851000108510001085100010808
:1000900051000108510001085100010851000108F8
:1000A00051000108ADF40008510001085100010899
:1000B00051000108510001085100010851000108D8
:1000C00051000108510001085100010851000108C8
:1000D00051000108510001085100010851000108B8
:1000E00051000108510001085100010851000108A8
:1000F000C1F4000851000108510001085100010835
:100100005100010851000108510001085100010887
:100110005100010851000108510001085100010877
:10012000D5F4000851000108E9F400085100010865
:10013000510001080000000000000000510001080B
:100140005100010851000108510001085100010847
:100150005100010851000108510001085100010837
:100160005100010851000108510001085100010827
:1001700051000108510001080000000000000000CB
:080180005100010851000108C3
:1080000010B5054C237833B9044B13B10448AFF3D2
:1080100000800123237010BDF80100200000000043
:10802000B8AB010808B5034B1BB103490348AFF3D4
:10803000008008BD00000000FC010020B8AB010872
:10804000034613F8012B002AFBD1181A0138704798
:1080500001F0FF01102A2BDB10F0070F08D010F8F9
:10806000013B013A8B422DD010F0070F42B3F6D1FD
:10807000F0B441EA012141EA014122F007047FF016
:1080800000070023F0E80256083C85EA010586EA6D
:10809000010685FA47F5A3FA87F586FA47F6A5FAA9
:1080A00087F68EB9EED1F0BC01F0FF0102F00702B5
:1080B00032B110F8013B013A83EA010313B1F8D160
:1080C0000020704701387047002D06BF3546033841
:1080D000073815F0010F07D1013015F4807F02BF7A
:1080E000013015F4C03F0130F0BC0138704700BFCB
:1080F00081F0004102E000BF83F0004330B54FEA59
:1081000041044FEA430594EA050F08BF90EA020FC5
:108110001FBF54EA000C55EA020C7FEA645C7FEA58
:10812000655C00F0E2804FEA5454D4EB5555B8BF7B
:108130006D420CDD2C4480EA020281EA030382EAEC
:10814000000083EA010180EA020281EA0303362D7E
:1081500088BF30BD11F0004F4FEA01314FF4801C51
:108160004CEA113102D0404261EB410113F0004F63
:108170004FEA03334CEA133302D0524263EB43031A
:1081800094EA050F00F0A780A4F10104D5F1200EB8
:108190000DDB02FA0EFC22FA05F2801841F1000113
:1081A00003FA0EF2801843FA05F359410EE0A5F1E7
:1081B00020050EF1200E012A03FA0EFC28BF4CF018
:1081C000020C43FA05F3C01851EBE37101F00045CE
:1081D00007D54FF0000EDCF1000C7EEB00006EEBDB
:1081E0000101B1F5801F1BD3B1F5001F0CD3490865
:1081F0005FEA30004FEA3C0C04F101044FEA4452BC
:1082000012F5800F80F09A80BCF1004F08BF5FEA42
:10821000500C50F1000041EB045141EA050130BD22
:108220005FEA4C0C404141EB010111F4801FA4F1C5
:108230000104E9D191F0000F04BF01460020B1FA1A
:1082400081F308BF2033A3F10B03B3F120020CDA52
:108250000C3208DD02F1140CC2F10C0201FA0CF030
:1082600021FA02F10CE002F11402D8BFC2F1200C95
:1082700001FA02F120FA0CFCDCBF41EA0C0190404B
:10828000E41AA2BF01EB0451294330BD6FEA040494
:108290001F3C1CDA0C340EDC04F11404C4F120027F
:1082A00020FA04F001FA02F340EA030021FA04F391
:1082B00045EA030130BDC4F10C04C4F1200220FAE8
:1082C00002F001FA04F340EA0300294630BD21FA26
:1082D00004F0294630BD94F0000F83F4801306BFEC
:1082E00081F480110134013D4EE77FEA645C18BFE0
:1082F0007FEA655C29D094EA050F08BF90EA020F77
:1083000005D054EA000C04BF1946104630BD91EA6E
:10831000030F1EBF0021002030BD5FEA545C05D171
:108320004000494128BF41F0004130BD14F58004B0
:108330003CBF01F5801130BD01F0004545F0FE4124
:1083400041F470014FF0000030BD7FEA645C1ABF59
:10835000194610467FEA655C1CBF0B46024650EA90
:10836000013406BF52EA033591EA030F41F40021BC
:1083700030BD00BF90F0000F04BF0021704730B542
:108380004FF4806404F132044FF000054FF0000117
:1083900050E700BF90F0000F04BF0021704730B5D8
:1083A0004FF4806404F1320410F0004548BF4042AD
:1083B0004FF000013EE700BF42004FEAE2014FEA02
:1083C00031014FEA02701FBF12F07F4393F07F4FDD
:1083D00081F06051704732F07F4208BF704793F0E0
:1083E0007F4F04BF41F40021704730B54FF46074F3
:1083F00001F0004521F000411CE700BF50EA0102F6
:1084000008BF704730B54FF000050AE050EA01029E
:1084100008BF704730B511F0004502D5404261EB0E
:1084200041014FF4806404F132045FEA915C3FF44F
:10843000D8AE4FF003025FEADC0C18BF03325FEAEC
:10844000DC0C18BF033202EBDC02C2F1200300FA9D
:1084500003FC20FA02F001FA03FE40EA0E0021FAC2
:1084600002F11444BDE600BF70B54FF0FF0C4CF4B0
:10847000E06C1CEA11541DBF1CEA135594EA0C0F62
:1084800095EA0C0F00F0DEF82C4481EA030621EA9D
:108490004C5123EA4C5350EA013518BF52EA0335D8
:1084A00041F4801143F4801338D0A0FB02CE4FF08A
:1084B0000005E1FB02E506F00042E0FB03E54FF0BA
:1084C0000006E1FB03569CF0000F18BF4EF0010EB2
:1084D000A4F1FF04B6F5007F64F5407404D25FEAAE
:1084E0004E0E6D4146EB060642EAC62141EA555161
:1084F0004FEAC52040EA5E504FEACE2EB4F1FD0CA3
:1085000088BFBCF5E06F1ED8BEF1004F08BF5FEA20
:10851000500E50F1000041EB045170BD06F00046D2
:1085200046EA010140EA020081EA0301B4EB5C047F
:10853000C2BFD4EB0C0541EA045170BD41F4801177
:108540004FF0000E013C00F3AB8014F1360FDEBF9C
:10855000002001F0004170BDC4F10004203C35DA78
:108560000C341BDC04F11404C4F1200500FA05F3FB
:1085700020FA04F001FA05F240EA020001F000429C
:1085800021F0004110EBD37021FA04F642EB060112
:108590005EEA430E08BF20EAD37070BDC4F10C043C
:1085A000C4F1200500FA04F320FA05F001FA04F200
:1085B00040EA020001F0004110EBD37041F10001EC
:1085C0005EEA430E08BF20EAD37070BDC4F12005F7
:1085D00000FA05F24EEA020E20FA04F301FA05F25F
:1085E00043EA020321FA04F001F0004121FA04F207
:1085F00020EA020000EBD3705EEA430E08BF20EAD7
:10860000D37070BD94F0000F0FD101F00046400010
:1086100041EB010111F4801F08BF013CF7D041EA92
:10862000060195F0000F18BF704703F00046520096
:1086300043EB030313F4801F08BF013DF7D043EA67
:108640000603704794EA0C0F0CEA135518BF95EA1D
:108650000C0F0CD050EA410618BF52EA4306D1D1A4
:1086600081EA030101F000414FF0000070BD50EAC3
:10867000410606BF1046194652EA430619D094EA4D
:108680000C0F02D150EA013613D195EA0C0F05D137
:1086900052EA03361CBF104619460AD181EA03018B
:1086A00001F0004141F0FE4141F470014FF0000043
:1086B00070BD41F0FE4141F4780170BD70B54FF0DE
:1086C000FF0C4CF4E06C1CEA11541DBF1CEA13555E
:1086D00094EA0C0F95EA0C0F00F0A7F8A4EB050440
:1086E00081EA030E52EA03354FEA013100F0888037
:1086F0004FEA03334FF0805545EA131343EA126300
:108700004FEA022245EA111545EA10654FEA0026B4
:108710000EF000419D4208BF964244F1FD0404F56D
:10872000407402D25B084FEA3202B61A65EB0305C9
:108730005B084FEA32024FF480104FF4002CB6EB86
:10874000020E75EB030E22BFB61A754640EA0C0006
:108750005B084FEA3202B6EB020E75EB030E22BF46
:10876000B61A754640EA5C005B084FEA3202B6EB87
:10877000020E75EB030E22BFB61A754640EA9C0046
:108780005B084FEA3202B6EB020E75EB030E22BF16
:10879000B61A754640EADC0055EA060E18D04FEAD4
:1087A000051545EA16754FEA06164FEAC30343EA74
:1087B00052734FEAC2025FEA1C1CC0D111F4801F41
:1087C0000BD141EA00014FF000004FF0004CB6E73A
:1087D00011F4801F04BF01430020B4F1FD0C88BFD9
:1087E000BCF5E06F3FF6AFAEB5EB030C04BFB6EBE4
:1087F000020C5FEA500C50F1000041EB045170BDD7
:108800000EF0004E4EEA113114EB5C04C2BFD4EB03
:108810000C0541EA045170BD41F480114FF0000E87
:10882000013C90E645EA060E8DE60CEA135594EA03
:108830000C0F08BF95EA0C0F3FF43BAF94EA0C0F06
:108840000AD150EA01347FF434AF95EA0C0F7FF47B
:1088500025AF104619462CE795EA0C0F06D152EACF
:1088600003353FF4FDAE1046194622E750EA4106B3
:1088700018BF52EA43067FF4C5AE50EA41047FF4C4
:108880000DAF52EA43057FF4EBAE12E74FF0FF3C29
:1088900006E000BF4FF0010C02E000BF4FF0010CFA
:1088A0004DF804CD4FEA410C7FEA6C5C4FEA430C73
:1088B00018BF7FEA6C5C1BD001B050EA410C0CBFC2
:1088C00052EA430C91EA030F02BF90EA020F002024
:1088D000704710F1000F91EA030F58BF994208BF8B
:1088E00090422CBFD8176FEAE37040F00100704748
:1088F0004FEA410C7FEA6C5C02D150EA013C07D19F
:108900004FEA430C7FEA6C5CD6D152EA033CD3D0E9
:108910005DF8040B704700BF8446104662468C46E3
:108920001946634600E000BF01B5FFF7B7FF002816
:1089300048BF10F1000F01BD4DF808EDFFF7F4FF3F
:108940000CBF012000205DF808FB00BF4DF808EDCA
:10895000FFF7EAFF34BF012000205DF808FB00BFED
:108960004DF808EDFFF7E0FF94BF012000205DF80F
:1089700008FB00BF4DF808EDFFF7CEFF94BF0120C4
:1089800000205DF808FB00BF4DF808EDFFF7C4FFBD
:1089900034BF012000205DF808FB00BF4FEA410C06
:1089A0007FEA6C5C02D150EA013C0AD14FEA430CE9
:1089B0007FEA6C5C02D152EA033C02D14FF0000026
:1089C00070474FF0010070474FEA410212F5001264
:1089D00015D211D56FF47873B3EB625212D94FEA06
:1089E000C12343F0004343EA505311F0004F23FAF0
:1089F00002F018BF404270474FF00000704750EA45
:108A0000013005D111F0004008BF6FF00040704701
:108A10004FF00000704700BF4A0011D212F500125B
:108A200011D20DD56FF47873B3EB62520ED44FEAC6
:108A3000C12343F0004343EA505323FA02F0704746
:108A40004FF00000704750EA013002D14FF0FF3084
:108A500070474FF0000070474FEA4102B2F1E04327
:108A600024BFB3F5001CDCF1FE5C0DD901F0004C15
:108A70004FEAC0024CEA5070B2F1004F40EB830065
:108A800008BF20F00100704711F0804F21D113F191
:108A90003872BCBF01F00040704741F480114FEACA
:108AA0005252C2F11802C2F1200C10FA0CF320FA53
:108AB00002F018BF40F001004FEAC1234FEAD32370
:108AC00003FA0CFC40EA0C0023FA02F34FEA4303DA
:108AD000CCE77FEA625307D150EA01331EBF4FF063
:108AE000FE4040F44000704701F0004040F0FE407E
:108AF00040F40000704700BF53B94AB9002908BFCD
:108B000000281CBF4FF0FF314FF0FF3000F072B96A
:108B1000ADF1080C6DE904CE00F006F8DDF804E0D4
:108B2000DDE9022304B070472DE9F047089E0446B2
:108B30008846002B4BD18A42154667D9B2FA82F299
:108B40004AB1C2F1200701FA02F320FA07F7954073
:108B500047EA030894404FEA154E230CB8FBFEF792
:108B60001FFA85FC0EFB178843EA084307FB0CF14C
:108B7000994209D9EB1807F1FF3080F01B81994227
:108B800040F21881023F2B445B1AA4B2B3FBFEF003
:108B90000EFB103344EA034400FB0CFCA44509D946
:108BA0002C1900F1FF3380F00781A44540F20481C5
:108BB00002382C4440EA0740A4EB0C0400271EB105
:108BC000D4400023C6E900433946BDE8F0878B4214
:108BD00009D9002E00F0EB800027C6E900013846D5
:108BE0003946BDE8F087B3FA83F7002F47D18B42AF
:108BF00002D3824200F2FA80841A61EB030301205F
:108C00009846002EE0D0C6E90048DDE702B9FFDE55
:108C1000B2FA82F2002A40F08F80491B4FEA154ECB
:108C20001FFA85F80127B1FBFEFC230C0EFB1C117B
:108C300043EA014308FB0CF1994207D9EB180CF108
:108C4000FF3002D2994200F2CD808446591AA3B275
:108C5000B1FBFEF00EFB101443EA044408FB00F8DD
:108C6000A04507D92C1900F1FF3302D2A04500F22C
:108C7000B6801846A4EB080440EA0C409FE7C7F111
:108C8000200CBB4022FA0CFE4EEA030E01FA07F458
:108C900020FA0CF521FA0CF34FEA1E482543B3FBEA
:108CA000F8F92C0C08FB19331FFA8EFA44EA034337
:108CB00009FB0AF49C4202FA07F200FA07F10BD909
:108CC0001EEB030309F1FF3080F087809C4240F2E5
:108CD0008480A9F1020973441B1BADB2B3FBF8F009
:108CE00008FB103345EA034400FB0AFAA24508D901
:108CF0001EEB040400F1FF336BD2A24569D90238A0
:108D0000744440EA0940A0FB0289A4EB0A044C45E4
:108D1000C2464B4654D351D0002E69D0B1EB0A0560
:108D200064EB030404FA0CFCFD40FC404CEA05052E
:108D3000C6E90054002747E7C2F1200320FA03F7F1
:108D4000954001FA02F021FA03F34FEA154E384339
:108D5000010CB3FBFEF71FFA85F80EFB173341EA4F
:108D6000034107FB08F38B4204FA02F407D96918A0
:108D700007F1FF3C2FD28B422DD9023F2944CB1A59
:108D800081B2B3FBFEF00EFB103341EA034100FB5E
:108D900008F38B4207D9691800F1FF3C17D28B42C8
:108DA00015D902382944C91A40EA07473BE7374634
:108DB000304609E70746E7E61846FBE64145ABD2F1
:108DC000B8EB020A69EB0E0201381346A4E76046CD
:108DD000E9E7184695E76746D1E781467CE7023820
:108DE0002C4447E7ACF1020C2B442FE7384608E748
:108DF0003746E9E6704700BF80B400AF0B4B002256
:108E00001A700A4B00225A70084B0022DA70074B86
:108E100000229A70054B04221A71044B01225A71E8
:108E200000BFBD465DF8047B704700BF0000002016
:108E300080B400AF9A4BDB78032B00F22B8101A2A8
:108E400052F823F0558E0008E58E0008758F000853
:108E500005900008924B1B781846914B5B78194699
:108E6000904A03010B4412F81330C3F38103DBB2C1
:108E7000012B11D18A4B1B781846894B5B78194618
:108E8000884A03010B4412F81330C3F38113DBB299
:108E9000012B01D10123FEE0814B1B781846804B4A
:108EA0005B7819467F4A03010B4412F81330C3F371
:108EB0008103DBB2012B01D10323ECE0784B1B785B
:108EC0001846774B5B781946764A03010B4412F833
:108ED0001330C3F38113DBB2012B01D10223DAE09B
:108EE0000623D8E06E4B1B7818466D4B5B7819460D
:108EF0006C4A03010B4412F81330C3F30103DBB2D5
:108F0000012B11D1664B1B781846654B5B781946CF
:108F1000644A03010B4412F81330C3F30113DBB2AC
:108F2000012B01D10123B6E05D4B1B7818465C4B49
:108F30005B7819465B4A03010B4412F81330C3F304
:108F40000103DBB2012B01D10223A4E0544B1B78B7
:108F50001846534B5B781946524A03010B4412F8EA
:108F60001330C3F30113DBB2012B01D1032392E0D1
:108F7000062390E04A4B1B781846494B5B7819460C
:108F8000484A03010B4412F81330C3F38103DBB2E8
:108F9000012B11D1424B1B781846414B5B78194687
:108FA000404A03010B4412F81330C3F38113DBB2C0
:108FB000012B01D101236EE0394B1B781846384B49
:108FC0005B781946374A03010B4412F81330C3F398
:108FD0008103DBB2012B01D102235CE0304B1B7813
:108FE00018462F4B5B7819462E4A03010B4412F8A2
:108FF0001330C3F38113DBB2012B01D103234AE009
:10900000062348E0264B1B781846254B5B7819460B
:10901000244A03010B4412F81330C3F30103DBB2FB
:10902000012B11D11E4B1B7818461D4B5B7819463E
:109030001C4A03010B4412F81330C3F30113DBB2D3
:10904000012B01D1012326E0154B1B781846144B48
:109050005B781946134A03010B4412F81330C3F32B
:109060000103DBB2012B01D1032314E00C4B1B786D
:1090700018460B4B5B7819460A4A03010B4412F859
:109080001330C3F30113DBB2012B01D1022302E041
:10909000062300E006231846BD465DF8047B7047B2
:1090A00000000020B408002080B400AF114B9B7872
:1090B000022B12D0032B09D0012B00D014E00D4B52
:1090C000DB780133DAB20B4BDA700DE0094BDB7859
:1090D000013BDAB2074BDA7006E0064BDB7802336D
:1090E000DAB2044BDA7000BF00BFBD465DF8047B06
:1090F000704700BF0000002080B400AF034B002287
:109100005A7100BFBD465DF8047B70470000002027
:1091100080B400AF034B01225A7100BFBD465DF819
:10912000047B70470000002080B582B000AFFFF7DD
:109130007FFE78600021022003F0F8FD002103206B
:1091400003F0F4FD0021012003F0F0FD00210020D8
:1091500003F0ECFD7C4B9B78002B3FD17A4B1B79C5
:10916000052B00F2EC8001A252F823F08591000853
:109170003F9300083F9300083F9300083F93000887
:109180008F9100080121002003F0D0FDD8E07B681A
:10919000062B1DD06D4BD3ED007AF5EE407AF1EE43
:1091A00010FA15D1684B5B79002B08D10121786842
:1091B00003F0BCFD0021002003F0B8FD0DE000210C
:1091C000786803F0B3FD0121002003F0AFFD04E057
:1091D0000121002003F0AAFDB2E0B1E05A4B9B78D8
:1091E000032B40D1584B1B79022B08D1584B4FF021
:1091F00000021A60574B4FF000021A60A0E0524B79
:109200001B79012B1DD17B68062B15D04E4B5B794A
:10921000002B08D10121786803F088FD002100208F
:1092200003F084FD8CE00021786803F07FFD0121CC
:10923000002003F07BFD83E00121002003F076FD98
:109240007EE0414B1B79002B04D10121002003F06B
:109250006DFD75E03C4B1B79032B71D10021002083
:1092600003F064FD6CE0384B9B78012B40D1364B0A
:109270001B79022B08D1364B4FF000021A60354B98
:109280004FF000021A605BE02F4B1B79012B1DD1C0
:109290007B68062B15D02C4B5B79002B08D1012164
:1092A000786803F043FD0021002003F03FFD47E014
:1092B0000021786803F03AFD0121002003F036FD1B
:1092C0003EE00121002003F031FD39E01E4B1B7907
:1092D000002B04D10121002003F028FD30E01A4BBF
:1092E0001B79032B2CD10021002003F01FFD27E068
:1092F000154B9B78022B23D1134B1B79012B15D1D6
:10930000114B5B79002B08D10121786803F00EFD29
:109310000021002003F00AFD12E00021786803F02C
:1093200005FD0121002003F001FD09E0064B1B793A
:10933000002B05D10121002003F0F8FC00E000BF64
:1093400000BF0837BD4680BD000000200C0400208F
:10935000100400202C04002080B500AF174B04221D
:109360001A71FFF7E1FE164B4FF000029A60154BA1
:109370004FF000021A60144B4FF000021A60134BBA
:109380004FF000021A60124BD3ED007A9FED117A74
:10939000F4EEC77AF1EE10FA02DD0F480DF0B4FAE0
:1093A0000B4BD3ED027AF5EE407AF1EE10FADAD1FA
:1093B000642006F0C1FE00BF80BD00BF0000002099
:1093C0000004002030040020100400202C040020A1
:1093D000440400200000FA43D0AB01080000000064
:1093E00090B58DB000AF87ED010AC7ED000AB24B12
:1093F00003221A71FFF78CFEFFF796FEAF4B4FF07A
:1094000000021A60D7ED017AB3EE0E7A27EE877A62
:10941000DFEDAB6AC7EE267AC7ED0B7AD7ED017A9E
:10942000B3EE0E7A27EE877ADFEDA56AC7EE267ACD
:10943000C7ED0A7AD7ED017AB3EE0E7A27EE877A76
:10944000DFED9F6AC7EE267AC7ED097AD7ED007A7D
:109450009FED9C7A27EE877AD7ED007A67EE276A30
:10946000D7ED0B7A37EEA77AC6EE877AC7ED057A85
:109470004FF00003BB61D7ED007A9FED927A27EEA3
:10948000877AD7ED007A67EE276AD7ED097A37EE4B
:10949000A77AC6EE877AC7ED077AF86AFEF78CFFDF
:1094A00083A3D3E90023FEF7DFFF03460C461846EB
:1094B00021464FF00002844BFFF700F903460C46AB
:1094C00018462146FFF7C8FA0346BB60B86AFEF7A4
:1094D00073FF77A3D3E90023FEF7C6FF03460C46CC
:1094E000184621464FF00002774BFFF7E7F8034696
:1094F0000C4618462146FFF7AFFA0346FB60786A30
:10950000FEF75AFF6AA3D3E90023FEF7ADFF034637
:109510000C46184621464FF000026B4BFFF7CEF881
:1095200003460C4618462146FFF796FA03463B6170
:10953000D7ED007AF5EEC07AF1EE10FA57DD97ED2F
:10954000027A624BD3ED007A77EE277A5F4BC3ED58
:10955000007A02E07B695E4A13605C4B93ED007A0F
:109560005C4BD3ED007AB4EEE77AF1EE10FAF1DC61
:1095700097ED037A554BD3ED007A77EE277A534B6C
:10958000C3ED007A02E0BB69514A13604F4B93ED83
:10959000007A504BD3ED007AB4EEE77AF1EE10FA90
:1095A000F1DC97ED047A494BD3ED007A77EE277A18
:1095B000464BC3ED007A0EE0D7ED077AF1EE677AFD
:1095C000434BC3ED007A444BD3ED007AF5EEC07AFD
:1095D000F1EE10FA6AD93D4B93ED007A3D4BD3ED95
:1095E000007AB4EEE77AF1EE10FAE5DC77E0D7ED39
:1095F000007AF5EEC07AF1EE10FA70D5334B93EDA8
:10960000007AD7ED027A77EE677A304BC3ED007AB5
:1096100006E0D7ED057AF1EE677A2D4BC3ED007ABF
:109620002A4B93ED007A2B4BD3ED007AB4EEE77A18
:10963000F1EE10FAEDD4254B93ED007AD7ED037AD5
:1096400077EE677A214BC3ED007A02E0BB69204ACE
:1096500013601E4B93ED007A1E4BD3ED007AB4EEEF
:10966000E77AF1EE10FAF1D4184B93ED007AD7EDCA
:10967000047A77EE677A154BC3ED007A0AE0FB694E
:10968000134A1360144BD3ED007AF5EEC07AF1EE75
:1096900010FA23DA0D4B93ED007A0E4BD3ED007ADE
:1096A000B4EEE77AF1EE10FAE9D418E000BF16E064
:1096B000182D4454FB210940000000201004002014
:1096C0000000B4426F12833D0080664034040020E5
:1096D0002C040020600200205C02002000BF324BFE
:1096E0004FF000021A60FFF737FEFFF71DFDD7EDC0
:1096F000017A9FED2E7AC7EE876A16EE900AFEF782
:109700005BFE27A3D3E90023FEF7AEFE03460C461B
:1097100018462146FFF758F903463B62D7ED007A19
:10972000F5EEC07AF1EE10FA13D5214B1A683B6AB8
:10973000D90F0B445B105B4213441D4A13601C4B52
:109740005A683B6AD90F0B445B101344184A5360A4
:1097500019E0D7ED007AF5EEC07AF1EE10FA12DDDD
:10976000134B1A683B6AD90F0B445B101344104A21
:1097700013600F4B5A683B6AD90F0B445B105B4276
:1097800013440B4A53600A4B9B68094A9360FFF7E6
:109790008BFC00BF3437BD4690BD00BFAFF30080E7
:1097A000957A76CE3678FD402C0400200000B44334
:1097B0006804002000000000B0B58AB000AF904BF4
:1097C00002221A71FFF7B0FC8E4B1B687B628E4B36
:1097D0001B683B628C4B5B68FB618B4B9B68BB617E
:1097E000894BDB681846FEF7E7FD81A3D3E9002328
:1097F000FEF73AFE03460C46184621464FF000029B
:10980000824BFEF75BFF03460C4618462146FFF7E6
:1098100023F903467B617C4B1B691846FEF7CCFDA0
:1098200073A3D3E90023FEF71FFE03460C46184638
:1098300021464FF00002754BFEF740FF03460C46F1
:1098400018462146FFF708F903463B616E4B5B69FA
:109850001846FEF7B1FD66A3D3E90023FEF704FE28
:1098600003460C46184621464FF00002674BFEF7B0
:1098700025FF03460C4618462146FFF7EDF8034640
:10988000FB60634B1B68BB60624B1A68614B5B6893
:1098900013447B600AE0604B4FF000021A605F4B9C
:1098A0004FF000021A605E4A7B6A93607868FEF7A8
:1098B00071FD04460D46D7ED087A77EEA77A17EECC
:1098C000900AFEF779FD4CA3D3E90023FEF7F6FEDC
:1098D00002460B4620462946FEF710FC03460C467E
:1098E00025461C464B4B1A684A4B5B681344184686
:1098F000FEF750FD02460B4620462946FFF744F886
:109900000346002BC7D1424B1B68BB60454B1B680D
:109910003B6005E0414ABB691360414A7B6A936042
:1099200097ED007AD7ED057A37EE277A3D4BD3EDE8
:10993000007AB4EEE77AF1EE10FAEBDC374B4FF039
:1099400000021A60324B1B68BB6006E0324B1B689A
:10995000314A1360324A7B6A936097ED007AD7ED03
:10996000047A37EE277A2F4BD3ED007AB4EEE77AFC
:10997000F1EE10FAEADC264B1B68BB6016E0D7ED6F
:10998000067AF1EE677A254BC3ED007A224BD3EDD0
:10999000007AF5EEC07AF1EE10FA04D51E4B4FF0C6
:1099A00000021A6010E01E4A7B6A936097ED007A0D
:1099B000D7ED037A37EE277A1A4BD3ED007AB4EE5F
:1099C000E77AF1EE10FADADC144B4FF000021A607D
:1099D000114B4FF000021A60134B1B68134A1360BF
:1099E0000C4B1A680B4B5B6813447B6035E000BF7F
:1099F000182D4454FB210940A163A98FD223503F65
:109A000000000020840600205004002000806640F2
:109A10005C02002038040020100400202C040020E8
:109A20000004002060020020B40A0020B80A0020D0
:109A3000334B4FF000021A60324A7B6A9360324B1C
:109A40001B68002B09D101F0B3FF01220321032081
:109A500002F020F92C4B01221A607868FEF79AFC7C
:109A600004460D46D7ED077A77EEA77A17EE900AEF
:109A7000FEF7A2FC1EA3D3E90023FEF71FFE024659
:109A80000B4620462946FEF739FB03460C46254681
:109A90001C461E4B1A681D4B5B6813441846FEF7A4
:109AA00079FC02460B4620462946FEF76DFF034629
:109AB000002BBDD1164B1B681846FEF77DFC0EA38C
:109AC000D3E90023FEF71AFB03460C46184621464D
:109AD000FEF7C2FF02460E4B1A600C4B9B680D4A04
:109AE000936000BF2837BD46B0BD00BFAFF3008014
:109AF000A163A98FD223503F182D4454FB21F93F75
:109B00001004002000040020B80A002038040020BF
:109B10003404002068040020B0B58AB000AF8C4B3C
:109B200002221A71FFF700FB8A4B1B687B628A4B8B
:109B30001B683B62884B5B68FB61874BD3ED027A05
:109B4000F1EE677AC7ED067A834BDB681846FEF7BD
:109B500033FC7BA3D3E90023FEF786FC03460C46C7
:109B6000184621464FF000027C4BFEF7A7FD034646
:109B70000C4618462146FEF76FFF03467B61764B85
:109B80001B691846FEF718FC6DA3D3E90023FEF706
:109B90006BFC03460C46184621464FF000026F4B03
:109BA000FEF78CFD03460C4618462146FEF754FF8F
:109BB00003463B61684B5B691846FEF7FDFB60A3FB
:109BC000D3E90023FEF750FC03460C461846214615
:109BD0004FF00002614BFEF771FD03460C4618463C
:109BE0002146FEF739FF0346FB605D4B1A685C4B6C
:109BF0005B681344BB600AE05A4B4FF000021A60E6
:109C0000594B4FF000021A60584A7B6A9360B8685B
:109C1000FEF7C0FB04460D46D7ED087A77EEA77A2B
:109C200017EE900AFEF7C8FB47A3D3E90023FEF71F
:109C300045FD02460B4620462946FEF75FFA0346DD
:109C40000C4625461C46464B1A68454B5B68134438
:109C50001846FEF79FFB02460B4620462946FEF7B4
:109C600093FE0346002BC7D1414B1B687B6005E088
:109C70003D4ABB6913603D4A7B6A936097ED017A68
:109C8000D7ED057A37EE677A394BD3ED007AB4EE2B
:109C9000E77AF1EE10FAEBD4334B4FF000021A6082
:109CA00006E0304B1B682F4A1360304A7B6A936092
:109CB00097ED017AD7ED047A37EE677A2C4BD3ED26
:109CC000007AB4EEE77AF1EE10FAEAD416E0D7EDB6
:109CD000067AF1EE677A244BC3ED007A214BD3ED7F
:109CE000007AF5EEC07AF1EE10FA04DD1D4B4FF06C
:109CF00000021A6010E01D4A7B6A936097ED017ABA
:109D0000D7ED037A37EE677A194BD3ED007AB4EECC
:109D1000E77AF1EE10FADAD4134B4FF000021A6032
:109D2000104B4FF000021A60124B1B68124A13606E
:109D30000B4B1A680A4B5B681344BB6033E000BFEF
:109D4000182D4454FB210940A163A98FD223503F11
:109D5000000000208406002050040020008066409F
:109D600038040020100400202C04002000040020EF
:109D700060020020B40A0020B80A0020324B4FF0E5
:109D800000021A60314A7B6A9360314B1B68002BDA
:109D900009D101F00DFE01220321032001F07AFF19
:109DA0002B4B01221A60B868FEF7F4FA04460D4600
:109DB000D7ED077A77EEA77A17EE900AFEF7FCFA4E
:109DC0001DA3D3E90023FEF779FC02460B4620468B
:109DD0002946FEF793F903460C4625461C461D4BC3
:109DE0001A681C4B5B6813441846FEF7D3FA024608
:109DF0000B4620462946FEF7C7FD0346002BBDD182
:109E0000154B1B681846FEF7D7FA0DA3D3E90023BC
:109E1000FEF772F903460C4618462146FEF71CFE73
:109E200002460D4B1A600B4B9B680C4A936000BFB7
:109E30002837BD46B0BD00BFA163A98FD223503FD4
:109E4000182D4454FB21F93F100400200004002089
:109E5000B80A0020380400203404002068040020E0
:109E6000B0B584B000AF87ED010AC7ED000A564BCC
:109E700000221A71FFF758F9544B4FF000021A6094
:109E80004FF00003FB60524BD3ED027A97ED007A5E
:109E900077EE677AC7ED037AD7ED037A9FED4D7AB7
:109EA00027EE877AD7ED037A67EE276AD7ED017A36
:109EB00037EEA77AC6EE877A474BC3ED007AFFF7F5
:109EC00027F9D7ED017A77EEA77A17EE900AFEF719
:109ED00073FA39A3D3E90023FEF7F0FB03460C46DF
:109EE00018462146FEF770FD0346BB603B4B1B68DE
:109EF0003B4A136035E03B4B9B681846FEF74AFA35
:109F000004460D46B868FEF745FA2DA3D3E90023B1
:109F1000FEF7AAFA02460B4620462946FEF7EEF85F
:109F200003460C4625461C462F4B9B681846FEF7F9
:109F300031FA02460B4620462946FEF707FD034646
:109F4000002B00D10DE0264B1B68002B09D101F03E
:109F50002FFD01220321032001F09CFE204B012252
:109F60001A60204B9A68BB681A441F4B9B689A4240
:109F7000C1DC194B4FF000021A601A4B9A68BB689B
:109F80001344184A9360174B1A68BB68D90F0B44E7
:109F90005B101344134A1360124B5A68BB68D90F05
:109FA0000B445B1013440F4A536000BF1037BD468B
:109FB000B0BD00BFAFF30080A163A98FD223503F93
:109FC0009A9999999999E93F00000020100400207E
:109FD000440400206F12833A30040020B40A0020A9
:109FE000B80A0020680400203804002000000000A7
:109FF000B0B584B000AF87ED010AC7ED000A604B31
:10A0000001221A714FF00003FB605E4B93ED027A60
:10A01000D7ED007A77EE677AC7ED037AD7ED037A4A
:10A020009FED597A27EE877AD7ED037A67EE276A94
:10A03000D7ED017A37EEA77AC6EE877AF1EE677A26
:10A04000524BC3ED007AFFF757F8FFF76DF8D7EDE5
:10A05000017A77EEA77A17EE900AFEF7ADF944A3DE
:10A06000D3E90023FEF72AFB03460C461846214697
:10A07000FEF7AAFC0346BB6052E0454BD3ED027AE3
:10A08000F5EEC07AF1EE10FA10D8414B4FF0000215
:10A090009A603E4B4FF000021A603E4B4FF00002B8
:10A0A0001A603D4B4FF000021A6041E03B4B9B6849
:10A0B0001846FEF76FF904460D46B868FEF76AF9D0
:10A0C0002DA3D3E90023FEF7CFF902460B46204625
:10A0D0002946FEF713F803460C4625461C46304B2E
:10A0E0009B681846FEF756F902460B46204629465D
:10A0F000FEF72CFC0346002B00D111E0FFF708F817
:10A100000021022002F012FE0021032002F00EFEC8
:10A110000021012002F00AFE0121002002F006FECB
:10A120001E4B9A68BB681A441D4B9B689A42A4DC7C
:10A13000FFF712F9194B9A68BB681344174A9360EA
:10A14000164B1A68BB68D90F0B445B101344134AB3
:10A150001360124B5A68BB68D90F0B445B10134451
:10A160000E4A536000BF1037BD46B0BDAFF300804C
:10A17000A163A98FD223503FCDCCCCCCCCCCE43F33
:10A1800000000020440400206F12833A30040020B5
:10A1900000040020100400202C040020680400208B
:10A1A000380400200000000090B585B000AF786052
:10A1B0007B685B001846FEF7EDF82BA3D3E900237C
:10A1C000FEF77CFA03460C4618462146FEF7FCFBD8
:10A1D0000346FB60FB68002B15DD06E01C4B4FF0CF
:10A1E00000021A601B4B1C4A9A601C4B9A68FB6861
:10A1F0001A441B4B9B689A42F0DC184B9A68FB6828
:10A200001344164A9360FB68002B15DA06E0104BE6
:10A210004FF000021A600F4B124A9A600F4B9A6877
:10A22000FB681A440E4B9B689A42F0DB0B4B9A6812
:10A23000FB681344094A9360064B4FF000029A6092
:10A24000034B4FF000021A6000BF1437BD4690BDAB
:10A25000300400200004002000008C42680400202C
:10A26000380400200000C8C2A163A98FD223503F48
:10A2700080B500AF064B06221A716FF03100FFF770
:10A2800093FF4FF4FA7005F057FF00BF80BD00BF89
:10A290000000002080B582B000AF0021022002F053
:10A2A00045FD0021032002F041FD0021012002F0C4
:10A2B0003DFD0021002002F039FDFEF7B9FD786078
:10A2C0000121786802F032FD5D4BDB7803F0030377
:10A2D000032B00F29C8001A252F823F0EDA20008AB
:10A2E00037A300087FA30008C7A30008544B1B78BE
:10A2F0001846534B5B781946524A03010B4412F837
:10A300001330C3F30103DBB2012B00F082804C4B0E
:10A310001B7818464A4B5B7819464A4A03010B449E
:10A3200012F81330C3F30113DBB2012B71D1FFF725
:10A330009FFF454B7CE0424B1B781846404B5B78B7
:10A340001946404A03010B4412F81330C3F381034A
:10A35000DBB2012B5FD03A4B1B781846384B5B7849
:10A360001946384A03010B4412F81330C3F3811322
:10A37000DBB2012B4FD1FFF77BFF334B58E0304B63
:10A380001B7818462E4B5B7819462E4A03010B4466
:10A3900012F81330C3F30113DBB2012B3DD0284B6D
:10A3A0001B781846264B5B781946264A03010B4456
:10A3B00012F81330C3F30103DBB2012B2DD1FFF7E9
:10A3C00057FF214B34E01E4B1B7818461C4B5B7823
:10A3D00019461C4A03010B4412F81330C3F38113CE
:10A3E000DBB2012B13D0164B1B781846144B5B784D
:10A3F0001946144A03010B4412F81330C3F38103C6
:10A40000DBB2012B03D1FFF733FF0F4B10E000BF8E
:10A4100004E000BF02E000BF00E000BF0B4A7B6821
:10A420002C2101FB03F31344283300221A60084B4C
:10A4300007EE903AB0EE670A0837BD4680BD00BF10
:10A4400000000020B40800200000764264020020D2
:10A450000000344200000000B0B586B000AF87EDC8
:10A46000030AC7ED020A87ED011AD7ED037A77EEEA
:10A47000A77A17EE900AFDF79FFF77A3D3E9002391
:10A48000FEF71CF903460C4618462146FEF79CFAD7
:10A4900003467B61D7ED017AF5EE407AF1EE10FAD2
:10A4A00022D0FEF735FEFEF73FFED7ED037AB0EE81
:10A4B000007AC7EE876A97ED027AD7ED017A77EED8
:10A4C000277AF0EE670AB0EE660AFFF7C9FC00BF14
:10A4D0005B4B9A687B69D90F0B445B101A44594B4C
:10A4E0009B689A42F4DC82E0574B05221A71FEF712
:10A4F00003FEFEF719FE554B1B68554A13606EE0CC
:10A500004F4B9B681846FDF745FF04460D4678699A
:10A51000FDF740FF46A3D3E90023FDF7A5FF024660
:10A520000B4620462946FDF7E9FD03460C46254625
:10A530001C46444B9B681846FDF72CFF02460B4611
:10A5400020462946FEF702FA0346002B11D0FEF7FB
:10A55000DFFD0021022002F0E9FB0021032002F0D0
:10A56000E5FB0021012002F0E1FB0121002002F0C7
:10A57000DDFB334B9B681846FDF70CFF04460D4688
:10A580007869FDF707FF2CA3D3E90023FDF76CFFE3
:10A5900002460B4620462946FDF7B0FD03460C4611
:10A5A00025461C46274B9B681846FDF7F3FE0246DE
:10A5B0000B4620462946FEF7C9F90346002B00D179
:10A5C0000DE0234B1B68002B09D101F0F1F90122AA
:10A5D0000321032001F05EFB1D4B01221A60184B82
:10A5E0009A687B691A44174B9B689A4288DC194B1E
:10A5F0004FF000021A60124B9A687B691344104AAC
:10A6000093600F4B1A687B69D90F0B445B1013449E
:10A610000B4A13600A4B5A687B69D90F0B445B10D5
:10A620001344074A536000BF1837BD46B0BD00BF92
:10A630009A9999999999D93F9A9999999999E93FAC
:10A64000680400203804002000000020B40A002024
:10A65000B80A002030040020A163A98FD223503F04
:10A6600080B584B000AF0346FB71FB79532B23D038
:10A67000542B00D023E0DFED140A9FED140AFFF7FE
:10A68000B7FCDFED130A9FED130AFEF7A9FEFFF7F3
:10A6900001FE87ED030A642005F04EFD0121002034
:10A6A00002F044FB0C4BD3ED007AF0EE670A97ED15
:10A6B000030AFFF7D5FB02E0FFF77EF800BF00BFFB
:10A6C0001037BD4680BD00BF0000000000003442CE
:10A6D000DB0FC9400000B4428406002080B584B07E
:10A6E00000AF0346FB71FB79532B23D0542B00D0D2
:10A6F00023E0DFED140A9FED140AFFF779FCDFED8C
:10A70000130A9FED130AFEF76BFE642005F014FD9B
:10A71000FFF7C0FD87ED030A0121002002F006FBD0
:10A720000C4BD3ED007AF0EE670A97ED030AFFF7C2
:10A7300097FB02E0FFF7F0F900BF00BF1037BD46FE
:10A7400080BD00BF0000000000003442DB0FC9C024
:10A750000000B4428406002080B582B000AFDFED77
:10A76000100A9FED100AFFF743FCDFED0F0A9FED83
:10A770000F0AFEF735FEFFF78DFD87ED010AC820B1
:10A7800005F0DAFC0A4BD3ED007AF0EE670A97ED9C
:10A79000010AFFF765FB00BF0837BD4680BD00BF5B
:10A7A0000000000000003442DB0FC94000003443C9
:10A7B0008406002080B582B000AF0346FB711B4BBE
:10A7C0009B7803F00303032B2AD801A252F823F04D
:10A7D000E1A7000807A800081BA8000811A80008A6
:10A7E000134B4FF000021A60124BD3ED007A104B5E
:10A7F00093ED007AB0EE471AF0EE670A9FED0E0A6D
:10A80000FFF72AFE0DE0FB791846FFF729FF08E065
:10A81000FB791846FFF762FF03E0FFF79DFF00E0BA
:10A8200000BF00BF0837BD4680BD00BF000000204C
:10A830000C040020840600200000B44280B483B0E1
:10A8400000AF786039607B683A681A6000BF0C37E7
:10A85000BD465DF8047B704780B487B000AFF860F8
:10A86000B9607A60BB687B612C4A7B6852F8232010
:10A870007B69D31A002BB8BF5B423B6127497B68D9
:10A880007A6941F82320264A7B6852F823203B69E5
:10A890001A4423497B6841F82320224A7B6852F8F6
:10A8A00023305A1C1F497B6841F823201D4A7B68CE
:10A8B00052F82330FA689A4221D1194A7B6852F83B
:10A8C000233007EE903AF8EEE76A164A7B6852F8B2
:10A8D000233007EE903AB8EEE77AC6EE877A124A4E
:10A8E0007B689B001344C3ED007A0D4A7B6800210E
:10A8F00042F823100B4A7B68002142F823100A4AD1
:10A900007B689B0013441B6807EE903AB0EE670A21
:10A910001C37BD465DF8047B704700BF1402002061
:10A9200024020020340200204402002080B487B0BA
:10A9300000AFF86087ED020AC7ED010A87ED001A43
:10A940004FF000037B61FB6807EE903AB8EEE77AC0
:10A95000D7ED027A27EE277AD7ED017A67EE276ADC
:10A9600097ED007AC6EE877AC7ED057A7B6907EE28
:10A97000903AB0EE670A1C37BD465DF8047B70471D
:10A9800080B485B000AF786039600123FB6000239C
:10A99000BB6007E0FB687A6802FB03F3FB60BB68FF
:10A9A0000133BB60BA683B689A42F3DBFB68184628
:10A9B0001437BD465DF8047B704780B48BB000AFA0
:10A9C00087ED030AC7ED020A87ED011A3860D7ED5B
:10A9D000036A97ED017AC6EE877AC7ED077AD7ED5D
:10A9E000026A97ED017AC6EE877AC7ED067AB7EE6E
:10A9F000007AD7ED067A77EE676A3B6807EE903A01
:10AA0000B8EEE77AC6EE877AC7ED057A00237B6257
:10AA100000233B6218E03B6A07EE903AB8EEE77A13
:10AA2000D7ED057A27EE277AD7ED067A77EE277AE3
:10AA300097ED077AB4EEE77AF1EE10FA01DB3B6AA4
:10AA40007B623B6A01333B623A6A3B689A42E2DBD3
:10AA50007B6A18462C37BD465DF8047B70470000C2
:10AA600080B500AF074B1B689B68002118460BF0B0
:10AA70006BFF044B1B685B68002118460BF064FFFA
:10AA800000BF80BD2800002080B592B000AF2C4BE5
:10AA90001B687B643B464022002118460BF079F886
:10AAA000284BD3F8B0303B60264BD3F8B4307B60F2
:10AAB000244BD3F8B830BB60224B1B68FB60214BA2
:10AAC0005B683B611F4B9B687B611E4B9B6DBB6151
:10AAD0001C4BDB6DFB611B4B1B6E3B62194BD3F8B0
:10AAE00084307B62174BD3F88830BB62154BD3F8A8
:10AAF0008C30FB62134BDB6A3B63124B1B6B7B633B
:10AB0000104B5B6BBB6300233B6412E03B6C9B0010
:10AB100007F148021344483BD3ED007AB0EE670AD0
:10AB2000786C04F077FE7B6C04337B643B6C013300
:10AB30003B643B6C0E2BE9DD00BF4837BD4680BD52
:10AB4000D4AE01086402002090B595B000AF594B17
:10AB50001B68FB643B464022002118460BF019F8A5
:10AB6000002387F84B3000237B6438E03A467B6C47
:10AB70009B0013441946F86C04F076FEFB6C04331A
:10AB8000FB647B6C9B0007F150021344503B1B6835
:10AB90001846FDF711FC03460C461A462346796C0D
:10ABA00045480BF03DFE7B6C9B0007F150021344BF
:10ABB000503BD3ED007AF4EE677AF1EE10FA6CBFF9
:10ABC00001230023DBB23B643B6C002B04D097F8DD
:10ABD0004B30013387F84B307B6C01337B647B6CEB
:10ABE0000E2BC3DD97F84B30194634480BF018FE96
:10ABF00097F84B300F2B59D0D7ED007A97ED017AAB
:10AC0000D7ED026AB0EE661AF0EE470AB0EE670AB8
:10AC1000042002F05FF8D7ED007A97ED017AD7EDC6
:10AC2000026AB0EE661AF0EE470AB0EE670A052037
:10AC300002F050F8D7ED037A97ED047AD7ED056A64
:10AC4000B0EE661AF0EE470AB0EE670A002002F096
:10AC500041F8D7ED067A97ED077AD7ED086AB0EE9E
:10AC6000661AF0EE470AB0EE670A022002F032F8E8
:10AC7000D7ED097A97ED0A7AD7ED0B6AB0EE661A2E
:10AC8000F0EE470AB0EE670A032002F023F8D7ED92
:10AC90000C7A97ED0D7AD7ED0E6AB0EE661AF0EEEB
:10ACA000470AB0EE670A012002F014F800BF5437DB
:10ACB000BD4690BDD4AE0108E4AB0108F0AB01087D
:10ACC0002DE9B04386B004AFAF4808F040F9AF4873
:10ACD00008F03DF905F0BEF804F0D6FFC82005F0F5
:10ACE0002BFA3023FB713023BB71A9480BF00CFE0B
:10ACF000A84BD3F8B0301846FDF75EFB8046894676
:10AD0000A44BD3F8B4301846FDF756FB04460D4665
:10AD1000A04BD3F8B8301846FDF74EFB02460B4661
:10AD2000CDE90223CDE9004542464B469A480BF057
:10AD300077FD984B1B681846FDF73EFB8046894619
:10AD4000944B5B681846FDF737FB04460D46914B64
:10AD50009B681846FDF730FB02460B46CDE90223FF
:10AD6000CDE9004542464B468C480BF059FD894BD6
:10AD70009B6D1846FDF720FB80468946854BDB6DB1
:10AD80001846FDF719FB04460D46824B1B6E18460C
:10AD9000FDF712FB02460B46CDE90223CDE9004543
:10ADA00042464B467E480BF03BFD7A4BD3F884304D
:10ADB0001846FDF701FB80468946764BD3F888306C
:10ADC0001846FDF7F9FA04460D46724BD3F88C305D
:10ADD0001846FDF7F1FA02460B46CDE90223CDE90C
:10ADE000004542464B466F480BF01AFD694BDB6A43
:10ADF0001846FDF7E1FA80468946664B1B6B1846FC
:10AE0000FDF7DAFA04460D46624B5B6B1846FDF718
:10AE1000D3FA02460B46CDE90223CDE9004542466E
:10AE20004B4661480BF0FCFCFFF71AFE5F480BF045
:10AE3000F7FCFB1D19465E480BF06EFDFB79302BCD
:10AE400000F0F480FFF70CFE5A480BF0E9FCBB1D44
:10AE5000194657480BF060FDFB791946BB791A4635
:10AE600055480BF0DDFCFFF7FBFD54480BF0D8FC18
:10AE7000FB79313B042B00F2C18001A252F823F090
:10AE800095AE0008C7AE0008F9AE000829AF00086B
:10AE900059AF0008BB79702B04D1494949480BF0E0
:10AEA0003BFDAFE0BB79692B04D1474945480BF026
:10AEB00033FDA7E0BB79642B40F0A48043494148AF
:10AEC0000BF02AFD9EE0BB79702B04D131493D483F
:10AED0000BF022FD98E0BB79692B04D13C4939483D
:10AEE0000BF01AFD90E0BB79642B40F08D8039495E
:10AEF00034480BF011FD87E0BB79702B04D1364943
:10AF000030480BF009FD81E0BB79692B04D133494E
:10AF10002C480BF001FD79E0BB79642B76D13049E8
:10AF200028480BF0F9FC71E0BB79702B04D12D4956
:10AF300024480BF0F1FC6BE0BB79692B04D12A4962
:10AF400020480BF0E9FC63E0BB79642B60D1274912
:10AF50001C480BF0E1FC5BE0BB79702B04D1244969
:10AF600018480BF0D9FC55E0BB79692B04D1214975
:10AF700014480BF0D1FC4DE0BB79642B4AD11E493B
:10AF800010480BF0C9FC45E0440D0020BC0A00202D
:10AF9000F8AB01086402002010AC010830AC0108D5
:10AFA0004CAC010868AC010884AC0108A0AC0108F5
:10AFB000B8AC0108BCAC0108D0AC0108F4AC010885
:10AFC0001403002008AD0108180300201C03002012
:10AFD000680200206C020020BC020020C002002099
:10AFE000C4020020E8020020EC020020F002002051
:10AFF00090020020940200209802002016480BF0D6
:10B0000083FC08E000BF06E000BF04E000BF02E0F0
:10B0100000BF00E000BFFFF723FD7B1D19460F486E
:10B020000BF07AFC0E480BF06FFC5EE600BF0D489B
:10B030000BF06AFC04F06BFCFFF726FD072004F020
:10B0400031FEC82005F078F8002004F02BFE00BF88
:10B050000837BD46BDE8B0830CAD0108B8AC0108A7
:10B0600020AD010824AD0108B0B586B000AF9E4BFD
:10B070005B6AC3F5EA432F331A469C4B1A609A4B1E
:10B0800047F22F525A629A4B5B6AC3F5EA432F3359
:10B090001A46964B5A60964B47F22F525A62934B80
:10B0A0001B6807EE903AF8EEE77A9FED927A67EE2A
:10B0B000877A914BC3ED007A8C4B5B6807EE903A30
:10B0C000F8EEE77A9FED8B7A67EE877A8A4BC3EDCD
:10B0D000017A894B93ED007A874BD3ED017A77EEB5
:10B0E000277AB6EE007A67EE877A834BC3ED027A51
:10B0F000824B1A687D4B1B681344804A13607F4B58
:10B100005A687A4B5B6813447C4A53607B4B1A68DD
:10B110007A4B5B681344794A93603821372004F0F6
:10B120004BFCF0EE407A764BC3ED007A744B93ED16
:10B13000007A744BD3ED007A77EE677A9FED727ADE
:10B1400067EE877AC7ED057A7869FDF735F960A370
:10B15000D3E90023FDF788F903460C4625461C4633
:10B160006A4B1B681846FDF727F95BA3D3E9002358
:10B17000FDF77AF902460B4620462946FCF7BEFF4A
:10B1800003460C4618462146FDF766FC034607EECB
:10B19000903AF1EE677A5E4BC3ED007A5B4A7B69C9
:10B1A00013605B4BD3ED007A9FED5A7A27EE877AD6
:10B1B000594BD3ED007A77EE277A574BC3ED007ADF
:10B1C00000233B610023FB600023BB6000237B6006
:10B1D000524B9B78002B04D0504B1B79062B40F030
:10B1E000D5804F4B9B6A012B16D14E4BD3ED007A85
:10B1F000494B93ED007AF0EE470AB0EE670A002063
:10B2000001F0E8FD78607B6807EE903AF8EEE77AA7
:10B21000454BC3ED007AB9E0414B5B6D012B2AD160
:10B22000424BD3ED026A414B93ED017A404BD3ED93
:10B23000007A77EE277AF0EE670AB0EE660A012010
:10B2400001F0C8FD38613B6907EE903AF8EEE77A05
:10B2500017EE900AFDF7B0F821A3D3E90023FDF71C
:10B2600003F903460C4618462146FDF7F5FB024656
:10B270002D4B1A608AE02A4BD3F88030012B5BD12A
:10B280002A4BD3ED027A2B4B93ED027AF0EE470A6C
:10B29000B0EE670A022001F09DFDF860FB6807EE42
:10B2A000903AF8EEE77A17EE900AFDF785F80CA3CE
:10B2B000D3E90023FDF7D8F803460C46184621468B
:10B2C000FDF7CAFB0246184B1A605FE0AFF300803F
:10B2D0007B14AE47E17A843FAE47E17A14AEEF3F8C
:10B2E000FCA9F1D24D62503F00040040A8080020A4
:10B2F00000080040B92F7C3F44040020380400209F
:10B30000E4030020E0030020787D8B3A5402002003
:10B310005C0200206F12833A6002002000000020CF
:10B320006402002034040020100400207404002073
:10B330002404002090060020494BD3F8AC30012BA8
:10B3400024D1484BD3ED017A474B93ED017AF0EECF
:10B35000470AB0EE670A032001F03CFDB860BB6805
:10B3600007EE903AF8EEE77A17EE900AFDF724F828
:10B3700039A3D3E90023FDF777F803460C461846B6
:10B380002146FDF769FB0246384B1A60384B93EDB6
:10B39000027A384BD3ED007A77EE277A344BC3ED3F
:10B3A000027A324B93ED007A334BD3ED007A77EE8D
:10B3B000277A2E4BC3ED007A2D4B93ED027A2B4B5F
:10B3C000D3ED007ADFED2D6A67EEA67AF6EE006A1D
:10B3D00067EEA67A77EE677A254BC3ED017A234BA9
:10B3E000D3ED007A9FED257A27EE877A204BD3EDB7
:10B3F000017A77EE277A1E4BC3ED007A1C4BD3ED12
:10B40000007A1F4B93ED007AF0EE470AB0EE670A20
:10B41000042001F0DFFC02461A4B1A60144BD3EDF6
:10B42000017A174B93ED017AF0EE470AB0EE670A06
:10B43000052001F0CFFC0246134B1A60114B1A682D
:10B44000114B1B681946104604F01EFD00BF18374B
:10B45000BD46B0BDAFF30080FCA9F1D24D62503FB4
:10B4600064020020900600207404002010040020D4
:10B4700000040020300400202C04002066661742DF
:10B480004404002088060020A406002000000000DC
:10B49000B0B582B000AF8A4B5B6AC3F5EA432F3385
:10B4A0001A46884B1A60864B47F22F525A62864BD7
:10B4B0005B6AC3F5EA432F331A46824B5A60824BCC
:10B4C00047F22F525A627F4B1B6807EE903AF8EE14
:10B4D000E77A9FED7E7A67EE877A7D4BC3ED007A3F
:10B4E000784B5B6807EE903AF8EEE77A9FED777A53
:10B4F00067EE877A764BC3ED017A754B93ED007A50
:10B50000734BD3ED017A77EE277AB6EE007A67EEC9
:10B51000877A6F4BC3ED027A6E4B1A68694B1B68D2
:10B5200013446C4A13606B4B5A68664B5B68134458
:10B53000684A5360674B1A68664B5B681344654AF8
:10B5400093603821372004F037FAF0EE407A624BEE
:10B55000C3ED007A604B93ED007A604BD3ED007A37
:10B5600077EE677A9FED5E7A67EE877AC7ED017AAC
:10B570007868FCF721FF4EA3D3E90023FCF774FFA2
:10B5800003460C4625461C46564B1B681846FCF7DE
:10B5900013FF49A3D3E90023FCF766FF02460B46DD
:10B5A00020462946FCF7AAFD03460C4618462146CC
:10B5B000FDF752FA034607EE903AF1EE677A4A4BEE
:10B5C000C3ED007A474A7B681360474BD3ED007A9E
:10B5D0009FED467A27EE877A454BD3ED007A77EEDA
:10B5E000277A434BC3ED007A424B93ED027A424BEC
:10B5F000D3ED007A77EE277A3E4BC3ED027A3F4BCC
:10B6000093ED007A3E4BD3ED007A77EE277A3B4BF1
:10B61000C3ED007A374B93ED027A384BD3ED007AC5
:10B62000DFED386A67EEA67AF6EE006A67EEA67A74
:10B6300077EE677A2F4BC3ED017A304BD3ED007A6A
:10B640009FED307A27EE877A2A4BD3ED017A77EE99
:10B65000277A284BC3ED007A264BD3ED007A1C4B9A
:10B6600093ED007AF0EE470AB0EE670A042001F08D
:10B67000B1FB0246244B1A601E4BD3ED017A144BEA
:10B6800093ED017AF0EE470AB0EE670A052001F06B
:10B69000A1FB02461D4B1A601B4B1A681B4B1B6813
:10B6A0001946104604F0F0FB00BF0837BD46B0BD98
:10B6B0007B14AE47E17A843FAE47E17A14AEEF3FA8
:10B6C00000040040A808002000080040B92F7C3F7B
:10B6D0004404002038040020E4030020E00300209C
:10B6E000787D8B3A580200205C0200206F12833A6A
:10B6F000600200200004002030040020100400201C
:10B700002C0400206666174288060020A40600204C
:10B7100080B582B000AF78607B68244A93420CD138
:10B72000234B1B68002B02D0012B03D006E0FFF750
:10B730009BFC03E0FFF7ACFE00E000BF7B681D4A06
:10B7400093422FD11C4B1B68002219460A20FFF799
:10B7500083F8F0EE407A194BC3ED007A164B5B6824
:10B76000012219460A20FFF777F8F0EE407A134BD2
:10B77000C3ED017A124B1B68022219460A20FFF71B
:10B780006BF8F0EE407A0D4BC3ED027A0C4B5B6820
:10B79000032219460A20FFF75FF8F0EE407A074BC4
:10B7A000C3ED037A00BF0837BD4680BD440D0020BD
:10B7B000F4030020BC0A0020CC0300207404002005
:10B7C000D803002080B584B000AF2C4B1B68FB6011
:10B7D0000023BB604BE000237B6042E028497B688C
:10B7E0001A01BB68134411F81330C3F30103DBB231
:10B7F0001946F86803F0BCFFFB68181D20497B68F8
:10B800001A01BB68134411F81330C3F38103DBB290
:10B81000194603F0ADFFFB6803F1080018497B6887
:10B820001A01BB68134411F81330C3F30113DBB2E0
:10B83000194603F09DFFFB6803F10C0010497B687B
:10B840001A01BB68134411F81330C3F38113DBB240
:10B85000194603F08DFFFB681033FB607B680133F2
:10B860007B607B680F2BB9DDBB680133BB60BB68B5
:10B870000F2BB0DD00BF1037BD4680BDD0AE010834
:10B88000B408002080B485B000AF0023FB603BE02B
:10B890000023BB6032E04549FB681A01BB681A44CB
:10B8A00011F81230022060F3010301F812303F4911
:10B8B000FB681A01BB681A4411F81230022060F3C9
:10B8C000830301F812303949FB681A01BB681A4436
:10B8D00011F81230022060F3051301F812303349D9
:10B8E000FB681A01BB681A4411F81230022060F399
:10B8F000871301F81230BB680133BB60BB680F2BA4
:10B90000C9DDFB680133FB60FB680F2BC0DD002342
:10B910007B602AE0254A7B685B01134403F11E0229
:10B920001378012161F30103137020497B6803F14F
:10B93000F00211F81230012060F3830301F8123095
:10B940001A4A7B685B011A441378012161F30513DD
:10B95000137016497A6811F81230012060F38713CA
:10B9600001F812307B6801337B607B680F2BD1DDDF
:10B970000E4A1378012161F3830313700B4A137885
:10B980006FF301031370094A92F82030012161F32B
:10B99000871382F82030054A93786FF3051393706C
:10B9A00000BF1437BD465DF8047B7047B408002023
:10B9B00090B482B000AF8B4B93ED007A894BD3EDFE
:10B9C000037A37EE277AF0EE006AC7EE267A9FED0B
:10B9D000867AF4EEC77AF1EE10FACCBF0123002389
:10B9E000DAB2824B5B7A07F108010B4403F8042CAE
:10B9F0007C4BD3ED017A9FED7E7AF4EEC77AF1EEBF
:10BA000010FACCBF01230023D9B2784B5B7A013303
:10BA10005A4203F0030302F0030258BF53420A469E
:10BA200007F108010B4403F8042C704B5B7A0233D6
:10BA30005A4203F0030302F0030258BF534207F1D6
:10BA400008021344002203F8042C664BD3ED027A5B
:10BA50009FED687AF4EEC77AF1EE10FACCBF0123BD
:10BA60000023D9B2614B5B7A03335A4203F00303DC
:10BA700002F0030258BF53420A4607F108010B4483
:10BA800003F8042C3979594B9B791C46574BDB79C9
:10BA90001A460B4603F00303D8B2574923011A4450
:10BAA00011F8123060F3010301F8123079794F4B2D
:10BAB0009B791C464D4BDB791A460B4603F003037A
:10BAC000D8B24D4923011A4411F8123060F38303B0
:10BAD00001F81230B979454B9B791C46434BDB7911
:10BAE0001A460B4603F00303D8B2434923011A4414
:10BAF00011F8123060F3051301F81230F9793B4B5D
:10BB00009B791C46394BDB791A460B4603F003033D
:10BB1000D8B2394923011A4411F8123060F387135F
:10BB200001F81230314BDB790E2B12D839792F4BBB
:10BB30009B791A462D4BDB79013301F00301C8B222
:10BB40002D4912011A4411F8123060F3051301F85F
:10BB50001230264B9B790E2B11D87979234B9B7988
:10BB60000133224AD27901F00301C8B222491B01F4
:10BB70001A4411F8123060F3871301F812301B4B8E
:10BB8000DB79002B12D0B979184B9B791A46174BE9
:10BB9000DB79013B01F00301C8B2174912011A44D5
:10BBA00011F8123060F3010301F812300F4B9B794A
:10BBB000002B11D0F9790D4B9B79013B0B4AD279BF
:10BBC00001F00301C8B20C491B011A4411F81230EC
:10BBD00060F3830301F8123000BF0837BD4690BC04
:10BBE000704700BF7404002000008C420000002059
:10BBF0000000B4420000C842B408002080B485B000
:10BC000000AF786039600023FB6013E00023BB6065
:10BC10000AE01F49FB681A01BB681344FF2221F8A0
:10BC20001320BB680133BB60BB680F2BF1DDFB68E1
:10BC30000133FB60FB680F2BE8DD15497B681A01B7
:10BC40003B681344002221F813203B68013310495C
:10BC50007A6812011344002221F813207B68013313
:10BC60000B491A013B681344002221F813207B681A
:10BC70005A1C3B680133064912011344002221F883
:10BC8000132000BF1437BD465DF8047B704700BF2A
:10BC90008404002080B588B000AFF860B9607A6095
:10BCA000B968F868FFF7AAFF0023FB750023FB6162
:10BCB000D8E00023BB61CEE07049FB691A01BB6983
:10BCC000134431F81330FF2B00F0C180BB690E2BF9
:10BCD0002CDC6B49FB691A01BB69134411F8133062
:10BCE000C3F30103DBB21A467B681340002B1DD15E
:10BCF000BB6901336149FA691201134431F8133009
:10BD0000FF2B13D15D49FB691A01BB69134431F85C
:10BD10001320BB690133013290B25849FA6912010C
:10BD20001344024621F813200123FB75FB690E2BF7
:10BD30002CDC5349FB691A01BB69134411F8133019
:10BD4000C3F38103DBB21A467B681340002B1DD17D
:10BD5000FB69013349491A01BB69134431F81330B7
:10BD6000FF2B13D14549FB691A01BB69134431F814
:10BD70001320FB690133013290B240491A01BB69BB
:10BD80001344024621F813200123FB75BB69002BE5
:10BD90002CDD3B49FB691A01BB69134411F81330D0
:10BDA000C3F30113DBB21A467B681340002B1DD18D
:10BDB000BB69013B3149FA691201134431F8133070
:10BDC000FF2B13D12D49FB691A01BB69134431F8CC
:10BDD0001320BB69013B013290B22849FA69120174
:10BDE0001344024621F813200123FB75FB69002B45
:10BDF0002EDD2349FB691A01BB69134411F8133086
:10BE0000C3F38113DBB21A467B681340002B1FD1AA
:10BE1000FB69013B19491A01BB69134431F813301E
:10BE2000FF2B15D11549FB691A01BB69134431F881
:10BE30001320FB69013B013290B210491A01BB6922
:10BE40001344024621F813200123FB7500E000BFD4
:10BE5000BB690133BB61BB690F2B7FF72DAFFB695A
:10BE60000133FB61FB690F2B7FF723AFFB7D002BB9
:10BE70007FF41AAF00BF2037BD4680BD8404002088
:10BE8000B4080020B0B584B002AF0F237B6040E05F
:10BE900000233B6034E025493B681A017B6813446A
:10BEA00011F81330C3F30103DBB218461F493B6896
:10BEB0001A017B68134411F81330C3F38103DBB21A
:10BEC0001C461A493B681A017B68134411F8133069
:10BED000C3F30113DBB21D4614493B681A017B68AA
:10BEE000134411F81330C3F38113DBB200932B46D4
:10BEF000224601460E480AF093FC3B6801333B6042
:10BF00003B680F2BC7DD0B480AF0FEFC7B68013B4A
:10BF10007B607B68002BBBDA06480AF0F5FC05481D
:10BF20000AF0F2FC00BF0837BD46B0BDB4080020DF
:10BF300048AD010834AD010880B588B000AF3E4B74
:10BF40001B68FB610023BB616FE000237B6166E03F
:10BF50003B1D00221A605A609A60DA603B1D194648
:10BF6000F86903F02DFCFB691A1D3B1D04331946CB
:10BF7000104603F025FCFB6903F108023B1D083362
:10BF80001946104603F01CFCFB6903F10C023B1D33
:10BF90000C331946104603F013FC7B6803F00303CF
:10BFA000D8B226497B691A01BB691A4411F81230CC
:10BFB00060F3010301F81230BB6803F00303D8B249
:10BFC0001E497B691A01BB691A4411F8123060F3EB
:10BFD000830301F81230FB6803F00303D8B217495A
:10BFE0007B691A01BB691A4411F8123060F305131A
:10BFF00001F812303B6903F00303D8B20F497B69A3
:10C000001A01BB691A4411F8123060F3871301F862
:10C010001230FB691033FB617B6901337B617B6903
:10C020000F2B95DDBB690133BB61BB690F2B8CDD29
:10C0300000BF2037BD4680BDD0AE0108B408002047
:10C0400090B583B000AF03F0EBFE03F0EFFD03F01B
:10C050000DFE03F00DFB03F03DFD0346FB71FB7984
:10C06000194649480AF0DCFB03F034FD0346FB7136
:10C07000FB79194644480AF0D3FB642004F05CF8CD
:10C080003821372003F098FCF0EE407A3F4BC3EDA7
:10C09000007A3E4B1B681846FCF78EF903460C46A7
:10C0A0001A4623463A480AF0BBFB0021042000F060
:10C0B0003DFE0021052000F039FE0021022000F0A5
:10C0C00035FE0021032000F031FE0021012000F0A8
:10C0D0002DFE0021002000F029FEFEF735FD47F27D
:10C0E0002F512C48FEF7AAFB47F22F512A48FEF7A2
:10C0F000A5FB2A4806F007FF294806F004FF294B54
:10C100004FF000029A60284B4FF000021A60274B54
:10C110004FF000021A60264B4FF000021A60254BC8
:10C1200000221A60234B00225A60224B00229A60A0
:10C1300003F0FAFC204B9B68204A93601E4B5B681F
:10C140001E4A53601D4B93ED027A1C4BD3ED017ACE
:10C1500077EE677A1A4BC3ED007A042000F0FCFDFD
:10C16000052000F0F9FD002000F0F6FD022000F0AF
:10C17000F3FD032000F0F0FD012000F0EDFD00BF15
:10C180000C37BD4690BD00BF58AD0108E403002048
:10C1900074AD01082404004024080040440D002030
:10C1A000BC0A0020000400201004002030040020FD
:10C1B0002C04002038040020740400209006002085
:10C1C0002404002080B582B000AF03F029FE03F004
:10C1D0002DFD03F04BFD03F04BFA03F07BFC03460F
:10C1E000FB71FB79194638480AF01AFB002104203C
:10C1F00000F09CFD0021052000F098FD00210220A8
:10C2000000F094FD0021032000F090FD00210120AA
:10C2100000F08CFD0021002000F088FDFEF794FC6A
:10C2200047F22F512948FEF709FB47F22F512848C2
:10C23000FEF704FB274806F066FE274806F063FE7B
:10C24000264B4FF000029A60254B4FF000021A6017
:10C25000244B4FF000021A60234B4FF000021A608B
:10C26000224B00221A60214B00225A601F4B0022F1
:10C270009A6003F059FC1E4B9B681E4A93601C4B4E
:10C280005B681C4A53601B4B93ED027A194BD3ED4C
:10C29000017A77EE677A184BC3ED007A042000F03C
:10C2A0005BFD052000F058FD002000F055FD022048
:10C2B00000F052FD032000F04FFD012000F04CFD86
:10C2C00000BF0837BD4680BD58AD010824040040BA
:10C2D00024080040440D0020BC0A00200004002077
:10C2E00010040020300400202C040020380400201A
:10C2F000740400209006002024040020F0B5C1B092
:10C3000002AFFFF79DFEFCF777FDFFF7BBFA6B4B23
:10C3100000225A60694B00221A60684B00229A6022
:10C320000121042000F002FD0121052000F0FEFCA7
:10C33000624B9968614B1A68604B5B6860480AF011
:10C340006FFA0021012000F0F1FC0021022000F032
:10C35000EDFC0021032000F0E9FC0021002000F0AA
:10C36000E5FC584B4FF000021A60032003F09AFCE2
:10C37000544B4FF000021A600023C7F8F43068E015
:10C38000072003F08FFC504B0022DA704E4B022244
:10C390009A704E4B1A68D7F8F4309B0007F1F801F9
:10C3A0000B44803B1A604A4B1A68D7F8F4309B0064
:10C3B00007F1F8010B44F83B1A60DFED460A9FEDE8
:10C3C000460AFDF70DF8D7F8F43001333F4A1268FA
:10C3D0009B0007F1F8010B44803B1A60D7F8F4305A
:10C3E00001333B4A12689B0007F1F8010B44F83B0C
:10C3F0001A60642003F0A0FED7F8F4300233334A09
:10C4000012689B0007F1F8010B44803B1A60D7F8D3
:10C41000F43002332E4A12689B0007F1F8010B44F6
:10C42000F83B1A60002003F03DFC274B0022DA7035
:10C43000254B02229A70DFED290A9FED270AFCF7AF
:10C44000CFFF642003F078FED7F8F4300333C7F849
:10C45000F430D7F8F4301D2B92DD0023C7F8F0300C
:10C4600027E0D7F8F0309B0007F1F8021344803B37
:10C470001B681846FBF7A0FF05460E46D7F8F030BC
:10C480009B0007F1F8021344F83B1B681846FBF7C2
:10C4900093FF03460C46CDE900342A463346D7F8CD
:10C4A000F0100F480AF0BCF9D7F8F0300133C7F8A4
:10C4B000F030D7F8F0301D2BD3DDCEE73804002064
:10C4C00080AD0108840600200000002060020020EA
:10C4D00034040020DB0FC9400000B442DB0FC9C0A8
:10C4E000B4AD010880B500AFFEF72EFBFEF7E8FB08
:10C4F00000BF80BD80B500AF184B00221A60FFF767
:10C500009FFDFCF779FCFFF7BDF9154B00225A603F
:10C51000134B00221A60124B00229A600121042062
:10C5200000F004FC0121052000F000FC00210120A6
:10C5300000F0FCFB0021022000F0F8FB01210320A9
:10C5400000F0F4FB074B4FF000021A60012003F0EB
:10C55000A9FB054B054A9A60FBE700BFF4030020E6
:10C5600038040020840600200004002000009643C8
:10C5700080B500AF184B00221A60FFF761FDFCF791
:10C580003BFCFFF77FF9154B00225A60134B00224A
:10C590001A60124B00229A600121042000F0C6FBB1
:10C5A0000121052000F0C2FB0121012000F0BEFBAB
:10C5B0000021022000F0BAFB0021032000F0B6FBAE
:10C5C000074B4FF000021A60022003F06BFB054B93
:10C5D000054A9A60FBE700BFF403002038040020FE
:10C5E00084060020000400200000964380B500AFC0
:10C5F0001A4B00221A60FFF723FDFCF7FDFBFFF743
:10C6000041F9174B00225A60154B00221A60144B57
:10C6100000229A600121042000F088FB01210520FE
:10C6200000F084FB0121002000F080FB00210120AC
:10C6300000F07CFB0021022000F078FB00210320A9
:10C6400000F074FB074B4FF000021A60052003F066
:10C6500029FB054B054A9A60FBE700BFF403002065
:10C6600038040020840600200004002000009643C7
:10C670002DE9B04F8AB008AF414B01221A60FFF795
:10C68000DFFC40480AF040F9FCF7B6FBFFF7FAF888
:10C690003D480AF039F93D4B00225A603B4B0022DD
:10C6A0001A603A4B00229A600121042000F03EFB00
:10C6B0000121052000F03AFB344B9968334B1A688E
:10C6C000324B5B6832480AF0ABF80021012000F0E1
:10C6D0002DFB0021022000F029FB0021032000F0A7
:10C6E00025FB2C4B4FF000021A60072003F0DAFA0A
:10C6F000294B4FF000029A60284B1B681846FBF745
:10C700005BFEC7E90001264B1B681846FBF754FE89
:10C7100004460D46224BDB681846FBF74DFE80466B
:10C7200089461F4B93ED007A1D4BD3ED037A77EECC
:10C73000277A17EE900AFBF73FFE82468B46184B8E
:10C7400093ED007A164BD3ED037A77EE277AB0EEAD
:10C75000007AC7EE876A16EE900AFBF72DFE0246B6
:10C760000B46CDE90623CDE904ABCDE90289CDE93D
:10C770000045D7E900230B480AF052F8B8E700BF9C
:10C78000F4030020C4AD0108C8AD0108380400203E
:10C7900080AD01088406002000040020E40300208E
:10C7A00074040020CCAD010880B582B000AF7F4B8F
:10C7B00000221A60FA2003F0BFFC7D4B4FF000020C
:10C7C000DA600123BB7197F90630194679480AF0FF
:10C7D00027F8BB1D1A460221012001F06FFB97F9D3
:10C7E0000630184601F018FB73480AF08DF8FA205D
:10C7F00003F0A2FC6E4B4FF00002DA6001237B7164
:10C8000097F9053019466B480AF00AF87B1D1A465D
:10C810000421012001F052FB97F90530184601F080
:10C82000FBFA65480AF070F801F05AFCFFF7CAFC01
:10C83000FCF7E2FAFFF726F8604B00225A605F4BE4
:10C8400000221A605D4B00229A600121042000F052
:10C850006DFA0121052000F069FA584B9968574B91
:10C860001A68564B5B68564809F0DAFF0021012030
:10C8700000F05CFA0021022000F058FA00210320A9
:10C8800000F054FA97F90630012B05D14D4B4E4A72
:10C890001A605423FB7105E097F90630022B01D191
:10C8A0005323FB7197F90530013B032B62D801A29A
:10C8B00052F823F0C5C80008EFC800081BC90008DB
:10C8C00049C90008414B4FF082421A603F4B4FF07C
:10C8D00082425A603D4B3E4A9A603C4B3D4ADA6088
:10C8E0003A4B3D4A1A61394B3C4A5A6142E0354B5A
:10C8F0003B4A1A60354B3B4A1A60344B394A5A60FE
:10C90000324B394A9A60314B324ADA602F4B324A05
:10C910001A612E4B314A5A612CE02A4B334A1A6075
:10C920002A4B4FF081421A60284B314A5A60274BFC
:10C93000304A9A60254B274ADA60244B264A1A610E
:10C94000224B264A5A6115E01E4B2B4A1A601F4B98
:10C95000244A1A601D4B234A5A601C4B274A9A608E
:10C960001A4B1C4ADA60194B1B4A1A61174B1B4AB7
:10C970005A6100BF042003F095F9FFF7DDFAFB7957
:10C980001A460321032001F0A7F9DFED1D0A9FEDF0
:10C990001D0AFDF72DFB072001F03EFA42F2107050
:10C9A00003F0CAFB184809F0AFFFF7E7F4030020D3
:10C9B00074040020E4AD0108F0AD01083804002043
:10C9C00080AD0108840600200000FA4350040020D6
:10C9D0004260653C0000F041000070420000B4423B
:10C9E000000007430000A04040A4DF3C00003443A7
:10C9F0000000C0403C6B373D00007043E7FBA93DA1
:10CA00000000000000003442F8AD010890B585B088
:10CA100000AF954B00221A60642003F08DFB934B0E
:10CA20004FF00002DA600123FB7197F907301946D5
:10CA30008F4809F0F5FEFB1D1A460221012001F086
:10CA40003DFA97F90730184601F0E6F9894809F0F0
:10CA50005BFF642003F070FB844B4FF00002DA6050
:10CA60000123BB7197F906301946814809F0D8FEB9
:10CA7000BB1D1A460321012001F020FA97F9063068
:10CA8000184601F0C9F97B4809F03EFF01F028FB88
:10CA9000FFF7D6FA784809F037FFFCF7ADF9774889
:10CAA00009F032FFFEF7EEFE754809F02DFF754BD9
:10CAB00000225A60734B00221A60724B00229A6067
:10CAC0000121042000F032F90121052000F02EF9A7
:10CAD0000021012000F02AF90021022000F026F9AF
:10CAE0000021032000F022F9022003F0DBF897F97F
:10CAF0000730012B05D15423FB73634B634A1A6043
:10CB000005E097F90730022B01D15323FB7397F906
:10CB10000630022B18D0032B2CD0012B41D15C4BBB
:10CB20004FF082421A605A4B4FF082425A60584B83
:10CB3000584A9A60564B584ADA60554B574A1A6120
:10CB4000534B574A5A612CE04F4B564A1A60504B90
:10CB5000554A1A604E4B544A5A604D4B534A9A609C
:10CB60004B4B4D4ADA604A4B4C4A1A61484B4C4A8F
:10CB70005A6116E0444B4E4A1A60454B4FF08142D1
:10CB80001A60434B4B4A5A60414B4B4A9A60404BA8
:10CB9000414ADA603E4B414A1A613D4B404A5A6174
:10CBA00000BF0023BB60454B00221A60444B0022AB
:10CBB0009A70434B0022DA70414B1A78404B9A71BD
:10CBC0003F4B5B780133DAB23D4BDA713C4B0022CC
:10CBD0005A722D4B1B681846FBF7EEFB03460C46BA
:10CBE0001A462346374809F01BFE274BD3ED007A3F
:10CBF000F0EE670A9FED340AFDF732F9304B9A796F
:10CC00002F4B1A702E4BDA792D4B5A702C4B5A7AC7
:10CC10002B4BDA7008E02A4BDB78184603F042F819
:10CC2000FB7B184600F006FA254B1B78022BF2D945
:10CC3000234B1B78032BEED8214B5B78022BEAD9D0
:10CC40001F4B5B78032BE6D8DFED200A9FED200A0F
:10CC5000FDF7CEF902F032FEFEF7B4FD072001F039
:10CC6000DBF8FFF70FF9FCE7F40300207404002061
:10CC7000E4AD0108F0AD010808AE010810AE0108EE
:10CC800018AE0108380400208406002000009643F6
:10CC9000500400204260653C0000F04100007042FA
:10CCA0000000B442000007430000A04040A4DF3C65
:10CCB000000034430000C0403C6B373DB40A002004
:10CCC0000000002020AE01080000764200000000B5
:10CCD0000000344280B485B000AFF86087ED020AEE
:10CCE000C7ED010A87ED001A0F4AFB682C2101FBF2
:10CCF00003F31344BA681A600B4AFB682C2101FB4A
:10CD000003F3134404337A681A60074AFB682C2142
:10CD100001FB03F3134408333A681A6000BF143769
:10CD2000BD465DF8047B70476402002080B483B088
:10CD300000AF78603960074A7B682C2101FB03F360
:10CD4000134428333A681A6000BF0C37BD465DF8BB
:10CD5000047B70476402002080B483B000AF786029
:10CD60001B4A7B682C2101FB03F313440C334FF067
:10CD700000021A60164A7B682C2101FB03F313445E
:10CD800010334FF000021A60114A7B682C2101FB1E
:10CD900003F3134414334FF000021A600C4A7B680B
:10CDA0002C2101FB03F3134418334FF000021A60E7
:10CDB000074A7B682C2101FB03F313442433002230
:10CDC0001A6000BF0C37BD465DF8047B704700BF9A
:10CDD0006402002090B585B000AFF86087ED020ACC
:10CDE000C7ED010A904AFB682C2101FB03F31344B1
:10CDF00028331B68002B32D18B4AFB682C2101FBA6
:10CE000003F313440C334FF000021A60864AFB68A8
:10CE10002C2101FB03F3134410334FF000021A607E
:10CE2000814AFB682C2101FB03F3134414334FF0B8
:10CE300000021A607C4AFB682C2101FB03F31344B7
:10CE400018334FF000021A60774AFB682C2101FB6F
:10CE500003F31344243300221A600023DFE0724AF4
:10CE6000FB682C2101FB03F313442033BA681A60DA
:10CE70006D4AFB682C2101FB03F313441C337A68D1
:10CE80001A60694AFB682C2101FB03F31344203329
:10CE900093ED007A644AFB682C2101FB03F31344F1
:10CEA0001C33D3ED007A77EE677A5F4AFB682C215A
:10CEB00001FB03F313440C33C3ED007A5A4AFB68B9
:10CEC0002C2101FB03F31344103393ED007A564AEF
:10CED000FB682C2101FB03F313440C33D3ED007AE0
:10CEE000DFED526A67EEA67A77EE277A4E4AFB6844
:10CEF0002C2101FB03F313441033C3ED007A4A4A9B
:10CF0000FB682C2101FB03F313440C3393ED007AEF
:10CF1000454AFB682C2101FB03F313441833D3ED7E
:10CF2000007A77EE677A9FED427A67EE877A3E4A1B
:10CF3000FB682C2101FB03F313441433C3ED007A87
:10CF4000394AFB682C2101FB03F313440C331A68A4
:10CF50003549FB682C2000FB03F30B4418331A609F
:10CF6000314AFB682C2101FB03F3134493ED007A53
:10CF70002D4AFB682C2101FB03F313440C33D3ED42
:10CF8000007A27EE277A284AFB682C2101FB03F35D
:10CF900013440433D3ED006A234AFB682C2101FBC0
:10CFA00003F313441033D3ED007A66EEA77A37EE1D
:10CFB000277A1D4AFB682C2101FB03F31344083335
:10CFC000D3ED006A184AFB682C2101FB03F31344DC
:10CFD0001433D3ED007A66EEA77A77EE277A17EE50
:10CFE000900AFBF7E9F903460C4644EC103B08F0C5
:10CFF0004BF854EC103B18462146FBF7E5FC0A4A77
:10D00000FB682C2101FB03F3134424331860064A08
:10D01000FB682C2101FB03F3134424331B681846DF
:10D020001437BD4690BD00BF640200206F12833AE2
:10D03000FFFF794490B583B000AF0346FB718D4B81
:10D04000DB78032B00F2458401A252F823F000BFE5
:10D0500061D0000881D20008A1D40008C1D6000820
:10D06000844B1B781846834B5B781946824A030130
:10D070000B4412F81330C3F30103DBB2002B3CD195
:10D080007C4B1B781A467B4B5B7801337B49120142
:10D09000134431F81320774B1B781C46754B5B7893
:10D0A000184676492301034431F813309A4224D2BA
:10D0B000704B5B780E2B20D86E4B00229A706D4B14
:10D0C0001A786C4B9A716B4B5B780133DAB2694B0F
:10D0D000DA71684B00225A72FB791846FDF76AFB39
:10D0E000644B5A7A634BDA70624B9A79614B1A70CF
:10D0F000604BDA795F4B5A70BAE05E4B1B7818468A
:10D100005C4B5B7819465C4A03010B4412F8133000
:10D11000C3F38113DBB2002B3CD1564B1B78013B90
:10D12000544A52781146554A1B010B4432F81320D9
:10D13000504B1B781C464F4B5B7818464F492301D8
:10D14000034431F813309A4224D24A4B1B78002B07
:10D1500020D0484B03229A70464B1B78013BDAB231
:10D16000444B9A71434B5A78424BDA71414B03223C
:10D170005A72FB791846FDF71DFB3E4B5A7A3D4B20
:10D18000DA703C4B9A793B4B1A703A4BDA79394B4F
:10D190005A706DE0374B1B781846364B5B78194652
:10D1A000354A03010B4412F81330C3F38103DBB299
:10D1B000002B3CD12F4B1B7801332E4A527811465D
:10D1C0002E4A1B010B4432F813202A4B1B781C46B5
:10D1D000284B5B78184629492301034431F8133062
:10D1E0009A4224D2234B1B780E2B20D8214B0122AC
:10D1F0009A70204B1B780133DAB21E4B9A711D4B8B
:10D200005A781C4BDA711B4B01225A72FB79184673
:10D21000FDF7D0FA174B5A7A164BDA70154B9A79FC
:10D22000144B1A70134BDA79124B5A7020E0114BE1
:10D2300002229A700F4B1A780E4B9A710D4B5B7845
:10D24000013BDAB20B4BDA710A4B02225A72FB79BC
:10D250001846FDF7AFFA074B5A7A064BDA70054BC2
:10D260009A79044B1A70034BDA79024B5A7031E306
:10D2700030E300BF00000020B40800208404002038
:10D28000844B1B781846834B5B781946824A03010E
:10D290000B4412F81330C3F38103DBB2002B3CD1F3
:10D2A0007C4B1B7801337B4A527811467B4A1B0129
:10D2B0000B4432F81320774B1B781C46754B5B7878
:10D2C000184676492301034431F813309A4224D298
:10D2D000704B1B780E2B20D86E4B00229A706D4B32
:10D2E0001B780133DAB26B4B9A716A4B5A78694BEF
:10D2F000DA71684B01225A72FB791846FDF75AFA27
:10D30000644B5A7A634BDA70624B9A79614B1A70AC
:10D31000604BDA795F4B5A70BAE05E4B1B78184667
:10D320005C4B5B7819465C4A03010B4412F81330DE
:10D33000C3F30103DBB2002B3CD1564B1B781A46DA
:10D34000544B5B78013355491201134431F81320D3
:10D35000504B1B781C464F4B5B7818464F492301B6
:10D36000034431F813309A4224D24A4B5B780E2B97
:10D3700020D8484B03229A70464B1A78454B9A7135
:10D38000444B5B780133DAB2424BDA71414B0022F5
:10D390005A72FB791846FDF70DFA3E4B5A7A3D4B0F
:10D3A000DA703C4B9A793B4B1A703A4BDA79394B2D
:10D3B0005A706DE0374B1B781846364B5B78194630
:10D3C000354A03010B4412F81330C3F30113DBB2E7
:10D3D000002B3CD12F4B1B781A462E4B5B78013B20
:10D3E0002E491201134431F813202A4B1B781C4696
:10D3F000284B5B78184629492301034431F8133040
:10D400009A4224D2234B5B78002B20D0214B01225F
:10D410009A70204B1A781F4B9A711E4B5B78013B18
:10D42000DAB21C4BDA711B4B02225A72FB79184696
:10D43000FDF7C0F9174B5A7A164BDA70154B9A79EB
:10D44000144B1A70134BDA79124B5A7020E0114BBF
:10D4500002229A700F4B1B78013BDAB20D4B9A7186
:10D460000C4B5A780B4BDA710A4B03225A72FB7938
:10D470001846FDF79FF9074B5A7A064BDA70054BB1
:10D480009A79044B1A70034BDA79024B5A7021E2F5
:10D4900020E200BF00000020B40800208404002027
:10D4A000844B1B781846834B5B781946824A0301EC
:10D4B0000B4412F81330C3F30113DBB2002B3CD141
:10D4C0007C4B1B781A467B4B5B78013B7B491201F6
:10D4D000134431F81320774B1B781C46754B5B784F
:10D4E000184676492301034431F813309A4224D276
:10D4F000704B5B78002B20D06E4B00229A706D4BE6
:10D500001A786C4B9A716B4B5B78013BDAB2694BC2
:10D51000DA71684B02225A72FB791846FDF74AF914
:10D52000644B5A7A634BDA70624B9A79614B1A708A
:10D53000604BDA795F4B5A70BAE05E4B1B78184645
:10D540005C4B5B7819465C4A03010B4412F81330BC
:10D55000C3F38103DBB2002B3CD1564B1B78013364
:10D56000544A52781146554A1B010B4432F8132095
:10D57000504B1B781C464F4B5B7818464F49230194
:10D58000034431F813309A4224D24A4B1B780E2BB5
:10D5900020D8484B03229A70464B1B780133DAB2ED
:10D5A000444B9A71434B5A78424BDA71414B0122FA
:10D5B0005A72FB791846FDF7FDF83E4B5A7A3D4BFF
:10D5C000DA703C4B9A793B4B1A703A4BDA79394B0B
:10D5D0005A706DE0374B1B781846364B5B7819460E
:10D5E000354A03010B4412F81330C3F38113DBB245
:10D5F000002B3CD12F4B1B78013B2E4A5278114611
:10D600002E4A1B010B4432F813202A4B1B781C4670
:10D61000284B5B78184629492301034431F813301D
:10D620009A4224D2234B1B78002B20D0214B01227D
:10D630009A70204B1B78013BDAB21E4B9A711D4B3E
:10D640005A781C4BDA711B4B03225A72FB7918462D
:10D65000FDF7B0F8174B5A7A164BDA70154B9A79DA
:10D66000144B1A70134BDA79124B5A7020E0114B9D
:10D6700002229A700F4B1A780E4B9A710D4B5B7801
:10D680000133DAB20B4BDA710A4B00225A72FB7982
:10D690001846FDF78FF8074B5A7A064BDA70054BA0
:10D6A0009A79044B1A70034BDA79024B5A7011E1E4
:10D6B00010E100BF00000020B40800208404002016
:10D6C000864B1B781846854B5B781946844A0301C4
:10D6D0000B4412F81330C3F38113DBB2002B3CD19F
:10D6E0007E4B1B78013B7D4A527811467D4A1B01D7
:10D6F0000B4432F81320794B1B781C46774B5B7830
:10D70000184678492301034431F813309A4224D251
:10D71000724B1B78002B20D0704B00229A706F4BFD
:10D720001B78013BDAB26D4B9A716C4B5A786B4B9C
:10D73000DA716A4B03225A72FB791846FDF73AF800
:10D74000664B5A7A654BDA70644B9A79634B1A7060
:10D75000624BDA79614B5A70BAE0604B1B7818461D
:10D760005E4B5B7819465E4A03010B4412F8133096
:10D77000C3F30113DBB2002B3CD1584B1B781A4684
:10D78000564B5B78013B57491201134431F8132083
:10D79000524B1B781C46514B5B781846514923016C
:10D7A000034431F813309A4224D24C4B5B78002B5F
:10D7B00020D04A4B03229A70484B1A78474B9A71F3
:10D7C000464B5B78013BDAB2444BDA71434B0222A1
:10D7D0005A72FB791846FCF7EDFF404B5A7A3F4BE3
:10D7E000DA703E4B9A793D4B1A703C4BDA793B4BE1
:10D7F0005A706DE0394B1B781846384B5B781946E8
:10D80000374A03010B4412F81330C3F30103DBB2B0
:10D81000002B3CD1314B1B781A46304B5B780133DF
:10D8200030491201134431F813202C4B1B781C464D
:10D830002A4B5B7818462B492301034431F81330F7
:10D840009A4224D2254B5B780E2B20D8234B012201
:10D850009A70224B1A78214B9A71204B5B780133D6
:10D86000DAB21E4BDA711D4B00225A72FB79184650
:10D87000FCF7A0FF194B5A7A184BDA70174B9A79BC
:10D88000164B1A70154BDA79144B5A7020E0134B73
:10D8900002229A70114B1B780133DAB20F4B9A7146
:10D8A0000E4B5A780D4BDA710C4B01225A72FB79F0
:10D8B0001846FCF77FFF094B5A7A084BDA70074B82
:10D8C0009A79064B1A70054BDA79044B5A7001E0CD
:10D8D00000E000BF00BF0C37BD4690BD0000002037
:10D8E000B40800208404002080B483B000AF7860C6
:10D8F00039601C497B681A013B68134411F81330E6
:10D90000C3F30103DBB2022B23D016497B681A0153
:10D910003B68134411F81330C3F38103DBB2022BCD
:10D9200017D010497B681A013B68134411F8133073
:10D93000C3F30113DBB2022B0BD00A497B681A0137
:10D940003B68134411F81330C3F38113DBB2022B8D
