:020000040800F2
:1000000000000220D5EC00081DEA000823EA0008E1
:1000100029EA00082FEA000835EA0008000000007D
:100020000000000000000000000000003BEA0008A3
:1000300049EA00080000000057EA000865EA0008E5
:1000400025ED000825ED000825ED000825ED000848
:1000500071EA000825ED000825ED000825ED0008EF
:1000600025ED000825ED000825ED000825ED000828
:1000700025ED000825ED000825ED000825ED000818
:1000800025ED000825ED00087DEA000825ED0008B3
:1000900025ED000825ED000825ED000825ED0008F8
:1000A00025ED000899EA000825ED000825ED000877
:1000B000ADEA0008C1EA0008D5EA000825ED00080D
:1000C00025ED000825ED000825ED000825ED0008C8
:1000D00025ED000825ED000825ED000825ED0008B8
:1000E00025ED000825ED000825ED000825ED0008A8
:1000F000E9EA0008FDEA000811EB000825ED000818
:1001000025ED000825ED000825EB000825ED000889
:1001100025ED000825ED000825ED000825ED000877
:1001200039EB000825ED00084DEB000825ED00082F
:1001300025ED0008000000000000000025ED00088B
:1001400025ED000825ED000825ED000825ED000847
:1001500025ED000825ED000825ED000825ED000837
:1001600025ED000825ED000825ED000825ED000827
:1001700025ED000825ED000800000000000000004B
:0801800025ED000825ED000843
:1080000010B5054C237833B9044B13B10448AFF3D2
:1080100000800123237010BDD00E0020000000005E
:108020006869010808B5034B1BB103490348AFF366
:10803000008008BD00000000D40E0020686901081F
:10804000034613F8012B002AFBD1181A0138704798
:1080500001F0FF01102A2BDB10F0070F08D010F8F9
:10806000013B013A8B422DD010F0070F42B3F6D1FD
:10807000F0B441EA012141EA014122F007047FF016
:1080800000070023F0E80256083C85EA010586EA6D
:10809000010685FA47F5A3FA87F586FA47F6A5FAA9
:1080A00087F68EB9EED1F0BC01F0FF0102F00702B5
:1080B00032B110F8013B013A83EA010313B1F8D160
:1080C0000020704701387047002D06BF3546033841
:1080D000073815F0010F07D1013015F4807F02BF7A
:1080E000013015F4C03F0130F0BC0138704700BFCB
:1080F00081F0004102E000BF83F0004330B54FEA59
:1081000041044FEA430594EA050F08BF90EA020FC5
:108110001FBF54EA000C55EA020C7FEA645C7FEA58
:10812000655C00F0E2804FEA5454D4EB5555B8BF7B
:108130006D420CDD2C4480EA020281EA030382EAEC
:10814000000083EA010180EA020281EA0303362D7E
:1081500088BF30BD11F0004F4FEA01314FF4801C51
:108160004CEA113102D0404261EB410113F0004F63
:108170004FEA03334CEA133302D0524263EB43031A
:1081800094EA050F00F0A780A4F10104D5F1200EB8
:108190000DDB02FA0EFC22FA05F2801841F1000113
:1081A00003FA0EF2801843FA05F359410EE0A5F1E7
:1081B00020050EF1200E012A03FA0EFC28BF4CF018
:1081C000020C43FA05F3C01851EBE37101F00045CE
:1081D00007D54FF0000EDCF1000C7EEB00006EEBDB
:1081E0000101B1F5801F1BD3B1F5001F0CD3490865
:1081F0005FEA30004FEA3C0C04F101044FEA4452BC
:1082000012F5800F80F09A80BCF1004F08BF5FEA42
:10821000500C50F1000041EB045141EA050130BD22
:108220005FEA4C0C404141EB010111F4801FA4F1C5
:108230000104E9D191F0000F04BF01460020B1FA1A
:1082400081F308BF2033A3F10B03B3F120020CDA52
:108250000C3208DD02F1140CC2F10C0201FA0CF030
:1082600021FA02F10CE002F11402D8BFC2F1200C95
:1082700001FA02F120FA0CFCDCBF41EA0C0190404B
:10828000E41AA2BF01EB0451294330BD6FEA040494
:108290001F3C1CDA0C340EDC04F11404C4F120027F
:1082A00020FA04F001FA02F340EA030021FA04F391
:1082B00045EA030130BDC4F10C04C4F1200220FAE8
:1082C00002F001FA04F340EA0300294630BD21FA26
:1082D00004F0294630BD94F0000F83F4801306BFEC
:1082E00081F480110134013D4EE77FEA645C18BFE0
:1082F0007FEA655C29D094EA050F08BF90EA020F77
:1083000005D054EA000C04BF1946104630BD91EA6E
:10831000030F1EBF0021002030BD5FEA545C05D171
:108320004000494128BF41F0004130BD14F58004B0
:108330003CBF01F5801130BD01F0004545F0FE4124
:1083400041F470014FF0000030BD7FEA645C1ABF59
:10835000194610467FEA655C1CBF0B46024650EA90
:10836000013406BF52EA033591EA030F41F40021BC
:1083700030BD00BF90F0000F04BF0021704730B542
:108380004FF4806404F132044FF000054FF0000117
:1083900050E700BF90F0000F04BF0021704730B5D8
:1083A0004FF4806404F1320410F0004548BF4042AD
:1083B0004FF000013EE700BF42004FEAE2014FEA02
:1083C00031014FEA02701FBF12F07F4393F07F4FDD
:1083D00081F06051704732F07F4208BF704793F0E0
:1083E0007F4F04BF41F40021704730B54FF46074F3
:1083F00001F0004521F000411CE700BF50EA0102F6
:1084000008BF704730B54FF000050AE050EA01029E
:1084100008BF704730B511F0004502D5404261EB0E
:1084200041014FF4806404F132045FEA915C3FF44F
:10843000D8AE4FF003025FEADC0C18BF03325FEAEC
:10844000DC0C18BF033202EBDC02C2F1200300FA9D
:1084500003FC20FA02F001FA03FE40EA0E0021FAC2
:1084600002F11444BDE600BF70B54FF0FF0C4CF4B0
:10847000E06C1CEA11541DBF1CEA135594EA0C0F62
:1084800095EA0C0F00F0DEF82C4481EA030621EA9D
:108490004C5123EA4C5350EA013518BF52EA0335D8
:1084A00041F4801143F4801338D0A0FB02CE4FF08A
:1084B0000005E1FB02E506F00042E0FB03E54FF0BA
:1084C0000006E1FB03569CF0000F18BF4EF0010EB2
:1084D000A4F1FF04B6F5007F64F5407404D25FEAAE
:1084E0004E0E6D4146EB060642EAC62141EA555161
:1084F0004FEAC52040EA5E504FEACE2EB4F1FD0CA3
:1085000088BFBCF5E06F1ED8BEF1004F08BF5FEA20
:10851000500E50F1000041EB045170BD06F00046D2
:1085200046EA010140EA020081EA0301B4EB5C047F
:10853000C2BFD4EB0C0541EA045170BD41F4801177
:108540004FF0000E013C00F3AB8014F1360FDEBF9C
:10855000002001F0004170BDC4F10004203C35DA78
:108560000C341BDC04F11404C4F1200500FA05F3FB
:1085700020FA04F001FA05F240EA020001F000429C
:1085800021F0004110EBD37021FA04F642EB060112
:108590005EEA430E08BF20EAD37070BDC4F10C043C
:1085A000C4F1200500FA04F320FA05F001FA04F200
:1085B00040EA020001F0004110EBD37041F10001EC
:1085C0005EEA430E08BF20EAD37070BDC4F12005F7
:1085D00000FA05F24EEA020E20FA04F301FA05F25F
:1085E00043EA020321FA04F001F0004121FA04F207
:1085F00020EA020000EBD3705EEA430E08BF20EAD7
:10860000D37070BD94F0000F0FD101F00046400010
:1086100041EB010111F4801F08BF013CF7D041EA92
:10862000060195F0000F18BF704703F00046520096
:1086300043EB030313F4801F08BF013DF7D043EA67
:108640000603704794EA0C0F0CEA135518BF95EA1D
:108650000C0F0CD050EA410618BF52EA4306D1D1A4
:1086600081EA030101F000414FF0000070BD50EAC3
:10867000410606BF1046194652EA430619D094EA4D
:108680000C0F02D150EA013613D195EA0C0F05D137
:1086900052EA03361CBF104619460AD181EA03018B
:1086A00001F0004141F0FE4141F470014FF0000043
:1086B00070BD41F0FE4141F4780170BD70B54FF0DE
:1086C000FF0C4CF4E06C1CEA11541DBF1CEA13555E
:1086D00094EA0C0F95EA0C0F00F0A7F8A4EB050440
:1086E00081EA030E52EA03354FEA013100F0888037
:1086F0004FEA03334FF0805545EA131343EA126300
:108700004FEA022245EA111545EA10654FEA0026B4
:108710000EF000419D4208BF964244F1FD0404F56D
:10872000407402D25B084FEA3202B61A65EB0305C9
:108730005B084FEA32024FF480104FF4002CB6EB86
:10874000020E75EB030E22BFB61A754640EA0C0006
:108750005B084FEA3202B6EB020E75EB030E22BF46
:10876000B61A754640EA5C005B084FEA3202B6EB87
:10877000020E75EB030E22BFB61A754640EA9C0046
:108780005B084FEA3202B6EB020E75EB030E22BF16
:10879000B61A754640EADC0055EA060E18D04FEAD4
:1087A000051545EA16754FEA06164FEAC30343EA74
:1087B00052734FEAC2025FEA1C1CC0D111F4801F41
:1087C0000BD141EA00014FF000004FF0004CB6E73A
:1087D00011F4801F04BF01430020B4F1FD0C88BFD9
:1087E000BCF5E06F3FF6AFAEB5EB030C04BFB6EBE4
:1087F000020C5FEA500C50F1000041EB045170BDD7
:108800000EF0004E4EEA113114EB5C04C2BFD4EB03
:108810000C0541EA045170BD41F480114FF0000E87
:10882000013C90E645EA060E8DE60CEA135594EA03
:108830000C0F08BF95EA0C0F3FF43BAF94EA0C0F06
:108840000AD150EA01347FF434AF95EA0C0F7FF47B
:1088500025AF104619462CE795EA0C0F06D152EACF
:1088600003353FF4FDAE1046194622E750EA4106B3
:1088700018BF52EA43067FF4C5AE50EA41047FF4C4
:108880000DAF52EA43057FF4EBAE12E74FF0FF3C29
:1088900006E000BF4FF0010C02E000BF4FF0010CFA
:1088A0004DF804CD4FEA410C7FEA6C5C4FEA430C73
:1088B00018BF7FEA6C5C1BD001B050EA410C0CBFC2
:1088C00052EA430C91EA030F02BF90EA020F002024
:1088D000704710F1000F91EA030F58BF994208BF8B
:1088E00090422CBFD8176FEAE37040F00100704748
:1088F0004FEA410C7FEA6C5C02D150EA013C07D19F
:108900004FEA430C7FEA6C5CD6D152EA033CD3D0E9
:108910005DF8040B704700BF8446104662468C46E3
:108920001946634600E000BF01B5FFF7B7FF002816
:1089300048BF10F1000F01BD4DF808EDFFF7F4FF3F
:108940000CBF012000205DF808FB00BF4DF808EDCA
:10895000FFF7EAFF34BF012000205DF808FB00BFED
:108960004DF808EDFFF7E0FF94BF012000205DF80F
:1089700008FB00BF4DF808EDFFF7CEFF94BF0120C4
:1089800000205DF808FB00BF4DF808EDFFF7C4FFBD
:1089900034BF012000205DF808FB00BF4FEA410C06
:1089A0007FEA6C5C02D150EA013C0AD14FEA430CE9
:1089B0007FEA6C5C02D152EA033C02D14FF0000026
:1089C00070474FF0010070474FEA410212F5001264
:1089D00015D211D56FF47873B3EB625212D94FEA06
:1089E000C12343F0004343EA505311F0004F23FAF0
:1089F00002F018BF404270474FF00000704750EA45
:108A0000013005D111F0004008BF6FF00040704701
:108A10004FF00000704700BF4FEA4102B2F1E0435F
:108A200024BFB3F5001CDCF1FE5C0DD901F0004C55
:108A30004FEAC0024CEA5070B2F1004F40EB8300A5
:108A400008BF20F00100704711F0804F21D113F1D1
:108A50003872BCBF01F00040704741F480114FEA0A
:108A60005252C2F11802C2F1200C10FA0CF320FA93
:108A700002F018BF40F001004FEAC1234FEAD323B0
:108A800003FA0CFC40EA0C0023FA02F34FEA43031A
:108A9000CCE77FEA625307D150EA01331EBF4FF0A3
:108AA000FE4040F44000704701F0004040F0FE40BE
:108AB00040F40000704700BF53B94AB9002908BF0D
:108AC00000281CBF4FF0FF314FF0FF3000F072B9AB
:108AD000ADF1080C6DE904CE00F006F8DDF804E015
:108AE000DDE9022304B070472DE9F047089E0446F3
:108AF0008846002B4BD18A42154667D9B2FA82F2DA
:108B00004AB1C2F1200701FA02F320FA07F79540B3
:108B100047EA030894404FEA154E230CB8FBFEF7D2
:108B20001FFA85FC0EFB178843EA084307FB0CF18C
:108B3000994209D9EB1807F1FF3080F01B81994267
:108B400040F21881023F2B445B1AA4B2B3FBFEF043
:108B50000EFB103344EA034400FB0CFCA44509D986
:108B60002C1900F1FF3380F00781A44540F2048105
:108B700002382C4440EA0740A4EB0C0400271EB145
:108B8000D4400023C6E900433946BDE8F0878B4254
:108B900009D9002E00F0EB800027C6E90001384615
:108BA0003946BDE8F087B3FA83F7002F47D18B42EF
:108BB00002D3824200F2FA80841A61EB030301209F
:108BC0009846002EE0D0C6E90048DDE702B9FFDE96
:108BD000B2FA82F2002A40F08F80491B4FEA154E0C
:108BE0001FFA85F80127B1FBFEFC230C0EFB1C11BC
:108BF00043EA014308FB0CF1994207D9EB180CF149
:108C0000FF3002D2994200F2CD808446591AA3B2B5
:108C1000B1FBFEF00EFB101443EA044408FB00F81D
:108C2000A04507D92C1900F1FF3302D2A04500F26C
:108C3000B6801846A4EB080440EA0C409FE7C7F151
:108C4000200CBB4022FA0CFE4EEA030E01FA07F498
:108C500020FA0CF521FA0CF34FEA1E482543B3FB2A
:108C6000F8F92C0C08FB19331FFA8EFA44EA034377
:108C700009FB0AF49C4202FA07F200FA07F10BD949
:108C80001EEB030309F1FF3080F087809C4240F225
:108C90008480A9F1020973441B1BADB2B3FBF8F049
:108CA00008FB103345EA034400FB0AFAA24508D941
:108CB0001EEB040400F1FF336BD2A24569D90238E0
:108CC000744440EA0940A0FB0289A4EB0A044C4525
:108CD000C2464B4654D351D0002E69D0B1EB0A05A1
:108CE00064EB030404FA0CFCFD40FC404CEA05056F
:108CF000C6E90054002747E7C2F1200320FA03F732
:108D0000954001FA02F021FA03F34FEA154E384379
:108D1000010CB3FBFEF71FFA85F80EFB173341EA8F
:108D2000034107FB08F38B4204FA02F407D96918E0
:108D300007F1FF3C2FD28B422DD9023F2944CB1A99
:108D400081B2B3FBFEF00EFB103341EA034100FB9E
:108D500008F38B4207D9691800F1FF3C17D28B4208
:108D600015D902382944C91A40EA07473BE7374674
:108D7000304609E70746E7E61846FBE64145ABD231
:108D8000B8EB020A69EB0E0201381346A4E760460D
:108D9000E9E7184695E76746D1E781467CE7023860
:108DA0002C4447E7ACF1020C2B442FE7384608E788
:108DB0003746E9E6704700BF90B587B000AF87ED52
:108DC000050AC7ED040A87ED031AC7ED021A87EDFD
:108DD000012AC7ED002A544B1B78002B0FD1534BAF
:108DE0004FF000021A60524B4FF000021A60514BD4
:108DF0004FF000021A60504B4FF000021A604A4BCD
:108E000001221A70D7ED057A9FED4C7A37EE877AFA
:108E1000D7ED047A77EE677A444BC3ED007A434B83
:108E200093ED007AD7ED037A27EE277A404BD3ED06
:108E3000007A77EE277A3E4BC3ED007A3B4B93EDF9
:108E4000007A3D4BD3ED007A77EE676A97ED037AAF
:108E5000C6EE877A374BC3ED007A344B1B68364A2F
:108E60001360324B93ED007AD7ED027A27EE277A22
:108E70002F4BD3ED006AD7ED017A66EEA77A37EE75
:108E8000277A2C4BD3ED006AD7ED007A66EEA77AED
:108E900077EE277A17EE900AFFF78EFA03460C4614
:108EA00044EC103B0BF058F954EC103B18462146AB
:108EB000FFF78AFD03461AB2214B1A801B4B93ED34
:108EC000007AD7ED027A27EE277A194BD3ED006AA4
:108ED000D7ED017A66EEA77A37EE277A154BD3EDF8
:108EE000006AD7ED007A66EEA77A77EE277A17EE5A
:108EF000900AFFF761FA03460C4644EC103B0BF076
:108F00002BF954EC103B18462146FFF75DFD034654
:108F10001BB29BB25B429BB21AB20A4B1A8000BFD3
:108F20001C37BD4690BD00BFEC0E0020F00E0020A7
:108F3000F40E0020F80E0020FC0E0020000020425D
:108F4000565000206850002090B587B000AF87EDE4
:108F5000050AC7ED040A87ED031AC7ED021A87ED6B
:108F6000012AC7ED002A594B1B78002B0FD1584B13
:108F70004FF000021A60574B4FF000021A60564B38
:108F80004FF000021A60554B4FF000021A604F4B31
:108F900001221A7097ED057AD7ED047A77EE677A99
:108FA00017EE900AFFF708FA4FF033324C4BFFF7F9
:108FB0005BFA03460C4618462146FFF72DFD024694
:108FC000434B1A60424B93ED007AD7ED037A27EEBC
:108FD000277A404BD3ED007A77EE277A3D4BC3EDED
:108FE000007A3B4B93ED007A3C4BD3ED007A77EE61
:108FF000676A97ED037AC6EE877A374BC3ED007A3E
:10900000334B1B68354A1360314B93ED007AD7ED33
:10901000027A27EE277A2F4BD3ED006AD7ED017A3B
:1090200066EEA77A37EE277A2B4BD3ED006AD7EDA1
:10903000007A66EEA77A77EE277A17EE900AFFF7A6
:10904000BBF903460C4644EC103B0BF085F854EC9E
:10905000103B18462146FFF7B7FC03461BB29BB2F4
:109060005B429BB21AB21F4B1A80194B93ED007AE8
:10907000D7ED027A27EE277A164BD3ED006AD7EDAB
:10908000017A66EEA77A37EE277A134BD3ED006AA2
:10909000D7ED007A66EEA77A77EE277A17EE900A78
:1090A000FFF78AF903460C4644EC103B0BF054F8EA
:1090B00054EC103B18462146FFF786FC03461AB2D3
:1090C000094B1A8000BF1C37BD4690BDEC0E002036
:1090D000000F0020040F0020080F00200C0F0020BC
:1090E0003333F33F525000207450002090B587B0C6
:1090F00000AF87ED050AC7ED040A87ED031AC7ED37
:10910000021A87ED012AC7ED002A594B1B78002B64
:109110000FD1584B4FF000021A60574B4FF000022E
:109120001A60564B4FF000021A60554B4FF0000288
:109130001A604F4B01221A7097ED057AD7ED047A29
:1091400077EE677A17EE900AFFF736F94FF0333271
:109150004C4BFFF789F903460C4618462146FFF7AA
:109160005BFC0246434B1A60424B93ED007AD7ED0D
:10917000037A27EE277A404BD3ED007A77EE277AF1
:109180003D4BC3ED007A3B4B93ED007A3C4BD3ED66
:10919000007A77EE676A97ED037AC6EE877A374BE7
:1091A000C3ED007A334B1B68354A1360314B93EDA6
:1091B000007AD7ED027A27EE277A2F4BD3ED006A9B
:1091C000D7ED017A66EEA77A37EE277A2B4BD3EDEF
:1091D000006AD7ED007A66EEA77A77EE277A17EE67
:1091E000900AFFF7E9F803460C4644EC103B0AF0FE
:1091F000B3FF54EC103B18462146FFF7E5FB03464E
:109200001AB2214B1A801B4B93ED007AD7ED027AEC
:1092100027EE277A184BD3ED006AD7ED017A66EE78
:10922000A77A37EE277A154BD3ED006AD7ED007A8F
:1092300066EEA77A77EE277A17EE900AFFF7BCF86A
:1092400003460C4644EC103B0AF086FF54EC103BFE
:1092500018462146FFF7B8FB03461BB29BB25B42A0
:109260009BB21AB2094B1A8000BF1C37BD4690BD95
:10927000EC0E0020100F0020140F0020180F00200B
:109280001C0F00203333F33F445000205C5000207B
:1092900090B587B000AF87ED050AC7ED040A87EDEA
:1092A000031AC7ED021A87ED012AC7ED002A504BB9
:1092B0001B78002B0FD14F4B4FF000021A604E4B22
:1092C0004FF000021A604D4B4FF000021A604C4BF9
:1092D0004FF000021A60464B01221A7097ED057A92
:1092E000D7ED047A77EE677A424BC3ED007A414BB3
:1092F00093ED007AD7ED037A27EE277A3E4BD3ED34
:10930000007A77EE277A3C4BC3ED007A394B93ED28
:10931000007A3B4BD3ED007A77EE676A97ED037ADC
:10932000C6EE877A354BC3ED007A324B1B68344A60
:109330001360304B93ED007AD7ED027A27EE277A4F
:109340002D4BD3ED006AD7ED017A66EEA77A37EEA2
:10935000277A2A4BD3ED006AD7ED007A66EEA77A1A
:1093600077EE277A17EE900AFFF726F803460C46A9
:1093700044EC103B0AF0F0FE54EC103B184621463A
:10938000FFF722FB03461AB21E4B1A80194B93EDCE
:10939000007AD7ED027A27EE277A174BD3ED006AD1
:1093A000D7ED017A66EEA77A37EE277A134BD3ED25
:1093B000006AD7ED007A66EEA77A77EE277A17EE85
:1093C000900AFEF7F9FF03460C4644EC103B0AF006
:1093D000C3FE54EC103B18462146FFF7F5FA03464E
:1093E0001AB2094B1A8000BF1C37BD4690BD00BFA2
:1093F000EC0E0020200F0020240F0020280F00205A
:109400002C0F0020585000205050002090B587B0FD
:1094100000AF87ED050AC7ED040A87ED031AC7ED13
:10942000021A87ED012AC7ED002A394B1B78002B61
:109430000FD1384B4FF000021A60374B4FF000024B
:109440001A60364B4FF000021A60354B4FF00002A5
:109450001A602F4B01221A7097ED057AD7ED047A26
:1094600077EE677A2B4BC3ED007A2A4B93ED007AA7
:10947000D7ED037A27EE277A274BD3ED007A77EEE4
:10948000277A254BC3ED007A224B93ED007A244BCB
:10949000D3ED007A77EE676A97ED037AC6EE877AA6
:1094A0001E4BC3ED007A1B4B1B681D4A1360194B02
:1094B00093ED007AD7ED027A27EE277A164BD3ED9B
:1094C000006AD7ED017A66EEA77A37EE277A134B5A
:1094D000D3ED006AD7ED007A66EEA77A77EE277AA9
:1094E00017EE900AFEF768FF03460C4644EC103B6B
:1094F0000AF032FE54EC103B18462146FFF764FA9E
:1095000003461AB2074B1A8000BF1C37BD4690BDF8
:10951000EC0E0020300F0020340F0020380F002008
:109520003C0F00204850002090B587B000AF87ED79
:10953000050AC7ED040A87ED031AC7ED021A87ED85
:10954000012AC7ED002A394B1B78002B0FD1384B6D
:109550004FF000021A60374B4FF000021A60364B92
:109560004FF000021A60354B4FF000021A602F4B8B
:1095700001221A7097ED057AD7ED047A77EE677AB3
:109580002B4BC3ED007A2A4B93ED007AD7ED037A8B
:1095900027EE277A274BD3ED007A77EE277A254BF3
:1095A000C3ED007A224B93ED007A244BD3ED007A81
:1095B00077EE676A97ED037AC6EE877A1E4BC3EDA6
:1095C000007A1B4B1B681D4A1360194B93ED007A00
:1095D000D7ED027A27EE277A164BD3ED006AD7ED46
:1095E000017A66EEA77A37EE277A134BD3ED006A3D
:1095F000D7ED007A66EEA77A77EE277A17EE900A13
:10960000FEF7DAFE03460C4644EC103B0AF0A4FDDC
:1096100054EC103B18462146FFF7D6F903461AB220
:10962000074B1A8000BF1C37BD4690BDEC0E0020D2
:10963000400F0020440F0020480F00204C0F002056
:109640006A50002090B585B000AF87ED030AC7EDE2
:10965000020A87ED011AC7ED001A534B1B78002B45
:109660000FD1524B4FF000021A60514B4FF00002E5
:109670001A60504B4FF000021A604F4B4FF000023F
:109680001A60494B01221A704C4B93ED007A4C4BF7
:10969000D3ED007A77EE677A444BC3ED007A434B03
:1096A00093ED007AD7ED037A27EE277A404BD3ED7E
:1096B000007A77EE277A3E4BC3ED007A3B4B93ED71
:1096C000007A3D4BD3ED007A77EE676A97ED037A27
:1096D000C6EE877A374BC3ED007A344B1B68364AA7
:1096E0001360324B93ED007AD7ED027A27EE277A9A
:1096F0002F4BD3ED006AD7ED017A66EEA77A37EEED
:10970000277A2C4BD3ED006AD7ED007A66EEA77A64
:1097100077EE277A17EE900AFEF74EFE03460C46C8
:1097200044EC103B0AF018FD54EC103B184621465F
:10973000FFF74AF903461AB2224B1A801B4B93EDEE
:10974000007AD7ED027A27EE277A194BD3ED006A1B
:10975000D7ED017A66EEA77A37EE277A154BD3ED6F
:10976000006AD7ED007A66EEA77A77EE277A17EED1
:10977000900AFEF721FE03460C4644EC103B0AF02B
:10978000EBFC54EC103B18462146FFF71DF903464D
:109790001BB29BB25B429BB21AB20B4B1A8000BF4A
:1097A0001437BD4690BD00BFEC0E0020500F0020C6
:1097B000540F0020580F00205C0F00206450002040
:1097C00070500020545000204650002080B584B0D6
:1097D00000AF0346FB71FB7963F07F03DBB2FB73E1
:1097E000002204210D4807F0E7FA07F10F01642376
:1097F00001220B4807F0C0FF07F10E01642301228C
:10980000074808F0EDF801220421044807F0D4FAD3
:10981000BB7B18461037BD4680BD00BF000C024020
:10982000BC5B012080B584B000AF03460A46FB71E3
:109830001346BB71FB7903F07F03DBB2FB7300229D
:1098400004210C4807F0B8FA07F10F016423012244
:10985000094807F091FFB91D64230122064807F06B
:109860008BFF01220421034807F0A6FA00BF10373E
:10987000BD4680BD000C0240BC5B012080B582B0BB
:1098800000AF0020FFF7A2FF0346BB71BB79E02BBE
:1098900019D10123FB7101210620FFF7C3FF10211D
:1098A0000320FFF7BFFF20217F20FFF7BBFF172119
:1098B0000120FFF7B7FF06211420FFF7B3FF0021B7
:1098C0007F20FFF7AFFFFB7918460837BD4680BD04
:1098D00098B500AF3320FFF779FF03461B021CB297
:1098E0003420FFF773FF03461BB223431AB2114B18
:1098F0001A803520FFF76AFF03461B021CB2362090
:10990000FFF764FF03461BB223431AB20A4B1A80C7
:109910003720FFF75BFF03461B021CB23820FFF71E
:1099200055FF03461BB223431AB2044B1A8000BFF3
:1099300098BD00BF7E5000207C5000207650002053
:1099400098B500AF2D20FFF741FF03461B021CB264
:109950002E20FFF73BFF03461BB223431AB2114BE5
:109960001A802F20FFF732FF03461B021CB2302063
:10997000FFF72CFF03461BB223431AB20A4B1A808F
:109980003120FFF723FF03461B021CB23220FFF7F2
:109990001DFF03461BB223431AB2044B1A8000BFBB
:1099A00098BD00BF7A5000208050002078500020E1
:1099B00080B582B000AF7860391D4FF6FF73012289
:1099C000034809F069FF7B6818460837BD4680BD2B
:1099D000645C012080B400AF2D4B00221A802C4B18
:1099E000B3F900202B4B1A802A4BB3F900202A4BE5
:1099F0001A80294BB3F90020284B1A80274BB3F962
:109A00000020274B1A80264BB3F90020254B1A80E3
:109A1000244BB3F90020244B1A80234BB3F90020C8
:109A2000224B1A80214BB3F90020214B1A80214B85
:109A300000221A801F4BB3F900201F4B1A801E4BC7
:109A4000B3F900201D4B1A801C4BB3F900201C4BAE
:109A50001A801B4BB3F900201A4B1A80194BB3F92B
:109A60000020194B1A80184BB3F90020174B1A80AD
:109A7000164BB3F90020164B1A80154BB3F9002092
:109A8000144B1A8000BFBD465DF8047B704700BFD1
:109A90006A500020465000205A500020605000209C
:109AA00044500020525000206850002050500020A8
:109AB000C065012048500020545000205E50002016
:109AC000625000205C50002074500020565000204E
:109AD000585000202C5B012098B500AF194B93F92A
:109AE0000430002B03F00103B8BF5B425BB2012BD3
:109AF00025D0154BD3E900014FF00002134BFEF7C0
:109B0000FDFA03460C46104AC2E900340E4BD3E975
:109B100000014FF000020E4BFEF70EFF0346002B34
:109B200000D10CE00B4BD3E900014FF00002074BD2
:109B3000FEF7E4FA03460C46064AC2E9003400BFC9
:109B400098BD00BFE80C0020900F00200000F03FFF
:109B500000408F40880F0020B0B400AF354B00228A
:109B60001A605EE0344B00221A6051E0314B1968F4
:109B7000314B1A68314C8B00981814F810300225BC
:109B800065F3871304F810302A4B1C682A4B1868B9
:109B90002A4D8B00134415F81330C3F38113DDB243
:109BA0002649A3001A1811F8123065F3051301F8BD
:109BB0001230204B1968204B1A68204DA300034433
:109BC00015F81330C3F30113DDB21C4C8B00981849
:109BD00014F8103065F3830304F81030154B1C683B
:109BE000154B1B68154889000A4410F81220C2F36F
:109BF0008102D0B21149A2001A4411F8123060F368
:109C0000010301F812300C4B1B6801330A4A136040
:109C1000094B1B68032BA9DD064B1B680133054A62
:109C20001360044B1B68032B9CDD00BFBD46B0BC1A
:109C3000704700BFC44F0020C84F0020606501205E
:109C400080B400AF4B4B03221A605DE04A4B002208
:109C50001A6050E0484B1A68464B1B68474992000F
:109C6000134411F81330C3F30103DAB2444B1B68F9
:109C70001146444AD154404B1A683E4B1B683F4939
:109C80009200134411F81330C3F38103DAB23C4B52
:109C90001B68013311463B4AD154374B1A68354B88
:109CA0001B6836499200134411F81330C3F30113B3
:109CB000DAB2334B1B6802331146324AD1542E4B71
:109CC0001A682C4B1B682D499200134411F813306D
:109CD000C3F38113DAB22A4B1B6803331146294AB6
:109CE000D154274B1B680433254A1360224B1B6851
:109CF0000133214A1360204B1B68032BAADD1D4B47
:109D00001B68013B1B4A13601A4B1B68002B9DDA32
:109D1000184B03221A6023E0174B00221A6016E04A
:109D2000154B1968134B1A68154B1B6816488900A8
:109D300001440A441178134AD154114B1B68013372
:109D40000F4A13600C4B1B6801330B4A13600A4B1C
:109D50001B68032BE4DD074B1B68013B054A1360BE
:109D6000044B1B68002BD7DA00BFBD465DF8047BAF
:109D7000704700BFCC4F0020D04F0020606501200D
:109D8000D44F0020C40F0020F060012080B500AF48
:109D90003F4B00221A6041E03E4B00221A6031E046
:109DA0003D4B1B683D4AD35C19463D480AF0B8FE5E
:109DB000394B1B68013303F00F03002B0ED0364BD9
:109DC0001B680133032B09DD334B1B68013303F0A0
:109DD0000303002B02D133480AF0A2FE2E4B1B686E
:109DE000013303F00F03002B02D12F480AF00CFFC0
:109DF000294B1B680133284A1360264B1B6801332B
:109E0000244A1360234B1B680F2BC9DD26480AF038
:109E1000FBFE1F4B1B6801331D4A13601C4B1B6864
:109E2000032BB9DD20480AF0EFFE1F480AF0ECFED4
:109E3000174B00221A6024E0164B00221A6011E032
:109E4000154B1B68154AD35C194618480AF068FE82
:109E5000114B1B680133104A13600E4B1B68013312
:109E60000C4A13600B4B1B68032BE9DD0E480AF00C
:109E7000CBFE0D480AF0C8FE054B1B680133044AAF
:109E80001360034B1B68032BD6DD00BF80BD00BFF2
:109E9000D84F0020DC4F0020E04F0020C40F0020EE
:109EA0008069010884690108886901088C690108D2
:109EB00080B588B000AF06F04BFB0023BB600123E8
:109EC0003B610223BB6101237B613A1D07F108035B
:109ED0001146184606F09CFC0346FB7706F05AFB39
:109EE000FB7F002B05D17B68B3F1FF3F01D101233C
:109EF00000E0002303F00103DBB218462037BD4623
:109F000080BD000080B500AF054A064B10461946DB
:109F10004FF480431A460AF093F9014B184680BD6E
:109F2000C40F00200040000890B585B000AFFFF7D7
:109F3000BFFF034683F00103DBB2002B01D00023F7
:109F40002FE01A4B7B6006F003FB4FF480533B601D
:109F50000023BB6017E0BB689B00154A9918BB68DB
:109F60009B007A6813441B684FF000041A4623468E
:109F7000022006F0E5F90346FB73FB7B002B07D1BB
:109F8000BB680133BB60BA683B689A42E3D300E028
:109F900000BF06F0FFFAFB7B002B0CBF0123002360
:109FA000DBB218461437BD4690BD00BFC40F002079
:109FB0000040000880B500AF0021044808F07CF99B
:109FC0000021024809F049FA00BF80BD90500020EE
:109FD00080B500AF0021044808F0F2F900210248E2
:109FE00009F090FA00BF80BD9050002080B500AF0E
:109FF00003220A490A4805F0AFF80346002B01D0B6
:10A0000004F080F902220749074805F0A5F8034645
:10A01000002B01D004F076F900BF80BDA80F00200E
:10A02000185C0120B00F00201451002080B500AF53
:10A03000084805F083F90346002B01D004F062F9CB
:10A04000054805F07BF90346002B01D004F05AF9CE
:10A0500000BF80BD185C01201451002080B500AF06
:10A060003C21044808F0A4FB3C21034808F0A0FB75
:10A0700000BF80BD785B0120D450002080B500AFC8
:10A080000C21094808F06CFA0346002B01D004F0BB
:10A0900039F90421054808F063FA0346002B01D082
:10A0A00004F030F900BF80BD80650120345B0120E1
:10A0B00080B500AF0C21094808F090FA0346002B48
:10A0C00001D004F01FF90421054808F087FA03467F
:10A0D000002B01D004F016F900BF80BD806501207F
:10A0E000345B012080B500AFFFF764FFFFF77EFF10
:10A0F000FFF7C4FBFFF7C2FF00BF80BD2DE9B043EF
:10A1000084B000AF87ED030AC7ED020A87ED011A9C
:10A1100097ED017AD7ED037A67EE277A17EE900A6A
:10A12000FEF74AF904460D467868FEF745F90246FF
:10A130000B464FF000001149FDF7DEFF02460B46CB
:10A1400090469946B868FEF737F902460B464046F6
:10A150004946FEF789F902460B4620462946FDF797
:10A16000CDFF03460C4644EC173BB0EE470AF0EE39
:10A17000670A1037BD46BDE8B08300BF0000F03F5E
:10A18000B0B500AFFFF7A4FBFFF7DAFB4E4B1B881F
:10A190001BB21846FEF7FEF84C4BD3E900341A46C2
:10A1A0002346FDF7A9FF03460C461846214640A367
:10A1B000D3E90023FEF782FA03460C4618462146EF
:10A1C0003DA3D3E90023FEF74FF903460C4618469A
:10A1D00021464FF000023E4BFEF770FA03460C4654
:10A1E0003C4AC2E900343B4BD3E9003418462146CF
:10A1F000FEF712FC0546384BD3E9003418462146D9
:10A20000FEF70AFC03469FED351A00EE903A00EE89
:10A21000105AFFF773FFB0EE407AF0EE607A304BE1
:10A2200083ED007B2E4BD3E9000125A3D3E9002366
:10A23000FEF71AF903460C4618462146294BD3E986
:10A2400000341A462346FDF759FF03460C46254ABB
:10A25000C2E90034224BD3E900341F4AC2E900347A
:10A260001C4BD3E90034204AC2E900341D4BD3E92A
:10A2700000014FF00002164BFEF7F6F803460C46BD
:10A28000184621460CA3D3E90023FEF717FA03462C
:10A290000C46164AC2E900340E4BD3E9003444ECB4
:10A2A000173BB0EE470AF0EE670AB0BDAFF300808F
:10A2B0006666666666663040182D4454FB21094088
:10A2C000FCA9F1D24D62503F76500020800F002053
:10A2D00000806640E84F0020F04F00200AD7233C62
:10A2E000F84F0020700F002000500020680F002061
:10A2F000B0B58CB000AF87ED0A0B87ED081B87ED7A
:10A30000062B87ED043B87ED024B87ED005B7C4B12
:10A310009B7903F00103DBB2002B0FD0794BD3ED17
:10A32000007AF5EE407AF1EE10FA23D1764BD3EDB8
:10A33000007AF5EE407AF1EE10FA1BD1734A4FF035
:10A3400000034FF00004C2E90034714A4FF00003EB
:10A350004FF00004C2E900346E4A4FF000034FF0A2
:10A360000004C2E900346C4A4FF000034FF00004CF
:10A37000C2E90034624A937943F001039371D7E94B
:10A380000823D7E90A01FDF7B7FE03460C465F4AEA
:10A39000C2E900345D4BD3E90001D7E90623FEF79B
:10A3A00063F803460C4618462146594BD3E900345E
:10A3B0001A462346FDF7A2FE03460C46544AC2E95C
:10A3C0000034524BD3E90001534BD3E900341A4611
:10A3D0002346FDF791FE03460C4618462146D7E971
:10A3E0000623FEF76BF903460C464A4AC2E90034DD
:10A3F000464BD3E90034484AC2E90034434BD3E921
:10A400000001D7E90423FEF72FF803460C46254642
:10A410001C463F4BD3E90001D7E90223FEF724F89D
:10A4200002460B4620462946FDF768FE03460C46C9
:10A4300025461C46374BD3E90001D7E90023FEF738
:10A4400013F802460B4620462946FDF757FE034601
:10A450000C4644EC173BB0EE470AF0EE670A09F0F1
:10A460007BFE54EC103B18462146FEF7ADFA03463E
:10A470001BB29BB25B429BB21AB2284B1A80234B91
:10A48000D3E90001D7E90423FDF7EEFF03460C46AC
:10A4900025461C461E4BD3E90001D7E90223FDF7F0
:10A4A000E3FF02460B4620462946FDF727FE0346FA
:10A4B0000C4625461C46174BD3E90001D7E900237B
:10A4C000FDF7D2FF02460B4620462946FDF716FE51
:10A4D00003460C4644EC173BB0EE470AF0EE670A21
:10A4E00009F03AFE54EC103B18462146FEF76CFA90
:10A4F00003461AB20A4B1A8000BF3037BD46B0BDC2
:10A50000E80C0020600F0020640F0020085000209D
:10A510001050002018500020205000205A500020D9
:10A520005E500020F0B589B000AF6B461E46FA20A1
:10A5300004F06CFC4FF4FA63FB81B7F90E0003469C
:10A54000013BBB60034619464FF000024FF0000389
:10A550004FF00004940144EA91648B0103461946CC
:10A560004FF000024FF000034FF00004940144EA62
:10A5700091648B010346DB0007330733DB08DB0004
:10A58000ADEB030D6B460733DB08DB007B6000237C
:10A59000FB8323E01F4B1B881BB2FD8B1846FDF786
:10A5A000F9FE03460C467968EA000A44C2E9003421
:10A5B000FB8B7A68DB001344D3E900341A46234648
:10A5C000D7E90401FDF79AFD03460C46C7E90434B8
:10A5D000022004F01BFCFB8B0133FB83FA8BB7F9E1
:10A5E0000E309A42D6DBB7F90E301846FDF7D2FE90
:10A5F00003460C461A462346D7E90401FEF75EF8E7
:10A6000003460C46044AC2E90034B54600BF24376D
:10A61000BD46F0BD76500020800F002080B500AF11
:10A620005A4B93F90030072B00F2AC8001A252F88C
:10A6300023F000BF55A600087BA60008A1A60008CD
:10A64000C7A60008EDA6000813A7000839A7000850
:10A650005FA7000800224FF400714D4806F0ACFBE4
:10A6600000224FF480714A4806F0A6FB00224FF406
:10A670000071484806F0A0FB85E001224FF400710C
:10A68000434806F099FB00224FF48071404806F0E1
:10A6900093FB00224FF400713E4806F08DFB72E000
:10A6A00000224FF400713A4806F086FB01224FF475
:10A6B0008071374806F080FB00224FF40071354866
:10A6C00006F07AFB5FE001224FF40071304806F09B
:10A6D00073FB01224FF480712D4806F06DFB0022C0
:10A6E0004FF400712B4806F067FB4CE000224FF45A
:10A6F0000071274806F060FB00224FF48071244867
:10A7000006F05AFB01224FF40071224806F054FB78
:10A7100039E001224FF400711D4806F04DFB002284
:10A720004FF480711A4806F047FB01224FF4007184
:10A73000184806F041FB26E000224FF4007114484F
:10A7400006F03AFB01224FF48071114806F034FB09
:10A7500001224FF400710F4806F02EFB13E0012296
:10A760004FF400710A4806F027FB01224FF4807174
:10A77000074806F021FB01224FF40071054806F05E
:10A780001BFB00E000BF00BF80BD00BFE80C002045
:10A79000000802400004024080B582B000AF0346CA
:10A7A0000A46FB801346BB80B7F90630002B05DD57
:10A7B000012204211A4806F0FFFA0CE0B7F906302E
:10A7C000002B08DA00220421154806F0F5FAFB8870
:10A7D0005B429BB2FB80B7F90430002B05DD002201
:10A7E00001210F4806F0E8FA0CE0B7F90430002B1D
:10A7F00008DA012201210A4806F0DEFABB885B4232
:10A800009BB2BB80074B1B68B7F906201A64064B46
:10A810001B68B7F904209A6300BF0837BD4680BDA6
:10A820000000024080650120345B01200000000030
:10A8300098B500AF8C4B1B881AB28C4B1A808A4B90
:10A840005B881AB28A4B1A808A4B1B881AB28A4BD1
:10A850001A80884B5B881AB2884B1A80884BB3F9F0
:10A8600000301A46814BB3F90030D31A002BB8BF21
:10A870005B421AB2834B1A80834BB3F900301A46FD
:10A880007B4BB3F90030D31A002BB8BF5B421AB22E
:10A890007E4B1A807E4BB3F900301A46764BB3F9E3
:10A8A0000030D31A002BB8BF5B421AB2794B1A8022
:10A8B000794BB3F900301A46704BB3F90030D31A14
:10A8C000002BB8BF5B421AB2744B1A80674BB3F9C6
:10A8D00000206B4B1A80664BB3F900206A4B1A803C
:10A8E000654BB3F900206A4B1A80644BB3F9002022
:10A8F000694B1A805C4B9B881A4613465B001344D5
:10A900001846FDF747FD56A3D3E90023FDF7ACFD3C
:10A9100003460C46184621464FF00002604BFDF7F7
:10A92000CDFE03460C4618462146FEF775F8024652
:10A930005C4B1A605C4BB3F900309AB2514BB3F9DF
:10A9400000309BB213449BB21AB2574B1A80574B3C
:10A95000B3F900309AB24D4BB3F900309BB21344B7
:10A960009BB21AB2514B1A80514BB3F900309AB2D4
:10A97000484BB3F900309BB213449BB21AB24C4B14
:10A980001A804C4BB3F900309AB2444BB3F9003003
:10A990009BB213449BB21AB2464B1A80464B1B68BB
:10A9A0000133454A1360444B1B680A2B56D13E4B7A
:10A9B000B3F9003007EE903AF8EEE76A3E4B1B68B9
:10A9C00007EE903AB8EEE77AC6EE877A3B4BC3EDD6
:10A9D000007A364BB3F9003007EE903AF8EEE76AAA
:10A9E000354B1B6807EE903AB8EEE77AC6EE877AE9
:10A9F000334BC3ED007A2E4BB3F9003007EE903A9B
:10AA0000F8EEE76A2C4B1B6807EE903AB8EEE77A4F
:10AA1000C6EE877A2B4BC3ED007A264BB3F9003094
:10AA200007EE903AF8EEE76A234B1B6807EE903A80
:10AA3000B8EEE77AC6EE877A234BC3ED007A1A4B5D
:10AA400000221A80194B00221A80194B00221A800A
:10AA5000184B00221A80184B00221A6000BF98BDC4
:10AA60006666666666660A40A80F00205C51002094
:10AA70001C000020B00F0020B60F0020C26501208E
:10AA8000605100205E510020BA0F0020BC0F002052
:10AA9000B80F0020BE0F002088500020745B0120FA
:10AAA0000000B0403C6601202E5B0120605C01206C
:10AAB000145C0120B85B012028500020286601208A
:10AAC000586501208C500020305B012080B487B095
:10AAD00000AF87ED010AC7ED000A0F4B7B614FF015
:10AAE0008E433B61D7ED056AD7ED047A86EEA77AEF
:10AAF000D7ED017A67EE276A97ED007AC6EE877A7E
:10AB0000C7ED037AFB6807EE903AB0EE670A1C3790
:10AB1000BD465DF8047B70470E1F824280B400AFD3
:10AB2000064B47F22F525A62054B47F22F525A6298
:10AB300000BFBD465DF8047B704700BF00040040C5
:10AB40000008004080B483B000AF0346FB80B7F933
:10AB50000630002B02D10023FB8030E0B7F906302D
:10AB6000012B2CD11A4B5A68194B1B681344184AF5
:10AB70005360184B5A68174B1B681344154A5360AF
:10AB8000134B5A68134B5B68134407EE903AB8EEC8
:10AB9000E77AF0EE006AC7EE267AFDEEE77A17EE66
:10ABA000902A0D4B5A600A4B1A680A4B1B681A44CC
:10ABB0000A4B1B681344094A13600123FB80B7F951
:10ABC000063018460C37BD465DF8047B704700BF61
:10ABD000C40C0020D00C0020DC0C0020A00F0020B2
:10ABE00090B585B000AF87ED000B0F4BD3E9003473
:10ABF000C7E9023400BFD7E90023D7E90201FDF716
:10AC00007DFA03460C4618462146074BD3E900342B
:10AC10001A462346FDF7B8FE0346002BEBD100BFD2
:10AC20001437BD4690BD00BF980F00200000000003
:10AC300080B500AF224B00221A70FEF7CBFE214BED
:10AC400000225A60204B00225A60204B00225A609A
:10AC50001F4B0122DA7005E01D4B04225A711C4B78
:10AC600001225A70174B5A68174B5B681344002B2C
:10AC70000FDB144B5A68144B5B6813441846FDF7FE
:10AC800089FB0DA3D3E90023FDF760FE0346002BEB
:10AC9000E2D10F4B00225A700E4B0F4A1A60094B3B
:10ACA00000225A60084B00225A60084B00225A606A
:10ACB00000BF80BDAFF30080C8BD6EFC245FEE40D6
:10ACC000EC0E0020C40C0020D00C0020DC0C002076
:10ACD000E80C0020600F002000007043000000001E
:10ACE00080B500AF484B00221A70FEF773FE474B49
:10ACF00000225A60464B00225A60464B00225A609E
:10AD0000454B0122DA704DE0434B02225A703F4B13
:10AD10005A683F4B5B6813441846FDF73BFB36A36C
:10AD2000D3E90023FDF730FE0346002B37D03B4B21
:10AD3000D3ED007A9FED3A7AF4EEC77AF1EE10FA8D
:10AD40000DDD384BD3ED007A9FED377AF4EEC77AFC
:10AD5000F1EE10FA03DD304B00225A7122E0314B44
:10AD6000D3ED007A9FED307AF4EEC77AF1EE10FA67
:10AD700003DD294B01225A7114E0284BD3ED007AF0
:10AD80009FED277AF4EEC77AF1EE10FA03DD224B3D
:10AD900002225A7106E0204B04225A7102E01E4B37
:10ADA00004225A71194B5A68194B5B681344002BE3
:10ADB0000FDB164B5A68164B5B6813441846FDF7B9
:10ADC000E9FA0FA3D3E90023FDF7C0FD0346002BEA
:10ADD0009AD1114B00225A70144B154A1A600B4B32
:10ADE00000225A600A4B00225A600A4B00225A6025
:10ADF00000BF80BDAFF3008066AE04DEA997D840E7
:10AE0000F59C6AE11822E640EC0E0020C40C0020FC
:10AE1000D00C0020DC0C0020E80C0020586501203C
:10AE20000000C8428C50002000000C43600F00203E
:10AE3000000070430000000080B500AF4DE0464BBD
:10AE400003225A70454B5A68454B5B6813441846B9
:10AE5000FDF7A0FA3CA3D3E90023FDF777FD0346F5
:10AE6000002B37D03F4BD3ED007A9FED3F7AF4EEC5
:10AE7000C77AF1EE10FA0DDD3C4BD3ED007A9FED71
:10AE80003C7AF4EEC77AF1EE10FA03DD324B002281
:10AE90005A7122E0354BD3ED007A9FED357AF4EE0E
:10AEA000C77AF1EE10FA03DD2B4B01225A7114E040
:10AEB0002C4BD3ED007A9FED2C7AF4EEC77AF1EEAD
:10AEC00010FA03DD244B02225A7106E0224B0422C1
:10AED0005A7102E0204B04225A71204B5A68204BD1
:10AEE0005B6813441846FDF755FA19A3D3E900230C
:10AEF000FDF72CFD0346002B12D01E4B93ED007A7C
:10AF00001D4BD3ED007A37EE277AF0EE006AC7EEDC
:10AF1000267A9FED1A7AF4EEC77AF1EE10FA8ED403
:10AF20000D4B00225A700C4B05225A71144B4FF0F6
:10AF300000021A60084B0022DA70124B00221A70CD
:10AF4000FEF748FD00BF80BD47D138D7CB82DD403A
:10AF5000F59C6AE11822E640E80C0020C40C0020B1
:10AF6000D00C0020586501200000C8428C50002001
:10AF700000000C4328660120305B01200080F7446C
:10AF8000600F0020EC0E0020B0B500AF7EE0544B07
:10AF90005A68544B5B6813441846FDF7FBF90446A6
:10AFA0000D46514BD3ED007A77EEA77A17EE900A53
:10AFB000FDF702FA46A3D3E90023FDF755FA02464E
:10AFC0000B4620462946FDF7C1FC0346002B22D143
:10AFD000454BD3ED007A77EEA77A17EE900AFDF78E
:10AFE000EBF93DA3D3E90023FDF786F803460C46B1
:10AFF00025461C463A4B5A683A4B5B681344184640
:10B00000FDF7C8F902460B4620462946FDF79EFC8F
:10B010000346002B37D0354BD3ED007A9FED347AC1
:10B02000F4EEC77AF1EE10FA0DDD324BD3ED007A73
:10B030009FED317AF4EEC77AF1EE10FA03DD2F4B73
:10B0400000225A711EE02B4BD3ED007A9FED2A7A35
:10B05000F4EEC77AF1EE10FA03DD284B01225A71A3
:10B0600014E0224BD3ED007A9FED217AF4EEC77AFB
:10B07000F1EE10FA03DD214B02225A7106E01F4B5C
:10B0800004225A7102E01D4B04225A71144B5A6873
:10B09000144B5B68134407EE903AB8EEE77A124B14
:10B0A000D3ED007A77EEA77AB4EEE77AF1EE10FAF4
:10B0B0003FF56DAF0A4B00225A600A4B00225A60DE
:10B0C0000F4B00225A6000BFB0BD00BFAFF300803D
:10B0D000CDCCCCCCCCCCDC3F46D138D7CB82DD40FC
:10B0E000C40C0020D00C0020000000205865012076
:10B0F0000000C8428C50002000000C43E80C0020E7
:10B10000DC0C0020000000002DE9B0432DED028B87
:10B1100084B000AF034687ED000BFB73FEF7AEFF74
:10B1200097F90F30002B37DA27E0474B93ED008B70
:10B13000464B1B681846FDF73FF904460D46434B46
:10B140005B681846FDF738F9804689463F4B9B6897
:10B150001846FDF731F902460B4643EC152B49EC36
:10B16000148B45EC134B9FED362BB0EE481AF0EEE6
:10B17000681A97ED000BFFF7BBF897F90F301846E8
:10B18000FDF708F9324BD3E900341A462346FDF7A0
:10B19000DDFB0346002BC8D197F90F30002B37DDBC
:10B1A00027E0294B93ED008B284B1B681846FDF7D1
:10B1B00003F904460D46254B5B681846FDF7FCF87D
:10B1C00080468946214B9B681846FDF7F5F80246F4
:10B1D0000B4643EC152B49EC148B45EC134B9FEDC0
:10B1E000182BB0EE481AF0EE681A97ED000BFFF737
:10B1F0007FF897F90F301846FDF7CCF8144BD3E9D8
:10B2000000341A462346FDF7BFFB0346002BC8D186
:10B21000104B0022DA70104A4FF000034FF0000488
:10B22000C2E900340A4A4FF000034FF00004C2E9BB
:10B23000003400BF1037BD46BDEC028BBDE8B083C3
:10B24000FCA9F1D24D62503F780F0020B80C0020CD
:10B25000680F0020E80C0020700F002080B582B03D
:10B2600000AF0023FB7145E0284B4FF000021A604D
:10B27000274B00221A70FEF7ADFB264B00225A60C6
:10B28000254B00225A60254B00225A60244B012294
:10B29000DA7005E0224B03225A71224B224A1A60CF
:10B2A0001C4B5A681C4B5B68D31A07EE903AB8EEF9
:10B2B000E77A1E4BD3ED007A77EEA77AB4EEE77A01
:10B2C000F1EE10FAE6D9164B0022DA70154B4FF06A
:10B2D00000021A600D4B4FF000021A600D4B002265
:10B2E0005A600D4B00225A600C4B00225A60FB79C9
:10B2F0000133FB71FB79002BB6D0054B00221A708D
:10B30000FEF768FB00BF0837BD4680BD600F002018
:10B31000EC0E0020C40C0020D00C0020DC0C00201F
:10B32000E80C0020640F0020000040C00400002052
:10B3300080B582B000AF0023FB7145E0284B4FF091
:10B3400000021A60274B00221A70FEF743FB264BBF
:10B3500000225A60254B00225A60254B00225A6079
:10B36000244B0122DA7005E0224B03225A71224B52
:10B37000224A1A601D4B5A681B4B5B68D31A07EEB2
:10B38000903AB8EEE77A1E4BD3ED007A77EEA77AC3
:10B39000B4EEE77AF1EE10FAE6D9164B0022DA7035
:10B3A000154B4FF000021A600D4B4FF000021A606F
:10B3B0000D4B00225A600D4B00225A600C4B0022AC
:10B3C0005A60FB790133FB71FB79002BB6D0054B3A
:10B3D00000221A70FEF7FEFA00BF0837BD4680BD96
:10B3E000600F0020EC0E0020C40C0020D00C0020C8
:10B3F000DC0C0020E80C0020640F0020000040401E
:10B40000040000200000000098B500AF504B062259
:10B410005A7102E04E4B06225A704E4B5A684E4B00
:10B420005B6813441846FCF7B5FF3FA3D3E900233C
:10B43000FDF78CFA0346002BECD1454B00225A70E5
:10B4400021E0464B464A1A60464B474A1A60454B34
:10B450001B681846FCF7B0FF35A3D3E90023FDF7BE
:10B4600003F803460C461846214633A3D3E90023CC
:10B47000FDF724F903460C4618462146FDF7CCFAA1
:10B4800002463A4B1A60334B5A68334B5B6813449D
:10B490001846FCF77FFF24A3D3E90023FDF76AFADF
:10B4A0000346002B0FD02B4B5A682B4B5B68134481
:10B4B0001846FCF76FFF22A3D3E90023FDF746FAF5
:10B4C0000346002BBDD102E0214B07225A70214BCD
:10B4D0005A68214B5B6813441846FCF75BFF1AA3BC
:10B4E000D3E90023FDF732FA0346002BECD1184BC9
:10B4F00000225A70164B04225A71164B00225A60D1
:10B50000154B00225A601A4B00225A60154B4FF01F
:10B5100000021A60154B4FF000021A600F4B154ADB
:10B520001A6000BF98BD00BF39484F2382F0B74072
:10B530003333333333B34B406666666666265F400B
:10B540003F3A959A38C6EF40A3917F6F2462F1404D
:10B55000E80C0020C40C0020D00C0020600F00205C
:10B56000000034436C500020333379434C500020AA
:10B57000DC0C00200000704398B500AF504B062251
:10B580005A7102E04E4B04225A704E4B5A684E4B91
:10B590005B6813441846FCF7FDFE3FA3D3E9002384
:10B5A000FDF7D4F90346002BECD1454B00225A702D
:10B5B00021E0464B464A1A60464B474A1A60454BC3
:10B5C0001B681846FCF7F8FE35A3D3E90023FCF707
:10B5D0004BFF03460C461846214633A3D3E900230C
:10B5E000FDF76CF803460C4618462146FDF714FAA1
:10B5F00002463A4B1A60334B5A68334B5B6813442C
:10B600001846FCF7C7FE24A3D3E90023FDF7B2F9DF
:10B610000346002B0FD02B4B5A682B4B5B6813440F
:10B620001846FCF7B7FE22A3D3E90023FDF78EF9F5
:10B630000346002BBDD102E0214B05225A70214B5D
:10B640005A68214B5B6813441846FCF7A3FE1AA303
:10B65000D3E90023FDF77AF90346002BECD1184B10
:10B6600000225A70164B04225A71164B00225A605F
:10B67000154B00225A601A4B00225A60174B4FF0AC
:10B6800000021A60134B4FF000021A600F4B154A6C
:10B690001A6000BF98BD00BF39484F2382F0B74001
:10B6A0003333333333B34B406666666666265F409A
:10B6B0003F3A959A38C6EF40A3917F6F2462F140DC
:10B6C000E80C0020C40C0020D00C0020600F0020EB
:10B6D000000034434C500020333379436C50002039
:10B6E000DC0C00200000704380B500AF70E0564BCA
:10B6F0005A68564B5B6813441846FCF74BFE4AA346
:10B70000D3E90023FDF722F90346002B05D0504B67
:10B7100004225A714F4B504A1A604B4B5A684B4B9C
:10B720005B6813441846FCF735FE3FA3D3E90023BA
:10B73000FDF720F90346002B22D0434B5A68434BB8
:10B740005B6813441846FCF725FE39A3D3E90023B0
:10B75000FDF7FCF80346002B12D03D4B06225A7130
:10B760003C4B3D4A1A603D4B3D4A1A603B4BD3ED82
:10B77000007A9FED3C7A67EE877A3B4BC3ED007A07
:10B78000314B5A68314B5B6813441846FCF702FE94
:10B7900027A3D3E90023FDF7EDF80346002B00D1E2
:10B7A00016E0294B5A68294B5B6813441846FCF78E
:10B7B000F1FD21A3D3E90023FDF7C8F80346002BD0
:10B7C00000D105E0224B04225A71224B224A1A6012
:10B7D0001D4B5A681D4B5B6813441846FCF7DAFD95
:10B7E00017A3D3E90023FDF7B1F80346002B7FF43C
:10B7F0007EAF174B04225A71134B00225A60134B31
:10B8000000225A60194B00225A60144B4FF000027C
:10B810001A60154B4FF000021A600E4B144A1A6062
:10B8200000BF80BDAFF3008052AFCD04962ADA404E
:10B8300002170040854CEB4055773321E830F44047
:10B8400056773321E830F440C40C0020D00C00209F
:10B85000E80C0020600F0020000034436C500020F2
:10B860000000B443000000004C500020DC0C00201D
:10B87000000070430000000080B500AF70E0564B40
:10B880005A68564B5B6813441846FCF783FD4AA37D
:10B89000D3E90023FDF75AF80346002B05D0504B9F
:10B8A00004225A714F4B504A1A604B4B5A684B4B0B
:10B8B0005B6813441846FCF76DFD3FA3D3E90023F2
:10B8C000FDF758F80346002B22D0434B5A68434BF0
:10B8D0005B6813441846FCF75DFD39A3D3E90023E8
:10B8E000FDF734F80346002B12D03D4B06225A7167
:10B8F0003C4B3D4A1A603D4B3D4A1A603B4BD3EDF1
:10B90000007A9FED3C7A67EE877A3B4BC3ED007A75
:10B91000314B5A68314B5B6813441846FCF73AFDCB
:10B9200027A3D3E90023FDF725F80346002B00D118
:10B9300016E0294B5A68294B5B6813441846FCF7FC
:10B9400029FD21A3D3E90023FDF700F80346002BCE
:10B9500000D105E0224B04225A71224B224A1A6080
:10B960001D4B5A681D4B5B6813441846FCF712FDCB
:10B9700017A3D3E90023FCF7E9FF0346002B7FF46C
:10B980007EAF174B04225A71134B00225A60134B9F
:10B9900000225A60194B00225A60174B4FF00002E8
:10B9A0001A60124B4FF000021A600E4B144A1A60D4
:10B9B00000BF80BDAFF3008052AFCD04962ADA40BD
:10B9C00002170040854CEB4055773321E830F440B6
:10B9D00056773321E830F440C40C0020D00C00200E
:10B9E000E80C0020600F0020000034434C50002081
:10B9F0000000B443000000006C500020DC0C00206C
:10BA00000000704380B582B000AF0023FB7154E0AA
:10BA1000304B4FF000021A602F4B00221A70FDF7D6
:10BA2000D9FF2E4B00225A602D4B00225A602D4B1D
:10BA300000225A602C4B0122DA7005E02A4B0322C7
:10BA40005A712A4B2A4A1A60244B5B6807EE903AD7
:10BA5000B8EEE77A274BD3ED007A77EEA77AB4EE0B
:10BA6000E77AF1EE10FAE9D91D4B5B6807EE903AE0
:10BA7000B8EEE77A1F4BD3ED007AF1EE677A77EEF6
:10BA8000A77AB4EEE77AF1EE10FAD7DA164B002275
:10BA9000DA70104B4FF000021A60144B4FF00002A6
:10BAA0001A600E4B00225A600D4B00225A600D4B5B
:10BAB00000225A60FB790133FB71FB79002BA7D080
:10BAC000054B00221A70FDF785FF00BF0837BD4601
:10BAD00080BD00BF600F0020EC0E0020C40C0020D1
:10BAE000D00C0020DC0C0020E80C0020640F0020AB
:10BAF000000040C00400002080B582B000AF2A4B97
:10BB000000221A70FDF766FF284B00225A60284B6E
:10BB100000225A60274B00225A60274B0122DA701C
:10BB200005E0264B264A1A60234B04225A711F4B0C
:10BB30005A681F4B5B6813441846FCF72BFC18A38C
:10BB4000D3E90023FCF720FF0346002BE9D11B4B70
:10BB50004FF000021A60184B05225A71164B002252
:10BB6000DA70124B00225A60114B00225A60114BBE
:10BB700000225A600C4B00221A70FDF72BFF0023A5
:10BB80007B6002E07B6801337B607B680D4A9342F7
:10BB9000F8DD00BF0837BD4680BD00BFAFF30080B1
:10BBA00087643C2F3A65D5C0EC0E0020C40C002001
:10BBB000D00C0020DC0C0020E80C0020600F0020DE
:10BBC0000000B4C27F1A060080B500AF1E4B5B7A3E
:10BBD000032B2DD801A252F823F000BFEDBB0008C3
:10BBE0000BBC000811BC000817BC0008FFF724F9C3
:10BBF0009FED110BFEF7F4FFFFF730FB9FED0E0BEF
:10BC0000FEF7EEFFFFF76CF812E0FFF7FDFB0FE029
:10BC1000FFF76AFD0CE0FFF70FF99FED090B6FF0DE
:10BC20005900FFF771FAFDF729FEFFF759F800BF39
:10BC300000BF80BDAFF30080333333333333D33FA2
:10BC400000000000000014C0E80C0020000000000C
:10BC500080B500AF1E4B5B7A032B2CD801A252F8A3
:10BC600023F000BF75BC000893BC000899BC000815
:10BC70009FBC0008FFF7E0F89FED110BFEF7B0FF47
:10BC8000FFF756FB9FED0E0BFEF7AAFFFFF728F814
:10BC900011E0FFF771FC0EE0FFF7EEFD0BE0FFF7A0
:10BCA000CBF89FED090B5A20FFF72EFAFDF7E6FDC2
:10BCB000FFF716F800BF00BF80BD00BFAFF30080E4
:10BCC000333333333333D33F0000000000001440DC
:10BCD000E80C002080B500AF4FF48051594805F0C2
:10BCE00053F80346012B40F09E80574808F08CFF24
:10BCF000FEF7DEF9554806F07EFA554806F07BFA65
:10BD0000FEF766F9FEF792F94FF4C87003F07EF87B
:10BD1000504B93F90430DBB20133DBB25AB24D4BD6
:10BD20001A714C4B93F90430052B7CD1494B0322FB
:10BD30001A7178E0484B5B6A1A46484B1A60474BC9
:10BD40001B681946464808F0EBFE444B1B6849F255
:10BD50002E5293421EDD3F4B93F90030DBB201338C
:10BD6000DBB25AB23B4B1A703A4B93F90030072BB7
:10BD700002DD384B00221A70FEF750FCFEF7CEFEB3
:10BD8000344B93F90020334B9A704FF4FA7003F060
:10BD90003DF848E0314B1B6845F22F5293421EDCC0
:10BDA0002C4B93F90030DBB2013BDBB25AB2294B8A
:10BDB0001A70284B93F90030002B02DA254B07222A
:10BDC0001A70FEF72BFCFEF7A9FE224B93F9002018
:10BDD000204B9A704FF4FA7003F018F823E04FF4F8
:10BDE0008051184804F0D0FF0346012B1BD1FA20E4
:10BDF00003F00CF8FEF776F9174B47F22F525A6210
:10BE0000184B47F22F525A62114806F0D0F90F48EA
:10BE100006F0CDF90F4B93F90430DBB20133DBB2FE
:10BE20005AB20C4B1A710B4B93F90430002B03F0F0
:10BE30000103B8BF5B425BB2012B3FF47BAF00BF95
:10BE400080BD00BF000402401C6A0108306101206F
:10BE500090500020E80C002000040040C40C00209A
:10BE6000286A01080008004080B485B000AF0023B4
:10BE7000FB600023BB6000237B6000233B6000234A
:10BE8000FB6013E00023BB600AE0934AFB689B0061
:10BE90001A44BB6813440F221A70BB680133BB609D
:10BEA000BB68032BF1DDFB680133FB60FB68032BF0
:10BEB000E8DD0223FB6013E00023BB600AE0864A52
:10BEC000FB689B001A44BB68134400221A70BB68CD
:10BED0000133BB60BB68012BF1DDFB680133FB6004
:10BEE000FB68032BE8DD00237B600023FB60E2E0BE
:10BEF0000023BB60D8E0784AFB689B001A44BB680B
:10BF000013441B781A463B68934240F0CA80734939
:10BF1000FB689A00BB68134411F81330C3F30103A4
:10BF2000DBB2012B25D0BB6801336B49FA68920064
:10BF30000A4413441A786849FB689B001944BB689B
:10BF40000B441B789A4214D9BB68022B11DC624A5D
:10BF5000FB689B001A44BB6813441A78BB68013322
:10BF60000132D0B25C49FA6892000A441344024696
:10BF70001A705A49FB689A00BB68134411F81330D1
:10BF8000C3F38103DBB2012B25D0FB680133524A96
:10BF90009B001A44BB6813441A784F49FB689B0006
:10BFA0001944BB680B441B789A4214D9FB68022BD6
:10BFB00011DC494AFB689B001A44BB6813441A7899
:10BFC000FB6801330132D1B2434A9B001A44BB687B
:10BFD00013440A461A704149FB689A00BB6813442F
:10BFE00011F81330C3F30113DBB2012B25D0BB686A
:10BFF000013B3949FA6892000A4413441A783649D9
:10C00000FB689B001944BB680B441B789A4214D907
:10C01000BB68002B11DD304AFB689B001A44BB68EB
:10C0200013441A78BB68013B0132D0B22A49FA683E
:10C0300092000A44134402461A702849FB689A0089
:10C04000BB68134411F81330C3F38113DBB2012B27
:10C0500025D0FB68013B204A9B001A44BB6813446F
:10C060001A781D49FB689B001944BB680B441B7878
:10C070009A4214D9FB68002B11DD174AFB689B001C
:10C080001A44BB6813441A78FB68013B0132D1B2F1
:10C09000114A9B001A44BB6813440A461A700123D4
:10C0A0007B60BB680133BB60BB68032B7FF723AFAA
:10C0B000FB680133FB60FB68032B7FF719AF3B681C
:10C0C00001333B607B68002B7FF40DAF00BF14375A
:10C0D000BD465DF8047B7047F0600120606501207B
:10C0E00080B500AF4FF47A7002F090FEFEF7F8FDD5
:10C0F000FEF74AFFFEF748FFFEF79EFEFDF7D8FF6A
:10C100000A4806F078F80A4806F075F8094B1B68EB
:10C110001946094808F004FD084B1B6819460848F1
:10C1200008F0FEFC074808F06FFDEFE730610120E2
:10C1300090500020A40F0020306A0108A00F0020BA
:10C140004C6A01088869010890B482B000AF8B4B3B
:10C1500093ED007A8A4BD3ED007A37EE277AF0EE32
:10C16000006AC7EE267AB3EE0E7AF4EEC77AF1EEE5
:10C1700010FACCBF01230023DAB2824B1B7807F1FF
:10C1800008010B4403F8042C7F4BD3ED007A9FED9C
:10C190007F7AF4EEC77AF1EE10FACCBF01230023C8
:10C1A000D9B2784B1B7801335A4203F0030302F0F3
:10C1B000030258BF53420A4607F108010B4403F833
:10C1C000042C704B1B7802335A4203F0030302F035
:10C1D000030258BF534207F108021344002203F838
:10C1E000042C6B4BD3ED007A9FED6A7AF4EEC77A9C
:10C1F000F1EE10FACCBF01230023D9B2614B1B78BA
:10C2000003335A4203F0030302F0030258BF5342C0
:10C210000A4607F108010B4403F8042C39795E4BF8
:10C220001B781C465D4B1B781A460B4603F0030334
:10C23000D8B25B49A3001A4411F8123060F301032D
:10C2400001F812307979544B1B781C46534B1B78FC
:10C250001A460B4603F00303D8B25149A3001A440F
:10C2600011F8123060F3830301F81230B9794A4BA8
:10C270001B781C46494B1B781A460B4603F00303F8
:10C28000D8B24749A3001A4411F8123060F30513DD
:10C2900001F81230F979404B1B781C463F4B1B7854
:10C2A0001A460B4603F00303D8B23D49A3001A44D3
:10C2B00011F8123060F3871301F81230374B1B78F6
:10C2C000022B12D83979344B1B781A46334B1B7822
:10C2D000013301F00301C8B2314992001A4411F848
:10C2E000123060F3051301F812302B4B1B78022B30
:10C2F00011D87979284B1B780133284A127801F03C
:10C300000301C8B226499B001A4411F8123060F3A9
:10C31000871301F81230214B1B78002B12D0B9790A
:10C320001D4B1B781A461D4B1B78013B01F0030186
:10C33000C8B21B4992001A4411F8123060F301038D
:10C3400001F81230144B1B78002B11D0F979124BE5
:10C350001B78013B114A127801F00301C8B2104961
:10C360009B001A4411F8123060F3830301F8123075
:10C3700000BF0837BD4690BC704700BF286601204B
:10C38000305B012062510020586501200000C84246
:10C390008C50002000000C43B40F0020B50F00208B
:10C3A000606501200000000098B500AFAA4B002294
:10C3B0005A72AA4B1B78032B00F2648301A252F835
:10C3C00023F000BFD5C3000871C500082DC70008C1
:10C3D000E9C80008A24B1B781846A24B1B781946E7
:10C3E000A14A83000B4412F81330C3F30103DBB2FC
:10C3F000002B27D19A4B1B781A469A4B1B78013396
:10C400009A4992000A4413441A78954B1B781C46AB
:10C41000944B1B7818469549A3000B4403441B78A2
:10C420009A420FD28F4B1B78022B0BD8FEF7ACFD34
:10C430008A4B00221A708B4B1B780133DAB2894B7E
:10C440001A7094E0864B1B781846864B1B78194669
:10C45000854A83000B4412F81330C3F38113DBB217
:10C46000002B27D17E4B1B78013B7E4A1278114668
:10C470007E4A9B0013440B441A78794B1B781C4668
:10C48000784B1B7818467949A3000B4403441B786A
:10C490009A420FD2724B1B78002B0BD0FFF7D8FBC0
:10C4A0006E4B03221A706E4B1B78013BDAB26C4B59
:10C4B0001A705CE06A4B1B7818466A4B1B78194669
:10C4C000694A83000B4412F81330C3F38103DBB2D3
:10C4D000002B27D1624B1B780133624A1278114638
:10C4E000624A9B0013440B441A785D4B1B781C4630
:10C4F0005C4B1B7818465D49A3000B4403441B7832
:10C500009A420FD2564B1B78022B0BD8FFF75CFBDD
:10C51000524B01221A70524B1B780133DAB2504B46
:10C520001A7024E0FEF788FC9FED490BFEF758FBDC
:10C53000494B93F90230012B01D1FDF7B9FDFFF70B
:10C5400061FA9FED430BFEF74BFBFFF7D5FA9FED2A
:10C55000400BFEF745FBFEF76BFB404B02221A70C7
:10C56000404B1B78013BDAB23E4B1A708BE28AE2F9
:10C570003B4B1B7818463B4B1B7819463A4A8300C5
:10C580000B4412F81330C3F38103DBB2002B27D125
:10C59000334B1B780133334A12781146334A9B00E0
:10C5A00013440B441A782E4B1B781C462D4B1B78DA
:10C5B00018462E49A3000B4403441B789A420FD21D
:10C5C000274B1B78022B0BD8FEF7DEFC234B0122F6
:10C5D0001A70234B1B780133DAB2214B1A70A4E096
:10C5E0001F4B1B7818461F4B1B7819461E4A8300A9
:10C5F0000B4412F81330C3F30103DBB2002B37D125
:10C60000174B1B781A46174B1B78013317499200BA
:10C610000A4413441A78124B1B781C46114B1B78A2
:10C6200018461249A3000B4403441B789A421FD2B8
:10C630000C4B1B78022B1BD8FFF70AFB074B002281
:10C640001A70084B1B780133DAB2064B1A706CE093
:10C65000333333333333D33FE80C002062510020AF
:10C66000B40F0020B50F002060650120F0600120AC
:10C67000974B1B781846974B1B781946964A8300B0
:10C680000B4412F81330C3F30113DBB2002B27D194
:10C690008F4B1B781A468F4B1B78013B8F499200BA
:10C6A0000A4413441A788A4B1B781C46894B1B7822
:10C6B00018468A49A3000B4403441B789A420FD2C0
:10C6C000844B1B78002B0BD0FFF77EFA844B0222A1
:10C6D0001A70804B1B78013BDAB27E4B1A7024E053
:10C6E000FEF7AAFB9FED780BFEF77AFA7D4B93F9E4
:10C6F0000230012B01D1FDF7DBFCFFF783F99FED41
:10C70000720BFEF76DFAFFF7F7F99FED6F0BFEF76F
:10C7100067FAFEF78DFA724B03221A706C4B1B7886
:10C72000013BDAB26A4B1A70ADE1ACE1684B1B78A1
:10C730001846684B1B781946674A83000B4412F869
:10C740001330C3F30113DBB2002B27D1604B1B78EE
:10C750001A46604B1B78013B604992000A4413441F
:10C760001A785B4B1B781C465A4B1B7818465B4962
:10C77000A3000B4403441B789A420FD2554B1B78FD
:10C78000002B0BD0FEF700FC554B02221A70514BC8
:10C790001B78013BDAB24F4B1A7094E04C4B1B787C
:10C7A00018464C4B1B7819464B4A83000B4412F831
:10C7B0001330C3F38103DBB2002B27D1444B1B782A
:10C7C0000133444A12781146444A9B0013440B44F7
:10C7D0001A783F4B1B781C463E4B1B7818463F4946
:10C7E000A3000B4403441B789A420FD2384B1B78AA
:10C7F000022B0BD8FFF72CFA394B01221A70344B5D
:10C800001B780133DAB2324B1A705CE0304B1B7884
:10C810001846304B1B7819462F4A83000B4412F8F8
:10C820001330C3F38113DBB2002B27D1284B1B78C5
:10C83000013B284A12781146284A9B0013440B44B6
:10C840001A78234B1B781C46224B1B781846234929
:10C85000A3000B4403441B789A420FD21C4B1B7855
:10C86000002B0BD0FFF7B0F91D4B03221A70184BA9
:10C870001B78013BDAB2164B1A7024E0FEF7DCFAA3
:10C880009FED110BFEF7ACF9164B93F90230012B1B
:10C8900001D1FDF70DFCFFF7B5F89FED0B0BFEF78F
:10C8A0009FF9FFF729F99FED080BFEF799F9FEF7BD
:10C8B000BFF90B4B00221A70064B1B780133DAB21A
:10C8C000044B1A70DFE0DEE0333333333333D33FCE
:10C8D000B40F0020B50F002060650120F06001203A
:10C8E00062510020E80C00206B4B1B7818466B4B04
:10C8F0001B7819466A4A83000B4412F81330C3F3BD
:10C900008113DBB2002B27D1634B1B78013B634AB9
:10C9100012781146634A9B0013440B441A785E4B0D
:10C920001B781C465D4B1B7818465E49A3000B44E0
:10C9300003441B789A420FD2574B1B78002B0BD025
:10C94000FEF722FB584B03221A70534B1B78013B16
:10C95000DAB2514B1A7094E04F4B1B7818464F4B8C
:10C960001B7819464E4A83000B4412F81330C3F368
:10C970000113DBB2002B27D1474B1B781A46474BDC
:10C980001B78013B474992000A4413441A78424BF2
:10C990001B781C46414B1B7818464249A3000B44A8
:10C9A00003441B789A420FD23C4B1B78002B0BD0D0
:10C9B000FFF74EF93C4B02221A70384B1B78013BB3
:10C9C000DAB2364B1A705CE0334B1B781846334BA7
:10C9D0001B781946324A83000B4412F81330C3F314
:10C9E0000103DBB2002B27D12B4B1B781A462B4BB4
:10C9F0001B7801332B4992000A4413441A78264BC2
:10CA00001B781C46254B1B7818462649A3000B446F
:10CA100003441B789A420FD2204B1B78022B0BD871
:10CA2000FFF7D2F8204B00221A701C4B1B78013301
:10CA3000DAB21A4B1A7024E0FEF7FEF99FED140BE0
:10CA4000FEF7CEF8194B93F90230012B01D1FDF717
:10CA50002FFBFEF7D7FF9FED0E0BFEF7C1F8FFF798
:10CA60004BF89FED0B0BFEF7BBF8FEF7E1F80E4B12
:10CA700001221A70084B1B780133DAB2064B1A7088
:10CA800001E000E000BF00BF98BD00BFAFF3008031
:10CA9000333333333333D33FB40F0020B50F00208B
:10CAA00060650120F060012062510020E80C002048
:10CAB00080B500AFFDF750F82A4B00221A70294BC1
:10CAC0001A78294B1A70294B00221A70FFF73CFB89
:10CAD000254B1B781846234B1B781A4624498300A4
:10CAE0001A4411F81230012060F3051301F81230D6
:10CAF000FFF7BAF9FEF79CF81B4B00221A70194B8E
:10CB00001B780133DAB2174B1A7005E0FFF71CFBF4
:10CB1000FFF7AAF9FFF748FC134B1B78012BF5D957
:10CB2000114B1B78032BF1D80E4B1B78012BEDD842
:10CB3000FEF782F9FFF708FBFDF7BAFA0D4B072263
:10CB40001A70FDF76BFD4FF47A7002F05FF9FDF794
:10CB500077F8FDF7E9F9074B00221A70FDF75EFD43
:10CB600000BF80BDB50F0020B40F0020625100202F
:10CB700060650120E80C002080B483B000AF7860CD
:10CB800000BF0C37BD465DF8047B70470000000015
:10CB90002DE9B04F2DED028B82B000AF78607B683D
:10CBA000BF4A934240F08284BE4BD3E90001B8A350
:10CBB000D3E90023FBF7A2FA03460C46B94AC2E9BF
:10CBC0000034B94B1B7A002B04D0012B00F0A28358
:10CBD00000F06DBCFCF780FFB44B5B6A1A46B44BA7
:10CBE0001A60B44B5B6A1A46B34B1A60B04B1B68B1
:10CBF000C3F5EA432F33AE4A1360AF4B1B68C3F54E
:10CC0000EA432F33AC4A1360A74B93F903301BB2AE
:10CC10001846FDF797FF03465AB2A34BDA70A64BAE
:10CC20001A68A34B1B681A44A44B1B681344A34AFD
:10CC30001360FDF773FF9E4B1B6807EE903AF8EE0A
:10CC4000E77ADFED9F0AB0EE670AFDF73FFFF0EEEF
:10CC5000407A9C4BC3ED007A974B1B6807EE903AE5
:10CC6000F8EEE77ADFED960AB0EE670AFDF72EFFE1
:10CC7000F0EE407A944BC3ED007A924B93ED007A3C
:10CC8000914BD3ED007A37EE277AF0EE006AC7EECB
:10CC9000267A8E4BC3ED007AFDF772FAB0EE407A39
:10CCA000F0EE607A8A4B83ED007B7F4B5B79062B3D
:10CCB00000F25D8101A252F823F000BFD9CC000838
:10CCC0001FCD000865CD0008ABCD00080BCE0008D5
:10CCD00083CE0008F9CE00087E4BD3ED007A7E4B60
:10CCE00093ED007A7D4BD3ED006A7C4B93ED016AA6
:10CCF0007A4BD3ED025AF0EE652AB0EE462AF0EEFA
:10CD0000661A9FED771AF0EE470AB0EE670AFCF755
:10CD100053F8654A93796FF30003937128E1714BDF
:10CD2000D3ED007A6C4B93ED007A6C4BD3ED006A37
:10CD30006A4B93ED016A694BD3ED025AF0EE652A16
:10CD4000B0EE462AF0EE661A9FED651AF0EE470A3D
:10CD5000B0EE670AFCF7F8F8534A93796FF30003D3
:10CD6000937105E1604BD3ED007A5A4B93ED007A55
:10CD70005A4BD3ED006A594B93ED016A574BD3EDF3
:10CD8000025AF0EE652AB0EE462AF0EE661A9FEDE2
:10CD9000541AF0EE470AB0EE670AFCF7A7F9424AC8
:10CDA00093796FF300039371E2E0504B1B681846D0
:10CDB000FBF702FB04460D46454B93ED008B4C4BB5
:10CDC0001B681846FBF7F8FA80468946484B5B68B3
:10CDD0001846FBF7F1FA82468B46454B9B6818468E
:10CDE000FBF7EAFA02460B4643EC152B4BEC14AB6F
:10CDF00049EC138B9FED262BB0EE481AF0EE681A23
:10CE000045EC104BFDF774FAB2E03A4BD3ED007AE3
:10CE1000384B93ED017A374BD3ED026AF0EE661A88
:10CE2000B0EE471AF0EE670A9FED250AFCF70AFC00
:10CE3000274B93ED008B2E4B1B681846FBF7BCFA73
:10CE400004460D462A4B5B681846FBF7B5FA804648
:10CE50008946274B9B681846FBF7AEFA02460B46FD
:10CE600043EC152B49EC148B45EC134B9FED082B31
:10CE7000B0EE481AF0EE681A9FED070BFDF738FA8E
:10CE800076E0094A93796FF30003937170E000BF75
:10CE9000FCA9F1D24D62503F0000000000000000EC
:10CEA00030610120980F0020E80C002000040040B1
:10CEB000C40C002000080040D00C0020A40F00206B
:10CEC0006F12833A6450002070500020D050002030
:10CED000780F0020586501208C500020A00C002005
:10CEE00017B751381800002014000020640F0020EC
:10CEF000B80C0020AC0C0020874BD3ED007A874B98
:10CF000093ED007A864BD3ED006A854B93ED016A71
:10CF1000834BD3ED025AF0EE652AB0EE462AF0EECE
:10CF2000661A9FED801AF0EE470AB0EE670AFCF72A
:10CF30006DFA7D4BD3ED007A7C4B93ED007A784B04
:10CF4000D3ED006A764B93ED016A754BD3ED025A2F
:10CF5000F0EE652AB0EE462AF0EE661A9FED711AE1
:10CF6000F0EE470AB0EE670AFCF7DEFA00E000BF19
:10CF70006F4B93F90130012B16D16E4BD3ED007A34
:10CF80009FED6D7AF4EEC77AF1EE10FA40F101816F
:10CF9000684B93ED007A694BD3ED007A77EE277AF0
:10CFA000644BC3ED007AF4E0614B93F90130022B3E
:10CFB00016D1604BD3ED007A9FED5F7AF4EEC77A1D
:10CFC000F1EE10FA40F1E5805A4B93ED007A5C4B9C
:10CFD000D3ED007A77EE277A564BC3ED007AD8E08E
:10CFE000534B93F90130032B16D1524BD3ED007AFA
:10CFF000B0EE007AF4EEC77AF1EE10FA40F3C98091
:10D000004C4B93ED007A4E4BD3ED007A77EE677A76
:10D01000484BC3ED007ABCE0454B93F90130042B3B
:10D0200024D13D4B1B681846FBF7C6F938A3D3E95A
:10D030000023FBF78BFC0346002B00F0AA80364B45
:10D0400093ED007A3F4BD3ED007A77EE277A324B9F
:10D05000C3ED007A344B93ED007A3A4BD3ED007A6E
:10D0600077EE677A304BC3ED007A92E0304B93F95C
:10D070000130052B21D1284BD3ED007A9FED2E7A7C
:10D08000F4EEC77AF1EE10FA40F38380224B93ED71
:10D09000007A2C4BD3ED007A77EE677A1E4BC3ED06
:10D0A000007A214B93ED007A264BD3ED007A77EE90
:10D0B000277A1D4BC3ED007A6BE01D4B93F90130CD
:10D0C000062B41D1184B1B681846FBF775F910A3C6
:10D0D000D3E90023FBF73AFC0346002B59D00E4B53
:10D0E00093ED007A174BD3ED007A77EE677A0A4B0F
:10D0F000C3ED007A0C4B93ED007A124BD3ED007A1E
:10D1000077EE277A084BC3ED007A42E0AFF3008058
:10D110004444444444C474404C50002070500020A7
:10D12000AC0C00206F12833A6C5000206450002039
:10D13000E80C0020600F0020000070430800002071
:10D140000C00002010000020574B93F90130072BF2
:10D150001FD1564BD3ED007A9FED557AF4EEC77A86
:10D16000F1EE10FA15DD534B93ED007A524BD3EDEF
:10D17000007A77EE277A4F4BC3ED007A4B4B93ED55
:10D18000007A4D4BD3ED007A77EE677A474BC3EDCB
:10D19000007A4A4BD3ED007A494B93ED007A494B24
:10D1A000D3ED006A474B93ED016A464BD3ED025A2B
:10D1B000F0EE652AB0EE462AF0EE661A9FED421AAE
:10D1C000F0EE470AB0EE670AFCF762F83F4BB3F99E
:10D1D00000309AB23E4BB3F900309BB213449AB27E
:10D1E0003C4BB3F900309BB213449AB23A4BB3F9BB
:10D1F00000309BB213449AB2384BB3F900309BB263
:10D2000013449AB2364BB3F900309BB213449AB22E
:10D21000344BB3F900309BB213449AB2324BB3F99A
:10D2200000309BB213449BB21AB2304B1A80304B81
:10D23000B3F900309AB22F4BB3F900309BB21344CC
:10D240009AB22D4BB3F900309BB213449AB22B4BD8
:10D25000B3F900309BB213449AB2294BB3F90030B2
:10D260009BB213449AB2274BB3F900309BB21344DC
:10D270009AB2254BB3F900309BB213449AB2234BB8
:10D28000B3F900309BB213449BB21AB2204B1A8000
:10D29000164BB3F900201E4BB3F900301946104667
:10D2A000FDF77AFA03E100BFE80C00206C50002083
:10D2B000000070434C50002010000020600F002040
:10D2C000D0500020AC0C00206F12833A5050002048
:10D2D0006850002052500020445000206050002030
:10D2E0005A500020465000206A500020C06501209E
:10D2F0005850002056500020745000205C500020F0
:10D30000625000205E500020545000204850002001
:10D310002C5B0120FCF7E0FB6F4B5B6A1A466F4BFE
:10D320001A606F4B5B6A1A466E4B1A606B4B1B6838
:10D33000C3F5EA432F33694A13606A4B1B68C3F590
:10D34000EA432F33674A1360674B93F903301BB2EC
:10D350001846FDF7F7FB03465AB2634BDA70614B90
:10D360001A685E4B1B681A44604B1B6813445F4A83
:10D370001360FDF7D3FB594B1B6807EE903AF8EEAC
:10D38000E77ADFED5B0AB0EE670AFDF79FFBF0EE90
:10D39000407A584BC3ED007A524B1B6807EE903A27
:10D3A000F8EEE77ADFED520AB0EE670AFDF78EFB82
:10D3B000F0EE407A504BC3ED007AFCF7E1FEB0EEA0
:10D3C000407AF0EE607A4D4B83ED007B4C4BD3E915
:10D3D00000013DA3D3E90023FBF7C2FA0346002B6B
:10D3E00059D0474BD3E9003418462146FBF7ECFAF5
:10D3F0000146444B83FB01230B445A11CB17D21A2D
:10D4000013461B019B1A9B00CA1A002A12D13B4BE0
:10D41000D3E900343C4A156818462146FBF7FCFA6C
:10D4200001463A4AAB0013441960374B1B6801337D
:10D43000354A1360364B1B680133354A1360344B51
:10D440001A68304B83FB021313445911D317C91ABE
:10D450000B461B015B1A9B00D11A00291BD12D4BD7
:10D460001B682D4A9B0013441B681846FAF7A4FF5B
:10D4700017A3D3E90023FAF7F7FF03460C46184633
:10D480002146FBF7C9FA0246244B1A60214B1B6860
:10D490000133204A1360224BB3F90020214BB3F92A
:10D4A000003019461046FDF777F900E000BF7B68B1
:10D4B0001D4A934201D1FDF7BBF900BF0837BD46B5
:10D4C000BDEC028BBDE8B08F000000000070E740AB
:10D4D000B81E85EB51B8AE3F00040040C40C0020DC
:10D4E00000080040D00C0020E80C0020A40F002011
:10D4F0006F12833A6450002070500020780F002093
:10D50000900F0020898888882C50002064510020CA
:10D51000305000203450002020000020C00F002098
:10D52000C06501202C5B012090500020000000000D
:10D5300090B583B000AF2A4B03225A71294B4FF0AC
:10D5400000021A60284B294A1A60294BD3E900349B
:10D55000C7E9003400BF4FF00002264BD7E90001B5
:10D56000FAF7CCFD03460C4618462146204BD3E97A
:10D5700000341A462346FBF707FA0346002BEAD18C
:10D580009FED150BFDF72CFB174B184A1A60184B33
:10D59000D3E90034C7E9003400BF4FF00002154B57
:10D5A000D7E90001FAF7AAFD03460C4618462146C2
:10D5B0000F4BD3E900341A462346FBF7E5F903463F
:10D5C000002BEAD19FED040BFDF70AFB064B4FF051
:10D5D00000021A60FEE700BF333333333333D33FE7
:10D5E000E80C0020640F0020600F002000002041A4
:10D5F000980F00200000F03F80B500AFFCF782FCE0
:10D600004FF4FA6001F002FCFCF7C0FBFEE780B5C6
:10D6100000AFFEF765FD00BF80BD000080B500AF24
:10D6200040F2DC5001F0F2FB034B00225A71034B35
:10D63000034A1A60FEE700BFE80C0020600F0020DC
:10D640000000B4420000000090B583B000AF304B42
:10D6500001221A722F4A4FF000034FF00004C2E972
:10D6600000342D4A4FF000034FF00004C2E90034AB
:10D670002A4BD3ED007A9FED2A7A67EE877AFDEE8A
:10D68000E77A17EE903A1AB2264B1A80234BD3ED65
:10D69000007AF1EE677A9FED227A67EE877AFDEEE7
:10D6A000E77A17EE903A1AB21F4B1A80194BD3E95A
:10D6B000000115A3D3E90023FBF75CF90346002B17
:10D6C0001ED0FCF7F5FC44F6206001F09FFB002320
:10D6D0007B6011E0154A7B689B0013441B68184669
:10D6E000FAF76AFE03460C461A462346104807F02E
:10D6F00017FA7B6801337B607B68B3F5487FE9DB11
:10D70000B6E700BFAFF30080000000000070E74004
:10D71000E80C0020900F0020880F0020C00F002090
:10D72000004083452C5B0120C0650120645100202E
:10D73000B86A010890B583B000AFFFF7FBFF1F4B3D
:10D7400004225A711E4B1F4A1A601F4A4FF00003F1
:10D750004FF00004C2E900341C4A4FF000034FF0C0
:10D760000004C2E90034184BD3E900014FF0000275
:10D77000174BFBF7FFF80346002BF4D0FCF798FC9F
:10D7800044F2682001F042FB00237B6011E0114A63
:10D790007B689B0013441B681846FAF70DFE03468E
:10D7A0000C461A4623460C4807F0BAF97B68013349
:10D7B0007B607B68B3F5C87FE9DBD4E7E80C002029
:10D7C000600F00200000B442900F0020880F00205E
:10D7D00000409F4064510020B86A010880B400AF47
:10D7E000074B084A1A60084B03225A71074B4FF047
:10D7F00000021A6000BFBD465DF8047B704700BFA1
:10D80000600F002000000743E80C0020640F002098
:10D8100080B500AFFFF74CF900BF80BD80B500AF09
:10D8200001F082FA00F066F800F0B0FC00F086FC2F
:10D8300000F0CAF800F036F900F090FA00F018FA9B
:10D8400000F090F900F050FC00F030FB00F0DAFA44
:10D8500000F0A2FB00F0BCF9FCF700FCFDF75EF95C
:10D8600001224FF40071214803F0A6FA4FF47A70B8
:10D8700001F0CCFA00224FF400711C4803F09CFA2E
:10D88000FEF728FAFCF74EFE194B93F90230072BEE
:10D890002AD801A252F823F0B9D80008BFD800084E
:10D8A000C5D80008CBD80008D1D80008D7D80008C0
:10D8B000DDD80008E3D80008FFF73AFE15E0FFF7CF
:10D8C0009BFE12E0FFF7A3FE0FE0FFF7A7FE0CE0C0
:10D8D000FFF7BAFE09E0FFF72DFF06E0FFF77EFF36
:10D8E00003E0FFF795FF00E000BFCDE7000802402E
:10D8F000E80C002080B594B000AF07F1200330227F
:10D900000021184606F0A7FC07F10C0300221A605C
:10D910005A609A60DA601A610023BB60284B1B6C66
:10D92000274A43F080531364254B1B6C03F080534C
:10D93000BB60BB6800237B60224B1B68214A43F419
:10D94000804313601F4B1B6803F480437B607B683C
