:020000040800F2
:1000000000000220490101088DF5000893F5000861
:1000100099F500089FF50008A5F50008000000000C
:10002000000000000000000000000000ABF5000828
:10003000B9F5000800000000C7F50008D5F5000874
:100040009901010899010108990101089901010824
:100050009901010899010108990101089901010814
:10006000E1F50008990101089901010899010108C9
:1000700099010108990101089901010899010108F4
:1000800099010108990101089901010899010108E4
:1000900099010108990101089901010899010108D4
:1000A00099010108F1F50008990101089901010879
:1000B00099010108990101089901010899010108B4
:1000C00099010108990101089901010899010108A4
:1000D0009901010899010108990101089901010894
:1000E0009901010899010108990101089901010884
:1000F00005F6000899010108990101089901010814
:100100009901010899010108990101089901010863
:100110009901010899010108990101089901010853
:1001200019F60008990101082DF600089901010847
:100130009901010800000000000000009901010879
:100140009901010899010108990101089901010823
:100150009901010899010108990101089901010813
:100160009901010899010108990101089901010803
:100170009901010899010108000000000000000039
:08018000990101089901010831
:1080000010B5054C237833B9044B13B10448AFF3D2
:1080100000800123237010BDF80100200000000043
:1080200000AD010808B5034B1BB103490348AFF38A
:10803000008008BD00000000FC01002000AD010828
:10804000034613F8012B002AFBD1181A0138704798
:1080500001F0FF01102A2BDB10F0070F08D010F8F9
:10806000013B013A8B422DD010F0070F42B3F6D1FD
:10807000F0B441EA012141EA014122F007047FF016
:1080800000070023F0E80256083C85EA010586EA6D
:10809000010685FA47F5A3FA87F586FA47F6A5FAA9
:1080A00087F68EB9EED1F0BC01F0FF0102F00702B5
:1080B00032B110F8013B013A83EA010313B1F8D160
:1080C0000020704701387047002D06BF3546033841
:1080D000073815F0010F07D1013015F4807F02BF7A
:1080E000013015F4C03F0130F0BC0138704700BFCB
:1080F00081F0004102E000BF83F0004330B54FEA59
:1081000041044FEA430594EA050F08BF90EA020FC5
:108110001FBF54EA000C55EA020C7FEA645C7FEA58
:10812000655C00F0E2804FEA5454D4EB5555B8BF7B
:108130006D420CDD2C4480EA020281EA030382EAEC
:10814000000083EA010180EA020281EA0303362D7E
:1081500088BF30BD11F0004F4FEA01314FF4801C51
:108160004CEA113102D0404261EB410113F0004F63
:108170004FEA03334CEA133302D0524263EB43031A
:1081800094EA050F00F0A780A4F10104D5F1200EB8
:108190000DDB02FA0EFC22FA05F2801841F1000113
:1081A00003FA0EF2801843FA05F359410EE0A5F1E7
:1081B00020050EF1200E012A03FA0EFC28BF4CF018
:1081C000020C43FA05F3C01851EBE37101F00045CE
:1081D00007D54FF0000EDCF1000C7EEB00006EEBDB
:1081E0000101B1F5801F1BD3B1F5001F0CD3490865
:1081F0005FEA30004FEA3C0C04F101044FEA4452BC
:1082000012F5800F80F09A80BCF1004F08BF5FEA42
:10821000500C50F1000041EB045141EA050130BD22
:108220005FEA4C0C404141EB010111F4801FA4F1C5
:108230000104E9D191F0000F04BF01460020B1FA1A
:1082400081F308BF2033A3F10B03B3F120020CDA52
:108250000C3208DD02F1140CC2F10C0201FA0CF030
:1082600021FA02F10CE002F11402D8BFC2F1200C95
:1082700001FA02F120FA0CFCDCBF41EA0C0190404B
:10828000E41AA2BF01EB0451294330BD6FEA040494
:108290001F3C1CDA0C340EDC04F11404C4F120027F
:1082A00020FA04F001FA02F340EA030021FA04F391
:1082B00045EA030130BDC4F10C04C4F1200220FAE8
:1082C00002F001FA04F340EA0300294630BD21FA26
:1082D00004F0294630BD94F0000F83F4801306BFEC
:1082E00081F480110134013D4EE77FEA645C18BFE0
:1082F0007FEA655C29D094EA050F08BF90EA020F77
:1083000005D054EA000C04BF1946104630BD91EA6E
:10831000030F1EBF0021002030BD5FEA545C05D171
:108320004000494128BF41F0004130BD14F58004B0
:108330003CBF01F5801130BD01F0004545F0FE4124
:1083400041F470014FF0000030BD7FEA645C1ABF59
:10835000194610467FEA655C1CBF0B46024650EA90
:10836000013406BF52EA033591EA030F41F40021BC
:1083700030BD00BF90F0000F04BF0021704730B542
:108380004FF4806404F132044FF000054FF0000117
:1083900050E700BF90F0000F04BF0021704730B5D8
:1083A0004FF4806404F1320410F0004548BF4042AD
:1083B0004FF000013EE700BF42004FEAE2014FEA02
:1083C00031014FEA02701FBF12F07F4393F07F4FDD
:1083D00081F06051704732F07F4208BF704793F0E0
:1083E0007F4F04BF41F40021704730B54FF46074F3
:1083F00001F0004521F000411CE700BF50EA0102F6
:1084000008BF704730B54FF000050AE050EA01029E
:1084100008BF704730B511F0004502D5404261EB0E
:1084200041014FF4806404F132045FEA915C3FF44F
:10843000D8AE4FF003025FEADC0C18BF03325FEAEC
:10844000DC0C18BF033202EBDC02C2F1200300FA9D
:1084500003FC20FA02F001FA03FE40EA0E0021FAC2
:1084600002F11444BDE600BF70B54FF0FF0C4CF4B0
:10847000E06C1CEA11541DBF1CEA135594EA0C0F62
:1084800095EA0C0F00F0DEF82C4481EA030621EA9D
:108490004C5123EA4C5350EA013518BF52EA0335D8
:1084A00041F4801143F4801338D0A0FB02CE4FF08A
:1084B0000005E1FB02E506F00042E0FB03E54FF0BA
:1084C0000006E1FB03569CF0000F18BF4EF0010EB2
:1084D000A4F1FF04B6F5007F64F5407404D25FEAAE
:1084E0004E0E6D4146EB060642EAC62141EA555161
:1084F0004FEAC52040EA5E504FEACE2EB4F1FD0CA3
:1085000088BFBCF5E06F1ED8BEF1004F08BF5FEA20
:10851000500E50F1000041EB045170BD06F00046D2
:1085200046EA010140EA020081EA0301B4EB5C047F
:10853000C2BFD4EB0C0541EA045170BD41F4801177
:108540004FF0000E013C00F3AB8014F1360FDEBF9C
:10855000002001F0004170BDC4F10004203C35DA78
:108560000C341BDC04F11404C4F1200500FA05F3FB
:1085700020FA04F001FA05F240EA020001F000429C
:1085800021F0004110EBD37021FA04F642EB060112
:108590005EEA430E08BF20EAD37070BDC4F10C043C
:1085A000C4F1200500FA04F320FA05F001FA04F200
:1085B00040EA020001F0004110EBD37041F10001EC
:1085C0005EEA430E08BF20EAD37070BDC4F12005F7
:1085D00000FA05F24EEA020E20FA04F301FA05F25F
:1085E00043EA020321FA04F001F0004121FA04F207
:1085F00020EA020000EBD3705EEA430E08BF20EAD7
:10860000D37070BD94F0000F0FD101F00046400010
:1086100041EB010111F4801F08BF013CF7D041EA92
:10862000060195F0000F18BF704703F00046520096
:1086300043EB030313F4801F08BF013DF7D043EA67
:108640000603704794EA0C0F0CEA135518BF95EA1D
:108650000C0F0CD050EA410618BF52EA4306D1D1A4
:1086600081EA030101F000414FF0000070BD50EAC3
:10867000410606BF1046194652EA430619D094EA4D
:108680000C0F02D150EA013613D195EA0C0F05D137
:1086900052EA03361CBF104619460AD181EA03018B
:1086A00001F0004141F0FE4141F470014FF0000043
:1086B00070BD41F0FE4141F4780170BD70B54FF0DE
:1086C000FF0C4CF4E06C1CEA11541DBF1CEA13555E
:1086D00094EA0C0F95EA0C0F00F0A7F8A4EB050440
:1086E00081EA030E52EA03354FEA013100F0888037
:1086F0004FEA03334FF0805545EA131343EA126300
:108700004FEA022245EA111545EA10654FEA0026B4
:108710000EF000419D4208BF964244F1FD0404F56D
:10872000407402D25B084FEA3202B61A65EB0305C9
:108730005B084FEA32024FF480104FF4002CB6EB86
:10874000020E75EB030E22BFB61A754640EA0C0006
:108750005B084FEA3202B6EB020E75EB030E22BF46
:10876000B61A754640EA5C005B084FEA3202B6EB87
:10877000020E75EB030E22BFB61A754640EA9C0046
:108780005B084FEA3202B6EB020E75EB030E22BF16
:10879000B61A754640EADC0055EA060E18D04FEAD4
:1087A000051545EA16754FEA06164FEAC30343EA74
:1087B00052734FEAC2025FEA1C1CC0D111F4801F41
:1087C0000BD141EA00014FF000004FF0004CB6E73A
:1087D00011F4801F04BF01430020B4F1FD0C88BFD9
:1087E000BCF5E06F3FF6AFAEB5EB030C04BFB6EBE4
:1087F000020C5FEA500C50F1000041EB045170BDD7
:108800000EF0004E4EEA113114EB5C04C2BFD4EB03
:108810000C0541EA045170BD41F480114FF0000E87
:10882000013C90E645EA060E8DE60CEA135594EA03
:108830000C0F08BF95EA0C0F3FF43BAF94EA0C0F06
:108840000AD150EA01347FF434AF95EA0C0F7FF47B
:1088500025AF104619462CE795EA0C0F06D152EACF
:1088600003353FF4FDAE1046194622E750EA4106B3
:1088700018BF52EA43067FF4C5AE50EA41047FF4C4
:108880000DAF52EA43057FF4EBAE12E74FF0FF3C29
:1088900006E000BF4FF0010C02E000BF4FF0010CFA
:1088A0004DF804CD4FEA410C7FEA6C5C4FEA430C73
:1088B00018BF7FEA6C5C1BD001B050EA410C0CBFC2
:1088C00052EA430C91EA030F02BF90EA020F002024
:1088D000704710F1000F91EA030F58BF994208BF8B
:1088E00090422CBFD8176FEAE37040F00100704748
:1088F0004FEA410C7FEA6C5C02D150EA013C07D19F
:108900004FEA430C7FEA6C5CD6D152EA033CD3D0E9
:108910005DF8040B704700BF8446104662468C46E3
:108920001946634600E000BF01B5FFF7B7FF002816
:1089300048BF10F1000F01BD4DF808EDFFF7F4FF3F
:108940000CBF012000205DF808FB00BF4DF808EDCA
:10895000FFF7EAFF34BF012000205DF808FB00BFED
:108960004DF808EDFFF7E0FF94BF012000205DF80F
:1089700008FB00BF4DF808EDFFF7CEFF94BF0120C4
:1089800000205DF808FB00BF4DF808EDFFF7C4FFBD
:1089900034BF012000205DF808FB00BF4FEA410C06
:1089A0007FEA6C5C02D150EA013C0AD14FEA430CE9
:1089B0007FEA6C5C02D152EA033C02D14FF0000026
:1089C00070474FF0010070474FEA410212F5001264
:1089D00015D211D56FF47873B3EB625212D94FEA06
:1089E000C12343F0004343EA505311F0004F23FAF0
:1089F00002F018BF404270474FF00000704750EA45
:108A0000013005D111F0004008BF6FF00040704701
:108A10004FF00000704700BF4A0011D212F500125B
:108A200011D20DD56FF47873B3EB62520ED44FEAC6
:108A3000C12343F0004343EA505323FA02F0704746
:108A40004FF00000704750EA013002D14FF0FF3084
:108A500070474FF0000070474FEA4102B2F1E04327
:108A600024BFB3F5001CDCF1FE5C0DD901F0004C15
:108A70004FEAC0024CEA5070B2F1004F40EB830065
:108A800008BF20F00100704711F0804F21D113F191
:108A90003872BCBF01F00040704741F480114FEACA
:108AA0005252C2F11802C2F1200C10FA0CF320FA53
:108AB00002F018BF40F001004FEAC1234FEAD32370
:108AC00003FA0CFC40EA0C0023FA02F34FEA4303DA
:108AD000CCE77FEA625307D150EA01331EBF4FF063
:108AE000FE4040F44000704701F0004040F0FE407E
:108AF00040F40000704700BF53B94AB9002908BFCD
:108B000000281CBF4FF0FF314FF0FF3000F072B96A
:108B1000ADF1080C6DE904CE00F006F8DDF804E0D4
:108B2000DDE9022304B070472DE9F047089E0446B2
:108B30008846002B4BD18A42154667D9B2FA82F299
:108B40004AB1C2F1200701FA02F320FA07F7954073
:108B500047EA030894404FEA154E230CB8FBFEF792
:108B60001FFA85FC0EFB178843EA084307FB0CF14C
:108B7000994209D9EB1807F1FF3080F01B81994227
:108B800040F21881023F2B445B1AA4B2B3FBFEF003
:108B90000EFB103344EA034400FB0CFCA44509D946
:108BA0002C1900F1FF3380F00781A44540F20481C5
:108BB00002382C4440EA0740A4EB0C0400271EB105
:108BC000D4400023C6E900433946BDE8F0878B4214
:108BD00009D9002E00F0EB800027C6E900013846D5
:108BE0003946BDE8F087B3FA83F7002F47D18B42AF
:108BF00002D3824200F2FA80841A61EB030301205F
:108C00009846002EE0D0C6E90048DDE702B9FFDE55
:108C1000B2FA82F2002A40F08F80491B4FEA154ECB
:108C20001FFA85F80127B1FBFEFC230C0EFB1C117B
:108C300043EA014308FB0CF1994207D9EB180CF108
:108C4000FF3002D2994200F2CD808446591AA3B275
:108C5000B1FBFEF00EFB101443EA044408FB00F8DD
:108C6000A04507D92C1900F1FF3302D2A04500F22C
:108C7000B6801846A4EB080440EA0C409FE7C7F111
:108C8000200CBB4022FA0CFE4EEA030E01FA07F458
:108C900020FA0CF521FA0CF34FEA1E482543B3FBEA
:108CA000F8F92C0C08FB19331FFA8EFA44EA034337
:108CB00009FB0AF49C4202FA07F200FA07F10BD909
:108CC0001EEB030309F1FF3080F087809C4240F2E5
:108CD0008480A9F1020973441B1BADB2B3FBF8F009
:108CE00008FB103345EA034400FB0AFAA24508D901
:108CF0001EEB040400F1FF336BD2A24569D90238A0
:108D0000744440EA0940A0FB0289A4EB0A044C45E4
:108D1000C2464B4654D351D0002E69D0B1EB0A0560
:108D200064EB030404FA0CFCFD40FC404CEA05052E
:108D3000C6E90054002747E7C2F1200320FA03F7F1
:108D4000954001FA02F021FA03F34FEA154E384339
:108D5000010CB3FBFEF71FFA85F80EFB173341EA4F
:108D6000034107FB08F38B4204FA02F407D96918A0
:108D700007F1FF3C2FD28B422DD9023F2944CB1A59
:108D800081B2B3FBFEF00EFB103341EA034100FB5E
:108D900008F38B4207D9691800F1FF3C17D28B42C8
:108DA00015D902382944C91A40EA07473BE7374634
:108DB000304609E70746E7E61846FBE64145ABD2F1
:108DC000B8EB020A69EB0E0201381346A4E76046CD
:108DD000E9E7184695E76746D1E781467CE7023820
:108DE0002C4447E7ACF1020C2B442FE7384608E748
:108DF0003746E9E6704700BF80B400AF0B4B002256
:108E00001A700A4B00225A70084B0022DA70074B86
:108E100000229A70054B04221A71044B01225A71E8
:108E200000BFBD465DF8047B704700BF0000002016
:108E300080B400AF9A4BDB78032B00F22B8101A2A8
:108E400052F823F0558E0008E58E0008758F000853
:108E500005900008924B1B781846914B5B78194699
:108E6000904A03010B4412F81330C3F38103DBB2C1
:108E7000012B11D18A4B1B781846894B5B78194618
:108E8000884A03010B4412F81330C3F38113DBB299
:108E9000012B01D10123FEE0814B1B781846804B4A
:108EA0005B7819467F4A03010B4412F81330C3F371
:108EB0008103DBB2012B01D10323ECE0784B1B785B
:108EC0001846774B5B781946764A03010B4412F833
:108ED0001330C3F38113DBB2012B01D10223DAE09B
:108EE0000623D8E06E4B1B7818466D4B5B7819460D
:108EF0006C4A03010B4412F81330C3F30103DBB2D5
:108F0000012B11D1664B1B781846654B5B781946CF
:108F1000644A03010B4412F81330C3F30113DBB2AC
:108F2000012B01D10123B6E05D4B1B7818465C4B49
:108F30005B7819465B4A03010B4412F81330C3F304
:108F40000103DBB2012B01D10223A4E0544B1B78B7
:108F50001846534B5B781946524A03010B4412F8EA
:108F60001330C3F30113DBB2012B01D1032392E0D1
:108F7000062390E04A4B1B781846494B5B7819460C
:108F8000484A03010B4412F81330C3F38103DBB2E8
:108F9000012B11D1424B1B781846414B5B78194687
:108FA000404A03010B4412F81330C3F38113DBB2C0
:108FB000012B01D101236EE0394B1B781846384B49
:108FC0005B781946374A03010B4412F81330C3F398
:108FD0008103DBB2012B01D102235CE0304B1B7813
:108FE00018462F4B5B7819462E4A03010B4412F8A2
:108FF0001330C3F38113DBB2012B01D103234AE009
:10900000062348E0264B1B781846254B5B7819460B
:10901000244A03010B4412F81330C3F30103DBB2FB
:10902000012B11D11E4B1B7818461D4B5B7819463E
:109030001C4A03010B4412F81330C3F30113DBB2D3
:10904000012B01D1012326E0154B1B781846144B48
:109050005B781946134A03010B4412F81330C3F32B
:109060000103DBB2012B01D1032314E00C4B1B786D
:1090700018460B4B5B7819460A4A03010B4412F859
:109080001330C3F30113DBB2012B01D1022302E041
:10909000062300E006231846BD465DF8047B7047B2
:1090A00000000020B408002080B400AF114B9B7872
:1090B000022B12D0032B09D0012B00D014E00D4B52
:1090C000DB780133DAB20B4BDA700DE0094BDB7859
:1090D000013BDAB2074BDA7006E0064BDB7802336D
:1090E000DAB2044BDA7000BF00BFBD465DF8047B06
:1090F000704700BF0000002080B400AF034B002287
:109100005A7100BFBD465DF8047B70470000002027
:1091100080B400AF034B01225A7100BFBD465DF819
:10912000047B70470000002080B582B000AFFFF7DD
:109130007FFE78600021022003F09AFE00210320C8
:1091400003F096FE0021012003F092FE0021002092
:1091500003F08EFE7C4B9B78002B3FD17A4B1B7922
:10916000052B00F2EC8001A252F823F08591000853
:109170003F9300083F9300083F9300083F93000887
:109180008F9100080121002003F072FED8E07B6877
:10919000062B1DD06D4BD3ED007AF5EE407AF1EE43
:1091A00010FA15D1684B5B79002B08D10121786842
:1091B00003F05EFE0021002003F05AFE0DE00021C6
:1091C000786803F055FE0121002003F051FE04E011
:1091D0000121002003F04CFEB2E0B1E05A4B9B7835
:1091E000032B40D1584B1B79022B08D1584B4FF021
:1091F00000021A60574B4FF000021A60A0E0524B79
:109200001B79012B1DD17B68062B15D04E4B5B794A
:10921000002B08D10121786803F02AFE00210020EC
:1092200003F026FE8CE00021786803F021FE012186
:10923000002003F01DFE83E00121002003F018FE52
:109240007EE0414B1B79002B04D10121002003F06B
:109250000FFE75E03C4B1B79032B71D100210020E0
:1092600003F006FE6CE0384B9B78012B40D1364B67
:109270001B79022B08D1364B4FF000021A60354B98
:109280004FF000021A605BE02F4B1B79012B1DD1C0
:109290007B68062B15D02C4B5B79002B08D1012164
:1092A000786803F0E5FD0021002003F0E1FD47E0D0
:1092B0000021786803F0DCFD0121002003F0D8FDD7
:1092C0003EE00121002003F0D3FD39E01E4B1B7965
:1092D000002B04D10121002003F0CAFD30E01A4B1D
:1092E0001B79032B2CD10021002003F0C1FD27E0C6
:1092F000154B9B78022B23D1134B1B79012B15D1D6
:10930000114B5B79002B08D10121786803F0B0FD87
:109310000021002003F0ACFD12E00021786803F08A
:10932000A7FD0121002003F0A3FD09E0064B1B79F6
:10933000002B05D10121002003F09AFD00E000BFC1
:1093400000BF0837BD4680BD000000200C0400208F
:10935000100400202C04002080B500AF174B04221D
:109360001A71FFF7E1FE164B4FF000029A60154BA1
:109370004FF000021A60144B4FF000021A60134BBA
:109380004FF000021A60124BD3ED007A9FED117A74
:10939000F4EEC77AF1EE10FA02DD0F480DF058FB3B
:1093A0000B4BD3ED027AF5EE407AF1EE10FADAD1FA
:1093B000C82006F065FF00BF80BD00BF0000002090
:1093C0000004002030040020100400202C040020A1
:1093D000440400200000FA4318AD0108000000001A
:1093E00090B587B000AF87ED010AC7ED000A4A4B80
:1093F0004FF000021A604FF000037B613B687B6115
:109400007868FEF7D9FF42A3D3E90023FFF72CF8D1
:1094100003460C46184621464FF000023F4BFFF72B
:109420004DF903460C4618462146FFF715FB034647
:109430003B6107F1080300221A605A60384B1B6831
:10944000BB60D7ED007AF5EEC07AF1EE10FA29DDB7
:10945000334BD3ED007A97ED047A77EE277AC7ED98
:10946000047A3B69FB6012E0D7ED057A9FED2D7A17
:1094700027EE877AD7ED057A67EE276AD7ED017A6E
:1094800037EEA77AC6EE877A274BC3ED007A244BD6
:10949000D3ED007A97ED047AB4EEE77AF1EE10FAA4
:1094A000E2DC2DE0D7ED007AF5EEC07AF1EE10FAAD
:1094B00026D51B4B93ED007AD7ED047A77EE677AC9
:1094C000C7ED047A12E0D7ED057A9FED187A27EE02
:1094D000877AD7ED057A67EE276AD7ED017A37EEFE
:1094E000A77AC6EE877A104BC3ED007A0C4BD3ED0A
:1094F000007A97ED047AB4EEE77AF1EE10FAE2D44E
:10950000094B4FF000021A6000BF1C37BD4690BDEA
:10951000182D4454FB2109401004002000806640AF
:10952000600200206F12833D2C0400206F1283BD67
:1095300090B585B000AF87ED010AC7ED000A7868E5
:10954000FEF73AFF31A3D3E90023FEF78DFF034670
:109550000C46184621464FF00002294BFFF7AEF8A3
:1095600003460C4618462146FFF776FA0346FB6091
:10957000D7ED007AF5EEC07AF1EE10FA18DD214B46
:10958000D3ED007A97ED037A77EE277AC7ED037A69
:1095900003E01D4B4FF000021A601A4BD3ED007A26
:1095A00097ED037AB4EEE77AF1EE10FAF1DC1EE003
:1095B000D7ED007AF5EEC07AF1EE10FA17D5114B1F
:1095C00093ED007AD7ED037A77EE677AC7ED037AE9
:1095D00003E00D4B4FF000021A600A4BD3ED007A06
:1095E00097ED037AB4EEE77AF1EE10FAF1D4064B78
:1095F0004FF000021A6000BF1437BD4690BD00BF97
:1096000000806640600200202C040020182D445485
:10961000FB2109400000000090B585B000AF87ED48
:10962000010AC7ED000A4FF00003FB603B68FB60D6
:109630007868FEF7C1FE56A3D3E90023FEF714FFB6
:1096400003460C46184621464FF00002484BFFF7F0
:1096500035F803460C4618462146FFF7FDF9034648
:10966000BB60D7ED007AF5EEC07AF1EE10FA33DD8B
:10967000404BD3ED007A97ED027A77EE277AC7ED6B
:10968000027A1EE0D7ED037A9FED3B7A27EE877AC8
:10969000D7ED037A67EE276AD7ED017A37EEA77A1E
:1096A000C6EE877A9FED357A67EE877A344BC3ED45
:1096B000007A344BD3ED007AF5EEC07AF1EE10FA71
:1096C00045D92C4BD3ED007A97ED027AB4EEE77AC8
:1096D000F1EE10FAD6DC3DE0D7ED007AF5EEC07A77
:1096E000F1EE10FA36D5234B93ED007AD7ED027ADE
:1096F00077EE677AC7ED027A1EE0D7ED037A9FED29
:109700001E7A27EE877AD7ED037A67EE276AD7EDC0
:10971000017A37EEA77AC6EE877A9FED1B7A67EE5D
:10972000877A174BC3ED007A164BD3ED007AF5EE2E
:10973000C07AF1EE10FA0CDA0E4BD3ED007A97ED09
:10974000027AB4EEE77AF1EE10FAD6D402E000BF66
:1097500000E000BF0A4B4FF000021A600B4B4FF0C5
:1097600000021A6000BF1437BD4690BDAFF3008001
:1097700000806640600200206F12833A000080C2C1
:109780002C0400205C020020000080421004002015
:10979000182D4454FB21094090B585B000AF87EDEA
:1097A000010AC7ED000A4A4B03221A71FFF7B0FC09
:1097B000FFF7BAFCD7ED017AB3EE0E7A67EE877A3F
:1097C0009FED447AC7EE876AD7ED000AB0EE660ACD
:1097D000FFF706FED7ED017AB3EE0E7A67EE877AD1
:1097E0009FED3C7AC7EE876AD7ED000AB0EE660AB5
:1097F000FFF79EFED7ED017AB3EE0E7A67EE877A19
:109800009FED347AC7EE876AD7ED000AB0EE660A9C
:10981000FFF702FFFFF7A0FDFFF786FCD7ED017A07
:109820009FED2D7AC7EE876A16EE900AFEF7C4FD0B
:1098300025A3D3E90023FEF717FE03460C4618467E
:109840002146FFF7C1F80346FB60D7ED007AF5EE3D
:10985000C07AF1EE10FA13D5204B1A68FB68D90FC5
:109860000B445B105B4213441C4A13601B4B5A6849
:10987000FB68D90F0B445B101344184A536019E07E
:10988000D7ED007AF5EEC07AF1EE10FA12DD134B47
:109890001A68FB68D90F0B445B1013440F4A13601E
:1098A0000E4B5A68FB68D90F0B445B105B421344A4
:1098B0000A4A5360094B9B68084A9360FFF7F4FB20
:1098C00000BF1437BD4690BD957A76CE3678FD4000
:1098D000000000200000B4420000B44368040020EF
:1098E000B0B58AB000AF904B02221A71FFF71CFC92
:1098F0008E4B1B687B628E4B1B683B628C4B5B689C
:10990000FB618B4B9B68BB61894BDB681846FEF79C
:1099100053FD81A3D3E90023FEF7A6FD03460C46C1
:10992000184621464FF00002824BFEF7C7FE034661
:109930000C4618462146FFF78FF803467B617C4BA7
:109940001B691846FEF738FD73A3D3E90023FEF721
:109950008BFD03460C46184621464FF00002754B1E
:10996000FEF7ACFE03460C4618462146FFF774F896
:1099700003463B616E4B5B691846FEF71DFD66A30F
:10998000D3E90023FEF770FD03460C461846214636
:109990004FF00002674BFEF791FE03460C46184657
:1099A0002146FFF759F80346FB60634B1B68BB6019
:1099B000624B1A68614B5B6813447B600AE0604B42
:1099C0004FF000021A605F4B4FF000021A605E4ACF
:1099D0007B6A93607868FEF7DDFC04460D46D7EDA0
:1099E000087A77EEA77A17EE900AFEF7E5FC4CA30B
:1099F000D3E90023FEF762FE02460B4620462946C5
:109A0000FEF77CFB03460C4625461C464B4B1A686A
:109A10004A4B5B6813441846FEF7BCFC02460B46F3
:109A200020462946FEF7B0FF0346002BC7D1424B24
:109A30001B68BB60454B1B683B6005E0414ABB6946
:109A40001360414A7B6A936097ED007AD7ED057AFF
:109A500037EE277A3D4BD3ED007AB4EEE77AF1EE9C
:109A600010FAEBDC374B4FF000021A60324B1B68E8
:109A7000BB6006E0324B1B68314A1360324A7B6A96
:109A8000936097ED007AD7ED047A37EE277A2F4B63
:109A9000D3ED007AB4EEE77AF1EE10FAEADC264B69
:109AA0001B68BB6016E0D7ED067AF1EE677A254BAE
:109AB000C3ED007A224BD3ED007AF5EEC07AF1EED9
:109AC00010FA04D51E4B4FF000021A6010E01E4A37
:109AD0007B6A936097ED007AD7ED037A37EE277AA9
:109AE0001A4BD3ED007AB4EEE77AF1EE10FADADC35
:109AF000144B4FF000021A60114B4FF000021A6035
:109B0000134B1B68134A13600C4B1A680B4B5B68B2
:109B100013447B6035E000BF182D4454FB210940FD
:109B2000A163A98FD223503F0000002084060020AB
:109B300050040020008066405C02002038040020B1
:109B4000100400202C0400200004002060020020EB
:109B5000B40A0020B80A0020334B4FF000021A600C
:109B6000324A7B6A9360324B1B68002B09D102F0AA
:109B700003F801220721002002F070F92C4B01228A
:109B80001A607868FEF706FC04460D46D7ED077AA2
:109B900077EEA77A17EE900AFEF70EFC1EA3D3E924
:109BA0000023FEF78BFD02460B4620462946FEF7B2
:109BB000A5FA03460C4625461C461E4B1A681D4B4B
:109BC0005B6813441846FEF7E5FB02460B46204649
:109BD0002946FEF7D9FE0346002BBDD1164B1B6864
:109BE0001846FEF7E9FB0EA3D3E90023FEF786FA39
:109BF00003460C4618462146FEF72EFF02460E4B42
:109C00001A600C4B9B680D4A936000BF2837BD4615
:109C1000B0BD00BFAFF30080A163A98FD223503F36
:109C2000182D4454FB21F93F1004002000040020AB
:109C3000B80A002038040020340400206804002002
:109C4000B0B58AB000AF8C4B02221A71FFF76CFAE4
:109C50008A4B1B687B628A4B1B683B62884B5B6844
:109C6000FB61874BD3ED027AF1EE677AC7ED067A96
:109C7000834BDB681846FEF79FFB7BA3D3E90023E9
:109C8000FEF7F2FB03460C46184621464FF0000251
:109C90007C4BFEF713FD03460C4618462146FEF7A3
:109CA000DBFE03467B61764B1B691846FEF784FB9F
:109CB0006DA3D3E90023FEF7D7FB03460C461846F5
:109CC00021464FF000026F4BFEF7F8FC03460C46AE
:109CD00018462146FEF7C0FE03463B61684B5B69B0
:109CE0001846FEF769FB60A3D3E90023FEF7BCFB2F
:109CF00003460C46184621464FF00002614BFEF722
:109D0000DDFC03460C4618462146FEF7A5FE034639
:109D1000FB605D4B1A685C4B5B681344BB600AE0F8
:109D20005A4B4FF000021A60594B4FF000021A6074
:109D3000584A7B6A9360B868FEF72CFB04460D46D0
:109D4000D7ED087A77EEA77A17EE900AFEF734FB84
:109D500047A3D3E90023FEF7B1FC02460B46204699
:109D60002946FEF7CBF903460C4625461C46464BD2
:109D70001A68454B5B6813441846FEF70BFB024616
:109D80000B4620462946FEF7FFFD0346002BC7D1B0
:109D9000414B1B687B6005E03D4ABB6913603D4A4F
:109DA0007B6A936097ED017AD7ED057A37EE677A93
:109DB000394BD3ED007AB4EEE77AF1EE10FAEBD43A
:109DC000334B4FF000021A6006E0304B1B682F4AFD
:109DD0001360304A7B6A936097ED017AD7ED047A7D
:109DE00037EE677A2C4BD3ED007AB4EEE77AF1EEDA
:109DF00010FAEAD416E0D7ED067AF1EE677A244B32
:109E0000C3ED007A214BD3ED007AF5EEC07AF1EE86
:109E100010FA04DD1D4B4FF000021A6010E01D4ADD
:109E20007B6A936097ED017AD7ED037A37EE677A14
:109E3000194BD3ED007AB4EEE77AF1EE10FADAD4EA
:109E4000134B4FF000021A60104B4FF000021A60E3
:109E5000124B1B68124A13600B4B1A680A4B5B6863
:109E60001344BB6033E000BF182D4454FB2109406C
:109E7000A163A98FD223503F000000208406002058
:109E800050040020008066403804002010040020A8
:109E90002C0400200004002060020020B40A0020EE
:109EA000B80A0020324B4FF000021A60314A7B6A38
:109EB0009360314B1B68002B09D101F05DFE01223C
:109EC0000721002001F0CAFF2B4B01221A60B8685D
:109ED000FEF760FA04460D46D7ED077A77EEA77ACB
:109EE00017EE900AFEF768FA1DA3D3E90023FEF7E8
:109EF000E5FB02460B4620462946FEF7FFF80346DF
:109F00000C4625461C461D4B1A681C4B5B681344C7
:109F10001846FEF73FFA02460B4620462946FEF752
:109F200033FD0346002BBDD1154B1B681846FEF7C9
:109F300043FA0DA3D3E90023FEF7DEF803460C46EF
:109F400018462146FEF788FD02460D4B1A600B4B62
:109F50009B680C4A936000BF2837BD46B0BD00BF68
:109F6000A163A98FD223503F182D4454FB21F93F00
:109F70001004002000040020B80A0020380400204B
:109F80003404002068040020B0B584B000AF87ED31
:109F9000010AC7ED000A564B00221A71FFF7C4F8F8
:109FA000544B4FF000021A604FF00003FB60524B1D
:109FB000D3ED027A97ED007A77EE677AC7ED037AF0
:109FC000D7ED037A9FED4D7A27EE877AD7ED037AA6
:109FD00067EE276AD7ED017A37EEA77AC6EE877A61
:109FE000474BC3ED007AFFF793F8D7ED017A77EE90
:109FF000A77A17EE900AFEF7DFF939A3D3E9002319
:10A00000FEF75CFB03460C4618462146FEF7DCFCD7
:10A010000346BB603B4B1B683B4A136035E03B4B40
:10A020009B681846FEF7B6F904460D46B868FEF779
:10A03000B1F92DA3D3E90023FEF716FA02460B4629
:10A0400020462946FEF75AF803460C4625461C468C
:10A050002F4B9B681846FEF79DF902460B4620469B
:10A060002946FEF773FC0346002B00D10DE0264B7A
:10A070001B68002B09D101F07FFD01220721002080
:10A0800001F0ECFE204B01221A60204B9A68BB685D
:10A090001A441F4B9B689A42C1DC194B4FF00002D7
:10A0A0001A601A4B9A68BB681344184A9360174B9E
:10A0B0001A68BB68D90F0B445B101344134A136032
:10A0C000124B5A68BB68D90F0B445B1013440F4AFC
:10A0D000536000BF1037BD46B0BD00BFAFF3008076
:10A0E000A163A98FD223503F9A9999999999E93FF1
:10A0F0000000002010040020440400206F12833A66
:10A1000030040020B40A0020B80A002068040020AF
:10A110003804002000000000B0B584B000AF87ED27
:10A12000010AC7ED000A604B01221A714FF00003CB
:10A13000FB605E4B93ED027AD7ED007A77EE677A9B
:10A14000C7ED037AD7ED037A9FED597A27EE877A28
:10A15000D7ED037A67EE276AD7ED017A37EEA77A53
:10A16000C6EE877AF1EE677A524BC3ED007AFEF7BE
:10A17000C3FFFEF7D9FFD7ED017A77EEA77A17EE86
:10A18000900AFEF719F944A3D3E90023FEF796FAE3
:10A1900003460C4618462146FEF716FC0346BB60F4
:10A1A00052E0454BD3ED027AF5EEC07AF1EE10FAAB
:10A1B00010D8414B4FF000029A603E4B4FF0000226
:10A1C0001A603E4B4FF000021A603D4B4FF0000208
:10A1D0001A6041E03B4B9B681846FEF7DBF80446EB
:10A1E0000D46B868FEF7D6F82DA3D3E90023FEF795
:10A1F0003BF902460B4620462946FDF77FFF034602
:10A200000C4625461C46304B9B681846FEF7C2F8A4
:10A2100002460B4620462946FEF798FB0346002BD4
:10A2200000D111E0FEF774FF0021022002F020FEB1
:10A230000021032002F01CFE0021012002F018FE84
:10A240000121002002F014FE1E4B9A68BB681A44DC
:10A250001D4B9B689A42A4DCFFF77EF8194B9A6865
:10A26000BB681344174A9360164B1A68BB68D90F32
:10A270000B445B101344134A1360124B5A68BB68BB
:10A28000D90F0B445B1013440E4A536000BF1037C4
:10A29000BD46B0BDAFF30080A163A98FD223503F6C
:10A2A000CDCCCCCCCCCCE43F00000020440400203A
:10A2B0006F12833A300400200004002010040020B4
:10A2C0002C04002068040020380400200000000056
:10A2D00090B585B000AF78607B685B001846FEF7EC
:10A2E00059F82BA3D3E90023FEF7E8F903460C46FF
:10A2F00018462146FEF768FB0346FB60FB68002B0F
:10A3000015DD06E01C4B4FF000021A601B4B1C4A87
:10A310009A601C4B9A68FB681A441B4B9B689A42D4
:10A32000F0DC184B9A68FB681344164A9360FB688C
:10A33000002B15DA06E0104B4FF000021A600F4BAD
:10A34000124A9A600F4B9A68FB681A440E4B9B683E
:10A350009A42F0DB0B4B9A68FB681344094A9360FE
:10A36000064B4FF000029A60034B4FF000021A6058
:10A3700000BF1437BD4690BD30040020000400200B
:10A3800000008C4268040020380400200000C8C28D
:10A39000A163A98FD223503F80B500AF064B0622A0
:10A3A0001A716FF03100FFF793FF4FF4FA7005F068
:10A3B00067FF00BF80BD00BF0000002080B582B0F5
:10A3C00000AF0021022002F053FD0021032002F023
:10A3D0004FFD0021012002F04BFD0021002002F082
:10A3E00047FDFEF725FD78600121786802F040FD09
:10A3F0005D4BDB7803F00303032B00F29C8001A28A
:10A4000052F823F015A400085FA40008A7A40008D0
:10A41000EFA40008544B1B781846534B5B78194641
:10A42000524A03010B4412F81330C3F30103DBB2A9
:10A43000012B00F082804C4B1B7818464A4B5B780E
:10A4400019464A4A03010B4412F81330C3F30113AF
:10A45000DBB2012B71D1FFF79FFF454B7CE0424BF4
:10A460001B781846404B5B781946404A03010B4461
:10A4700012F81330C3F38103DBB2012B5FD03A4BE8
:10A480001B781846384B5B781946384A03010B4451
:10A4900012F81330C3F38113DBB2012B4FD1FFF756
:10A4A0007BFF334B58E0304B1B7818462E4B5B78C4
:10A4B00019462E4A03010B4412F81330C3F301135B
:10A4C000DBB2012B3DD0284B1B781846264B5B781E
:10A4D0001946264A03010B4412F81330C3F3010353
:10A4E000DBB2012B2DD1FFF757FF214B34E01E4B80
:10A4F0001B7818461C4B5B7819461C4A03010B4419
:10A5000012F81330C3F38113DBB2012B13D0164BB7
:10A510001B781846144B5B781946144A03010B4408
:10A5200012F81330C3F38103DBB2012B03D1FFF721
:10A5300033FF0F4B10E000BF04E000BF02E000BF9C
:10A5400000E000BF0B4A7B682C2101FB03F313449E
:10A55000283300221A60084B07EE903AB0EE670AE3
:10A560000837BD4680BD00BF00000020B4080020B1
:10A570000000764264020020000034420000000027
:10A58000B0B586B000AF87ED030AC7ED020A87EDCC
:10A59000011AD7ED037A77EEA77A17EE900AFDF746
:10A5A0000BFF77A3D3E90023FEF788F803460C4698
:10A5B00018462146FEF708FA03467B61D7ED017A7B
:10A5C000F5EE407AF1EE10FA22D0FEF7A1FDFEF78B
:10A5D000ABFDD7ED037AB0EE007AC7EE876A97ED50
:10A5E000027AD7ED017A77EE277AF0EE670AB0EEBD
:10A5F000660AFFF7C9FC00BF5B4B9A687B69D90FFD
:10A600000B445B101A44594B9B689A42F4DC82E07D
:10A61000574B05221A71FEF76FFDFEF785FD554B6E
:10A620001B68554A13606EE04F4B9B681846FDF758
:10A63000B1FE04460D467869FDF7ACFE46A3D3E9AA
:10A640000023FDF711FF02460B4620462946FDF781
:10A6500055FD03460C4625461C46444B9B68184650
:10A66000FDF798FE02460B4620462946FEF76EF996
:10A670000346002B11D0FEF74BFD0021022002F013
:10A68000F7FB0021032002F0F3FB0021012002F080
:10A69000EFFB0121002002F0EBFB334B9B681846D7
:10A6A000FDF778FE04460D467869FDF773FE2CA38E
:10A6B000D3E90023FDF7D8FE02460B462046294683
:10A6C000FDF71CFD03460C4625461C46274B9B68A0
:10A6D0001846FDF75FFE02460B4620462946FEF768
:10A6E00035F90346002B00D10DE0234B1B68002BEE
:10A6F00009D101F041FA01220721002001F0AEFB4F
:10A700001D4B01221A60184B9A687B691A44174B3B
:10A710009B689A4288DC194B4FF000021A60124B7A
:10A720009A687B691344104A93600F4B1A687B69DF
:10A73000D90F0B445B1013440B4A13600A4B5A6841
:10A740007B69D90F0B445B101344074A536000BF69
:10A750001837BD46B0BD00BF9A9999999999D93FCC
:10A760009A9999999999E93F680400203804002042
:10A7700000000020B40A0020B80A002030040020A5
:10A78000A163A98FD223503F90B585B000AF034697
:10A79000FB71FB79532B36D0542B00D036E0DFED24
:10A7A000200A9FED200AFFF7B7FCDFED1F0A9FED9F
:10A7B0001F0AFEF7F1FF1E4B1B681846FDF7FCFD54
:10A7C00015A3D3E90023FDF799FC03460C46184670
:10A7D0002146FEF741F90246154B1A60FFF7EEFDE0
:10A7E00087ED030AFA2005F04BFD0121002002F05D
:10A7F0003FFB104BD3ED007AF0EE670A97ED030AAA
:10A80000FFF7C2FB02E0FFF76BF800BF00BF143791
:10A81000BD4690BDAFF30080182D4454FB21F93F95
:10A820000000000000003442DB0FC9400000B442C9
:10A83000340400208406002090B585B000AF0346A4
:10A84000FB71FB79532B36D0542B00D036E0DFED73
:10A85000200A9FED200AFFF75FFCDFED1F0A9FED46
:10A860001F0AFEF799FF1E4B1B681846FDF7A4FD53
:10A8700015A3D3E90023FDF73FFC03460C46184619
:10A880002146FEF7E9F80246154B1A60FA2005F05A
:10A89000F7FCFFF793FD87ED030A0121002002F08A
:10A8A000E7FA104BD3ED007AF0EE670A97ED030A52
:10A8B000FFF76AFB02E0FFF7C3F900BF00BF1437E0
:10A8C000BD4690BDAFF30080182D4454FB21F93FE5
:10A8D0000000000000003442DB0FC9C00000B44299
:10A8E000340400208406002090B583B000AFDFED73
:10A8F0001C0A9FED1C0AFFF70FFCDFED1B0A9FED02
:10A900001B0AFEF749FFFFF759FD87ED010A184BB7
:10A910001B681846FDF750FD0FA3D3E90023FDF790
:10A92000EDFB03460C4618462146FEF795F8024615
:10A930000F4B1A60C82005F0A3FC0E4BD3ED007A34
:10A94000F0EE670A97ED010AFFF71EFB00BF0C3718
:10A95000BD4690BDAFF30080182D4454FB21094043
:10A960000000000000003442DB0FC9400000344307
:10A97000340400208406002080B582B000AF034676
:10A98000FB711B4B9B7803F00303032B2AD801A216
:10A9900052F823F0A5A90008CBA90008DFA90008F8
:10A9A000D5A90008134B4FF000021A60124BD3EDEB
:10A9B000007A104B93ED007AB0EE471AF0EE670A7A
:10A9C0009FED0E0AFFF7DCFD0DE0FB791846FFF75F
:10A9D000DBFE08E0FB791846FFF72EFF03E0FFF7E8
:10A9E00083FF00E000BF00BF0837BD4680BD00BF49
:10A9F000000000200C040020840600200000B44267
:10AA000080B483B000AF786039607B683A681A60C0
:10AA100000BF0C37BD465DF8047B704780B487B03B
:10AA200000AFF860B9607A60BB687B612C4A7B68D4
:10AA300052F823207B69D31A002BB8BF5B423B61DD
:10AA400027497B687A6941F82320264A7B6852F8B7
:10AA500023203B691A4423497B6841F82320224A7A
:10AA60007B6852F823305A1C1F497B6841F8232029
:10AA70001D4A7B6852F82330FA689A4221D1194A5C
:10AA80007B6852F8233007EE903AF8EEE76A164AF0
:10AA90007B6852F8233007EE903AB8EEE77AC6EEBC
:10AAA000877A124A7B689B001344C3ED007A0D4AF3
:10AAB0007B68002142F823100B4A7B68002142F892
:10AAC00023100A4A7B689B0013441B6807EE903AE8
:10AAD000B0EE670A1C37BD465DF8047B704700BFC7
:10AAE000140200202402002034020020440200202E
:10AAF00080B487B000AFF86087ED020AC7ED010AA5
:10AB000087ED001A4FF000037B61FB6807EE903A77
:10AB1000B8EEE77AD7ED027A27EE277AD7ED017AF9
:10AB200067EE276A97ED007AC6EE877AC7ED057A59
:10AB30007B6907EE903AB0EE670A1C37BD465DF8B8
:10AB4000047B704780B485B000AF78603960012322
:10AB5000FB600023BB6007E0FB687A6802FB03F33D
:10AB6000FB60BB680133BB60BA683B689A42F3DBA9
:10AB7000FB6818461437BD465DF8047B704780B407
:10AB80008BB000AF87ED030AC7ED020A87ED011A0B
:10AB90003860D7ED036A97ED017AC6EE877AC7ED84
:10ABA000077AD7ED026A97ED017AC6EE877AC7ED8C
:10ABB000067AB7EE007AD7ED067A77EE676A3B68D9
:10ABC00007EE903AB8EEE77AC6EE877AC7ED057AD7
:10ABD00000237B6200233B6218E03B6A07EE903A59
:10ABE000B8EEE77AD7ED057A27EE277AD7ED067A21
:10ABF00077EE277A97ED077AB4EEE77AF1EE10FA5E
:10AC000001DB3B6A7B623B6A01333B623A6A3B6829
:10AC10009A42E2DB7B6A18462C37BD465DF8047B1E
:10AC20007047000080B500AF074B1B689B68002190
:10AC300018460BF02DFF044B1B685B68002118467B
:10AC40000BF026FF00BF80BD2800002080B592B029
:10AC500000AF2C4B1B687B643B464022002118460A
:10AC60000BF03BF8284BD3F8B0303B60264BD3F8C1
:10AC7000B4307B60244BD3F8B830BB60224B1B68E8
:10AC8000FB60214B5B683B611F4B9B687B611E4BEC
:10AC90009B6DBB611C4BDB6DFB611B4B1B6E3B62F9
:10ACA000194BD3F884307B62174BD3F88830BB62E2
:10ACB000154BD3F88C30FB62134BDB6A3B63124BB2
:10ACC0001B6B7B63104B5B6BBB6300233B6412E02D
:10ACD0003B6C9B0007F148021344483BD3ED007ADC
:10ACE000B0EE670A786C04F037FE7B6C04337B644B
:10ACF0003B6C01333B643B6C0E2BE9DD00BF4837F6
:10AD0000BD4680BD18B001086402002090B595B022
:10AD100000AF594B1B68FB643B464022002118469C
:10AD20000AF0DBFF002387F84B3000237B6438E018
:10AD30003A467B6C9B0013441946F86C04F036FECF
:10AD4000FB6C0433FB647B6C9B0007F150021344E3
:10AD5000503B1B681846FDF72FFB03460C461A466E
:10AD60002346796C45480BF0FFFD7B6C9B0007F197
:10AD700050021344503BD3ED007AF4EE677AF1EEC3
:10AD800010FA6CBF01230023DBB23B643B6C002B49
:10AD900004D097F84B30013387F84B307B6C01338C
:10ADA0007B647B6C0E2BC3DD97F84B30194634481F
:10ADB0000BF0DAFD97F84B300F2B59D0D7ED007A16
:10ADC00097ED017AD7ED026AB0EE661AF0EE470A07
:10ADD000B0EE670A042002F01FF8D7ED007A97ED75
:10ADE000017AD7ED026AB0EE661AF0EE470AB0EECD
:10ADF000670A052002F010F8D7ED037A97ED047A80
:10AE0000D7ED056AB0EE661AF0EE470AB0EE670AB3
:10AE1000002002F001F8D7ED067A97ED077AD7ED1A
:10AE2000086AB0EE661AF0EE470AB0EE670A022032
:10AE300001F0F2FFD7ED097A97ED0A7AD7ED0B6AA8
:10AE4000B0EE661AF0EE470AB0EE670A032001F092
:10AE5000E3FFD7ED0C7A97ED0D7AD7ED0E6AB0EEE1
:10AE6000661AF0EE470AB0EE670A012001F0D4FF3F
:10AE700000BF5437BD4690BD18B001082CAD010885
:10AE800038AD01082DE9B04386B004AFAF4808F0F3
:10AE900002F9AF4808F0FFF805F07EF804F096FFDD
:10AEA000C82005F0EDF93023FB713023BB71A948B0
:10AEB0000BF0CEFDA84BD3F8B0301846FDF77CFA66
:10AEC00080468946A44BD3F8B4301846FDF774FA8F
:10AED00004460D46A04BD3F8B8301846FDF76CFA7F
:10AEE00002460B46CDE90223CDE9004542464B46DA
:10AEF0009A480BF039FD984B1B681846FDF75CFA31
:10AF000080468946944B5B681846FDF755FA04461F
:10AF10000D46914B9B681846FDF74EFA02460B46CC
:10AF2000CDE90223CDE9004542464B468C480BF063
:10AF30001BFD894B9B6D1846FDF73EFA80468946FE
:10AF4000854BDB6D1846FDF737FA04460D46824BFC
:10AF50001B6E1846FDF730FA02460B46CDE9022378
:10AF6000CDE9004542464B467E480BF0FDFC7A4B4E
:10AF7000D3F884301846FDF71FFA80468946764B91
:10AF8000D3F888301846FDF717FA04460D46724B81
:10AF9000D3F88C301846FDF70FFA02460B46CDE980
:10AFA0000223CDE9004542464B466F480BF0DCFCDE
:10AFB000694BDB6A1846FDF7FFF980468946664B08
:10AFC0001B6B1846FDF7F8F904460D46624B5B6BA8
:10AFD0001846FDF7F1F902460B46CDE90223CDE90B
:10AFE000004542464B4661480BF0BEFCFFF71AFE97
:10AFF0005F480BF0B9FCFB1D19465E480BF030FDB5
:10B00000FB79302B00F0F480FFF70CFE5A480BF070
:10B01000ABFCBB1D194657480BF022FDFB791946C6
:10B02000BB791A4655480BF09FFCFFF7FBFD5448CF
:10B030000BF09AFCFB79313B042B00F2C18001A29A
:10B0400052F823F059B000088BB00008BDB00008DA
:10B05000EDB000081DB10008BB79702B04D149493F
:10B0600049480BF0FDFCAFE0BB79692B04D147499F
:10B0700045480BF0F5FCA7E0BB79642B40F0A480B9
:10B08000434941480BF0ECFC9EE0BB79702B04D1A6
:10B0900031493D480BF0E4FC98E0BB79692B04D1C1
:10B0A0003C4939480BF0DCFC90E0BB79642B40F064
:10B0B0008D80394934480BF0D3FC87E0BB79702B85
:10B0C00004D1364930480BF0CBFC81E0BB79692BC9
:10B0D00004D133492C480BF0C3FC79E0BB79642BD5
:10B0E00076D1304928480BF0BBFC71E0BB79702B5E
:10B0F00004D12D4924480BF0B3FC6BE0BB79692BDC
:10B1000004D12A4920480BF0ABFC63E0BB79642BE7
:10B1100060D127491C480BF0A3FC5BE0BB79702B86
:10B1200004D1244918480BF09BFC55E0BB79692BEE
:10B1300004D1214914480BF093FC4DE0BB79642BFA
:10B140004AD11E4910480BF08BFC45E0440D00200D
:10B15000BC0A002040AD01086402002058AD01087F
:10B1600078AD010894AD0108B0AD0108CCAD01087F
:10B17000E8AD010800AE010804AE010818AE0108F0
:10B180003CAE01081403002050AE01081803002053
:10B190001C030020680200206C020020BC0200207A
:10B1A000C0020020C4020020E8020020EC020020BF
:10B1B000F00200209002002094020020980200205B
:10B1C00016480BF045FC08E000BF06E000BF04E0B5
:10B1D00000BF02E000BF00E000BFFFF723FD7B1DC2
:10B1E00019460F480BF03CFC0E480BF031FC5EE6B4
:10B1F00000BF0D480BF02CFC04F02BFCFFF726FDE4
:10B20000072004F0F1FDC82005F03AF8002004F012
:10B21000EBFD00BF0837BD46BDE8B08354AE010862
:10B2200000AE010868AE01086CAE01080000000025
:10B23000B0B586B000AF9E4B5B6AC3F5EA432F33CF
:10B240001A469C4B1A609A4B47F22F525A629A4BFD
:10B250005B6AC3F5EA432F331A46964B5A60964B06
:10B2600047F22F525A62934B1B6807EE903AF8EE62
:10B27000E77A9FED927A67EE877A914BC3ED007A79
:10B280008C4B5B6807EE903AF8EEE77A9FED8B7A8D
:10B2900067EE877A8A4BC3ED017A894B93ED007A8A
:10B2A000874BD3ED017A77EE277AB6EE007A67EE18
:10B2B000877A834BC3ED027A824B1A687D4B1B68F9
:10B2C0001344804A13607F4B5A687A4B5B6813447F
:10B2D0007C4A53607B4B1A687A4B5B681344794A0B
:10B2E00093603821372004F009FCF0EE407A764B69
:10B2F000C3ED007A744B93ED007A744BD3ED007A72
:10B3000077EE677A9FED727A67EE877AC7ED057AF6
:10B310007869FDF751F860A3D3E90023FDF7A4F89D
:10B3200003460C4625461C466A4B1B681846FDF72B
:10B3300043F85BA3D3E90023FDF796F802460B46DA
:10B3400020462946FCF7DAFE03460C4618462146FD
:10B35000FDF782FB034607EE903AF1EE677A5E4B0B
:10B36000C3ED007A5B4A7B6913605B4BD3ED007AD7
:10B370009FED5A7A27EE877A594BD3ED007A77EE14
:10B38000277A574BC3ED007A00233B610023FB6013
:10B390000023BB6000237B60524B9B78002B04D0C2
:10B3A000504B1B79062B40F0D5804F4B9B6A012BED
:10B3B00016D14E4BD3ED007A494B93ED007AF0EE67
:10B3C000470AB0EE670A002001F0A6FD78607B68AE
:10B3D00007EE903AF8EEE77A454BC3ED007AB9E014
:10B3E000414B5B6D012B2AD1424BD3ED026A414B9D
:10B3F00093ED017A404BD3ED007A77EE277AF0EEA9
:10B40000670AB0EE660A012001F086FD38613B69EB
:10B4100007EE903AF8EEE77A17EE900AFCF7CCFFC9
:10B4200021A3D3E90023FDF71FF803460C46184675
:10B430002146FDF711FB02462D4B1A608AE02A4B8C
:10B44000D3F88030012B5BD12A4BD3ED027A2B4B02
:10B4500093ED027AF0EE470AB0EE670A022001F09F
:10B460005BFDF860FB6807EE903AF8EEE77A17EEBE
:10B47000900AFCF7A1FF0CA3D3E90023FCF7F4FF2B
:10B4800003460C4618462146FDF7E6FA0246184BDD
:10B490001A605FE0AFF300807B14AE47E17A843F2F
:10B4A000AE47E17A14AEEF3FFCA9F1D24D62503FB6
:10B4B00000040040A808002000080040B92F7C3F8D
:10B4C0004404002038040020E4030020E0030020AE
:10B4D000787D8B3A540200205C0200206F12833A80
:10B4E00060020020000000206402002034040020DC
:10B4F0001004002074040020240400209006002082
:10B50000494BD3F8AC30012B24D1484BD3ED017A11
:10B51000474B93ED017AF0EE470AB0EE670A03203D
:10B5200001F0FAFCB860BB6807EE903AF8EEE77AF3
:10B5300017EE900AFCF740FF39A3D3E90023FCF78C
:10B5400093FF03460C4618462146FDF785FA02464E
:10B55000384B1A60384B93ED027A384BD3ED007AB2
:10B5600077EE277A344BC3ED027A324B93ED007AB3
:10B57000334BD3ED007A77EE277A2E4BC3ED007A6A
:10B580002D4B93ED027A2B4BD3ED007ADFED2D6A34
:10B5900067EEA67AF6EE006A67EEA67A77EE677A2D
:10B5A000254BC3ED017A234BD3ED007A9FED257A2D
:10B5B00027EE877A204BD3ED017A77EE277A1E4B60
:10B5C000C3ED007A1C4BD3ED007A1F4B93ED007A4C
:10B5D000F0EE470AB0EE670A042001F09DFC024637
:10B5E0001A4B1A60144BD3ED017A174B93ED017A85
:10B5F000F0EE470AB0EE670A052001F08DFC024626
:10B60000134B1A60114B1A68114B1B6819461046F0
:10B6100004F0DEFC00BF1837BD46B0BDAFF30080BC
:10B62000FCA9F1D24D62503F640200209006002038
:10B6300074040020100400200004002030040020C6
:10B640002C0400206666174244040020880600206F
:10B65000A406002000000000B0B582B000AF8A4B05
:10B660005B6AC3F5EA432F331A46884B1A60864B50
:10B6700047F22F525A62864B5B6AC3F5EA432F3377
:10B680001A46824B5A60824B47F22F525A627F4BC6
:10B690001B6807EE903AF8EEE77A9FED7E7A67EE48
:10B6A000877A7D4BC3ED007A784B5B6807EE903A62
:10B6B000F8EEE77A9FED777A67EE877A764BC3EDFF
:10B6C000017A754B93ED007A734BD3ED017A77EEE7
:10B6D000277AB6EE007A67EE877A6F4BC3ED027A6F
:10B6E0006E4B1A68694B1B6813446C4A13606B4BB2
:10B6F0005A68664B5B681344684A5360674B1A6824
:10B70000664B5B681344654A93603821372004F028
:10B71000F5F9F0EE407A624BC3ED007A604B93EDA1
:10B72000007A604BD3ED007A77EE677A9FED5E7A10
:10B7300067EE877AC7ED017A7868FCF73DFE4EA385
:10B74000D3E90023FCF790FE03460C4625461C4631
:10B75000564B1B681846FCF72FFE49A3D3E900237C
:10B76000FCF782FE02460B4620462946FCF7C6FC43
:10B7700003460C4618462146FDF76EF9034607EED0
:10B78000903AF1EE677A4A4BC3ED007A474A7B68FC
:10B790001360474BD3ED007A9FED467A27EE877A08
:10B7A000454BD3ED007A77EE277A434BC3ED007A11
:10B7B000424B93ED027A424BD3ED007A77EE277A33
:10B7C0003E4BC3ED027A3F4B93ED007A3E4BD3EDF7
:10B7D000007A77EE277A3B4BC3ED007A374B93ED37
:10B7E000027A384BD3ED007ADFED386A67EEA67A3D
:10B7F000F6EE006A67EEA67A77EE677A2F4BC3ED16
:10B80000017A304BD3ED007A9FED307A27EE877ABC
:10B810002A4BD3ED017A77EE277A284BC3ED007AD5
:10B82000264BD3ED007A1C4B93ED007AF0EE470ADD
:10B83000B0EE670A042001F06FFB0246244B1A6049
:10B840001E4BD3ED017A144B93ED017AF0EE470ACB
:10B85000B0EE670A052001F05FFB02461D4B1A603F
:10B860001B4B1A681B4B1B681946104604F0B0FBB3
:10B8700000BF0837BD46B0BD7B14AE47E17A843FB8
:10B88000AE47E17A14AEEF3F00040040A808002064
:10B8900000080040B92F7C3F4404002038040020F9
:10B8A000E4030020E0030020787D8B3A580200205A
:10B8B0005C0200206F12833A600200200004002026
:10B8C00030040020100400202C040020666617427B
:10B8D00088060020A406002080B582B000AF786002
:10B8E0007B68244A93420CD1234B1B68002B02D067
:10B8F000012B03D006E0FFF79BFC03E0FFF7ACFE53
:10B9000000E000BF7B681D4A93422FD11C4B1B688F
:10B91000002219460A20FFF781F8F0EE407A194B11
:10B92000C3ED007A164B5B68012219460A20FFF727
:10B9300075F8F0EE407A134BC3ED017A124B1B6899
:10B94000022219460A20FFF769F8F0EE407A0D4B03
:10B95000C3ED027A0C4B5B68032219460A20FFF7FD
:10B960005DF8F0EE407A074BC3ED037A00BF08376D
:10B97000BD4680BD440D0020F4030020BC0A002019
:10B98000CC03002074040020D803002080B584B0CC
:10B9900000AF2C4B1B68FB600023BB604BE0002317
:10B9A0007B6042E028497B681A01BB68134411F8A8
:10B9B0001330C3F30103DBB21946F86803F07AFFD2
:10B9C000FB68181D20497B681A01BB68134411F8F5
:10B9D0001330C3F38103DBB2194603F06BFFFB683E
:10B9E00003F1080018497B681A01BB68134411F879
:10B9F0001330C3F30113DBB2194603F05BFFFB689E
:10BA000003F10C0010497B681A01BB68134411F85C
:10BA10001330C3F38113DBB2194603F04BFFFB680D
:10BA20001033FB607B6801337B607B680F2BB9DDD3
:10BA3000BB680133BB60BB680F2BB0DD00BF1037A4
:10BA4000BD4680BD14B00108B408002080B485B0A4
:10BA500000AF0023FB603BE00023BB6032E04549C0
:10BA6000FB681A01BB681A4411F81230022060F317
:10BA7000010301F812303F49FB681A01BB681A4400
:10BA800011F81230022060F3830301F812303949B3
:10BA9000FB681A01BB681A4411F81230022060F3E7
:10BAA000051301F812303349FB681A01BB681A44C8
:10BAB00011F81230022060F3871301F81230BB68CE
:10BAC0000133BB60BB680F2BC9DDFB680133FB6032
:10BAD000FB680F2BC0DD00237B602AE0254A7B68D2
:10BAE0005B01134403F11E021378012161F301038A
:10BAF000137020497B6803F1F00211F81230012025
:10BB000060F3830301F812301A4A7B685B011A4420
:10BB10001378012161F30513137016497A6811F83F
:10BB20001230012060F3871301F812307B68013373
:10BB30007B607B680F2BD1DD0E4A1378012161F306
:10BB4000830313700B4A13786FF301031370094AD0
:10BB500092F82030012161F3871382F82030054AE2
:10BB600093786FF30513937000BF1437BD465DF8EB
:10BB7000047B7047B408002090B482B000AF8B4BB8
:10BB800093ED007A894BD3ED037A37EE277AF0EE06
:10BB9000006AC7EE267A9FED867AF4EEC77AF1EE58
:10BBA00010FACCBF01230023DAB2824B5B7A07F193
:10BBB00008010B4403F8042C7C4BD3ED017A9FED74
:10BBC0007E7AF4EEC77AF1EE10FACCBF012300239F
:10BBD000D9B2784B5B7A01335A4203F0030302F087
:10BBE000030258BF53420A4607F108010B4403F809
:10BBF000042C704B5B7A02335A4203F0030302F0C9
:10BC0000030258BF534207F108021344002203F80D
:10BC1000042C664BD3ED027A9FED687AF4EEC77A76
:10BC2000F1EE10FACCBF01230023D9B2614B5B7A4D
:10BC300003335A4203F0030302F0030258BF534296
:10BC40000A4607F108010B4403F8042C3979594BD3
:10BC50009B791C46574BDB791A460B4603F00303CE
:10BC6000D8B2574923011A4411F8123060F3010386
:10BC700001F8123079794F4B9B791C464D4BDB799B
:10BC80001A460B4603F00303D8B24D4923011A4468
:10BC900011F8123060F3830301F81230B979454B83
:10BCA0009B791C46434BDB791A460B4603F0030392
:10BCB000D8B2434923011A4411F8123060F3051336
:10BCC00001F81230F9793B4B9B791C46394BDB79F3
:10BCD0001A460B4603F00303D8B2394923011A442C
:10BCE00011F8123060F3871301F81230314BDB7911
:10BCF0000E2B12D839792F4B9B791A462D4BDB79B5
:10BD0000013301F00301C8B22D4912011A4411F8A0
:10BD1000123060F3051301F81230264B9B790E2B7D
:10BD200011D87979234B9B790133224AD27901F0DA
:10BD30000301C8B222491B011A4411F8123060F302
:10BD4000871301F812301B4BDB79002B12D0B97925
:10BD5000184B9B791A46174BDB79013B01F0030125
:10BD6000C8B2174912011A4411F8123060F30103E6
:10BD700001F812300F4B9B79002B11D0F9790D4B44
:10BD80009B79013B0B4AD27901F00301C8B20C49FF
:10BD90001B011A4411F8123060F3830301F81230CA
:10BDA00000BF0837BD4690BC704700BF7404002038
:10BDB00000008C42000000200000B4420000C84295
:10BDC000B408002080B485B000AF786039600023EB
:10BDD000FB6013E00023BB600AE01F49FB681A0107
:10BDE000BB681344FF2221F81320BB680133BB60FA
:10BDF000BB680F2BF1DDFB680133FB60FB680F2B89
:10BE0000E8DD15497B681A013B681344002221F8DC
:10BE100013203B68013310497A6812011344002251
:10BE200021F813207B6801330B491A013B68134446
:10BE3000002221F813207B685A1C3B680133064915
:10BE400012011344002221F8132000BF1437BD460D
:10BE50005DF8047B704700BF8404002080B588B083
:10BE600000AFF860B9607A60B968F868FFF7AAFFB8
:10BE70000023FB750023FB61D8E00023BB61CEE00B
:10BE80007049FB691A01BB69134431F81330FF2B69
:10BE900000F0C180BB690E2B2CDC6B49FB691A01D9
:10BEA000BB69134411F81330C3F30103DBB21A4624
:10BEB0007B681340002B1DD1BB6901336149FA69CE
:10BEC0001201134431F81330FF2B13D15D49FB6984
:10BED0001A01BB69134431F81320BB6901330132E5
:10BEE00090B25849FA6912011344024621F813200E
:10BEF0000123FB75FB690E2B2CDC5349FB691A01EE
:10BF0000BB69134411F81330C3F38103DBB21A4643
:10BF10007B681340002B1DD1FB69013349491A018D
:10BF2000BB69134431F81330FF2B13D14549FB692A
:10BF30001A01BB69134431F81320FB690133013244
:10BF400090B240491A01BB691344024621F81320FC
:10BF50000123FB75BB69002B2CDD3B49FB691A01F2
:10BF6000BB69134411F81330C3F30113DBB21A4653
:10BF70007B681340002B1DD1BB69013B3149FA6935
:10BF80001201134431F81330FF2B13D12D49FB69F3
:10BF90001A01BB69134431F81320BB69013B01321C
:10BFA00090B22849FA6912011344024621F813207D
:10BFB0000123FB75FB69002B2EDD2349FB691A0168
:10BFC000BB69134411F81330C3F38113DBB21A4673
:10BFD0007B681340002B1FD1FB69013B19491A01F3
:10BFE000BB69134431F81330FF2B15D11549FB6998
:10BFF0001A01BB69134431F81320FB69013B01327C
:10C0000090B210491A01BB691344024621F813206B
:10C010000123FB7500E000BFBB690133BB61BB6955
:10C020000F2B7FF72DAFFB690133FB61FB690F2BF2
:10C030007FF723AFFB7D002B7FF41AAF00BF2037C3
:10C04000BD4680BD84040020B4080020B0B584B093
:10C0500002AF0F237B6040E000233B6034E02549C2
:10C060003B681A017B68134411F81330C3F30103D2
:10C07000DBB218461F493B681A017B68134411F86C
:10C080001330C3F38103DBB21C461A493B681A0123
:10C090007B68134411F81330C3F30113DBB21D4660
:10C0A00014493B681A017B68134411F81330C3F339
:10C0B0008113DBB200932B46224601460E480AF05C
:10C0C00053FC3B6801333B603B680F2BC7DD0B48DB
:10C0D0000AF0BEFC7B68013B7B607B68002BBBDA0F
:10C0E00006480AF0B5FC05480AF0B2FC00BF083764
:10C0F000BD46B0BDB408002090AE01087CAE01087A
:10C1000080B588B000AF3E4B1B68FB610023BB616C
:10C110006FE000237B6166E03B1D00221A605A60DD
:10C120009A60DA603B1D1946F86903F0EBFBFB6986
:10C130001A1D3B1D04331946104603F0E3FBFB694F
:10C1400003F108023B1D08331946104603F0DAFBE1
:10C15000FB6903F10C023B1D0C331946104603F03A
:10C16000D1FB7B6803F00303D8B226497B691A012F
:10C17000BB691A4411F8123060F3010301F8123060
:10C18000BB6803F00303D8B21E497B691A01BB697F
:10C190001A4411F8123060F3830301F81230FB687F
:10C1A00003F00303D8B217497B691A01BB691A442B
:10C1B00011F8123060F3051301F812303B6903F0F7
:10C1C0000303D8B20F497B691A01BB691A4411F8FD
:10C1D000123060F3871301F81230FB691033FB61F2
:10C1E0007B6901337B617B690F2B95DDBB69013373
:10C1F000BB61BB690F2B8CDD00BF2037BD4680BD06
:10C2000014B00108B408002090B583B000AF03F06B
:10C21000A9FE03F0ADFD03F0CBFD03F0CBFA03F074
:10C22000FBFC0346FB71FB79194649480AF09CFB6D
:10C2300003F0F2FC0346FB71FB79194644480AF00F
:10C2400093FB642004F01CF83821372003F056FCDF
:10C25000F0EE407A3F4BC3ED007A3E4B1B68184628
:10C26000FCF7AAF803460C461A4623463A480AF059
:10C270007BFB0021042000F0FBFD0021052000F0E5
:10C28000F7FD0021022000F0F3FD0021032000F063
:10C29000EFFD0021012000F0EBFD0021002000F067
:10C2A000E7FDFEF733FD47F22F512C48FEF7A8FBC0
:10C2B00047F22F512A48FEF7A3FB2A4806F0C7FE93
:10C2C000294806F0C4FE294B4FF000029A60284B23
:10C2D0004FF000021A60274B4FF000021A60264B05
:10C2E0004FF000021A60254B00221A60234B0022F7
:10C2F0005A60224B00229A6003F0B8FC204B9B68E6
:10C30000204A93601E4B5B681E4A53601D4B93EDA1
:10C31000027A1C4BD3ED017A77EE677A1A4BC3EDA4
:10C32000007A042000F0BAFD052000F0B7FD0020DF
:10C3300000F0B4FD022000F0B1FD032000F0AEFDDE
:10C34000012000F0ABFD00BF0C37BD4690BD00BF23
:10C35000A0AE0108E4030020BCAE010824040040A4
:10C3600024080040440D0020BC0A002000040020E6
:10C3700010040020300400202C0400203804002089
:10C3800074040020900600202404002080B582B0B0
:10C3900000AF03F0E7FD03F0EBFC03F009FD03F051
:10C3A00009FA03F039FC0346FB71FB79194638485A
:10C3B0000AF0DAFA0021042000F05AFD00210520DD
:10C3C00000F056FD0021022000F052FD0021032064
:10C3D00000F04EFD0021012000F04AFD0021002068
:10C3E00000F046FDFEF792FC47F22F512948FEF778
:10C3F00007FB47F22F512848FEF702FB274806F0BB
:10C4000026FE274806F023FE264B4FF000029A60D6
:10C41000254B4FF000021A60244B4FF000021A60C7
:10C42000234B4FF000021A60224B00221A60214B6E
:10C4300000225A601F4B00229A6003F017FC1E4B2B
:10C440009B681E4A93601C4B5B681C4A53601B4BE5
:10C4500093ED027A194BD3ED017A77EE677A184B98
:10C46000C3ED007A042000F019FD052000F016FD50
:10C47000002000F013FD022000F010FD032000F06A
:10C480000DFD012000F00AFD00BF0837BD4680BD4C
:10C49000A0AE01082404004024080040440D002000
:10C4A000BC0A0020000400201004002030040020FA
:10C4B0002C04002038040020740400209006002082
:10C4C0002404002090B5A1B000AFFFF79DFEFCF75B
:10C4D00093FCFFF7BBFA4D4B00225A604B4B0022F6
:10C4E0001A604A4B00229A600121042000F0C0FC2F
:10C4F0000121052000F0BCFC444B9968434B1A68AD
:10C50000424B5B6842480AF02FFA0021012000F0FC
:10C51000AFFC0021022000F0ABFC0021032000F062
:10C52000A7FC0021002000F0A3FC3A4B4FF00002D2
:10C530001A60032003F058FC364B4FF000021A60DB
:10C540000023FB6743E0072003F04EFC324B002240
:10C55000DA70314B02229A70304B1A68FB6F9B00E5
:10C5600007F180010B44803B1A60DFED2D0A9FED3F
:10C570002D0AFDF711F9FB6F0133284A12689B0061
:10C5800007F180010B44803B1A60642003F078FEC1
:10C59000FB6F0233214A12689B0007F180010B44B4
:10C5A000803B1A60002003F01FFC1B4B0022DA7056
:10C5B000194B02229A70DFED1C0A9FED1A0AFDF753
:10C5C000EBF8642003F05CFEFB6F0333FB67FB6F4B
:10C5D0001D2BB8DD0023BB6714E0BB6F9B0007F188
:10C5E00080021344803B1B681846FBF7E5FE0346B8
:10C5F0000C461A462346B96F0C480AF0B5F9BB6FD2
:10C600000133BB67BB6F1D2BE7DDE3E73804002078
:10C61000C8AE01088406002000000020600200204F
:10C62000DB0FC9400000B442DB0FC9C0FCAE0108FB
:10C6300080B500AFFEF76AFBFEF724FC00BF80BDAB
:10C6400080B500AF184B00221A60FFF7DDFDFCF744
:10C65000D3FBFFF7FBF9154B00225A60134B002266
:10C660001A60124B00229A600121042000F000FCA5
:10C670000121052000F0FCFB0021012000F0F8FB67
:10C680000021022000F0F4FB0121032000F0F0FB68
:10C69000074B4FF000021A60012003F0A5FB054B89
:10C6A000054A9A60FBE700BFF4030020380400202D
:10C6B00084060020000400200000964380B500AFEF
:10C6C000184B00221A60FFF79FFDFCF795FBFFF760
:10C6D000BDF9154B00225A60134B00221A60124B11
:10C6E00000229A600121042000F0C2FB01210520F4
:10C6F00000F0BEFB0121012000F0BAFB0021022066
:10C7000000F0B6FB0021032000F0B2FB074B4FF016
:10C7100000021A60022003F067FB054B054A9A608D
:10C72000FBE700BFF403002038040020840600204B
:10C73000000400200000964380B500AF1A4B002291
:10C740001A60FFF761FDFCF757FBFFF77FF9174B06
:10C7500000225A60154B00221A60144B00229A6086
:10C760000121042000F084FB0121052000F080FB62
:10C770000121002000F07CFB0021012000F078FB6B
:10C780000021022000F074FB0021032000F070FB68
:10C79000074B4FF000021A60052003F025FB054B04
:10C7A000054A9A60FBE700BFF4030020380400202C
:10C7B0008406002000040020000096432DE9B04FBD
:10C7C0008AB008AF414B01221A60FFF71DFD4048B7
:10C7D0000AF03EF9FCF710FBFFF738F93D480AF084
:10C7E00037F93D4B00225A603B4B00221A603A4B0E
:10C7F00000229A600121042000F03AFB012105206B
:10C8000000F036FB344B9968334B1A68324B5B6847
:10C8100032480AF0A9F80021012000F029FB00218C
:10C82000022000F025FB0021032000F021FB2C4B0F
:10C830004FF000021A60072003F0D6FA294B4FF0A0
:10C8400000029A60284B1B681846FBF7B5FDC7E944
:10C850000001264B1B681846FBF7AEFD04460D464B
:10C86000224BDB681846FBF7A7FD804689461F4B25
:10C8700093ED007A1D4BD3ED037A77EE277A17EE0E
:10C88000900AFBF799FD82468B46184B93ED007A90
:10C89000164BD3ED037A77EE277AB0EE007AC7EE27
:10C8A000876A16EE900AFBF787FD02460B46CDE934
:10C8B0000623CDE904ABCDE90289CDE90045D7E9EE
:10C8C00000230B480AF050F8B8E700BFF40300203B
:10C8D00008AF01080CAF010838040020C8AE0108F9
:10C8E0008406002000040020E403002074040020DB
:10C8F00010AF010880B582B000AF7F4B00221A60F4
:10C90000FA2003F0BDFC7D4B4FF00002DA600123FA
:10C91000BB7197F90630194679480AF025F8BB1D16
:10C920001A460221012001F06BFB97F906301846E8
:10C9300001F014FB73480AF08BF8FA2003F0A0FC16
:10C940006E4B4FF00002DA6001237B7197F90530DE
:10C9500019466B480AF008F87B1D1A46042101208D
:10C9600001F04EFB97F90530184601F0F7FA6548DB
:10C970000AF06EF801F056FCFFF708FDFCF73CFAF0
:10C98000FFF764F8604B00225A605F4B00221A6088
:10C990005D4B00229A600121042000F069FA012118
:10C9A000052000F065FA584B9968574B1A68564BAA
:10C9B0005B68564809F0D8FF0021012000F058FAC2
:10C9C0000021022000F054FA0021032000F050FA68
:10C9D00097F90630012B05D14D4B4E4A1A6054236E
:10C9E000FB7105E097F90630022B01D15323FB714F
:10C9F00097F90530013B032B62D801A252F823F0CE
:10CA000011CA00083BCA000867CA000895CA000896
:10CA1000414B4FF082421A603F4B4FF082425A60C6
:10CA20003D4B3E4A9A603C4B3D4ADA603A4B3D4AA8
:10CA30001A61394B3C4A5A6142E0354B3B4A1A6015
:10CA4000354B3B4A1A60344B394A5A60324B394AAB
:10CA50009A60314B324ADA602F4B324A1A612E4BC0
:10CA6000314A5A612CE02A4B334A1A602A4B4FF064
:10CA700081421A60284B314A5A60274B304A9A60EB
:10CA8000254B274ADA60244B264A1A61224B264A54
:10CA90005A6115E01E4B2B4A1A601F4B244A1A603C
:10CAA0001D4B234A5A601C4B274A9A601A4B1C4A5A
:10CAB000DA60194B1B4A1A61174B1B4A5A6100BFB7
:10CAC000042003F091F9FFF71BFBFB791A460721BD
:10CAD000002001F0A3F9DFED1D0A9FED1D0AFDF70F
:10CAE0001BFB072001F03AFA42F2107003F0C8FB7A
:10CAF000184809F0ADFFF7E7F403002074040020A4
:10CB000028AF010834AF010838040020C8AE01087E
:10CB1000840600200000FA43500400204260653C77
:10CB20000000F041000070420000B44200000743E2
:10CB30000000A04040A4DF3C000034430000C0409F
:10CB40003C6B373D00007043E7FBA93D000000004F
:10CB5000000034423CAF010890B585B000AF934B64
:10CB600000221A60642003F08BFB914B4FF000020F
:10CB7000DA600123FB7197F9073019468D4809F0F7
:10CB8000F3FEFB1D1A460221012001F039FA97F944
:10CB90000730184601F0E2F9874809F059FF642090
:10CBA00003F06EFB824B4FF00002DA600123BB7191
:10CBB00097F9063019467F4809F0D6FEBB1D1A4684
:10CBC0000321012001F01CFA97F90630184601F004
:10CBD000C5F9794809F03CFF01F024FBFFF714FB8D
:10CBE000764809F035FFFCF707F9754809F030FF82
:10CBF000FEF72CFF734809F02BFF734B00225A609D
:10CC0000714B00221A60704B00229A6001210420AF
:10CC100000F02EF90121052000F02AF90021012061
:10CC200000F026F90021022000F022F90021032063
:10CC300000F01EF9022003F0D7F897F90730012B16
:10CC400005D15423FB73614B614A1A6005E097F9E3
:10CC50000730022B01D15323FB7397F90630022BC7
:10CC600018D0032B2CD0012B41D15A4B4FF08242CC
:10CC70001A60584B4FF082425A60564B564A9A609F
:10CC8000544B564ADA60534B554A1A61514B554A38
:10CC90005A612CE04D4B544A1A604E4B534A1A606D
:10CCA0004C4B524A5A604B4B514A9A60494B4B4A43
:10CCB000DA60484B4A4A1A61464B4A4A5A6116E0C2
:10CCC000424B4C4A1A60434B4FF081421A60414B31
:10CCD000494A5A603F4B494A9A603E4B3F4ADA60A4
:10CCE0003C4B3F4A1A613B4B3E4A5A6100BF00230E
:10CCF000BB60434B00221A60424B00229A70414BAA
:10CD00000022DA703F4B1A783E4B9A713D4B5B78AC
:10CD10000133DAB23B4BDA713A4B00225A722B4B99
:10CD20001B681846FBF748FB03460C461A46234689
:10CD3000354809F019FE254BD3ED007AF0EE670A6D
:10CD40009FED320AFDF720F92E4B9A792D4B1A7080
:10CD50002C4BDA792B4B5A702A4B5A7A294BDA70C2
:10CD600008E0284BDB78184603F03EF8FB7B1846BA
:10CD700000F002FA234B1B78012BF2D8214B5B7891
:10CD8000062BEED91F4B5B78082BEAD8DFED200A83
:10CD90009FED200AFDF7C0F902F032FEFEF7F6FD26
:10CDA000072001F0DBF8FFF751F9FCE7F40300205E
:10CDB0007404002028AF010834AF01084CAF01080B
:10CDC00054AF01085CAF010838040020840600203D
:10CDD00000009643500400204260653C0000F04192
:10CDE000000070420000B442000007430000A04071
:10CDF00040A4DF3C000034430000C0403C6B373DA2
:10CE0000B40A00200000002064AF01080000764250
:10CE1000000000000000344280B485B000AFF8602C
:10CE200087ED020AC7ED010A87ED001A0F4AFB6879
:10CE30002C2101FB03F31344BA681A600B4AFB6808
:10CE40002C2101FB03F3134404337A681A60074A68
:10CE5000FB682C2101FB03F3134408333A681A6082
:10CE600000BF1437BD465DF8047B704764020020A4
:10CE700080B483B000AF78603960074A7B682C21AA
:10CE800001FB03F3134428333A681A6000BF0C37E0
:10CE9000BD465DF8047B70476402002080B483B017
:10CEA00000AF78601B4A7B682C2101FB03F313441D
:10CEB0000C334FF000021A60164A7B682C2101FBEC
:10CEC00003F3134410334FF000021A60114A7B68D9
:10CED0002C2101FB03F3134414334FF000021A60BA
:10CEE0000C4A7B682C2101FB03F3134418334FF0E9
:10CEF00000021A60074A7B682C2101FB03F31344EC
:10CF0000243300221A6000BF0C37BD465DF8047B55
:10CF1000704700BF6402002090B585B000AFF86094
:10CF200087ED020AC7ED010A904AFB682C2101FB3C
:10CF300003F3134428331B68002B32D18B4AFB6860
:10CF40002C2101FB03F313440C334FF000021A6051
:10CF5000864AFB682C2101FB03F3134410334FF086
:10CF600000021A60814AFB682C2101FB03F3134481
:10CF700014334FF000021A607C4AFB682C2101FB3D
:10CF800003F3134418334FF000021A60774AFB682A
:10CF90002C2101FB03F31344243300221A600023E5
:10CFA000DFE0724AFB682C2101FB03F313442033BA
:10CFB000BA681A606D4AFB682C2101FB03F3134425
:10CFC0001C337A681A60694AFB682C2101FB03F361
:10CFD0001344203393ED007A644AFB682C2101FB53
:10CFE00003F313441C33D3ED007A77EE677A5F4A7C
:10CFF000FB682C2101FB03F313440C33C3ED007ACF
:10D000005A4AFB682C2101FB03F31344103393EDC0
:10D01000007A564AFB682C2101FB03F313440C33BE
:10D02000D3ED007ADFED526A67EEA67A77EE277AC3
:10D030004E4AFB682C2101FB03F313441033C3ED6C
:10D04000007A4A4AFB682C2101FB03F313440C339A
:10D0500093ED007A454AFB682C2101FB03F313444E
:10D060001833D3ED007A77EE677A9FED427A67EE58
:10D07000877A3E4AFB682C2101FB03F313441433E7
:10D08000C3ED007A394AFB682C2101FB03F31344FA
:10D090000C331A683549FB682C2000FB03F30B4462
:10D0A00018331A60314AFB682C2101FB03F3134447
:10D0B00093ED007A2D4AFB682C2101FB03F3134406
:10D0C0000C33D3ED007A27EE277A284AFB682C210F
:10D0D00001FB03F313440433D3ED006A234AFB68D6
:10D0E0002C2101FB03F313441033D3ED007A66EED9
:10D0F000A77A37EE277A1D4AFB682C2101FB03F340
:10D1000013440833D3ED006A184AFB682C2101FB55
:10D1100003F313441433D3ED007A66EEA77A77EE67
:10D12000277A17EE900AFBF747F903460C4644ECC2
:10D13000103B08F04DF854EC103B18462146FBF725
:10D1400043FC0A4AFB682C2101FB03F313442433FC
:10D150001860064AFB682C2101FB03F313442433B7
:10D160001B6818461437BD4690BD00BF64020020FE
:10D170006F12833AFFFF794490B583B000AF034646
:10D18000FB718D4BDB78032B00F2458401A252F832
:10D1900023F000BFA5D10008C5D30008E5D50008DD
:10D1A00005D80008844B1B781846834B5B781946DA
:10D1B000824A03010B4412F81330C3F30103DBB2BC
:10D1C000002B3CD17C4B1B781A467B4B5B780133A0
:10D1D0007B491201134431F81320774B1B781C460E
:10D1E000754B5B78184676492301034431F81330B8
:10D1F0009A4224D2704B5B780E2B20D86E4B0022C3
:10D200009A706D4B1A786C4B9A716B4B5B7801334B
:10D21000DAB2694BDA71684B00225A72FB79184610
:10D22000FDF7AAFB644B5A7A634BDA70624B9A792A
:10D23000614B1A70604BDA795F4B5A70BAE05E4B03
:10D240001B7818465C4B5B7819465C4A03010B441B
:10D2500012F81330C3F38113DBB2002B3CD1564BD1
:10D260001B78013B544A52781146554A1B010B4426
:10D2700032F81320504B1B781C464F4B5B781846F6
:10D280004F492301034431F813309A4224D24A4BC8
:10D290001B78002B20D0484B03229A70464B1B78FA
:10D2A000013BDAB2444B9A71434B5A78424BDA71E4
:10D2B000414B03225A72FB791846FDF75DFB3E4B4A
:10D2C0005A7A3D4BDA703C4B9A793B4B1A703A4B89
:10D2D000DA79394B5A706DE0374B1B781846364B6C
:10D2E0005B781946354A03010B4412F81330C3F337
:10D2F0008103DBB2002B3CD12F4B1B7801332E4A2C
:10D30000527811462E4A1B010B4432F813202A4B47
:10D310001B781C46284B5B78184629492301034497
:10D3200031F813309A4224D2234B1B780E2B20D88D
:10D33000214B01229A70204B1B780133DAB21E4B2D
:10D340009A711D4B5A781C4BDA711B4B01225A7291
:10D35000FB791846FDF710FB174B5A7A164BDA701B
:10D36000154B9A79144B1A70134BDA79124B5A7089
:10D3700020E0114B02229A700F4B1A780E4B9A71D3
:10D380000D4B5B78013BDAB20B4BDA710A4B022290
:10D390005A72FB791846FDF7EFFA074B5A7A064B9B
:10D3A000DA70054B9A79044B1A70034BDA79024B09
:10D3B0005A7031E330E300BF00000020B4080020C1
:10D3C00084040020844B1B781846834B5B781946F5
:10D3D000824A03010B4412F81330C3F38103DBB21A
:10D3E000002B3CD17C4B1B7801337B4A5278114691
:10D3F0007B4A1B010B4432F81320774B1B781C46E9
:10D40000754B5B78184676492301034431F8133095
:10D410009A4224D2704B1B780E2B20D86E4B0022E0
:10D420009A706D4B1B780133DAB26B4B9A716A4B71
:10D430005A78694BDA71684B01225A72FB791846A7
:10D44000FDF79AFA644B5A7A634BDA70624B9A7919
:10D45000614B1A70604BDA795F4B5A70BAE05E4BE1
:10D460001B7818465C4B5B7819465C4A03010B44F9
:10D4700012F81330C3F30103DBB2002B3CD1564B3F
:10D480001B781A46544B5B780133554912011344FB
:10D4900031F81320504B1B781C464F4B5B781846D5
:10D4A0004F492301034431F813309A4224D24A4BA6
:10D4B0005B780E2B20D8484B03229A70464B1A7883
:10D4C000454B9A71444B5B780133DAB2424BDA71C7
:10D4D000414B00225A72FB791846FDF74DFA3E4B3C
:10D4E0005A7A3D4BDA703C4B9A793B4B1A703A4B67
:10D4F000DA79394B5A706DE0374B1B781846364B4A
:10D500005B781946354A03010B4412F81330C3F314
:10D510000113DBB2002B3CD12F4B1B781A462E4B4C
:10D520005B78013B2E491201134431F813202A4B3A
:10D530001B781C46284B5B78184629492301034475
:10D5400031F813309A4224D2234B5B78002B20D041
:10D55000214B01229A70204B1A781F4B9A711E4B57
:10D560005B78013BDAB21C4BDA711B4B02225A7218
:10D57000FB791846FDF700FA174B5A7A164BDA700A
:10D58000154B9A79144B1A70134BDA79124B5A7067
:10D5900020E0114B02229A700F4B1B78013BDAB24C
:10D5A0000D4B9A710C4B5A780B4BDA710A4B0322D4
:10D5B0005A72FB791846FDF7DFF9074B5A7A064B8A
:10D5C000DA70054B9A79044B1A70034BDA79024BE7
:10D5D0005A7021E220E200BF00000020B4080020C1
:10D5E00084040020844B1B781846834B5B781946D3
:10D5F000824A03010B4412F81330C3F30113DBB268
:10D60000002B3CD17C4B1B781A467B4B5B78013B53
:10D610007B491201134431F81320774B1B781C46C9
:10D62000754B5B78184676492301034431F8133073
:10D630009A4224D2704B5B78002B20D06E4B002294
:10D640009A706D4B1A786C4B9A716B4B5B78013BFF
:10D65000DAB2694BDA71684B02225A72FB791846CA
:10D66000FDF78AF9644B5A7A634BDA70624B9A7908
:10D67000614B1A70604BDA795F4B5A70BAE05E4BBF
:10D680001B7818465C4B5B7819465C4A03010B44D7
:10D6900012F81330C3F38103DBB2002B3CD1564B9D
:10D6A0001B780133544A52781146554A1B010B44EA
:10D6B00032F81320504B1B781C464F4B5B781846B2
:10D6C0004F492301034431F813309A4224D24A4B84
:10D6D0001B780E2B20D8484B03229A70464B1B78A0
:10D6E0000133DAB2444B9A71434B5A78424BDA71A8
:10D6F000414B01225A72FB791846FDF73DF93E4B2A
:10D700005A7A3D4BDA703C4B9A793B4B1A703A4B44
:10D71000DA79394B5A706DE0374B1B781846364B27
:10D720005B781946354A03010B4412F81330C3F3F2
:10D730008113DBB2002B3CD12F4B1B78013B2E4ACF
:10D74000527811462E4A1B010B4432F813202A4B03
:10D750001B781C46284B5B78184629492301034453
:10D7600031F813309A4224D2234B1B78002B20D05F
:10D77000214B01229A70204B1B78013BDAB21E4BE1
:10D780009A711D4B5A781C4BDA711B4B03225A724B
:10D79000FB791846FDF7F0F8174B5A7A164BDA70FA
:10D7A000154B9A79144B1A70134BDA79124B5A7045
:10D7B00020E0114B02229A700F4B1A780E4B9A718F
:10D7C0000D4B5B780133DAB20B4BDA710A4B002256
:10D7D0005A72FB791846FDF7CFF8074B5A7A064B79
:10D7E000DA70054B9A79044B1A70034BDA79024BC5
:10D7F0005A7011E110E100BF00000020B4080020C1
:10D8000084040020864B1B781846854B5B781946AC
:10D81000844A03010B4412F81330C3F38113DBB2C3
:10D82000002B3CD17E4B1B78013B7D4A5278114640
:10D830007D4A1B010B4432F81320794B1B781C46A0
:10D84000774B5B78184678492301034431F813304D
:10D850009A4224D2724B1B78002B20D0704B0022AE
:10D860009A706F4B1B78013BDAB26D4B9A716C4B1F
:10D870005A786B4BDA716A4B03225A72FB7918465D
:10D88000FDF77AF8664B5A7A654BDA70644B9A79F1
:10D89000634B1A70624BDA79614B5A70BAE0604B95
:10D8A0001B7818465E4B5B7819465E4A03010B44B1
:10D8B00012F81330C3F30113DBB2002B3CD1584BE9
:10D8C0001B781A46564B5B78013B574912011344AB
:10D8D00031F81320524B1B781C46514B5B7818468D
:10D8E00051492301034431F813309A4224D24C4B5E
:10D8F0005B78002B20D04A4B03229A70484B1A7851
:10D90000474B9A71464B5B78013BDAB2444BDA7174
:10D91000434B02225A72FB791846FDF72DF8404B13
:10D920005A7A3F4BDA703E4B9A793D4B1A703C4B1A
:10D93000DA793B4B5A706DE0394B1B781846384BFF
:10D940005B781946374A03010B4412F81330C3F3CE
