:020000040800F2
:1000000000000220FDE0000809D700080FD7000813
:1000100015D700081BD7000821D7000800000000F2
:1000200000000000000000000000000027D70008CA
:1000300035D700080000000043D7000851D700085A
:100040004DE100084DE100084DE100084DE10008D8
:100050004DE100084DE100084DE100084DE10008C8
:100060004DE100084DE100084DE100084DE10008B8
:100070004DE100084DE100084DE100084DE10008A8
:100080004DE100084DE100084DE100084DE1000898
:100090004DE100084DE100084DE100084DE1000888
:1000A0004DE100085DD700084DE100084DE1000872
:1000B0004DE100084DE100084DE100084DE1000868
:1000C0004DE100084DE100084DE100084DE1000858
:1000D0004DE100084DE100084DE100084DE1000848
:1000E0004DE100084DE100084DE100084DE1000838
:1000F00071D700084DE100084DE100084DE100080E
:100100004DE100084DE100084DE100084DE1000817
:100110004DE100084DE100084DE100084DE1000807
:1001200085D700084DE1000899D700084DE1000887
:100130004DE1000800000000000000004DE1000853
:100140004DE100084DE100084DE100084DE10008D7
:100150004DE100084DE100084DE100084DE10008C7
:100160004DE100084DE100084DE100084DE10008B7
:100170004DE100084DE10008000000000000000013
:080180004DE100084DE100080B
:1080000010B5054C237833B9044B13B10448AFF3D2
:1080100000800123237010BDF40100200000000047
:108020008082010808B5034B1BB103490348AFF335
:10803000008008BD00000000F801002080820108D7
:10804000034613F8012B002AFBD1181A0138704798
:1080500001F0FF01102A2BDB10F0070F08D010F8F9
:10806000013B013A8B422DD010F0070F42B3F6D1FD
:10807000F0B441EA012141EA014122F007047FF016
:1080800000070023F0E80256083C85EA010586EA6D
:10809000010685FA47F5A3FA87F586FA47F6A5FAA9
:1080A00087F68EB9EED1F0BC01F0FF0102F00702B5
:1080B00032B110F8013B013A83EA010313B1F8D160
:1080C0000020704701387047002D06BF3546033841
:1080D000073815F0010F07D1013015F4807F02BF7A
:1080E000013015F4C03F0130F0BC0138704700BFCB
:1080F00081F0004102E000BF83F0004330B54FEA59
:1081000041044FEA430594EA050F08BF90EA020FC5
:108110001FBF54EA000C55EA020C7FEA645C7FEA58
:10812000655C00F0E2804FEA5454D4EB5555B8BF7B
:108130006D420CDD2C4480EA020281EA030382EAEC
:10814000000083EA010180EA020281EA0303362D7E
:1081500088BF30BD11F0004F4FEA01314FF4801C51
:108160004CEA113102D0404261EB410113F0004F63
:108170004FEA03334CEA133302D0524263EB43031A
:1081800094EA050F00F0A780A4F10104D5F1200EB8
:108190000DDB02FA0EFC22FA05F2801841F1000113
:1081A00003FA0EF2801843FA05F359410EE0A5F1E7
:1081B00020050EF1200E012A03FA0EFC28BF4CF018
:1081C000020C43FA05F3C01851EBE37101F00045CE
:1081D00007D54FF0000EDCF1000C7EEB00006EEBDB
:1081E0000101B1F5801F1BD3B1F5001F0CD3490865
:1081F0005FEA30004FEA3C0C04F101044FEA4452BC
:1082000012F5800F80F09A80BCF1004F08BF5FEA42
:10821000500C50F1000041EB045141EA050130BD22
:108220005FEA4C0C404141EB010111F4801FA4F1C5
:108230000104E9D191F0000F04BF01460020B1FA1A
:1082400081F308BF2033A3F10B03B3F120020CDA52
:108250000C3208DD02F1140CC2F10C0201FA0CF030
:1082600021FA02F10CE002F11402D8BFC2F1200C95
:1082700001FA02F120FA0CFCDCBF41EA0C0190404B
:10828000E41AA2BF01EB0451294330BD6FEA040494
:108290001F3C1CDA0C340EDC04F11404C4F120027F
:1082A00020FA04F001FA02F340EA030021FA04F391
:1082B00045EA030130BDC4F10C04C4F1200220FAE8
:1082C00002F001FA04F340EA0300294630BD21FA26
:1082D00004F0294630BD94F0000F83F4801306BFEC
:1082E00081F480110134013D4EE77FEA645C18BFE0
:1082F0007FEA655C29D094EA050F08BF90EA020F77
:1083000005D054EA000C04BF1946104630BD91EA6E
:10831000030F1EBF0021002030BD5FEA545C05D171
:108320004000494128BF41F0004130BD14F58004B0
:108330003CBF01F5801130BD01F0004545F0FE4124
:1083400041F470014FF0000030BD7FEA645C1ABF59
:10835000194610467FEA655C1CBF0B46024650EA90
:10836000013406BF52EA033591EA030F41F40021BC
:1083700030BD00BF90F0000F04BF0021704730B542
:108380004FF4806404F132044FF000054FF0000117
:1083900050E700BF90F0000F04BF0021704730B5D8
:1083A0004FF4806404F1320410F0004548BF4042AD
:1083B0004FF000013EE700BF42004FEAE2014FEA02
:1083C00031014FEA02701FBF12F07F4393F07F4FDD
:1083D00081F06051704732F07F4208BF704793F0E0
:1083E0007F4F04BF41F40021704730B54FF46074F3
:1083F00001F0004521F000411CE700BF50EA0102F6
:1084000008BF704730B54FF000050AE050EA01029E
:1084100008BF704730B511F0004502D5404261EB0E
:1084200041014FF4806404F132045FEA915C3FF44F
:10843000D8AE4FF003025FEADC0C18BF03325FEAEC
:10844000DC0C18BF033202EBDC02C2F1200300FA9D
:1084500003FC20FA02F001FA03FE40EA0E0021FAC2
:1084600002F11444BDE600BF70B54FF0FF0C4CF4B0
:10847000E06C1CEA11541DBF1CEA135594EA0C0F62
:1084800095EA0C0F00F0DEF82C4481EA030621EA9D
:108490004C5123EA4C5350EA013518BF52EA0335D8
:1084A00041F4801143F4801338D0A0FB02CE4FF08A
:1084B0000005E1FB02E506F00042E0FB03E54FF0BA
:1084C0000006E1FB03569CF0000F18BF4EF0010EB2
:1084D000A4F1FF04B6F5007F64F5407404D25FEAAE
:1084E0004E0E6D4146EB060642EAC62141EA555161
:1084F0004FEAC52040EA5E504FEACE2EB4F1FD0CA3
:1085000088BFBCF5E06F1ED8BEF1004F08BF5FEA20
:10851000500E50F1000041EB045170BD06F00046D2
:1085200046EA010140EA020081EA0301B4EB5C047F
:10853000C2BFD4EB0C0541EA045170BD41F4801177
:108540004FF0000E013C00F3AB8014F1360FDEBF9C
:10855000002001F0004170BDC4F10004203C35DA78
:108560000C341BDC04F11404C4F1200500FA05F3FB
:1085700020FA04F001FA05F240EA020001F000429C
:1085800021F0004110EBD37021FA04F642EB060112
:108590005EEA430E08BF20EAD37070BDC4F10C043C
:1085A000C4F1200500FA04F320FA05F001FA04F200
:1085B00040EA020001F0004110EBD37041F10001EC
:1085C0005EEA430E08BF20EAD37070BDC4F12005F7
:1085D00000FA05F24EEA020E20FA04F301FA05F25F
:1085E00043EA020321FA04F001F0004121FA04F207
:1085F00020EA020000EBD3705EEA430E08BF20EAD7
:10860000D37070BD94F0000F0FD101F00046400010
:1086100041EB010111F4801F08BF013CF7D041EA92
:10862000060195F0000F18BF704703F00046520096
:1086300043EB030313F4801F08BF013DF7D043EA67
:108640000603704794EA0C0F0CEA135518BF95EA1D
:108650000C0F0CD050EA410618BF52EA4306D1D1A4
:1086600081EA030101F000414FF0000070BD50EAC3
:10867000410606BF1046194652EA430619D094EA4D
:108680000C0F02D150EA013613D195EA0C0F05D137
:1086900052EA03361CBF104619460AD181EA03018B
:1086A00001F0004141F0FE4141F470014FF0000043
:1086B00070BD41F0FE4141F4780170BD70B54FF0DE
:1086C000FF0C4CF4E06C1CEA11541DBF1CEA13555E
:1086D00094EA0C0F95EA0C0F00F0A7F8A4EB050440
:1086E00081EA030E52EA03354FEA013100F0888037
:1086F0004FEA03334FF0805545EA131343EA126300
:108700004FEA022245EA111545EA10654FEA0026B4
:108710000EF000419D4208BF964244F1FD0404F56D
:10872000407402D25B084FEA3202B61A65EB0305C9
:108730005B084FEA32024FF480104FF4002CB6EB86
:10874000020E75EB030E22BFB61A754640EA0C0006
:108750005B084FEA3202B6EB020E75EB030E22BF46
:10876000B61A754640EA5C005B084FEA3202B6EB87
:10877000020E75EB030E22BFB61A754640EA9C0046
:108780005B084FEA3202B6EB020E75EB030E22BF16
:10879000B61A754640EADC0055EA060E18D04FEAD4
:1087A000051545EA16754FEA06164FEAC30343EA74
:1087B00052734FEAC2025FEA1C1CC0D111F4801F41
:1087C0000BD141EA00014FF000004FF0004CB6E73A
:1087D00011F4801F04BF01430020B4F1FD0C88BFD9
:1087E000BCF5E06F3FF6AFAEB5EB030C04BFB6EBE4
:1087F000020C5FEA500C50F1000041EB045170BDD7
:108800000EF0004E4EEA113114EB5C04C2BFD4EB03
:108810000C0541EA045170BD41F480114FF0000E87
:10882000013C90E645EA060E8DE60CEA135594EA03
:108830000C0F08BF95EA0C0F3FF43BAF94EA0C0F06
:108840000AD150EA01347FF434AF95EA0C0F7FF47B
:1088500025AF104619462CE795EA0C0F06D152EACF
:1088600003353FF4FDAE1046194622E750EA4106B3
:1088700018BF52EA43067FF4C5AE50EA41047FF4C4
:108880000DAF52EA43057FF4EBAE12E74FF0FF3C29
:1088900006E000BF4FF0010C02E000BF4FF0010CFA
:1088A0004DF804CD4FEA410C7FEA6C5C4FEA430C73
:1088B00018BF7FEA6C5C1BD001B050EA410C0CBFC2
:1088C00052EA430C91EA030F02BF90EA020F002024
:1088D000704710F1000F91EA030F58BF994208BF8B
:1088E00090422CBFD8176FEAE37040F00100704748
:1088F0004FEA410C7FEA6C5C02D150EA013C07D19F
:108900004FEA430C7FEA6C5CD6D152EA033CD3D0E9
:108910005DF8040B704700BF8446104662468C46E3
:108920001946634600E000BF01B5FFF7B7FF002816
:1089300048BF10F1000F01BD4DF808EDFFF7F4FF3F
:108940000CBF012000205DF808FB00BF4DF808EDCA
:10895000FFF7EAFF34BF012000205DF808FB00BFED
:108960004DF808EDFFF7E0FF94BF012000205DF80F
:1089700008FB00BF4DF808EDFFF7CEFF94BF0120C4
:1089800000205DF808FB00BF4DF808EDFFF7C4FFBD
:1089900034BF012000205DF808FB00BF4FEA410C06
:1089A0007FEA6C5C02D150EA013C0AD14FEA430CE9
:1089B0007FEA6C5C02D152EA033C02D14FF0000026
:1089C00070474FF0010070474FEA410212F5001264
:1089D00015D211D56FF47873B3EB625212D94FEA06
:1089E000C12343F0004343EA505311F0004F23FAF0
:1089F00002F018BF404270474FF00000704750EA45
:108A0000013005D111F0004008BF6FF00040704701
:108A10004FF00000704700BF4A0011D212F500125B
:108A200011D20DD56FF47873B3EB62520ED44FEAC6
:108A3000C12343F0004343EA505323FA02F0704746
:108A40004FF00000704750EA013002D14FF0FF3084
:108A500070474FF0000070474FEA4102B2F1E04327
:108A600024BFB3F5001CDCF1FE5C0DD901F0004C15
:108A70004FEAC0024CEA5070B2F1004F40EB830065
:108A800008BF20F00100704711F0804F21D113F191
:108A90003872BCBF01F00040704741F480114FEACA
:108AA0005252C2F11802C2F1200C10FA0CF320FA53
:108AB00002F018BF40F001004FEAC1234FEAD32370
:108AC00003FA0CFC40EA0C0023FA02F34FEA4303DA
:108AD000CCE77FEA625307D150EA01331EBF4FF063
:108AE000FE4040F44000704701F0004040F0FE407E
:108AF00040F40000704700BF53B94AB9002908BFCD
:108B000000281CBF4FF0FF314FF0FF3000F072B96A
:108B1000ADF1080C6DE904CE00F006F8DDF804E0D4
:108B2000DDE9022304B070472DE9F047089E0446B2
:108B30008846002B4BD18A42154667D9B2FA82F299
:108B40004AB1C2F1200701FA02F320FA07F7954073
:108B500047EA030894404FEA154E230CB8FBFEF792
:108B60001FFA85FC0EFB178843EA084307FB0CF14C
:108B7000994209D9EB1807F1FF3080F01B81994227
:108B800040F21881023F2B445B1AA4B2B3FBFEF003
:108B90000EFB103344EA034400FB0CFCA44509D946
:108BA0002C1900F1FF3380F00781A44540F20481C5
:108BB00002382C4440EA0740A4EB0C0400271EB105
:108BC000D4400023C6E900433946BDE8F0878B4214
:108BD00009D9002E00F0EB800027C6E900013846D5
:108BE0003946BDE8F087B3FA83F7002F47D18B42AF
:108BF00002D3824200F2FA80841A61EB030301205F
:108C00009846002EE0D0C6E90048DDE702B9FFDE55
:108C1000B2FA82F2002A40F08F80491B4FEA154ECB
:108C20001FFA85F80127B1FBFEFC230C0EFB1C117B
:108C300043EA014308FB0CF1994207D9EB180CF108
:108C4000FF3002D2994200F2CD808446591AA3B275
:108C5000B1FBFEF00EFB101443EA044408FB00F8DD
:108C6000A04507D92C1900F1FF3302D2A04500F22C
:108C7000B6801846A4EB080440EA0C409FE7C7F111
:108C8000200CBB4022FA0CFE4EEA030E01FA07F458
:108C900020FA0CF521FA0CF34FEA1E482543B3FBEA
:108CA000F8F92C0C08FB19331FFA8EFA44EA034337
:108CB00009FB0AF49C4202FA07F200FA07F10BD909
:108CC0001EEB030309F1FF3080F087809C4240F2E5
:108CD0008480A9F1020973441B1BADB2B3FBF8F009
:108CE00008FB103345EA034400FB0AFAA24508D901
:108CF0001EEB040400F1FF336BD2A24569D90238A0
:108D0000744440EA0940A0FB0289A4EB0A044C45E4
:108D1000C2464B4654D351D0002E69D0B1EB0A0560
:108D200064EB030404FA0CFCFD40FC404CEA05052E
:108D3000C6E90054002747E7C2F1200320FA03F7F1
:108D4000954001FA02F021FA03F34FEA154E384339
:108D5000010CB3FBFEF71FFA85F80EFB173341EA4F
:108D6000034107FB08F38B4204FA02F407D96918A0
:108D700007F1FF3C2FD28B422DD9023F2944CB1A59
:108D800081B2B3FBFEF00EFB103341EA034100FB5E
:108D900008F38B4207D9691800F1FF3C17D28B42C8
:108DA00015D902382944C91A40EA07473BE7374634
:108DB000304609E70746E7E61846FBE64145ABD2F1
:108DC000B8EB020A69EB0E0201381346A4E76046CD
:108DD000E9E7184695E76746D1E781467CE7023820
:108DE0002C4447E7ACF1020C2B442FE7384608E748
:108DF0003746E9E6704700BF80B400AF0B4B002256
:108E00001A700A4B00225A70084B0022DA70074B86
:108E100000229A70054B04221A71044B01225A71E8
:108E200000BFBD465DF8047B704700BF0000002016
:108E300080B400AF9A4BDB78032B00F22B8101A2A8
:108E400052F823F0558E0008E58E0008758F000853
:108E500005900008924B1B781846914B5B78194699
:108E6000904A03010B4412F81330C3F38103DBB2C1
:108E7000012B11D18A4B1B781846894B5B78194618
:108E8000884A03010B4412F81330C3F38113DBB299
:108E9000012B01D10123FEE0814B1B781846804B4A
:108EA0005B7819467F4A03010B4412F81330C3F371
:108EB0008103DBB2012B01D10323ECE0784B1B785B
:108EC0001846774B5B781946764A03010B4412F833
:108ED0001330C3F38113DBB2012B01D10223DAE09B
:108EE0000623D8E06E4B1B7818466D4B5B7819460D
:108EF0006C4A03010B4412F81330C3F30103DBB2D5
:108F0000012B11D1664B1B781846654B5B781946CF
:108F1000644A03010B4412F81330C3F30113DBB2AC
:108F2000012B01D10123B6E05D4B1B7818465C4B49
:108F30005B7819465B4A03010B4412F81330C3F304
:108F40000103DBB2012B01D10223A4E0544B1B78B7
:108F50001846534B5B781946524A03010B4412F8EA
:108F60001330C3F30113DBB2012B01D1032392E0D1
:108F7000062390E04A4B1B781846494B5B7819460C
:108F8000484A03010B4412F81330C3F38103DBB2E8
:108F9000012B11D1424B1B781846414B5B78194687
:108FA000404A03010B4412F81330C3F38113DBB2C0
:108FB000012B01D101236EE0394B1B781846384B49
:108FC0005B781946374A03010B4412F81330C3F398
:108FD0008103DBB2012B01D102235CE0304B1B7813
:108FE00018462F4B5B7819462E4A03010B4412F8A2
:108FF0001330C3F38113DBB2012B01D103234AE009
:10900000062348E0264B1B781846254B5B7819460B
:10901000244A03010B4412F81330C3F30103DBB2FB
:10902000012B11D11E4B1B7818461D4B5B7819463E
:109030001C4A03010B4412F81330C3F30113DBB2D3
:10904000012B01D1012326E0154B1B781846144B48
:109050005B781946134A03010B4412F81330C3F32B
:109060000103DBB2012B01D1032314E00C4B1B786D
:1090700018460B4B5B7819460A4A03010B4412F859
:109080001330C3F30113DBB2012B01D1022302E041
:10909000062300E006231846BD465DF8047B7047B2
:1090A000000000208404002080B400AF034B0022A5
:1090B0005A7100BFBD465DF8047B70470000002078
:1090C00080B400AF034B01225A7100BFBD465DF86A
:1090D000047B70470000002080B582B000AFFFF72E
:1090E000A7FE78600021022002F046FF0021032045
:1090F00002F042FF0021012002F03EFF002100208B
:1091000002F03AFF7C4B9B78002B3FD17A4B1B79C6
:10911000052B00F2EC8001A252F823F035910008F3
:10912000EF920008EF920008EF920008EF9200081B
:109130003F9100080121002002F01EFFD8E07B686B
:10914000062B1DD06D4BD3ED007AF5EE407AF1EE93
:1091500010FA15D1684B5B79002B08D10121786892
:1091600002F00AFF0021002002F006FF0DE00021BE
:10917000786802F001FF0121002002F0FDFE04E00A
:109180000121002002F0F8FEB2E0B1E05A4B9B78DA
:10919000022B40D1584B1B79022B08D1584B4FF072
:1091A00000021A60574B4FF000021A60A0E0524BC9
:1091B0001B79012B1DD17B68062B15D04E4B5B799B
:1091C000002B08D10121786802F0D6FE0021002092
:1091D00002F0D2FE8CE00021786802F0CDFE012181
:1091E000002002F0C9FE83E00121002002F0C4FE4D
:1091F0007EE0414B1B79002B04D10121002002F0BD
:10920000BBFE75E03C4B1B79032B71D10021002084
:1092100002F0B2FE6CE0384B9B78012B40D1364B0C
:109220001B79022B08D1364B4FF000021A60354BE8
:109230004FF000021A605BE02F4B1B79012B1DD110
:109240007B68062B15D02C4B5B79002B08D10121B4
:10925000786802F091FE0021002002F08DFE47E0C8
:109260000021786802F088FE0121002002F084FECF
:109270003EE00121002002F07FFE39E01E4B1B7909
:10928000002B04D10121002002F076FE30E01A4BC1
:109290001B79032B2CD10021002002F06DFE27E06A
:1092A000154B9B78032B23D1134B1B79012B15D125
:1092B000114B5B79002B08D10121786802F05CFE2C
:1092C0000021002002F058FE12E00021786802F030
:1092D00053FE0121002002F04FFE09E0064B1B79EE
:1092E000002B05D10121002002F046FE00E000BF66
:1092F00000BF0837BD4680BD00000020F4030020F9
:10930000F80300201404002080B500AF174B04229E
:109310001A71FFF7E1FE164B4FF000029A60154BF1
:109320004FF000021A60144B4FF000021A60134B0A
:109330004FF000021A60124BD3ED007A9FED117AC4
:10934000F4EEC77AF1EE10FA02DD0F480AF03CFEA7
:109350000B4BD3ED027AF5EE407AF1EE10FADAD14A
:10936000C82004F067FF00BF80BD00BF00000020E0
:10937000E803002018040020F80300201404002053
:109380002C0400200000FA4398820108000000002D
:1093900090B587B000AF87ED010AC7ED000A4A4BD0
:1093A0004FF000021A604FF000037B613B687B6165
:1093B0007868FFF701F842A3D3E90023FFF754F8D8
:1093C00003460C46184621464FF000023F4BFFF77C
:1093D00075F903460C4618462146FFF73DFB034648
:1093E0003B6107F1080300221A605A60384B1B6882
:1093F000BB60D7ED007AF5EEC07AF1EE10FA29DD08
:10940000334BD3ED007A97ED047A77EE277AC7EDE8
:10941000047A3B69FB6012E0D7ED057A9FED2D7A67
:1094200027EE877AD7ED057A67EE276AD7ED017ABE
:1094300037EEA77AC6EE877A274BC3ED007A244B26
:10944000D3ED007A97ED047AB4EEE77AF1EE10FAF4
:10945000E2DC2DE0D7ED007AF5EEC07AF1EE10FAFD
:1094600026D51B4B93ED007AD7ED047A77EE677A19
:10947000C7ED047A12E0D7ED057A9FED187A27EE52
:10948000877AD7ED057A67EE276AD7ED017A37EE4E
:10949000A77AC6EE877A104BC3ED007A0C4BD3ED5A
:1094A000007A97ED047AB4EEE77AF1EE10FAE2D49E
:1094B000094B4FF000021A6000BF1C37BD4690BD3B
:1094C000182D4454FB210940F80300200080664019
:1094D000580200206F12833D140400206F1283BDD8
:1094E00090B585B000AF87ED010AC7ED000A786836
:1094F000FEF762FF3EA3D3E90023FEF7B5FF034664
:109500000C46184621464FF00002334BFFF7D6F8C1
:1095100003460C4618462146FFF79EFA0346FB60B9
:10952000D7ED007AF5EEC07AF1EE10FA2DDD2B4B77
:10953000D3ED007A97ED037A77EE277AC7ED037AB9
:1095400018E0274B4FF000021A60264BD3ED007A4B
:109550009FED257AF4EEC77AF1EE10FA00DC09E00F
:10956000F868FEF729FF03460C461A4623461F48B3
:109570000AF0B6FC194BD3ED007A97ED037AB4EEFE
:10958000E77AF1EE10FADCDC1EE0D7ED007AF5EEBA
:10959000C07AF1EE10FA17D5104B93ED007AD7EDA3
:1095A000037A77EE677AC7ED037A03E00C4B4FF04E
:1095B00000021A60094BD3ED007A97ED037AB4EEFE
:1095C000E77AF1EE10FAF1D4054B4FF000021A6081
:1095D00000BF1437BD4690BD008066405802002091
:1095E000140400202C0400200000FA43AC8201087F
:1095F000182D4454FB21094090B585B000AF87ED8C
:10960000010AC7ED000A4FF00003FB603B68FB60F6
:109610007868FEF7D1FE63A3D3E90023FEF724FFA9
:1096200003460C46184621464FF00002524BFFF706
:1096300045F803460C4618462146FFF70DFA034647
:10964000BB60D7ED007AF5EEC07AF1EE10FA47DD97
:109650004A4BD3ED007A97ED027A77EE277AC7ED81
:10966000027A32E0D7ED037A9FED457A27EE877ACA
:10967000D7ED037A67EE276AD7ED017A37EEA77A3E
:10968000C6EE877A9FED3F7A67EE877A3E4BC3ED51
:10969000007A3E4BD3ED007A9FED3D7AF4EEC77A27
:1096A000F1EE10FA09DDB868FEF786FE03460C46B7
:1096B0001A46234637480AF013FC374BD3ED007A9D
:1096C000F5EEC07AF1EE10FA45D92C4BD3ED007AC5
:1096D00097ED027AB4EEE77AF1EE10FAC2DC3DE0E3
:1096E000D7ED007AF5EEC07AF1EE10FA36D5234BBD
:1096F00093ED007AD7ED027A77EE677AC7ED027ABA
:109700001EE0D7ED037A9FED1E7A27EE877AD7ED1C
:10971000037A67EE276AD7ED017A37EEA77AC6EEAD
:10972000877A9FED1E7A67EE877A174BC3ED007A32
:10973000194BD3ED007AF5EEC07AF1EE10FA0CDA9F
:109740000E4BD3ED007A97ED027AB4EEE77AF1EEA4
:1097500010FAD6D402E000BF00E000BF0A4B4FF081
:1097600000021A600E4B4FF000021A6000BF14375F
:10977000BD4690BDAFF300800080664058020020D7
:109780006F12833A000080C2140400202C040020D1
:109790000000FA43C4820108540200200000804205
:1097A000F8030020182D4454FB210940000000005C
:1097B00090B585B000AF87ED010AC7ED000A4A4BAE
:1097C00003221A71FFF77CFCFFF786FCD7ED017AC4
:1097D000B3EE0E7A67EE877A9FED447AC7EE876A1A
:1097E000D7ED000AB0EE660AFFF7D2FDD7ED017A99
:1097F000B3EE0E7A67EE877A9FED3C7AC7EE876A02
:10980000D7ED000AB0EE660AFFF76AFED7ED017ADF
:10981000B3EE0E7A67EE877A9FED347AC7EE876AE9
:10982000D7ED000AB0EE660AFFF7E6FEFFF76CFD23
:10983000FFF752FCD7ED017A9FED2D7AC7EE876ACC
:1098400016EE900AFEF7B8FD25A3D3E90023FEF734
:109850000BFE03460C4618462146FFF7B5F80346B3
:10986000FB60D7ED007AF5EEC07AF1EE10FA13D571
:10987000204B1A68FB68D90F0B445B105B42134402
:109880001C4A13601B4B5A68FB68D90F0B445B10D2
:109890001344184A536019E0D7ED007AF5EEC07A08
:1098A000F1EE10FA12DD134B1A68FB68D90F0B4466
:1098B0005B1013440F4A13600E4B5A68FB68D90FB4
:1098C0000B445B105B4213440A4A5360094B9B688C
:1098D000084A936000BF1437BD4690BDAFF30080C7
:1098E000E57CD9FBF55BFD40000000200000B442A0
:1098F0000000B44338040020B0B58AB000AF904BEC
:1099000002221A71FFF7E8FB8E4B1B687B624FF057
:1099100081433B628C4BFB618C4BBB618C4B7B610D
:109920008C4B3B618C4BFB608C4B1B68BB608C4B46
:109930001A688B4B5B6813447B600AE0894B4FF0DD
:1099400000021A60884B4FF000021A60874A7B6A57
:1099500093607868FEF71EFD04460D46D7ED087A41
:1099600077EEA77A17EE900AFEF726FD70A3D3E9EB
:109970000023FEF7A3FE02460B4620462946FEF7CB
:10998000BDFB03460C4625461C46754B1A68744BB6
:109990005B6813441846FEF7FDFC02460B46204662
:1099A0002946FEF7F1FF0346002BC7D16B4B1B681E
:1099B000BB606F4B1B683B6005E06B4ABB69136083
:1099C0006A4A7B6A936097ED007AD7ED057A37EEA5
:1099D000277A674BD3ED007AB4EEE77AF1EE10FA0E
:1099E000EBDC614B4FF000021A605C4B1B68BB6004
:1099F00006E05C4B1B685B4A13605C4A7B6A9360C1
:109A000097ED007AD7ED047A37EE277A584BD3EDED
:109A1000007AB4EEE77AF1EE10FAEADC4F4B1B68FD
:109A2000BB6016E0D7ED067AF1EE677A4E4BC3EDD8
:109A3000007A4C4BD3ED007AF5EEC07AF1EE10FAD5
:109A400004D5484B4FF000021A6010E0474A7B6A89
:109A5000936097ED007AD7ED037A37EE277A444B7F
:109A6000D3ED007AB4EEE77AF1EE10FADADC3E4B91
:109A70004FF000021A603B4B4FF000021A60384B67
:109A80001A68374B5B6813447B6006E0354B4FF038
:109A900000021A60354A7B6A93607868FEF77AFCA8
:109AA00004460D46D7ED077A77EEA77A17EE900AAF
:109AB000FEF782FC1EA3D3E90023FEF7FFFD02465A
:109AC0000B4620462946FEF719FB03460C46254661
:109AD0001C46234B1A68224B5B6813441846FEF75A
:109AE00059FC02460B4620462946FEF74DFF034629
:109AF000002BCBD11F4B1B681846FEF75DFC0EA355
:109B0000D3E90023FEF7FAFA03460C46184621462D
:109B1000FEF7A2FF0246174B1A60114B9B68164ACC
:109B2000936000BF2837BD46B0BD00BFAFF30080D3
:109B3000B2157936E02D503F182D4454FB21F93FE2
:109B400000000020540400200000C0400AD7A33DBC
:109B5000920A063F920A863FDB0FC93F540200205B
:109B600020040020F803002014040020E803002053
:109B7000580200201C0400203804002000000000CF
:109B8000B0B58AB000AF8A4B02221A71FFF7A4FA6F
:109B9000884B1B687B624FF081433B62864BFB61C5
:109BA000864BBB61864B7B61864B3B61864BFB6082
:109BB000864B1A68854B5B681344BB600AE0844B94
:109BC0004FF000021A60834B4FF000021A60824A85
:109BD0007B6A9360B868FEF7DDFB04460D46D7ED5F
:109BE000087A77EEA77A17EE900AFEF7E5FB6CA3EA
:109BF000D3E90023FEF762FD02460B4620462946C4
:109C0000FEF77CFA03460C4625461C466F4B1A6845
:109C10006E4B5B6813441846FEF7BCFB02460B46CE
:109C200020462946FEF7B0FE0346002BC7D16B4BFA
:109C30001B687B6005E0674ABB691360664A7B6A04
:109C4000936097ED017AD7ED057A37EE677A634B2B
:109C5000D3ED007AB4EEE77AF1EE10FAEBD45D4B77
:109C60004FF000021A6006E0594B1B68584A136017
:109C7000594A7B6A936097ED017AD7ED047A37EE03
:109C8000677A564BD3ED007AB4EEE77AF1EE10FA2C
:109C9000EAD416E0D7ED067AF1EE677A4D4BC3EDC4
:109CA000007A4B4BD3ED007AF5EEC07AF1EE10FA64
:109CB00004DD474B4FF000021A6010E0464A7B6A11
:109CC000936097ED017AD7ED037A37EE677A434BCD
:109CD000D3ED007AB4EEE77AF1EE10FADAD43D4B28
:109CE0004FF000021A603A4B4FF000021A60374BF7
:109CF0001A68364B5B681344BB6006E0344B4FF088
:109D000000021A60344A7B6A9360B868FEF742FB2F
:109D100004460D46D7ED077A77EEA77A17EE900A3C
:109D2000FEF74AFB1EA3D3E90023FEF7C7FC024659
:109D30000B4620462946FEF7E1F903460C46254628
:109D40001C46224B1A68214B5B6813441846FEF7E9
:109D500021FB02460B4620462946FEF715FE034628
:109D6000002BCBD11E4B1B681846FEF725FB0EA31C
:109D7000D3E90023FEF7C0F903460C4618462146F6
:109D8000FEF76AFE0246164B1A60104B9B68154A96
:109D9000936000BF2837BD46B0BD00BFAFF3008061
:109DA000B2157936E02D503F182D4454FB21F93F70
:109DB00000000020540400200000C0400AD7A3BDCA
:109DC000920A063F920A863FDB0FC93F200400201B
:109DD000F803002014040020E803002058020020AB
:109DE0001C0400203804002090B585B000AF87ED3A
:109DF000010AC7ED000A364B00221A71FFF76CF911
:109E0000344B4FF000021A604FF00003FB60324BFE
:109E1000D3ED027A97ED007A77EE677AC7ED037A91
:109E2000D7ED037A9FED2D7A27EE877AD7ED037A67
:109E300067EE276AD7ED017A37EEA77AC6EE877A02
:109E4000274BC3ED007AFFF73BF9D7ED017A77EEA8
:109E5000A77A17EE900AFEF7AFFA1BA3D3E9002307
:109E6000FEF72CFC03460C4618462146FEF7ACFDD7
:109E70000346BB6000BF1B4B9A68BB681A441A4B71
:109E80009B689A42F7DC164B4FF000021A60154BA4
:109E90009A68BB681344134A9360124B1A68BB68F4
:109EA000D90F0B445B1013440E4A13600D4B5A68D4
:109EB000BB68D90F0B445B1013440A4A536000BFC0
:109EC0001437BD4690BD00BFB2157936E02D503F26
:109ED00000000020F80300202C0400206F12833AB9
:109EE0001804002038040020200400200000000096
:109EF00090B585B000AF87ED010AC7ED000A564B5B
:109F000001221A714FF00003FB60544B93ED027A6B
:109F1000D7ED007A77EE677AC7ED037AD7ED037A4B
:109F20009FED4F7A27EE877AD7ED037A67EE276A9F
:109F3000D7ED017A37EEA77AC6EE877AF1EE677A27
:109F4000484BC3ED007AFFF7AFF8FFF7C5F8D7ED40
:109F5000017A77EEA77A17EE900AFEF72DFA3CA366
:109F6000D3E90023FEF7AAFB03460C461846214618
:109F7000FEF72AFD0346BB6035E03B4BD3ED027A8A
:109F8000F5EEC07AF1EE10FA10D8374B4FF0000220
:109F90009A60344B4FF000021A60344B4FF00002CD
:109FA0001A60334B4FF000021A6033E0314B9A686D
:109FB000BB68D90F0B445B101A442F4B9B689A4225
:109FC00011DAFFF77DF80021022001F0D5FF002112
:109FD000032001F0D1FF0021012001F0CDFF01217C
:109FE000002001F0C9FF254B93ED037A234BD3EDFD
:109FF000007A77EE277A9FED227AF4EEC77AF1EEB7
:10A0000010FA07D51B4B9A68BB681A441A4B9B6819
:10A010009A42B2DCFFF778F9164B9A68BB68134492
:10A02000144A9360134B1A68BB68D90F0B445B103A
:10A030001344104A13600F4B5A68BB68D90F0B4486
:10A040005B1013440B4A536000BF1437BD4690BDEC
:10A05000B2157936E02D503F000000202C0400207E
:10A060006F12833A18040020E8030020F803002050
:10A0700014040020380400202004002044040020A0
:10A08000000061450000000090B585B000AF786029
:10A090007B685B001846FEF77DF92BA3D3E900230C
:10A0A000FEF70CFB03460C4618462146FEF78CFCD7
:10A0B0000346FB60FB68002B15DD06E01C4B4FF0F0
:10A0C00000021A601B4B1C4A9A601C4B9A68FB6882
:10A0D0001A441B4B9B689A42F0DC184B9A68FB6849
:10A0E0001344164A9360FB68002B15DA06E0104B08
:10A0F0004FF000021A600F4B124A9A600F4B9A6899
:10A10000FB681A440E4B9B689A42F0DB0B4B9A6833
:10A11000FB681344094A9360064B4FF000029A60B3
:10A12000034B4FF000021A6000BF1437BD4690BDCC
:10A1300018040020E803002000008C4238040020AE
:10A140002004002000008CC2B2157936E02D503F6B
:10A1500080B500AF064B06221A71FEF7BDFF6FF007
:10A160003100FFF791FFFA2004F064F800BF80BDD2
:10A170000000002000000000B0B586B000AF87ED01
:10A18000030AC7ED020A87ED011AD7ED037A77EECD
:10A19000A77A17EE900AFEF70FF957A3D3E9002329
:10A1A000FEF78CFA03460C4618462146FEF70CFCD7
:10A1B00003467B61D7ED017AF5EE407AF1EE10FAB5
:10A1C00022D0FEF77DFFFEF787FFD7ED037AB0EED2
:10A1D000007AC7EE876A97ED027AD7ED017A77EEBB
:10A1E000277AF0EE670AB0EE660AFFF7FDFD00BFC2
:10A1F0003D4B9A687B69D90F0B445B101A443B4B6B
:10A200009B689A42F4DC49E0394B05221A71FEF74B
:10A210004BFFFEF761FF39E0334B9B681846FEF7B2
:10A22000B9F804460D467869FEF7B4F82CA3D3E9D3
:10A230000023FEF719F902460B4620462946FDF792
:10A240005DFF03460C4625461C46284B9B68184676
:10A25000FEF7A0F802460B4620462946FEF776FB9D
:10A260000346002B00D111E0FEF72AFF0021022057
:10A2700001F082FE0021032001F07EFE002101207A
:10A2800001F07AFE0121002001F076FE164B9A685B
:10A290007B691A44154B9B689A42BDDC154B4FF005
:10A2A00000021A60104B9A687B6913440E4A93604F
:10A2B0000D4B1A687B69D90F0B445B1013440A4A93
:10A2C0001360094B5A687B69D90F0B445B10134428
:10A2D000054A536000BF1837BD46B0BDAFF30080DC
:10A2E0009A9999999999D93F38040020200400201F
:10A2F0000000002018040020B2157936E02D503FF0
:10A3000090B583B000AF0346FB71FB79532B32D07D
:10A31000542B00D032E0DFED1E0A9FED1E0AFFF73E
:10A32000E7FDDFED1D0A9FED1D0AFFF741FA1C4B0B
:10A330001B681846FEF740F813A3D3E90023FDF786
:10A34000DDFE03460C4618462146FEF785FB024615
:10A35000134B1A60FA2003F06DFF0121002001F079
:10A360000BFE104BD3ED007AF0EE670A9FED090A61
:10A37000FFF73AFD02E0FFF7BFFA00BF00BF0C375E
:10A38000BD4690BDAFF30080182D4454FB21F93F2A
:10A390000000000000003442DB0FC9400000B4425E
:10A3A0001C0400205404002090B583B000AF034685
:10A3B000FB71FB79532B32D0542B00D032E0DFED10
:10A3C0001E0A9FED1E0AFFF793FDDFED1D0A9FEDAC
:10A3D0001D0AFFF7EDF91C4B1B681846FDF7ECFF53
:10A3E00013A3D3E90023FDF787FE03460C46184666
:10A3F0002146FEF731FB0246134B1A60FA2003F0A8
:10A4000019FF0121002001F0B7FD104BD3ED007AB8
:10A41000F0EE670A9FED090AFFF7E6FC02E0FFF79E
:10A42000AFFB00BF00BF0C37BD4690BDAFF300804F
:10A43000182D4454FB21F93F000000000000344275
:10A44000DB0FC9C00000B4421C04002054040020EB
:10A4500098B500AFDFED1A0A9FED1A0AFFF748FD25
:10A46000DFED190A9FED190AFFF7A2F9184B1B68D7
:10A470001846FDF7A1FF10A3D3E90023FDF73EFE28
:10A4800003460C4618462146FEF7E6FA0246104BF4
:10A490001A60C82003F0CEFEFFF75AFE0D4BD3ED35
:10A4A000007AF0EE670A9FED0C0AFFF79DFC00BFF3
:10A4B00098BD00BFAFF30080182D4454FB21094024
:10A4C0000000000000003442DB0FC94000003443AC
:10A4D0001C040020540400200000764280B582B0A5
:10A4E00000AF0346FB71184B9B78032B26D801A2C3
:10A4F00052F823F005A5000823A500082DA50008A3
:10A5000037A50008114BD3ED007A114B93ED007A7B
:10A51000B0EE471AF0EE670A9FED0E0AFFF72CFE29
:10A520000DE0FB791846FFF7EBFE08E0FB791846D3
:10A53000FFF73AFF03E0FFF78BFF00E000BF00BF2B
:10A540000837BD4680BD00BF000000205404002035
:10A55000F40300200000B44280B483B000AF786000
:10A5600039607B683A681A6000BF0C37BD465DF8F9
:10A57000047B704780B487B000AFF860B9607A6040
:10A58000BB687B612C4A7B6852F823207B69D31A15
:10A59000002BB8BF5B423B6127497B687A6941F871
:10A5A0002320264A7B6852F823203B691A4423491A
:10A5B0007B6841F82320224A7B6852F823305A1CDA
:10A5C0001F497B6841F823201D4A7B6852F82330DD
:10A5D000FA689A4221D1194A7B6852F8233007EE73
:10A5E000903AF8EEE76A164A7B6852F8233007EE95
:10A5F000903AB8EEE77AC6EE877A124A7B689B00FB
:10A600001344C3ED007A0D4A7B68002142F8231001
:10A610000B4A7B68002142F823100A4A7B689B00A2
:10A6200013441B6807EE903AB0EE670A1C37BD462C
:10A630005DF8047B704700BF10020020200200205C
:10A64000300200204002002080B487B000AFF860E4
:10A6500087ED020AC7ED010A87ED001A4FF00003EB
:10A660007B61FB6807EE903AB8EEE77AD7ED027AA5
:10A6700027EE277AD7ED017A67EE276A97ED007A01
:10A68000C6EE877AC7ED057A7B6907EE903AB0EEA1
:10A69000670A1C37BD465DF8047B704780B485B0FF
:10A6A00000AF786039600123FB600023BB6007E0E6
:10A6B000FB687A6802FB03F3FB60BB680133BB6095
:10A6C000BA683B689A42F3DBFB6818461437BD460C
:10A6D0005DF8047B704780B48BB000AF87ED030A50
:10A6E000C7ED020A87ED011A3860D7ED036A97EDCE
:10A6F000017AC6EE877AC7ED077AD7ED026A97ED41
:10A70000017AC6EE877AC7ED067AB7EE007AD7ED02
:10A71000067A77EE676A3B6807EE903AB8EEE77A1A
:10A72000C6EE877AC7ED057A00237B6200233B6281
:10A7300018E03B6A07EE903AB8EEE77AD7ED057A73
:10A7400027EE277AD7ED067A77EE277A97ED077A04
:10A75000B4EEE77AF1EE10FA01DB3B6A7B623B6A0A
:10A7600001333B623A6A3B689A42E2DB7B6A1846F5
:10A770002C37BD465DF8047B7047000080B500AF04
:10A78000074B1B689B680021184609F03DFC044BF1
:10A790001B685B680021184609F036FC00BF80BDCD
:10A7A0002400002080B592B000AF2C4B1B687B6466
:10A7B0003B4640220021184608F04BFD284BD3F8B9
:10A7C000B0303B60264BD3F8B4307B60244BD3F8D9
:10A7D000B830BB60224B1B68FB60214B5B683B6160
:10A7E0001F4B9B687B611E4B9B6DBB611C4BDB6DE4
:10A7F000FB611B4B1B6E3B62194BD3F884307B62B1
:10A80000174BD3F88830BB62154BD3F88C30FB6202
:10A81000134BDB6A3B63124B1B6B7B63104B5B6B15
:10A82000BB6300233B6412E03B6C9B0007F14802D2
:10A830001344483BD3ED007AB0EE670A786C03F01E
:10A84000EFF87B6C04337B643B6C01333B643B6C03
:10A850000E2BE9DD00BF4837BD4680BD5485010899
:10A860005C02002090B595B000AF594B1B68FB64AB
:10A870003B4640220021184608F0EBFC002387F8F5
:10A880004B3000237B6438E03A467B6C9B001344DA
:10A890001946F86C03F0EEF8FB6C0433FB647B6C38
:10A8A0009B0007F150021344503B1B681846FDF70C
:10A8B00083FD03460C461A462346796C454809F049
:10A8C0000FFB7B6C9B0007F150021344503BD3ED10
:10A8D000007AF4EE677AF1EE10FA6CBF01230023E0
:10A8E000DBB23B643B6C002B04D097F84B30013358
:10A8F00087F84B307B6C01337B647B6C0E2BC3DDA4
:10A9000097F84B301946344809F0EAFA97F84B307B
:10A910000F2B59D0D7ED007A97ED017AD7ED026A67
:10A92000B0EE661AF0EE470AB0EE670A042001F0B6
:10A93000F7FAD7ED007A97ED017AD7ED026AB0EE1B
:10A94000661AF0EE470AB0EE670A052001F0E8FA51
:10A95000D7ED037A97ED047AD7ED056AB0EE661A63
:10A96000F0EE470AB0EE670A002001F0D9FAD7ED01
:10A97000067A97ED077AD7ED086AB0EE661AF0EE20
:10A98000470AB0EE670A022001F0CAFAD7ED097A49
:10A9900097ED0A7AD7ED0B6AB0EE661AF0EE470A29
:10A9A000B0EE670A032001F0BBFAD7ED0C7A97ED01
:10A9B0000D7AD7ED0E6AB0EE661AF0EE470AB0EEE9
:10A9C000670A012001F0ACFA00BF5437BD4690BDC4
:10A9D00054850108DC820108E88201082DE9B043B2
:10A9E00086B004AFAF4806F018FBAF4806F015FB81
:10A9F00003F006FB03F01EFAC82003F01BFC302313
:10AA0000FB713023BB71A94809F0DEFAA84BD3F8DB
:10AA1000B0301846FDF7D0FC80468946A44BD3F8E9
:10AA2000B4301846FDF7C8FC04460D46A04BD3F8D9
:10AA3000B8301846FDF7C0FC02460B46CDE90223AC
:10AA4000CDE9004542464B469A4809F049FA984BF1
:10AA50001B681846FDF7B0FC80468946944B5B683E
:10AA60001846FDF7A9FC04460D46914B9B68184615
:10AA7000FDF7A2FC02460B46CDE90223CDE90045D5
:10AA800042464B468C4809F02BFA894B9B6D184681
:10AA9000FDF792FC80468946854BDB6D1846FDF735
:10AAA0008BFC04460D46824B1B6E1846FDF784FC5A
:10AAB00002460B46CDE90223CDE9004542464B460E
:10AAC0007E4809F00DFA7A4BD3F884301846FDF72A
:10AAD00073FC80468946764BD3F888301846FDF7DC
:10AAE0006BFC04460D46724BD3F88C301846FDF7CC
:10AAF00063FC02460B46CDE90223CDE90045424600
:10AB00004B466F4809F0ECF9694BDB6A1846FDF7D4
:10AB100053FC80468946664B1B6B1846FDF74CFC80
:10AB200004460D46624B5B6B1846FDF745FC02463A
:10AB30000B46CDE90223CDE9004542464B4661482C
:10AB400009F0CEF9FFF71AFE5F4809F0C9F9FB1DBD
:10AB500019465E4809F040FAFB79302B00F0F4808A
:10AB6000FFF70CFE5A4809F0BBF9BB1D19465748C0
:10AB700009F032FAFB791946BB791A46554809F0B3
:10AB8000AFF9FFF7FBFD544809F0AAF9FB79313B17
:10AB9000042B00F2C18001A252F823F0B1AB0008EF
:10ABA000E3AB000815AC000845AC000875AC000824
:10ABB000BB79702B04D14949494809F00DFAAFE03F
:10ABC000BB79692B04D14749454809F005FAA7E04C
:10ABD000BB79642B40F0A4804349414809F0FCF95B
:10ABE0009EE0BB79702B04D131493D4809F0F4F95E
:10ABF00098E0BB79692B04D13C49394809F0ECF95C
:10AC000090E0BB79642B40F08D803949344809F0DD
:10AC1000E3F987E0BB79702B04D13649304809F05D
:10AC2000DBF981E0BB79692B04D133492C4809F069
:10AC3000D3F979E0BB79642B76D13049284809F003
:10AC4000CBF971E0BB79702B04D12D49244809F070
:10AC5000C3F96BE0BB79692B04D12A49204809F07C
:10AC6000BBF963E0BB79642B60D127491C4809F02C
:10AC7000B3F95BE0BB79702B04D12449184809F083
:10AC8000ABF955E0BB79692B04D12149144809F08F
:10AC9000A3F94DE0BB79642B4AD11E49104809F055
:10ACA0009BF945E00C09002084060020F082010891
:10ACB0005C020020088301082883010844830108FE
:10ACC000608301087C83010898830108B083010830
:10ACD000B4830108C8830108EC8301080C03002039
:10ACE00000840108100300201403002060020020EB
:10ACF00064020020B4020020B8020020BC02002040
:10AD0000E0020020E4020020E80200208802002087
:10AD10008C02002090020020164809F055F908E046
:10AD200000BF06E000BF04E000BF02E000BF00E09B
:10AD300000BFFFF723FD7B1D19460F4809F04CF9B2
:10AD40000E4809F041F95EE600BF0D4809F03CF9F4
:10AD500002F0BAFEFFF726FD072003F079F8C820BD
:10AD600003F068FA002003F073F800BF0837BD460F
:10AD7000BDE8B08304840108B08301081884010889
:10AD80001C84010800000000B0B584B000AF7860FA
:10AD90007B68914A934240F0AB81904B1A68904B8C
:10ADA0001B6813448D4A13608C4B1B6847F230526A
:10ADB000934202D18A4B00221A608A4B5B6AC3F528
:10ADC000EA432F331A46884B1A60864B47F22F52BC
:10ADD0005A62864B5B6AC3F5EA432F331A46824BAD
:10ADE0005A60824B47F22F525A627F4B1B6807EE24
:10ADF000903AF8EEE77A9FED7E7A67EE877A7D4BA0
:10AE0000C3ED007A784B5B6807EE903AF8EEE77A8C
:10AE10009FED777A67EE877A764BC3ED017A754BB3
:10AE200093ED007A734BD3ED017A77EE277AB6EE85
:10AE3000007A67EE877A6F4BC3ED027A6E4B1A6821
:10AE4000694B1B6813446C4A13606B4B5A68664B22
:10AE50005B681344684A5360674B1A68664B5B68CB
:10AE60001344654A93604FF00003FB6002F082FEDA
:10AE7000F0EE407A614BC3ED007A604B93ED007ABF
:10AE80005F4BD3ED007A77EE677A9FED5E7A67EEDF
:10AE9000877AC7ED037AF868FDF78EFA4AA3D3E9FB
:10AEA0000023FDF7E1FA03460C4625461C46564BA7
:10AEB0001B681846FDF780FA45A3D3E90023FDF788
:10AEC000D3FA02460B4620462946FDF717F90346FA
:10AED0000C4618462146FDF7BFFD034607EE903AA3
:10AEE000F1EE677A494BC3ED007A474AFB6813607D
:10AEF000464BD3ED007A9FED467A27EE877A454B95
:10AF0000D3ED007A77EE277A424BC3ED007A002327
:10AF1000BB60414BD3ED007A3E4B93ED007AF0EEEF
:10AF2000470AB0EE670A002001F07AF80246BB68D3
:10AF30001344BB60394BD3ED026A384B93ED017A71
:10AF4000374BD3ED007A77EE277AF0EE670AB0EE52
:10AF5000660A012001F064F80246BB681344BB6036
:10AF60002E4BD3ED027A2F4B93ED027AF0EE470A87
:10AF7000B0EE670A022001F053F80246BB681344A2
:10AF8000BB60284BD3ED017A244B93ED017AF0EEB0
:10AF9000470AB0EE670A032001F042F80246BB6898
:10AFA0001344BB60204B9B78002B41D1BB6807EE5C
:10AFB000903AF8EEE77A9FED167A67EE877A1B4BA8
:10AFC000C3ED007A3FE000BF7B14AE47E17A843FD7
:10AFD000AE47E17A14AEEF3F0C090020E4030020F5
:10AFE000DC0300200004004078040020000800403A
:10AFF000CFCC7C3F2C04002020040020F40900204A
:10B00000F0090020787D8B3A500200205402002085
:10B010006F12833A580200201C04002044040020D0
:10B020000C0400206004002000000020F803002031
:10B030004F4B93ED007A4F4BD3ED007A77EE277AA2
:10B040004B4BC3ED007A4C4B93ED027A4B4BD3ED57
:10B05000007A77EE277A484BC3ED027A464B93EDA0
:10B06000027A434BD3ED007ADFED456A67EEA67AAC
:10B07000F6EE006A67EEA67A77EE677A3E4BC3ED8E
:10B08000017A3B4BD3ED007A9FED3D7A27EE877A2C
:10B09000394BD3ED017A77EE277A374BC3ED007A3F
:10B0A000354BD3ED007A374B93ED007AF0EE470A3B
:10B0B000B0EE670A042000F0B3FF0246324B1A607C
:10B0C0002D4BD3ED017A2F4B93ED017AF0EE470A29
:10B0D000B0EE670A052000F0A3FF02462B4B1A6072
:10B0E000294B1A68294B1B681946104602F0A4FF29
:10B0F0007B68274A934236D1264B1A68264B1B6839
:10B100001344244A1360254B1B68002219460A2069
:10B11000FFF730FAF0EE407A214BC3ED007A1F4B77
:10B120005B68012219460A20FFF724FAF0EE407A04
:10B130001B4BC3ED017A1B4B1B68022219460A20E8
:10B14000FFF718FAF0EE407A154BC3ED027A154B73
:10B150005B68032219460A20FFF70CFAF0EE407AEA
:10B160000F4BC3ED037A00BF1037BD46B0BD00BF23
:10B17000F803002014040020E80300201804002035
:10B18000333317422C04002058040020740400209C
:10B1900084060020E0030020DC030020C003002020
:10B1A00044040020CC03002080B485B000AF00230D
:10B1B000FB6037E00023BB602EE03D49FB681A01CD
:10B1C000BB681A4411F8123043F0030301F812303F
:10B1D0003749FB681A01BB681A4411F8123043F072
:10B1E0000C0301F812303249FB681A01BB681A449B
:10B1F00011F8123043F0300301F812302C49FB688B
:10B200001A01BB681A4411F8123043F0C00301F868
:10B210001230BB680133BB60BB680F2BCDDDFB6810
:10B220000133FB60FB680F2BC4DD00237B602AE049
:10B230001F4A7B685B01134403F11E02137801214E
:10B2400061F3010313701A497B6803F1F00211F8EE
:10B250001230012060F3830301F81230144A7B6836
:10B260005B011A441378012161F30513137010492F
:10B270007A6811F81230012060F3871301F8123058
:10B280007B6801337B607B680F2BD1DD084A137824
:10B29000012161F383031370054A13786FF30103EF
:10B2A000137000BF1437BD465DF8047B704700BFC4
:10B2B0008404002080B489B000AF034687ED040AFF
:10B2C000C7ED030A87ED021AC7ED011AFB750B469D
:10B2D000BB7513467B7597ED027AD7ED017A37EE91
:10B2E000277AF0EE006AC7EE267A9FED717AF4EEC7
:10B2F000C77AF1EE10FACCBF01230023DAB27B7DCE
:10B3000007F120010B4403F8042CD7ED037A9FEDDD
:10B31000697AF4EEC77AF1EE10FACCBF012300236C
:10B32000D9B27B7D01335A4203F0030302F00302DA
:10B3300058BF53420A4607F120010B4403F8042C7E
:10B340007B7D02335A4203F0030302F0030258BF2D
:10B35000534207F120021344002203F8042CD7EDD6
:10B36000047A9FED557AF4EEC77AF1EE10FACCBF6D
:10B3700001230023D9B27B7D03335A4203F0030338
:10B3800002F0030258BF53420A4607F120010B4462
:10B3900003F8042C397FFA7DBB7D01F00301C8B2AC
:10B3A000464912011A4411F8123060F3010301F802
:10B3B0001230797FFA7DBB7D01F00301C8B23F49AD
:10B3C00012011A4411F8123060F3830301F81230AD
:10B3D000B97FFA7DBB7D01F00301C8B23749120184
:10B3E0001A4411F8123060F3051301F81230F97F96
:10B3F000FA7DBB7D01F00301C8B2304912011A4445
:10B4000011F8123060F3871301F81230BB7D0E2B58
:10B410000FD8397FFA7DBB7D013301F00301C8B23B
:10B42000264912011A4411F8123060F3051301F88D
:10B430001230FB7D0E2B0FD8797FFB7D5A1CBB7D14
:10B4400001F00301C8B21D4912011A4411F812306B
:10B4500060F3871301F81230BB7D002B0FD0B97F4A
:10B46000FA7DBB7D013B01F00301C8B21349120113
:10B470001A4411F8123060F3010301F81230FB7D19
:10B48000002B0FD0F97FFB7D5A1EBB7D01F003011D
:10B49000C8B20A4912011A4411F8123060F383034A
:10B4A00001F8123000BF2437BD465DF8047B7047B9
:10B4B00000008C420000B4420000C8428404002016
:10B4C00080B582B000AF0346FB71AE4BDB78032B37
:10B4D00000F2E18101A252F823F000BFEDB40008B0
:10B4E000D5B50008BDB60008AFB70008A54B1B785E
:10B4F0001846A44B5B781946A34A03010B4412F883
:10B500001330C3F38113DBB2002B10D19D4B022209
:10B510009A70FB791846FEF7E1FF9A4B0322DA7026
:10B52000984B1B78013BDAB2964B1A70B4E1954BFD
:10B530001B781846934B5B781946934A03010B44DA
:10B5400012F81330C3F30103DBB2002B10D18D4B83
:10B5500000229A70FB791846FEF7C0FF894B002243
:10B56000DA70884B5B780133DAB2864B5A7093E11C
:10B57000844B1B781846834B5B781946824A03013B
:10B580000B4412F81330C3F38103DBB2002B10D14C
:10B590007C4B01229A70FB791846FEF79FFF794B8E
:10B5A0000122DA70774B1B780133DAB2754B1A70CF
:10B5B00072E1744B03229A70FB791846FEF78EFFF6
:10B5C000704B0222DA706F4B5B78013BDAB26D4B45
:10B5D0005A7061E16B4B1B7818466A4B5B781946D1
:10B5E000694A03010B4412F81330C3F30103DBB2C1
:10B5F000002B10D1634B02229A70FB791846FEF79C
:10B600006DFF604B0022DA705E4B5B780133DAB27B
:10B610005C4B5A7040E15B4B1B781846594B5B788A
:10B620001946594A03010B4412F81330C3F381033E
:10B63000DBB2002B10D1534B00229A70FB791846D5
:10B64000FEF74CFF4F4B0122DA704E4B1B78013353
:10B65000DAB24C4B1A701FE14A4B1B781846494B23
:10B660005B781946484A03010B4412F81330C3F3C0
:10B670000113DBB2002B10D1424B01229A70FB79EF
:10B680001846FEF72BFF3F4B0222DA703D4B5B78EA
:10B69000013BDAB23B4B5A70FEE03A4B03229A7000
:10B6A000FB791846FEF71AFF364B0322DA70354B4A
:10B6B0001B78013BDAB2334B1A70EDE0314B1B784B
:10B6C0001846304B5B7819462F4A03010B4412F899
:10B6D0001330C3F38103DBB2002B10D1294B0222BC
:10B6E0009A70FB791846FEF7F9FE264B0122DA70B4
:10B6F000244B1B780133DAB2224B1A70CCE0214B79
:10B700001B7818461F4B5B7819461F4A03010B44F0
:10B7100012F81330C3F30113DBB2002B10D1194B15
:10B7200000229A70FB791846FEF7D8FE154B0222CC
:10B73000DA70144B5B78013BDAB2124B5A70ABE013
:10B74000104B1B7818460F4B5B7819460E4A0301C5
:10B750000B4412F81330C3F38113DBB2002B15D165
:10B76000084B01229A70FB791846FEF7B7FE054B8D
:10B770000322DA70034B1B78013BDAB2014B1A70DB
:10B780008AE000BF0000002084040020444B032214
:10B790009A70FB791846FEF7A1FE414B0022DA7041
:10B7A0003F4B5B780133DAB23D4B5A7074E03C4B4F
:10B7B0001B7818463A4B5B7819463A4A03010B440A
:10B7C00012F81330C3F30113DBB2002B10D1344B4A
:10B7D00002229A70FB791846FEF780FE304B022257
:10B7E000DA702F4B5B78013BDAB22D4B5A7053E085
:10B7F0002B4B1B7818462A4B5B781946294A0301C4
:10B800000B4412F81330C3F38113DBB2002B10D1B9
:10B81000234B00229A70FB791846FEF75FFE204BFF
:10B820000322DA701E4B1B78013BDAB21C4B1A70F4
:10B8300032E01B4B1B781846194B5B781946194AA6
:10B8400003010B4412F81330C3F30103DBB2002BE6
:10B8500010D1134B01229A70FB791846FEF73EFE79
:10B860000F4B0022DA700E4B5B780133DAB20C4BCF
:10B870005A7011E00A4B03229A70FB791846FEF7C2
:10B880002DFE074B0122DA70054B1B780133DAB22B
:10B89000034B1A7000E000BF00BF0837BD4680BDF3
:10B8A000000000208404002080B582B000AF02F0C8
:10B8B0008DFB02F091FA02F0AFFA02F031F802F0DB
:10B8C000DFF90346FB71FB791946384808F008FB9D
:10B8D0000021042000F050FB0021052000F04CFB6B
:10B8E0000021022000F048FB0021032000F044FB6F
:10B8F0000021012000F040FB0021002000F03CFB73
:10B90000FEF7B0FF47F22F512948FEF725FE47F218
:10B910002F512848FEF720FE274805F05AFB2748FC
:10B9200005F057FB264B4FF000029A60254B4FF075
:10B9300000021A60244B4FF000021A60234B4FF0B4
:10B9400000021A60224B00221A60214B00225A602A
:10B950001F4B00229A6002F0BDF91E4B9B681E4AE5
:10B9600093601C4B5B681C4A53601B4B93ED027A3F
:10B97000194BD3ED017A77EE677A184BC3ED007A55
:10B98000042000F00FFB052000F00CFB002000F06D
:10B9900009FB022000F006FB032000F003FB01205E
:10B9A00000F000FB00BF0837BD4680BD28840108B9
:10B9B00024040040240800400C09002084060020D4
:10B9C000E8030020F80300201804002014040020DD
:10B9D0002004002044040020600400200C04002007
:10B9E0002DE9F043A7B006AFFFF75EFFFDF704FABD
:10B9F000FFF7DAFB394B00225A60384B00221A60FD
:10BA0000364B00229A600121042000F0B5FA012192
:10BA1000052000F0B1FA314B9968304B1A682F4B72
:10BA20005B682F4808F05CFA0021012000F0A4FABE
:10BA30000021022000F0A0FA0021032000F09CFA6F
:10BA40000021002000F098FA264B4FF000021A6007
:10BA5000032002F0FDF9234B234A1A60234B0022F6
:10BA60001A60234B00221A60224B00221A601D4BE1
:10BA70001B68214A9360214B00225A62204B00220E
:10BA80005A621A4B01221A60184B1B68002BFBD11B
:10BA9000174B1E68174B1B687B601A4B1B681846B8
:10BAA000FCF78AFC04460D46174B1B681846FCF74A
:10BAB00083FC80468946154B1B681846FCF77CFCC6
:10BAC00002460B46CDE90423CDE90289CDE90045C4
:10BAD0007A6831460E4808F003FAD5E720040020C2
:10BAE000448401085404002000007043DC0300205B
:10BAF000E4030020E0030020E803002000000140F0
:10BB0000000401405402002058020020F4090020E3
:10BB10007884010880B500AFFEF7A4FEFEF75EFF53
:10BB200000BF80BD80B500AFFFF7BEFEFDF764F932
:10BB3000FFF73AFB124B00225A60114B00221A60A9
:10BB40000F4B00229A600121042000F015FA012118
:10BB5000052000F011FA0021012000F00DFA01216A
:10BB6000022000F009FA0021032000F005FA054B3D
:10BB70004FF000021A60042002F06AF9FEE700BFED
:10BB8000200400205404002080B500AFFFF78CFE95
:10BB9000FDF732F9FFF708FB124B00225A60114BF8
:10BBA00000221A600F4B00229A600121042000F04D
:10BBB000E3F90121052000F0DFF90021012000F068
:10BBC000DBF90021022000F0D7F90121032000F069
:10BBD000D3F9054B4FF000021A60012002F038F94A
:10BBE000FEE700BF200400205404002080B500AF11
:10BBF000FFF75AFEFDF700F9FFF7D6FA124B0022C5
:10BC00005A60114B00221A600F4B00229A600121EA
:10BC1000042000F0B1F90121052000F0ADF9012167
:10BC2000012000F0A9F90021022000F0A5F900216F
:10BC3000032000F0A1F9054B4FF000021A6002202A
:10BC400002F006F9FEE700BF2004002054040020A3
:10BC500080B500AFFFF728FEFDF7CEF8FFF7A4FA96
:10BC6000144B00225A60134B00221A60114B002221
:10BC70009A600121042000F07FF90121052000F0E5
:10BC80007BF90121002000F077F90021012000F06C
:10BC900073F90021022000F06FF90021032000F069
:10BCA0006BF9054B4FF000021A60052002F0D0F846
:10BCB000FEE700BF20040020540400202DE9B04F0F
:10BCC00086B006AFFFF7F0FD384808F07DF9FDF7C4
:10BCD00093F8FFF769FA364808F076F9354B0022F9
:10BCE0005A60344B00221A60324B00229A600121C4
:10BCF000042000F041F90121052000F03DF92D4B11
:10BD000099682C4B1A682B4B5B682B4808F0E8F8B5
:10BD10000021012000F030F90021022000F02CF970
:10BD20000021032000F028F9244B4FF000021A6094
:10BD3000072002F08DF8224B1B681846FCF73CFBED
:10BD400082468B461E4BDB681846FCF735FB0446E3
:10BD50000D461B4B93ED007A194BD3ED037A77EE2A
:10BD6000277A17EE900AFCF727FB80468946144B8A
:10BD700093ED007A124BD3ED037A77EE277AB0EE8B
:10BD8000007AC7EE876A16EE900AFCF715FB0246AA
:10BD90000B46CDE90423CDE90289CDE900455246A1
:10BDA0005B46084808F09CF8C5E700BFAC84010872
:10BDB000B0840108200400204484010854040020B9
:10BDC00044040020B484010880B582B000AFFFF7BE
:10BDD0006BFD484808F0F8F8FDF70EF8FFF7E4F9B6
:10BDE000454808F0F1F8454B00225A60434B0022C9
:10BDF0001A60424B00229A600121042000F0BCF836
:10BE00000121052000F0B8F83C4B99683B4B1A68BB
:10BE10003A4B5B683A4808F063F80021012000F0D3
:10BE2000ABF80021022000F0A7F80021032000F069
:10BE3000A3F8344B344A1A60022002F009F80023B8
:10BE40007B60304BD3ED007AF0EE670A9FED2F0A4E
:10BE5000FDF7CAFF2E4B5B780133DAB22C4B5A70D8
:10BE60002DE07B6801337B607B6803F00103002BCE
:10BE700003D0072001F0ECFF02E0002001F0E8FF12
:10BE8000234B1878224B5978214BDA78214BD3ED8C
:10BE9000027A204B93ED017A1E4BD3ED006A1D4BC5
:10BEA00093ED036AF0EE461AB0EE661AF0EE470A1A
:10BEB000B0EE670AFFF7FEF95420FFF701FB144BC1
:10BEC0001B78032BCDD1124B5B78032BC9D1DFED4F
:10BED000120A9FED120AFEF70BF8072000F0D0F9C6
:10BEE00000237B6002E07B6801337B607B68092B69
:10BEF000F9DDF5E7AC840108B084010820040020D6
:10BF0000448401085404002000007043000076427D
:10BF100000000020440400200000000000000C424B
:10BF200080B485B000AFF86087ED020AC7ED010A62
:10BF300087ED001A0F4AFB682C2101FB03F3134421
:10BF4000BA681A600B4AFB682C2101FB03F3134407
:10BF500004337A681A60074AFB682C2101FB03F35B
:10BF6000134408333A681A6000BF1437BD465DF8C1
:10BF7000047B70475C02002080B483B000AF78601F
:10BF80003960074A7B682C2101FB03F313442833F3
:10BF90003A681A6000BF0C37BD465DF8047B7047F5
:10BFA0005C02002080B483B000AF78601B4A7B68DD
:10BFB0002C2101FB03F313440C334FF000021A60F1
:10BFC000164A7B682C2101FB03F3134410334FF016
:10BFD00000021A60114A7B682C2101FB03F3134411
:10BFE00014334FF000021A600C4A7B682C2101FBCD
:10BFF00003F3134418334FF000021A60074A7B68BA
:10C000002C2101FB03F31344243300221A6000BFE8
:10C010000C37BD465DF8047B704700BF5C02002012
:10C0200090B585B000AFF86087ED020AC7ED010A50
:10C03000904AFB682C2101FB03F3134428331B684F
:10C04000002B32D18B4AFB682C2101FB03F31344F4
:10C050000C334FF000021A60864AFB682C2101FB6A
:10C0600003F3134410334FF000021A60814AFB6857
:10C070002C2101FB03F3134414334FF000021A6028
:10C080007C4AFB682C2101FB03F3134418334FF067
:10C0900000021A60774AFB682C2101FB03F313446A
:10C0A000243300221A600023DFE0724AFB682C214F
:10C0B00001FB03F313442033BA681A606D4AFB682E
:10C0C0002C2101FB03F313441C337A681A60694A7C
:10C0D000FB682C2101FB03F31344203393ED007A1A
:10C0E000644AFB682C2101FB03F313441C33D3ED9A
:10C0F000007A77EE677A5F4AFB682C2101FB03F335
:10C1000013440C33C3ED007A5A4AFB682C2101FB1F
:10C1100003F31344103393ED007A564AFB682C2145
:10C1200001FB03F313440C33D3ED007ADFED526AC5
:10C1300067EEA67A77EE277A4E4AFB682C2101FB40
:10C1400003F313441033C3ED007A4A4AFB682C21F1
:10C1500001FB03F313440C3393ED007A454AFB686B
:10C160002C2101FB03F313441833D3ED007A77EE4F
:10C17000677A9FED427A67EE877A3E4AFB682C2108
:10C1800001FB03F313441433C3ED007A394AFB680F
:10C190002C2101FB03F313440C331A683549FB6867
:10C1A0002C2000FB03F30B4418331A60314AFB6860
:10C1B0002C2101FB03F3134493ED007A2D4AFB6815
:10C1C0002C2101FB03F313440C33D3ED007A27EE4B
:10C1D000277A284AFB682C2101FB03F3134404331C
:10C1E000D3ED006A234AFB682C2101FB03F31344BF
:10C1F0001033D3ED007A66EEA77A37EE277A1D4A20
:10C20000FB682C2101FB03F313440833D3ED006AD0
:10C21000184AFB682C2101FB03F313441433D3EDBC
:10C22000007A66EEA77A77EE277A17EE900AFCF787
:10C23000C3F803460C4644EC103B06F08BFF54EC6D
:10C24000103B18462146FCF7BFFB0A4AFB682C212D
:10C2500001FB03F3134424331860064AFB682C21C6
:10C2600001FB03F3134424331B6818461437BD46FF
:10C2700090BD00BF5C0200206F12833AFFFF79443B
:10C2800080B584B000AF78600023FB600EE0786872
:10C2900001F0DEFD642001F0CDFF002001F0D8FDAB
:10C2A000642001F0C7FFFB680133FB60FB68042BCF
:10C2B000EDDD00BF1037BD4680BD000080B586B003
:10C2C00000AF78609FED121ADFED120AB0EE080A97
:10C2D0007868FEF7B9F987ED050A03210220FEF719
:10C2E000DDF9386138699FED0C1ADFED0C0A97ED26
:10C2F000050AFEF7F0F9F860F968094807F0F0FD63
:10C30000F868FFF7BDFF00BF1837BD4680BD00BF0E
:10C310000000804533335340666606416666E6405A
:10C32000C884010880B586B002AF03463A60FB714D
:10C330000B46BB7101F070FD01F0F2FA494804F0C0
:10C3400048FE01F049FD3B68FA791A7047F22F5117
:10C350004548FEF701F96DE0444BDB681846FCF7F1
:10C360002BF80A460146FB68009313460A464048EC
:10C3700007F0B6FD3F4B5B6AFB60FB6807EE903A47
:10C38000F8EEE77A9FED3C7AF4EEC77AF1EE10FA18
:10C3900021DB3B6893F90030DBB20133DBB25AB2E8
:10C3A0003B681A703B6893F9003097F906209A426F
:10C3B00002DA3B68FA791A703B6893F90030184644
:10C3C00001F046FD47F22F512748FEF7C5F84FF41C
:10C3D000FA7001F02FFFFB6807EE903AF8EEE77A6B
:10C3E0009FED267AF4EEC77AF1EE10FA00D921E03B
:10C3F0003B6893F90030DBB2013BDBB25AB23B68D9
:10C400001A703B6893F9003097F907209A4202DDD1
:10C410003B68BA791A703B6893F90030184601F00E
:10C4200017FD47F22F511048FEF796F84FF4FA70B7
:10C4300001F000FF0D4BD3ED037A9FED117AF4EE7E
:10C44000C77AF1EE10FA87D401F0F4FC01F088FA13
:10C45000044804F0E2FD01F0CFFC00BF1037BD46F8
:10C4600080BD00BF84060020240400404404002056
:10C47000D084010800040040002F354700BC54461A
:10C4800000007A4380B582B000AF7860391D4FF666
:10C49000FF730122034806F057F97B6818460837F6
:10C4A000BD4680BD6C08002080B582B000AF02237D
:10C4B000FB7107E0B91D0A230122064806F0DDF9E9
:10C4C0000346FB71FB79002BF4D1BB791846083782
:10C4D000BD4680BD6C08002080B582B000AF01F081
:10C4E00037FE00F0B5F800F0FFFC00F0D5FC00F0DE
:10C4F00019F900F085F900F0DFFA00F067FA00F0B2
:10C50000DFF900F09FFC00F07FFB00F029FB00F05A
:10C51000F1FB00F00BFA01F003FA4FF4FA7001F0AE
:10C5200089FE414B9B681846FFF7C8FE0023FB714C
:10C5300097F9073019463D4807F0D2FCFB1D1A4613
:10C5400007210020FFF7EEFE97F907301846FFF7A6
:10C5500097FE374807F038FD9FED361ADFED360AB3
:10C560009FED360A0420FFF7DBFC9FED321ADFED6A
:10C57000320A9FED320A0520FFF7D2FC9FED301AF8
:10C58000DFED2F0A9FED2F0A0020FFF7C9FC9FED7A
:10C590002C1ADFED2B0A9FED2C0A0120FFF7C0FCBF
:10C5A0009FED271ADFED260A9FED280A0220FFF7EC
:10C5B000B7FC9FED231ADFED220A9FED240A03202A
:10C5C000FFF7AEFC97F90730072B2BD801A252F8E2
:10C5D00023F000BFF5C50008FBC5000801C6000830
:10C5E00007C600080DC6000813C6000819C60008D3
:10C5F0001FC60008FFF78EFA15E0FFF7C5FA12E034
:10C60000FFF7F4FA0FE0FFF7EBF90CE0FFF78AFA17
:10C6100009E0FFF71DFB06E0FFF7D6FB03E0FFF79D
:10C620004DFB00E000BFCDE7C0030020EC84010813
:10C63000F88401086F12033B00E017459A993141D5
:10C64000000000000000FA45CDCCAC40CDCC2C4120
:10C6500080B594B000AF07F12003302200211846C6
:10C6600006F0F7FD07F10C0300221A605A609A6089
:10C67000DA601A610023BB60284B1B6C274A43F029
:10C6800080531364254B1B6C03F08053BB60BB6865
:10C6900000237B60224B1B68214A43F480431360D4
:10C6A0001F4B1B6803F480437B607B6801233B6264
:10C6B0004FF480337B620223BB634FF48003FB6340
:10C6C00004233B64A8237B640223BB640423FB6430
:10C6D00007F12003184603F09BFA0346002B01D014
:10C6E00000F0CCFC0F23FB6002233B6100237B6145
:10C6F0004FF4A053BB614FF48053FB6107F10C036F
:10C700000521184603F0F4FC0346002B01D000F08D
:10C71000B5FC00BF5037BD4680BD00BF00380240A9
:10C720000070004080B584B000AF3B4600221A6024
:10C730005A609A60DA602F4B2F4A1A602D4B4FF4E3
:10C7400000325A602B4B00229A602A4B01221A6158
:10C75000284B01221A76274B002283F82020254BF4
:10C760000022DA62234B254A9A62224B0022DA60C9
:10C77000204B0322DA611F4B012283F830201D4B2E
:10C7800001225A611B4801F077FD0346002B01D0BE
:10C7900000F074FC0A233B6001237B600323BB6031
:10C7A0003B461946134801F005FF0346002B01D014
:10C7B00000F064FC0E233B6002237B603B4619467D
:10C7C0000C4801F0F7FE0346002B01D000F056FCA8
:10C7D00009233B6003237B603B461946054801F073
:10C7E000E9FE0346002B01D000F048FC00BF1037E3
:10C7F000BD4680BD24080020002001400100000F3C
:10C8000080B584B000AF3B4600221A605A609A603F
:10C81000DA60284B284A1A60264B4FF400325A60DF
:10C82000244B00229A60234B01221A61214B0122E2
:10C830001A76204B002283F820201E4B0022DA6259
:10C840001C4B1E4A9A621B4B0022DA60194B0222D3
:10C85000DA61184B012283F83020164B01225A610D
:10C86000144801F009FD0346002B01D000F006FC3E
:10C870000B233B6001237B600323BB603B461946CF
:10C880000C4801F097FE0346002B01D000F0F6FBA8
:10C890000F233B6002237B603B461946054801F0AD
:10C8A00089FE0346002B01D000F0E8FB00BF1037E3
:10C8B000BD4680BD04070020002101400100000F9B
:10C8C00080B500AF174B184A1A60164B4FF48272AE
:10C8D0005A60144B00229A60124B0022DA60114B0E
:10C8E00002221A610F4B01225A610E4B4FF4007263
:10C8F0009A610C4B2822DA610A4B00221A62094B1A
:10C9000000225A62074B00229A62064B0A22DA6220
:10C91000044803F0DFFD0346002B01D000F0AEFB1E
:10C9200000BF80BDCC070020003C004080B586B031
:10C9300000AF07F1080300221A605A609A60DA60BB
:10C940003B4600221A605A601E4B1F4A1A601D4B5C
:10C95000A7225A601B4B00229A601A4B40F2E73222
:10C96000DA60184B00221A61164B00225A61154BEF
:10C9700000229A61134804F001FB0346002B01D00A
:10C9800000F07CFB4FF48053BB6007F108031946AD
:10C990000C4805F0CBF80346002B01D000F06EFBED
:10C9A00000233B6000237B603B461946054805F0A9
:10C9B00077FD0346002B01D000F060FB00BF183765
:10C9C000BD4680BD0C0900200000014080B58EB03E
:10C9D00000AF07F1280300221A605A609A60DA60FB
:10C9E00007F1200300221A605A603B1D00221A60E2
:10C9F0005A609A60DA601A615A619A612D4B4FF061
:10CA000080421A602B4B00225A602A4B00229A6007
:10CA1000284B41F26702DA60264B00221A61254B4F
:10CA200000229A61234804F0A9FA0346002B01D0A2
:10CA300000F024FB4FF48053BB6207F12803194632
:10CA40001C4805F073F80346002B01D000F016FBDC
:10CA5000184804F061FC0346002B01D000F00EFBE7
:10CA600000233B6200237B6207F120031946114833
:10CA700005F016FD0346002B01D000F0FFFA6023FD
:10CA80007B600023BB600023FB6000237B613B1DB8
:10CA90000C221946074804F083FF0346002B01D0FF
:10CAA00000F0ECFA034800F043FD00BF3837BD4604
:10CAB00080BD00BF4C09002080B58CB000AF07F1ED
:10CAC0000C0324220021184606F0C3FB3B1D002264
:10CAD0001A605A60204B214A1A601F4B00225A608C
:10CAE0001D4B00229A601C4B4EF65F22DA601A4BF7
:10CAF00000221A61184B00229A610323FB60002375
:10CB00003B6101237B610023BB610023FB610023A8
:10CB10003B6201237B620023BB620023FB6207F1BF
:10CB20000C0319460C4804F0C3FC0346002B01D04B
:10CB300000F0A4FA00237B600023BB603B1D194674
:10CB4000054805F0ADFC0346002B01D000F096FA35
:10CB500000BF3037BD4680BD8C0700200004004078
:10CB600080B58CB000AF07F10C03242200211846D9
:10CB700006F06FFB3B1D00221A605A60204B214AD1
:10CB80001A601F4B00225A601D4B00229A601C4BFA
:10CB90004EF65F22DA601A4B00221A61184B00220F
:10CBA0009A610323FB6000233B6101237B61002327
:10CBB000BB610023FB6100233B6201237B620023F6
:10CBC000BB620023FB6207F10C0319460C4804F01A
:10CBD0006FFC0346002B01D000F050FA00237B606D
:10CBE0000023BB603B1D1946054805F059FC034670
:10CBF000002B01D000F042FA00BF3037BD4680BDA7
:10CC0000C40600200008004080B58EB000AF07F1D8
:10CC1000280300221A605A609A60DA6007F1200344
:10CC200000221A605A603B1D00221A605A609A6006
:10CC3000DA601A615A619A612C4B2D4A1A602B4BAB
:10CC400000225A60294B00229A60284B41F2670269
:10CC5000DA60264B00221A61244B00229A61234895
:10CC600004F08CF90346002B01D000F007FA4FF4D2
:10CC70008053BB6207F1280319461C4804F056FF95
:10CC80000346002B01D000F0F9F9184804F044FBEA
:10CC90000346002B01D000F0F1F900233B62002392
:10CCA0007B6207F120031946104805F0F9FB0346A3
:10CCB000002B01D000F0E2F960237B600023BB6011
:10CCC0000023FB6000237B613B1D042219460748BB
:10CCD00004F066FE0346002B01D000F0CFF90348B4
:10CCE00000F026FC00BF3837BD4680BD4C07002051
:10CCF000000C004080B596B000AF07F14803002259
:10CD00001A605A609A60DA6007F1400300221A60E4
:10CD10005A6007F1240300221A605A609A60DA60B0
:10CD20001A615A619A613B1D20220021184606F0C3
:10CD300090FA424B424A1A60404BA7225A603F4B3E
:10CD400000229A603D4B3122DA603C4B00221A618E
:10CD50003A4B00225A61394B80229A61374804F0DD
:10CD60000DF90346002B01D000F088F94FF48053F1
:10CD7000BB6407F148031946304804F0D7FE034668
:10CD8000002B01D000F07AF92C4804F071F9034629
:10CD9000002B01D000F072F900233B6400237B6478
:10CDA00007F140031946254805F07AFB0346002B9E
:10CDB00001D000F063F930237B621823BB620023AB
:10CDC000FB6200233B6300237B630023BB630023E0
:10CDD000FB6307F1240300221946184804F080FD84
:10CDE0000346002B01D000F049F9144B1B689A69E7
:10CDF000124B1B6842F008029A6100237B600023FB
:10CE0000BB600023FB6000233B6100237B614FF488
:10CE10000053BB6100233B623B1D1946074805F0E8
:10CE2000BBFB0346002B01D000F028F9034800F0BB
:10CE30007FFB00BF5837BD4680BD00BF8406002081
:10CE40000004014080B500AF114B124A1A60104B2C
:10CE50004FF4E1325A600E4B00229A600C4B0022D4
:10CE6000DA600B4B00221A61094B0C225A61084B05
:10CE700000229A61064B0022DA61054805F017FC92
:10CE80000346002B01D000F0F9F800BF80BD00BFC1
:10CE90006C0800200010014080B582B000AF002374
:10CEA0007B60104B1B6B0F4A43F4800313630D4BE5
:10CEB0001B6B03F480037B607B6800220021382019
:10CEC00001F0F3FE382001F00CFF002200213A208F
:10CED00001F0EBFE3A2001F004FF00BF0837BD4629
:10CEE00080BD00BF0038024080B58AB000AF07F1B6
:10CEF000140300221A605A609A60DA601A610023F3
:10CF00003B61594B1B6B584A43F080031363564BEC
:10CF10001B6B03F080033B613B690023FB60524BBA
:10CF20001B6B514A43F0040313634F4B1B6B03F01D
:10CF30000403FB60FB680023BB604B4B1B6B4A4A3E
:10CF400043F001031363484B1B6B03F00103BB6009
:10CF5000BB6800237B60444B1B6B434A43F00203D6
:10CF60001363414B1B6B03F002037B607B68002360
:10CF70003B603D4B1B6B3C4A43F0080313633A4B49
:10CF80001B6B03F008033B603B6800224FF44171C8
:10CF9000364802F023FE00220521354802F01EFE2D
:10CFA00000220421334802F019FE00224FF40071E0
:10CFB000314802F013FE4FF441737B610123BB61E2
:10CFC0000023FB6100233B6207F114031946274845
:10CFD00002F06AFC05237B610123BB610023FB6136
:10CFE00000233B6207F114031946214802F05CFC60
:10CFF00041F204037B610023BB610023FB6107F165
:10D00000140319461C4802F04FFC4FF480437B6127
:10D010000023BB610023FB6107F114031946144888
:10D0200002F042FC04237B610123BB610023FB610E
:10D0300000233B6207F1140319460E4802F034FC4A
:10D040004FF400737B610123BB610023FB6100236C
:10D050003B6207F114031946074802F025FC00BFA4
:10D060002837BD4680BD00BF00380240000802409E
:10D0700000000240000C02400004024080B400AFF7
:10D0800072B6FEE780B483B000AF00237B60104B24
:10D090005B6C0F4A43F4804353640D4B5B6C03F4A9
:10D0A00080437B607B6800233B60094B1B6C084A14
:10D0B00043F080531364064B1B6C03F080533B60BA
:10D0C0003B6800BF0C37BD465DF8047B704700BF6E
:10D0D0000038024080B58CB000AF786007F11C03C7
:10D0E00000221A605A609A60DA601A617B681B68D5
:10D0F0006B4A934272D10023BB616A4B5B6C694AF5
:10D1000043F480735364674B5B6C03F48073BB61BF
:10D11000BB6900237B61634B1B6B624A43F00403D2
:10D120001363604B1B6B03F004037B617B6900237B
:10D130003B615C4B1B6B5B4A43F002031363594B2F
:10D140001B6B03F002033B613B691123FB6103236B
:10D150003B6200237B6207F11C031946524802F030
:10D16000A3FB0223FB6103233B6200237B6207F1E5
:10D170001C0319464D4802F097FB4D4B4D4A1A606F
:10D180004B4B00225A604A4B00229A60484B0022C7
:10D19000DA60474B4FF480621A61454B4FF480527E
:10D1A0005A61434B4FF480429A61414B4FF4807275
:10D1B000DA613F4B00221A623D4B00225A623C4822
:10D1C00001F0AAFD0346002B01D0FFF757FF7B6853
:10D1D000374A9A63364A7B6893635DE07B681B68D5
:10D1E000354A934258D10023FB602E4B5B6C2D4A8D
:10D1F00043F4007353642B4B5B6C03F40073FB60CC
:10D20000FB680023BB60274B1B6B264A43F00403DB
:10D210001363244B1B6B03F00403BB60BB68222326
:10D22000FB6103233B6200237B6207F11C03194669
:10D230001D4802F039FB214B214A1A601F4B4FF069
:10D2400000725A601D4B00229A601C4B0022DA606B
:10D250001A4B4FF480621A61184B4FF480525A6196
:10D26000164B4FF480429A61144B4FF48072DA618E
:10D27000124B00221A62114B00225A620F4801F031
:10D280004BFD0346002B01D0FFF7F8FE7B680B4AED
:10D290009A630A4A7B68936300BF3037BD4680BDFE
:10D2A0000020014000380240000802400004024013
:10D2B000AC08002010640240002101408C090020CD
:10D2C0004064024080B58AB000AF786007F1140373
:10D2D00000221A605A609A60DA601A617B681B68E3
:10D2E000194A93422CD100233B61184B1B6C174AFF
:10D2F00043F400431364154B1B6C03F400433B6180
:10D300003B690023FB60114B1B6B104A43F0040385
:10D3100013630E4B1B6B03F00403FB60FB684FF4BD
:10D32000E0537B610223BB610023FB6103233B626B
:10D3300006237B6207F114031946054802F0B4FA8C
:10D3400000BF2837BD4680BD003C00400038024089
:10D350000008024080B586B000AF78607B681B682B
:10D36000304A934216D100237B612F4B5B6C2E4ACF
:10D3700043F0010353642C4B5B6C03F001037B61AE
:10D380007B6900220121192001F08FFC192001F096
:10D39000A8FC42E07B681B68B3F1804F0ED10023EC
:10D3A0003B61214B1B6C204A43F0010313641E4B6D
:10D3B0001B6C03F001033B613B692EE07B681B683B
:10D3C0001A4A93420ED10023FB60174B1B6C164A7E
:10D3D00043F008031364144B1B6C03F00803FB6059
:10D3E000FB681AE07B681B68114A934215D1002341
:10D3F000BB600D4B5B6C0C4A43F0020353640A4B59
:10D400005B6C03F00203BB60BB68002202212C208E
:10D4100001F04BFC2C2001F064FC00BF1837BD4626
:10D4200080BD00BF0000014000380240000C0040F9
:10D430000004014080B58CB000AF786007F11C0398
:10D4400000221A605A609A60DA601A617B681B6871
:10D45000324A93422CD10023BB61314B1B6C304AC2
:10D4600043F0020313642E4B1B6C03F00203BB61F9
:10D47000BB6900237B612A4B1B6B294A43F00103E4
:10D480001363274B1B6B03F001037B617B69C02394
:10D49000FB6102233B6200237B620023BB62022309
:10D4A000FB6207F11C0319461E4802F0FDF930E04B
:10D4B0007B681B681C4A93422BD100233B61184BAD
:10D4C0001B6C174A43F004031364154B1B6C03F0E9
:10D4D00004033B613B690023FB60114B1B6B104A4B
:10D4E00043F0020313630E4B1B6B03F00203FB605C
:10D4F000FB68C023FB6102233B6200237B620023A5
:10D50000BB620223FB6207F11C031946074802F0C5
:10D51000CBF900BF3037BD4680BD00BF00040040DE
:10D5200000380240000002400008004000040240B1
:10D5300080B58CB000AF786007F11C0300221A6040
:10D540005A609A60DA601A617B681B68B3F1804F99
:10D550001ED10023BB61434B1B6B424A43F00103C6
:10D560001363404B1B6B03F00103BB61BB690823D2
:10D57000FB6102233B6200237B620323BB62012326
:10D58000FB6207F11C031946374802F08DF964E08D
:10D590007B681B68354A93421ED100237B61314B67
:10D5A0001B6B304A43F0010313632E4B1B6B03F0DC
:10D5B00001037B617B690223FB6102233B62002341
:10D5C0007B620023BB620223FB6207F11C03194646
:10D5D000254802F069F940E07B681B68244A9342C1
:10D5E0003BD100233B611F4B1B6B1E4A43F00103E1
:10D5F00013631C4B1B6B03F001033B613B6900236E
:10D60000FB60184B1B6B174A43F004031363154B65
:10D610001B6B03F00403FB60FB682023FB61022308
:10D620003B6200237B620023BB620323FB6207F1A2
:10D630001C0319460C4802F037F94023FB61022312
:10D640003B6200237B620023BB620323FB6207F182
:10D650001C031946074802F027F900BF3037BD46C2
:10D6600080BD00BF0038024000000240000C0040B6
:10D67000000401400008024080B58AB000AF786025
:10D6800007F1140300221A605A609A60DA601A6186
:10D690007B681B68194A93422CD100233B61184BCD
:10D6A0005B6C174A43F010035364154B5B6C03F03B
:10D6B00010033B613B690023FB60114B1B6B104A5D
:10D6C00043F0010313630E4B1B6B03F00103FB607C
:10D6D000FB684FF4C0637B610223BB610023FB61E5
:10D6E00003233B6207237B6207F1140319460548B5
:10D6F00002F0DAF800BF2837BD4680BD00100140B7
:10D70000003802400000024080B400AFFEE780B461
:10D7100000AFFEE780B400AFFEE780B400AFFEE7E5
:10D7200080B400AFFEE780B400AF00BFBD465DF837
:10D73000047B704780B400AF00BFBD465DF8047B3A
:10D74000704780B400AF00BFBD465DF8047B7047F2
:10D7500080B500AF00F04EFD00BF80BD80B500AFCA
:10D76000024803F0B5FF00BF80BD00BF0C090020D8
:10D7700080B500AF024803F0ABFF00BF80BD00BF23
:10D780008406002080B500AF024801F03BFC00BFDA
:10D7900080BD00BFAC08002080B500AF024801F09A
:10D7A00031FC00BF80BD00BF8C09002080B400AFF9
:10D7B000084BD3F88830074A43F47003C2F8883026
:10D7C000044B4FF000629A6000BFBD465DF8047BD9
:10D7D000704700BF00ED00E080B586B000AFF86094
:10D7E000B9607A6000237B610AE0FEF75DFE0146C6
:10D7F000BB685A1CBA60CAB21A707B6901337B617C
:10D800007A697B689A42F0DB7B6818461837BD4618
:10D8100080BD80B586B000AFF860B9607A60002343
:10D820007B6109E0BB685A1CBA601B781846FEF79A
:10D8300029FE7B6901337B617A697B689A42F1DB5F
:10D840007B6818461837BD4680BD80B483B000AFF2
:10D8500078604FF0FF3318460C37BD465DF8047B07
:10D86000704780B483B000AF786039603B684FF494
:10D8700000525A60002318460C37BD465DF8047B01
:10D88000704780B483B000AF7860012318460C372E
:10D89000BD465DF8047B704780B485B000AFF8608A
:10D8A000B9607A60002318461437BD465DF8047BE2
:10D8B0007047000080B586B000AF7860144A154B01
:10D8C000D31A7B617B693B61134B1B68002B02D130
:10D8D000114B124A1A60104B1A687B6813443A695C
:10D8E0009A4207D205F080FC02460C2313604FF0E9
:10D8F000FF3309E0084B1B68FB60074B1A687B6825
:10D900001344054A1360FB6818461837BD4680BDAE
:10D910000000022000040000BC030020300A0020A8
:10D9200080B500AF03220A490A4800F0E9FC03462B
:10D93000002B01D0FFF7A2FB02220749074800F0A5
:10D94000DFFC0346002B01D0FFF798FB00BF80BD32
