:020000040800F2
:1000000000000220F1FB000835F000083BF000087A
:1000100041F0000847F000084DF000080000000023
:1000200000000000000000000000000053F0000885
:1000300061F00008000000006FF000087DF000088B
:1000400041FC000841FC000841FC000841FC00089C
:1000500041FC000841FC000841FC000841FC00088C
:1000600089F0000841FC000841FC000841FC000840
:1000700041FC000841FC000841FC000841FC00086C
:1000800041FC000841FC000841FC000841FC00085C
:1000900041FC000841FC000841FC000841FC00084C
:1000A00041FC000899F0000841FC000841FC0008F0
:1000B00041FC000841FC000841FC000841FC00082C
:1000C00041FC000841FC000841FC000841FC00081C
:1000D00041FC000841FC000841FC000841FC00080C
:1000E00041FC000841FC000841FC000841FC0008FC
:1000F000ADF0000841FC000841FC000841FC00088C
:1001000041FC000841FC000841FC000841FC0008DB
:1001100041FC000841FC000841FC000841FC0008CB
:10012000C1F0000841FC0008D5F0000841FC0008BF
:1001300041FC0008000000000000000041FC000835
:1001400041FC000841FC000841FC000841FC00089B
:1001500041FC000841FC000841FC000841FC00088B
:1001600041FC000841FC000841FC000841FC00087B
:1001700041FC000841FC00080000000000000000F5
:0801800041FC000841FC0008ED
:1080000010B5054C237833B9044B13B10448AFF3D2
:1080100000800123237010BDF80100200000000043
:10802000A8A7010808B5034B1BB103490348AFF3E8
:10803000008008BD00000000FC010020A8A7010886
:10804000034613F8012B002AFBD1181A0138704798
:1080500001F0FF01102A2BDB10F0070F08D010F8F9
:10806000013B013A8B422DD010F0070F42B3F6D1FD
:10807000F0B441EA012141EA014122F007047FF016
:1080800000070023F0E80256083C85EA010586EA6D
:10809000010685FA47F5A3FA87F586FA47F6A5FAA9
:1080A00087F68EB9EED1F0BC01F0FF0102F00702B5
:1080B00032B110F8013B013A83EA010313B1F8D160
:1080C0000020704701387047002D06BF3546033841
:1080D000073815F0010F07D1013015F4807F02BF7A
:1080E000013015F4C03F0130F0BC0138704700BFCB
:1080F00081F0004102E000BF83F0004330B54FEA59
:1081000041044FEA430594EA050F08BF90EA020FC5
:108110001FBF54EA000C55EA020C7FEA645C7FEA58
:10812000655C00F0E2804FEA5454D4EB5555B8BF7B
:108130006D420CDD2C4480EA020281EA030382EAEC
:10814000000083EA010180EA020281EA0303362D7E
:1081500088BF30BD11F0004F4FEA01314FF4801C51
:108160004CEA113102D0404261EB410113F0004F63
:108170004FEA03334CEA133302D0524263EB43031A
:1081800094EA050F00F0A780A4F10104D5F1200EB8
:108190000DDB02FA0EFC22FA05F2801841F1000113
:1081A00003FA0EF2801843FA05F359410EE0A5F1E7
:1081B00020050EF1200E012A03FA0EFC28BF4CF018
:1081C000020C43FA05F3C01851EBE37101F00045CE
:1081D00007D54FF0000EDCF1000C7EEB00006EEBDB
:1081E0000101B1F5801F1BD3B1F5001F0CD3490865
:1081F0005FEA30004FEA3C0C04F101044FEA4452BC
:1082000012F5800F80F09A80BCF1004F08BF5FEA42
:10821000500C50F1000041EB045141EA050130BD22
:108220005FEA4C0C404141EB010111F4801FA4F1C5
:108230000104E9D191F0000F04BF01460020B1FA1A
:1082400081F308BF2033A3F10B03B3F120020CDA52
:108250000C3208DD02F1140CC2F10C0201FA0CF030
:1082600021FA02F10CE002F11402D8BFC2F1200C95
:1082700001FA02F120FA0CFCDCBF41EA0C0190404B
:10828000E41AA2BF01EB0451294330BD6FEA040494
:108290001F3C1CDA0C340EDC04F11404C4F120027F
:1082A00020FA04F001FA02F340EA030021FA04F391
:1082B00045EA030130BDC4F10C04C4F1200220FAE8
:1082C00002F001FA04F340EA0300294630BD21FA26
:1082D00004F0294630BD94F0000F83F4801306BFEC
:1082E00081F480110134013D4EE77FEA645C18BFE0
:1082F0007FEA655C29D094EA050F08BF90EA020F77
:1083000005D054EA000C04BF1946104630BD91EA6E
:10831000030F1EBF0021002030BD5FEA545C05D171
:108320004000494128BF41F0004130BD14F58004B0
:108330003CBF01F5801130BD01F0004545F0FE4124
:1083400041F470014FF0000030BD7FEA645C1ABF59
:10835000194610467FEA655C1CBF0B46024650EA90
:10836000013406BF52EA033591EA030F41F40021BC
:1083700030BD00BF90F0000F04BF0021704730B542
:108380004FF4806404F132044FF000054FF0000117
:1083900050E700BF90F0000F04BF0021704730B5D8
:1083A0004FF4806404F1320410F0004548BF4042AD
:1083B0004FF000013EE700BF42004FEAE2014FEA02
:1083C00031014FEA02701FBF12F07F4393F07F4FDD
:1083D00081F06051704732F07F4208BF704793F0E0
:1083E0007F4F04BF41F40021704730B54FF46074F3
:1083F00001F0004521F000411CE700BF50EA0102F6
:1084000008BF704730B54FF000050AE050EA01029E
:1084100008BF704730B511F0004502D5404261EB0E
:1084200041014FF4806404F132045FEA915C3FF44F
:10843000D8AE4FF003025FEADC0C18BF03325FEAEC
:10844000DC0C18BF033202EBDC02C2F1200300FA9D
:1084500003FC20FA02F001FA03FE40EA0E0021FAC2
:1084600002F11444BDE600BF70B54FF0FF0C4CF4B0
:10847000E06C1CEA11541DBF1CEA135594EA0C0F62
:1084800095EA0C0F00F0DEF82C4481EA030621EA9D
:108490004C5123EA4C5350EA013518BF52EA0335D8
:1084A00041F4801143F4801338D0A0FB02CE4FF08A
:1084B0000005E1FB02E506F00042E0FB03E54FF0BA
:1084C0000006E1FB03569CF0000F18BF4EF0010EB2
:1084D000A4F1FF04B6F5007F64F5407404D25FEAAE
:1084E0004E0E6D4146EB060642EAC62141EA555161
:1084F0004FEAC52040EA5E504FEACE2EB4F1FD0CA3
:1085000088BFBCF5E06F1ED8BEF1004F08BF5FEA20
:10851000500E50F1000041EB045170BD06F00046D2
:1085200046EA010140EA020081EA0301B4EB5C047F
:10853000C2BFD4EB0C0541EA045170BD41F4801177
:108540004FF0000E013C00F3AB8014F1360FDEBF9C
:10855000002001F0004170BDC4F10004203C35DA78
:108560000C341BDC04F11404C4F1200500FA05F3FB
:1085700020FA04F001FA05F240EA020001F000429C
:1085800021F0004110EBD37021FA04F642EB060112
:108590005EEA430E08BF20EAD37070BDC4F10C043C
:1085A000C4F1200500FA04F320FA05F001FA04F200
:1085B00040EA020001F0004110EBD37041F10001EC
:1085C0005EEA430E08BF20EAD37070BDC4F12005F7
:1085D00000FA05F24EEA020E20FA04F301FA05F25F
:1085E00043EA020321FA04F001F0004121FA04F207
:1085F00020EA020000EBD3705EEA430E08BF20EAD7
:10860000D37070BD94F0000F0FD101F00046400010
:1086100041EB010111F4801F08BF013CF7D041EA92
:10862000060195F0000F18BF704703F00046520096
:1086300043EB030313F4801F08BF013DF7D043EA67
:108640000603704794EA0C0F0CEA135518BF95EA1D
:108650000C0F0CD050EA410618BF52EA4306D1D1A4
:1086600081EA030101F000414FF0000070BD50EAC3
:10867000410606BF1046194652EA430619D094EA4D
:108680000C0F02D150EA013613D195EA0C0F05D137
:1086900052EA03361CBF104619460AD181EA03018B
:1086A00001F0004141F0FE4141F470014FF0000043
:1086B00070BD41F0FE4141F4780170BD70B54FF0DE
:1086C000FF0C4CF4E06C1CEA11541DBF1CEA13555E
:1086D00094EA0C0F95EA0C0F00F0A7F8A4EB050440
:1086E00081EA030E52EA03354FEA013100F0888037
:1086F0004FEA03334FF0805545EA131343EA126300
:108700004FEA022245EA111545EA10654FEA0026B4
:108710000EF000419D4208BF964244F1FD0404F56D
:10872000407402D25B084FEA3202B61A65EB0305C9
:108730005B084FEA32024FF480104FF4002CB6EB86
:10874000020E75EB030E22BFB61A754640EA0C0006
:108750005B084FEA3202B6EB020E75EB030E22BF46
:10876000B61A754640EA5C005B084FEA3202B6EB87
:10877000020E75EB030E22BFB61A754640EA9C0046
:108780005B084FEA3202B6EB020E75EB030E22BF16
:10879000B61A754640EADC0055EA060E18D04FEAD4
:1087A000051545EA16754FEA06164FEAC30343EA74
:1087B00052734FEAC2025FEA1C1CC0D111F4801F41
:1087C0000BD141EA00014FF000004FF0004CB6E73A
:1087D00011F4801F04BF01430020B4F1FD0C88BFD9
:1087E000BCF5E06F3FF6AFAEB5EB030C04BFB6EBE4
:1087F000020C5FEA500C50F1000041EB045170BDD7
:108800000EF0004E4EEA113114EB5C04C2BFD4EB03
:108810000C0541EA045170BD41F480114FF0000E87
:10882000013C90E645EA060E8DE60CEA135594EA03
:108830000C0F08BF95EA0C0F3FF43BAF94EA0C0F06
:108840000AD150EA01347FF434AF95EA0C0F7FF47B
:1088500025AF104619462CE795EA0C0F06D152EACF
:1088600003353FF4FDAE1046194622E750EA4106B3
:1088700018BF52EA43067FF4C5AE50EA41047FF4C4
:108880000DAF52EA43057FF4EBAE12E74FF0FF3C29
:1088900006E000BF4FF0010C02E000BF4FF0010CFA
:1088A0004DF804CD4FEA410C7FEA6C5C4FEA430C73
:1088B00018BF7FEA6C5C1BD001B050EA410C0CBFC2
:1088C00052EA430C91EA030F02BF90EA020F002024
:1088D000704710F1000F91EA030F58BF994208BF8B
:1088E00090422CBFD8176FEAE37040F00100704748
:1088F0004FEA410C7FEA6C5C02D150EA013C07D19F
:108900004FEA430C7FEA6C5CD6D152EA033CD3D0E9
:108910005DF8040B704700BF8446104662468C46E3
:108920001946634600E000BF01B5FFF7B7FF002816
:1089300048BF10F1000F01BD4DF808EDFFF7F4FF3F
:108940000CBF012000205DF808FB00BF4DF808EDCA
:10895000FFF7EAFF34BF012000205DF808FB00BFED
:108960004DF808EDFFF7E0FF94BF012000205DF80F
:1089700008FB00BF4DF808EDFFF7CEFF94BF0120C4
:1089800000205DF808FB00BF4DF808EDFFF7C4FFBD
:1089900034BF012000205DF808FB00BF4FEA410C06
:1089A0007FEA6C5C02D150EA013C0AD14FEA430CE9
:1089B0007FEA6C5C02D152EA033C02D14FF0000026
:1089C00070474FF0010070474FEA410212F5001264
:1089D00015D211D56FF47873B3EB625212D94FEA06
:1089E000C12343F0004343EA505311F0004F23FAF0
:1089F00002F018BF404270474FF00000704750EA45
:108A0000013005D111F0004008BF6FF00040704701
:108A10004FF00000704700BF4A0011D212F500125B
:108A200011D20DD56FF47873B3EB62520ED44FEAC6
:108A3000C12343F0004343EA505323FA02F0704746
:108A40004FF00000704750EA013002D14FF0FF3084
:108A500070474FF0000070474FEA4102B2F1E04327
:108A600024BFB3F5001CDCF1FE5C0DD901F0004C15
:108A70004FEAC0024CEA5070B2F1004F40EB830065
:108A800008BF20F00100704711F0804F21D113F191
:108A90003872BCBF01F00040704741F480114FEACA
:108AA0005252C2F11802C2F1200C10FA0CF320FA53
:108AB00002F018BF40F001004FEAC1234FEAD32370
:108AC00003FA0CFC40EA0C0023FA02F34FEA4303DA
:108AD000CCE77FEA625307D150EA01331EBF4FF063
:108AE000FE4040F44000704701F0004040F0FE407E
:108AF00040F40000704700BF53B94AB9002908BFCD
:108B000000281CBF4FF0FF314FF0FF3000F072B96A
:108B1000ADF1080C6DE904CE00F006F8DDF804E0D4
:108B2000DDE9022304B070472DE9F047089E0446B2
:108B30008846002B4BD18A42154667D9B2FA82F299
:108B40004AB1C2F1200701FA02F320FA07F7954073
:108B500047EA030894404FEA154E230CB8FBFEF792
:108B60001FFA85FC0EFB178843EA084307FB0CF14C
:108B7000994209D9EB1807F1FF3080F01B81994227
:108B800040F21881023F2B445B1AA4B2B3FBFEF003
:108B90000EFB103344EA034400FB0CFCA44509D946
:108BA0002C1900F1FF3380F00781A44540F20481C5
:108BB00002382C4440EA0740A4EB0C0400271EB105
:108BC000D4400023C6E900433946BDE8F0878B4214
:108BD00009D9002E00F0EB800027C6E900013846D5
:108BE0003946BDE8F087B3FA83F7002F47D18B42AF
:108BF00002D3824200F2FA80841A61EB030301205F
:108C00009846002EE0D0C6E90048DDE702B9FFDE55
:108C1000B2FA82F2002A40F08F80491B4FEA154ECB
:108C20001FFA85F80127B1FBFEFC230C0EFB1C117B
:108C300043EA014308FB0CF1994207D9EB180CF108
:108C4000FF3002D2994200F2CD808446591AA3B275
:108C5000B1FBFEF00EFB101443EA044408FB00F8DD
:108C6000A04507D92C1900F1FF3302D2A04500F22C
:108C7000B6801846A4EB080440EA0C409FE7C7F111
:108C8000200CBB4022FA0CFE4EEA030E01FA07F458
:108C900020FA0CF521FA0CF34FEA1E482543B3FBEA
:108CA000F8F92C0C08FB19331FFA8EFA44EA034337
:108CB00009FB0AF49C4202FA07F200FA07F10BD909
:108CC0001EEB030309F1FF3080F087809C4240F2E5
:108CD0008480A9F1020973441B1BADB2B3FBF8F009
:108CE00008FB103345EA034400FB0AFAA24508D901
:108CF0001EEB040400F1FF336BD2A24569D90238A0
:108D0000744440EA0940A0FB0289A4EB0A044C45E4
:108D1000C2464B4654D351D0002E69D0B1EB0A0560
:108D200064EB030404FA0CFCFD40FC404CEA05052E
:108D3000C6E90054002747E7C2F1200320FA03F7F1
:108D4000954001FA02F021FA03F34FEA154E384339
:108D5000010CB3FBFEF71FFA85F80EFB173341EA4F
:108D6000034107FB08F38B4204FA02F407D96918A0
:108D700007F1FF3C2FD28B422DD9023F2944CB1A59
:108D800081B2B3FBFEF00EFB103341EA034100FB5E
:108D900008F38B4207D9691800F1FF3C17D28B42C8
:108DA00015D902382944C91A40EA07473BE7374634
:108DB000304609E70746E7E61846FBE64145ABD2F1
:108DC000B8EB020A69EB0E0201381346A4E76046CD
:108DD000E9E7184695E76746D1E781467CE7023820
:108DE0002C4447E7ACF1020C2B442FE7384608E748
:108DF0003746E9E6704700BF80B400AF0B4B002256
:108E00001A700A4B00225A70084B0022DA70074B86
:108E100000229A70054B04221A71044B01225A71E8
:108E200000BFBD465DF8047B704700BF0000002016
:108E300080B400AF9A4BDB78032B00F22B8101A2A8
:108E400052F823F0558E0008E58E0008758F000853
:108E500005900008924B1B781846914B5B78194699
:108E6000904A03010B4412F81330C3F38103DBB2C1
:108E7000012B11D18A4B1B781846894B5B78194618
:108E8000884A03010B4412F81330C3F38113DBB299
:108E9000012B01D10123FEE0814B1B781846804B4A
:108EA0005B7819467F4A03010B4412F81330C3F371
:108EB0008103DBB2012B01D10323ECE0784B1B785B
:108EC0001846774B5B781946764A03010B4412F833
:108ED0001330C3F38113DBB2012B01D10223DAE09B
:108EE0000623D8E06E4B1B7818466D4B5B7819460D
:108EF0006C4A03010B4412F81330C3F30103DBB2D5
:108F0000012B11D1664B1B781846654B5B781946CF
:108F1000644A03010B4412F81330C3F30113DBB2AC
:108F2000012B01D10123B6E05D4B1B7818465C4B49
:108F30005B7819465B4A03010B4412F81330C3F304
:108F40000103DBB2012B01D10223A4E0544B1B78B7
:108F50001846534B5B781946524A03010B4412F8EA
:108F60001330C3F30113DBB2012B01D1032392E0D1
:108F7000062390E04A4B1B781846494B5B7819460C
:108F8000484A03010B4412F81330C3F38103DBB2E8
:108F9000012B11D1424B1B781846414B5B78194687
:108FA000404A03010B4412F81330C3F38113DBB2C0
:108FB000012B01D101236EE0394B1B781846384B49
:108FC0005B781946374A03010B4412F81330C3F398
:108FD0008103DBB2012B01D102235CE0304B1B7813
:108FE00018462F4B5B7819462E4A03010B4412F8A2
:108FF0001330C3F38113DBB2012B01D103234AE009
:10900000062348E0264B1B781846254B5B7819460B
:10901000244A03010B4412F81330C3F30103DBB2FB
:10902000012B11D11E4B1B7818461D4B5B7819463E
:109030001C4A03010B4412F81330C3F30113DBB2D3
:10904000012B01D1012326E0154B1B781846144B48
:109050005B781946134A03010B4412F81330C3F32B
:109060000103DBB2012B01D1032314E00C4B1B786D
:1090700018460B4B5B7819460A4A03010B4412F859
:109080001330C3F30113DBB2012B01D1022302E041
:10909000062300E006231846BD465DF8047B7047B2
:1090A00000000020A808002080B400AF034B00227D
:1090B0005A7100BFBD465DF8047B70470000002078
:1090C00080B400AF034B01225A7100BFBD465DF86A
:1090D000047B70470000002080B582B000AFFFF72E
:1090E000A7FE78600021022004F02CFB0021032061
:1090F00004F028FB0021012004F024FB00210020C3
:1091000004F020FB7C4B9B78002B3FD17A4B1B79E2
:10911000052B00F2EC8001A252F823F035910008F3
:10912000EF920008EF920008EF920008EF9200081B
:109130003F9100080121002004F004FBD8E07B6887
:10914000062B1DD06D4BD3ED007AF5EE407AF1EE93
:1091500010FA15D1684B5B79002B08D10121786892
:1091600004F0F0FA0021002004F0ECFA0DE00021F8
:10917000786804F0E7FA0121002004F0E3FA04E043
:109180000121002004F0DEFAB2E0B1E05A4B9B78F6
:10919000032B40D1584B1B79022B08D1584B4FF071
:1091A00000021A60574B4FF000021A60A0E0524BC9
:1091B0001B79012B1DD17B68062B15D04E4B5B799B
:1091C000002B08D10121786804F0BCFA00210020AE
:1091D00004F0B8FA8CE00021786804F0B3FA0121B9
:1091E000002004F0AFFA83E00121002004F0AAFA85
:1091F0007EE0414B1B79002B04D10121002004F0BB
:10920000A1FA75E03C4B1B79032B71D100210020A2
:1092100004F098FA6CE0384B9B78012B40D1364B28
:109220001B79022B08D1364B4FF000021A60354BE8
:109230004FF000021A605BE02F4B1B79012B1DD110
:109240007B68062B15D02C4B5B79002B08D10121B4
:10925000786804F077FA0021002004F073FA47E000
:109260000021786804F06EFA0121002004F06AFA07
:109270003EE00121002004F065FA39E01E4B1B7925
:10928000002B04D10121002004F05CFA30E01A4BDD
:109290001B79032B2CD10021002004F053FA27E086
:1092A000154B9B78022B23D1134B1B79012B15D126
:1092B000114B5B79002B08D10121786804F042FA48
:1092C0000021002004F03EFA12E00021786804F04A
:1092D00039FA0121002004F035FA09E0064B1B7928
:1092E000002B05D10121002004F02CFA00E000BF82
:1092F00000BF0837BD4680BD0000002000040020EC
:10930000040400202004002080B500AF174B042285
:109310001A71FFF7E1FE164B4FF000029A60154BF1
:109320004FF000021A60144B4FF000021A60134B0A
:109330004FF000021A60124BD3ED007A9FED117AC4
:10934000F4EEC77AF1EE10FA02DD0F480DF0D4F812
:109350000B4BD3ED027AF5EE407AF1EE10FADAD14A
:10936000C82006F0E1FC00BF80BD00BF0000002067
:10937000F403002024040020040400202004002022
:10938000380400200000FA43C0A7010800000000D4
:1093900090B587B000AF87ED010AC7ED000A4A4BD0
:1093A0004FF000021A604FF000037B613B687B6165
:1093B0007868FFF701F842A3D3E90023FFF754F8D8
:1093C00003460C46184621464FF000023F4BFFF77C
:1093D00075F903460C4618462146FFF73DFB034648
:1093E0003B6107F1080300221A605A60384B1B6882
:1093F000BB60D7ED007AF5EEC07AF1EE10FA29DD08
:10940000334BD3ED007A97ED047A77EE277AC7EDE8
:10941000047A3B69FB6012E0D7ED057A9FED2D7A67
:1094200027EE877AD7ED057A67EE276AD7ED017ABE
:1094300037EEA77AC6EE877A274BC3ED007A244B26
:10944000D3ED007A97ED047AB4EEE77AF1EE10FAF4
:10945000E2DC2DE0D7ED007AF5EEC07AF1EE10FAFD
:1094600026D51B4B93ED007AD7ED047A77EE677A19
:10947000C7ED047A12E0D7ED057A9FED187A27EE52
:10948000877AD7ED057A67EE276AD7ED017A37EE4E
:10949000A77AC6EE877A104BC3ED007A0C4BD3ED5A
:1094A000007A97ED047AB4EEE77AF1EE10FAE2D49E
:1094B000094B4FF000021A6000BF1C37BD4690BD3B
:1094C000182D4454FB21094004040020008066400C
:1094D0005C0200206F12833D200400206F1283BDC8
:1094E00090B585B000AF87ED010AC7ED000A786836
:1094F000FEF762FF3EA3D3E90023FEF7B5FF034664
:109500000C46184621464FF00002334BFFF7D6F8C1
:1095100003460C4618462146FFF79EFA0346FB60B9
:10952000D7ED007AF5EEC07AF1EE10FA2DDD2B4B77
:10953000D3ED007A97ED037A77EE277AC7ED037AB9
:1095400018E0274B4FF000021A60264BD3ED007A4B
:109550009FED257AF4EEC77AF1EE10FA00DC09E00F
:10956000F868FEF729FF03460C461A4623461F48B3
:109570000CF04EFF194BD3ED007A97ED037AB4EE61
:10958000E77AF1EE10FADCDC1EE0D7ED007AF5EEBA
:10959000C07AF1EE10FA17D5104B93ED007AD7EDA3
:1095A000037A77EE677AC7ED037A03E00C4B4FF04E
:1095B00000021A60094BD3ED007A97ED037AB4EEFE
:1095C000E77AF1EE10FAF1D4054B4FF000021A6081
:1095D00000BF1437BD4690BD008066405C0200208D
:1095E00020040020380400200000FA43D4A701081A
:1095F000182D4454FB21094090B585B000AF87ED8C
:10960000010AC7ED000A4FF00003FB603B68FB60F6
:109610007868FEF7D1FE63A3D3E90023FEF724FFA9
:1096200003460C46184621464FF00002524BFFF706
:1096300045F803460C4618462146FFF70DFA034647
:10964000BB60D7ED007AF5EEC07AF1EE10FA47DD97
:109650004A4BD3ED007A97ED027A77EE277AC7ED81
:10966000027A32E0D7ED037A9FED457A27EE877ACA
:10967000D7ED037A67EE276AD7ED017A37EEA77A3E
:10968000C6EE877A9FED3F7A67EE877A3E4BC3ED51
:10969000007A3E4BD3ED007A9FED3D7AF4EEC77A27
:1096A000F1EE10FA09DDB868FEF786FE03460C46B7
:1096B0001A46234637480CF0ABFE374BD3ED007A01
:1096C000F5EEC07AF1EE10FA45D92C4BD3ED007AC5
:1096D00097ED027AB4EEE77AF1EE10FAC2DC3DE0E3
:1096E000D7ED007AF5EEC07AF1EE10FA36D5234BBD
:1096F00093ED007AD7ED027A77EE677AC7ED027ABA
:109700001EE0D7ED037A9FED1E7A27EE877AD7ED1C
:10971000037A67EE276AD7ED017A37EEA77AC6EEAD
:10972000877A9FED1E7A67EE877A174BC3ED007A32
:10973000194BD3ED007AF5EEC07AF1EE10FA0CDA9F
:109740000E4BD3ED007A97ED027AB4EEE77AF1EEA4
:1097500010FAD6D402E000BF00E000BF0A4B4FF081
:1097600000021A600E4B4FF000021A6000BF14375F
:10977000BD4690BDAFF30080008066405C020020D3
:109780006F12833A000080C22004002038040020B9
:109790000000FA43ECA701085802002000008042B4
:1097A00004040020182D4454FB210940000000004F
:1097B00090B585B000AF87ED010AC7ED000A4A4BAE
:1097C00003221A71FFF77CFCFFF786FCD7ED017AC4
:1097D000B3EE0E7A67EE877A9FED447AC7EE876A1A
:1097E000D7ED000AB0EE660AFFF7D2FDD7ED017A99
:1097F000B3EE0E7A67EE877A9FED3C7AC7EE876A02
:10980000D7ED000AB0EE660AFFF76AFED7ED017ADF
:10981000B3EE0E7A67EE877A9FED347AC7EE876AE9
:10982000D7ED000AB0EE660AFFF7E6FEFFF76CFD23
:10983000FFF752FCD7ED017A9FED2D7AC7EE876ACC
:1098400016EE900AFEF7B8FD25A3D3E90023FEF734
:109850000BFE03460C4618462146FFF7B5F80346B3
:10986000FB60D7ED007AF5EEC07AF1EE10FA13D571
:10987000204B1A68FB68D90F0B445B105B42134402
:109880001C4A13601B4B5A68FB68D90F0B445B10D2
:109890001344184A536019E0D7ED007AF5EEC07A08
:1098A000F1EE10FA12DD134B1A68FB68D90F0B4466
:1098B0005B1013440F4A13600E4B5A68FB68D90FB4
:1098C0000B445B105B4213440A4A5360094B9B688C
:1098D000084A936000BF1437BD4690BDAFF30080C7
:1098E000957A76CE3678FD40000000200000B44224
:1098F0000000B4435C040020B0B58AB000AF904BC8
:1099000002221A71FFF7E8FB8E4B1B687B628E4BBD
:109910001B683B628C4B5B68FB618B4B9B68BB613C
:10992000894BDB681846FEF747FD81A3D3E9002386
:10993000FEF79AFD03460C46184621464FF00002FA
:10994000824BFEF7BBFE03460C4618462146FFF746
:1099500083F803467B617C4B1B691846FEF72CFDA0
:1099600073A3D3E90023FEF77FFD03460C46184698
:1099700021464FF00002754BFEF7A0FE03460C4651
:1099800018462146FFF768F803463B616E4B5B695A
:109990001846FEF711FD66A3D3E90023FEF764FD28
:1099A00003460C46184621464FF00002674BFEF76F
:1099B00085FE03460C4618462146FFF74DF8034640
:1099C000FB60634B1B68BB60624B1A68614B5B6852
:1099D00013447B600AE0604B4FF000021A605F4B5B
:1099E0004FF000021A605E4A7B6A93607868FEF767
:1099F000D1FC04460D46D7ED087A77EEA77A17EE2C
:109A0000900AFEF7D9FC4CA3D3E90023FEF756FEDB
:109A100002460B4620462946FEF770FB03460C46DD
:109A200025461C464B4B1A684A4B5B681344184644
:109A3000FEF7B0FC02460B4620462946FEF7A4FF7F
:109A40000346002BC7D1424B1B68BB60454B1B68CC
:109A50003B6005E0414ABB691360414A7B6A936001
:109A600097ED007AD7ED057A37EE277A3D4BD3EDA7
:109A7000007AB4EEE77AF1EE10FAEBDC374B4FF0F8
:109A800000021A60324B1B68BB6006E0324B1B6859
:109A9000314A1360324A7B6A936097ED007AD7EDC2
:109AA000047A37EE277A2F4BD3ED007AB4EEE77ABB
:109AB000F1EE10FAEADC264B1B68BB6016E0D7ED2E
:109AC000067AF1EE677A254BC3ED007A224BD3ED8F
:109AD000007AF5EEC07AF1EE10FA04D51E4B4FF085
:109AE00000021A6010E01E4A7B6A936097ED007ACC
:109AF000D7ED037A37EE277A1A4BD3ED007AB4EE1E
:109B0000E77AF1EE10FADADC144B4FF000021A603B
:109B1000114B4FF000021A60134B1B68134A13607D
:109B20000C4B1A680B4B5B6813447B6035E000BF3D
:109B3000182D4454FB210940A163A98FD223503F23
:109B400000000020780600204404002000806640C9
:109B5000580200202C0400200404002020040020CF
:109B6000F40300205C020020EC030020F00300203E
:109B7000334B4FF000021A60324A7B6A9360324BDB
:109B80001B68002B09D101F0C9FD01220021012031
:109B900001F036FF2C4B01221A607868FEF7FAFBC1
:109BA00004460D46D7ED077A77EEA77A17EE900AAE
:109BB000FEF702FC1EA3D3E90023FEF77FFD024659
:109BC0000B4620462946FEF799FA03460C462546E1
:109BD0001C461E4B1A681D4B5B6813441846FEF763
:109BE000D9FB02460B4620462946FEF7CDFE03462A
:109BF000002BBDD1164B1B681846FEF7DDFB0EA3EC
:109C0000D3E90023FEF77AFA03460C4618462146AC
:109C1000FEF722FF02460E4B1A600C4B9B680D4A62
:109C2000936000BF2837BD46B0BD00BFAFF30080D2
:109C3000A163A98FD223503F182D4454FB21F93F33
:109C400004040020F4030020F00300202C04002072
:109C5000280400205C040020B0B58AB000AF8C4B13
:109C600002221A71FFF738FA8A4B1B687B628A4B13
:109C70001B683B62884B5B68FB61874BD3ED027AC4
:109C8000F1EE677AC7ED067A834BDB681846FEF77C
:109C900093FB7BA3D3E90023FEF7E6FB03460C46C8
:109CA000184621464FF000027C4BFEF707FD0346A5
:109CB0000C4618462146FEF7CFFE03467B61764BE5
:109CC0001B691846FEF778FB6DA3D3E90023FEF766
:109CD000CBFB03460C46184621464FF000026F4B63
:109CE000FEF7ECFC03460C4618462146FEF7B4FE90
:109CF00003463B61684B5B691846FEF75DFB60A35A
:109D0000D3E90023FEF7B0FB03460C461846214674
:109D10004FF00002614BFEF7D1FC03460C4618469B
:109D20002146FEF799FE0346FB605D4B1A685C4BCB
:109D30005B681344BB600AE05A4B4FF000021A60A4
:109D4000594B4FF000021A60584A7B6A9360B8681A
:109D5000FEF720FB04460D46D7ED087A77EEA77A8A
:109D600017EE900AFEF728FB47A3D3E90023FEF77E
:109D7000A5FC02460B4620462946FEF7BFF90346DE
:109D80000C4625461C46464B1A68454B5B681344F7
:109D90001846FEF7FFFA02460B4620462946FEF714
:109DA000F3FD0346002BC7D1414B1B687B6005E0E8
:109DB0003D4ABB6913603D4A7B6A936097ED017A27
:109DC000D7ED057A37EE677A394BD3ED007AB4EEEA
:109DD000E77AF1EE10FAEBD4334B4FF000021A6041
:109DE00006E0304B1B682F4A1360304A7B6A936051
:109DF00097ED017AD7ED047A37EE677A2C4BD3EDE5
:109E0000007AB4EEE77AF1EE10FAEAD416E0D7ED74
:109E1000067AF1EE677A244BC3ED007A214BD3ED3D
:109E2000007AF5EEC07AF1EE10FA04DD1D4B4FF02A
:109E300000021A6010E01D4A7B6A936097ED017A78
:109E4000D7ED037A37EE677A194BD3ED007AB4EE8B
:109E5000E77AF1EE10FADAD4134B4FF000021A60F1
:109E6000104B4FF000021A60124B1B68124A13602D
:109E70000B4B1A680A4B5B681344BB6033E000BFAE
:109E8000182D4454FB210940A163A98FD223503FD0
:109E90000000002078060020440400200080664076
:109EA0002C0400200404002020040020F4030020DF
:109EB0005C020020EC030020F0030020324B4FF046
:109EC00000021A60314A7B6A9360314B1B68002B99
:109ED00009D101F023FC01220021012001F090FDB5
:109EE0002B4B01221A60B868FEF754FA04460D465F
:109EF000D7ED077A77EEA77A17EE900AFEF75CFAAD
:109F00001DA3D3E90023FEF7D9FB02460B462046EA
:109F10002946FEF7F3F803460C4625461C461D4B22
:109F20001A681C4B5B6813441846FEF733FA024666
:109F30000B4620462946FEF727FD0346002BBDD1E0
:109F4000154B1B681846FEF737FA0DA3D3E900231B
:109F5000FEF7D2F803460C4618462146FEF77CFD74
:109F600002460D4B1A600B4B9B680C4A936000BF76
:109F70002837BD46B0BD00BFA163A98FD223503F93
:109F8000182D4454FB21F93F04040020F403002061
:109F9000F00300202C040020280400205C04002092
:109FA000B0B584B000AF87ED010AC7ED000A564B8B
:109FB00000221A71FFF790F8544B4FF000021A601C
:109FC0004FF00003FB60524BD3ED027A97ED007A1D
:109FD00077EE677AC7ED037AD7ED037A9FED4D7A76
:109FE00027EE877AD7ED037A67EE276AD7ED017AF5
:109FF00037EEA77AC6EE877A474BC3ED007AFFF7B4
:10A000005FF8D7ED017A77EEA77A17EE900AFEF7A0
:10A01000D3F939A3D3E90023FEF750FB03460C46DE
:10A0200018462146FEF7D0FC0346BB603B4B1B683D
:10A030003B4A136035E03B4B9B681846FEF7AAF994
:10A0400004460D46B868FEF7A5F92DA3D3E9002311
:10A05000FEF70AFA02460B4620462946FEF74EF85E
:10A0600003460C4625461C462F4B9B681846FEF7B8
:10A0700091F902460B4620462946FEF767FC034647
:10A08000002B00D10DE0264B1B68002B09D101F0FD
:10A0900045FB01220021012001F0B2FC204B0122EE
:10A0A0001A60204B9A68BB681A441F4B9B689A42FF
:10A0B000C1DC194B4FF000021A601A4B9A68BB685A
:10A0C0001344184A9360174B1A68BB68D90F0B44A6
:10A0D0005B101344134A1360124B5A68BB68D90FC4
:10A0E0000B445B1013440F4A536000BF1037BD464A
:10A0F000B0BD00BFAFF30080A163A98FD223503F52
:10A100009A9999999999E93F000000200404002048
:10A11000380400206F12833A24040020EC0300204E
:10A12000F00300205C0400202C040020000000004C
:10A13000B0B584B000AF87ED010AC7ED000A684BE7
:10A1400001221A714FF00003FB60664B93ED027A17
:10A15000D7ED007A77EE677AC7ED037AD7ED037A09
:10A160009FED617A27EE877AD7ED037A67EE276A4B
:10A17000D7ED017A37EEA77AC6EE877AF1EE677AE5
:10A180005A4BC3ED007AFEF78FFFFEF7A5FFD7ED20
:10A19000017A77EEA77A17EE900AFEF70DF94CA335
:10A1A000D3E90023FEF78AFA03460C4618462146F7
:10A1B000FEF70AFC0346BB6052E04D4BD3ED027A3A
:10A1C000F5EEC07AF1EE10FA10D8494B4FF00002CC
:10A1D0009A60464B4FF000021A60464B4FF0000267
:10A1E0001A60454B4FF000021A6050E0434B9B68E9
:10A1F0001846FEF7CFF804460D46B868FEF7CAF8D1
:10A2000035A3D3E90023FEF72FF902460B4620467B
:10A210002946FDF773FF03460C4625461C46384B7E
:10A220009B681846FEF7B6F802460B4620462946BC
:10A23000FEF78CFB0346002B00D111E0FEF740FF38
:10A240000021022003F07EFA0021032003F07AFAB5
:10A250000021012003F076FA0121002003F072FAB8
:10A26000284B93ED037A274BD3ED007A77EE277ACC
:10A270009FED257AF4EEC77AF1EE10FA07D51F4B61
:10A280009A68BB681A441E4B9B689A4295DCFFF79C
:10A290003BF81A4B9A68BB681344184A9360174BF3
:10A2A0001A68BB68D90F0B445B101344134A136040
:10A2B000124B5A68BB68D90F0B445B1013440F4A0A
:10A2C000536000BF1037BD46B0BD00BFAFF3008084
:10A2D000A163A98FD223503FCDCCCCCCCCCCE43FD2
:10A2E00000000020380400206F12833A240400206C
:10A2F000F403002004040020200400205C0400205B
:10A300002C040020680400200000614500000000CB
:10A3100090B585B000AF78607B685B001846FEF7AB
:10A3200039F82BA3D3E90023FEF7C8F903460C46FE
:10A3300018462146FEF748FB0346FB60FB68002BEE
:10A3400015DD06E01C4B4FF000021A601B4B1C4A47
:10A350009A601C4B9A68FB681A441B4B9B689A4294
:10A36000F0DC184B9A68FB681344164A9360FB684C
:10A37000002B15DA06E0104B4FF000021A600F4B6D
:10A38000124A9A600F4B9A68FB681A440E4B9B68FE
:10A390009A42F0DB0B4B9A68FB681344094A9360BE
:10A3A000064B4FF000029A60034B4FF000021A6018
:10A3B00000BF1437BD4690BD24040020F4030020E4
:10A3C00000008C425C0400202C04002000008CC2A1
:10A3D000A163A98FD223503F80B500AF064B062260
:10A3E0001A71FEF779FE6FF03100FFF791FFFA2046
:10A3F00005F09AFC00BF80BD0000002000000000B6
:10A40000B0B586B000AF87ED030AC7ED020A87ED4D
:10A41000011AD7ED037A77EEA77A17EE900AFDF7C7
:10A42000CBFF77A3D3E90023FEF748F903460C4698
:10A4300018462146FEF7C8FA03467B61D7ED017A3C
:10A44000F5EE407AF1EE10FA22D0FEF739FEFEF773
:10A4500043FED7ED037AB0EE007AC7EE876A97ED38
:10A46000027AD7ED017A77EE277AF0EE670AB0EE3E
:10A47000660AFFF795FD00BF5B4B9A687B69D90FB1
:10A480000B445B101A44594B9B689A42F4DC82E0FF
:10A49000574B05221A71FEF707FEFEF71DFE554BBE
:10A4A0001B68554A13606EE04F4B9B681846FDF7DA
:10A4B00071FF04460D467869FDF76CFF46A3D3E9AA
:10A4C0000023FDF7D1FF02460B4620462946FDF743
:10A4D00015FE03460C4625461C46444B9B68184611
:10A4E000FDF758FF02460B4620462946FEF72EFA96
:10A4F0000346002B11D0FEF7E3FD0021022003F0FC
:10A5000021F90021032003F01DF90021012003F0AF
:10A5100019F90121002003F015F9334B9B68184607
:10A52000FDF738FF04460D467869FDF733FF2CA38D
:10A53000D3E90023FDF798FF02460B462046294643
:10A54000FDF7DCFD03460C4625461C46274B9B6861
:10A550001846FDF71FFF02460B4620462946FEF728
:10A56000F5F90346002B00D10DE0234B1B68002BAF
:10A5700009D101F0D3F801220021012001F040FAB5
:10A580001D4B01221A60184B9A687B691A44174BBD
:10A590009B689A4288DC194B4FF000021A60124BFC
:10A5A0009A687B691344104A93600F4B1A687B6961
:10A5B000D90F0B445B1013440B4A13600A4B5A68C3
:10A5C0007B69D90F0B445B101344074A536000BFEB
:10A5D0001837BD46B0BD00BF9A9999999999D93F4E
:10A5E0009A9999999999E93F5C0400202C040020DC
:10A5F00000000020EC030020F003002024040020D1
:10A60000A163A98FD223503F90B583B000AF03461A
:10A61000FB71FB79532B32D0542B00D032E0DFEDAD
:10A620001E0A9FED1E0AFFF783FDDFED1D0A9FED59
:10A630001D0AFFF7BDF81C4B1B681846FDF7BCFE52
:10A6400013A3D3E90023FDF759FD03460C46184632
:10A650002146FEF701FA0246134B1A60FA2005F074
:10A6600063FB0121002003F06DF8104BD3ED007A5D
:10A67000F0EE670A9FED090AFFF792FC02E0FFF790
:10A680003BF900BF00BF0C37BD4690BDAFF3008063
:10A69000182D4454FB21F93F000000000000344213
:10A6A000E4CB96400000B442280400207806002045
:10A6B00090B583B000AF0346FB71FB79532B32D0CA
:10A6C000542B00D032E0DFED1E0A9FED1E0AFFF78B
:10A6D0002FFDDFED1D0A9FED1D0AFFF769F81C4BEA
:10A6E0001B681846FDF768FE13A3D3E90023FDF7A6
:10A6F00003FD03460C4618462146FEF7ADF9024617
:10A70000134B1A60FA2005F00FFB0121002003F023
:10A7100019F8104BD3ED007AF0EE670A9FED090AA5
:10A72000FFF73EFC02E0FFF797FA00BF00BF0C37CF
:10A73000BD4690BDAFF30080182D4454FB21F93F76
:10A740000000000000003442E4CB96C00000B44298
:10A75000280400207806002098B500AFDFED1A0A23
:10A760009FED1A0AFFF7E4FCDFED190A9FED190AC5
:10A77000FFF71EF8184B1B681846FDF71DFE10A3C7
:10A78000D3E90023FDF7BAFC03460C4618462146E0
:10A79000FEF762F90246104B1A60C82005F0C4FAB1
:10A7A000FFF71AFE0D4BD3ED007AF0EE670A9FED2E
:10A7B0000C0AFFF7F5FB00BF98BD00BFAFF30080A8
:10A7C000182D4454FB2109400000000000003442D1
:10A7D000E4CB964000003443280400207806002093
:10A7E0000000764280B582B000AF0346FB711A4B81
:10A7F0009B78032B2AD801A252F823F00DA8000859
:10A8000033A8000847A800083DA80008134B4FF0E4
:10A8100000021A60124BD3ED007A104B93ED007AD0
:10A82000B0EE471AF0EE670A9FED0E0AFFF7E8FD5B
:10A830000DE0FB791846FFF7E7FE08E0FB791846C4
:10A84000FFF736FF03E0FFF787FF00E000BF00BF20
:10A850000837BD4680BD00BF000000200004002076
:10A86000780600200000B44280B483B000AF786066
:10A8700039607B683A681A6000BF0C37BD465DF8E6
:10A88000047B704780B487B000AFF860B9607A602D
:10A89000BB687B612C4A7B6852F823207B69D31A02
:10A8A000002BB8BF5B423B6127497B687A6941F85E
:10A8B0002320264A7B6852F823203B691A44234907
:10A8C0007B6841F82320224A7B6852F823305A1CC7
:10A8D0001F497B6841F823201D4A7B6852F82330CA
:10A8E000FA689A4221D1194A7B6852F8233007EE60
:10A8F000903AF8EEE76A164A7B6852F8233007EE82
:10A90000903AB8EEE77AC6EE877A124A7B689B00E7
:10A910001344C3ED007A0D4A7B68002142F82310EE
:10A920000B4A7B68002142F823100A4A7B689B008F
:10A9300013441B6807EE903AB0EE670A1C37BD4619
:10A940005DF8047B704700BF140200202402002041
:10A95000340200204402002080B487B000AFF860C9
:10A9600087ED020AC7ED010A87ED001A4FF00003D8
:10A970007B61FB6807EE903AB8EEE77AD7ED027A92
:10A9800027EE277AD7ED017A67EE276A97ED007AEE
:10A99000C6EE877AC7ED057A7B6907EE903AB0EE8E
:10A9A000670A1C37BD465DF8047B704780B485B0EC
:10A9B00000AF786039600123FB600023BB6007E0D3
:10A9C000FB687A6802FB03F3FB60BB680133BB6082
:10A9D000BA683B689A42F3DBFB6818461437BD46F9
:10A9E0005DF8047B704780B48BB000AF87ED030A3D
:10A9F000C7ED020A87ED011A3860D7ED036A97EDBB
:10AA0000017AC6EE877AC7ED077AD7ED026A97ED2D
:10AA1000017AC6EE877AC7ED067AB7EE007AD7EDEF
:10AA2000067A77EE676A3B6807EE903AB8EEE77A07
:10AA3000C6EE877AC7ED057A00237B6200233B626E
:10AA400018E03B6A07EE903AB8EEE77AD7ED057A60
:10AA500027EE277AD7ED067A77EE277A97ED077AF1
:10AA6000B4EEE77AF1EE10FA01DB3B6A7B623B6AF7
:10AA700001333B623A6A3B689A42E2DB7B6A1846E2
:10AA80002C37BD465DF8047B7047000080B500AFF1
:10AA9000074B1B689B68002118460BF04DFD044BCB
:10AAA0001B685B68002118460BF046FD00BF80BDA7
:10AAB0002800002080B592B000AF2C4B1B687B644F
:10AAC0003B464022002118460AF05BFE284BD3F893
:10AAD000B0303B60264BD3F8B4307B60244BD3F8C6
:10AAE000B830BB60224B1B68FB60214B5B683B614D
:10AAF0001F4B9B687B611E4B9B6DBB611C4BDB6DD1
:10AB0000FB611B4B1B6E3B62194BD3F884307B629D
:10AB1000174BD3F88830BB62154BD3F88C30FB62EF
:10AB2000134BDB6A3B63124B1B6B7B63104B5B6B02
:10AB3000BB6300233B6412E03B6C9B0007F14802BF
:10AB40001344483BD3ED007AB0EE670A786C04F00A
:10AB500057FC7B6C04337B643B6C01333B643B6C84
:10AB60000E2BE9DD00BF4837BD4680BD9CAA010819
:10AB70006002002090B595B000AF594B1B68FB6494
:10AB80003B464022002118460AF0FBFD002387F8CF
:10AB90004B3000237B6438E03A467B6C9B001344C7
:10ABA0001946F86C04F056FCFB6C0433FB647B6CB8
:10ABB0009B0007F150021344503B1B681846FDF7F9
:10ABC000FBFB03460C461A462346796C45480BF0BE
:10ABD0001FFC7B6C9B0007F150021344503BD3EDEC
:10ABE000007AF4EE677AF1EE10FA6CBF01230023CD
:10ABF000DBB23B643B6C002B04D097F84B30013345
:10AC000087F84B307B6C01337B647B6C0E2BC3DD90
:10AC100097F84B30194634480BF0FAFB97F84B3055
:10AC20000F2B59D0D7ED007A97ED017AD7ED026A54
:10AC3000B0EE661AF0EE470AB0EE670A042002F0A2
:10AC400055FDD7ED007A97ED017AD7ED026AB0EEA7
:10AC5000661AF0EE470AB0EE670A052002F046FDDC
:10AC6000D7ED037A97ED047AD7ED056AB0EE661A50
:10AC7000F0EE470AB0EE670A002002F037FDD7ED8C
:10AC8000067A97ED077AD7ED086AB0EE661AF0EE0D
:10AC9000470AB0EE670A022002F028FDD7ED097AD4
:10ACA00097ED0A7AD7ED0B6AB0EE661AF0EE470A16
:10ACB000B0EE670A032002F019FDD7ED0C7A97ED8C
:10ACC0000D7AD7ED0E6AB0EE661AF0EE470AB0EED6
:10ACD000670A012002F00AFD00BF5437BD4690BD4F
:10ACE0009CAA010804A8010810A801082DE9B04396
:10ACF00086B004AFAF4807F022FFAF4807F01FFF50
:10AD000004F09EFE04F0B6FDC82005F00DF83023D7
:10AD1000FB713023BB71A9480BF0EEFBA84BD3F8B5
:10AD2000B0301846FDF748FB80468946A44BD3F85F
:10AD3000B4301846FDF740FB04460D46A04BD3F84F
:10AD4000B8301846FDF738FB02460B46CDE9022322
:10AD5000CDE9004542464B469A480BF059FB984BCB
:10AD60001B681846FDF728FB80468946944B5B68B4
:10AD70001846FDF721FB04460D46914B9B6818468B
:10AD8000FDF71AFB02460B46CDE90223CDE900454B
:10AD900042464B468C480BF03BFB894B9B6D18465B
:10ADA000FDF70AFB80468946854BDB6D1846FDF7AB
:10ADB00003FB04460D46824B1B6E1846FDF7FCFA5A
:10ADC00002460B46CDE90223CDE9004542464B46FB
:10ADD0007E480BF01DFB7A4BD3F884301846FDF704
:10ADE000EBFA80468946764BD3F888301846FDF753
:10ADF000E3FA04460D46724BD3F88C301846FDF743
:10AE0000DBFA02460B46CDE90223CDE90045424676
:10AE10004B466F480BF0FCFA694BDB6A1846FDF7AE
:10AE2000CBFA80468946664B1B6B1846FDF7C4FA81
:10AE300004460D46624B5B6B1846FDF7BDFA0246B1
:10AE40000B46CDE90223CDE9004542464B46614819
:10AE50000BF0DEFAFFF71AFE5F480BF0D9FAFB1D84
:10AE600019465E480BF050FBFB79302B00F0F48064
:10AE7000FFF70CFE5A480BF0CBFABB1D194657489A
:10AE80000BF042FBFB791946BB791A4655480BF08B
:10AE9000BFFAFFF7FBFD54480BF0BAFAFB79313BE0
:10AEA000042B00F2C18001A252F823F0C1AE0008C9
:10AEB000F3AE000825AF000855AF000885AF0008C5
:10AEC000BB79702B04D1494949480BF01DFBAFE019
:10AED000BB79692B04D1474945480BF015FBA7E026
:10AEE000BB79642B40F0A480434941480BF00CFB34
:10AEF0009EE0BB79702B04D131493D480BF004FB37
:10AF000098E0BB79692B04D13C4939480BF0FCFA35
:10AF100090E0BB79642B40F08D80394934480BF0C8
:10AF2000F3FA87E0BB79702B04D1364930480BF037
:10AF3000EBFA81E0BB79692B04D133492C480BF043
:10AF4000E3FA79E0BB79642B76D1304928480BF0DD
:10AF5000DBFA71E0BB79702B04D12D4924480BF04A
:10AF6000D3FA6BE0BB79692B04D12A4920480BF056
:10AF7000CBFA63E0BB79642B60D127491C480BF006
:10AF8000C3FA5BE0BB79702B04D1244918480BF05D
:10AF9000BBFA55E0BB79692B04D1214914480BF069
:10AFA000B3FA4DE0BB79642B4AD11E4910480BF02F
:10AFB000ABFA45E0300D0020A80A002018A80108CF
:10AFC0006002002030A8010850A801086CA8010800
:10AFD00088A80108A4A80108C0A80108D8A80108E9
:10AFE000DCA80108F0A8010814A90108100300203A
:10AFF00028A901081403002018030020640200207F
:10B0000068020020B8020020BC020020C00200201C
:10B01000E4020020E8020020EC0200208C02002064
:10B02000900200209402002016480BF065FA08E018
:10B0300000BF06E000BF04E000BF02E000BF00E088
:10B0400000BFFFF723FD7B1D19460F480BF05CFA8C
:10B050000E480BF051FA5EE600BF0D480BF04CFABB
:10B0600004F04BFAFFF726FD072004F011FCC8207E
:10B0700004F05AFE002004F00BFC00BF0837BD4668
:10B08000BDE8B0832CA90108D8A8010840A901088F
:10B0900044A9010800000000B0B588B000AF786096
:10B0A0007B689D4A934240F0EB819C4B5B6AC3F501
:10B0B000EA432F331A469A4B1A60984B47F22F52A5
:10B0C0005A62984B5B6AC3F5EA432F331A46944B96
:10B0D0005A60944B47F22F525A62914B1B6807EE0D
:10B0E000903AF8EEE77A9FED907A67EE877A8F4B89
:10B0F000C3ED007A8A4B5B6807EE903AF8EEE77A88
:10B100009FED897A67EE877A884BC3ED017A874B8A
:10B1100093ED007A854BD3ED017A77EE277AB6EE80
:10B12000007A67EE877A814BC3ED027A804B1A680A
:10B130007B4B1B6813447E4A13607D4B5A68784BE7
:10B140005B6813447A4A5360794B1A68784B5B68A2
:10B150001344774A93603821372004F023FAF0EE45
:10B16000407A744BC3ED007A724B93ED007A724BC8
:10B17000D3ED007A77EE677A9FED707A67EE877A83
:10B18000C7ED077AF869FDF717F95DA3D3E9002346
:10B19000FDF76AF903460C4625461C46684B1B68BA
:10B1A0001846FDF709F958A3D3E90023FDF75CF928
:10B1B00002460B4620462946FCF7A0FF03460C46F4
:10B1C00018462146FDF748FC034607EE903AF1EE9B
:10B1D000677A5C4BC3ED007A594AFB691360594B9F
:10B1E000D3ED007A9FED587A27EE877A574BD3ED4F
:10B1F000007A77EE277A554BC3ED007A0023BB61C6
:10B2000000237B6100233B610023FB60504B9B7854
:10B21000002B40F0D5804F4B9B6A012B16D14E4B33
:10B22000D3ED007A494B93ED007AF0EE470AB0EE89
:10B23000670A002002F0DAFAF860FB6807EE903A3D
:10B24000F8EEE77A454BC3ED007AB9E0414B5B6D10
:10B25000012B2AD1424BD3ED026A414B93ED017A87
:10B26000404BD3ED007A77EE277AF0EE670AB0EE26
:10B27000660A012002F0BAFAB861BB6907EE903A9B
:10B28000F8EEE77A17EE900AFDF796F820A3D3E9D7
:10B290000023FDF7E9F803460C4618462146FDF762
:10B2A000DBFB02462D4B1A608AE02A4BD3F8803034
:10B2B000012B5BD12A4BD3ED027A2B4B93ED027A13
:10B2C000F0EE470AB0EE670A022002F08FFA7861CA
:10B2D0007B6907EE903AF8EEE77A17EE900AFDF7F1
:10B2E0006BF80BA3D3E90023FDF7BEF803460C4629
:10B2F00018462146FDF7B0FB0246184B1A605FE086
:10B300007B14AE47E17A843FAE47E17A14AEEF3F5B
:10B31000FCA9F1D24D62503F300D002000040040E6
:10B320009C08002000080040B92F7C3F3804002012
:10B330002C040020E0030020DC030020787D8B3A01
:10B3400054020020580200206F12833A5C02002051
:10B3500000000020600200202804002004040020D7
:10B36000680400201804002084060020624BD3F8F3
:10B37000AC30012B24D1614BD3ED017A604B93EDBE
:10B38000017AF0EE470AB0EE670A032002F02EFAC7
:10B3900038613B6907EE903AF8EEE77A17EE900ACB
:10B3A000FDF70AF852A3D3E90023FDF75DF8034641
:10B3B0000C4618462146FDF74FFB0246514B1A60DA
:10B3C000514B93ED027A514BD3ED007A77EE277A09
:10B3D0004D4BC3ED027A4B4B93ED007A4C4BD3EDC2
:10B3E000007A77EE277A474BC3ED007A464B93ED10
:10B3F000027A444BD3ED007ADFED466A67EEA67A17
:10B40000F6EE006A67EEA67A77EE677A3E4BC3EDFA
:10B41000017A3C4BD3ED007A9FED3E7A27EE877A96
:10B42000394BD3ED017A77EE277A374BC3ED007AAB
:10B43000354BD3ED007A384B93ED007AF0EE470AA6
:10B44000B0EE670A042002F0D1F90246334B1A60CD
:10B450002D4BD3ED017A304B93ED017AF0EE470A94
:10B46000B0EE670A052002F0C1F902462C4B1A60C3
:10B470002A4B1A682A4B1B681946104604F0FCFA3E
:10B480007B68284A93422FD1274B1B68002219461C
:10B490000A20FFF7F7F9F0EE407A194BC3ED007A76
:10B4A000214B5B68012219460A20FFF7EBF9F0EE09
:10B4B000407A134BC3ED017A1C4B1B6802221946DC
:10B4C0000A20FFF7DFF9F0EE407A0D4BC3ED027A68
:10B4D000164B5B68032219460A20FFF7D3F9F0EEFA
:10B4E000407A074BC3ED037A00BF2037BD46B0BD9D
:10B4F000FCA9F1D24D62503F60020020840600207A
:10B500006804002004040020F40300202404002028
:10B510002004002066661742380400207C060020C4
:10B5200098060020A80A0020C8030020D4030020A9
:10B5300080B584B000AF2C4B1B68FB600023BB6060
:10B540004BE000237B6042E028497B681A01BB681E
:10B55000134411F81330C3F30103DBB21946F86842
:10B5600003F0FCFEFB68181D20497B681A01BB68CC
:10B57000134411F81330C3F38103DBB2194603F00F
:10B58000EDFEFB6803F1080018497B681A01BB68EF
:10B59000134411F81330C3F30113DBB2194603F05F
:10B5A000DDFEFB6803F10C0010497B681A01BB68E3
:10B5B000134411F81330C3F38113DBB2194603F0BF
:10B5C000CDFEFB681033FB607B6801337B607B68DA
:10B5D0000F2BB9DDBB680133BB60BB680F2BB0DD3F
:10B5E00000BF1037BD4680BD98AA0108A8080020FA
:10B5F00080B485B000AF0023FB603BE00023BB605C
:10B6000032E04549FB681A01BB681A4411F8123050
:10B61000022060F3010301F812303F49FB681A0170
:10B62000BB681A4411F81230022060F3830301F85A
:10B6300012303949FB681A01BB681A4411F81230FC
:10B64000022060F3051301F812303349FB681A0138
:10B65000BB681A4411F81230022060F3871301F816
:10B660001230BB680133BB60BB680F2BC9DDFB68C0
:10B670000133FB60FB680F2BC0DD00237B602AE0F9
:10B68000254A7B685B01134403F11E0213780121F4
:10B6900061F30103137020497B6803F1F00211F894
:10B6A0001230012060F3830301F812301A4A7B68DC
:10B6B0005B011A441378012161F3051313701649D5
:10B6C0007A6811F81230012060F3871301F8123004
:10B6D0007B6801337B607B680F2BD1DD0E4A1378CA
:10B6E000012161F3830313700B4A13786FF3010395
:10B6F0001370094A92F82030012161F3871382F810
:10B700002030054A93786FF30513937000BF143708
:10B71000BD465DF8047B7047A808002090B482B055
:10B7200000AF8B4B93ED007A894BD3ED037A37EE64
:10B73000277AF0EE006AC7EE267A9FED867AF4EE5D
:10B74000C77AF1EE10FACCBF01230023DAB2824BA4
:10B750005B7A07F108010B4403F8042C7C4BD3ED12
:10B76000017A9FED7E7AF4EEC77AF1EE10FACCBF43
:10B7700001230023D9B2784B5B7A01335A4203F09C
:10B78000030302F0030258BF53420A4607F10801BF
:10B790000B4403F8042C704B5B7A02335A4203F0DB
:10B7A000030302F0030258BF534207F10802134497
:10B7B000002203F8042C664BD3ED027A9FED687AE1
:10B7C000F4EEC77AF1EE10FACCBF01230023D9B210
:10B7D000614B5B7A03335A4203F0030302F0030226
:10B7E00058BF53420A4607F108010B4403F8042CE2
:10B7F0003979594B9B791C46574BDB791A460B46D6
:10B8000003F00303D8B2574923011A4411F8123048
:10B8100060F3010301F8123079794F4B9B791C4694
:10B820004D4BDB791A460B4603F00303D8B24D4962
:10B8300023011A4411F8123060F3830301F8123027
:10B84000B979454B9B791C46434BDB791A460B462D
:10B8500003F00303D8B2434923011A4411F812300C
:10B8600060F3051301F81230F9793B4B9B791C46C4
:10B87000394BDB791A460B4603F00303D8B239493A
:10B8800023011A4411F8123060F3871301F81230C3
:10B89000314BDB790E2B12D839792F4B9B791A4615
:10B8A0002D4BDB79013301F00301C8B22D491201A0
:10B8B0001A4411F8123060F3051301F81230264BC8
:10B8C0009B790E2B11D87979234B9B790133224A2E
:10B8D000D27901F00301C8B222491B011A4411F8C0
:10B8E000123060F3871301F812301B4BDB79002B09
:10B8F00012D0B979184B9B791A46174BDB79013B6B
:10B9000001F00301C8B2174912011A4411F81230AC
:10B9100060F3010301F812300F4B9B79002B11D01B
:10B92000F9790D4B9B79013B0B4AD27901F0030168
:10B93000C8B20C491B011A4411F8123060F383039A
:10B9400001F8123000BF0837BD4690BC704700BFF9
:10B950006804002000008C42000000200000B44277
:10B960000000C842A808002080B485B000AF78600D
:10B9700039600023FB6013E00023BB600AE01F492D
:10B98000FB681A01BB681344FF2221F81320BB682F
:10B990000133BB60BB680F2BF1DDFB680133FB603B
:10B9A000FB680F2BE8DD15497B681A013B681344DF
:10B9B000002221F813203B68013310497A681201F4
:10B9C0001344002221F813207B6801330B491A012C
:10B9D0003B681344002221F813207B685A1C3B6803
:10B9E0000133064912011344002221F8132000BF3D
:10B9F0001437BD465DF8047B704700BF7804002013
:10BA000080B588B000AFF860B9607A60B968F8684E
:10BA1000FFF7AAFF0023FB750023FB61D8E000239A
:10BA2000BB61CEE07049FB691A01BB69134431F870
:10BA30001330FF2B00F0C180BB690E2B2CDC6B494F
:10BA4000FB691A01BB69134411F81330C3F30103F6
:10BA5000DBB21A467B681340002B1DD1BB69013352
:10BA60006149FA691201134431F81330FF2B13D1E5
:10BA70005D49FB691A01BB69134431F81320BB69A6
:10BA80000133013290B25849FA6912011344024657
:10BA900021F813200123FB75FB690E2B2CDC534985
:10BAA000FB691A01BB69134411F81330C3F3810316
:10BAB000DBB21A467B681340002B1DD1FB690133B2
:10BAC00049491A01BB69134431F81330FF2B13D1D4
:10BAD0004549FB691A01BB69134431F81320FB691E
:10BAE0000133013290B240491A01BB691344024646
:10BAF00021F813200123FB75BB69002B2CDD3B498A
:10BB0000FB691A01BB69134411F81330C3F3011325
:10BB1000DBB21A467B681340002B1DD1BB69013B89
:10BB20003149FA691201134431F81330FF2B13D154
:10BB30002D49FB691A01BB69134431F81320BB6915
:10BB4000013B013290B22849FA69120113440246BE
:10BB500021F813200123FB75FB69002B2EDD2349FF
:10BB6000FB691A01BB69134411F81330C3F3811345
:10BB7000DBB21A467B681340002B1FD1FB69013BE7
:10BB800019491A01BB69134431F81330FF2B15D141
:10BB90001549FB691A01BB69134431F81320FB698D
:10BBA000013B013290B210491A01BB6913440246AD
:10BBB00021F813200123FB7500E000BFBB690133AE
:10BBC000BB61BB690F2B7FF72DAFFB690133FB61B5
:10BBD000FB690F2B7FF723AFFB7D002B7FF41AAFA0
:10BBE00000BF2037BD4680BD78040020A808002093
:10BBF000B0B584B002AF0F237B6040E000233B6010
:10BC000034E025493B681A017B68134411F813306E
:10BC1000C3F30103DBB218461F493B681A017B6876
:10BC2000134411F81330C3F38103DBB21C461A49E5
:10BC30003B681A017B68134411F81330C3F30113F6
:10BC4000DBB21D4614493B681A017B68134411F8A6
:10BC50001330C3F38113DBB200932B462246014617
:10BC60000E480AF0D5FB3B6801333B603B680F2B65
:10BC7000C7DD0B480AF040FC7B68013B7B607B68BA
:10BC8000002BBBDA06480AF037FC05480AF034FC02
:10BC900000BF0837BD46B0BDA808002068A901084C
:10BCA00054A9010880B588B000AF3E4B1B68FB610A
:10BCB0000023BB616FE000237B6166E03B1D002237
:10BCC0001A605A609A60DA603B1D1946F86903F001
:10BCD0006DFBFB691A1D3B1D04331946104603F02A
:10BCE00065FBFB6903F108023B1D0833194610464A
:10BCF00003F05CFBFB6903F10C023B1D0C3319469E
:10BD0000104603F053FB7B6803F00303D8B22649C7
:10BD10007B691A01BB691A4411F8123060F3010300
:10BD200001F81230BB6803F00303D8B21E497B69E7
:10BD30001A01BB691A4411F8123060F3830301F849
:10BD40001230FB6803F00303D8B217497B691A016C
:10BD5000BB691A4411F8123060F3051301F8123070
:10BD60003B6903F00303D8B20F497B691A01BB6931
:10BD70001A4411F8123060F3871301F81230FB698E
:10BD80001033FB617B6901337B617B690F2B95DD90
:10BD9000BB690133BB61BB690F2B8CDD00BF203752
:10BDA000BD4680BD98AA0108A808002090B583B0C0
:10BDB00000AF0346FB718D4BDB78032B00F245840B
:10BDC00001A252F823F000BFD9BD0008F9BF000856
:10BDD00019C2000839C40008844B1B781846834BED
:10BDE0005B781946824A03010B4412F81330C3F3FF
:10BDF0000103DBB2002B3CD17C4B1B781A467B4BFA
:10BE00005B7801337B491201134431F81320774BDF
:10BE10001B781C46754B5B78184676492301034412
:10BE200031F813309A4224D2704B5B780E2B20D815
:10BE30006E4B00229A706D4B1A786C4B9A716B4B5B
:10BE40005B780133DAB2694BDA71684B00225A72BF
:10BE5000FB791846FEF7C6FC644B5A7A634BDA70DE
:10BE6000624B9A79614B1A70604BDA795F4B5A706A
:10BE7000BAE05E4B1B7818465C4B5B7819465C4A0F
:10BE800003010B4412F81330C3F38113DBB2002B10
:10BE90003CD1564B1B78013B544A52781146554AC7
:10BEA0001B010B4432F81320504B1B781C464F4BA0
:10BEB0005B7818464F492301034431F813309A4206
:10BEC00024D24A4B1B78002B20D0484B03229A7077
:10BED000464B1B78013BDAB2444B9A71434B5A787C
:10BEE000424BDA71414B03225A72FB791846FEF736
:10BEF00079FC3E4B5A7A3D4BDA703C4B9A793B4B7E
:10BF00001A703A4BDA79394B5A706DE0374B1B781F
:10BF10001846364B5B781946354A03010B4412F834
:10BF20001330C3F38103DBB2002B3CD12F4B1B78C2
:10BF300001332E4A527811462E4A1B010B4432F827
:10BF400013202A4B1B781C46284B5B78184629493E
:10BF50002301034431F813309A4224D2234B1B7837
:10BF60000E2B20D8214B01229A70204B1B780133D5
:10BF7000DAB21E4B9A711D4B5A781C4BDA711B4B6F
:10BF800001225A72FB791846FEF72CFC174B5A7A9D
:10BF9000164BDA70154B9A79144B1A70134BDA79E9
:10BFA000124B5A7020E0114B02229A700F4B1A78F4
:10BFB0000E4B9A710D4B5B78013BDAB20B4BDA7189
:10BFC0000A4B02225A72FB791846FEF70BFC074B0C
:10BFD0005A7A064BDA70054B9A79044B1A70034B68
:10BFE000DA79024B5A7031E330E300BF00000020E1
:10BFF000A808002078040020844B1B781846834B47
:10C000005B781946824A03010B4412F81330C3F3DC
:10C010008103DBB2002B3CD17C4B1B7801337B4A84
:10C02000527811467B4A1B010B4432F81320774BA0
:10C030001B781C46754B5B781846764923010344F0
:10C0400031F813309A4224D2704B1B780E2B20D833
:10C050006E4B00229A706D4B1B780133DAB26B4B3A
:10C060009A716A4B5A78694BDA71684B01225A729D
:10C07000FB791846FEF7B6FB644B5A7A634BDA70CD
:10C08000624B9A79614B1A70604BDA795F4B5A7048
:10C09000BAE05E4B1B7818465C4B5B7819465C4AED
:10C0A00003010B4412F81330C3F30103DBB2002B7E
:10C0B0003CD1564B1B781A46544B5B78013355499B
:10C0C0001201134431F81320504B1B781C464F4B80
:10C0D0005B7818464F492301034431F813309A42E4
:10C0E00024D24A4B5B780E2B20D8484B03229A70FF
:10C0F000464B1A78454B9A71444B5B780133DAB260
:10C10000424BDA71414B00225A72FB791846FEF716
:10C1100069FB3E4B5A7A3D4BDA703C4B9A793B4B6C
:10C120001A703A4BDA79394B5A706DE0374B1B78FD
:10C130001846364B5B781946354A03010B4412F812
:10C140001330C3F30113DBB2002B3CD12F4B1B7810
:10C150001A462E4B5B78013B2E491201134431F8ED
:10C1600013202A4B1B781C46284B5B78184629491C
:10C170002301034431F813309A4224D2234B5B78D5
:10C18000002B20D0214B01229A70204B1A781F4B94
:10C190009A711E4B5B78013BDAB21C4BDA711B4B78
:10C1A00002225A72FB791846FEF71CFB174B5A7A8B
:10C1B000164BDA70154B9A79144B1A70134BDA79C7
:10C1C000124B5A7020E0114B02229A700F4B1B78D1
:10C1D000013BDAB20D4B9A710C4B5A780B4BDA716A
:10C1E0000A4B03225A72FB791846FEF7FBFA074BFB
:10C1F0005A7A064BDA70054B9A79044B1A70034B46
:10C20000DA79024B5A7021E220E200BF00000020E0
:10C21000A808002078040020844B1B781846834B24
:10C220005B781946824A03010B4412F81330C3F3BA
:10C230000113DBB2002B3CD17C4B1B781A467B4BA5
:10C240005B78013B7B491201134431F81320774B93
:10C250001B781C46754B5B781846764923010344CE
:10C2600031F813309A4224D2704B5B78002B20D0E7
:10C270006E4B00229A706D4B1A786C4B9A716B4B17
:10C280005B78013BDAB2694BDA71684B02225A7271
:10C29000FB791846FEF7A6FA644B5A7A634BDA70BC
:10C2A000624B9A79614B1A70604BDA795F4B5A7026
:10C2B000BAE05E4B1B7818465C4B5B7819465C4ACB
:10C2C00003010B4412F81330C3F38103DBB2002BDC
:10C2D0003CD1564B1B780133544A52781146554A8B
:10C2E0001B010B4432F81320504B1B781C464F4B5C
:10C2F0005B7818464F492301034431F813309A42C2
:10C3000024D24A4B1B780E2B20D8484B03229A701C
:10C31000464B1B780133DAB2444B9A71434B5A783F
:10C32000424BDA71414B01225A72FB791846FEF7F3
:10C3300059FA3E4B5A7A3D4BDA703C4B9A793B4B5B
:10C340001A703A4BDA79394B5A706DE0374B1B78DB
:10C350001846364B5B781946354A03010B4412F8F0
:10C360001330C3F38113DBB2002B3CD12F4B1B786E
:10C37000013B2E4A527811462E4A1B010B4432F8DB
:10C3800013202A4B1B781C46284B5B7818462949FA
:10C390002301034431F813309A4224D2234B1B78F3
:10C3A000002B20D0214B01229A70204B1B78013B9F
:10C3B000DAB21E4B9A711D4B5A781C4BDA711B4B2B
:10C3C00003225A72FB791846FEF70CFA174B5A7A79
:10C3D000164BDA70154B9A79144B1A70134BDA79A5
:10C3E000124B5A7020E0114B02229A700F4B1A78B0
:10C3F0000E4B9A710D4B5B780133DAB20B4BDA714D
:10C400000A4B00225A72FB791846FEF7EBF9074BEC
:10C410005A7A064BDA70054B9A79044B1A70034B23
:10C42000DA79024B5A7011E110E100BF00000020E0
:10C43000A808002078040020864B1B781846854BFE
:10C440005B781946844A03010B4412F81330C3F396
:10C450008113DBB2002B3CD17E4B1B78013B7D4A24
:10C46000527811467D4A1B010B4432F81320794B58
:10C470001B781C46774B5B781846784923010344A8
:10C4800031F813309A4224D2724B1B78002B20D003
:10C49000704B00229A706F4B1B78013BDAB26D4BE8
:10C4A0009A716C4B5A786B4BDA716A4B03225A7251
:10C4B000FB791846FEF796F9664B5A7A654BDA70A7
:10C4C000644B9A79634B1A70624BDA79614B5A70FC
:10C4D000BAE0604B1B7818465E4B5B7819465E4AA3
:10C4E00003010B4412F81330C3F30113DBB2002B2A
:10C4F0003CD1584B1B781A46564B5B78013B574949
:10C500001201134431F81320524B1B781C46514B37
:10C510005B78184651492301034431F813309A429D
:10C5200024D24C4B5B78002B20D04A4B03229A70CC
:10C53000484B1A78474B9A71464B5B78013BDAB20D
:10C54000444BDA71434B02225A72FB791846FEF7CC
:10C5500049F9404B5A7A3F4BDA703E4B9A793D4B42
:10C560001A703C4BDA793B4B5A706DE0394B1B78B3
:10C570001846384B5B781946374A03010B4412F8CA
:10C580001330C3F30103DBB2002B3CD1314B1B78DA
:10C590001A46304B5B78013330491201134431F8AD
:10C5A00013202C4B1B781C462A4B5B7818462B49D2
:10C5B0002301034431F813309A4224D2254B5B788F
:10C5C0000E2B20D8234B01229A70224B1A78214B34
:10C5D0009A71204B5B780133DAB21E4BDA711D4B36
:10C5E00000225A72FB791846FEF7FCF8194B5A7A6A
:10C5F000184BDA70174B9A79164B1A70154BDA797B
:10C60000144B5A7020E0134B02229A70114B1B7886
:10C610000133DAB20F4B9A710E4B5A780D4BDA7127
:10C620000C4B01225A72FB791846FEF7DBF8094BD6
:10C630005A7A084BDA70074B9A79064B1A70054BF9
:10C64000DA79044B5A7001E000E000BF00BF0C37FC
:10C65000BD4690BD00000020A808002078040020FE
:10C6600080B483B000AF786039601C497B681A01E0
:10C670003B68134411F81330C3F30103DBB2022B00
:10C6800023D016497B681A013B68134411F8133014
:10C69000C3F38103DBB2022B17D010497B681A0168
:10C6A0003B68134411F81330C3F30113DBB2022BC0
:10C6B0000BD00A497B681A013B68134411F8133008
:10C6C000C3F38113DBB2022B01D1012300E000236D
:10C6D00018460C37BD465DF8047B7047A80800205B
:10C6E00080B586B000AFF860B9601346FB710023D7
:10C6F0007B61154BDB78FA799A4202D102237B6188
:10C7000012E0114BDB781A1DFB79D31A5A4203F061
:10C71000030302F0030258BF5342022B02D100234D
:10C720007B6101E001237B61B968F868FFF798FF3E
:10C730000346002B02D07B6904337B617B6918467A
:10C740001837BD4680BD00BF0000002080B588B00E
:10C7500000AFF860B9607A607A68B968F868FFF786
:10C760004FF9FF23FB610023BB61A14B1B781846E7
:10C770009F4B5B7819469F4A03010B4412F8133014
:10C78000C3F30103DBB21A467B681340002B43D18D
:10C79000974B1B781846964B5B780133002219465D
:10C7A000FFF79EFF7861924B1B781A46904B5B789F
:10C7B000013391491201134431F813301A46FB69D1
:10C7C000934211DD8A4B1B781A46894B5B78013303
:10C7D00089491201134431F81330FB61844B002264
:10C7E0005A727B69BB6117E0814B1B781A46804BFC
:10C7F0005B78013380491201134431F813301A4633
:10C80000FB69934208D1BA697B699A4204DA784B92
:10C8100000225A727B69BB61754B1B781846744BBA
:10C820005B781946734A03010B4412F81330C3F3C3
:10C830008103DBB21A467B681340002B42D16C4B5C
:10C840001B78581C6A4B5B7801221946FFF748FF9A
:10C850007861674B1B780133654A52781146664A06
:10C860001B010B4432F813301A46FB69934211DD69
:10C870005F4B1B7801335E4A527811465E4A1B01BA
:10C880000B4432F81330FB61594B01225A727B6919
:10C89000BB6117E0564B1B780133554A527811465D
:10C8A000554A1B010B4432F813301A46FB69934278
:10C8B00008D1BA697B699A4204DA4D4B01225A7257
:10C8C0007B69BB614A4B1B781846494B5B7819461C
:10C8D000484A03010B4412F81330C3F30113DBB2CF
:10C8E0001A467B681340002B43D1414B1B781846F6
:10C8F0003F4B5B78013B02221946FFF7F1FE78615E
:10C900003B4B1B781A463A4B5B78013B3A49120184
:10C91000134431F813301A46FB69934211DD344B4E
:10C920001B781A46324B5B78013B334912011344A2
:10C9300031F81330FB612E4B02225A727B69BB61C6
:10C9400017E02B4B1B781A46294B5B78013B2A4991
:10C950001201134431F813301A46FB69934208D18F
:10C96000BA697B699A4204DA214B02225A727B69C6
:10C97000BB611F4B1B7818461D4B5B7819461D4A3F
:10C9800003010B4412F81330C3F38113DBB21A46D0
:10C990007B681340002B45D1154B1B78581E144B58
:10C9A0005B7803221946FFF79BFE7861104B1B78DA
:10C9B000013B0F4A527811460F4A1B010B4432F8D3
:10C9C00013301A46FB69934218DD094B1B78013B73
:10C9D000074A52781146084A1B010B4432F81330BB
:10C9E000FB61034B03225A727B69BB611AE000BFF3
:10C9F00000000020A808002078040020124B1B78BB
:10CA0000013B114A52781146104A1B010B4432F87F
:10CA100013301A46FB69934204D10B4B03225A721E
:10CA20007B69BB61084B5B7A0433074AD2789B1A57
:10CA30005A4203F0030302F0030258BF5342184660
:10CA40002037BD4680BD00BF0000002078040020D4
:10CA500080B584B000AFF860B9601346FB71484BF5
:10CA600001221A60474B00229A70464B0022DA706E
:10CA7000444B1A78434B9A71424B5B780133DAB2DC
:10CA8000404BDA713F4B00225A723F4BD3ED007A94
:10CA9000F0EE670A9FED3D0AFDF782FA394B9A796D
:10CAA000384B1A70374BDA79364B5A70354B5A7A05
:10CAB000344BDA7054E00322B968F868FFF746FE99
:10CAC0000346DAB22F4B9A702E4B5B7A032B37D882
:10CAD00001A252F823F000BFE9CA0008FFCA00080B
:10CAE00015CB00082BCB0008264B1A78254B9A71E2
:10CAF000244B5B780133DAB2224BDA7120E0214B10
:10CB00001B780133DAB21F4B9A711E4B5A781D4BBA
:10CB1000DA7115E01B4B1A781A4B9A71194B5B7836
:10CB2000013BDAB2174BDA710AE0164B1B78013B76
:10CB3000DAB2144B9A71134B5A78124BDA7100BF68
:10CB4000FB791846FDF74EFE0E4B9A790D4B1A7085
:10CB50000C4BDA790B4B5A700A4B5A7A094BDA7044
:10CB6000084B1B781A46FB689342A4D1054B5B78AF
:10CB70001A46BB6893429ED100BF1037BD4680BDA8
:10CB8000EC0300200000002078060020000077421F
:10CB900090B583B000AF02F039FF02F03DFE02F025
:10CBA0005BFE02F05BFB02F08BFD0346FB71FB7941
:10CBB0001946444809F02CFCFA2003F0B5F8382156
:10CBC000372002F0EFFCF0EE407A3F4BC3ED007AE5
:10CBD0003D4B1B681846FBF7EFFB03460C461A4615
:10CBE00023463A4809F014FC0021042000F0AAFD75
:10CBF0000021052000F0A6FD0021022000F0A2FD8A
:10CC00000021032000F09EFD0021012000F09AFD8C
:10CC10000021002000F096FDFDF7ACFF47F22F51F8
:10CC20002B48FDF721FE47F22F512A48FDF71CFE45
:10CC3000294805F060FF294805F05DFF284B4FF0BB
:10CC400000029A60274B4FF000021A60264B4FF00B
:10CC500000021A60254B4FF000021A60244B00229C
:10CC60001A60234B00225A60214B00229A6002F086
:10CC700051FD204B9B68204A93601E4B5B681E4A07
:10CC800053601D4B93ED027A1B4BD3ED017A77EE87
:10CC9000677A1A4BC3ED007A042000F069FD052085
:10CCA00000F066FD002000F063FD022000F060FD52
:10CCB000032000F05DFD012000F05AFD00BF0C379D
:10CCC000BD4690BD78A90108E003002094A90108A1
:10CCD0002404004024080040300D0020A80A002051
:10CCE000F403002004040020240400202004002079
:10CCF0002C04002068040020840600201804002072
:10CD000080B582B000AF02F081FE02F085FD02F036
:10CD1000A3FD02F0A3FA02F0D3FC0346FB71FB79FA
:10CD20001946384809F074FB0021042000F00AFD80
:10CD30000021052000F006FD0021022000F002FD88
:10CD40000021032000F0FEFC0021012000F0FAFC8D
:10CD50000021002000F0F6FCFDF70CFF47F22F51F8
:10CD60002948FDF781FD47F22F512848FDF77CFD4A
:10CD7000274805F0C0FE274805F0BDFE264B4FF0C2
:10CD800000029A60254B4FF000021A60244B4FF0CE
:10CD900000021A60234B4FF000021A60224B00225F
:10CDA0001A60214B00225A601F4B00229A6002F049
:10CDB000B1FC1E4B9B681E4A93601C4B5B681C4A6F
:10CDC00053601B4B93ED027A194BD3ED017A77EE4A
:10CDD000677A184BC3ED007A042000F0C9FC0520E7
:10CDE00000F0C6FC002000F0C3FC022000F0C0FCF4
:10CDF000032000F0BDFC012000F0BAFC00BF0837A2
:10CE0000BD4680BD78A901082404004024080040E4
:10CE1000300D0020A80A0020F403002004040020A4
:10CE200024040020200400202C040020680400209A
:10CE3000840600201804002090B5A1B000AFFFF7D1
:10CE4000A7FEFBF7D9FFFEF7D3FB4D4B00225A603C
:10CE50004B4B00221A604A4B00229A6001210420A9
:10CE600000F070FC0121052000F06CFC444B996837
:10CE7000434B1A68424B5B68424809F0C9FA0021EB
:10CE8000012000F05FFC0021022000F05BFC00218B
:10CE9000032000F057FC0021002000F053FC3A4B27
:10CEA0004FF000021A60032002F0F2FC364B4FF004
:10CEB00000021A600023FB6743E0072002F0E8FC51
:10CEC000324B0022DA70314B02229A70304B1A68D2
:10CED000FB6F9B0007F180010B44803B1A60DFED84
:10CEE0002D0A9FED2D0AFCF763FCFB6F0133284AE6
:10CEF00012689B0007F180010B44803B1A6064209C
:10CF000002F012FFFB6F0233214A12689B0007F107
:10CF100080010B44803B1A60002002F0B9FC1B4BDF
:10CF20000022DA70194B02229A70DFED1C0A9FED85
:10CF30001A0AFCF73DFC642002F0F6FEFB6F033397
:10CF4000FB67FB6F1D2BB8DD0023BB6714E0BB6FD5
:10CF50009B0007F180021344803B1B681846FBF7D7
:10CF60002BFA03460C461A462346B96F0C4809F0C3
:10CF70004FFABB6F0133BB67BB6F1D2BE7DDE3E7E8
:10CF80002C040020A0A90108780600200000002041
:10CF90005C020020DB0FC9400000B442DB0FC9C0B7
:10CFA000D4A9010880B500AFFDF7E4FDFDF79EFEB2
:10CFB00000BF80BD80B500AFFFF7EAFDFBF71CFFA7
:10CFC000FEF716FB124B00225A60114B00221A602A
:10CFD0000F4B00229A600121042000F0B3FB0121D5
:10CFE000052000F0AFFB0021012000F0ABFB002189
:10CFF000022000F0A7FB0121032000F0A3FB054B5A
:10D000004FF000021A60012002F042FCFEE700BF70
:10D010002C0400207806002080B500AFFFF7B8FD93
:10D02000FBF7EAFEFEF7E4FA124B00225A60114BBE
:10D0300000221A600F4B00229A600121042000F0A8
:10D0400081FB0121052000F07DFB0121012000F082
:10D0500079FB0021022000F075FB0021032000F085
:10D0600071FB054B4FF000021A60022002F010FC29
:10D07000FEE700BF2C0400207806002080B500AF3A
:10D08000FFF786FDFBF7B8FEFEF7B2FA144B00225D
:10D090005A60134B00221A60114B00229A60012142
:10D0A000042000F04FFB0121052000F04BFB012183
:10D0B000002000F047FB0021012000F043FB00218D
:10D0C000022000F03FFB0021032000F03BFB054B5A
:10D0D0004FF000021A60052002F0DAFBFEE700BF05
:10D0E0002C040020780600202DE9B04F8AB008AF4C
:10D0F000FFF74EFD3E4809F0FFF9FBF77DFEFEF716
:10D1000077FA3C4809F0F8F93B4B00225A603A4B59
:10D1100000221A60384B00229A600121042000F09E
:10D1200011FB0121052000F00DFB334B9968324BB8
:10D130001A68314B5B68314809F06AF90021012017
:10D1400000F000FB0021022000F0FCFA0021032087
:10D1500000F0F8FA2A4B4FF000021A60072002F0A4
:10D1600097FB284B284A9A60284B1B681846FBF708
:10D1700023F9C7E90001264B1B681846FBF71CF989
:10D1800004460D46224BDB681846FBF715F980462E
:10D1900089461F4B93ED007A1D4BD3ED037A77EE52
:10D1A000277A17EE900AFBF707F982468B46184B51
:10D1B00093ED007A164BD3ED037A77EE277AB0EE33
:10D1C000007AC7EE876A16EE900AFBF7F5F802467A
:10D1D0000B46CDE90623CDE904ABCDE90289CDE9C3
:10D1E0000045D7E900230B4809F012F9B9E700BF61
:10D1F000E0A90108E4A901082C040020A0A9010865
:10D2000078060020F40300200000FA43E003002029
:10D2100068040020E8A9010880B582B000AFFA20B8
:10D2200002F082FD794B4FF00002DA600123BB71FE
:10D2300097F906301946764809F0EAF8BB1D1A46F8
:10D240000221012000F054FC97F90630184600F046
:10D25000FDFB704809F050F9FA2002F065FD6B4BB8
:10D260004FF00002DA6001237B7197F9053019460F
:10D27000674809F0CDF87B1D1A460421012000F013
:10D2800037FC97F90530184600F0E0FB614809F0DB
:10D2900033F9FFF735FDFBF7AFFDFEF7A9F95E4B5C
:10D2A00000225A605C4B00221A605B4B00229A609D
:10D2B0000121042000F046FA0121052000F042FA85
:10D2C000554B9968544B1A68534B5B68534809F0A7
:10D2D0009FF80021012000F035FA0021022000F023
:10D2E00031FA0021032000F02DFA97F90630012BC6
:10D2F00002D15423FB7105E097F90630022B01D1CE
:10D300005323FB7197F90530013B032B65D801A22C
:10D3100052F823F025D3000855D3000881D3000824
:10D32000AFD300083E4B3F4A1A603F4B4FF082425A
:10D330001A603D4B4FF082425A603B4B3B4A9A6029
:10D34000394B3B4ADA60384B3A4A1A61364B354A18
:10D350005A6142E0324B384A1A60334B374A1A60FE
:10D36000314B364A5A60304B354A9A602E4B304A20
:10D37000DA602D4B2F4A1A612B4B2A4A5A612CE056
:10D38000274B304A1A60284B4FF081421A60264BD7
:10D390002D4A5A60244B2D4A9A60234B244ADA6066
:10D3A000214B244A1A61204B1E4A5A6115E01C4B3E
:10D3B000274A1A601C4B214A1A601B4B1F4A5A60AD
:10D3C000194B244A9A60184B194ADA60164B194ACD
:10D3D0001A61154B134A5A6100BF042002F058FA33
:10D3E000FEF760FCFB791A4600210120FFF730FBB5
:10D3F000DFED190A9FED190AFCF79AFE072000F0ED
:10D4000025FB00BF0837BD4680BD00BF6804002073
:10D4100000AA01080CAA01082C040020A0A90108F8
:10D42000780600200000B442440400204260653CBD
:10D430000000F04100007042000007430000A040DF
:10D4400040A4DF3C000034430000C0403C6B373D4B
:10D4500000007043E7FBA93D0000000000003442DB
:10D4600080B584B000AFFA2002F05EFC894B4FF02B
:10D470000002DA600123FB7197F9073019468648EC
:10D4800008F0C6FFFB1D1A460221012000F030FB08
:10D4900097F90730184600F0D9FA804809F02CF8BF
:10D4A000FA2002F041FC7B4B4FF00002DA600123CE
:10D4B000BB7197F906301946774808F0A9FFBB1DE4
:10D4C0001A460321012000F013FB97F90630184695
:10D4D00000F0BCFA714809F00FF8FFF759FBFBF7B1
:10D4E0008BFCFEF785F86E4B00225A606C4B0022D5
:10D4F0001A606B4B00229A600121042000F022F98F
:10D500000121052000F01EF90021012000F01AF988
:10D510000021022000F016F90021032000F012F98A
:10D52000022002F0B5F997F90730012B05D15423F9
:10D53000FB735C4B5C4A1A6005E097F90730022BDD
:10D5400001D15323FB7397F90630022B18D0032B1C
:10D550002CD0012B41D1554B4FF082421A60534BD6
:10D560004FF082425A60514B514A9A604F4B514A98
:10D57000DA604E4B504A1A614C4B504A5A612CE0CB
:10D58000484B4F4A1A60494B4E4A1A60474B4D4A26
:10D590005A60464B4C4A9A60444B464ADA60434BC9
:10D5A000454A1A61414B454A5A6116E03D4B474A8C
:10D5B0001A603E4B4FF081421A603C4B444A5A601D
:10D5C0003A4B444A9A60394B3A4ADA60374B3A4A06
:10D5D0001A61364B394A5A6100BF0023BB603E4B8B
:10D5E00000221A603D4B00229A703C4B0022DA70F8
:10D5F0003A4B1A78394B9A71384B5B780133DAB26F
:10D60000364BDA71354B00225A72264BD3ED007A35
:10D61000F0EE670A9FED320AFCF7C2FC2F4B9A79B5
:10D620002E4B1A702D4BDA792C4B5A702B4B5A7AA1
:10D630002A4BDA7012E0BB680133BB60BB6803F0B1
:10D640000103002B03D0072002F022F902E00020A2
:10D6500002F01EF9FB7B1846FEF7A8FB1F4B1B7858
:10D66000002BE8D01D4B1B78022BE4D81B4B5B78BA
:10D67000012BE0D8DFED1B0A9FED1B0AFCF758FDDC
:10D6800001F012FFFDF754FF072000F0DFF9FEF76D
:10D69000AFFAFCE76804002000AA01080CAA010800
:10D6A0002C0400207806002000006643440400207B
:10D6B0004260653C0000F041000070420000B4424E
:10D6C000000007430000A04040A4DF3C00003443BA
:10D6D0000000C0403C6B373DEC0300200000002000
:10D6E00000007642000000000000344280B485B0A3
:10D6F00000AFF86087ED020AC7ED010A87ED001A56
:10D700000F4AFB682C2101FB03F31344BA681A602B
:10D710000B4AFB682C2101FB03F3134404337A68A2
:10D720001A60074AFB682C2101FB03F313440833FA
:10D730003A681A6000BF1437BD465DF8047B704735
:10D740006002002080B483B000AF78603960074A7F
:10D750007B682C2101FB03F3134428333A681A60D9
:10D7600000BF0C37BD465DF8047B704760020020A7
:10D7700080B483B000AF78601B4A7B682C2101FB2A
:10D7800003F313440C334FF000021A60164A7B680F
:10D790002C2101FB03F3134410334FF000021A60F5
:10D7A000114A7B682C2101FB03F3134414334FF01F
:10D7B00000021A600C4A7B682C2101FB03F313441E
:10D7C00018334FF000021A60074A7B682C2101FBD6
:10D7D00003F31344243300221A6000BF0C37BD4604
:10D7E0005DF8047B704700BF6002002090B585B0F3
:10D7F00000AFF86087ED020AC7ED010A904AFB68A6
:10D800002C2101FB03F3134428331B68002B32D176
:10D810008B4AFB682C2101FB03F313440C334FF0BC
:10D8200000021A60864AFB682C2101FB03F31344B3
:10D8300010334FF000021A60814AFB682C2101FB73
:10D8400003F3134414334FF000021A607C4AFB6860
:10D850002C2101FB03F3134418334FF000021A602C
:10D86000774AFB682C2101FB03F313442433002285
:10D870001A600023DFE0724AFB682C2101FB03F3EE
:10D8800013442033BA681A606D4AFB682C2101FBEF
:10D8900003F313441C337A681A60694AFB682C212D
:10D8A00001FB03F31344203393ED007A644AFB68D1
:10D8B0002C2101FB03F313441C33D3ED007A77EEE4
:10D8C000677A5F4AFB682C2101FB03F313440C3396
:10D8D000C3ED007A5A4AFB682C2101FB03F3134481
:10D8E000103393ED007A564AFB682C2101FB03F3B9
:10D8F00013440C33D3ED007ADFED526A67EEA67A5B
:10D9000077EE277A4E4AFB682C2101FB03F3134480
:10D910001033C3ED007A4A4AFB682C2101FB03F364
:10D9200013440C3393ED007A454AFB682C2101FB2C
:10D9300003F313441833D3ED007A77EE677A9FED43
:10D94000427A67EE877A3E4AFB682C2101FB03F39B
