:020000040800F2
:1000000000000220D1EA0008A1D00008A7D0000813
:10001000ADD00008B3D00008B9D00008000000003F
:10002000000000000000000000000000BFD0000839
:10003000CDD0000800000000DBD00008E9D00008A7
:1000400021EB000821EB000821EB000821EB000860
:1000500021EB000821EB000821EB000821EB000850
:1000600021EB000821EB000821EB000821EB000840
:1000700021EB000821EB000821EB000821EB000830
:1000800021EB000821EB000821EB000821EB000820
:1000900021EB000821EB000821EB000821EB000810
:1000A00021EB0008F5D0000821EB000821EB000847
:1000B00021EB000821EB000821EB000821EB0008F0
:1000C00021EB000821EB000821EB000821EB0008E0
:1000D00021EB000821EB000821EB000821EB0008D0
:1000E00009D1000821EB000821EB000821EB0008F2
:1000F00019D1000821EB000821EB000821EB0008D2
:1001000021EB000821EB000821EB000821EB00089F
:1001100021EB000821EB000821EB000821EB00088F
:100120002DD1000821EB000841D1000821EB000887
:1001300021EB0008000000000000000021EB000897
:1001400021EB000821EB000821EB000821EB00085F
:1001500021EB000821EB000821EB000821EB00084F
:1001600021EB000821EB000821EB000821EB00083F
:1001700021EB000821EB0008000000000000000057
:0801800021EB000821EB00084F
:1080000010B5054C237833B9044B13B10448AFF3D2
:1080100000800123237010BD080200200000000032
:10802000CC8F010808B5034B1BB103490348AFF3DC
:10803000008008BD000000000C020020CC8F010869
:10804000034613F8012B002AFBD1181A0138704798
:1080500001F0FF01102A2BDB10F0070F08D010F8F9
:10806000013B013A8B422DD010F0070F42B3F6D1FD
:10807000F0B441EA012141EA014122F007047FF016
:1080800000070023F0E80256083C85EA010586EA6D
:10809000010685FA47F5A3FA87F586FA47F6A5FAA9
:1080A00087F68EB9EED1F0BC01F0FF0102F00702B5
:1080B00032B110F8013B013A83EA010313B1F8D160
:1080C0000020704701387047002D06BF3546033841
:1080D000073815F0010F07D1013015F4807F02BF7A
:1080E000013015F4C03F0130F0BC0138704700BFCB
:1080F00081F0004102E000BF83F0004330B54FEA59
:1081000041044FEA430594EA050F08BF90EA020FC5
:108110001FBF54EA000C55EA020C7FEA645C7FEA58
:10812000655C00F0E2804FEA5454D4EB5555B8BF7B
:108130006D420CDD2C4480EA020281EA030382EAEC
:10814000000083EA010180EA020281EA0303362D7E
:1081500088BF30BD11F0004F4FEA01314FF4801C51
:108160004CEA113102D0404261EB410113F0004F63
:108170004FEA03334CEA133302D0524263EB43031A
:1081800094EA050F00F0A780A4F10104D5F1200EB8
:108190000DDB02FA0EFC22FA05F2801841F1000113
:1081A00003FA0EF2801843FA05F359410EE0A5F1E7
:1081B00020050EF1200E012A03FA0EFC28BF4CF018
:1081C000020C43FA05F3C01851EBE37101F00045CE
:1081D00007D54FF0000EDCF1000C7EEB00006EEBDB
:1081E0000101B1F5801F1BD3B1F5001F0CD3490865
:1081F0005FEA30004FEA3C0C04F101044FEA4452BC
:1082000012F5800F80F09A80BCF1004F08BF5FEA42
:10821000500C50F1000041EB045141EA050130BD22
:108220005FEA4C0C404141EB010111F4801FA4F1C5
:108230000104E9D191F0000F04BF01460020B1FA1A
:1082400081F308BF2033A3F10B03B3F120020CDA52
:108250000C3208DD02F1140CC2F10C0201FA0CF030
:1082600021FA02F10CE002F11402D8BFC2F1200C95
:1082700001FA02F120FA0CFCDCBF41EA0C0190404B
:10828000E41AA2BF01EB0451294330BD6FEA040494
:108290001F3C1CDA0C340EDC04F11404C4F120027F
:1082A00020FA04F001FA02F340EA030021FA04F391
:1082B00045EA030130BDC4F10C04C4F1200220FAE8
:1082C00002F001FA04F340EA0300294630BD21FA26
:1082D00004F0294630BD94F0000F83F4801306BFEC
:1082E00081F480110134013D4EE77FEA645C18BFE0
:1082F0007FEA655C29D094EA050F08BF90EA020F77
:1083000005D054EA000C04BF1946104630BD91EA6E
:10831000030F1EBF0021002030BD5FEA545C05D171
:108320004000494128BF41F0004130BD14F58004B0
:108330003CBF01F5801130BD01F0004545F0FE4124
:1083400041F470014FF0000030BD7FEA645C1ABF59
:10835000194610467FEA655C1CBF0B46024650EA90
:10836000013406BF52EA033591EA030F41F40021BC
:1083700030BD00BF90F0000F04BF0021704730B542
:108380004FF4806404F132044FF000054FF0000117
:1083900050E700BF90F0000F04BF0021704730B5D8
:1083A0004FF4806404F1320410F0004548BF4042AD
:1083B0004FF000013EE700BF42004FEAE2014FEA02
:1083C00031014FEA02701FBF12F07F4393F07F4FDD
:1083D00081F06051704732F07F4208BF704793F0E0
:1083E0007F4F04BF41F40021704730B54FF46074F3
:1083F00001F0004521F000411CE700BF50EA0102F6
:1084000008BF704730B54FF000050AE050EA01029E
:1084100008BF704730B511F0004502D5404261EB0E
:1084200041014FF4806404F132045FEA915C3FF44F
:10843000D8AE4FF003025FEADC0C18BF03325FEAEC
:10844000DC0C18BF033202EBDC02C2F1200300FA9D
:1084500003FC20FA02F001FA03FE40EA0E0021FAC2
:1084600002F11444BDE600BF70B54FF0FF0C4CF4B0
:10847000E06C1CEA11541DBF1CEA135594EA0C0F62
:1084800095EA0C0F00F0DEF82C4481EA030621EA9D
:108490004C5123EA4C5350EA013518BF52EA0335D8
:1084A00041F4801143F4801338D0A0FB02CE4FF08A
:1084B0000005E1FB02E506F00042E0FB03E54FF0BA
:1084C0000006E1FB03569CF0000F18BF4EF0010EB2
:1084D000A4F1FF04B6F5007F64F5407404D25FEAAE
:1084E0004E0E6D4146EB060642EAC62141EA555161
:1084F0004FEAC52040EA5E504FEACE2EB4F1FD0CA3
:1085000088BFBCF5E06F1ED8BEF1004F08BF5FEA20
:10851000500E50F1000041EB045170BD06F00046D2
:1085200046EA010140EA020081EA0301B4EB5C047F
:10853000C2BFD4EB0C0541EA045170BD41F4801177
:108540004FF0000E013C00F3AB8014F1360FDEBF9C
:10855000002001F0004170BDC4F10004203C35DA78
:108560000C341BDC04F11404C4F1200500FA05F3FB
:1085700020FA04F001FA05F240EA020001F000429C
:1085800021F0004110EBD37021FA04F642EB060112
:108590005EEA430E08BF20EAD37070BDC4F10C043C
:1085A000C4F1200500FA04F320FA05F001FA04F200
:1085B00040EA020001F0004110EBD37041F10001EC
:1085C0005EEA430E08BF20EAD37070BDC4F12005F7
:1085D00000FA05F24EEA020E20FA04F301FA05F25F
:1085E00043EA020321FA04F001F0004121FA04F207
:1085F00020EA020000EBD3705EEA430E08BF20EAD7
:10860000D37070BD94F0000F0FD101F00046400010
:1086100041EB010111F4801F08BF013CF7D041EA92
:10862000060195F0000F18BF704703F00046520096
:1086300043EB030313F4801F08BF013DF7D043EA67
:108640000603704794EA0C0F0CEA135518BF95EA1D
:108650000C0F0CD050EA410618BF52EA4306D1D1A4
:1086600081EA030101F000414FF0000070BD50EAC3
:10867000410606BF1046194652EA430619D094EA4D
:108680000C0F02D150EA013613D195EA0C0F05D137
:1086900052EA03361CBF104619460AD181EA03018B
:1086A00001F0004141F0FE4141F470014FF0000043
:1086B00070BD41F0FE4141F4780170BD70B54FF0DE
:1086C000FF0C4CF4E06C1CEA11541DBF1CEA13555E
:1086D00094EA0C0F95EA0C0F00F0A7F8A4EB050440
:1086E00081EA030E52EA03354FEA013100F0888037
:1086F0004FEA03334FF0805545EA131343EA126300
:108700004FEA022245EA111545EA10654FEA0026B4
:108710000EF000419D4208BF964244F1FD0404F56D
:10872000407402D25B084FEA3202B61A65EB0305C9
:108730005B084FEA32024FF480104FF4002CB6EB86
:10874000020E75EB030E22BFB61A754640EA0C0006
:108750005B084FEA3202B6EB020E75EB030E22BF46
:10876000B61A754640EA5C005B084FEA3202B6EB87
:10877000020E75EB030E22BFB61A754640EA9C0046
:108780005B084FEA3202B6EB020E75EB030E22BF16
:10879000B61A754640EADC0055EA060E18D04FEAD4
:1087A000051545EA16754FEA06164FEAC30343EA74
:1087B00052734FEAC2025FEA1C1CC0D111F4801F41
:1087C0000BD141EA00014FF000004FF0004CB6E73A
:1087D00011F4801F04BF01430020B4F1FD0C88BFD9
:1087E000BCF5E06F3FF6AFAEB5EB030C04BFB6EBE4
:1087F000020C5FEA500C50F1000041EB045170BDD7
:108800000EF0004E4EEA113114EB5C04C2BFD4EB03
:108810000C0541EA045170BD41F480114FF0000E87
:10882000013C90E645EA060E8DE60CEA135594EA03
:108830000C0F08BF95EA0C0F3FF43BAF94EA0C0F06
:108840000AD150EA01347FF434AF95EA0C0F7FF47B
:1088500025AF104619462CE795EA0C0F06D152EACF
:1088600003353FF4FDAE1046194622E750EA4106B3
:1088700018BF52EA43067FF4C5AE50EA41047FF4C4
:108880000DAF52EA43057FF4EBAE12E74FF0FF3C29
:1088900006E000BF4FF0010C02E000BF4FF0010CFA
:1088A0004DF804CD4FEA410C7FEA6C5C4FEA430C73
:1088B00018BF7FEA6C5C1BD001B050EA410C0CBFC2
:1088C00052EA430C91EA030F02BF90EA020F002024
:1088D000704710F1000F91EA030F58BF994208BF8B
:1088E00090422CBFD8176FEAE37040F00100704748
:1088F0004FEA410C7FEA6C5C02D150EA013C07D19F
:108900004FEA430C7FEA6C5CD6D152EA033CD3D0E9
:108910005DF8040B704700BF8446104662468C46E3
:108920001946634600E000BF01B5FFF7B7FF002816
:1089300048BF10F1000F01BD4DF808EDFFF7F4FF3F
:108940000CBF012000205DF808FB00BF4DF808EDCA
:10895000FFF7EAFF34BF012000205DF808FB00BFED
:108960004DF808EDFFF7E0FF94BF012000205DF80F
:1089700008FB00BF4DF808EDFFF7CEFF94BF0120C4
:1089800000205DF808FB00BF4DF808EDFFF7C4FFBD
:1089900034BF012000205DF808FB00BF4FEA410C06
:1089A0007FEA6C5C02D150EA013C0AD14FEA430CE9
:1089B0007FEA6C5C02D152EA033C02D14FF0000026
:1089C00070474FF0010070474FEA410212F5001264
:1089D00015D211D56FF47873B3EB625212D94FEA06
:1089E000C12343F0004343EA505311F0004F23FAF0
:1089F00002F018BF404270474FF00000704750EA45
:108A0000013005D111F0004008BF6FF00040704701
:108A10004FF00000704700BF4A0011D212F500125B
:108A200011D20DD56FF47873B3EB62520ED44FEAC6
:108A3000C12343F0004343EA505323FA02F0704746
:108A40004FF00000704750EA013002D14FF0FF3084
:108A500070474FF0000070474FEA4102B2F1E04327
:108A600024BFB3F5001CDCF1FE5C0DD901F0004C15
:108A70004FEAC0024CEA5070B2F1004F40EB830065
:108A800008BF20F00100704711F0804F21D113F191
:108A90003872BCBF01F00040704741F480114FEACA
:108AA0005252C2F11802C2F1200C10FA0CF320FA53
:108AB00002F018BF40F001004FEAC1234FEAD32370
:108AC00003FA0CFC40EA0C0023FA02F34FEA4303DA
:108AD000CCE77FEA625307D150EA01331EBF4FF063
:108AE000FE4040F44000704701F0004040F0FE407E
:108AF00040F40000704700BF53B94AB9002908BFCD
:108B000000281CBF4FF0FF314FF0FF3000F072B96A
:108B1000ADF1080C6DE904CE00F006F8DDF804E0D4
:108B2000DDE9022304B070472DE9F047089E0446B2
:108B30008846002B4BD18A42154667D9B2FA82F299
:108B40004AB1C2F1200701FA02F320FA07F7954073
:108B500047EA030894404FEA154E230CB8FBFEF792
:108B60001FFA85FC0EFB178843EA084307FB0CF14C
:108B7000994209D9EB1807F1FF3080F01B81994227
:108B800040F21881023F2B445B1AA4B2B3FBFEF003
:108B90000EFB103344EA034400FB0CFCA44509D946
:108BA0002C1900F1FF3380F00781A44540F20481C5
:108BB00002382C4440EA0740A4EB0C0400271EB105
:108BC000D4400023C6E900433946BDE8F0878B4214
:108BD00009D9002E00F0EB800027C6E900013846D5
:108BE0003946BDE8F087B3FA83F7002F47D18B42AF
:108BF00002D3824200F2FA80841A61EB030301205F
:108C00009846002EE0D0C6E90048DDE702B9FFDE55
:108C1000B2FA82F2002A40F08F80491B4FEA154ECB
:108C20001FFA85F80127B1FBFEFC230C0EFB1C117B
:108C300043EA014308FB0CF1994207D9EB180CF108
:108C4000FF3002D2994200F2CD808446591AA3B275
:108C5000B1FBFEF00EFB101443EA044408FB00F8DD
:108C6000A04507D92C1900F1FF3302D2A04500F22C
:108C7000B6801846A4EB080440EA0C409FE7C7F111
:108C8000200CBB4022FA0CFE4EEA030E01FA07F458
:108C900020FA0CF521FA0CF34FEA1E482543B3FBEA
:108CA000F8F92C0C08FB19331FFA8EFA44EA034337
:108CB00009FB0AF49C4202FA07F200FA07F10BD909
:108CC0001EEB030309F1FF3080F087809C4240F2E5
:108CD0008480A9F1020973441B1BADB2B3FBF8F009
:108CE00008FB103345EA034400FB0AFAA24508D901
:108CF0001EEB040400F1FF336BD2A24569D90238A0
:108D0000744440EA0940A0FB0289A4EB0A044C45E4
:108D1000C2464B4654D351D0002E69D0B1EB0A0560
:108D200064EB030404FA0CFCFD40FC404CEA05052E
:108D3000C6E90054002747E7C2F1200320FA03F7F1
:108D4000954001FA02F021FA03F34FEA154E384339
:108D5000010CB3FBFEF71FFA85F80EFB173341EA4F
:108D6000034107FB08F38B4204FA02F407D96918A0
:108D700007F1FF3C2FD28B422DD9023F2944CB1A59
:108D800081B2B3FBFEF00EFB103341EA034100FB5E
:108D900008F38B4207D9691800F1FF3C17D28B42C8
:108DA00015D902382944C91A40EA07473BE7374634
:108DB000304609E70746E7E61846FBE64145ABD2F1
:108DC000B8EB020A69EB0E0201381346A4E76046CD
:108DD000E9E7184695E76746D1E781467CE7023820
:108DE0002C4447E7ACF1020C2B442FE7384608E748
:108DF0003746E9E6704700BF044B002204200121FA
:108E00009871D9711A805A711A7170470400002044
:108E1000314A937A062B55D8DFE803F040542C549E
:108E200018540400137B03F0C002402A4CD003F016
:108E30003302112A4AD003F00302012A48D003F07A
:108E40003003102B14BF062002207047137B03F061
:108E50003002102A38D003F0CC02442A36D003F076
:108E60000C02042A36D003F0C003402B14BF0620A6
:108E700003207047137B03F00C02042A24D003F074
:108E80003302112A22D003F00302012A22D003F078
:108E90003003102B14BF062003207047137B03F010
:108EA0000302012A10D003F0CC02442A0ED003F0B2
:108EB0000C02042A0CD003F0C003402B14BF062080
:108EC0000220704706207047082070470120704735
:108ED0000320704702207047FC8100202DE9F843F1
:108EE000DFF87090DFF87080164F174E174D2DED9C
:108EF000028B00249FED168A06E0D5ED027AF5EE8E
:108F0000407AF1EE10FA16D0C9F80840C8F80040CF
:108F10003C603460D5ED007AF4EEC87AF1EE10FAD8
:108F2000EBDD022004F0BCFED5ED027AF5EE407ACE
:108F3000F1EE10FAE8D1BDEC028B6420BDE8F843F5
:108F400005F062BE6C8900203C7F002098890020DB
:108F50000000FA435C890020347F002000000000FC
:108F6000F3EE0E6A60EE266A9FED9F6ADFED9F7A50
:108F700086EE867AF8B59E4B002460EEA77A77EEEF
:108F8000076A67EEA07A2DED048B17EE100A1C60BD
:108F9000B0EE609AF0EE408A87EEA68AFFF70CFAF0
:108FA0008DA3D3E90023FFF75FFA0022914BFFF76F
:108FB00085FBFFF751FDB5EEC09AF1EE10FA09EE10
:108FC000900A0BDC00F18F808B4B1C60FFF786FF53
:108FD000BDEC048B894B9A689A60F8BD884C894D2A
:108FE000D4ED007A844E79EEA77A0220C4ED007A9F
:108FF00004F056FE94ED007AD5ED007AB4EEE77AEF
:10900000F1EE10FA0EDD804F86ED008A38460CF046
:10901000B5FB94ED007AD5ED007AB4EEE77AF1EE87
:1090200010FAF1DCD4ED007A79EEA77A0320C4EDD2
:10903000007A04F035FE94ED007AD5ED007AB4EEB6
:10904000E77AF1EE10FA0ADD0023336094ED007A3E
:10905000D5ED007AB4EEE77AF1EE10FAF5DCD4ED56
:10906000007A6A4B79EEA79AB1EE488AC4ED009A6D
:1090700008E086ED008AD3ED007AF5EEC07AF1EED5
:1090800010FA08D994ED007AD5ED007AB4EEE77ABB
:10909000F1EE10FAEDDC00233360FFF71FFFDFED88
:1090A0005C7AC8EEA77A17EE900AFFF785F94CA311
:1090B000D3E90023FFF7D8F9FFF786FCB5EEC09A95
:1090C000F1EE10FA024675D44C4B00EBD0701A68E2
:1090D000401002441A605A68BDEC048B101A5860A4
:1090E0009A689A60F8BD464C464DD4ED007A424EDF
:1090F00077EEE97AC4ED007A94ED007AD5ED007A46
:10910000B4EEE77AF1EE10FA0CD5F1EE486AC6ED4E
:10911000006A94ED007AD5ED007AB4EEE77AF1EECC
:1091200010FAF4D4D4ED007A77EEE97AC4ED007A3F
:1091300094ED007AD5ED007AB4EEE77AF1EE10FA0C
:109140000AD50023336094ED007AD5ED007AB4EEB1
:10915000E77AF1EE10FAF5D4D4ED007A2B4B77EEE6
:10916000E99AC4ED009A08E086ED008AD3ED007A12
:10917000F5EEC07AF1EE10FA08DA94ED007AD5ED4A
:10918000007AB4EEE77AF1EE10FAEDD40023336002
:10919000FFF7A4FEDFED1E7AC8EEA77A17EE900A5D
:1091A000FFF70AF90EA3D3E90023FFF75DF9FFF7F4
:1091B0000BFC0246114B196802EBD272A1EB620163
:1091C00019605868BDEC048B00EB62025A609A6823
:1091D0009A60F8BDAFF30080182D4454FB2109407C
:1091E000496632CBD615FA400000B4426F12833D77
:1091F0006C890020008066403C7F0020C0890020F0
:10920000487F0020387F002014900108447F002010
:109210000000B4431B4B5A79062A30D8DFE802F02D
:10922000242F192F0E2F04001A785978164B02EBB1
:10923000C2020A4413F81200800970471A7859785C
:10924000114B02EBC2020A4413F81200C0F30110E2
:1092500070471A7859780C4B02EBC2020A4413F893
:109260001200C0F3810070471A785978064B02EB60
:10927000C2020A4413F8120000F00300704740F2E3
:10928000E730704704000020548B002000000000ED
:109290002DE9F84FC04AC14DC14BD2F80080286972
:1092A000DFF830B3BF4C02222DED068B9A71FFF729
:1092B00083F8B3A3D3E90023FFF7D6F80022BA4B13
:1092C000D5ED019A95ED028AFFF7F8F9FFF7C4FB97
:1092D0000AEE100A6869FFF76FF8A9A3D3E9002323
:1092E000FFF7C2F80022B04BFFF7E8F9FFF7B4FB35
:1092F00009EE100AA869FFF75FF8A1A3D3E90023DC
:10930000FFF7B2F80022A84BFFF7D8F9FFF7A4FB4C
:10931000DBF80030D4F800A0D4F8049008EE900AEE
:10932000FFF778FF012844D0D5ED007A77EEA77AD1
:1093300017EE900AFFF740F893A3D3E90023FFF755
:10934000BDF906460AEB09000F46FFF723F802466F
:109350000B4630463946FEF7D1FE06462068636864
:1093600018440F46FFF716F802460B4630463946BA
:10937000FFF70AFB002800F0FB808C4DDFF858A2B5
:10938000DFF84092DFED8AAAC5ED00AACAED00AA77
:10939000C9F80880206863681844FEF7FBFF32466E
:1093A0003B46FFF7D3FA0028EED1824EC6ED00AA65
:1093B00025E0814B7F4E93ED007A93ED036A31688F
:1093C0007A4DDFF814A2DFED7D7ADFED7D6A7D480E
:1093D0000023002206E02B601946CAF80030012263
:1093E000C0F80880B4EEE77AF1EE10FAF3D4B4EEE8
:1093F000E66AF1EE10FAEED4002A40F0BE80724B1D
:10940000DBF8002093ED007AD3ED007A7AEE076A5C
:10941000F4EEE76AF1EE10FA0CDDDFF8A8918AEDC0
:10942000008AC9F80880D3ED007AF4EEE67AF1EE0E
:1094300010FAF4D40022CAF8002079EE076ADBF8AB
:109440000010D3ED007A3260F4EEE76AF1EE10FA24
:109450000CDDDFF870912A682A60C9F80880D3ED26
:10946000007AF4EEE67AF1EE10FAF4D4DBF800209C
:10947000D3ED007A38EE877AB4EEE77AF1EE10FA9F
:109480001FDDB1EE488A8AED008AD5ED007AF5EE4F
:10949000C07AF1EE10FA68D4DFF8289108E08AED7E
:1094A000008AD5ED007AF5EEC07AF1EE10FA5CD4C0
:1094B000C9F80880D3ED007AF4EEC77AF1EE10FA1D
:1094C000EDD44FF0000BCAF800B0C5F800B020682A
:1094D0006368DFF8F090DFF804A11844FEF75AFF44
:1094E00079EEA97A064617EE900A0F46FEF764FF5A
:1094F00025A3D3E90023FFF7E1F802460B463046E7
:109500003946FEF7FBFD06460F4606E0C5F800B0FB
:10951000C9F80880DAF800300BB320686368184493
:10952000FEF738FF32463B46FFF710FA0028EDD130
:10953000264D2868FEF740FF15A3D3E90023FEF768
:10954000DDFDFFF789FA224A2860BDEC068BA3688F
:10955000906891681B1A0B449360BDE8F88F03F084
:109560002BFE0123CAF80030D7E700232B60A8E7C1
:10957000104E0E4DDFF860A041E731603FE700BFBD
:10958000182D4454FB2109406626CA236892503F97
:10959000182D4454FB21F93F808A0020A489002023
:1095A000040000208C890020008066406C89002027
:1095B00000000000407F0020CC89002000004843CC
:1095C00000007A435C890020387F0020487F00201B
:1095D000C0890020447F00203C7F0020FC8B0020BD
:1095E0002DE9F84FB64AB74DB74B16682869B74C06
:1095F00002222DED068B9A71FEF7DEFEAAA3D3E9B7
:109600000023FEF731FF0022B14B95ED029AD5ED14
:10961000019AFFF753F8FFF71FFA08EE900A6869FE
:10962000FEF7CAFEA0A3D3E90023FEF71DFF002228
:10963000A74BFFF743F8FFF70FFA08EE100AA869E7
:10964000FEF7BAFE98A3D3E90023FEF70DFF002230
:109650009F4BFFF733F8FFF7FFF90AEE900AFFF789
:10966000D9FD0128D4F800A06768B1EE49AA00F03E
:10967000EB80D5ED007A77EEA77A17EE900AFEF729
:109680009BFE8BA3D3E90023FFF718F880460AEB73
:1096900007008946FEF77EFE02460B4640464946D5
:1096A000FEF72CFD80462068636818448946FEF763
:1096B00071FE02460B4640464946FFF765F9002811
:1096C00000F0EC80834DDFF82CA2834F4FF0000BAD
:1096D000C5F800B0CAF800B0BE60206863681844DE
:1096E000FEF758FE42464B46FFF730F90028EFD10F
:1096F000DFF804C2794BD3ED007A93ED007A77EE70
:10970000E86AF4EEC76AF1EE10FA0AD5724F8AEDF4
:1097100000AABE6093ED007AB4EEE67AF1EE10FA9C
:10972000F5DC0022CAF8002077EEC86A93ED007AD3
:10973000CCF80020F4EEC76AF1EE10FA0AD5664FB5
:109740002A682A60BE6093ED007AB4EEE67AF1EE04
:1097500010FAF5DC77EEEA7A93ED007AF4EEC77A48
:10976000F1EE10FA1BD58AED009A95ED007AB5EE70
:10977000C07AF1EE10FA64DC574F08E08AED009AE7
:1097800095ED007AB5EEC07AF1EE10FA59DCBE60C4
:1097900093ED007AB4EEE77AF1EE10FAEEDC79EEB2
:1097A000A97A4FF0000B17EE900ACAF800B0C5F87E
:1097B00000B0FEF701FE3EA3D3E90023FEF77EFFD3
:1097C000804620686368444FDFF830A1184489461A
:1097D000FEF7E0FD02460B4640464946FEF78EFC8A
:1097E0008046894605E0C5F800B0BE60DAF8003072
:1097F0000BB3206863681844FEF7CCFD42464B4625
:10980000FFF7A4F80028EED1354D2868FEF7D4FD07
:1098100029A3D3E90023FEF76FFCFFF71DF9314AB6
:109820002860BDEC068BA368906891681B1A0B44F6
:109830009360BDE8F88F03F0BFFC0123CAF8003045
:10984000D7E700232B60AAE7274BDFF8ACC093EDE6
:10985000007A93ED036ADCF800101E4DDFF894A047
:10986000DFED227ADFED226A1B480023002205E0AB
:109870002B601946CAF8003001228660B4EEE77A00
:10988000F1EE10FAF4D4B4EEE66AF1EE10FAEFD489
:10989000002A3FF42FAFCCF800102BE7DFF858C0B8
:1098A0000C4DDFF850A025E7182D4454FB2109404A
:1098B0006626CA236892503F182D4454FB21F93F75
:1098C000808A0020A4890020040000208C890020C8
:1098D000008066406C8900205C890020387F002071
:1098E000487F0020C0890020CC8900200000484328
:1098F00000007A433C7F0020407F0020FC8B00204A
:10990000394ADFED3A7A2DE9F84F0021384B1160E2
:1099100093ED027ADFF8E8B0364D374E70EEC70AA5
:1099200030EE000A60EEA77A10EE100A67EEA07A19
:1099300087EE807A8BED007AFEF73EFD26A3D3E911
:109940000023FEF7BBFEFFF73FF8044620E0FEF7DA
:1099500021FD23A3D3E90023FEF786FDD5F808A057
:10996000B768804650468946FEF714FD02460B460E
:1099700040464946FEF7C2FB804638468946FEF718
:1099800009FD02460B4640464946FEF7DFFFB0B9E7
:10999000AB68B268234493422046D8DC0023CBF85E
:1099A0000030AB682344AB602B6804EBD4746410C4
:1099B00023442B606B681C446C60BDE8F88F0F4B30
:1099C0001B68002BE4D103F0F7FB0C4A0123136062
:1099D000DEE700BFAFF300806626CA236892503FDF
:1099E0009A9999999999E93F6C8900206F12833A65
:1099F00098890020C08900208C890020FC8B0020E1
:109A0000347F0020000000002DE9F84F4C4BDFEDC3
:109A10004D7A93ED027A4C4BDFF848A14B4D4C4EFA
:109A200037EE607A30EE000A67EE277A2DED048B70
:109A300067EE877A10EE100A87EE807AF0EE608A81
:109A4000F1EE477AC3ED007AFEF7B6FC38A3D3E90E
:109A50000023FEF733FEFEF7B7FF9FED3E9A074661
:109A60003D4B93ED038AD3ED007A38EE278A2CE044
:109A7000AB68B2683B4493422DDDDAED027AF4EE36
:109A8000E87AF1EE10FA40D9FEF784FC2AA3D3E974
:109A90000023FEF7E9FCD5F808B0B46880465846C4
:109AA0008946FEF777FC02460B4640464946FEF7DC
:109AB00025FB804620468946FEF76CFC02460B4695
:109AC00040464946FEF742FF68BBB4EEC98AF1EE54
:109AD00010FA3846CCD42149214A3C461A48CAEDEE
:109AE000028A002303600B601360AB682344AB6001
:109AF0002B6804EBD47464102344BDEC048B2B60FE
:109B00006B681C446C60BDE8F88F072004F0C8F84F
:109B10001249134A0C48CAED028A002303603C46EE
:109B20000B601360DAE70121002004F071FD97E774
:109B30006626CA236892503FCDCCCCCCCCCCE43F37
:109B4000988900206F12833A347F0020C08900205A
:109B50008C89002000806D45CC8900206C89002014
:109B60003C7F00205C8900202DE9F04F2DED028B19
:109B700070EE007AB44B002583B004461D6017EEEA
:109B8000900AB0EE408AF0EE608AFEF715FCA8A3BA
:109B9000D3E90023FEF792FDFEF716FF012C00F03B
:109BA000E6800134834600F0EB80FFF731F903468D
:109BB000062808BF0023A54CDFF8B0A29FEDA48AB9
:109BC00000950193A368DAF808205B44934252DDC4
:109BD0005846FEF7DFFB009B80468946002B75D177
:109BE0009C4A9D4BD2ED007A93ED007A77EEC87ACD
:109BF000F4EEC77AF1EE10FA0BD5D2ED007A93EDC0
:109C0000007A77EE887AF4EEC77AF1EE10FA00F374
:109C100087808D4A00231360A068DAF80850FEF7A9
:109C2000B9FB85A3D3E9002306460F4640464946C3
:109C3000FEF71AFC02460B4630463946FEF75EFA3E
:109C4000064628460F46FEF7A5FB02460B46304661
:109C50003946FEF77BFE0028B4D0804D2B68002BE0
:109C6000B0D103F0A9FA01232B60A368DAF8082029
:109C70005B449342ACDC7A4B00221A60A368724AC0
:109C80005B44A36094ED007A07EE90BAB8EEC77A11
:109C9000F8EEE77AF6EE006AA7EEA67A00231360E4
:109CA000BDEEC77A84ED007A94ED017AB8EEC77AFA
:109CB000A7EEA67AFDEEC77AC4ED017A002003B0C4
:109CC000BDEC028BBDE8F04F03F0EABFA068DAF804
:109CD0000850FEF75FFB5AA3D3E9002306460F4660
:109CE00040464946FEF7C0FB02460B463046394621
:109CF000FEF704FA064628460F46FEF74BFB0246DF
:109D00000B4630463946FEF721FE18B94E4B019AF4
:109D10001A6081E74C4A00231360012300937BE71C
:109D2000A068DAF80850FEF735FB45A3D3E9002315
:109D300006460F4640464946FEF796FB02460B464E
:109D400030463946FEF7DAF9064628460F46FEF752
:109D500021FB02460B4630463946FEF7F7FD002848
:109D6000D8D1394B019A1A600123009354E73D4B37
:109D7000F0EE680AB0EE480A1C70FFF7C1FD9DE7DF
:109D8000384B324C1D70B6EE080AF0EE680A28EE29
:109D9000000AFFF739FE062003F082FF07EE90BAB3
:109DA000F8EEE78AB5EE008A28EE888ADFF8BCA0D4
:109DB0002A4D012601E02B689BB3D4ED027A9AED7F
:109DC000027AF8EEE77AB8EEC77A77EE887AF4EEA0
:109DD000C77AF1EE10FAEEDCD4ED027A9FED227A2A
:109DE000F8EEE77A28EE877AF6EE006A77EE877A61
:109DF000FDEEE77AC4ED027AD4ED007AF8EEE77A68
:109E0000E7EE267AFDEEE77AC4ED007AD4ED017A2A
:109E1000F8EEE77AE7EE267AFDEEE77AC4ED017A0E
:109E20004CE703F0C9F92E60C7E700BFAFF300802D
:109E30006626CA236892503F9A9999999999E93F61
:109E40009A9999999999D93F24020020C0890020B4
:109E50005077563D487F0020387F0020FC8B002043
:109E6000347F00207E8A0020CDCC4C3E8C8900209F
:109E700053282FD054282CD108B5DFED170A9FEDB9
:109E8000170AFFF7C1FDFFF729F8052003F008FFC7
:109E900003F0F8FE0021084604F0BAFBDFED100ADB
:109EA0009FED100AFFF75CF8002003F0F9FE03F0C5
:109EB000DBFE642004F0A8FE0121002004F0A8FBD2
:109EC000094B9FED060AD3ED000ABDE80840FFF7F5
:109ED00017BD7047FFF7DCB90000000000003442F6
:109EE000DB0FC9400000B442808A002053282CD0E8
:109EF000542829D108B5DFED160A9FED160AFFF7A1
:109F000083FDFEF7EBFF03F0BDFE0021084604F0E1
:109F10007FFBDFED110A9FED110AFFF721F803F037
:109F2000A3FE642004F070FE642004F06DFE0121A5
:109F3000002004F06DFB0A4B9FED060AD3ED000AEA
:109F4000BDE80840FFF7DCBC7047FFF749BB00BF26
:109F50000000000000003442DB0FC9C00000B44222
:109F6000808A002038B52DED048B9FED1C8ADFED33
:109F70001C0A1C4C9FED1C9ADFED1C8AB0EE480AAF
:109F8000FFF742FDFEF7AAFF052003F089FE00213E
:109F900008460125257104F03BFBF0EE490AB0EEBE
:109FA000680AFEF7DDFFF0EE490AB0EE680A257197
:109FB000FEF7D6FF2946002004F02AFB0323C82021
:109FC000237104F021FEB0EE480ABDEC048B084B6F
:109FD000D3ED000ABDE83840FFF792BC00003442E0
:109FE0000000000004000020DB0FC9400000B44264
:109FF000808A00200000000070B5814C8148616AB1
:10A00000814ADFED827A824D824E47F22F53591AF0
:10A0100001606362546A53621B1B07EE103A06EE3E
:10A02000901AB8EEC77AF8EEE66A27EE277A66EE5F
:10A03000A76AB6EE006AC5ED006A85ED017AD5ED36
:10A04000007A95ED017A744A436077EE877A734C13
:10A0500067EE867AC5ED027A106801441160516896
:10A060006F480B445360136851680B446D4993600B
:10A0700003F0CEFC20683368834206D004F0DEFA99
:10A080002068002104F0C4FA3068012104F0C0FA0D
:10A0900033682360082B00F2A980DFE803F06375C2
:10A0A000959EA7A7A7A705005F4B9FED600AD3ED7C
:10A0B000007AD3ED030A5E4C70EEA70A082004F084
:10A0C000FBFA07EE900AF8EEE77A17EE900AFEF731
:10A0D00073F949A3D3E90023FEF7C6F9FEF7BCFCE8
:10A0E000544BA0605449554A91ED007AD4ED027A60
:10A0F000DFED536A534E77EE877AB6EE006AC4ED11
:10A10000027A92ED007AD3ED007A77EE877A042016
:10A11000C3ED007AD4ED027A93ED007A26EEC77A89
:10A12000E7EE067AC4ED017A93ED007AD4ED017A78
:10A13000E7EE267AC4ED007A94ED000AD5ED000A28
:10A1400004F0BAFA94ED010A3060D5ED010A052059
:10A1500004F0B2FA3C4B014630681960BDE870402B
:10A1600003F092BE2F4B394A314C92ED000AD3EDE9
:10A17000000A002004F0A0FA07EE900A2D4BF8EE3A
:10A18000E77AC3ED007AADE7274B314AD3ED010AF8
:10A19000D2ED007A93ED020A254C70EEA70A012059
:10A1A00004F08AFA07EE900AF8EEE77A17EE900AC2
:10A1B000FEF702F910A3D3E90023FEF755F9FEF7E5
:10A1C0004BFC1C4B18608DE7224A174BD2ED020A5C
:10A1D00093ED020A164C0220E2E7134A1D4BD2ED22
:10A1E000010A93ED010A124C0320D9E7114B104CE0
:10A1F00078E700BFAFF30080FCA9F1D24D62503F79
:10A2000000040040488B002000080040CD77813FCB
:10A2100098890020240200208C8900202C7F0020B7
:10A22000447F0020387F0020CC89002000007A4540
:10A230005C8900206C890020347F00203C7F002056
:10A240009A990942848A0020A08A0020487F002031
:10A25000808900208C8A00202DE9F843DFF8ECC1CA
:10A260006749DCF824606748DFED676A674D684A34
:10A27000684F694C47F22F539E1B2DED028B0E60E9
:10A28000CCF82430D0F824C04362A3EB0C0307EED3
:10A29000903A07EE106AF8EEE77AB8EEC77A67EE02
:10A2A000A67A27EE267AF6EE008A85ED007AC5EDCD
:10A2B000017AD5ED007A95ED017A4B6077EE877AD9
:10A2C000382167EEA87A3720C5ED027AD2F800C0AF
:10A2D00066441660566833445360136856683344C6
:10A2E000936003F01FFB4D4B4D4AD3ED007A4D4B6D
:10A2F00092ED008A83ED000A30EE670A38684A4E14
:10A3000020EE088AFEF758F839A3D3E90023FEF7B8
:10A31000ABF8804618EE100A8946FEF74DF836A3D2
:10A32000D3E90023FEF7A0F802460B464046494613
:10A33000FDF7E4FEFEF790FB3C4B3D49DFED3D7A37
:10A340003D4A96ED006ADFF808C1DFED3C6A87ED13
:10A35000008A80F000401860D3ED005A91ED007A39
:10A36000374B384EA5EEA77A042081ED007AD2ED66
:10A37000007A77EE867AC2ED007A9CED007AD4ED11
:10A38000027A77EE877AC4ED027A92ED007AD3ED05
:10A39000007A77EE877AC3ED007AD4ED027A93EDF6
:10A3A000007A26EEC77AE7EE287AC4ED017A93EDBB
:10A3B000007AD4ED017AE7EE267AC4ED007A94EDC6
:10A3C000000AD5ED000A04F077F994ED010A306037
:10A3D000D5ED010A052004F06FF9BDEC028B1A4B94
:10A3E000014619603068BDE8F84303F04DBD00BF79
:10A3F000AE47E17A14AEEF3F7B14AE47E17A843F7B
:10A40000488B002000080040CD77813F98890020CC
:10A410008C890020307F00205C890020F47F0020A0
:10A42000A0920108E47F0020407F0020447F0020AC
:10A43000387F00206F12833A3C7F00209A990942AE
:10A440006C890020848A0020A08A0020000400403B
:10A45000347F0020284B984270B5044603D0274B28
:10A460009C4212D070BD264B1B68062B30D0072BA8
:10A470002BD0052BF3D1234D2A6841F287339A4222
:10A4800029DD214B00221A60E9E7204E204C31687B
:10A49000204D00220A2003F05BFD716884ED000A64
:10A4A00001220A2003F054FD296884ED010A0222EA
:10A4B0000A2003F04DFD696884ED020A03220A2098
:10A4C00003F046FD84ED030A70BDFFF7C5FEC6E745
:10A4D000FFF792FDC3E7104E1048314603F098FA9B
:10A4E000094B29680E4A1B68306802EB81020B4455
:10A4F00010602B60B3E700BF488E0020008C002066
:10A500004C8900205489002048890020D07F0020F9
:10A51000CC890020DC7F0020387F0020447F002091
:10A520002C0200201B4B2DE9F047D3F80090DFF8F8
:10A5300068A0C9EBC9784FEA48084C46002707EBEA
:10A540000805554404F1280615F814102046043473
:10A5500003F0E2F8B442F7D15037B7F5347FA8F1F1
:10A560005008ECD10C4F09F5B47409F5347904F1B5
:10A5700024063D4695F8D0122046043403F0CCF86A
:10A58000A64205F10805F5D14E4507F14807EED181
:10A59000BDE8F08798920108A8830020204970B494
:10A5A0000025AA24002305EBC500C2180133092B9E
:10A5B00001F81240F9D10135092DF3D10023012210
:10A5C00003EBC30001EB400503F148042E7C62F36A
:10A5D00001062E7411F8145062F3830501F814502B
:10A5E00011F8104062F3051401F8104011F813003F
:10A5F00062F3871001F813000133092BE0D10B78C7
:10A600008C7C887862F3830362F387146FF3010311
:10A610006FF305108C740B70887070BC704700BFAE
:10A62000548B00202DE9F04F214BDFF888B0D3F890
:10A6300000A04FF00008CAEBCA7983B04FEA49097D
:10A640005446474608EB09055D4404F128062046B8
:10A6500001A9019703F088F8019B05F81430043430
:10A66000B442F4D108F15008B8F5347FA9F150098B
:10A67000E8D1DFF840800AF5B47400270AF5347A8F
:10A6800004F124064546204601A90434019703F04D
:10A690006BF8019B85F8D032A64205F10805F2D18E
:10A6A000564508F14808EBD103B0BDE8F08F00BF74
:10A6B00098920108A88300202DE9F04F85B0064646
:10A6C00003905248DFF85491514DDFF854810C4605
:10A6D0000BF054F8334640330193012300930927CC
:10A6E00048460AF0C3FF019B4FF0000B03F1080638
:10A6F00010E023785B4502D16378BB4218D00AF0A2
:10A70000B5FFBBF1080F48461AD00AF0AFFF0BF1B6
:10A71000010B50367288ABF10703DBB211462846B5
:10A72000002AE6D1012BE4D8FB1FDBB2022BE0D8D4
:10A73000114638480AF09AFFBBF1080F4846E4D1A9
:10A740007B1E1E46344802930BF018F83346F6B2CF
:10A75000F61AF600DDF804A04FF0000B0DE0BAF891
:10A76000D2120AF083FFBBF1090F404622D00AF053
:10A770007DFF0BF1010B0AF1480A0AEB0601ABF170
:10A780000703B1F8D212DBB2284621B9022B02D856
:10A79000009B012B05D923785B45E0D16378BB4250
:10A7A000DDD1BAF8D2121B480AF060FFBBF1090FE5
:10A7B0004046DCD118480AF0E1FF009B029F03F1FC
:10A7C000FF3A019B083B01935FFA8AF30093002F45
:10A7D00086D112480E4E07460AF048FF039B3046CA
:10A7E00059881C460AF042FF04F5207538460AF0E5
:10A7F0003DFF5034618830460AF038FFAC42F5D155
:10A80000054805B0BDE8F04F0AF0B8BF5490010804
:10A810008890010874900108D49301086C90010895
:10A820009090010810B4034600F5347440F6FF71AF
:10A8300003F15002598008339342FBD1A342F7D170
:10A8400040F6FF7100F14802A0F8D21208308242AF
:10A85000FAD19A42F6D15DF8044B7047F0B5002763
:10A860000446844639460226FDB263460122DA7365
:10A870000132092A1E72197359739D7303F108037B
:10A88000F5D10137092F0CF1500CEDD14FF0010C2F
:10A89000674600F1480E022600255FFA8CF17346E8
:10A8A000002283F8D7220132092A83F8D06283F884
:10A8B000D45283F8D57283F8D61203F10803F0D18D
:10A8C0000CF1010CBCF1090F0EF1480EE5D100228C
:10A8D000164603460121D5B20132092A197083F8C0
:10A8E0004810197183F84C105E7183F84D6083F83D
:10A8F00007C083F84FC09D7183F84E5003F1500399
:10A90000E9D100210123CDB20131092984F8D032E7
:10A9100084F8583584F8D43284F85C3584F8D5321C
:10A9200084F85D3584F8D62284F85E2584F8D75201
:10A9300084F85F5504F10804E5D1002280F818334B
:10A9400080F81C3302720273F0BD00BF2DE9F84F8E
:10A95000804605461A481B4F1B4EDFF870A008F1D1
:10A96000480805F534790AF009FF012415F8341078
:10A97000384601340AF07AFE0A2CF7D198F8D01242
:10A9800030460AF073FE08F1400B44462C200AF0D2
:10A9900085FE083494F8D01230460AF067FE5C4514
:10A9A000F4D108F1480850460AF0E8FEC84505F120
:10A9B0005005DAD10548BDE8F84F0AF0DFBE00BF08
:10A9C000349001082C90010830900108D4930108BC
:10A9D0002DE9F04F044683B02248234E0AF0CEFE04
:10A9E0004FF0090804F148034FF00809A3F10802E9
:10A9F000A9EB080401929246E40003F5207503F5E3
:10AA000034779B4603E00AF049FE5F451BD09AF875
:10AA1000D4129AF81CE39BF804000BEB040CC90059
:10AA200001EB4E019CF804C0014401EB8C01C9B25A
:10AA300030460AF01BFE5D454FF02C000BF1500B29
:10AA40000AF1480ADFD109480AF098FEB8F1010876
:10AA500009F1FF39019BC9D1044803B0BDE8F04FAB
:10AA60000AF08CBE9890010830900108D493010838
:10AA7000F0B594005F1CA51807EB4505A61810F863
:10AA800035C0BCF1020F08BF91F804C002F1010506
:10AA900007EB460605EBC50508BF0CF0030C1D448B
:10AAA00000F836C000EBC50504EB020C95F8D06247
:10AAB000022E08BF0E7903EB4C0C08BFC6F38106CB
:10AAC00085F8D06210F83CC0BCF1020F08BF91F8C5
:10AAD00004C004EB020E03EB4E0E4FF0090608BF54
:10AAE000CCF3011C16FB023600F83EC000EBC60694
:10AAF000144496F8D0C2BCF1020F08BF91F804C00C
:10AB00004FEA440404EB070208BF4FEA9C1C86F896
:10AB1000D0C210F83210A1F1010100EBC202B1FA6B
:10AB200081F14909117195F8D022A2F10102B2FA1E
:10AB300082F22344520985F8D42210F83320A2F17E
:10AB4000010200EBC303B2FA82F252091A7196F8BD
:10AB5000D032A3F10103B3FA83F35B0986F8D43250
:10AB6000F0BD00BF2DE9F0439DF81C80002B44D0C0
:10AB70004C1C04EBC4040A25A71815FB012200EBAA
:10AB8000C70700EBC20C4FF008094FF0000E40F66B
:10AB9000FF74B8F1000F28D0A7F1480019FB087620
:10ABA00039466246157A012D14BF00252546558188
:10ABB00091F8D052012D14BF00252546A1F8D2529C
:10ABC0001578012D14BF00252546558090F8D052E8
:10ABD0000831012D14BF00252546B142A0F8D252FC
:10ABE00002F1080200F10800DCD10EF1010E9E45D1
:10ABF0000CF1500C07F14807CBD1BDE8F08300BF42
:10AC00002DE9F04F85B080469DF838E00F9C00F5A7
:10AC1000347C40F6FF7700F1500547800830A842A9
:10AC2000FBD16045F7D1464640F6FF7C06F148056A
:10AC3000A6F8D2C20836AE42FAD18642F6D1CDF895
:10AC400000E04046FFF78EFF454608F150020392B0
:10AC500008F1480E40F6FF72AC464FF00008474638
:10AC60006146E246C14601F1480845465346012087
:10AC70005E89964255D0082810D093F810B01BEA90
:10AC8000040F09D1B3F812B0934505D106F10709B5
:10AC9000A3F812904FF0010901280CD093F800B0EE
:10ACA0001BEA040F07D1B3F802B0934503D107366E
:10ACB0005E804FF00109082F17D095F8D862264220
:10ACC00009D1B5F8DA62964205D15E890536A5F854
:10ACD000DA624FF0010995F8D062264204D1B5F846
:10ACE000D262964200F09280DFB191F8D86226429B
:10ACF00009D1B1F8DA62964205D15E890536A1F82C
:10AD0000DA624FF0010991F8D062264209D1B1F818
:10AD1000D262964205D15E890536A1F8D2624FF023
:10AD200001090130092803F1080301F1080105F1C7
:10AD300008059DD10137092F0AF1500A414692D1E9
:10AD4000DDF80CA04F4671464FF0010801F14809AB
:10AD50004D4653460020B1F8D26296424FD0B8F12A
:10AD6000080F0FD095F8D0B21BEA040F07D1B5F841
:10AD7000D2B2934503D10736A5F8D2620127B8F1C4
:10AD8000010F0DD091F88862264209D1B1F88A628C
:10AD9000964205D1B1F8D2620736A1F88A6201273E
:10ADA000082813D01E7A264207D15E89964204D124
:10ADB000B1F8D26205365E81012713F8486C26424D
:10ADC00003D133F8466C964227D0D0B11E78264284
:10ADD00007D15E88964204D1B1F8D26205365E8012
:10ADE000012713F8506C264209D133F84E6C964275
:10ADF00005D1B1F8D262053623F84E6C0127082838
:10AE000012D00130083108330835A4E75E890536D1
:10AE1000A5F8D2624FF0010966E7B1F8D2620536B3
:10AE200023F8466C0127D0E708F10108B8F1090FB3
:10AE30000AF1500A494689D1002F7FF40EAF05B0C0
:10AE4000BDE8F08F2DE9F04F92F80590B2F802803E
:10AE50009179D47983B00546B9F1000F76D1072CEA
:10AE600040F2CF80CC46601E8E000E4400EB4606BA
:10AE700015F836E01EEA030F09D105EBC606B6F851
:10AE800002E0C64503D23746F0464FF0010C0729D1
:10AE900031D84E1C06EBC60606EB040E05EBCE0EB3
:10AEA0009EF8D09219EA030F0BD1BEF8D2E2C64544
:10AEB00007D204F15A073744F04605EBC7074FF0B5
:10AEC000010C00EB060E05EBCE0E9EF8D09219EAAF
:10AED000030F40F0E980BEF8D2E2C64580F0E4807E
:10AEE00000F15A07374405EBC707002900F0C3807B
:10AEF000F0464FF0010C01EBC1010E1901EB000E01
:10AF000005EBC60605EBCE0E96F8D0929EF8D0A2C1
:10AF100019EA030F0AEA030A40F0BE80B6F8D232FB
:10AF2000434580F0B98004F15A070F4405EBC70789
:10AF3000BAF1000F40F09F80BEF8D2229A4280F012
:10AF40009A805A30014405EBC10794E0072901F1CA
:10AF5000FF303ED94FF0000C00EBC00A0AEB0406AC
:10AF600005EBC60696F8D0E21EEA030F00F08780D4
:10AF7000072C4FEA810655D94FEA800A0E440AEBA6
:10AF8000000E04EB460604EB4E0E15F836B015F82D
:10AF90003E901BEA030F09EA030940F0888005EBA5
:10AFA000C6067388434580F082800A2717FB01415B
:10AFB00005EBC107B9F1000F5DD105EBCE0EBEF870
:10AFC00002209A4257D2504404EB400405EBC407D8
:10AFD00051E04E1C06EBC60E04EB0E0605EBC60652
:10AFE00096F8D0C21CEA030C6ED1B6F8D2A2C245C4
:10AFF0006CD204F15A067644D04605EBC607CC461F
:10B0000064E08E0006EB010C601C00EB4C0015F8B0
:10B01000300018426AD0012C04F1FF30CC467FF694
:10B0200036AF22E706EB010A04F1010E0EEB4A0AE5
:10B0300015F83AB01BEA030F0CD105EBCA0ABAF8AF
:10B0400002A0C24506D20A2717FB01E7D04605EB4E
:10B05000C707CC464FEA800A0AEB000B0EEB4B0EFB
:10B0600015F83EB01BEA030F34D0002C86D1BCF19A
:10B07000000F08BF1746384603B0BDE8F08FB6F89A
:10B08000D2624645BFF474AF04F15A075744B04644
:10B0900005EBC707CC466BE7BAF1000FE7D1BEF866
:10B0A000D2324345E3D24CE70029E0D023E7B9F19F
:10B0B000000FDCD10AEB000304EB430305EBC303F1
:10B0C0005B884345D3D27EE74FF0000C01297FF621
:10B0D0004FAF41E705EBCE0EBEF802B0C345C4D278
:10B0E0007746002CC7D0CC46D84647E7DFF864A0A7
:10B0F0001749DAF80000CDE9002381FB00310C1874
:10B10000C117C1EBA401C1EBC101401A02F0C8FD97
:10B11000009ADAF800009179D479019B8E0006EB51
:10B12000010C04F1010E0EEB4C0C05EBCC0C0130C4
:10B13000BCF802C0CAF80000C445BFF46CAF0A27CF
:10B1400017FB01E7E04605EBC7074FF0010962E78F
:10B1500093244992000000205379F0B45488A3BB93
:10B16000002900F0908004292CD1D179927901290D
:10B1700001F1FF350ED902EB820105EB410110F818
:10B180003160022E1ED02EB900EBC1014988A142C8
:10B19000C0F0BC801E46072A00F28480511C01EBDF
:10B1A000C101294400EBC10191F8D072022F09D0EE
:10B1B0002FB9B1F8D212A1423CBF3E460C46002A3C
:10B1C00070D133461846F0BC704702293AD00629A0
:10B1D00055D19179D279012901F1FF350BD905EBD0
:10B1E000C501114400EBC10191F8D062022E46D096
:10B1F000002E00F084800023072A4FEA850111D831
:10B200004F19561C06EB470610F83670022F36D041
:10B2100037B900EBC6067688A6423CBF34463B46AB
:10B22000002ACFD00D4402EB450210F8321002295B
:10B2300025D00029C6D100EBC2004288A24238BF07
:10B240000023BFE79579D179072D0BD86A1C02EB53
:10B25000C2020A4400EBC20292F8D062022E0ED063
:10B26000002E56D0002307294FEA850236D85719F9
:10B270004E1C06EB470610F83670022F23D1002330
:10B280001846F0BC7047D5799279072D82D802EB29
:10B290008206691C01EB460110F83160022E7FF432
:10B2A00072AF8FE7092111FB025200EBC20090F848
:10B2B000D022022A86D0002A83D1B0F8D222A2421C
:10B2C00028BF33467EE737B900EBC6067688A6422C
:10B2D0003CBF34463B4600293FF474AF154401EBB4
:10B2E000450110F83120022AC9D0002A7FF46AAF44
:10B2F00000EBC1014A88A24238BF002362E7B1F8DF
:10B30000D212A142BFF477AF0C4675E70C46012676
:10B3100041E7B2F8D222A242A4D21446A3E700BF6A
:10B32000F0B4034680689C788579C679D77990799E
:10B33000062C1ED8DFE804F0041D4D1D341D20002E
:10B340005279002A58D06A1C824200F0C38085429C
:10B350000FD1BE4200F02081013EBE4209D106223B
:10B360008A701A78013A0A705B780222013B4B70AE
:10B37000CA700846F0BC704752796C1E002A5CD037
:10B38000844200F08F800135A842F2D1BE42F0D154
:10B3900002228A701B78032202330B70CA70E8E71E
:10B3A0005279002A39D0854200F0A9800135A8429F
:10B3B000DFD1721EBA4200F0E780BE42D9D102202E
:10B3C00088701A7801320A705B78C87001334B704C
:10B3D000CFE75279002A44D06A1C824257D0013DFF
:10B3E000A842C6D1BE42C4D106228A701B7803226D
:10B3F000023B0B70CA70BCE78542BAD1701CB842E0
:10B4000000F09D80013EB742B3D104228A705B7880
:10B410000322023B4B70CA70ABE78542A9D1701E74
:10B42000B84200F085800136B742A2D18A705B78BD
:10B43000032202334B70CA709BE784426AD0854274
:10B4400097D1BE4200F0BA800136BE4291D18A70D7
:10B450001A7801320A705B78042201334B70CA708B
:10B4600087E7854229D0013D854282D1701CB842D0
:10B4700000F09A80BE427FF47CAF042088701A7876
:10B48000013A0A705B78C870013B4B7071E7BE42AD
:10B490007FF46FAF02228A701B78002201330B7099
:10B4A000CA7066E7BE427FF464AF06228A701B78DA
:10B4B0000022013B0B70CA705BE7BE4254D00136DC
:10B4C000BE427FF456AF8A705B78052201334B7021
:10B4D000CA704EE7BE4238D0854206F1FF363FF4CF
:10B4E0003CAFBE427FF445AF02228A701A78013227
:10B4F0000A705B780422013B4B70CA7039E7721EF8
:10B50000BA4239D0BE427FF434AF06228A701A782C
:10B51000013A9FE7701CB8421FD0BE427FF429AFAA
:10B5200004228A705B780522013B4B70CA7020E7C9
:10B53000042088705B78CA70013B4B7019E78A70F1
:10B540005B78CA7001334B7013E702228A701B7854
:10B55000012213440B70CA700BE78A705B780122DA
:10B5600013444B70CA7004E704228A705B7801228E
:10B57000013B4B70CA70FCE606228A701B780122E0
:10B58000013B0B70CA70F4E602228A701B78052218
:10B5900001330B70CA70ECE606228A701B78052214
:10B5A000013B0B70CA70E4E68A701A78013A0A709F
:10B5B0005B78022201334B70CA70DAE604228A708B
:10B5C0001A780132CFE600BF30B401F1080201233E
:10B5D00054254A240161C2610721082243750023D2
:10B5E00005730476017041708270C27003724372F9
:10B5F00083720375837530BC704700BF10B4017D42
:10B60000847D427DC36984720172427203615DF878
:10B61000044B704738B50021042002F0F9FF0021E7
:10B62000052002F0F5FF0021022002F0F1FF0021C9
:10B63000032002F0EDFF0021012002F0E9FF0021CC
:10B64000084602F0E5FF02F051FD02F093FA334C98
:10B65000334D014620460AF009F802F08BFA014604
:10B6600020460AF003F8642003F0CEFA3821372090
:10B6700002F058F92B4B2C4C83ED000A10EE100A07
:10B68000FCF79AFE02460B46284809F0EFFF02F04D
:10B69000C5FB02F0D9FA02F0E7FA01F0BDFF47F26C
:10B6A0002F51234802F052FC47F22F51214802F05B
:10B6B0004DFC214806F08FF9204806F08CF9204B0C
:10B6C000204993ED027AD3ED017A1F4A1F480023E7
:10B6D0008B6077EE676A13601D491E4A2360036022
:10B6E000002404201460C5ED006A546081ED027AE4
:10B6F0009460C1ED017A02F0A1FF052002F09EFFE7
:10B70000204602F09BFF022002F098FF032002F087
:10B7100095FF0120BDE8384002F090BF2892010853
:10B7200080890020E47F0020347F002044920108BB
:10B730002404004024080040488E0020008C002093
:10B74000CC8900205C8900206C8900203C7F00208F
:10B750008C8A00208C89002038B502F05FFB02F053
:10B7600073FA02F081FA01F057FF02F003FA3D4C40
:10B770003D4D0146204609F079FF02F0FBF90146F4
:10B78000204609F073FF642003F03EFA3821372089
:10B7900002F0C8F8354B364C83ED000A10EE100A63
:10B7A000FCF70AFE02460B46324809F05FFF002113
:10B7B000042002F02DFF0021052002F029FF0021C6
:10B7C000022002F025FF0021032002F021FF0021CA
:10B7D000012002F01DFF0021084602F019FF02F0CF
:10B7E00085FC47F22F51244802F0B0FB47F22F515D
:10B7F000224802F0ABFB224806F0EDF8214806F0A3
:10B80000EAF82149214A22480023A36000242B6042
:10B8100003600B6014605460946002F0EFF91D4BFC
:10B820001D4A93ED027AD3ED017A1C4B77EE676ADD
:10B83000042083ED027AC3ED017AC2ED006A02F0C2
:10B84000FDFE052002F0FAFE204602F0F7FE02207F
:10B8500002F0F4FE032002F0F1FE0120BDE83840C2
:10B8600002F0ECBE289201086C890020E47F0020E1
:10B870005C89002044920108240400402408004010
:10B88000488E0020008C00203C7F00208C89002006
:10B89000347F0020CC890020808900208C8A002001
:10B8A000F8B52A4D2A4E0024FFF7B4FEFDF7A4FA9E
:10B8B000FEF774FE012104206C602C60AC6002F085
:10B8C000A7FE0121052002F0A3FEA96821482A68ED
:10B8D0006B68214D09F0CAFE2146012002F098FE56
:10B8E0002146022002F094FE2146032002F090FE41
:10B8F0000121204602F08CFE00270320376002F071
:10B90000CFF9DFED160A164B9FED160AC6ED000AB9
:10B9100006221A602C71FDF7F3FF134BD6ED000AD7
:10B92000D3ED007A9FED110A2C71FDEEE77A17EE48
:10B93000900AFEF719F9FDF7ABFC0D4B2C719F60D7
:10B940004FF47A70BDE8F84003F05EB98C890020AE
:10B95000808A002044910108040000200000074371
:10B960004C89002000007742688900200000B44222
:10B970005C89002008B502F0B9FBBDE8084002F080
:10B980008FBC00BF08B5164B06221A60FFF742FEB7
:10B99000FDF732FAFEF702FE124B002501210420CA
:10B9A0005D601D609D6002F033FE0121052002F004
:10B9B0002FFE2946012002F02BFE2946022002F02C
:10B9C00027FE0121032002F023FE074B0024012063
:10B9D0001C6002F065F9054A23469360FDE700BF4D
:10B9E0004C8900208C890020808A00205C890020FE
:10B9F00080B5254BDFF8A090244CDFF8A08006220C
:10BA000086B01A60FFF706FEFDF7F6F9FEF7C6FDF1
:10BA10001F4B0026012104205E601E609E6002F024
:10BA2000F7FD0121052002F0F3FD0121084602F097
:10BA3000EFFD3146022002F0EBFD0320314602F01B
:10BA4000E7FD144B002502201D6002F029F9206853
:10BA5000C9F80850FCF7B0FC064660680F46FCF7D2
:10BA6000ABFCCDE90401A068FCF7A6FCCDE902011E
:10BA7000E068FCF7A1FC3246CDE900013B464046B8
:10BA800009F0F4FDE3E700BF4C890020CC890020D9
:10BA90008C890020808A00205C890020F8910108B0
:10BAA00008B5294B9FED299A9FED298ADFED298A58
:10BAB00007251D60FFF7AEFD274809F05FFEFDF783
:10BAC0009BF9FEF76BFD254809F058FE244B002436
:10BAD000012104205C601C609C6002F099FD012142
:10BAE000052002F095FD2146012002F091FD21463E
:10BAF000022002F08DFD2146032002F089FD194B42
:10BB0000002228461A6002F0CBF8F0EE490AB0EEA7
:10BB1000480AFDF725FA4FF4FA7003F075F8F0EED5
:10BB2000490AB0EE480AFDF71BFA4FF4FA7003F029
:10BB30006BF8F0EE680AB0EE480AFDF711FA4FF420
:10BB4000FA7003F061F8EAE74C890020DB0F494006
:10BB50000000B442DB0F49C0789201087C920108D2
:10BB60008C890020808A00202DE9F04F2DED028B7A
:10BB7000B44BB54E85B0062264201A6003F044F839
:10BB800004AA012402F8024D0221204602F03EFFE1
:10BB90009DF90E0002F0CEFE642003F035F804AAF1
:10BBA000042102F8014D204602F030FF9DF90F00FC
:10BBB00002F0C0FE002502F0FFFEFFF7CDFDFDF70D
:10BBC0001BF9FEF7EBFC2146042075603560B5607B
:10BBD00002F01EFD2146052002F01AFDB1689B48C7
:10BBE0003268736809F042FD2946204602F010FDD4
:10BBF0002946022002F00CFD2946032002F008FD30
:10BC00009DF90E30A34200F0FA80022BDFF8B882D3
:10BC100014BF4FF0540A4FF0530A9DF90F30013B07
:10BC2000032B15D8DFE813F05801FE00F3000400E1
:10BC3000874A884BC8F80020874A1A608748884995
:10BC4000884A5A609860884A8848186159619A61A0
:10BC5000042002F025F8864BDFF870929FED858A6C
:10BC6000854A864F864D87488749DFED888ADFF809
:10BC700060B200241C700123C9F80030D9F80030EC
:10BC80003B60834B82ED028A824A85ED008A022660
:10BC900080ED008A0420167081ED008A83ED008A11
:10BCA00002F0CCFC052002F0C9FC204602F0C6FCE4
:10BCB000304602F0C3FC032002F0C0FC764977480E
:10BCC0000D4601F05DFAFEF7ADFC07220321334675
:10BCD0000096019171481146FEF792FFC82002F0CC
:10BCE00093FFD8ED000A9FED6E0A2E46FDF708FE81
:10BCF0002B7D2A789A4209D8AA789A4206D36B7D7E
:10BD00006A789A4202D8EA789A4260D23046FFF7BF
:10BD100075FC03232A69A97A6048FFF793F8614903
:10BD2000E8610246A1F10C00FFF7FAFAEB7D8BED1A
:10BD3000008A052B0AD8DFE803F00B4035211603F3
:10BD4000D9F800303B605046FEF7D0F80134CFE719
:10BD5000D9F80030D8ED000A3B600020B0EE680A48
:10BD6000FDF702FFF2E701233B60FEF7FBF8D9F88D
:10BD700000303B605046FEF7B9F8E7E701233B602F
:10BD8000FEF7F0F8DBED007AD9F80030D8ED000AC4
:10BD90003B60FDEEE77AB0EE680A17EE900AFDF719
:10BDA000E3FED3E701233B60FEF7DCF8D9F800306F
:10BDB0003B605046FEF75CF8C8E7012001F070FFD9
:10BDC000D9F800303B605046FEF752F8BEE7DFED91
:10BDD000290A9FED350A314DDFF8F880334FFDF722
:10BDE00013FE072002F0A6FD2E4621466A89404632
:10BDF00009F03CFC39463046FEF75EFCF5E7DFF81B
:10BE0000C8802B4BC8F800304FF0540A05E7294A88
:10BE1000104BC8F800204FF080421A6026481049A5
:10BE2000264A0EE70B4B264A26499A600F4A0C48D1
:10BE3000C8F800101A610C490A4A586199611A60E1
:10BE40005A6005E74C8900208C8900204491010844
:10BE500000009643A489002000004040B29DEF3DC1
:10BE6000000070420000A0400000B4420000F04119
:10BE70007E8A0020000000005C890020FC8B0020EE
:10BE8000347F00206C890020487F00200000B442ED
:10BE9000387F002088890020FC810020A8830020B2
:10BEA000000076421082002000003442048200200C
:10BEB0000000C843000034430AD7233D000060401F
:10BEC00040A4DF3C00000743808A0020F88B00205C
:10BED00068890020A4910108074B084AC8F800208F
:10BEE0009A61074A1A60074A074808495A60084A8F
:10BEF00098601A615961ABE6A48900200000B44241
:10BF00000000E040000030414260653C00007042AB
:10BF10000000F041F0B5724B83B0062264201A6035
:10BF200002F072FE02AA012402F8024D022120460C
:10BF300002F06CFD9DF9060002F0FCFC642002F0AA
:10BF400063FE02AA042102F8014D204602F05EFDC4
:10BF50009DF9070002F0EEFC02F02EFDFFF75AFB00
:10BF6000FCF74AFF5F4809F009FCFEF717FB5E4843
:10BF700009F004FC5D4B0025214604205D601D6036
:10BF80009D6002F045FB2146052002F041FB294659
:10BF9000204602F03DFB2946022002F039FB2946EB
:10BFA000032002F035FB022001F07AFE9DF90630F5
:10BFB000A3426CD0022B4E4C14BF542653269DF93D
:10BFC0000730013B032B12D8DFE803F07B716602D8
:10BFD000484A494B2260494A1A60494849494A4AF5
:10BFE0005A609860494A4A48186159619A61494DB6
:10BFF00049484A4A4A494B4F00232B70036049483D
:10C00000136001F0BDF8484BD4ED000A9FED470ADC
:10C01000434D01221A60FDF773FC06202C4601F007
:10C020003FFE01E001F0B6F92A782B7A9A422146C8
:10C0300032463846F6D895F802C09C45F2D36B7A62
:10C0400095F801C09C45EDD895F803C09C45E9D30F
:10C05000DFED370A9FED370A324CFDF7D5FCFCF7D0
:10C060003DFF2F48FFF7CAFA01F0FCFBFEF75AFA32
:10C07000072002F05FFC2046FEF768FC2046FEF732
:10C08000A7FC296920460631FEF716FBF3E7184C9A
:10C09000184B2360542692E7274A174B22604FF033
:10C0A00080421A60254817494FF0834298E7244997
:10C0B000114B21604FF080411960224A22481149FA
:10C0C0008EE70D4B114A22609A61204A1A60204A7D
:10C0D00020480C495A600E4A98601A61596186E7F7
:10C0E0004C89002078910108909101088C890020EA
:10C0F000808A002000009643A48900200000404070
:10C10000B29DEF3D000070420000A0400000B4422C
:10C110000000F0417E8A0020F88B0020FC8B00207C
:10C12000FC810020A8830020280200200000764225
:10C1300000000000000034420000704377BE9F3DC5
:10C140000000344300008441C520303D0000104110
:10C150000000A0414260653CF8B52D4B2D4D0522F5
:10C160001A6001F007FD01462B4809F07FFA01F043
:10C1700001FD0146284809F079FA642002F044FDE7
:10C180003821372001F0CEFB244B10EE100A83ED4E
:10C19000000AFCF711F902460B46214809F066FA3D
:10C1A000204B214A18680024012314602B60FCF7FF
:10C1B00003F90B46024621461C4809F057FA1C4871
:10C1C00005F009FC2B68012B06D11A4C204609F01A
:10C1D000D5FA2B68012BF9D0002415482C6005F006
:10C1E0001EFC4FF47A7002F00FFD134D134F41F215
:10C1F000883655F8040BFCF7DFF802460B46384644
:10C200002146013409F032FAB442F2D1FEE700BF10
:10C210004C8900204889002028920108E47F0020F2
:10C2200044920108387F0020548900205092010870
:10C23000488E0020D49301082C0200206C92010843
:10C240002DE9F04300248BB0CDE90544CDE9074446
:10C25000454B009409941A6BDFF81C91DFF81C81A0
:10C26000424F434E42F080021A631A6B02F0800282
:10C270000092009A01941A6B42F004021A631A6B3E
:10C2800002F004020192019A02941A6B42F0010238
:10C290001A631A6B02F001020292029A03941A6B5B
:10C2A00042F002021A631A6B02F002020392039A2E
:10C2B00004941A6B42F008021A631B6B03F0080324
:10C2C0000493224648460521049B04F071F9224656
:10C2D00040464FF4407104F06BF922463846042181
:10C2E00004F066F9224630464FF4007104F060F91C
:10C2F0000125484605A90523CDE90535CDE90744C3
:10C3000003F0BCFF1B4B07944FF4805205A9304645
:10C31000CDE9052303F0B2FF404605A94FF4407371
:10C320000593CDE90654089403F0A8FF384605A903
:10C3300004230593CDE90654089403F09FFF4FF4BE
:10C34000007305A930460593CDE90654089403F01F
:10C3500095FF22462146282003F091F9282003F07A
:10C36000AAF90BB0BDE8F08300380240000C02408F
:10C3700000040240000011100000024000080240CA
:10C3800010B582B000240F4B01941A6B42F4800266
:10C390001A631B6B03F48003224621460193382065
:10C3A000019B03F06CF9382003F085F92246214601
:10C3B0003A2003F064F93A2002B0BDE8104003F0DF
:10C3C0007AB900BF0038024070B5214C214B224A97
:10C3D000236084B0002301254FF40031032620465A
:10C3E0006160A262A360009384F82030E362E3609E
:10C3F000CDE9013303932561257684F830506561DA
:10C40000E66102F023FC08B172B6FEE70A23694632
:10C41000204601950296009302F0B6FD08B172B66F
:10C42000FEE70E220223694620460092019302F0A5
:10C43000ABFD08B172B6FEE7092369462046CDE997
:10C44000003602F0A1FD08B172B6FEE704B070BD7F
:10C45000608D0020002001400100000F70B51C4CD1
:10C460001C4B1D4A236084B0002301254FF400318A
:10C47000022620466160A262A360009384F8203007
:10C48000E362E360CDE9013303932561257684F807
:10C4900030506561E66102F0D9FB08B172B6FEE783
:10C4A0000B2203236946204601950092029302F075
:10C4B0006BFD08B172B6FEE70F2369462046CDE951
:10C4C000003602F061FD08B172B6FEE704B070BD3F
:10C4D000808C0020002101400100000F30B58DB09C
:10C4E000144C2022002104A807F0C1FD124B236048
:10C4F0004EF65F2200230325E2602046012203A9B5
:10C5000063600193A3602361A36102930395059285
:10C51000099205F0CFFC08B172B6FEE7034601A907
:10C520002046CDE9013306F0BDFC08B172B6FEE746
:10C530000DB030BDC88C0020000400400A4B0B4AEF
:10C5400010B50C211A604FF41654002218465C6096
:10C550005961C3E902221A61C3E9062206F0A9FD66
:10C5600008B172B6FEE710BDA88D00200010014092
:10C5700000B583B002A94FF6FF7341F8040D012204
:10C58000034806F0E3FD019803B05DF804FB00BF2B
:10C59000A88D002010B5074C82B00A2301220DF1AE
:10C5A0000701204606F06BFE0028F6D19DF8070033
:10C5B00002B010BDA88D002070B5002394B0CDE965
:10C5C0000A33CDE90C33CDE90433CDE906332049F4
:10C5D00001930393086C1F4A40F080500864096C73
:10C5E00001F08051019101990293136843F4804353
:10C5F000136013684FF4803003F4804301220293E8
:10C60000022404234FF4800108920990A82208A86C
:10C61000029D0E941294CDE90F131393119203F01F
:10C62000F9FF08B172B6FEE703460F264FF4A05596
:10C630004FF4805203A80521049405930396CDE995
:10C64000065204F057FA08B172B6FEE714B070BD96
:10C65000003802400070004080B598B002F062FAE5
:10C66000FFF7EEFDFFF78CFEFFF7AEFEFFF7F6FEDD
:10C67000FFF764FF00F0D0FFFFF730FFA04BA14CA5
:10C68000986802F069F900F0E7FF0DF10702072151
:10C69000002002F0BBF99DF9070002F04BF941F2CE
:10C6A0006706FFF789FFFFF7CBFDFFF769FEFFF78E
:10C6B0008BFEFFF7D3FEFFF711FF00234FF0804200
:10C6C000204622606360089304930F93A360236164
:10C6D000A361CDE909330B930593CDE91033CDE97F
:10C6E0001233CDE91433E66005F04AF908B172B6A9
:10C6F000FEE74FF4805708A92046089705F018FF79
:10C7000008B172B6FEE7204605F008FB034608B103
:10C7100072B6FEE704A92046CDE9043306F0C2FB59
:10C7200008B172B6FEE76023CDE9100013900C2229
:10C730000FA920460F9305F035FE054608B172B6E5
:10C74000FEE7204600F0C0FB6F4B704A1A604FF4C2
:10C750008271022259601A6101214FF400725961FD
:10C760009A6128210A221846C3E90255C3E90855EF
:10C770009D62D961DA6204F0AFFB044608B172B67B
:10C78000FEE7634DFFF7DAFE624B15942846CDE9CC
:10C790000844CDE90A44CDE90444CDE90F44CDE98C
:10C7A0001144CDE91344C5E90144EE602C61AC614C
:10C7B0002B6005F0E5F808B172B6FEE708A9284637
:10C7C000089705F0B5FE08B172B6FEE7284605F0F9
:10C7D000A5FA034608B172B6FEE7284604A9CDE9DA
:10C7E000043306F05FFB08B172B6FEE76020002359
:10C7F0000F9004220FA946481393CDE9103305F09A
:10C80000D1FD054608B172B6FEE74148424C00F042
:10C810005BFB2022294610A807F029FC3F4B236030
:10C820004EF65F2101230322E16020460FA91193F8
:10C83000159308950995C4E901552561A5610F92E5
:10C8400005F038FB034608B172B6FEE7204608A99A
:10C85000CDE9083306F026FB044608B172B6FEE7C0
:10C860002F4D0490014620220FA8CDE905440794DE
:10C870000294CDE90844CDE90A44CDE90C440E9474
:10C880000394A72607F0F3FB2649AC6031228023EE
:10C890002846C5E904442960EA60AB616E6005F092
:10C8A0006FF808B172B6FEE74FF4805304A928462A
:10C8B000049305F03DFE08B172B6FEE7284605F088
:10C8C000D9F8034608B172B6FEE702A92846CDE9B9
:10C8D000023306F0E7FA08B172B6FEE71823024603
:10C8E000CDE90A00CDE90C000E90302408A92846B5
:10C8F0000993089405F0F6FC0346A8B172B6FEE76A
:10C90000D07F0020507F0020088D0020003C004098
:10C91000907F0020000C0040408C00200008004068
:10C92000008C00200004014029688A6942F0080256
:10C930008A6128464FF400520FA9CDE90F33CDE9A3
:10C94000113313931693149206F028FB044608B192
:10C9500072B6FEE7284600F0B7FA2D4B2D495E600F
:10C9600040F2E7321846CDE90F44CDE91144CDE954
:10C9700008449C60C3E904449C611960DA6004F0D7
:10C98000FFFF08B172B6FEE74FF480530FA92048AD
:10C990000F9305F0CDFD034608B172B6FEE708A976
:10C9A0001B48CDE9083306F07DFA18B172B6FEE7F0
:10C9B000FFF7B0FA9DF90730072BFDD801A252F816
:10C9C00023F000BFE5C9000809CA000803CA00082F
:10C9D000FDC90008F7C90008F1C90008B1C900087D
:10C9E000EBC90008FEF7C6FFE4E7FFF759F8E1E7F7
:10C9F000FFF7B2FBDEE7FFF7B7F8DBE7FEF750FF24
:10CA0000D8E7FEF7F5FFD5E7FEF7BCFFD2E700BF9A
:10CA1000488E00200000014072B6FEE780B483B06B
:10CA200000AF00237B60104B5B6C0F4A43F48043E4
:10CA300053640D4B5B6C03F480437B607B68002385
:10CA40003B60094B1B6C084A43F080531364064B50
:10CA50001B6C03F080533B603B6800BF0C37BD4646
:10CA60005DF8047B704700BF0038024080B58CB091
:10CA700000AF786007F11C0300221A605A609A60C8
:10CA8000DA601A617B681B686B4A934272D100239B
:10CA9000BB616A4B5B6C694A43F480735364674BB8
:10CAA0005B6C03F48073BB61BB6900237B61634BE8
:10CAB0001B6B624A43F004031363604B1B6B03F070
:10CAC00004037B617B6900233B615C4B1B6B5B4A0E
:10CAD00043F002031363594B1B6B03F002033B61EA
:10CAE0003B691123FB6103233B6200237B6207F157
:10CAF0001C031946524803F0C1FB0223FB610323C8
:10CB00003B6200237B6207F11C0319464D4803F08A
:10CB1000B5FB4D4B4D4A1A604B4B00225A604A4BB5
:10CB200000229A60484B0022DA60474B4FF4806243
:10CB30001A61454B4FF480525A61434B4FF4804287
:10CB40009A61414B4FF48072DA613F4B00221A62C6
:10CB50003D4B00225A623C4802F0C8FD0346002BC0
:10CB600001D0FFF759FF7B68374A9A63364A7B68E2
:10CB700093635DE07B681B68354A934258D100237C
:10CB8000FB602E4B5B6C2D4A43F4007353642B4BBC
:10CB90005B6C03F40073FB60FB680023BB60274BF6
:10CBA0001B6B264A43F004031363244B1B6B03F0F7
:10CBB0000403BB60BB682223FB6103233B620023A9
:10CBC0007B6207F11C0319461D4803F057FB214BFC
:10CBD000214A1A601F4B4FF000725A601D4B002211
:10CBE0009A601C4B0022DA601A4B4FF480621A6183
:10CBF000184B4FF480525A61164B4FF480429A61A1
:10CC0000144B4FF48072DA61124B00221A62114BFE
:10CC100000225A620F4802F069FD0346002B01D042
:10CC2000FFF7FAFE7B680B4A9A630A4A7B689363B4
:10CC300000BF3037BD4680BD0020014000380240B3
:10CC40000008024000040240E88D00201064024009
:10CC500000210140888E00204064024080B58AB0E7
:10CC600000AF786007F1140300221A605A609A60DE
:10CC7000DA601A617B681B68194A93422CD1002341
:10CC80003B61184B1B6C174A43F400431364154B6C
:10CC90001B6C03F400433B613B690023FB60114BB9
:10CCA0001B6B104A43F0040313630E4B1B6B03F022
:10CCB0000403FB60FB684FF4E0537B610223BB611C
:10CCC0000023FB6103233B6206237B6207F114030D
:10CCD0001946054803F0D2FA00BF2837BD4680BD8B
:10CCE000003C0040003802400008024080B586B099
:10CCF00000AF78607B681B68304A934216D10023EE
:10CD00007B612F4B5B6C2E4A43F0010353642C4B29
:10CD10005B6C03F001037B617B6900220021192019
:10CD200002F0ADFC192002F0C6FC42E07B681B68F3
:10CD3000B3F1804F0ED100233B61214B1B6C204A85
:10CD400043F0010313641E4B1B6C03F001033B61B2
:10CD50003B692EE07B681B681A4A93420ED1002380
:10CD6000FB60174B1B6C164A43F008031364144B0B
:10CD70001B6C03F00803FB60FB681AE07B681B6810
:10CD8000114A934215D10023BB600D4B5B6C0C4ADA
:10CD900043F0020353640A4B5B6C03F00203BB6075
:10CDA000BB68002201212C2002F069FC2C2002F03B
:10CDB00082FC00BF1837BD4680BD00BF00000140A7
:10CDC00000380240000C00400004014080B58CB0E7
:10CDD00000AF786007F11C0300221A605A609A6065
:10CDE000DA601A617B681B68324A93422CD10023B7
:10CDF000BB61314B1B6C304A43F0020313642E4B72
:10CE00001B6C03F00203BB61BB6900237B612A4BEF
:10CE10001B6B294A43F001031363274B1B6B03F081
:10CE200001037B617B69C023FB6102233B6200231A
:10CE30007B620023BB620223FB6207F11C031946DD
:10CE40001E4803F01BFA30E07B681B681C4A9342C3
:10CE50002BD100233B61184B1B6C174A43F0040392
:10CE60001364154B1B6C03F004033B613B69002307
:10CE7000FB60114B1B6B104A43F0020313630E4B14
:10CE80001B6B03F00203FB60FB68C023FB61022302
:10CE90003B6200237B620023BB620223FB6207F13B
:10CEA0001C031946074803F0E9F900BF3037BD46B7
:10CEB00080BD00BF00040040003802400000024076
:10CEC000000800400004024080B58CB000AF7860DC
:10CED00007F11C0300221A605A609A60DA601A6136
:10CEE0007B681B68B3F1804F1ED10023BB61434BAD
:10CEF0001B6B424A43F001031363404B1B6B03F06F
:10CF00000103BB61BB690823FB6102233B62002371
:10CF10007B620323BB620123FB6207F11C031946FA
:10CF2000374803F0ABF964E07B681B68354A9342ED
:10CF30001ED100237B61314B1B6B304A43F0010350
:10CF400013632E4B1B6B03F001037B617B69022390
:10CF5000FB6102233B6200237B620023BB6202234E
:10CF6000FB6207F11C031946254803F087F940E0EE
:10CF70007B681B68244A93423BD100233B611F4BD3
:10CF80001B6B1E4A43F0010313631C4B1B6B03F026
:10CF900001033B613B690023FB60184B1B6B174A85
:10CFA00043F004031363154B1B6B03F00403FB6096
:10CFB000FB682023FB6102233B6200237B6200238A
:10CFC000BB620323FB6207F11C0319460C4803F004
:10CFD00055F94023FB6102233B6200237B6200235F
:10CFE000BB620323FB6207F11C031946074803F0E9
:10CFF00045F900BF3037BD4680BD00BF0038024054
:10D0000000000240000C0040000401400008024003
:10D0100080B58AB000AF786007F1140300221A606F
:10D020005A609A60DA601A617B681B68194A9342F9
:10D030002CD100233B61184B5B6C174A43F0100363
:10D040005364154B5B6C03F010033B613B69002399
:10D05000FB60114B1B6B104A43F0010313630E4B33
:10D060001B6B03F00103FB60FB684FF4C0637B6143
:10D070000223BB610023FB6103233B6207237B6226
:10D0800007F114031946054803F0F8F800BF2837E4
:10D09000BD4680BD00100140003802400000024043
:10D0A00080B400AFFEE780B400AFFEE780B400AF0D
:10D0B000FEE780B400AFFEE780B400AFFEE780B4C7
:10D0C00000AF00BFBD465DF8047B704780B400AF81
:10D0D00000BFBD465DF8047B704780B400AF00BF61
:10D0E000BD465DF8047B704780B500AF01F06CFD74
:10D0F00000BF80BD80B500AF024804F0EBFF00BF69
:10D1000080BD00BF488E002080B500AF4FF4805036
:10D1100003F068FA00BF80BD80B500AF024804F09C
:10D12000D9FF00BF80BD00BF008C002080B500AFDC
:10D13000024802F051FC00BF80BD00BFE88D002016
:10D1400080B500AF024802F047FC00BF80BD00BFC1
:10D15000888E002080B400AF084BD3F88830074A8F
:10D1600043F47003C2F88830044B4FF000629A60B9
:10D1700000BFBD465DF8047B704700BF00ED00E0D6
:10D1800070B5044682B00D46FDF768FB2046FDF7FA
:10D1900049FB21462846FEF717FA04F10803EB6124
:10D1A000012602236A7829782C612046CDE90036D1
:10D1B000FDF726FD02B070BD70B56F4D82B02846F8
:10D1C000FEF71CFAAB7A062B00F2D080DFE803F002
:10D1D000A2CE76CE4ACE0400684B9FED695AD3EDBD
:10D1E000035AD3ED007AD3ED014A93ED026ADFEDE5
:10D1F000656A9FED657A77EEA57AF6EE005AF4EE51
:10D20000C54A67EEA57AF1EE10FAB4EEE66ACCBF35
:10D2100001260026F1EE10FAF4EEC77ACCBF012108
:10D220000021F1EE10FACCBF0122002200202C7B5D
:10D230006B7A66F3010460F3830461F3051462F30F
:10D24000871452492A7A52482C73FDF711FC0124A5
:10D2500002236A7829784E48CDE90034FDF7D0FCE6
:10D2600002B070BD454BDFED475AD3ED034AD3ED15
:10D27000007A93ED025A9FED446AD3ED016A9FED67
:10D28000407A77EEA47AF6EE004A67EEA47AB4EE1E
:10D29000E55AF1EE10FAF4EEC67ACCBF0120002078
:10D2A000F1EE10FAF4EEC76ACCBF01210021F1EED5
:10D2B00010FACCBF012200220026B8E72F4BDFED89
:10D2C000315AD3ED034AD3ED007A93ED025A9FED24
:10D2D0002E6AD3ED016A9FED2A7A77EEA47AF6EEF4
:10D2E000004A67EEA47AB4EEE55AF1EE10FAF4EED5
:10D2F000C67ACCBF01260026F1EE10FAF4EEC76A1A
:10D30000CCBF01200020F1EE10FACCBF012100219A
:10D3100000228CE7194B9FED1C5AD3ED034AD3ED45
:10D32000007AD3ED015A9FED166AD3ED026A9FEDA4
:10D33000157A77EEA47AF6EE004A67EEA47A002119
:10D34000F4EEC57AF1EE10FAF4EEC65ACCBF01261F
:10D350000E46F1EE10FAF4EEC76ACCBF0120084683
:10D36000F1EE10FACCBF01220A4660E70022114616
:10D37000104616465BE700BFFC810020CC890020E8
:10D380000000B4420000C842000034420482002081
:10D39000A88300202DE9F0410C460123897A6E4DC7
:10D3A000164622690746FDF74DFD04F114010246B9
:10D3B000E06104F10800FDF7B3FFE37D00222A607D
:10D3C000052B63D8DFE803F00F24552D4803634A8B
:10D3D000634B12681A60042000F062FC3046BDE81E
:10D3E000F041FCF783BD3846E269A17DFDF7B4FE4C
:10D3F0005C4B1B7800284BD0002B00F0A3805A4BCD
:10D400002B60002000F04CFCD5ED007A00204BE0B2
:10D41000524A534B12681A603046BDE8F041FCF79F
:10D4200027BDDFF83C810126C8F80060FCF79AFDB3
:10D430003846E269A17DFDF78FFE4A4B1B78002834
:10D4400041D0002B75D0484B2B60002000F028FC09
:10D45000D5ED007A002041E0414C01232360FCF728
:10D4600081FD3E4B1B6823603046BDE8F041FCF770
:10D470003DBD3B4C01232360FCF774FD374B1B681B
:10D4800023603046BDE8F041FCF7F2BCBDE8F08116
:10D4900003F0FF04002B3ED1002302202B6000F09C
:10D4A000FFFBD5ED007A2046304B2C4AD3ED000A25
:10D4B0002B4B12689FED2E0A1A6077EEA00ABDE88A
:10D4C000F041FCF751BB03F0FF06B3B90023022083
:10D4D0002B6000F0E5FBD5ED007A3046234A1F4B68
:10D4E000D2ED000A1B68C8F800309FED210A77EEE4
:10D4F000A00ABDE8F041FCF737BB1E4C206800F0E5
:10D50000CFFB2368DFED1C7A02332360C5ED007A80
:10D510004FF0FF30E2E7194C206800F0C1FB2368B0
:10D52000DFED157A02332360C5ED007A4FF0FF304E
:10D53000BAE70D4B2B60072000F0B2FB3046D5ED6B
:10D54000007ACBE7084B2B60072000F0A9FBD5ED54
:10D55000007A0120A8E700BF68890020F88B00202E
:10D56000FC8B00207E8A002000007543808A00200A
:10D570000000B4422C000020000000002800002021
:10D5800070B5161E07DD0C468D19FFF703F804F879
:10D59000010BA542F9D1304670BD00BF70B5161E13
:10D5A00007DD0C468D1914F8010BFEF7E1FFA542CB
:10D5B000F9D1304670BD00BF4FF0FF30704700BF5B
:10D5C0004FF400534B600020704700BF01207047AC
:10D5D000002070470C490D4A0B6810B50C4C121B0B
:10D5E0002BB11844904207D80860184610BD094B6B
:10D5F0000B6018449042F7D906F0F8FA0C23036048
:10D600004FF0FF33184610BD4C7F00200000022071
:10D6100000040000288F002080B500AF03220A49D3
:10D620000A4801F057FB0346002B01D0FFF7F4F93D
:10D6300002220749074801F04DFB0346002B01D0A9
:10D64000FFF7EAF900BF80BDD07F0020608D002089
:10D65000DC7F0020808C002080B500AF0E4801F0F8
:10D660002BFC0346002B07D00C4808F087F8FFF787
:10D67000D3F90B4808F082F80A4801F01DFC034674
:10D68000002B07D0084808F079F8FFF7C5F90748DC
:10D6900008F074F800BF80BD608D0020E88F01089D
:10D6A000F08F0108808C0020F88F0108009001089D
:10D6B00080B400AF054B064A5A60044B054A5A60D5
:10D6C00000BFBD465DF8047B704700BF003C0240D0
:10D6D00023016745AB89EFCD80B400AF054B1B69D3
:10D6E000044A43F00043136100BFBD465DF8047B6C
:10D6F000704700BF003C024080B400AF00BF054B44
:10D70000DB6803F48033002BF9D100BFBD465DF820
:10D71000047B7047003C024080B582B000AF786067
:10D720003960FFF7C5FFFFF7E7FF0E4B1B690D4A96
:10D7300043F4007313610B4B1B690A4A43F0010366
:10D7400013617B683A681A60FFF7D6FF054B1B69C7
:10D75000044A23F001031361FFF7BEFF00BF08373F
:10D76000BD4680BD003C024080B582B000AF78600D
:10D770003960FFF79DFFFFF7BFFF0F4B1B690E4A94
:10D7800043F4007313610C4B1B690B4A43F0010314
:10D7900013617B681A683B681A60FFF7ADFF064BA0
:10D7A0001B69054A23F001031361FFF795FF00BFD2
:10D7B0000837BD4680BD00BF003C024080B582B046
:10D7C00000AF786087ED000AFFF772FFFFF794FF64
:10D7D0000E4B1B690D4A43F4007313610B4B1B691D
:10D7E0000A4A43F0010313617B683A681A60FFF745
:10D7F00083FF064B1B69054A23F001031361FFF702
:10D800006BFF00BF0837BD4680BD00BF003C024033
:10D8100080B582B000AF78603960FFF749FFFFF74D
:10D820006BFF0F4B1B690E4A43F4007313610C4BE3
:10D830001B690B4A43F0010313617B681A683B685C
:10D840001A60FFF759FF064B1B69054A23F00103D5
:10D850001361FFF741FF00BF0837BD4680BD00BF21
:10D86000003C024080B588B000AF02F01DFB0023F1
:10D87000BB6001233B610223BB6101237B613A1D35
:10D8800007F108031146184602F0D6FB0346FB7762
:10D8900002F02CFBFB7F002B05D17B68B3F1FF3F2F
:10D8A00001D1012300E0002303F00103DBB218469D
:10D8B0002037BD4680BD80B588B000AF02F0F4FAD5
:10D8C0000023BB6009233B610223BB6101237B6111
:10D8D0003A1D07F108031146184602F0ADFB034656
:10D8E000FB7702F003FBFB7F002B05D17B68B3F1D4
:10D8F000FF3F01D1012300E0002303F00103DBB26D
:10D9000018462037BD4680BDB0F90020B1F900307F
:10D910009A4204DCB4BF4FF0FF3000207047012072
:10D92000704700BF70B5234C234D82B061F07F0378
:10D9300060F07F060022204604218DF805308DF826
:10D94000046002F035FE01A928466423012203F099
