:020000040800F2
:1000000000000220CDB50008B9AF0008BFAF00085E
:10001000C5AF0008CBAF0008D1AF0008000000005A
:10002000000000000000000000000000D7AF000842
:10003000E5AF000800000000F3AF000801B00008C1
:100040001DB600081DB600081DB600081DB6000844
:100050000DB000081DB600081DB600081DB600084A
:100060001DB600081DB600081DB600081DB6000824
:100070001DB600081DB600081DB600081DB6000814
:100080001DB600081DB6000819B000081DB600080E
:100090001DB600081DB600081DB600081DB60008F4
:1000A0001DB6000835B000081DB600081DB60008D2
:1000B00049B000085DB0000871B000081DB6000826
:1000C0001DB600081DB600081DB600081DB60008C4
:1000D0001DB600081DB600081DB600081DB60008B4
:1000E0001DB600081DB600081DB600081DB60008A4
:1000F00085B0000899B00008ADB000081DB6000832
:100100001DB600081DB60008C1B000081DB60008E5
:100110001DB600081DB600081DB600081DB6000873
:10012000D5B000081DB60008E9B000081DB60008EB
:100130001DB6000800000000000000001DB6000809
:100140001DB600081DB600081DB600081DB6000843
:100150001DB600081DB600081DB600081DB6000833
:100160001DB600081DB600081DB600081DB6000823
:100170001DB600081DB600080000000000000000C9
:080180001DB600081DB60008C1
:1080000010B5054C237833B9044B13B10448AFF3D2
:1080100000800123237010BDDC010020000000005F
:108020006024010808B5034B1BB103490348AFF3B3
:10803000008008BD00000000E0010020602401086D
:10804000034613F8012B002AFBD1181A0138704798
:1080500001F0FF01102A2BDB10F0070F08D010F8F9
:10806000013B013A8B422DD010F0070F42B3F6D1FD
:10807000F0B441EA012141EA014122F007047FF016
:1080800000070023F0E80256083C85EA010586EA6D
:10809000010685FA47F5A3FA87F586FA47F6A5FAA9
:1080A00087F68EB9EED1F0BC01F0FF0102F00702B5
:1080B00032B110F8013B013A83EA010313B1F8D160
:1080C0000020704701387047002D06BF3546033841
:1080D000073815F0010F07D1013015F4807F02BF7A
:1080E000013015F4C03F0130F0BC0138704700BFCB
:1080F00081F0004102E000BF83F0004330B54FEA59
:1081000041044FEA430594EA050F08BF90EA020FC5
:108110001FBF54EA000C55EA020C7FEA645C7FEA58
:10812000655C00F0E2804FEA5454D4EB5555B8BF7B
:108130006D420CDD2C4480EA020281EA030382EAEC
:10814000000083EA010180EA020281EA0303362D7E
:1081500088BF30BD11F0004F4FEA01314FF4801C51
:108160004CEA113102D0404261EB410113F0004F63
:108170004FEA03334CEA133302D0524263EB43031A
:1081800094EA050F00F0A780A4F10104D5F1200EB8
:108190000DDB02FA0EFC22FA05F2801841F1000113
:1081A00003FA0EF2801843FA05F359410EE0A5F1E7
:1081B00020050EF1200E012A03FA0EFC28BF4CF018
:1081C000020C43FA05F3C01851EBE37101F00045CE
:1081D00007D54FF0000EDCF1000C7EEB00006EEBDB
:1081E0000101B1F5801F1BD3B1F5001F0CD3490865
:1081F0005FEA30004FEA3C0C04F101044FEA4452BC
:1082000012F5800F80F09A80BCF1004F08BF5FEA42
:10821000500C50F1000041EB045141EA050130BD22
:108220005FEA4C0C404141EB010111F4801FA4F1C5
:108230000104E9D191F0000F04BF01460020B1FA1A
:1082400081F308BF2033A3F10B03B3F120020CDA52
:108250000C3208DD02F1140CC2F10C0201FA0CF030
:1082600021FA02F10CE002F11402D8BFC2F1200C95
:1082700001FA02F120FA0CFCDCBF41EA0C0190404B
:10828000E41AA2BF01EB0451294330BD6FEA040494
:108290001F3C1CDA0C340EDC04F11404C4F120027F
:1082A00020FA04F001FA02F340EA030021FA04F391
:1082B00045EA030130BDC4F10C04C4F1200220FAE8
:1082C00002F001FA04F340EA0300294630BD21FA26
:1082D00004F0294630BD94F0000F83F4801306BFEC
:1082E00081F480110134013D4EE77FEA645C18BFE0
:1082F0007FEA655C29D094EA050F08BF90EA020F77
:1083000005D054EA000C04BF1946104630BD91EA6E
:10831000030F1EBF0021002030BD5FEA545C05D171
:108320004000494128BF41F0004130BD14F58004B0
:108330003CBF01F5801130BD01F0004545F0FE4124
:1083400041F470014FF0000030BD7FEA645C1ABF59
:10835000194610467FEA655C1CBF0B46024650EA90
:10836000013406BF52EA033591EA030F41F40021BC
:1083700030BD00BF90F0000F04BF0021704730B542
:108380004FF4806404F132044FF000054FF0000117
:1083900050E700BF90F0000F04BF0021704730B5D8
:1083A0004FF4806404F1320410F0004548BF4042AD
:1083B0004FF000013EE700BF42004FEAE2014FEA02
:1083C00031014FEA02701FBF12F07F4393F07F4FDD
:1083D00081F06051704732F07F4208BF704793F0E0
:1083E0007F4F04BF41F40021704730B54FF46074F3
:1083F00001F0004521F000411CE700BF50EA0102F6
:1084000008BF704730B54FF000050AE050EA01029E
:1084100008BF704730B511F0004502D5404261EB0E
:1084200041014FF4806404F132045FEA915C3FF44F
:10843000D8AE4FF003025FEADC0C18BF03325FEAEC
:10844000DC0C18BF033202EBDC02C2F1200300FA9D
:1084500003FC20FA02F001FA03FE40EA0E0021FAC2
:1084600002F11444BDE600BF70B54FF0FF0C4CF4B0
:10847000E06C1CEA11541DBF1CEA135594EA0C0F62
:1084800095EA0C0F00F0DEF82C4481EA030621EA9D
:108490004C5123EA4C5350EA013518BF52EA0335D8
:1084A00041F4801143F4801338D0A0FB02CE4FF08A
:1084B0000005E1FB02E506F00042E0FB03E54FF0BA
:1084C0000006E1FB03569CF0000F18BF4EF0010EB2
:1084D000A4F1FF04B6F5007F64F5407404D25FEAAE
:1084E0004E0E6D4146EB060642EAC62141EA555161
:1084F0004FEAC52040EA5E504FEACE2EB4F1FD0CA3
:1085000088BFBCF5E06F1ED8BEF1004F08BF5FEA20
:10851000500E50F1000041EB045170BD06F00046D2
:1085200046EA010140EA020081EA0301B4EB5C047F
:10853000C2BFD4EB0C0541EA045170BD41F4801177
:108540004FF0000E013C00F3AB8014F1360FDEBF9C
:10855000002001F0004170BDC4F10004203C35DA78
:108560000C341BDC04F11404C4F1200500FA05F3FB
:1085700020FA04F001FA05F240EA020001F000429C
:1085800021F0004110EBD37021FA04F642EB060112
:108590005EEA430E08BF20EAD37070BDC4F10C043C
:1085A000C4F1200500FA04F320FA05F001FA04F200
:1085B00040EA020001F0004110EBD37041F10001EC
:1085C0005EEA430E08BF20EAD37070BDC4F12005F7
:1085D00000FA05F24EEA020E20FA04F301FA05F25F
:1085E00043EA020321FA04F001F0004121FA04F207
:1085F00020EA020000EBD3705EEA430E08BF20EAD7
:10860000D37070BD94F0000F0FD101F00046400010
:1086100041EB010111F4801F08BF013CF7D041EA92
:10862000060195F0000F18BF704703F00046520096
:1086300043EB030313F4801F08BF013DF7D043EA67
:108640000603704794EA0C0F0CEA135518BF95EA1D
:108650000C0F0CD050EA410618BF52EA4306D1D1A4
:1086600081EA030101F000414FF0000070BD50EAC3
:10867000410606BF1046194652EA430619D094EA4D
:108680000C0F02D150EA013613D195EA0C0F05D137
:1086900052EA03361CBF104619460AD181EA03018B
:1086A00001F0004141F0FE4141F470014FF0000043
:1086B00070BD41F0FE4141F4780170BD70B54FF0DE
:1086C000FF0C4CF4E06C1CEA11541DBF1CEA13555E
:1086D00094EA0C0F95EA0C0F00F0A7F8A4EB050440
:1086E00081EA030E52EA03354FEA013100F0888037
:1086F0004FEA03334FF0805545EA131343EA126300
:108700004FEA022245EA111545EA10654FEA0026B4
:108710000EF000419D4208BF964244F1FD0404F56D
:10872000407402D25B084FEA3202B61A65EB0305C9
:108730005B084FEA32024FF480104FF4002CB6EB86
:10874000020E75EB030E22BFB61A754640EA0C0006
:108750005B084FEA3202B6EB020E75EB030E22BF46
:10876000B61A754640EA5C005B084FEA3202B6EB87
:10877000020E75EB030E22BFB61A754640EA9C0046
:108780005B084FEA3202B6EB020E75EB030E22BF16
:10879000B61A754640EADC0055EA060E18D04FEAD4
:1087A000051545EA16754FEA06164FEAC30343EA74
:1087B00052734FEAC2025FEA1C1CC0D111F4801F41
:1087C0000BD141EA00014FF000004FF0004CB6E73A
:1087D00011F4801F04BF01430020B4F1FD0C88BFD9
:1087E000BCF5E06F3FF6AFAEB5EB030C04BFB6EBE4
:1087F000020C5FEA500C50F1000041EB045170BDD7
:108800000EF0004E4EEA113114EB5C04C2BFD4EB03
:108810000C0541EA045170BD41F480114FF0000E87
:10882000013C90E645EA060E8DE60CEA135594EA03
:108830000C0F08BF95EA0C0F3FF43BAF94EA0C0F06
:108840000AD150EA01347FF434AF95EA0C0F7FF47B
:1088500025AF104619462CE795EA0C0F06D152EACF
:1088600003353FF4FDAE1046194622E750EA4106B3
:1088700018BF52EA43067FF4C5AE50EA41047FF4C4
:108880000DAF52EA43057FF4EBAE12E74FF0FF3C29
:1088900006E000BF4FF0010C02E000BF4FF0010CFA
:1088A0004DF804CD4FEA410C7FEA6C5C4FEA430C73
:1088B00018BF7FEA6C5C1BD001B050EA410C0CBFC2
:1088C00052EA430C91EA030F02BF90EA020F002024
:1088D000704710F1000F91EA030F58BF994208BF8B
:1088E00090422CBFD8176FEAE37040F00100704748
:1088F0004FEA410C7FEA6C5C02D150EA013C07D19F
:108900004FEA430C7FEA6C5CD6D152EA033CD3D0E9
:108910005DF8040B704700BF8446104662468C46E3
:108920001946634600E000BF01B5FFF7B7FF002816
:1089300048BF10F1000F01BD4DF808EDFFF7F4FF3F
:108940000CBF012000205DF808FB00BF4DF808EDCA
:10895000FFF7EAFF34BF012000205DF808FB00BFED
:108960004DF808EDFFF7E0FF94BF012000205DF80F
:1089700008FB00BF4DF808EDFFF7CEFF94BF0120C4
:1089800000205DF808FB00BF4DF808EDFFF7C4FFBD
:1089900034BF012000205DF808FB00BF4FEA410C06
:1089A0007FEA6C5C02D150EA013C0AD14FEA430CE9
:1089B0007FEA6C5C02D152EA033C02D14FF0000026
:1089C00070474FF0010070474FEA410212F5001264
:1089D00015D211D56FF47873B3EB625212D94FEA06
:1089E000C12343F0004343EA505311F0004F23FAF0
:1089F00002F018BF404270474FF00000704750EA45
:108A0000013005D111F0004008BF6FF00040704701
:108A10004FF00000704700BF4FEA4102B2F1E0435F
:108A200024BFB3F5001CDCF1FE5C0DD901F0004C55
:108A30004FEAC0024CEA5070B2F1004F40EB8300A5
:108A400008BF20F00100704711F0804F21D113F1D1
:108A50003872BCBF01F00040704741F480114FEA0A
:108A60005252C2F11802C2F1200C10FA0CF320FA93
:108A700002F018BF40F001004FEAC1234FEAD323B0
:108A800003FA0CFC40EA0C0023FA02F34FEA43031A
:108A9000CCE77FEA625307D150EA01331EBF4FF0A3
:108AA000FE4040F44000704701F0004040F0FE40BE
:108AB00040F40000704700BF53B94AB9002908BF0D
:108AC00000281CBF4FF0FF314FF0FF3000F072B9AB
:108AD000ADF1080C6DE904CE00F006F8DDF804E015
:108AE000DDE9022304B070472DE9F047089E0446F3
:108AF0008846002B4BD18A42154667D9B2FA82F2DA
:108B00004AB1C2F1200701FA02F320FA07F79540B3
:108B100047EA030894404FEA154E230CB8FBFEF7D2
:108B20001FFA85FC0EFB178843EA084307FB0CF18C
:108B3000994209D9EB1807F1FF3080F01B81994267
:108B400040F21881023F2B445B1AA4B2B3FBFEF043
:108B50000EFB103344EA034400FB0CFCA44509D986
:108B60002C1900F1FF3380F00781A44540F2048105
:108B700002382C4440EA0740A4EB0C0400271EB145
:108B8000D4400023C6E900433946BDE8F0878B4254
:108B900009D9002E00F0EB800027C6E90001384615
:108BA0003946BDE8F087B3FA83F7002F47D18B42EF
:108BB00002D3824200F2FA80841A61EB030301209F
:108BC0009846002EE0D0C6E90048DDE702B9FFDE96
:108BD000B2FA82F2002A40F08F80491B4FEA154E0C
:108BE0001FFA85F80127B1FBFEFC230C0EFB1C11BC
:108BF00043EA014308FB0CF1994207D9EB180CF149
:108C0000FF3002D2994200F2CD808446591AA3B2B5
:108C1000B1FBFEF00EFB101443EA044408FB00F81D
:108C2000A04507D92C1900F1FF3302D2A04500F26C
:108C3000B6801846A4EB080440EA0C409FE7C7F151
:108C4000200CBB4022FA0CFE4EEA030E01FA07F498
:108C500020FA0CF521FA0CF34FEA1E482543B3FB2A
:108C6000F8F92C0C08FB19331FFA8EFA44EA034377
:108C700009FB0AF49C4202FA07F200FA07F10BD949
:108C80001EEB030309F1FF3080F087809C4240F225
:108C90008480A9F1020973441B1BADB2B3FBF8F049
:108CA00008FB103345EA034400FB0AFAA24508D941
:108CB0001EEB040400F1FF336BD2A24569D90238E0
:108CC000744440EA0940A0FB0289A4EB0A044C4525
:108CD000C2464B4654D351D0002E69D0B1EB0A05A1
:108CE00064EB030404FA0CFCFD40FC404CEA05056F
:108CF000C6E90054002747E7C2F1200320FA03F732
:108D0000954001FA02F021FA03F34FEA154E384379
:108D1000010CB3FBFEF71FFA85F80EFB173341EA8F
:108D2000034107FB08F38B4204FA02F407D96918E0
:108D300007F1FF3C2FD28B422DD9023F2944CB1A99
:108D400081B2B3FBFEF00EFB103341EA034100FB9E
:108D500008F38B4207D9691800F1FF3C17D28B4208
:108D600015D902382944C91A40EA07473BE7374674
:108D7000304609E70746E7E61846FBE64145ABD231
:108D8000B8EB020A69EB0E0201381346A4E760460D
:108D9000E9E7184695E76746D1E781467CE7023860
:108DA0002C4447E7ACF1020C2B442FE7384608E788
:108DB0003746E9E6704700BFB0B586B000AF87ED33
:108DC000010AC7ED000A4FF000037B614A4BD3ED67
:108DD000027A97ED007A77EE677AC7ED057A7869BF
:108DE000FFF7EAFA3EA3D3E90023FFF73DFB034672
:108DF0000C4625461C467869FFF7DEFA02460B460C
:108E000020462946FFF730FB03460C4625461C4604
:108E1000D7ED017A77EEA77A17EE900AFFF7CCFA32
:108E200002460B4620462946FFF748FC03460C46FF
:108E300018462146FFF7F0FD0246304B1A60D7ED89
:108E4000017A77EEA77A17EE900AFFF7B5FA26A314
:108E5000D3E90023FFF732FC03460C4618462146AF
:108E6000FFF7B2FD03463B61254B9B683A6913440B
:108E7000FB6029E0F868FFF78DFA04460D46386973
:108E8000FFF788FA1AA3D3E90023FFF7EDFA0246A9
:108E90000B4620462946FFF72FF903460C46254688
:108EA0001C46174B9B681846FFF774FA02460B46A0
:108EB00020462946FFF754FD0346002B00D103E06E
:108EC0000E4B4FF000021A600D4B9B68FA689A42F5
:108ED000D0DA00BF1837BD46B0BD00BFAFF3008089
:108EE000FCA9F1D24D62503FD5497231E02D503F7F
:108EF0009A9999999999B93F700200207C020020B3
:108F00005C02002000000000B0B586B000AF87ED25
:108F1000010AC7ED000A4FF000037B614C4B93ED53
:108F2000027AD7ED007A77EE677AC7ED057A78692D
:108F3000FFF742FA40A3D3E90023FFF795FA03466F
:108F40000C4625461C467869FFF736FA02460B4662
:108F500020462946FFF788FA03460C4625461C465C
:108F6000D7ED017A77EEA77A17EE900AFFF724FA89
:108F700002460B4620462946FFF7A0FB03460C4657
:108F800018462146FFF748FD034607EE903AF1EEFA
:108F9000677A304BC3ED007AD7ED017A77EEA77A86
:108FA00017EE900AFFF708FA25A3D3E90023FFF78D
:108FB00085FB03460C4618462146FFF705FD034690
:108FC0003B61254B9B683A691344FB6029E0F868D4
:108FD000FFF7E0F904460D463869FFF7DBF91AA3FD
:108FE000D3E90023FFF740FA02460B462046294604
:108FF000FFF782F803460C4625461C46164B9B6835
:109000001846FFF7C7F902460B4620462946FFF7E8
:10901000A7FC0346002B00D103E00E4B4FF00002EB
:109020001A600D4B9B68FA689A42D0DA00BF183775
:10903000BD46B0BDAFF30080FCA9F1D24D62503FF8
:10904000D5497231E02D503F9A9999999999B93F34
:10905000700200207C0200205C02002080B584B0F9
:1090600000AF786087ED000A7B68012B07D1D7ED50
:10907000007A9FED167A77EE877AC7ED007AD7ED02
:10908000000A9FED130AFFF797FE124BFB60124B8D
:109090009B68FA681344BB600FE07B68012B0CD11E
:1090A000BB68DA0F13445B101A460B4B9B689A425D
:1090B00003DC0A4B4FF000021A60074B9B68BA684A
:1090C0009A42EADA00BF1037BD4680BD00000000BA
:1090D0000000344206C802005C0200207C0200202E
:1090E00080B483B000AF786039607B683A681A60FA
:1090F00000BF0C37BD465DF8047B704780B584B077
:1091000000AF786039607B681B68FB603A68FB6879
:10911000D31AFB6039687868FFF7E2FFFB681846EE
:109120001037BD4680BD000080B487B000AFF86046
:10913000B9607A60BB687B612C4A7B6852F8232057
:109140007B69D31A002BB8BF5B423B6127497B6820
:109150007A6941F82320264A7B6852F823203B692C
:109160001A4423497B6841F82320224A7B6852F83D
:1091700023305A1C1F497B6841F823201D4A7B6815
:1091800052F82330FA689A4221D1194A7B6852F882
:10919000233007EE903AF8EEE76A164A7B6852F8F9
:1091A000233007EE903AB8EEE77AC6EE877A124A95
:1091B0007B689B001344C3ED007A0D4A7B68002155
:1091C00042F823100B4A7B68002142F823100A4A18
:1091D0007B689B0013441B6807EE903AB0EE670A69
:1091E0001C37BD465DF8047B704700BFF8010020C6
:1091F00008020020180200202802002080B487B056
:1092000000AFF86087ED020AC7ED010A87ED001A8A
:109210004FF000037B61FB6807EE903AB8EEE77A07
:10922000D7ED027A27EE277AD7ED017A67EE276A23
:1092300097ED007AC6EE877AC7ED057A7B6907EE6F
:10924000903AB0EE670A1C37BD465DF8047B704764
:1092500080B485B000AF786039600123FB600023E3
:10926000BB6007E0FB687A6802FB03F3FB60BB6846
:109270000133BB60BA683B689A42F3DBFB6818466F
:109280001437BD465DF8047B704780B48BB000AFE7
:1092900087ED030AC7ED020A87ED011A3860D7EDA2
:1092A000036A97ED017AC6EE877AC7ED077AD7EDA4
:1092B000026A97ED017AC6EE877AC7ED067AB7EEB5
:1092C000007AD7ED067A77EE676A3B6807EE903A48
:1092D000B8EEE77AC6EE877AC7ED057A00237B629F
:1092E00000233B6218E03B6A07EE903AB8EEE77A5B
:1092F000D7ED057A27EE277AD7ED067A77EE277A2B
:1093000097ED077AB4EEE77AF1EE10FA01DB3B6AEB
:109310007B623B6A01333B623A6A3B689A42E2DB1A
:109320007B6A18462C37BD465DF8047B704780B4D5
:1093300000AF00BFBD465DF8047B70470000000031
:10934000B0B500AF47F22F515748FFF7D7FE02469E
:10935000564B1A6047F22F515548FFF7CFFE024691
:10936000524B5A60514B1B6807EE903AF8EEE77A81
:1093700017EE900AFFF720F845A3D3E90023FFF783
:1093800073F803460C461846214643A3D3E900234D
:10939000FFF794F903460C4618462146FFF73CFBBD
:1093A0000246444B1A60414B5B6807EE903AF8EE78
:1093B000E77A17EE900AFEF7FFFF35A3D3E9002303
:1093C000FFF752F803460C461846214632A3D3E96C
:1093D0000023FFF773F903460C4618462146FFF7B2
:1093E0001BFB0246334B5A60334B1A682F4B1B68EA
:1093F0001344314A1360304B5A682C4B5B6813445A
:109400002D4A53602C4B1A682B4B5B6813442A4A35
:109410009360284B93ED007A264BD3ED017A77EEDB
:10942000677A17EE900AFEF7C7FF1DA3D3E9002362
:10943000FFF744F903460C4618462146FFF7ECFABD
:1094400002461E4B1A601E4B1B681846FEF7B4FFFF
:1094500004460D46194B1B681846FEF7ADFF0EA3D8
:10946000D3E90023FFF700F802460B4620462946C1
:10947000FEF744FE03460C4618462146FFF7CCFA99
:1094800002460F4B1A6000BFB0BD00BFAFF30080B3
:10949000D5497231E02D503FFCA9F1D24D62503FC9
:1094A0003333333333334240240400404802002036
:1094B00024080040500200205C02002068020020C6
:1094C0006C02002000000000B0B500AFFFF738FFCD
:1094D000554B93ED027A554BD3ED007A77EE277A10
:1094E000514BC3ED027A524B93ED007A514BD3EDC1
:1094F000007A77EE277A4E4BC3ED007A4A4BD3EDD4
:10950000027A77EEA77A17EE900AFEF755FF044627
:109510000D46474B1B681846FEF74EFF40A3D3E9A4
:109520000023FEF7A1FF02460B4620462946FEF720
:10953000E3FD03460C46184621464FF000024FF06B
:109540008043FFF7BBF803460C4618462146FFF759
:1095500063FA0246344B5A60354B1B681846FEF7D7
:109560002BFF2FA3D3E90023FEF77EFF03460C4613
:1095700025461C462C4B5B681846FEF71DFF02462D
:109580000B4620462946FEF7B9FD03460C46184611
:109590002146FFF741FA0246234B1A60224BD3EDD6
:1095A000007A254B93ED007AB0EE471AF0EE670A89
:1095B0009FED220A002000F0C7FA0246204B1A60F5
:1095C000194BD3ED017A1C4B93ED017AB0EE471A9B
:1095D000F0EE670A9FED190A012000F0B5FA024685
:1095E000184B1A60184B1B685B42184A1360174BE4
:1095F0001A68134B1B681344154A1360124B1A6800
:10960000104B1B681344134A1360114B1A68114B1B
:109610001B681946104601F077FF00BFB0BD00BFC0
:109620003333333333334240700200207C02002056
:109630008002002084020020500200206F12833A32
:10964000880200208C02002090020020940200205A
:10965000980200209C02002080B500AF184B1B68C8
:10966000002219460A20FFF75FFDF0EE407A154B05
:10967000C3ED007A124B5B68012219460A20FFF7FE
:1096800053FDF0EE407A0F4BC3ED017A0E4B1B6891
:10969000022219460A20FFF747FDF0EE407A094BF7
:1096A000C3ED027A084B5B68032219460A20FFF7D4
:1096B0003BFDF0EE407A034BC3ED037A00BF80BD63
:1096C00004040020380200201004002080B582B07D
:1096D00000AF78607B68084A934203D1FFF727FE0A
:1096E000FFF7F2FE7B68054A934201D1FFF7B4FF12
:1096F00000BF0837BD4680BDA8060020200400201A
:1097000080B500AF01F0E6FE01F0EAFD01F008FED1
:1097100001F0AEFD002000F0E5F8012000F0E2F8D5
:109720000121002000F0C8F80121012000F0C4F858
:109730009FED241ADFED240A9FED240A002000F09B
:109740008FF89FED201ADFED200A9FED200A0120FF
:1097500000F086F81E4804F0B6FA1E4804F0B3FA8A
:109760001D4B4FF000029A601C4B4FF000021A6034
:109770001B4B4FF000021A601A4B4FF000021A60A8
:10978000194B00221A60184B00225A60164B002217
:109790009A60002000F0A6F8012000F0A3F8DFEDA9
:1097A000130A9FED130AFFF707FB9FED100A012034
:1097B000FFF754FCDFED0F0A9FED0D0AFFF7A4FB46
:1097C000FEE700BF385AC43BC217064245D8983F4F
:1097D000A806002020040020700200208002002043
:1097E0007C020020840200205C02002000009643DE
:1097F000000034420000000080B584B000AF01F0EA
:1098000069FE01F06DFD01F08BFD01F031FD1148A5
:1098100004F059FA104804F056FA0121002000F033
:109820004BF80121012000F047F80023FB730023CF
:10983000BB7300237B730023BB60084B00221A60BC
:10984000064B00225A60054B00229A605323FB719D
:10985000FEE700BFA8060020200400205C020020D4
:1098600080B485B000AFF86087ED020AC7ED010A49
:1098700087ED001A0F4AFB682C2101FB03F3134408
:10988000BA681A600B4AFB682C2101FB03F31344EE
:1098900004337A681A60074AFB682C2101FB03F342
:1098A000134408333A681A6000BF1437BD465DF8A8
:1098B000047B7047A002002080B483B000AF7860C2
:1098C0003960074A7B682C2101FB03F313442833DA
:1098D0003A681A6000BF0C37BD465DF8047B7047DC
:1098E000A002002080B483B000AF78601B4A7B6880
:1098F0002C2101FB03F313440C334FF000021A60D8
:10990000164A7B682C2101FB03F3134410334FF0FC
:1099100000021A60114A7B682C2101FB03F31344F7
:1099200014334FF000021A600C4A7B682C2101FBB3
:1099300003F3134418334FF000021A60074A7B68A0
:109940002C2101FB03F31344243300221A6000BFCF
:109950000C37BD465DF8047B704700BFA0020020B5
:1099600090B583B000AF786087ED000A644A7B68E9
:109970002C2101FB03F31344203393ED007A604A5A
:109980007B682C2101FB03F313441C33D3ED007AD5
:1099900077EE677A5A4A7B682C2101FB03F3134464
:1099A0000C33C3ED007A564A7B682C2101FB03F38C
:1099B0001344103393ED007A514A7B682C2101FB4C
:1099C00003F313440C33D3ED006AD7ED007A66EE4F
:1099D000A77A77EE277A4A4A7B682C2101FB03F3AA
:1099E00013441033C3ED007A454A7B682C2101FBF8
:1099F00003F313440C3393ED007A414A7B682C2126
:109A000001FB03F313441833D3ED007A77EE676A52
:109A100097ED007AC6EE877A394A7B682C2101FBE4
:109A200003F313441433C3ED007A354A7B682C21C9
:109A300001FB03F313440C331A6831497B682C2073
:109A400000FB03F30B4418331A602D4A7B682C216A
:109A500001FB03F3134493ED007A294A7B682C2120
:109A600001FB03F313440C33D3ED007A27EE277A7E
:109A7000234A7B682C2101FB03F313440433D3ED09
:109A8000006A1F4A7B682C2101FB03F31344103347
:109A9000D3ED007A66EEA77A37EE277A184A7B680C
:109AA0002C2101FB03F313440833D3ED006A144A5D
:109AB0007B682C2101FB03F313441433D3ED007AAC
:109AC00066EEA77A77EE277A17EE900AFEF774FC17
:109AD00003460C4644EC103B06F0B8F854EC103B3F
:109AE00018462146FEF770FF054A7B682C2101FBD2
:109AF00003F313442433186000BF0C37BD4690BDF8
:109B0000A002002080B485B000AFF86087ED020AA3
:109B1000C7ED010A0B4AFB682C2101FB03F3134438
:109B20002033BA681A60074AFB682C2101FB03F353
:109B300013441C337A681A6000BF1437BD465DF8C1
:109B4000047B7047A002002080B584B000AFF860AD
:109B500087ED020AC7ED010A87ED001AD7ED000A6A
:109B600097ED010AF868FFF7CDFF97ED020AF86854
:109B7000FFF7F6FE0C4AFB682C2101FB03F31344AC
:109B800028331B68002B02D1F868FFF7ABFE064AAA
:109B9000FB682C2101FB03F3134424331B68184694
:109BA0001037BD4680BD00BFA002002080B584B044
:109BB00000AF78600023FB600EE0786801F0CCFB1A
:109BC000642001F09FFD002001F0C6FB642001F03D
:109BD00099FDFB680133FB60FB68042BEDDD00BFE2
:109BE0001037BD4680BD000080B586B000AF7860FC
:109BF0009FED121ADFED120AB0EE080A7868FFF73F
:109C0000FDFA87ED050A03210220FFF721FB3861E9
:109C100038699FED0C1ADFED0C0A97ED050AFFF786
:109C200034FBF860F968094806F0F4FCF868FFF7BF
:109C3000BDFF00BF1837BD4680BD00BF0000804596
:109C400033335340666606416666E6407824010871
:109C500090B585B000AF03463A60FB710B46BB710F
:109C600001F05EFB01F004FB404804F02CF801F029
:109C700037FB3B68FA791A7047F22F513C48FFF7DF
:109C80002FFA5CE03B4B5B681846FEF795FB0346FA
:109C90000C461A462346384806F0BCFC374B5B6A34
:109CA000FB60FB684BF22E52934221DD3B6893F937
:109CB0000030DBB20133DBB25AB23B681A703B684A
:109CC00093F9003097F906209A4202DA3B68FA7954
:109CD0001A703B6893F90030184601F03DFB47F2DB
:109CE0002F512348FFF7FCF94FF4FA7001F00AFDF9
:109CF000FB6843F22F52934221DC3B6893F900301A
:109D0000DBB2013BDBB25AB23B681A703B6893F995
:109D1000003097F907209A4202DD3B68BA791A7041
:109D20003B6893F90030184601F016FB47F22F51BB
:109D30000F48FFF7D5F94FF4FA7001F0E3FC0D4B33
:109D4000D3ED017A9FED0E7AF4EEC77AF1EE10FAB8
:109D500098D401F0F3FA01F0ABFA044803F0D7FF0E
:109D600001F0CEFA00BF1437BD4690BD200400209C
:109D70002404004038020020802401080004004030
:109D800000007A4380B582B000AF7860391D4FF68D
:109D9000FF730122034805F0F9FA7B68184608377B
:109DA000BD4680BD0806002080B582B000AF01F03E
:109DB00037FC00F05FF800F0A9FC00F07FFC00F039
:109DC000C3F800F02FF900F089FA00F011FA00F062
:109DD00089F900F049FC00F029FB00F0D3FA00F00B
:109DE0009BFB00F0B5F901F043FA4FF4FA7001F073
:109DF00089FC1D4B9B681846FFF7F6FE0023FB719C
:109E000097F907301946194806F004FCFB1D1A465D
:109E100007210020FFF71CFF97F907301846FFF7CE
:109E2000C5FE134806F06AFC97F90730072B19D8CE
:109E300001A252F823F000BF659E0008659E00084D
:109E4000659E0008659E0008659E0008659E0008E6
:109E5000599E00085F9E0008FFF7CEFC03E0FFF765
:109E60004FFC00E000BFDFE7040400209424010859
:109E7000A024010880B594B000AF07F12003302280
:109E80000021184605F061FF07F10C0300221A605B
:109E90005A609A60DA601A610023BB60284B1B6C21
:109EA000274A43F080531364254B1B6C03F0805307
:109EB000BB60BB6800237B60224B1B68214A43F4D4
:109EC000804313601F4B1B6803F480437B607B68F7
:109ED00001233B624FF480337B620223BB634FF468
:109EE0008003FB6304233B64A8237B640223BB64DD
:109EF0000423FB6407F12003184603F0F3F903463B
:109F0000002B01D000F0CCFC0F23FB6002233B614F
:109F100000237B614FF4A053BB614FF48053FB617E
:109F200007F10C030521184603F04CFC0346002BF7
:109F300001D000F0B5FC00BF5037BD4680BD00BF6A
:109F4000003802400070004080B584B000AF3B464E
:109F500000221A605A609A60DA602F4B2F4A1A600A
:109F60002D4B4FF400325A602B4B00229A602A4B43
:109F700001221A61284B01221A76274B002283F80E
:109F80002020254B0022DA62234B254A9A62224B7D
:109F90000022DA60204B0322DA611F4B012283F892
:109FA00030201D4B01225A611B4801F0CDFB0346B6
:109FB000002B01D000F074FC0A233B6001237B607E
:109FC0000323BB603B461946134801F0A5FE034638
:109FD000002B01D000F064FC0E233B6002237B6069
:109FE0003B4619460C4801F097FE0346002B01D072
:109FF00000F056FC09233B6003237B603B46194677
:10A00000054801F089FE0346002B01D000F048FC12
:10A0100000BF1037BD4680BDC005002000200140B4
:10A020000100000F80B584B000AF3B4600221A60EB
:10A030005A609A60DA60284B284A1A60264B4FF41F
:10A0400000325A60244B00229A60234B01221A618D
:10A05000214B01221A76204B002283F820201E4B30
:10A060000022DA621C4B1E4A9A621B4B0022DA6005
:10A07000194B0222DA61184B012283F83020164B6B
:10A0800001225A61144801F05FFB0346002B01D006
:10A0900000F006FC0B233B6001237B600323BB60C5
:10A0A0003B4619460C4801F037FE0346002B01D011
:10A0B00000F0F6FB0F233B6002237B603B46194612
:10A0C000054801F029FE0346002B01D000F0E8FB13
:10A0D00000BF1037BD4680BDA00400200021014014
:10A0E0000100000F80B500AF174B184A1A60164BDD
:10A0F0004FF482725A60144B00229A60124B002275
:10A10000DA60114B02221A610F4B01225A610E4B89
:10A110004FF400729A610C4B2822DA610A4B00223C
:10A120001A62094B00225A62074B00229A62064BC0
:10A130000A22DA62044803F037FD0346002B01D0FF
:10A1400000F0AEFB00BF80BD68050020003C004071
:10A1500080B586B000AF07F1080300221A605A608C
:10A160009A60DA603B4600221A605A601E4B1F4A12
:10A170001A601D4BA7225A601B4B00229A601A4B93
:10A1800040F2E732DA60184B00221A61164B0022C7
:10A190005A61154B00229A61134803F069FD03468A
:10A1A000002B01D000F07CFB4FF48053BB6007F123
:10A1B000080319460C4804F0DBFA0346002B01D0D3
:10A1C00000F06EFB00233B6000237B603B4619469A
:10A1D000054804F087FF0346002B01D000F060FB28
:10A1E00000BF1837BD4680BDA80600200000014012
:10A1F00080B58EB000AF07F1280300221A605A60C4
:10A200009A60DA6007F1200300221A605A603B1D51
:10A2100000221A605A609A60DA601A615A619A6183
:10A220002D4B4FF080421A602B4B00225A602A4B74
:10A2300000229A60284B41F26702DA60264B002226
:10A240001A61254B00229A61234803F011FD034651
:10A25000002B01D000F024FB4FF48053BB6207F1C8
:10A26000280319461C4804F083FA0346002B01D04A
:10A2700000F016FB184803F0C9FE0346002B01D07E
:10A2800000F00EFB00233B6200237B6207F12003FA
:10A290001946114804F026FF0346002B01D000F0B8
:10A2A000FFFA60237B600023BB600023FB60002378
:10A2B0007B613B1D0C221946074804F093F90346C5
:10A2C000002B01D000F0ECFA034800F089FD00BF3C
:10A2D0003837BD4680BD00BFE806002080B58CB091
:10A2E00000AF07F10C0324220021184605F02DFDD4
:10A2F0003B1D00221A605A60204B214A1A601F4BF6
:10A3000000225A601D4B00229A601C4B4EF65F22C1
:10A31000DA601A4B00221A61184B00229A6103235B
:10A32000FB6000233B6101237B610023BB610023B1
:10A33000FB6100233B6201237B620023BB6200239D
:10A34000FB6207F10C0319460C4803F0D3FE0346E9
:10A35000002B01D000F0A4FA00237B600023BB6037
:10A360003B1D1946054804F0BDFE0346002B01D0F5
:10A3700000F096FA00BF3037BD4680BD28050020AA
:10A380000004004080B58CB000AF07F10C0324221C
:10A390000021184605F0D9FC3B1D00221A605A60C6
:10A3A000204B214A1A601F4B00225A601D4B00228D
:10A3B0009A601C4B4EF65F22DA601A4B00221A613B
:10A3C000184B00229A610323FB6000233B610123A9
:10A3D0007B610023BB610023FB6100233B620123FF
:10A3E0007B620023BB620023FB6207F10C0319466A
:10A3F0000C4803F07FFE0346002B01D000F050FA1A
:10A4000000237B600023BB603B1D1946054804F018
:10A4100069FE0346002B01D000F042FA00BF30373E
:10A42000BD4680BD600400200008004080B58EB0AD
:10A4300000AF07F1280300221A605A609A60DA60C0
:10A4400007F1200300221A605A603B1D00221A60A7
:10A450005A609A60DA601A615A619A612C4B2D4AEF
:10A460001A602B4B00225A60294B00229A60284B1D
:10A4700041F26702DA60264B00221A61244B002267
:10A480009A61234803F0F4FB0346002B01D000F04F
:10A4900007FA4FF48053BB6207F1280319461C48A2
:10A4A00004F066F90346002B01D000F0F9F91848D2
:10A4B00003F0ACFD0346002B01D000F0F1F90023BE
:10A4C0003B6200237B6207F120031946104804F029
:10A4D00009FE0346002B01D000F0E2F960237B6007
:10A4E0000023BB600023FB6000237B613B1D042233
:10A4F0001946074804F076F80346002B01D000F017
:10A50000CFF9034800F06CFC00BF3837BD4680BD72
:10A51000E8040020000C004080B596B000AF07F1C1
:10A52000480300221A605A609A60DA6007F140031B
:10A5300000221A605A6007F1240300221A605A6050
:10A540009A60DA601A615A619A613B1D20220021EB
:10A55000184605F0FAFB424B424A1A60404BA722CC
:10A560005A603F4B00229A603D4B3122DA603C4BEF
:10A5700000221A613A4B00225A61394B80229A61BB
:10A58000374803F075FB0346002B01D000F088F933
:10A590004FF48053BB6407F148031946304804F078
:10A5A000E7F80346002B01D000F07AF92C4803F0BD
:10A5B000D9FB0346002B01D000F072F900233B6465
:10A5C00000237B6407F140031946254804F08AFD07
:10A5D0000346002B01D000F063F930237B6218237F
:10A5E000BB620023FB6200233B6300237B630023E9
:10A5F000BB630023FB6307F12403002219461848BC
:10A6000003F090FF0346002B01D000F049F9144BF2
:10A610001B689A69124B1B6842F008029A6100237A
:10A620007B600023BB600023FB6000233B610023B1
:10A630007B614FF40053BB6100233B623B1D194615
:10A64000074804F0CBFD0346002B01D000F028F9A9
:10A65000034800F0C5FB00BF5837BD4680BD00BFB2
:10A66000200400200004014080B500AF114B124AC5
:10A670001A60104B4FF4E1325A600E4B00229A6080
:10A680000C4B0022DA600B4B00221A61094B0C22A2
:10A690005A61084B00229A61064B0022DA61054894
:10A6A00004F027FE0346002B01D000F0F9F800BFAC
:10A6B00080BD00BF080600200010014080B582B0B8
:10A6C00000AF00237B60104B1B6B0F4A43F48003E9
:10A6D00013630D4B1B6B03F480037B607B680022CC
:10A6E0000021382001F09DFE382001F0B6FE002246
:10A6F00000213A2001F095FE3A2001F0AEFE00BFA5
:10A700000837BD4680BD00BF0038024080B58AB022
:10A7100000AF07F1140300221A605A609A60DA60F1
:10A720001A6100233B61594B1B6B584A43F080036D
:10A730001363564B1B6B03F080033B613B690023A3
:10A74000FB60524B1B6B514A43F0040313634F4BA6
:10A750001B6B03F00403FB60FB680023BB604B4BE7
:10A760001B6B4A4A43F001031363484B1B6B03F016
:10A770000103BB60BB6800237B60444B1B6B434AF7
:10A7800043F002031363414B1B6B03F002037B6036
:10A790007B6800233B603D4B1B6B3C4A43F0080346
:10A7A00013633A4B1B6B03F008033B603B680022CA
:10A7B0004FF44171364802F07BFD002205213548F7
:10A7C00002F076FD00220421334802F071FD0022E0
:10A7D0004FF40071314802F06BFD4FF441737B611F
:10A7E0000123BB610023FB6100233B6207F11403DB
:10A7F0001946274802F0C2FB05237B610123BB6198
:10A800000023FB6100233B6207F114031946214832
:10A8100002F0B4FB41F204037B610023BB6100231F
:10A82000FB6107F1140319461C4802F0A7FB4FF423
:10A8300080437B610023BB610023FB6107F11403AC
:10A840001946144802F09AFB04237B610123BB6183
:10A850000023FB6100233B6207F1140319460E48F5
:10A8600002F08CFB4FF400737B610123BB6100237A
:10A87000FB6100233B6207F114031946074802F00D
:10A880007DFB00BF2837BD4680BD00BF00380240B9
:10A890000008024000000240000C02400004024098
:10A8A00080B400AF72B6FEE780B582B000AF00237F
:10A8B0007B60134B5B6C124A43F480435364104B30
:10A8C0005B6C03F480437B607B6800233B600C4B34
:10A8D0001B6C0B4A43F080531364094B1B6C03F051
:10A8E00080533B603B6800220021042001F099FD69
:10A8F000042001F0B2FD00BF0837BD4680BD00BF97
:10A900000038024080B58CB000AF786007F11C03BE
:10A9100000221A605A609A60DA601A617B681B68CC
:10A92000734A93427AD10023BB61724B5B6C714ACC
:10A9300043F4807353646F4B5B6C03F48073BB61AF
:10A94000BB6900237B616B4B1B6B6A4A43F00403BA
:10A950001363684B1B6B03F004037B617B6900236B
:10A960003B61644B1B6B634A43F002031363614B0F
:10A970001B6B03F002033B613B691123FB61032363
:10A980003B6200237B6207F11C0319465A4802F020
:10A99000F5FA0223FB6103233B6200237B6207F18C
:10A9A0001C031946554802F0E9FA554B554A1A60FE
:10A9B000534B00225A60524B00229A60504B0022A7
:10A9C000DA604F4B4FF480621A614D4B4FF4805266
:10A9D0005A614B4B4FF480429A61494B4FF480725D
:10A9E000DA61474B00221A62454B00225A62444802
:10A9F00001F04EFD0346002B01D0FFF751FF7B68AD
:10AA00003F4A9A633E4A7B689363002200211220EA
:10AA100001F007FD122001F020FD65E07B681B6856
:10AA2000394A934260D10023FB60324B5B6C314A60
:10AA300043F4007353642F4B5B6C03F40073FB60AF
:10AA4000FB680023BB602B4B1B6B2A4A43F00403BB
:10AA50001363284B1B6B03F00403BB60BB6822230A
:10AA6000FB6103233B6200237B6207F11C03194651
:10AA7000214802F083FA254B254A1A60234B4FF0F8
:10AA800000725A60214B00229A60204B0022DA604B
:10AA90001E4B4FF480621A611C4B4FF400625A61E6
:10AAA0001A4B4FF400529A61184B4FF48072DA61DE
:10AAB000164B00221A62154B00225A62134801F00D
:10AAC000E7FC0346002B01D0FFF7EAFE7B680F4A44
:10AAD0009A630E4A7B68936300220021122001F0E2
:10AAE000A0FC122001F0B9FC00BF3037BD4680BD8C
:10AAF00000200140003802400008024000040240EB
:10AB00004806002010640240002101402807002070
:10AB10004064024080B58AB000AF786007F114034A
:10AB200000221A605A609A60DA601A617B681B68BA
:10AB3000194A93422CD100233B61184B1B6C174AD6
:10AB400043F400431364154B1B6C03F400433B6157
:10AB50003B690023FB60114B1B6B104A43F004035D
:10AB600013630E4B1B6B03F00403FB60FB684FF495
:10AB7000E0537B610223BB610023FB6103233B6243
:10AB800006237B6207F114031946054802F0F6F923
:10AB900000BF2837BD4680BD003C00400038024061
:10ABA0000008024080B586B000AF78607B681B6803
:10ABB000404A934216D100237B613F4B5B6C3E4A77
:10ABC00043F0010353643C4B5B6C03F001037B6176
:10ABD0007B6900220121192001F023FC192001F0DA
:10ABE0003CFC62E07B681B68B3F1804F16D1002308
:10ABF0003B61314B1B6C304A43F0010313642E4B15
:10AC00001B6C03F001033B613B69002200211C2007
:10AC100001F007FC1C2001F020FC46E07B681B686B
:10AC2000264A934216D10023FB60234B1B6C224A19
:10AC300043F008031364204B1B6C03F00803FB6014
:10AC4000FB6800220021322001F0EBFB322001F0F2
:10AC500004FC2AE07B681B68194A934225D1002333
:10AC6000BB60154B5B6C144A43F002035364124BF8
:10AC70005B6C03F00203BB60BB68002202212C2046
:10AC800001F0CFFB2C2001F0E8FB002200212D2059
:10AC900001F0C7FB2D2001F0E0FB002200212E2057
:10ACA00001F0BFFB2E2001F0D8FB00BF1837BD46D6
:10ACB00080BD00BF0000014000380240000C004091
:10ACC0000004014080B58CB000AF786007F11C0330
:10ACD00000221A605A609A60DA601A617B681B6809
:10ACE0003A4A934234D10023BB61394B1B6C384A3A
:10ACF00043F002031364364B1B6C03F00203BB6189
:10AD0000BB6900237B61324B1B6B314A43F001036B
:10AD100013632F4B1B6B03F001037B617B69C02323
:10AD2000FB6102233B6200237B620023BB620223A0
:10AD3000FB6207F11C031946264802F01FF90022A6
:10AD400000211D2001F06DFB1D2001F086FB38E085
:10AD50007B681B68204A934233D100233B611C4B24
:10AD60001B6C1B4A43F004031364194B1B6C03F068
:10AD700004033B613B690023FB60154B1B6B144ACA
:10AD800043F002031363124B1B6B03F00203FB60DF
:10AD9000FB68C023FB6102233B6200237B6200232C
:10ADA000BB620223FB6207F11C0319460B4802F049
:10ADB000E5F8002200211E2001F033FB1E2001F0E7
:10ADC0004CFB00BF3037BD4680BD00BF00040040D3
:10ADD0000038024000000240000800400004024029
:10ADE00080B58CB000AF786007F11C0300221A60B8
:10ADF0005A609A60DA601A617B681B68B3F1804F11
:10AE00001ED10023BB61434B1B6B424A43F001033D
:10AE10001363404B1B6B03F00103BB61BB69082349
:10AE2000FB6102233B6200237B620323BB6201239D
:10AE3000FB6207F11C031946374802F09FF864E0F3
:10AE40007B681B68354A93421ED100237B61314BDE
:10AE50001B6B304A43F0010313632E4B1B6B03F053
:10AE600001037B617B690223FB6102233B620023B8
:10AE70007B620023BB620223FB6207F11C031946BD
:10AE8000254802F07BF840E07B681B68244A934227
:10AE90003BD100233B611F4B1B6B1E4A43F0010358
:10AEA00013631C4B1B6B03F001033B613B690023E5
:10AEB000FB60184B1B6B174A43F004031363154BDD
:10AEC0001B6B03F00403FB60FB682023FB61022380
:10AED0003B6200237B620023BB620323FB6207F11A
:10AEE0001C0319460C4802F049F84023FB61022379
:10AEF0003B6200237B620023BB620323FB6207F1FA
:10AF00001C031946074802F039F800BF3037BD4628
:10AF100080BD00BF0038024000000240000C00402D
:10AF2000000401400008024080B58AB000AF78609C
:10AF300007F1140300221A605A609A60DA601A61FD
:10AF40007B681B68194A93422CD100233B61184B44
:10AF50005B6C174A43F010035364154B5B6C03F0B2
:10AF600010033B613B690023FB60114B1B6B104AD4
:10AF700043F0010313630E4B1B6B03F00103FB60F3
:10AF8000FB684FF4C0637B610223BB610023FB615C
:10AF900003233B6207237B6207F11403194605482C
:10AFA00001F0ECFF00BF2837BD4680BD0010014016
:10AFB000003802400000024080B400AFFEE780B4D9
:10AFC00000AFFEE780B400AFFEE780B400AFFEE75D
:10AFD00080B400AFFEE780B400AF00BFBD465DF8AF
:10AFE000047B704780B400AF00BFBD465DF8047BB2
:10AFF000704780B400AF00BFBD465DF8047B70476A
:10B0000080B500AF00F05EFB00BF80BD80B500AF33
:10B0100001F01CFE00BF80BD80B500AF034800F00A
:10B02000D6FB034800F0D3FB00BF80BDC005002065
:10B03000A004002080B500AF024803F06BF900BF08
:10B0400080BD00BFA806002080B500AF024803F015
:10B0500061F900BF80BD00BFE806002080B500AFE9
:10B06000024803F057F900BF80BD00BF280500204B
:10B0700080B500AF024803F04DF900BF80BD00BFAE
:10B080006004002080B500AF024803F043F900BF20
:10B0900080BD00BF2004002080B500AF024803F04F
:10B0A00039F900BF80BD00BF2004002080B500AF8B
:10B0B000024803F02FF900BF80BD00BF200400202C
:10B0C00080B500AF024803F025F900BF80BD00BF86
:10B0D000E804002080B500AF024801F04FFB00BF3C
:10B0E00080BD00BF4806002080B500AF024801F0D7
:10B0F00045FB00BF80BD00BF2807002080B586B09B
:10B1000000AFF860B9607A6000237B610AE0AFF3BA
:10B1100000800146BB685A1CBA60CAB21A707B69CB
:10B1200001337B617A697B689A42F0DB7B68184661
:10B130001837BD4680BD80B586B000AFF860B960F5
:10B140007A6000237B6109E0BB685A1CBA601B78F7
:10B150001846FEF717FE7B6901337B617A697B68CD
:10B160009A42F1DB7B6818461837BD4680BD80B433
:10B1700083B000AF78604FF0FF3318460C37BD4600
:10B180005DF8047B704780B483B000AF78603960AD
:10B190003B684FF400525A60002318460C37BD46F6
:10B1A0005DF8047B704780B483B000AF7860012302
:10B1B00018460C37BD465DF8047B704780B485B0F7
:10B1C00000AFF860B9607A60002318461437BD46B6
:10B1D0005DF8047B7047000080B586B000AF7860F2
:10B1E000144A154BD31A7B617B693B61134B1B6877
:10B1F000002B02D1114B124A1A60104B1A687B685F
:10B2000013443A699A4207D204F06AFD02460C23BD
:10B2100013604FF0FF3309E0084B1B68FB60074BDE
:10B220001A687B681344054A1360FB681846183790
:10B23000BD4680BD00000220000400000004002084
:10B24000B807002080B400AF084BD3F88830074A15
:10B2500043F47003C2F88830044B4FF000629A60E8
:10B2600000BFBD465DF8047B704700BF00ED00E005
:10B2700080B500AF03220A490A4800F0E9FB034603
:10B28000002B01D0FFF70CFB02220749074800F012
:10B29000DFFB0346002B01D0FFF702FB00BF80BDA0
:10B2A00004040020C005002010040020A004002099
:10B2B00080B500AF084800F0BDFC0346002B01D06C
:10B2C000FFF7EEFA054800F0B5FC0346002B01D06D
:10B2D000FFF7E6FA00BF80BDC0050020A0040020F3
:10B2E00080B500AF3C21044802F096FF3C210348A2
:10B2F00002F092FF00BF80BD2805002060040020FE
:10B3000080B500AF3C21044802F0BDFF3C2103485A
:10B3100002F0B9FF00BF80BD2805002060040020B6
:10B3200080B500AF0021044802F052FD0021024820
:10B3300003F00DFE00BF80BD2004002080B500AFEB
:10B340000021044802F0C8FD0021024803F054FE29
:10B3500000BF80BD2004002080B582B000AF7860BF
:10B360007B68072B00F2AC8001A252F823F000BFEB
:10B3700091B30008B7B30008DDB3000803B40008B8
:10B3800029B400084FB4000875B400089BB4000845
:10B3900000224FF400714D4801F08AFF00224FF463
:10B3A00080714A4801F084FF00224FF40071484840
:10B3B00001F07EFF85E001224FF40071434801F067
:10B3C00077FF00224FF48071404801F071FF0022A6
:10B3D0004FF400713E4801F06BFF72E000224FF421
:10B3E00000713A4801F064FF01224FF48071374840
:10B3F00001F05EFF00224FF40071354801F058FF64
:10B400005FE001224FF40071304801F051FF01224A
:10B410004FF480712D4801F04BFF00224FF4007172
:10B420002B4801F045FF4CE000224FF40071274803
:10B4300001F03EFF00224FF48071244801F038FFF4
:10B4400001224FF40071224801F032FF39E001225D
:10B450004FF400711D4801F02BFF00224FF4807162
:10B460001A4801F025FF01224FF40071184801F03D
:10B470001FFF26E000224FF40071144801F018FF6E
:10B4800001224FF48071114801F012FF01224FF4A4
:10B4900000710F4801F00CFF13E001224FF400711E
:10B4A0000A4801F005FF01224FF48071074801F0BE
:10B4B000FFFE01224FF40071054801F0F9FE00E0A3
:10B4C00000BF00BF0837BD4680BD00BF0008024076
:10B4D0000004024080B500AF0C21094802F0CCFD09
:10B4E0000346002B01D0FFF7DBF90421054802F0E9
:10B4F000C3FD0346002B01D0FFF7D2F900BF80BD8A
:10B50000E8060020E804002080B582B000AF786033
:10B5100039607B68002B05DD01220421284801F0F9
:10B52000C7FE0AE07B68002B07DA002204212448CA
:10B5300001F0BEFE7B685B427B603B68002B05DD53
:10B54000002201211E4801F0B3FE0AE03B68002BF7
:10B5500007DA012201211A4801F0AAFE3B685B428A
:10B560003B607868FCF716FF13A3D3E90023FDF7CF
:10B570000BFA0346002B02D040F6D8137B603868E4
:10B58000FCF708FF0CA3D3E90023FDF7FDF9034600
:10B59000002B02D040F6D8133B600A4B1B687A6838
:10B5A0001A64094B1B683A689A6300BF0837BD46A6
:10B5B00080BD00BFAFF300800000000000B0A340DA
:10B5C00000000240E8060020E8040020DFF834D044
:10B5D000002103E00C4B5B58435004310B480C4BEB
:10B5E00042189A42F6D30B4A02E0002342F8043B89
:10B5F000094B9A42F9D3FFF725FE04F077FBFEF7DB
:10B60000D3FB7047000002209827010800000020AB
:10B61000DC010020DC010020B4070020FEE7000070
:10B6200080B500AF0E4B1B680D4A43F400731360E6
:10B630000B4B1B680A4A43F480631360084B1B687A
:10B64000074A43F480731360032000F0DFFE0020FC
:10B6500000F008F8FFF728F90023184680BD00BF66
:10B66000003C024080B582B000AF7860124B1A688F
:10B67000124B1B7819464FF47A73B3FBF1F3B2FB0C
:10B68000F3F3184600F0F7FE0346002B01D0012328
:10B690000EE07B680F2B0AD8002279684FF0FF304C
:10B6A00000F0BFFE064A7B681360002300E0012320
:10B6B00018460837BD4680BD000000200800002065
:10B6C0000400002080B400AF064B1B781A46064BDE
:10B6D0001B681344044A136000BFBD465DF8047B39
:10B6E000704700BF080000208C07002080B400AF26
:10B6F000034B1B681846BD465DF8047B704700BFCE
:10B700008C07002080B584B000AF7860FFF7EEFFB3
:10B71000B8607B68FB60FB68B3F1FF3F05D0094B65
:10B720001B781A46FB681344FB6000BFFFF7DEFF7F
:10B730000246BB68D31AFA689A42F7D800BF10379E
:10B74000BD4680BD0800002080B584B000AF7860A1
:10B750000023FB737B68002B01D1012333E07B685E
:10B760001B6C002B09D17868FFF7CCF87B680022AE
:10B770005A647B68002283F83C207B681B6C03F0D2
:10B780001003002B18D17B681B6C23F4885323F023
:10B79000020343F002027B681A64786800F0DEFB63
:10B7A0007B6800225A647B681B6C23F0030343F020
:10B7B00001027B681A6401E00123FB737B680022AD
:10B7C00083F83C20FB7B18461037BD4680BD80B512
:10B7D00084B000AF78600023FB600023BB607B680F
:10B7E0001B681B6803F00203022B0CBF012300231C
:10B7F000DBB2FB607B681B685B6803F02003202BD7
:10B800000CBF01230023DBB2BB60FB68002B49D0D7
:10B81000BB68002B46D07B681B6C03F01003002B29
:10B8200005D17B681B6C43F400727B681A647B68EB
:10B830001B689B6803F04053002B2BD17B681B7E59
:10B84000002B27D17B681B68DB6A03F47003002B95
:10B8500006D07B681B689B6803F48063002B19D1BA
:10B860007B681B685A687B681B6822F020025A605C
:10B870007B681B6C23F480727B681A647B681B6C8A
:10B8800003F48053002B05D17B681B6C43F001024D
:10B890007B681A64786800F017FA7B681B686FF0A1
:10B8A00012021A607B681B681B6803F00403042BF8
:10B8B0000CBF01230023DBB2FB607B681B685B6865
:10B8C00003F08003802B0CBF01230023DBB2BB609D
:10B8D000FB68002B57D0BB68002B54D07B681B6CD7
:10B8E00003F01003002B05D17B681B6C43F400525E
:10B8F0007B681A647B681B689B6803F44013002B09
:10B9000039D17B681B689B6B03F44013002B06D076
:10B910007B681B689B6803F48063002B2BD17B68DA
:10B920001B685B6803F48063002B24D17B681B6871
:10B930009B6803F04053002B1DD17B681B7E002BBE
:10B9400019D17B681B685A687B681B6822F08002EB
:10B950005A607B681B6C23F480527B681A647B6896
:10B960001B6C03F48073002B05D17B681B6C43F0C8
:10B9700001027B681A64786800F06EFC7B681B68C3
:10B980006FF00C021A607B681B681B6803F00103F0
:10B99000012B0CBF01230023DBB2FB607B681B681B
:10B9A0005B6803F04003402B0CBF01230023DBB294
:10B9B000BB60FB68002B17D0BB68002B14D07B68E2
:10B9C0001B681B6803F00103012B0DD17B681B6C06
:10B9D00043F480327B681A64786800F089F97B68E8
:10B9E0001B686FF001021A607B681B681B6803F01C
:10B9F0002003202B0CBF01230023DBB2FB607B68FC
:10BA00001B685B6803F08063B3F1806F0CBF012398
:10BA10000023DBB2BB60FB68002B15D0BB68002B9A
:10BA200012D07B685B6C43F002027B685A647B68CF
:10BA30001B686FF020021A60786800F063F97B6879
:10BA40001B686FF020021A6000BF1037BD4680BD32
:10BA500080B586B000AFF860B9607A6000233B61C2
:10BA6000FB6893F83C30012B01D10223CCE0FB684A
:10BA7000012283F83C20FB681B689B6803F00103EC
:10BA8000012B18D0FB681B689A68FB681B6842F0A2
:10BA900001029A605E4B1B685E4AA2FB03239A0C6C
:10BAA00013465B0013443B6102E03B69013B3B6191
:10BAB0003B69002BF9D1FB681B689B6803F001030D
:10BAC000012B40F0A080FB681B6C23F4E06323F0A3
:10BAD000010343F48072FB681A64FB681B685B68AF
:10BAE00003F48063002B07D0FB681B6C23F44053E6
:10BAF00043F48052FB681A64FB681B6C03F48053A8
:10BB0000B3F5805F06D1FB685B6C23F00602FB682F
:10BB10005A6402E0FB6800225A64FB68002283F842
:10BB20003C203D4B7B61FB689B6B3C4ADA63FB68C6
:10BB30009B6B3B4A1A64FB689B6B3A4ADA64FB686E
:10BB40001B686FF022021A60FB681B685A68FB686A
:10BB50001B6842F080625A60FB681B689A68FB6849
:10BB60001B6842F480729A60FB68986BFB681B68E4
:10BB70004C331946BA687B6800F038FD7B695B6816
:10BB800003F01F03002B2AD1FB681B68264A93424F
:10BB900015D0FB681B68254A934205D11E4B5B6894
:10BBA00003F01F03002B0AD0FB681B68204A934256
:10BBB00029D1194B5B6803F01F030F2B23D8FB68B7
:10BBC0001B689B6803F04053002B1CD1FB681B686B
:10BBD0009A68FB681B6842F080429A6013E0FB6839
:10BBE0001B68114A93420ED1FB681B689B6803F0E7
:10BBF0004053002B07D1FB681B689A68FB681B68E1
:10BC000042F080429A60002318461837BD4680BD36
:10BC10000000002083DE1B430023014055C10008C3
:10BC20000FC200082BC20008002001400021014083
:10BC30000022014080B584B000AF78600023FB7320
:10BC40007B6893F83C30012B01D1022338E07B68FC
:10BC5000012283F83C207B681B689A687B681B681C
:10BC600022F001029A607B681B689B6803F0010365
:10BC7000002B20D17B681B689A687B681B6822F4C4
:10BC800080729A607B689B6B184600F007FD034644
:10BC9000FB737B681B685A687B681B6822F08062B4
:10BCA0005A607B681B6C23F4885323F0010343F034
:10BCB00001027B681A647B68002283F83C20FB7BCE
:10BCC00018461037BD4680BD80B483B000AF7860A1
:10BCD00000BF0C37BD465DF8047B704780B483B06D
:10BCE00000AF786000BF0C37BD465DF8047B70473D
:10BCF00080B483B000AF786000BF0C37BD465DF8FC
:10BD0000047B704780B483B000AF786000BF0C370D
:10BD1000BD465DF8047B704780B485B000AF7860A5
:10BD200039600023BB607B6893F83C30012B01D164
:10BD3000022305E17B68012283F83C203B681B68F5
:10BD4000092B25D97B681B68D9683B681B689BB2A7
:10BD50001A4613465B0013441E3B072202FA03F304
:10BD6000DA437B681B680A40DA607B681B68D96825
:10BD70003B689A683B681B689BB2184603465B00A9
:10BD800003441E3B9A407B681B680A43DA6022E04A
:10BD90007B681B6819693B681B689BB21A4613468F
:10BDA0005B001344072202FA03F3DA437B681B6843
:10BDB0000A401A617B681B6819693B689A683B688E
:10BDC0001B689BB2184603465B0003449A407B689D
:10BDD0001B680A431A613B685B68062B24D87B68A2
:10BDE0001B68596B3B685A6813469B001344053B1C
:10BDF0001F2202FA03F3DA437B681B680A405A6386
:10BE00007B681B68596B3B681B689BB218463B6894
:10BE10005A6813469B001344053B00FA03F27B6803
:10BE20001B680A435A634CE03B685B680C2B24D8C0
:10BE30007B681B68196B3B685A6813469B00134468
:10BE4000233B1F2202FA03F3DA437B681B680A4094
:10BE50001A637B681B68196B3B681B689BB21846AA
:10BE60003B685A6813469B001344233B00FA03F2D5
:10BE70007B681B680A431A6323E07B681B68D96AE6
:10BE80003B685A6813469B001344413B1F2202FA49
:10BE900003F3DA437B681B680A40DA627B681B683D
:10BEA000D96A3B681B689BB218463B685A681346C0
:10BEB0009B001344413B00FA03F27B681B680A4372
:10BEC000DA62224BFB607B681B68214A934209D1EE
:10BED0003B681B68122B05D1FB685B6843F480024A
:10BEE000FB685A607B681B68194A934223D13B6800
:10BEF0001B68102B03D03B681B68112B1BD1FB6800
:10BF00005B6843F40002FB685A603B681B68102BB7
:10BF100011D1104B1B68104AA2FB03239A0C134645
:10BF20009B0013445B00BB6002E0BB68013BBB604D
:10BF3000BB68002BF9D17B68002283F83C200023EA
:10BF400018461437BD465DF8047B70470023014056
:10BF5000002001400000002083DE1B4380B485B038
:10BF600000AF7860794BFB60FB685B6823F440327C
:10BF7000FB685A60FB685A687B685B681A43FB6819
:10BF80005A607B681B685A687B681B6822F4807261
:10BF90005A607B681B6859687B681B691A027B685A
:10BFA0001B680A435A607B681B685A687B681B6879
:10BFB00022F040725A607B681B6859687B689A68F7
:10BFC0007B681B680A435A607B681B689A687B68B9
:10BFD0001B6822F400629A607B681B6899687B6822
:10BFE000DA687B681B680A439A607B689B6A584AD8
:10BFF000934222D07B681B689A687B681B6822F09A
:10C0000070629A607B681B6899687B689A6A7B6833
:10C010001B680A439A607B681B689A687B681B6888
:10C0200022F040529A607B681B6899687B68DA6AE4
:10C030007B681B680A439A600FE07B681B689A68FC
:10C040007B681B6822F070629A607B681B689A6844
:10C050007B681B6822F040529A607B681B689A6874
:10C060007B681B6822F002029A607B681B689968F3
:10C070007B681B7E5A007B681B680A439A607B685A
:10C0800093F82030002B1BD07B681B685A687B68B4
:10C090001B6842F400625A607B681B685A687B68C0
:10C0A0001B6822F460425A607B681B6859687B6891
:10C0B0005B6A013B5A037B681B680A435A6007E0CE
:10C0C0007B681B685A687B681B6822F400625A60B0
:10C0D0007B681B68DA6A7B681B6822F47002DA628C
:10C0E0007B681B68D96A7B68DB69013B1A057B6842
:10C0F0001B680A43DA627B681B689A687B681B6866
:10C1000022F400729A607B681B6899687B6893F8D8
:10C1100030305A027B681B680A439A607B681B6850
:10C120009A687B681B6822F480629A607B681B684F
:10C1300099687B685B699A027B681B680A439A600E
:10C1400000BF1437BD465DF8047B704700230140F3
:10C150000100000F80B584B000AF78607B689B6BF6
:10C16000FB60FB681B6C03F05003002B3CD1FB68A9
:10C170001B6C43F40072FB681A64FB681B689B68C5
:10C1800003F04053002B2BD1FB681B7E002B27D1E3
:10C19000FB681B68DB6A03F47003002B06D0FB68A6
:10C1A0001B689B6803F48063002B19D1FB681B6834
:10C1B0005A68FB681B6822F020025A60FB681B6CFF
:10C1C00023F48072FB681A64FB681B6C03F48053D1
:10C1D000002B05D1FB681B6C43F00102FB681A645D
:10C1E000F868FFF771FD0EE0FB681B6C03F01003AD
:10C1F000002B03D0F868FFF785FD04E0FB689B6B1C
:10C20000DB6C7868984700BF1037BD4680BD80B5AD
:10C2100084B000AF78607B689B6BFB60F868FFF7C9
:10C220005DFD00BF1037BD4680BD80B584B000AF56
:10C2300078607B689B6BFB60FB6840221A64FB683C
:10C240005B6C43F00402FB685A64F868FFF75AFD20
:10C2500000BF1037BD4680BD80B483B000AF7860AA
:10C2600000BF0C37BD465DF8047B704780B485B0D5
:10C2700000AF78607B6803F00703FB600C4BDB6862
:10C28000BB60BA684FF6FF031340BB60FB681A023D
:10C29000BB68134343F0BF6343F40033BB60044AFD
:10C2A000BB68D36000BF1437BD465DF8047B7047A0
:10C2B00000ED00E080B400AF044BDB681B0A03F024
:10C2C00007031846BD465DF8047B704700ED00E0AB
:10C2D00080B483B000AF0346FB7197F90730002BA1
:10C2E0000BDBFB7903F01F02074997F907305B0965
:10C2F000012000FA02F241F8232000BF0C37BD46AE
:10C300005DF8047B704700BF00E100E080B483B0BB
:10C3100000AF03463960FB7197F90730002B0ADB49
:10C320003B68DAB20C4997F907301201D2B20B44DC
:10C3300083F800230AE03B68DAB20849FB7903F08E
:10C340000F03043B1201D2B20B441A7600BF0C3724
:10C35000BD465DF8047B704700E100E000ED00E0C1
:10C3600080B489B000AFF860B9607A60FB6803F010
:10C370000703FB61FB69C3F10703042B28BF0423F8
:10C38000BB61FB690433062B02D9FB69033B00E068
:10C3900000237B614FF0FF32BB6902FA03F3DA43FB
:10C3A000BB681A407B699A404FF0FF317B6901FA04
:10C3B00003F3D9437B680B40134318462437BD462B
:10C3C0005DF8047B7047000080B582B000AF7860F4
:10C3D0007B68013BB3F1807F01D301230FE00A4A60
:10C3E0007B68013B53600F214FF0FF30FFF78EFF5A
:10C3F000054B00229A60044B07221A60002318465E
:10C400000837BD4680BD00BF10E000E080B582B0B7
:10C4100000AF78607868FFF729FF00BF0837BD4696
:10C4200080BD80B586B000AF0346B9607A60FB730B
:10C4300000237B61FFF73EFF78617A68B96878690D
:10C44000FFF78EFF024697F90F3011461846FFF7A7
:10C450005DFF00BF1837BD4680BD80B582B000AF1C
:10C460000346FB7197F907301846FFF731FF00BF0D
:10C470000837BD4680BD80B582B000AF786078686F
:10C48000FFF7A2FF034618460837BD4680BD0000EF
:10C4900080B586B000AF786000237B61FFF726F996
:10C4A00038617B68002B01D1012399E07B68002271
:10C4B00083F834207B68022283F835207B681B6870
:10C4C0001A687B681B6822F001021A600FE0FFF710
:10C4D0000DF902463B69D31A052B08D97B68202247
:10C4E0005A657B68032283F83520032378E07B6854
:10C4F0001B681B6803F00103002BE8D17B681B68F5
:10C500001B687B617A69384B13407B617B685A6892
:10C510007B689B681A437B68DB681A437B681B69EE
:10C520001A437B685B691A437B689B691A437B6883
:10C53000DB691A437B681B6A13437A6913437B6187
:10C540007B685B6A042B07D17B68DA6A7B681B6BAC
:10C5500013437A6913437B617B681B687A691A60AD
:10C560007B681B685B697B617B6923F007037B61E8
:10C570007B685B6A7A6913437B617B685B6A042B27
:10C5800017D17B689B6A7A6913437B617B68DB6A9E
:10C59000002B0ED0786800F0DFFA0346002B08D09D
:10C5A0007B6840225A657B68012283F8352001238D
:10C5B00016E07B681B687A695A61786800F096FA21
:10C5C0000346FB607B68DB6D3F229A40FB689A6004
:10C5D0007B6800225A657B68012283F8352000239E
:10C5E00018461837BD4680BD3F8010F080B586B034
:10C5F00000AFF860B9607A603B600023FB75FB68B0
:10C600009B6D3B61FB6893F83430012B01D1022311
:10C6100040E0FB68012283F83420FB6893F8353052
:10C62000DBB2012B2FD1FB68022283F83520FB6897
:10C6300000225A653B687A68B968F86800F028FA01
:10C64000FB68DB6D3F229A403B699A60FB681B6880
:10C650001A68FB681B6842F016021A60FB681B6CC4
:10C66000002B07D0FB681B681A68FB681B6842F048
:10C6700008021A60FB681B681A68FB681B6842F0B6
:10C6800001021A6005E0FB68002283F834200223CF
:10C69000FB75FB7D18461837BD4680BD80B584B05C
:10C6A00000AF78607B689B6DFB60FFF71FF8B86098
:10C6B0007B6893F83530DBB2022B08D07B68802290
:10C6C0005A657B68002283F83420012352E07B689E
:10C6D0001B681A687B681B6822F016021A607B6868
:10C6E0001B685A697B681B6822F080025A617B686C
:10C6F0001B6C002B03D17B689B6C002B07D07B68E5
:10C700001B681A687B681B6822F008021A607B6845
:10C710001B681A687B681B6822F001021A6013E02C
:10C72000FEF7E4FF0246BB68D31A052B0CD97B68E1
:10C7300020225A657B68002283F834207B6803221C
:10C7400083F83520032315E07B681B681B6803F022
:10C750000103002BE4D17B68DB6D3F229A40FB682C
:10C760009A607B68002283F834207B68012283F87A
:10C770003520002318461037BD4680BD80B586B0F1
:10C7800000AF78600023BB60924B1B68924AA2FB0B
:10C7900003239B0A7B617B689B6D3B613B691B6844
:10C7A000FB607B68DB6D08229A40FB681340002B1E
:10C7B0001AD07B681B681B6803F00403002B13D09E
:10C7C0007B681B681A687B681B6822F004021A6089
:10C7D0007B68DB6D08229A403B699A607B685B6DE1
:10C7E00043F001027B685A657B68DB6D01229A4049
:10C7F000FB681340002B12D07B681B685B6903F059
:10C800008003002B0BD07B68DB6D01229A403B69D3
:10C810009A607B685B6D43F002027B685A657B68B7
:10C82000DB6D04229A40FB681340002B12D07B681A
:10C830001B681B6803F00203002B0BD07B68DB6DC9
:10C8400004229A403B699A607B685B6D43F0040266
:10C850007B685A657B68DB6D10229A40FB68134049
:10C86000002B43D07B681B681B6803F00803002B78
:10C870003CD07B68DB6D10229A403B699A607B68F4
:10C880001B681B6803F48023002B18D07B681B688F
:10C890001B6803F40023002B08D17B681B6C002B62
:10C8A00024D07B681B6C786898471FE07B689B6C82
:10C8B000002B1BD07B689B6C7868984716E07B68E0
:10C8C0001B681B6803F48073002B07D17B681B680F
:10C8D0001A687B681B6822F008021A607B681B6C70
:10C8E000002B03D07B681B6C786898477B68DB6DF6
:10C8F00020229A40FB681340002B00F08E807B685A
:10C900001B681B6803F01003002B00F086807B6817
:10C91000DB6D20229A403B699A607B6893F8353042
:10C92000DBB2052B36D17B681B681A687B681B68F5
:10C9300022F016021A607B681B685A697B681B68C4
:10C9400022F080025A617B681B6C002B03D17B684C
:10C950009B6C002B07D07B681B681A687B681B6880
:10C9600022F008021A607B68DB6D3F229A403B6927
:10C970009A607B68002283F834207B68012283F868
:10C9800035207B681B6D002B7DD07B681B6D786824
:10C99000984778E07B681B681B6803F48023002BB2
:10C9A0001CD07B681B681B6803F40023002B08D194
:10C9B0007B685B6C002B30D07B685B6C7868984739
:10C9C0002BE07B68DB6B002B27D07B68DB6B786808
:10C9D000984722E000000020B5814E1B7B681B6851
:10C9E0001B6803F48073002B0FD17B681B681A68E7
:10C9F0007B681B6822F010021A607B68002283F8B3
:10CA000034207B68012283F835207B68DB6B002BA8
:10CA100003D07B68DB6B786898477B685B6D002B85
:10CA200032D07B685B6D03F00103002B22D07B6862
:10CA3000052283F835207B681B681A687B681B68B1
:10CA400022F001021A60BB680133BB607A699A4226
:10CA500007D37B681B681B6803F00103002BF2D12E
:10CA600000E000BF7B68002283F834207B6801224D
:10CA700083F835207B68DB6C002B05D07B68DB6C92
:10CA80007868984700E000BF1837BD4680BD00BFFA
:10CA900080B485B000AFF860B9607A603B60FB6835
:10CAA0001B681A68FB681B6822F480221A60FB6806
:10CAB0001B683A685A60FB689B68402B08D1FB688A
:10CAC0001B687A689A60FB681B68BA68DA6007E0DE
:10CAD000FB681B68BA689A60FB681B687A68DA6052
:10CAE00000BF1437BD465DF8047B704780B485B045
:10CAF00000AF78607B681B68DBB2103B144AA2FB76
:10CB000003231B09FB60134AFB6813441B781A4676
:10CB10007B68DA65FB68032B09D97B681B6823F403
:10CB20007F7323F003031A1D7B689A6507E07B6817
:10CB30001B6823F47F7323F003037A6893657B6893
:10CB40009B6D18461437BD465DF8047B704700BFE7
:10CB5000ABAAAAAAC024010880B485B000AF78604F
:10CB60000023FB737B689B6ABB607B689B69002B1F
:10CB70001FD1BB68032B55D801A252F823F000BF88
:10CB800091CB0008A3CB000891CB000825CC00086E
:10CB90007B68DB6A03F08073002B45D00123FB73B5
:10CBA00042E07B68DB6AB3F1C07F3FD10123FB73B6
:10CBB0003CE07B689B69B3F5005F21D1BB68032B28
:10CBC00036D801A252F823F0D9CB0008DFCB0008F9
:10CBD000D9CB0008F1CB00080123FB732FE07B6861
:10CBE000DB6A03F08073002B24D00123FB7321E068
:10CBF0007B68DB6AB3F1C07F1ED10123FB731BE0AE
:10CC0000BB68022B02D9032B03D018E00123FB736E
:10CC100015E07B68DB6A03F08073002B0ED00123E4
:10CC2000FB730BE000BF0AE000BF08E000BF06E0B6
:10CC300000BF04E000BF02E000BF00E000BFFB7BDC
:10CC400018461437BD465DF8047B704780B582B046
:10CC500000AF00237B604B4BDB6803F0F203002B3B
:10CC600020D0494B1B78DBB2012B07D1464BDB6848
:10CC70007B60454B4FF0FF32DA600BE0424B1B7894
:10CC8000DBB2022B03D1404B1B697B6002E03E4BC1
:10CC90005B697B6000F08EF8786800F081F83A4BB1
:10CCA00000221A70374BDB6803F00103002B4AD0D7
:10CCB000344B0122DA60344B1B78DBB2012B2DD1CF
:10CCC000314B5B68013B304A53602F4B5B68002B54
:10CCD00015D02D4BDB687B60786800F057F82A4B45
:10CCE000DB680133284AD360274BDB687B60264B27
:10CCF0001B7ADBB21946786800F0B2F823E04FF0F7
:10CD0000FF337B60204A7B68D3601F4B00221A7080
:10CD100000F0EEF8786800F039F814E01A4B1B7850
:10CD2000DBB2022B07D100F0E3F8174B1B69184662
:10CD300000F02CF804E0144B5B69184600F026F86C
:10CD4000114B00221A70104B1B78DBB2002B14D150
:10CD50000C4B1B690B4A23F0FF031361094B1B6942
:10CD6000084A23F080731361064B1B69054A23F0C0
:10CD700000731361044B00221A7600BF0837BD46CA
:10CD800080BD00BF003C02409007002080B483B00B
:10CD900000AF786000BF0C37BD465DF8047B70477C
:10CDA00080B483B000AF786000BF0C37BD465DF83B
:10CDB000047B704780B400AF274BDB6803F010039F
:10CDC000002B08D0254BDB6943F01003234AD361C5
:10CDD000214B1022DA60204BDB6803F02003002B8C
:10CDE00008D01E4BDB6943F008031C4AD3611A4B81
:10CDF0002022DA60184BDB6803F04003002B08D0D8
:10CE0000164BDB6943F00403144AD361124B4022F2
:10CE1000DA60114BDB6803F08003002B08D00F4B66
:10CE2000DB6943F002030D4AD3610B4B8022DA60C9
:10CE3000094BDB6803F00203002B08D0074BDB69CA
:10CE400043F02003054AD361034B0222DA6000BF9E
:10CE5000BD465DF8047B7047003C0240900700200F
:10CE600080B485B000AF78600B46FB700023FB6098
:10CE7000FB78002B02D10023FB6010E0FB78012B34
:10CE800003D14FF48073FB6009E0FB78022B03D1E0
:10CE90004FF40073FB6002E04FF44073FB60134BF0
:10CEA0001B69124A23F440731361104B1A690F492E
:10CEB000FB6813430B610D4B1B690C4A23F0F8030D
:10CEC00013610A4B1A697B68DB001343074A43F07E
:10CED00002031361054B1B69044A43F48033136159
:10CEE00000BF1437BD465DF8047B7047003C02402C
:10CEF00080B400AF204B1B6803F40073002B17D0E5
:10CF00001D4B1B681C4A23F4007313601A4B1B68EB
:10CF1000194A43F400631360174B1B68164A23F445
:10CF200000631360144B1B68134A43F400731360CF
:10CF3000114B1B6803F48063002B17D00E4B1B684A
:10CF40000D4A23F4806313600B4B1B680A4A43F4B9
:10CF500080531360084B1B68074A23F48053136007
:10CF6000054B1B68044A43F48063136000BFBD4651
:10CF70005DF8047B704700BF003C024080B489B07C
:10CF800000AF7860396000237B6100233B610023A0
:10CF9000BB610023FB616BE10122FB6902FA03F331
:10CFA0007B613B681B687A6913403B613A697B6926
:10CFB0009A4240F05A813B685B68012B0BD03B687A
:10CFC0005B68022B07D03B685B68112B03D03B6882
:10CFD0005B68122B30D17B689B68BB61FB695B008F
:10CFE000032202FA03F3DB43BA691340BB613B68D7
:10CFF000DA68FB695B0002FA03F3BA691343BB61A9
:10D000007B68BA699A607B685B68BB610122FB69D7
:10D0100002FA03F3DB43BA691340BB613B685B6808
:10D020001B0903F00102FB6902FA03F3BA69134317
:10D03000BB617B68BA695A607B68DB68BB61FB696E
:10D040005B00032202FA03F3DB43BA691340BB61BE
:10D050003B689A68FB695B0002FA03F3BA69134301
:10D06000BB617B68BA69DA603B685B68022B03D0FE
:10D070003B685B68122B23D1FB69DA087B680832B6
:10D0800053F82230BB61FB6903F007039B000F22BA
:10D0900002FA03F3DB43BA691340BB613B681A69C8
:10D0A000FB6903F007039B0002FA03F3BA69134319
:10D0B000BB61FB69DA087B680832B96943F8221062
:10D0C0007B681B68BB61FB695B00032202FA03F308
:10D0D000DB43BA691340BB613B685B6803F0030242
:10D0E000FB695B0002FA03F3BA691343BB617B6817
:10D0F000BA691A603B685B6803F08053002B00F04C
:10D10000B4800023FB605F4B5B6C5E4A43F480435A
:10D1100053645C4B5B6C03F48043FB60FB685A4ACE
:10D12000FB699B08023352F82330BB61FB6903F0B3
:10D1300003039B000F2202FA03F3DB43BA69134097
:10D14000BB617B68514A93422BD07B68504A934223
:10D1500025D07B684F4A93421FD07B684E4A93424A
:10D1600019D07B684D4A934213D07B684C4A934256
:10D170000DD07B684B4A934207D07B684A4A934262
:10D1800001D107230EE008230CE006230AE0052363
:10D1900008E0042306E0032304E0022302E0012365
:10D1A00000E00023FA6902F0030292009340BA699A
:10D1B0001343BB613449FB699B080233BA6941F8E8
:10D1C00023203A4B1B68BB613B69DB43BA691340C0
:10D1D000BB613B685B6803F48033002B03D0BA6902
:10D1E0003B691343BB61314ABB6913602F4B5B68DA
:10D1F000BB613B69DB43BA691340BB613B685B6859
:10D2000003F40033002B03D0BA693B691343BB61BD
:10D21000264ABB695360254B9B68BB613B69DB4376
:10D22000BA691340BB613B685B6803F48013002B51
:10D2300003D0BA693B691343BB611C4ABB69936065
:10D240001A4BDB68BB613B69DB43BA691340BB61C6
:10D250003B685B6803F40013002B03D0BA693B6999
:10D260001343BB61114ABB69D360FB690133FB61A6
:10D27000FB690F2B7FF690AE00BF2437BD465DF8EB
:10D28000047B704700380240003801400000024033
:10D290000004024000080240000C0240001002405E
:10D2A0000014024000180240001C0240003C0140F3
:10D2B00080B483B000AF78600B467B8013467B70F0
:10D2C0007B78002B03D07A887B689A6103E07B88A7
:10D2D0001A047B689A6100BF0C37BD465DF8047B79
:10D2E0007047000080B586B000AF78607B68002B87
:10D2F00001D101235BE27B681B6803F00103002B73
:10D3000075D0A34B9B6803F00C03042B0CD0A04BEF
:10D310009B6803F00C03082B12D19D4B5B6803F450
:10D320008003B3F5800F0BD1994B1B6803F40033D6
:10D33000002B5BD07B685B68002B57D1012336E262
:10D340007B685B68B3F5803F06D1914B1B68904AC0
:10D3500043F4803313601DE07B685B68B3F5A02F56
:10D360000CD18B4B1B688A4A43F480231360884B93
:10D370001B68874A43F4803313600BE0844B1B68BF
:10D38000834A23F480331360814B1B68804A23F463
:10D39000802313607B685B68002B13D0FEF7A6F92F
:10D3A000386108E0FEF7A2F902463B69D31A642B04
:10D3B00001D90323FBE1764B1B6803F40033002BF8
:10D3C000F0D014E0FEF792F9386108E0FEF78EF92C
:10D3D00002463B69D31A642B01D90323E7E16C4B66
:10D3E0001B6803F40033002BF0D100E000BF7B6822
:10D3F0001B6803F00203002B63D0654B9B6803F0AE
:10D400000C03002B0BD0624B9B6803F00C03082B22
:10D410001CD15F4B5B6803F48003002B16D15C4B7F
:10D420001B6803F00203002B05D07B68DB68012B2F
:10D4300001D00123BBE1564B1B6823F0F8027B6847
:10D440001B69DB00524913430B603AE07B68DB68E1
:10D45000002B20D04F4B01221A60FEF747F93861AC
:10D4600008E0FEF743F902463B69D31A022B01D9C3
:10D4700003239CE1464B1B6803F00203002BF0D012
:10D48000434B1B6823F0F8027B681B69DB004049B3
:10D4900013430B6015E03F4B00221A60FEF726F99C
:10D4A000386108E0FEF722F902463B69D31A022BE5
:10D4B00001D903237BE1364B1B6803F00203002BE9
:10D4C000F0D17B681B6803F00803002B30D07B6829
:10D4D0005B69002B16D0304B01221A60FEF706F96B
:10D4E000386108E0FEF702F902463B69D31A022BC5
:10D4F00001D903235BE1264B5B6F03F00203002B92
:10D50000F0D015E0244B00221A60FEF7EFF83861E6
:10D5100008E0FEF7EBF802463B69D31A022B01D96B
:10D52000032344E11A4B5B6F03F00203002BF0D19D
:10D530007B681B6803F00403002B00F0A08000232D
:10D54000FB75134B1B6C03F08053002B0FD1002392
:10D55000BB600F4B1B6C0E4A43F0805313640C4BA3
:10D560001B6C03F08053BB60BB680123FB750B4B46
:10D570001B6803F48073002B21D1084B1B68074AFA
:10D5800043F480731360FEF7B1F8386111E000BF17
:10D590000038024000004742800E474200700040C1
:10D5A000FEF7A4F802463B69D31A022B01D90323E4
:10D5B000FDE0814B1B6803F48073002BF0D07B6887
:10D5C0009B68012B06D17D4B1B6F7C4A43F0010306
:10D5D00013671CE07B689B68052B0CD1774B1B6F96
:10D5E000764A43F004031367744B1B6F734A43F08E
:10D5F000010313670BE0714B1B6F704A23F00103AB
:10D6000013676E4B1B6F6D4A23F0040313677B682F
:10D610009B68002B15D0FEF769F838610AE0FEF729
:10D6200065F802463B69D31A41F28832934201D928
:10D630000323BCE0614B1B6F03F00203002BEED011
:10D6400014E0FEF753F838610AE0FEF74FF802469F
:10D650003B69D31A41F28832934201D90323A6E0F1
:10D66000564B1B6F03F00203002BEED1FB7D012B09
:10D6700005D1524B1B6C514A23F0805313647B68D5
:10D680009B69002B00F092804C4B9B6803F00C03CD
:10D69000082B5CD07B689B69022B41D1484B002250
:10D6A0001A60FEF723F8386108E0FEF71FF802461B
:10D6B0003B69D31A022B01D9032378E03F4B1B6847
:10D6C00003F00073002BF0D17B68DA697B681B6A7A
:10D6D0001A437B685B6A9B011A437B689B6A5B0801
:10D6E000013B1B041A437B68DB6A1B063349134367
:10D6F0004B60334B01221A60FDF7F8FF386108E0F8
:10D70000FDF7F4FF02463B69D31A022B01D903232C
:10D710004DE02A4B1B6803F00073002BF0D045E06E
:10D72000274B00221A60FDF7E1FF386108E0FDF7A2
:10D73000DDFF02463B69D31A022B01D9032336E0F1
:10D740001E4B1B6803F00073002BF0D12EE07B68AA
:10D750009B69012B01D1012329E0184B5B68FB6019
:10D76000FB6803F480027B68DB699A421CD1FB688A
:10D7700003F03F027B681B6A9A4215D1FA6847F6AC
:10D78000C07313407A68526A93420DD1FB6803F468
:10D7900040327B689B6A9A4206D1FB6803F0706254
:10D7A0007B68DB6A9A4201D0012300E0002318461F
:10D7B0001837BD4680BD00BF0070004000380240F1
:10D7C0006000474280B584B000AF786039607B6804
:10D7D000002B01D10123CCE0684B1B6803F00F0341
:10D7E0003A689A420CD9654B3A68D2B21A70634BC8
:10D7F0001B6803F00F033A689A4201D00123B8E096
:10D800007B681B6803F00203002B20D07B681B6839
:10D8100003F00403002B05D0594B9B68584A43F48E
:10D82000E05393607B681B6803F00803002B05D06E
:10D83000534B9B68524A43F460439360504B9B6840
:10D8400023F0F0027B689B684D4913438B607B6833
:10D850001B6803F00103002B44D07B685B68012B3D
:10D8600007D1474B1B6803F40033002B19D1012368
:10D870007FE07B685B68022B03D07B685B68032BCF
:10D8800007D13F4B1B6803F00073002B09D1012324
:10D890006FE03B4B1B6803F00203002B01D1012317
:10D8A00067E0374B9B6823F003027B685B68344971
:10D8B00013438B60FDF71AFFF8600AE0FDF716FFCF
:10D8C0000246FB68D31A41F28832934201D90323FE
:10D8D0004FE02B4B9B6803F00C027B685B689B005E
:10D8E0009A42EBD1254B1B6803F00F033A689A422A
:10D8F0000CD2224B3A68D2B21A70204B1B6803F04C
:10D900000F033A689A4201D0012332E07B681B681A
:10D9100003F00403002B08D0194B9B6823F4E0525A
:10D920007B68DB68164913438B607B681B6803F0D8
:10D930000803002B09D0124B9B6823F460427B68DC
:10D940001B69DB000E4913438B6000F021F8014690
