:020000040800F2
:100000000000022035E60008DDCC0008E3CC000843
:10001000E9CC0008EFCC0008F5CC00080000000097
:10002000000000000000000000000000FBCC000801
:1000300009CD00080000000017CD000825CD0008FC
:1000400085E6000885E6000885E6000885E60008E4
:1000500085E6000885E6000885E6000885E60008D4
:1000600085E6000885E6000885E6000885E60008C4
:1000700085E6000885E6000885E6000885E60008B4
:1000800085E6000885E6000885E6000885E60008A4
:1000900085E6000885E6000885E6000885E6000894
:1000A00085E6000831CD000885E6000885E60008F1
:1000B00085E6000885E6000885E6000885E6000874
:1000C00085E6000885E6000885E6000885E6000864
:1000D00085E6000885E6000885E6000885E6000854
:1000E00045CD000885E6000885E6000885E600089D
:1000F00055CD000885E6000885E6000885E600087D
:1001000085E6000885E6000885E6000885E6000823
:1001100085E6000885E6000885E6000885E6000813
:1001200069CD000885E600087DCD000885E6000859
:1001300085E60008000000000000000085E60008D9
:1001400085E6000885E6000885E6000885E60008E3
:1001500085E6000885E6000885E6000885E60008D3
:1001600085E6000885E6000885E6000885E60008C3
:1001700085E6000885E60008000000000000000099
:0801800085E6000885E6000891
:1080000010B5054C237833B9044B13B10448AFF3D2
:1080100000800123237010BD080200200000000032
:10802000348B010808B5034B1BB103490348AFF378
:10803000008008BD000000000C020020348B010805
:10804000034613F8012B002AFBD1181A0138704798
:1080500001F0FF01102A2BDB10F0070F08D010F8F9
:10806000013B013A8B422DD010F0070F42B3F6D1FD
:10807000F0B441EA012141EA014122F007047FF016
:1080800000070023F0E80256083C85EA010586EA6D
:10809000010685FA47F5A3FA87F586FA47F6A5FAA9
:1080A00087F68EB9EED1F0BC01F0FF0102F00702B5
:1080B00032B110F8013B013A83EA010313B1F8D160
:1080C0000020704701387047002D06BF3546033841
:1080D000073815F0010F07D1013015F4807F02BF7A
:1080E000013015F4C03F0130F0BC0138704700BFCB
:1080F00081F0004102E000BF83F0004330B54FEA59
:1081000041044FEA430594EA050F08BF90EA020FC5
:108110001FBF54EA000C55EA020C7FEA645C7FEA58
:10812000655C00F0E2804FEA5454D4EB5555B8BF7B
:108130006D420CDD2C4480EA020281EA030382EAEC
:10814000000083EA010180EA020281EA0303362D7E
:1081500088BF30BD11F0004F4FEA01314FF4801C51
:108160004CEA113102D0404261EB410113F0004F63
:108170004FEA03334CEA133302D0524263EB43031A
:1081800094EA050F00F0A780A4F10104D5F1200EB8
:108190000DDB02FA0EFC22FA05F2801841F1000113
:1081A00003FA0EF2801843FA05F359410EE0A5F1E7
:1081B00020050EF1200E012A03FA0EFC28BF4CF018
:1081C000020C43FA05F3C01851EBE37101F00045CE
:1081D00007D54FF0000EDCF1000C7EEB00006EEBDB
:1081E0000101B1F5801F1BD3B1F5001F0CD3490865
:1081F0005FEA30004FEA3C0C04F101044FEA4452BC
:1082000012F5800F80F09A80BCF1004F08BF5FEA42
:10821000500C50F1000041EB045141EA050130BD22
:108220005FEA4C0C404141EB010111F4801FA4F1C5
:108230000104E9D191F0000F04BF01460020B1FA1A
:1082400081F308BF2033A3F10B03B3F120020CDA52
:108250000C3208DD02F1140CC2F10C0201FA0CF030
:1082600021FA02F10CE002F11402D8BFC2F1200C95
:1082700001FA02F120FA0CFCDCBF41EA0C0190404B
:10828000E41AA2BF01EB0451294330BD6FEA040494
:108290001F3C1CDA0C340EDC04F11404C4F120027F
:1082A00020FA04F001FA02F340EA030021FA04F391
:1082B00045EA030130BDC4F10C04C4F1200220FAE8
:1082C00002F001FA04F340EA0300294630BD21FA26
:1082D00004F0294630BD94F0000F83F4801306BFEC
:1082E00081F480110134013D4EE77FEA645C18BFE0
:1082F0007FEA655C29D094EA050F08BF90EA020F77
:1083000005D054EA000C04BF1946104630BD91EA6E
:10831000030F1EBF0021002030BD5FEA545C05D171
:108320004000494128BF41F0004130BD14F58004B0
:108330003CBF01F5801130BD01F0004545F0FE4124
:1083400041F470014FF0000030BD7FEA645C1ABF59
:10835000194610467FEA655C1CBF0B46024650EA90
:10836000013406BF52EA033591EA030F41F40021BC
:1083700030BD00BF90F0000F04BF0021704730B542
:108380004FF4806404F132044FF000054FF0000117
:1083900050E700BF90F0000F04BF0021704730B5D8
:1083A0004FF4806404F1320410F0004548BF4042AD
:1083B0004FF000013EE700BF42004FEAE2014FEA02
:1083C00031014FEA02701FBF12F07F4393F07F4FDD
:1083D00081F06051704732F07F4208BF704793F0E0
:1083E0007F4F04BF41F40021704730B54FF46074F3
:1083F00001F0004521F000411CE700BF50EA0102F6
:1084000008BF704730B54FF000050AE050EA01029E
:1084100008BF704730B511F0004502D5404261EB0E
:1084200041014FF4806404F132045FEA915C3FF44F
:10843000D8AE4FF003025FEADC0C18BF03325FEAEC
:10844000DC0C18BF033202EBDC02C2F1200300FA9D
:1084500003FC20FA02F001FA03FE40EA0E0021FAC2
:1084600002F11444BDE600BF70B54FF0FF0C4CF4B0
:10847000E06C1CEA11541DBF1CEA135594EA0C0F62
:1084800095EA0C0F00F0DEF82C4481EA030621EA9D
:108490004C5123EA4C5350EA013518BF52EA0335D8
:1084A00041F4801143F4801338D0A0FB02CE4FF08A
:1084B0000005E1FB02E506F00042E0FB03E54FF0BA
:1084C0000006E1FB03569CF0000F18BF4EF0010EB2
:1084D000A4F1FF04B6F5007F64F5407404D25FEAAE
:1084E0004E0E6D4146EB060642EAC62141EA555161
:1084F0004FEAC52040EA5E504FEACE2EB4F1FD0CA3
:1085000088BFBCF5E06F1ED8BEF1004F08BF5FEA20
:10851000500E50F1000041EB045170BD06F00046D2
:1085200046EA010140EA020081EA0301B4EB5C047F
:10853000C2BFD4EB0C0541EA045170BD41F4801177
:108540004FF0000E013C00F3AB8014F1360FDEBF9C
:10855000002001F0004170BDC4F10004203C35DA78
:108560000C341BDC04F11404C4F1200500FA05F3FB
:1085700020FA04F001FA05F240EA020001F000429C
:1085800021F0004110EBD37021FA04F642EB060112
:108590005EEA430E08BF20EAD37070BDC4F10C043C
:1085A000C4F1200500FA04F320FA05F001FA04F200
:1085B00040EA020001F0004110EBD37041F10001EC
:1085C0005EEA430E08BF20EAD37070BDC4F12005F7
:1085D00000FA05F24EEA020E20FA04F301FA05F25F
:1085E00043EA020321FA04F001F0004121FA04F207
:1085F00020EA020000EBD3705EEA430E08BF20EAD7
:10860000D37070BD94F0000F0FD101F00046400010
:1086100041EB010111F4801F08BF013CF7D041EA92
:10862000060195F0000F18BF704703F00046520096
:1086300043EB030313F4801F08BF013DF7D043EA67
:108640000603704794EA0C0F0CEA135518BF95EA1D
:108650000C0F0CD050EA410618BF52EA4306D1D1A4
:1086600081EA030101F000414FF0000070BD50EAC3
:10867000410606BF1046194652EA430619D094EA4D
:108680000C0F02D150EA013613D195EA0C0F05D137
:1086900052EA03361CBF104619460AD181EA03018B
:1086A00001F0004141F0FE4141F470014FF0000043
:1086B00070BD41F0FE4141F4780170BD70B54FF0DE
:1086C000FF0C4CF4E06C1CEA11541DBF1CEA13555E
:1086D00094EA0C0F95EA0C0F00F0A7F8A4EB050440
:1086E00081EA030E52EA03354FEA013100F0888037
:1086F0004FEA03334FF0805545EA131343EA126300
:108700004FEA022245EA111545EA10654FEA0026B4
:108710000EF000419D4208BF964244F1FD0404F56D
:10872000407402D25B084FEA3202B61A65EB0305C9
:108730005B084FEA32024FF480104FF4002CB6EB86
:10874000020E75EB030E22BFB61A754640EA0C0006
:108750005B084FEA3202B6EB020E75EB030E22BF46
:10876000B61A754640EA5C005B084FEA3202B6EB87
:10877000020E75EB030E22BFB61A754640EA9C0046
:108780005B084FEA3202B6EB020E75EB030E22BF16
:10879000B61A754640EADC0055EA060E18D04FEAD4
:1087A000051545EA16754FEA06164FEAC30343EA74
:1087B00052734FEAC2025FEA1C1CC0D111F4801F41
:1087C0000BD141EA00014FF000004FF0004CB6E73A
:1087D00011F4801F04BF01430020B4F1FD0C88BFD9
:1087E000BCF5E06F3FF6AFAEB5EB030C04BFB6EBE4
:1087F000020C5FEA500C50F1000041EB045170BDD7
:108800000EF0004E4EEA113114EB5C04C2BFD4EB03
:108810000C0541EA045170BD41F480114FF0000E87
:10882000013C90E645EA060E8DE60CEA135594EA03
:108830000C0F08BF95EA0C0F3FF43BAF94EA0C0F06
:108840000AD150EA01347FF434AF95EA0C0F7FF47B
:1088500025AF104619462CE795EA0C0F06D152EACF
:1088600003353FF4FDAE1046194622E750EA4106B3
:1088700018BF52EA43067FF4C5AE50EA41047FF4C4
:108880000DAF52EA43057FF4EBAE12E74FF0FF3C29
:1088900006E000BF4FF0010C02E000BF4FF0010CFA
:1088A0004DF804CD4FEA410C7FEA6C5C4FEA430C73
:1088B00018BF7FEA6C5C1BD001B050EA410C0CBFC2
:1088C00052EA430C91EA030F02BF90EA020F002024
:1088D000704710F1000F91EA030F58BF994208BF8B
:1088E00090422CBFD8176FEAE37040F00100704748
:1088F0004FEA410C7FEA6C5C02D150EA013C07D19F
:108900004FEA430C7FEA6C5CD6D152EA033CD3D0E9
:108910005DF8040B704700BF8446104662468C46E3
:108920001946634600E000BF01B5FFF7B7FF002816
:1089300048BF10F1000F01BD4DF808EDFFF7F4FF3F
:108940000CBF012000205DF808FB00BF4DF808EDCA
:10895000FFF7EAFF34BF012000205DF808FB00BFED
:108960004DF808EDFFF7E0FF94BF012000205DF80F
:1089700008FB00BF4DF808EDFFF7CEFF94BF0120C4
:1089800000205DF808FB00BF4DF808EDFFF7C4FFBD
:1089900034BF012000205DF808FB00BF4FEA410C06
:1089A0007FEA6C5C02D150EA013C0AD14FEA430CE9
:1089B0007FEA6C5C02D152EA033C02D14FF0000026
:1089C00070474FF0010070474FEA410212F5001264
:1089D00015D211D56FF47873B3EB625212D94FEA06
:1089E000C12343F0004343EA505311F0004F23FAF0
:1089F00002F018BF404270474FF00000704750EA45
:108A0000013005D111F0004008BF6FF00040704701
:108A10004FF00000704700BF4A0011D212F500125B
:108A200011D20DD56FF47873B3EB62520ED44FEAC6
:108A3000C12343F0004343EA505323FA02F0704746
:108A40004FF00000704750EA013002D14FF0FF3084
:108A500070474FF0000070474FEA4102B2F1E04327
:108A600024BFB3F5001CDCF1FE5C0DD901F0004C15
:108A70004FEAC0024CEA5070B2F1004F40EB830065
:108A800008BF20F00100704711F0804F21D113F191
:108A90003872BCBF01F00040704741F480114FEACA
:108AA0005252C2F11802C2F1200C10FA0CF320FA53
:108AB00002F018BF40F001004FEAC1234FEAD32370
:108AC00003FA0CFC40EA0C0023FA02F34FEA4303DA
:108AD000CCE77FEA625307D150EA01331EBF4FF063
:108AE000FE4040F44000704701F0004040F0FE407E
:108AF00040F40000704700BF53B94AB9002908BFCD
:108B000000281CBF4FF0FF314FF0FF3000F072B96A
:108B1000ADF1080C6DE904CE00F006F8DDF804E0D4
:108B2000DDE9022304B070472DE9F047089E0446B2
:108B30008846002B4BD18A42154667D9B2FA82F299
:108B40004AB1C2F1200701FA02F320FA07F7954073
:108B500047EA030894404FEA154E230CB8FBFEF792
:108B60001FFA85FC0EFB178843EA084307FB0CF14C
:108B7000994209D9EB1807F1FF3080F01B81994227
:108B800040F21881023F2B445B1AA4B2B3FBFEF003
:108B90000EFB103344EA034400FB0CFCA44509D946
:108BA0002C1900F1FF3380F00781A44540F20481C5
:108BB00002382C4440EA0740A4EB0C0400271EB105
:108BC000D4400023C6E900433946BDE8F0878B4214
:108BD00009D9002E00F0EB800027C6E900013846D5
:108BE0003946BDE8F087B3FA83F7002F47D18B42AF
:108BF00002D3824200F2FA80841A61EB030301205F
:108C00009846002EE0D0C6E90048DDE702B9FFDE55
:108C1000B2FA82F2002A40F08F80491B4FEA154ECB
:108C20001FFA85F80127B1FBFEFC230C0EFB1C117B
:108C300043EA014308FB0CF1994207D9EB180CF108
:108C4000FF3002D2994200F2CD808446591AA3B275
:108C5000B1FBFEF00EFB101443EA044408FB00F8DD
:108C6000A04507D92C1900F1FF3302D2A04500F22C
:108C7000B6801846A4EB080440EA0C409FE7C7F111
:108C8000200CBB4022FA0CFE4EEA030E01FA07F458
:108C900020FA0CF521FA0CF34FEA1E482543B3FBEA
:108CA000F8F92C0C08FB19331FFA8EFA44EA034337
:108CB00009FB0AF49C4202FA07F200FA07F10BD909
:108CC0001EEB030309F1FF3080F087809C4240F2E5
:108CD0008480A9F1020973441B1BADB2B3FBF8F009
:108CE00008FB103345EA034400FB0AFAA24508D901
:108CF0001EEB040400F1FF336BD2A24569D90238A0
:108D0000744440EA0940A0FB0289A4EB0A044C45E4
:108D1000C2464B4654D351D0002E69D0B1EB0A0560
:108D200064EB030404FA0CFCFD40FC404CEA05052E
:108D3000C6E90054002747E7C2F1200320FA03F7F1
:108D4000954001FA02F021FA03F34FEA154E384339
:108D5000010CB3FBFEF71FFA85F80EFB173341EA4F
:108D6000034107FB08F38B4204FA02F407D96918A0
:108D700007F1FF3C2FD28B422DD9023F2944CB1A59
:108D800081B2B3FBFEF00EFB103341EA034100FB5E
:108D900008F38B4207D9691800F1FF3C17D28B42C8
:108DA00015D902382944C91A40EA07473BE7374634
:108DB000304609E70746E7E61846FBE64145ABD2F1
:108DC000B8EB020A69EB0E0201381346A4E76046CD
:108DD000E9E7184695E76746D1E781467CE7023820
:108DE0002C4447E7ACF1020C2B442FE7384608E748
:108DF0003746E9E6704700BF044B002204200121FA
:108E00009871D9711A805A711A7170470400002044
:108E1000314A937A062B55D8DFE803F040542C549E
:108E200018540400137B03F0C002402A4CD003F016
:108E30003302112A4AD003F00302012A48D003F07A
:108E40003003102B14BF062002207047137B03F061
:108E50003002102A38D003F0CC02442A36D003F076
:108E60000C02042A36D003F0C003402B14BF0620A6
:108E700003207047137B03F00C02042A24D003F074
:108E80003302112A22D003F00302012A22D003F078
:108E90003003102B14BF062003207047137B03F010
:108EA0000302012A10D003F0CC02442A0ED003F0B2
:108EB0000C02042A0CD003F0C003402B14BF062080
:108EC0000220704706207047082070470120704735
:108ED00003207047022070472082002030B40A48E7
:108EE0000A4D0B4C0B490C4A0023AB602360036016
:108EF0000B60D2ED027AF5EE407AF1EE10FAF4D181
:108F0000642030BC05F032BC9489002084890020A4
:108F1000307F0020387F0020C08900200000000042
:108F2000F3EE0E6A60EE266A9FED996ADFED997A9C
:108F3000994B86EE867A10B5002460EEA77A77EE1C
:108F4000076A67EEA07A2DED048B17EE100A1C60FD
:108F5000F0EE608A87EEA68AB0EE409AFFF72CFA10
:108F600087A3D3E90023FFF77FFA00228B4BFFF79B
:108F7000A5FBFFF771FDF5EEC08AF1EE10FA06EEE3
:108F8000900A40F3F280864B864AD3ED007A8649F8
:108F900076EEA77AC3ED007A93ED007AD2ED007AEF
:108FA000B4EEE77AF1EE10FA0ADD81ED008A93ED76
:108FB000007AD2ED007AB4EEE77AF1EE10FAF4DC42
:108FC000D3ED007A76EEA77AC3ED007A93ED007ABE
:108FD000D2ED007AB4EEE77AF1EE10FA0ADD002065
:108FE000086093ED007AD2ED007AB4EEE77AF1EE04
:108FF00010FAF5DCD3ED007A6C4876EEA76AB1EE94
:10900000488AC3ED006A08E081ED008AD0ED007A5D
:10901000F5EEC07AF1EE10FA08D993ED007AD2EDB0
:10902000007AB4EEE77AF1EE10FAEDDC00230B6083
:10903000FFF754FFDFED5E7AC9EE277A17EE900A4C
:10904000FFF7BAF950A3D3E90023FFF70DFAFFF7B2
:10905000BBFCF5EEC08AF1EE10FA024675D4554B12
:1090600000EBD0701A68401002441A605A68BDECD8
:10907000048B101A58609A689A6010BD484B494A90
:10908000D3ED007A484977EEE67AC3ED007A93EDA6
:10909000007AD2ED007AB4EEE77AF1EE10FA0CD550
:1090A000B1EE486A81ED006A93ED007AD2ED007A64
:1090B000B4EEE77AF1EE10FAF4D4D3ED007A77EE5D
:1090C000E67AC3ED007A93ED007AD2ED007AB4EE41
:1090D000E77AF1EE10FA0AD50020086093ED007AE5
:1090E000D2ED007AB4EEE77AF1EE10FAF5D4D3EDD2
:1090F000007A2E4877EEE66AC3ED006A08E081ED5B
:10910000008AD0ED007AF5EEC07AF1EE10FA08DAB6
:1091100093ED007AD2ED007AB4EEE77AF1EE10FA30
:10912000EDD400230B60FFF7D9FEDFED217AC9EE05
:10913000277A17EE900AFFF73FF913A3D3E900232C
:10914000FFF792F9FFF740FC02461A4B196802EB51
:10915000D272A1EB620119605868BDEC048B00EB80
:1091600062025A609A689A6010BD87D40E4B1C60E8
:10917000FFF7B4FEBDEC048B0E4B9A689A6010BDED
:10918000182D4454FB210940496632CBD615FA40CC
:109190000000B4426F12833D948900200080664035
:1091A000447F0020347F0020387F0020407F002053
:1091B0000000B443E88900202DE9F0477C4CDFF83B
:1091C00018827C4AD8F8003023686068D2ED007AB3
:1091D0002168DFF808A2784D784F034407EE103A73
:1091E0002DED068BD2ED01AAD2ED028A92ED04AAF2
:1091F000D2ED059A92ED069A6268714BB8EEC77A85
:10920000114437EE277A07EE901AF8EEE77A6D4AA6
:109210001E680221B4EEE77A9171F1EE10FA4FF078
:109220000002CAF8002015DD674A00212960396074
:10923000966023686068034407EE903AF8EEE77A98
:10924000F4EEC77AF1EE10FAF0D4DFF89491C9F891
:10925000001001E0DFF88891D8F80030032004F016
:1092600083FB5A4B93ED007AD3ED007A7AEE076ACE
:109270000A22F4EEE76AF1EE10FACAF800200ADDDD
:10928000514AC7ED008A9660D3ED007AF4EEE67A93
:10929000F1EE10FAF5D400223A6079EE876AD8F838
:1092A0000010D3ED007AC9F80020F4EEE76AF1EE81
:1092B00010FA0ADD444A296829609660D3ED007AE5
:1092C000F4EEE67AF1EE10FAF5D4D8F80020D3EDFA
:1092D000007A39EE077AB4EEE77AF1EE10FA1DDD86
:1092E000F1EE688AC7ED008AD5ED007AF5EEC07A16
:1092F000F1EE10FA53D4344A08E0C7ED008AD5EDF8
:10930000007AF5EEC07AF1EE10FA48D49660D3ED0B
:10931000007AF4EEC77AF1EE10FAEED400223A6049
:109320002A6023686168DFF8A080DFF8B8900B44FA
:1093300008EE103AB8EEC88A174638EE2A8A05E0D9
:109340002F60C8F80860D9F8003013B3236862684A
:10935000134407EE903AF8EEE77AF4EEC87AF1EEAD
:1093600010FAEDD41A4D2868FFF726F80EA3D3E9BA
:109370000023FEF7C3FEFFF76FFB164A2860BDEC23
:10938000068BA368906891681B1A0B449360BDE834
:10939000F08703F02FFD0123C9F80030D6E7002342
:1093A0002B60BBE7AFF30080182D4454FB21F93F3D
:1093B000B4890020CC89002094890020387F0020C7
:1093C000A88A00200400002084890020347F002027
:1093D000447F0020E8890020407F00207889002019
:1093E0003C7F0020248C00202DE9F843704C714A0A
:1093F0002368666821686568D2ED007AD2ED025A6A
:109400006D48DFF8D8C192ED014A92ED046AD2EDC1
:10941000056AD2ED063A334407EE103AB8EEC77A41
:10942000294437EE277A07EE901AF8EEE74A634BA5
:10943000634D1E68B4EEE47A02210022F1EE10FAC8
:109440002DED028BB1EE655A8171CCF800205D499B
:1094500010DD5D4A00202860086096602368676818
:109460003B4407EE903AF8EEE77AF4EEC77AF1EE75
:1094700010FAF0D4554BD3ED007A93ED007A37EE25
:10948000C66A0A22B4EEC76AF1EE10FACCF80020E0
:109490000AD54D4A81ED005A966093ED007AB4EEFC
:1094A000C67AF1EE10FAF5DC00220A6077EEE66A81
:1094B00093ED007A4648F4EEC76AF1EE10FA0260C6
:1094C0000AD5414A28682860966093ED007AB4EE88
:1094D000E67AF1EE10FAF5DC77EEE37A93ED007AB6
:1094E000F4EEC77AF1EE10FA1BD5C1ED005A95EDF6
:1094F000007AB5EEC07AF1EE10FA52DC324A08E09A
:10950000C1ED005A95ED007AB5EEC07AF1EE10FA91
:1095100047DC966093ED007AB4EEE77AF1EE10FA4C
:10952000EEDC00270F602F6023686268DFF8988008
:10953000DFF8AC90134408EE103AB8EEC88A38EE63
:10954000048A05E02F60C8F80860D9F8003013B32A
:1095500023686268134407EE903AF8EEE77AB4EEB7
:10956000E78AF1EE10FAEDDC1A4D2868FEF724FFC9
:109570000DA3D3E90023FEF7BFFDFFF76DFA164AEE
:109580002860BDEC028BA368906891681B1A0B449D
:109590009360BDE8F88303F02DFC0123C9F8003087
:1095A000D6E700232B60BCE7182D4454FB21F93F7C
:1095B000B4890020CC89002004000020A88A002063
:1095C00094890020387F002084890020347F002087
:1095D0003C7F0020447F0020E8890020788900201B
:1095E000248C002000000000394ADFED3A7A2DE992
:1095F000F84F0021384B116093ED027ADFF8E8B0A4
:10960000364D374E70EEC70A30EE000A60EEA77A8C
:1096100010EE100A67EEA07A87EE807A8BED007A62
:10962000FEF7CAFE26A3D3E90023FFF747F8FFF7AA
:10963000CBF9044620E0FEF7ADFE23A3D3E90023D7
:10964000FEF712FFD5F808A0B76880465046894655
:10965000FEF7A0FE02460B4640464946FEF74EFD89
:10966000804638468946FEF795FE02460B46404640
:109670004946FFF76BF9B0B9AB68B268234493422F
:109680002046D8DC0023CBF80030AB682344AB6025
:109690002B6804EBD474641023442B606B681C4467
:1096A0006C60BDE8F88F0F4B1B68002BE4D103F012
:1096B000A1FB0C4A01231360DEE700BFAFF300807B
:1096C0006626CA236892503F9A9999999999E93FD9
:1096D000948900206F12833AC0890020E889002015
:1096E000B4890020248C0020307F0020000000007E
:1096F0005B4BDFED5C7A93ED027A5B4B37EE607A81
:1097000030EE000A67EE277A2DE9F04F67EE877A90
:109710002DED028B87EE807A83B0544E544D4FF07E
:10972000000A10EE100AF1EE477AC3ED007AB0EEAF
:10973000608AFEF741FE46A3D3E90023FEF7BEFF91
:10974000FFF742F94B4BDFED4C8AD3F800B00446EB
:1097500034E04A4AAB6892682344934258DD484B50
:10976000D3ED027AF4EEC87AF1EE10FA56D9FEF78C
:1097700011FE39A3D3E90023AF680197FEF774FE09
:10978000804601983D4F8946FEF704FE02460B468F
:1097900040464946FEF7B2FCBF68804638468946D7
:1097A000FEF7F8FD02460B4640464946FFF7CEF865
:1097B00000281CBF4FF0010A4FF0000B96ED037A12
:1097C000D6ED007A77EE277A2046F4EEE87AF1EECD
:1097D00010FABED4BAF1000F2ED12A492A4A2848DD
:1097E00080ED028A2048002303600B601360AB68A1
:1097F0002344AB602B6804EBD474641023442B60C7
:109800006B681C446C6003B0BDEC028BBDE8F08F4C
:109810001C49BAF1000F13D11B4AE0E7BAF1000F5F
:1098200012D11748174980ED028A174A0E480023C3
:1098300003600B601360D2E70E4BC3F800B0CCE7B7
:109840000C4BC3F800B0E7E70A4BC3F800B0E8E7F9
:109850006626CA236892503FCDCCCCCCCCCCE43F1A
:10986000C08900206F12833A307F0020F4890020E5
:10987000E88900207889002000806D45B4890020A7
:109880008489002094890020387F00200000000097
:109890002DE9F04F2DED028B70EE007A8E4B0025F6
:1098A00083B004461D6017EE900AB0EE408AF0EED9
:1098B000608AFEF781FD82A3D3E90023FEF7FEFE56
:1098C000FFF782F8012C00F098800134834600F005
:1098D000A180FFF79DFA0346062808BF00237F4CAE
:1098E0007F4D0193A368AA685B449342584658DDB4
:1098F000FEF750FDA668814630468A46FEF74AFDCF
:1099000071A3D3E9002306460F4648465146FEF7A9
:10991000ABFD02460B4630463946FEF7EFFBD5F865
:109920000880064640460F46FEF734FD0B460246C9
:1099300039463046FFF70AF80023002859D0664A16
:109940001360A068D5F80880FEF724FD60A3D3E972
:10995000002306460F4648465146FEF785FD02465F
:109960000B4630463946FEF7C9FB064640460F46D1
:10997000FEF710FD02460B4630463946FEF7E6FF7D
:109980000028AFD0574B1B68002BABD103F032FA45
:10999000544A01231360A368AA685B449342584663
:1099A000A6DC514B00221A60A3684B4A5B44A360BB
:1099B00094ED007A07EE90BAB8EEC77AF8EEE77A3F
:1099C000F6EE006AA7EEA67A00231360BDEEC77A12
:1099D00084ED007A94ED017AB8EEC77AA7EEA67A04
:1099E000FDEEC77AC4ED017A03B0BDEC028BBDE891
:1099F000F08F394B019A1A60A3E73C4BF0EE680AEE
:109A0000B0EE480A1C7003B0BDEC028BBDE8F04F0D
:109A1000FFF7EABD354B314C1D70B6EE080AF0EE8B
:109A2000680A28EE000AFFF763FE07EE90BAF8EE28
:109A3000E78AB5EE008A28EE888A294D294E01274B
:109A400001E03368BBB3D4ED027A95ED027AF8EE0B
:109A5000E77AB8EEC77A77EE887AF4EEC77AF1EE55
:109A600010FAEEDCD4ED027A9FED217AF8EEE77A77
:109A700028EE877AF6EE006A77EE877AFDEEE77ACF
:109A8000C4ED027AD4ED007AF8EEE77AE7EE267AB2
:109A9000FDEEE77AC4ED007AD4ED017AF8EEE77ACC
:109AA000E7EE267AFDEEE77AC4ED017A03B0BDEC6D
:109AB000028BBDE8F08F03F09DF93760C3E700BF6C
:109AC0006626CA236892503F9A9999999999D93FE5
:109AD0009A9999999999E93F78890020E889002015
:109AE000B4890020248C0020307F0020A68A00202A
:109AF000CDCC4C3E53282AD0542827D110B5DFEDC9
:109B0000150A9FED150A154CFFF7F2FDFFF7E6F970
:109B100003F01CFFDFED120A9FED120A0A232360F7
:109B2000FFF7FEF9104A937A0233937203F000FFB5
:109B3000642004F01BFE0D4B9FED070AD3ED000AD5
:109B400000232360BDE81040FFF74EBD7047FFF7CC
:109B500033BB00BF000000000000344278890020C1
:109B6000DB0FC9400000B44220820020A88A0020F8
:109B700053282DD054282AD110B5DFED160A9FEDB9
:109B8000160A164CFFF7B4FDFFF7A8F903F0DEFE46
:109B9000DFED130A9FED130A0A232360FFF7C0F9D4
:109BA000114A937A023B937203F0C2FE642004F0E0
:109BB000DDFD642004F0DAFD0C4B9FED070AD3EDC8
:109BC000000A00232360BDE81040FFF70DBD704779
:109BD000FFF70ABC00000000000034427889002032
:109BE000DB0FC9C00000B44220820020A88A0020F8
:109BF00070B52DED048B9FED198A9FED199ADFED5D
:109C0000198A194CDFED190A194DB0EE480AFFF711
:109C10006FFD0226FFF762F90A23F0EE490AB0EE63
:109C2000680A2B602671FFF77BF9F0EE490AB0EE67
:109C3000680A2671FFF774F904230022C8202371F3
:109C40002A6004F093FDB0EE480ABDEC048B094B8A
:109C5000BDE87040D3ED000AFFF7C6BC00003442F7
:109C6000DB0FC9400000B4420400002000000000E7
:109C700078890020A88A002070B5534C5348616A47
:109C8000534ADFED547A544D544E47F22F53591A2C
:109C900001606362546A53621B1B07EE103A06EEC2
:109CA000901AB8EEC77AF8EEE66A27EE277A66EEE3
:109CB000A76AB6EE006AC5ED006A85ED017AD5EDBA
:109CC000007A95ED017A464A436077EE877A454CF3
:109CD00067EE867AC5ED027A10680144116051681A
:109CE00041480B445360136851680B443F499360EB
:109CF00003F0F2FC2068336883424AD13C4A20607A
:109D00002C2303FB002301229A6200284CD0394BFC
:109D1000394C3A4ADFED3A6A92ED007AD4ED027A94
:109D2000384A394E77EE877AB6EE006AC4ED027A89
:109D300092ED007AD3ED007A77EE877A0420C3EDB6
:109D4000007AD4ED027A93ED007A26EEC77AE7EE38
:109D5000067AC4ED017A93ED007AD4ED017AE7EE4C
:109D6000267AC4ED007A94ED000AD5ED000A04F0DD
:109D70003BFB94ED010A3060D5ED010A052004F0AB
:109D800033FB224B014630681960BDE8704003F098
:109D9000DFBE04F01BFB164A236830682C2101FB50
:109DA000032300219962AAE7104B194A92ED000A99
:109DB000D3ED000A04F018FB07EE900A0D4BF8EE05
:109DC000E77AC3ED007AA3E700040040708B00201F
:109DD00000080040CD77813FC089002078890020AD
:109DE000B4890020287F0020407F0020347F00209D
:109DF000308000209489002084890020307F00205A
:109E00009A990942387F0020AC8A0020C88A002035
:109E1000447F0020000000002DE9F843DFF8F4C182
:109E20006949DCF824606948DFED696A694D6A4A6E
:109E30006A4F6B4C47F22F539E1B2DED028B0E6029
:109E4000CCF82430D0F824C04362A3EB0C0307EE17
:109E5000903A07EE106AF8EEE77AB8EEC77A67EE46
:109E6000A67A27EE267AF6EE008A85ED007AC5ED11
:109E7000017AD5ED007A95ED017A4B6077EE877A1D
:109E8000382167EEA87A3720C5ED027AD2F800C0F3
:109E9000664416605668334453601368566833440A
:109EA000936003F0ADFB4F4B4F4A83ED000A93EDF7
:109EB000008A92ED007A4D4B3868D3ED007A4C4E13
:109EC00038EE478A28EE278AFEF776FA3AA3D3E9D6
:109ED0000023FEF7C9FA804618EE100A8946FEF7FD
:109EE0006BFA37A3D3E90023FEF7BEFA02460B460E
:109EF00040464946FEF702F9FEF7AEFD3D4B3E49AE
:109F0000DFED3E7A3E4A96ED006ADFF80CC1DFEDE8
:109F10003D6A87ED008A80F000401860D3ED005A5A
:109F200091ED007A384B394EA5EEA77A042081EDE9
:109F3000007AD2ED007A77EE867AC2ED007A9CED57
:109F4000007AD4ED027A77EE877AC4ED027A92ED48
:109F5000007AD3ED007A77EE877AC3ED007AD4EDFC
:109F6000027A93ED007A26EEC77AE7EE287AC4EDFE
:109F7000017A93ED007AD4ED017AE7EE267AC4ED0A
:109F8000007A94ED000AD5ED000A04F02DFA94ED64
:109F9000010A3060D5ED010A052004F025FABDEC78
:109FA000028B1B4B014619603068BDE8F84303F093
:109FB000CFBD00BFAFF30080AE47E17A14AEEF3FF4
:109FC0007B14AE47E17A843F708B0020000800408C
:109FD000CD77813FC0890020B48900202C7F0020EC
:109FE00084890020E07F0020EC7F00200C8E010897
:109FF0003C7F0020407F0020347F00206F12833A96
:10A00000387F00209A99094294890020AC8A002068
:10A01000C88A002000040040307F0020284B98426E
:10A0200070B5044603D0274B9C4212D070BD264B1E
:10A030001B68062B30D0072B2BD0052BF3D1234DDB
:10A040002A6841F287339A4229DD214B00221A60A7
:10A05000E9E7204E204C3168204D00220A2003F011
:10A06000E7FD716884ED000A01220A2003F0E0FD9B
:10A07000296884ED010A02220A2003F0D9FD6968EB
:10A0800084ED020A03220A2003F0D2FD84ED030AC4
:10A0900070BDFFF7C1FEC6E7FFF7EEFDC3E7104E48
:10A0A0001048314603F018FB094B29680E4A1B681B
:10A0B000306802EB81020B4410602B60B3E700BFF5
:10A0C000708E0020288C0020708900207C89002060
:10A0D0006C890020CC7F0020F4890020D87F0020EC
:10A0E000347F0020407F0020280200201B4B2DE9F8
:10A0F000F047D3F80090DFF868A0C9EBC9784FEAC1
:10A1000048084C46002707EB0805554404F128068B
:10A1100015F814102046043403F06CF9B442F7D15A
:10A120005037B7F5347FA8F15008ECD10C4F09F542
:10A13000B47409F5347904F124063D4695F8D0123B
:10A140002046043403F056F9A64205F10805F5D17E
:10A150004E4507F14807EED1BDE8F087048E0108AF
:10A16000CC830020204970B40025AA24002305EBED
:10A17000C500C2180133092B01F81240F9D101358D
:10A18000092DF3D10023012203EBC30001EB4005AD
:10A1900003F148042E7C62F301062E7411F814506A
:10A1A00062F3830501F8145011F8104062F30514AE
:10A1B00001F8104011F8130062F3871001F8130042
:10A1C0000133092BE0D10B788C7C887862F3830310
:10A1D00062F387146FF301036FF305108C740B7037
:10A1E000887070BC704700BF7C8B00202DE9F04F59
:10A1F000214BDFF888B0D3F800A04FF00008CAEB7D
:10A20000CA7983B04FEA49095446474608EB090525
:10A210005D4404F12806204601A9019703F012F9D4
:10A22000019B05F814300434B442F4D108F150080D
:10A23000B8F5347FA9F15009E8D1DFF840800AF57C
:10A24000B47400270AF5347A04F124064546204602
:10A2500001A90434019703F0F5F8019B85F8D03289
:10A26000A64205F10805F2D1564508F14808EBD1A0
:10A2700003B0BDE8F08F00BF048E0108CC8300203E
:10A280002DE9F04F85B0064603905248DFF854910F
:10A29000514DDFF854810C460BF022F83346403321
:10A2A000019301230093092748460AF091FF019B7F
:10A2B0004FF0000B03F1080610E023785B4502D154
:10A2C0006378BB4218D00AF083FFBBF1080F484601
:10A2D0001AD00AF07DFF0BF1010B50367288ABF1FA
:10A2E0000703DBB211462846002AE6D1012BE4D849
:10A2F000FB1FDBB2022BE0D8114638480AF068FF9A
:10A30000BBF1080F4846E4D17B1E1E463448029339
:10A310000AF0E6FF3346F6B2F61AF600DDF804A0BE
:10A320004FF0000B0DE0BAF8D2120AF051FFBBF16A
:10A33000090F404622D00AF04BFF0BF1010B0AF146
:10A34000480A0AEB0601ABF10703B1F8D212DBB2FF
:10A35000284621B9022B02D8009B012B05D923786E
:10A360005B45E0D16378BB42DDD1BAF8D2121B481D
:10A370000AF02EFFBBF1090F4046DCD118480AF065
:10A38000AFFF009B029F03F1FF3A019B083B019343
:10A390005FFA8AF30093002F86D112480E4E0746CB
:10A3A0000AF016FF039B304659881C460AF010FF3E
:10A3B00004F5207538460AF00BFF503461883046AA
:10A3C0000AF006FFAC42F5D1054805B0BDE8F04FF4
:10A3D0000AF086BFB48B0108E88B0108D48B010812
:10A3E000408F0108CC8B0108F08B010810B40346A4
:10A3F00000F5347440F6FF7103F1500259800833C0
:10A400009342FBD1A342F7D140F6FF7100F148021D
:10A41000A0F8D21208308242FAD19A42F6D15DF801
:10A42000044B7047F0B5002704468446394602269F
:10A43000FDB263460122DA730132092A1E721973D2
:10A4400059739D7303F10803F5D10137092F0CF1FE
:10A45000500CEDD14FF0010C674600F1480E02267A
:10A4600000255FFA8CF17346002283F8D72201326F
:10A47000092A83F8D06283F8D45283F8D57283F81E
:10A48000D61203F10803F0D10CF1010CBCF1090F55
:10A490000EF1480EE5D10022164603460121D5B241
:10A4A0000132092A197083F84810197183F84C1089
:10A4B0005E7183F84D6083F807C083F84FC09D71CB
:10A4C00083F84E5003F15003E9D100210123CDB2AE
:10A4D0000131092984F8D03284F8583584F8D4320F
:10A4E00084F85C3584F8D53284F85D3584F8D6225A
:10A4F00084F85E2584F8D75284F85F5504F1080487
:10A50000E5D1002280F8183380F81C330272027300
:10A51000F0BD00BF2DE9F84F804605461A481B4F95
:10A520001B4EDFF870A008F1480805F534790AF0F1
:10A53000D7FE012415F83410384601340AF048FEDD
:10A540000A2CF7D198F8D01230460AF041FE08F1F3
:10A55000400B44462C200AF053FE083494F8D012E5
:10A5600030460AF035FE5C45F4D108F14808504603
:10A570000AF0B6FEC84505F15005DAD10548BDE838
:10A58000F84F0AF0ADBE00BF948B01088C8B010818
:10A59000908B0108408F01082DE9F04F044683B0ED
:10A5A0002248234E0AF09CFE4FF0090804F14803AC
:10A5B0004FF00809A3F10802A9EB080401929246A2
:10A5C000E40003F5207503F534779B4603E00AF0B9
:10A5D00017FE5F451BD09AF8D4129AF81CE39BF83B
:10A5E00004000BEB040CC90001EB4E019CF804C005
:10A5F000014401EB8C01C9B230460AF0E9FD5D452A
:10A600004FF02C000BF1500B0AF1480ADFD109483A
:10A610000AF066FEB8F1010809F1FF39019BC9D1C2
:10A62000044803B0BDE8F04F0AF05ABEF88B0108A9
:10A63000908B0108408F0108F0B594005F1CA518AD
:10A6400007EB4505A61810F835C0BCF1020F08BF8E
:10A6500091F804C002F1010507EB460605EBC505BC
:10A6600008BF0CF0030C1D4400F836C000EBC50514
:10A6700004EB020C95F8D062022E08BF0E7903EBB2
:10A680004C0C08BFC6F3810685F8D06210F83CC0B8
:10A69000BCF1020F08BF91F804C004EB020E03EBFB
:10A6A0004E0E4FF0090608BFCCF3011C16FB023614
:10A6B00000F83EC000EBC606144496F8D0C2BCF1C8
:10A6C000020F08BF91F804C04FEA440404EB0702EC
:10A6D00008BF4FEA9C1C86F8D0C210F83210A1F1D6
:10A6E000010100EBC202B1FA81F14909117195F83B
:10A6F000D022A2F10102B2FA82F22344520985F873
:10A70000D42210F83320A2F1010200EBC303B2FA05
:10A7100082F252091A7196F8D032A3F10103B3FA0A
:10A7200083F35B0986F8D432F0BD00BF2DE9F04316
:10A730009DF81C80002B44D04C1C04EBC4040A255B
:10A74000A71815FB012200EBC70700EBC20C4FF066
:10A7500008094FF0000E40F6FF74B8F1000F28D042
:10A76000A7F1480019FB087639466246157A012D93
:10A7700014BF00252546558191F8D052012D14BFF4
:10A7800000252546A1F8D2521578012D14BF0025C9
:10A790002546558090F8D0520831012D14BF002570
:10A7A0002546B142A0F8D25202F1080200F1080099
:10A7B000DCD10EF1010E9E450CF1500C07F148075B
:10A7C000CBD1BDE8F08300BF2DE9F04F85B08046C6
:10A7D0009DF838E00F9C00F5347C40F6FF7700F1DF
:10A7E000500547800830A842FBD16045F7D1464666
:10A7F00040F6FF7C06F14805A6F8D2C20836AE4204
:10A80000FAD18642F6D1CDF800E04046FFF78EFF40
:10A81000454608F15002039208F1480E40F6FF72D7
:10A82000AC464FF0000847466146E246C14601F19A
:10A8300048084546534601205E89964255D008286F
:10A8400010D093F810B01BEA040F09D1B3F812B07E
:10A85000934505D106F10709A3F812904FF00109BD
:10A8600001280CD093F800B01BEA040F07D1B3F80D
:10A8700002B0934503D107365E804FF00109082FDF
:10A8800017D095F8D862264209D1B5F8DA62964217
:10A8900005D15E890536A5F8DA624FF0010995F811
:10A8A000D062264204D1B5F8D262964200F092807E
:10A8B000DFB191F8D862264209D1B1F8DA62964246
:10A8C00005D15E890536A1F8DA624FF0010991F8E9
:10A8D000D062264209D1B1F8D262964205D15E8992
:10A8E0000536A1F8D2624FF001090130092803F1C1
:10A8F000080301F1080105F108059DD10137092F71
:10A900000AF1500A414692D1DDF80CA04F4671463B
:10A910004FF0010801F148094D4653460020B1F8B7
:10A92000D26296424FD0B8F1080F0FD095F8D0B24E
:10A930001BEA040F07D1B5F8D2B2934503D107360D
:10A94000A5F8D2620127B8F1010F0DD091F8886205
:10A95000264209D1B1F88A62964205D1B1F8D26295
:10A960000736A1F88A620127082813D01E7A2642EA
:10A9700007D15E89964204D1B1F8D26205365E8174
:10A98000012713F8486C264203D133F8466C9642EF
:10A9900027D0D0B11E78264207D15E88964204D1D6
:10A9A000B1F8D26205365E80012713F8506C26425A
:10A9B00009D133F84E6C964205D1B1F8D262053612
:10A9C00023F84E6C0127082812D0013008310833D3
:10A9D0000835A4E75E890536A5F8D2624FF0010973
:10A9E00066E7B1F8D262053623F8466C0127D0E756
:10A9F00008F10108B8F1090F0AF1500A494689D156
:10AA0000002F7FF40EAF05B0BDE8F08F2DE9F04FB9
:10AA100092F805C057889179D47983B0BCF1000FC2
:10AA20007FD18E00072C04F1FF3E019600F2BD801D
:10AA300006EB010804F1010909EB480810F838A0F9
:10AA40001AEA030F15D1DFF8ACA200EBC808DAF858
:10AA50000060B8F8028006F1010BB845CAF800B0F2
:10AA600007D20A2515FB0195474600EBC5054FF0B7
:10AA7000010C012C00F2998007292FD84E1C06EBFF
:10AA8000C60606EB040800EBC80898F8D09219EA4D
:10AA9000030F0BD1B8F8D282B84507D204F15A059A
:10AAA0003544474600EBC5054FF0010C0EEB060898
:10AAB00000EBC80898F8D09219EA030F40F0E8803C
:10AAC000B8F8D282B84580F0E3800EF15A053544DB
:10AAD00000EBC50509B347464FF0010C01EBC1017E
:10AAE000661801EB0E0800EBC60600EBC80896F8E6
:10AAF000D09298F8D0A219EA030F0AEA030A00F0EC
:10AB0000DA80BAF1000F04D1B8F8D232BB42C0F0FB
:10AB1000E480BCF1000F08BF1546284603B0BDE82D
:10AB2000F08F072901F1FF3E58D94FF000080EEBD6
:10AB3000CE0A0AEB040600EBC60696F8D09219EA94
:10AB4000030F00F093808E00072C01965ED94FEA28
:10AB50008E09019E0E4409EB0E0C04EB460604EB35
:10AB60004C0C10F836B010F83CA01BEA030F0AEAB0
:10AB7000030A40F0918000EBC6067388BB4280F068
:10AB80008B800A2515FB014100EBC105BAF1000FCE
:10AB9000C3D100EBCC0CBCF802209A42BDD2CE440B
:10ABA00004EB4E0400EBC405B7E7019E0E440EEB28
:10ABB000460610F8368018EA030F7FF45DAF00EB0D
:10ABC000C6067688BE42BFF457AF0A2515FB01E5DD
:10ABD000374600EBC5054FF0010C4DE74E1C06EB68
:10ABE000C60904EB090600EBC60696F8D08218EAFF
:10ABF000030878D1B6F8D2A2BA4576D204F15A0544
:10AC00004D44574600EBC505E0466EE006EB0109F2
:10AC100004F1010A0AEB490910F839B01BEA030FE5
:10AC20000CD100EBC909B9F80290B94506D20A2542
:10AC300015FB01A54F4600EBC505E0464FEA8E091E
:10AC400009EB0E0B0AEB4B0A10F83AB01BEA030FA4
:10AC500019D100EBCA0ABAF802B0BB4513D2554667
:10AC6000002C3FF45AAFE0465F4672E7B6F8D26276
:10AC7000BE42BFF468AF04F15A055544374600EBB5
:10AC8000C505E0465FE7002C7FF463AFC44640E7AC
:10AC900000293FF43EAF21E7BAF1000FF6D109EBEE
:10ACA0000E0304EB430300EBC3035B88BB42FFF4DA
:10ACB00076AFC4462DE7B6F8D232BB42BFF421AF1F
:10ACC0005A340C4400EBC405BAF1000F7FF425AFF1
:10ACD000B8F8D2229A42BFF420AF0EF15A040C44C5
:10ACE00000EBC40519E74FF0000801297FF62BAFF0
:10ACF0001DE700BF000000205379F0B45488A3BBC7
:10AD0000002900F0908004292CD1D1799279012971
:10AD100001F1FF350ED902EB820105EB410110F87C
:10AD20003160022E1ED02EB900EBC1014988A1422C
:10AD3000C0F0BC801E46072A00F28480511C01EB43
:10AD4000C101294400EBC10191F8D072022F09D052
:10AD50002FB9B1F8D212A1423CBF3E460C46002AA0
:10AD600070D133461846F0BC704702293AD0062904
:10AD700055D19179D279012901F1FF350BD905EB34
:10AD8000C501114400EBC10191F8D062022E46D0FA
:10AD9000002E00F084800023072A4FEA850111D895
:10ADA0004F19561C06EB470610F83670022F36D0A6
:10ADB00037B900EBC6067688A6423CBF34463B4610
:10ADC000002ACFD00D4402EB450210F832100229C0
:10ADD00025D00029C6D100EBC2004288A24238BF6C
:10ADE0000023BFE79579D179072D0BD86A1C02EBB8
:10ADF000C2020A4400EBC20292F8D062022E0ED0C8
:10AE0000002E56D0002307294FEA850236D857195D
:10AE10004E1C06EB470610F83670022F23D1002394
:10AE20001846F0BC7047D5799279072D82D802EB8D
:10AE30008206691C01EB460110F83160022E7FF496
:10AE400072AF8FE7092111FB025200EBC20090F8AC
:10AE5000D022022A86D0002A83D1B0F8D222A24280
:10AE600028BF33467EE737B900EBC6067688A64290
:10AE70003CBF34463B4600293FF474AF154401EB18
:10AE8000450110F83120022AC9D0002A7FF46AAFA8
:10AE900000EBC1014A88A24238BF002362E7B1F843
:10AEA000D212A142BFF477AF0C4675E70C460126DB
:10AEB00041E7B2F8D222A242A4D21446A3E700BFCF
:10AEC000F0B4837884689679A579D779E47903F02A
:10AED0000703062B1ED8DFE803F0041D4E1D341DAA
:10AEE00020005379002B59D06B1CB34200F0C38073
:10AEF000B5420FD1BC4200F01981013CBC4209D1DE
:10AF000006238B700378013B0B7043780322013BCF
:10AF10004B70CA700846F0BC704753796A1E002B0C
:10AF20005BD0B24200F08F800135AE42F2D1BC421C
:10AF3000F0D102238B700378042202330B70CA70A5
:10AF4000E8E75379002B39D0B54200F0A3800135F2
:10AF5000AE42DFD1631EBB4200F0E080BC42D9D1DB
:10AF600002238B70037801330B7043780322013383
:10AF70004B70CA70CEE75379002B42D06B1CB342A2
:10AF800056D0013DAE42C5D1BC42C3D106238B7021
:10AF900003780422023B0B70CA70BBE7B542B9D1FB
:10AFA000621CBA4200F09680013CA742B2D1042252
:10AFB0008A704378CA70023B4B70ABE7B542A9D1A7
:10AFC000621EBA427FD00134A742A3D18B7043786E
:10AFD000042202334B70CA709CE7B24265D0B5427E
:10AFE00098D1BC4200F0AD800134BC4292D18B704C
:10AFF000037801330B704378052201334B70CA701C
:10B0000088E7B5422AD0013DB54283D1621CBA42DD
:10B0100000F09380BC427FF47DAF04238B700378F3
:10B02000013B0B7043780522013B4B70CA7071E7FE
:10B03000BC427FF46FAF02238B7003780022013390
:10B040000B70CA7066E7BC427FF464AF06238B7056
:10B0500003780022013B0B70CA705BE7BC424DD005
:10B060000134BC427FF456AF8B7043780622013323
:10B070004B70CA704EE7BC4232D0B54204F1FF3487
:10B080003FF43CAFBC427FF445AF02238B700378A2
:10B090000133C6E7631EBB4238D0BC427FF43AAFEF
:10B0A00006238B700378013BA4E7621CBA421ED0D2
:10B0B000BC427FF42FAF04238B7043780622013B00
:10B0C0004B70CA7026E704228A704278CB70531EF8
:10B0D0004B701FE78B704278CB70531C4B7019E795
:10B0E00002228A700378CA7001330B7012E78B70EA
:10B0F0004378022201334B70CA700BE704238B7034
:10B1000043780222013B4B70CA7003E706238B7021
:10B1100003780222013B0B70CA70FBE602238B709E
:10B120000378062201330B70CA70F3E606228A7098
:10B130000378CA70013B0B70ECE68B700378013B1F
:10B1400012E704238B7003780133DDE630B401F19C
:10B150000802012354254A240161C2610721082203
:10B160004375002305730476017041708270C270CC
:10B170000372437283720375837530BC704700BFDE
:10B1800010B4017D847D427DC36984720172427274
:10B1900003615DF8044B704738B50021042003F0CB
:10B1A0000DF90021052003F009F90021022003F028
:10B1B00005F90021032003F001F90021012003F02B
:10B1C000FDF80021084603F0F9F802F083FE02F0D2
:10B1D00035FB334C334D0146204609F0F9FF02F0B0
:10B1E0002DFB0146204609F0F3FF642003F0BEFA70
:10B1F0003821372002F004FA2B4B2C4C83ED000A47
:10B200001868FDF7D9F802460B46294809F0E0FF17
:10B2100002F068FC02F07CFB02F08AFB02F06AF8A4
:10B2200047F22F51234802F0F5FC47F22F512248F4
:10B2300002F0F0FC214806F080F9214806F07DF983
:10B240002049214A21480023A3600B6000242049A3
:10B250002B60036014601F4B546094608868986092
:10B2600049685960D3ED027A93ED017A1A4A77EE74
:10B27000C77A0420C2ED007A03F0A8F8052003F095
:10B28000A5F8204603F0A2F8022003F09FF803205F
:10B2900003F09CF80120BDE8384003F097B800BFE8
:10B2A0005C8D0108307F0020E07F00208489002031
:10B2B000788D01082404004024080040708E00208E
:10B2C000288C002094890020B4890020387F002039
:10B2D000F4890020B48A0020A889002038B502F043
:10B2E00001FC02F015FB02F023FB02F003F802F070
:10B2F000A5FA3D4C3D4D0146204609F069FF02F09C
:10B300009DFA0146204609F063FF642003F02EFAFF
:10B310003821372002F074F9354B364C83ED000AA2
:10B320001868FDF749F802460B46334809F050FF0C
:10B330000021042003F042F80021052003F03EF82C
:10B340000021022003F03AF80021032003F036F830
:10B350000021012003F032F80021084603F02EF806
:10B3600002F0B8FD47F22F51244802F053FC47F297
:10B370002F51234802F04EFC224806F0DEF8224806
:10B3800006F0DBF80023214A21482249A36000246B
:10B390002B6003600B6014605460946002F092FABA
:10B3A0001D4A1E4B9068986052685A60D3ED027A2D
:10B3B00093ED017A1A4977EEC77A0420C1ED007A3D
:10B3C00003F004F8052003F001F8204602F0FEFF28
:10B3D000022002F0FBFF032002F0F8FF0120BDE88D
:10B3E000384002F0F3BF00BF5C8D01089489002053
:10B3F000E07F002084890020788D0108240400402B
:10B4000024080040708E0020288C0020B489002081
:10B41000307F0020387F0020F4890020B48A00208B
:10B42000A8890020F8B52A4D2A4E0024FFF7B4FE63
:10B43000FDF7E2FCFEF796FE012104206C602C6013
:10B44000AC6002F0BBFF0121052002F0B7FFA96844
:10B4500021482A686B68214D09F0BAFE2146012077
:10B4600002F0ACFF2146022002F0A8FF2146032093
:10B4700002F0A4FF0121204602F0A0FF00270320D4
:10B48000376002F071FADFED160A164B9FED160ACF
:10B49000C6ED000A06221A602C71FEF7A5F8134BC0
:10B4A000D6ED000AD3ED007A9FED110A2C71FDEE66
:10B4B000E77A17EE900AFEF7EBF9FDF77DFE0D4BEC
:10B4C0002C719F604FF47A70BDE8F84003F04EB9DC
:10B4D000B4890020A88A0020A48C01080400002060
:10B4E0000000074370890020000077429089002007
:10B4F0000000B4428489002008B502F0EBFCBDE8EE
:10B50000084002F0C1BD00BF08B5164B06221A6004
:10B51000FFF742FEFDF770FCFEF724FE124B0025FC
:10B52000012104205D601D609D6002F047FF012144
:10B53000052002F043FF2946012002F03FFF294683
:10B54000022002F03BFF0121032002F037FF074BEE
:10B55000002401201C6002F007FA054A234693608C
:10B56000FDE700BF70890020B4890020A88A002070
:10B57000848900202DE98048284B9FED298ADFF837
:10B58000B0B0284CDFF8ACA0062287B01A60FFF7F5
:10B5900003FEFDF731FCFEF7E5FD234B00250121FD
:10B5A00004205D601D609D6002F008FF0121052000
:10B5B00002F004FF0121084602F000FF29460220A4
:10B5C00002F0FCFE0320294602F0F8FE174B022091
:10B5D00083ED008A02F0C8F98BED028A2068E568E5
:10B5E000D4F80880D4F80490FCF7E6FE06464846F6
:10B5F0000F46FCF7E1FECDE904014046FCF7DCFE16
:10B60000CDE902012846FCF7D7FE3246CDE900011C
:10B610003B46504609F0DCFDDEE700BF70890020A4
:10B6200000000000F4890020B4890020A88A0020CE
:10B63000848900202C8D010838B5344B2DED028B08
:10B6400007251D60FFF7A8FD3148DFED328A9FED29
:10B65000328A09F045FEFDF7CFFBFEF783FD2F4848
:10B6600009F03EFE2E4B0024012104205C601C608A
:10B670009C6002F0A3FE0121052002F09FFE2146FE
:10B68000012002F09BFE2146022002F097FE214697
:10B69000032002F093FE234B002228461A6002F09A
:10B6A00063F9214B9FED210A0122F0EE680A1A602E
:10B6B000FDF79AFF04240120F0EE680AB0EE480A74
:10B6C000FEF7E6F8013CF6D1DFED128A9FED128A13
:10B6D00004244FF0FF30F0EE680AB0EE480AFEF79F
:10B6E000D7F8013CF5D1DFED120A9FED120AFDF704
:10B6F000FFFF114809F0F4FD1049114801F05EFB0D
:10B70000104809F0EDFD01F075FBFEE7708900209F
:10B71000AC8D0108000070430000B442B08D0108F8
:10B72000B4890020A88A0020248C002000007642E2
:10B730000000000000003442B48D01082082002087
:10B74000CC830020D88D01082DE9F04F2DED028B20
:10B75000BD4BBE4E85B0062264201A6003F006F889
:10B7600004AA012502F8025D0221284602F000FF2A
:10B770009DF90E0002F090FE642002F0F7FF04AA8B
:10B78000042102F8015D284602F0F2FE9DF90F0047
:10B7900002F082FE002402F0C1FEFFF79FFDFDF7DC
:10B7A0002BFB2946042074603460B46002F006FE6E
:10B7B0002946052002F002FEB168A5483268736888
:10B7C00009F006FD2146284602F0F8FD2146022038
:10B7D00002F0F4FD2146032002F0F0FD2146204650
:10B7E00002F0ECFD9DF90E30AB4212D0022B994FC6
:10B7F00014BF4FF054094FF053099DF90F30013B2E
:10B80000032B00F27A81DFE813F06E01650110016D
:10B810000A00904F904B3B604FF05409EDE78F4C7E
:10B820008F4A904B3A609049904A21606260A360D1
:10B830002068DFF894828E4E9FED8E8A8E4DDFED6C
:10B840008F8AFCF7B9FD7EA3D3E90023FCF70CFE39
:10B85000FDF702F920606068FCF7AEFD78A3D3E93C
:10B860000023FCF701FEFDF7F7F8854B8549864A72
:10B8700060600420A3612161626102F075F8834A6F
:10B88000834884494FF0010B00241470C8F800B0BD
:10B89000D8F800203260804A80ED028A7F4881ED2E
:10B8A000008A7F4982ED008A7E4A80ED008A4FF04F
:10B8B000020A042082F800A081ED008A02F086FDD1
:10B8C000052002F083FD204602F080FD504602F084
:10B8D0007DFD032002F07AFD584602F077FD2946EF
:10B8E000714801F06BFAFEF781FC072203215346F1
:10B8F000CDF800A001916C48DFF8D0A11146FEF709
:10B9000063FFC82002F032FFD7ED000A9FED670AFF
:10B91000AB46FDF769FE2B7D2A789A4209D8AA78B2
:10B920009A4206D36B7D6A789A4202D8EA789A42A4
:10B9300063D25846FFF724FC03232A69A97A5A48A0
:10B94000FFF764F85A49E8610246A1F10C00FFF7DD
:10B95000B7FAEB7D8AED008A03F00703062B0BD8BC
:10B96000DFE803F0160A0C3521400400D8F8003057
:10B9700033604846FEF7FCF80134CCE7012001F0C3
:10B98000F3FFD8F8003033604846FEF7B3F8F3E72A
:10B99000D8F80030D7ED000A33600020B0EE680A16
:10B9A000FDF776FFE8E701233360FEF721F9DAEDD2
:10B9B000007AD8F80030D7ED000A3360FDEEE77A60
:10B9C000B0EE680A17EE900AFDF762FFD4E7012394
:10B9D0003360FEF70DF9D8F8003033604846FEF7C3
:10B9E00089F8C9E701233360FEF702F9D8F800307F
:10B9F00033604846FEF7BCF8BEE7DFED1E0A9FED58
:10BA00002D0A294DDFF8C8802B4FFDF771FE072066
:10BA100002F042FD2E4621466A89404609F0D8FBD5
:10BA200039463046FEF72CFCF5E70C4C234A244BF4
:10BA30003A604FF08041234A21606260A360F7E6DC
:10BA4000540D8F9F4AE59E4070890020B4890020E4
:10BA5000A48C0108A88A00200000C843CC890020DB
:10BA600000009643B29DEF3D000040400000A04022
:10BA7000248C002000000000208200200000B4423E
:10BA8000DB0FC93F920A063F920A863FA68A002032
:10BA900084890020307F002094890020447F00208A
:10BAA000347F0020B0890020CC8300200000764243
:10BAB00034820020000034422882002000003443F9
:10BAC0000AD7233D00006040208C00209089002090
:10BAD000D88C01080A4C0B4B0B4A3B600B4BA26005
:10BAE00023606360A4E6064C094A0A4B3A600A499F
:10BAF0000A4A21606260A3609AE6014C98E600BFA2
:10BB0000CC8900200000074340A4DF3C0000A04097
:10BB10000000B4424260653C0000E040000030415B
:10BB2000F0B57F4B83B0062264201A6002F01EFE3F
:10BB300002AA012502F8025D0221284602F018FD42
:10BB40009DF9060002F0A8FC642002F00FFE02AA94
:10BB5000042102F8015D284602F00AFD9DF9070064
:10BB600002F09AFC02F0DAFCFFF716FBFDF744F94D
:10BB70006C4B0024294604205C601C609C6002F031
:10BB80001DFC2946052002F019FC2146284602F03A
:10BB900015FC2146022002F011FC2146032002F090
:10BBA0000DFC2146204602F009FC9DF90630AB420F
:10BBB0000ED0022B5C4E14BF542753279DF907303B
:10BBC000013B032B00F2A480DFE803F0988D81078E
:10BBD000554E564B33605427F0E7554C534A554B5E
:10BBE00032605549554A21606260A3602068544D17
:10BBF000FCF7E2FB48A3D3E90023FCF735FCFCF794
:10BC00002BFF20606068FCF7D7FB43A3D3E9002338
:10BC1000FCF72AFCFCF720FF4A49DFF878C14A4AC2
:10BC2000606000230B7049494948CCF800300B6034
:10BC300013602061474A484B484862612946A36126
:10BC400001F0BCF8464BD6ED000A9FED460A434E84
:10BC500001221A602C46FDF7C7FC01E001F0B8F99B
:10BC60002A782B7A9A4221463A463046F6D895F8F9
:10BC700002C09C45F2D36B7A95F801C09C45EDD883
:10BC800095F803C09C45E9D3DFED370A9FED370AED
:10BC9000324CFDF72DFDFDF721F92948FFF770FA29
:10BCA0000021084602F08AFB01F04AFCFEF71EFA6A
:10BCB000072002F0F1FB2046FEF72CFC2046FEF7A1
:10BCC0006BFC296920460631FEF7DAFAF3E7184CD7
:10BCD000274A284B32604FF080414FF08342216069
:10BCE0006260A36082E7124C2349244A244B3160EE
:10BCF0004FF0804121606260A36077E70C4C214ADD
:10BD0000214B32602149224A21606260A3606DE7C5
:10BD1000074C6BE7AFF30080540D8F9F4AE59E40C0
:10BD200070890020B4890020A88A00200000964372
:10BD3000CC890020B29DEF3D000040400000A040B3
:10BD400020820020A68A0020248C002078890020F0
:10BD5000920A063F920A863FDB0FC93FCC83002040
:10BD6000240200200000764200000000000034425F
:10BD70000000704377BE9F3D0000344300008441C3
:10BD8000C520303D0000B4424260653C00001041D7
:10BD90000000A041208C0020F8B52C4B2C4D052232
:10BDA0001A6001F04BFD01462A4809F011FA01F032
:10BDB00045FD0146274809F00BFA642002F0D6FC45
:10BDC0003821372001F01CFC234B83ED000A186852
:10BDD000FCF7F2FA02460B46204809F0F9F9204B2D
:10BDE000204A18680024012314602B60FCF7E4FA51
:10BDF0000B46024621461C4809F0EAF91B4805F0AB
:10BE00009CFB2B68012B06D1194C204609F068FADF
:10BE10002B68012BF9D0002414482C6005F0B1FBED
:10BE20004FF47A7002F0A2FC124D134F41F28836A3
:10BE300055F8040BFCF7C0FA02460B46384621467B
:10BE4000013409F0C5F9B442F2D1FEE7708900204F
:10BE50006C8900205C8D0108E07F0020788D01084E
:10BE6000347F00207C890020848D0108708E0020A2
:10BE7000408F010828020020A08D01082DE9F04321
:10BE800000248BB0CDE90544CDE90744454B00942F
:10BE900009941A6BDFF81C91DFF81C81424F434E66
:10BEA00042F080021A631A6B02F080020092009A3C
:10BEB00001941A6B42F004021A631A6B02F0040236
:10BEC0000192019A02941A6B42F001021A631A6BF2
:10BED00002F001020292029A03941A6B42F00202EB
:10BEE0001A631A6B02F002020392039A04941A6B0B
:10BEF00042F008021A631B6B03F008030493224606
:10BF000048460521049B04F005F9224640464FF4BB
:10BF1000407104F0FFF822463846042104F0FAF894
:10BF2000224630464FF4007104F0F4F801254846EB
:10BF300005A90523CDE90535CDE9074403F050FFF8
:10BF40001B4B07944FF4805205A93046CDE90523D9
:10BF500003F046FF404605A94FF440730593CDE931
:10BF60000654089403F03CFF384605A904230593C2
:10BF7000CDE90654089403F033FF4FF4007305A98C
:10BF800030460593CDE90654089403F029FF224674
:10BF90002146282003F025F9282003F03EF90BB0B4
:10BFA000BDE8F08300380240000C0240000402406B
:10BFB00000001110000002400008024010B582B0DD
:10BFC00000240F4B01941A6B42F480021A631B6B1E
:10BFD00003F480032246214601933820019B03F09D
:10BFE00000F9382003F019F9224621463A2003F0DF
:10BFF000F8F83A2002B0BDE8104003F00EB900BFD7
:10C000000038024070B5214C214B224A236084B095
:10C01000002301254FF40031032620466160A2620F
:10C02000A360009384F82030E362E360CDE901333C
:10C0300003932561257684F830506561E66102F04E
:10C04000B7FB08B172B6FEE70A23694620460195A0
:10C050000296009302F04AFD08B172B6FEE70E2286
:10C060000223694620460092019302F03FFD08B189
:10C0700072B6FEE7092369462046CDE9003602F094
:10C0800035FD08B172B6FEE704B070BD888D0020A2
:10C09000002001400100000F70B51C4C1C4B1D4AD4
:10C0A000236084B0002301254FF40031022620468E
:10C0B0006160A262A360009384F82030E362E360D1
:10C0C000CDE9013303932561257684F8305065610D
:10C0D000E66102F06DFB08B172B6FEE70B220323A6
:10C0E0006946204601950092029302F0FFFC08B1D8
:10C0F00072B6FEE70F2369462046CDE9003602F00E
:10C10000F5FC08B172B6FEE704B070BDA88C002043
:10C11000002101400100000F30B58DB0144C2022E9
:10C12000002104A807F055FD124B23604EF65F2254
:10C1300000230325E2602046012203A963600193E6
:10C14000A3602361A361029303950592099205F010
:10C1500063FC08B172B6FEE7034601A92046CDE9AB
:10C16000013306F051FC08B172B6FEE70DB030BDE8
:10C17000F08C0020000400400A4B0B4A10B50C2143
:10C180001A604FF41654002218465C605961C3E9E6
:10C1900002221A61C3E9062206F03DFD08B172B61B
:10C1A000FEE710BDD08D00200010014000B583B027
:10C1B00002A94FF6FF7341F8040D0122034806F06F
:10C1C00077FD019803B05DF804FB00BFD08D00201F
:10C1D00010B5074C82B00A2301220DF10701204659
:10C1E00006F0FFFD0028F6D19DF8070002B010BD53
:10C1F000D08D002070B5002394B0CDE90A33CDE98D
:10C200000C33CDE90433CDE9063320490193039380
:10C21000086C1F4A40F080500864096C01F080519E
:10C22000019101990293136843F4804313601368EA
:10C230004FF4803003F4804301220293022404234C
:10C240004FF4800108920990A82208A8029D0E943C
:10C250001294CDE90F131393119203F08DFF08B1DF
:10C2600072B6FEE703460F264FF4A0554FF48052F6
:10C2700003A80521049405930396CDE9065204F022
:10C28000EBF908B172B6FEE714B070BD0038024099
:10C290000070004080B598B002F0F6F9FFF7EEFDAF
:10C2A000FFF78CFEFFF7AEFEFFF7F6FEFFF764FF29
:10C2B00001F020F8FFF730FFA04BA14C986802F086
:10C2C000FDF801F037F80DF107020721002002F018
:10C2D0004FF99DF9070002F0DFF841F26706FFF71A
:10C2E00089FFFFF7CBFDFFF769FEFFF78BFEFFF736
:10C2F000D3FEFFF711FF00234FF08042204622605B
:10C300006360089304930F93A3602361A361CDE955
:10C3100009330B930593CDE91033CDE91233CDE901
:10C320001433E66005F0DEF808B172B6FEE74FF4AC
:10C33000805708A92046089705F0ACFE08B172B6F0
:10C34000FEE7204605F09CFA034608B172B6FEE708
:10C3500004A92046CDE9043306F056FB08B172B6B5
:10C36000FEE76023CDE9100013900C220FA92046B0
:10C370000F9305F0C9FD054608B172B6FEE72046E9
:10C3800000F0C0FB6F4B704A1A604FF482710222BA
:10C3900059601A6101214FF4007259619A61282194
:10C3A0000A221846C3E90255C3E908559D62D961BE
:10C3B000DA6204F043FB044608B172B6FEE7634D4F
:10C3C000FFF7DAFE624B15942846CDE90844CDE923
:10C3D0000A44CDE90444CDE90F44CDE91144CDE947
:10C3E0001344C5E90144EE602C61AC612B6005F09B
:10C3F00079F808B172B6FEE708A92846089705F053
:10C4000049FE08B172B6FEE7284605F039FA034640
:10C4100008B172B6FEE7284604A9CDE9043306F058
:10C42000F3FA08B172B6FEE7602000230F900422F1
:10C430000FA946481393CDE9103305F065FD054675
:10C4400008B172B6FEE74148424C00F05BFB202287
:10C45000294610A807F0BDFB3F4B23604EF65F2135
:10C4600001230322E16020460FA91193159308953B
:10C470000995C4E901552561A5610F9205F0CCFA33
:10C48000034608B172B6FEE7204608A9CDE9083395
:10C4900006F0BAFA044608B172B6FEE72F4D0490D2
:10C4A000014620220FA8CDE9054407940294CDE966
:10C4B0000844CDE90A44CDE90C440E940394A72620
:10C4C00007F087FB2649AC60312280232846C5E966
:10C4D00004442960EA60AB616E6005F003F808B1BE
:10C4E00072B6FEE74FF4805304A92846049305F082
:10C4F000D1FD08B172B6FEE7284605F06DF8034697
:10C5000008B172B6FEE702A92846CDE9023306F06B
:10C510007BFA08B172B6FEE718230246CDE90A009D
:10C52000CDE90C000E90302408A928460993089400
:10C5300005F08AFC0346A8B172B6FEE7CC7F002066
:10C540004C7F0020308D0020003C00408C7F00207C
:10C55000000C0040688C002000080040288C00205F
:10C560000004014029688A6942F008028A6128466D
:10C570004FF400520FA9CDE90F33CDE911331393D6
:10C580001693149206F0BCFA044608B172B6FEE7A0
:10C59000284600F0B7FA2D4B2D495E6040F2E73295
:10C5A0001846CDE90F44CDE91144CDE908449C601B
:10C5B000C3E904449C611960DA6004F093FF08B198
:10C5C00072B6FEE74FF480530FA920480F9305F091
:10C5D00061FD034608B172B6FEE708A91B48CDE924
:10C5E000083306F011FA18B172B6FEE7FFF798FAB1
:10C5F0009DF90730072BFDD801A252F823F000BFA8
:10C6000021C6000845C600083FC6000839C6000814
:10C6100033C600082DC60008EDC5000827C600086F
:10C62000FEF76AFFE4E7FFF707F8E1E7FFF7B4FB7F
:10C63000DEE7FFF789F8DBE7FEF7F4FED8E7FEF761
:10C6400099FFD5E7FEF760FFD2E700BF708E0020AC
:10C650000000014072B6FEE780B483B000AF002353
:10C660007B60104B5B6C0F4A43F4804353640D4B6B
:10C670005B6C03F480437B607B6800233B60094B69
:10C680001B6C084A43F080531364064B1B6C03F089
:10C6900080533B603B6800BF0C37BD465DF8047BB0
:10C6A000704700BF0038024080B58CB000AF7860A2
:10C6B00007F11C0300221A605A609A60DA601A615E
:10C6C0007B681B686B4A934272D10023BB616A4B43
:10C6D0005B6C694A43F480735364674B5B6C03F48F
:10C6E0008073BB61BB6900237B61634B1B6B624A38
:10C6F00043F004031363604B1B6B03F004037B6183
:10C700007B6900233B615C4B1B6B5B4A43F002037C
:10C710001363594B1B6B03F002033B613B6911230D
:10C72000FB6103233B6200237B6207F11C03194674
:10C73000524803F055FB0223FB6103233B620023B5
:10C740007B6207F11C0319464D4803F049FB4D4B32
:10C750004D4A1A604B4B00225A604A4B00229A60A5
:10C76000484B0022DA60474B4FF480621A61454B18
:10C770004FF480525A61434B4FF480429A61414BCF
:10C780004FF48072DA613F4B00221A623D4B002267
:10C790005A623C4802F05CFD0346002B01D0FFF7D3
:10C7A00059FF7B68374A9A63364A7B6893635DE03A
:10C7B0007B681B68354A934258D10023FB602E4B9F
:10C7C0005B6C2D4A43F4007353642B4B5B6C03F496
:10C7D0000073FB60FB680023BB60274B1B6B264A82
:10C7E00043F004031363244B1B6B03F00403BB608F
:10C7F000BB682223FB6103233B6200237B6207F1BA
:10C800001C0319461D4803F0EBFA214B214A1A601C
:10C810001F4B4FF000725A601D4B00229A601C4B58
:10C820000022DA601A4B4FF480621A61184B4FF401
:10C8300080525A61164B4FF480429A61144B4FF468
:10C840008072DA61124B00221A62114B00225A6286
:10C850000F4802F0FDFC0346002B01D0FFF7FAFE63
:10C860007B680B4A9A630A4A7B68936300BF303740
:10C87000BD4680BD00200140003802400008024053
:10C8800000040240108E002010640240002101408C
:10C89000B08E00204064024080B58AB000AF78605E
:10C8A00007F1140300221A605A609A60DA601A6174
:10C8B0007B681B68194A93422CD100233B61184BBB
:10C8C0001B6C174A43F400431364154B1B6C03F4B1
:10C8D00000433B613B690023FB60114B1B6B104A1B
:10C8E00043F0040313630E4B1B6B03F00403FB6064
:10C8F000FB684FF4E0537B610223BB610023FB61C3
:10C9000003233B6206237B6207F1140319460548A3
:10C9100003F066FA00BF2837BD4680BD003C0040EA
:10C92000003802400008024080B586B000AF786051
:10C930007B681B68304A934216D100237B612F4BE2
:10C940005B6C2E4A43F0010353642C4B5B6C03F089
:10C9500001037B617B6900220021192002F041FC68
:10C96000192002F05AFC42E07B681B68B3F1804F4B
:10C970000ED100233B61214B1B6C204A43F0010385
:10C9800013641E4B1B6C03F001033B613B692EE0FB
:10C990007B681B681A4A93420ED10023FB60174B39
:10C9A0001B6C164A43F008031364144B1B6C03F012
:10C9B0000803FB60FB681AE07B681B68114A93421E
:10C9C00015D10023BB600D4B5B6C0C4A43F0020396
:10C9D00053640A4B5B6C03F00203BB60BB6800222C
:10C9E00001212C2002F0FDFB2C2002F016FC00BFE0
:10C9F0001837BD4680BD00BF00000140003802402E
:10CA0000000C00400004014080B58CB000AF78609D
:10CA100007F11C0300221A605A609A60DA601A61FA
:10CA20007B681B68324A93422CD10023BB61314B97
:10CA30001B6C304A43F0020313642E4B1B6C03F053
:10CA40000203BB61BB6900237B612A4B1B6B294A34
:10CA500043F001031363274B1B6B03F001037B615E
:10CA60007B69C023FB6102233B6200237B620023BE
:10CA7000BB620223FB6207F11C0319461E4803F048
:10CA8000AFF930E07B681B681C4A93422BD100232E
:10CA90003B61184B1B6C174A43F004031364154B9E
:10CAA0001B6C03F004033B613B690023FB60114BEB
:10CAB0001B6B104A43F0020313630E4B1B6B03F016
:10CAC0000203FB60FB68C023FB6102233B6200237F
:10CAD0007B620023BB620223FB6207F11C03194641
:10CAE000074803F07DF900BF3037BD4680BD00BF69
:10CAF00000040040003802400000024000080040EE
:10CB00000004024080B58CB000AF786007F11C03D0
:10CB100000221A605A609A60DA601A617B681B68AA
:10CB2000B3F1804F1ED10023BB61434B1B6B424AC4
:10CB300043F001031363404B1B6B03F00103BB6124
:10CB4000BB690823FB6102233B6200237B62032352
:10CB5000BB620123FB6207F11C031946374803F04F
:10CB60003FF964E07B681B68354A93421ED100237D
:10CB70007B61314B1B6B304A43F0010313632E4B37
:10CB80001B6B03F001037B617B690223FB610223C2
:10CB90003B6200237B620023BB620223FB6207F13E
:10CBA0001C031946254803F01BF940E07B681B680D
:10CBB000244A93423BD100233B611F4B1B6B1E4A0F
:10CBC00043F0010313631C4B1B6B03F001033B6138
:10CBD0003B690023FB60184B1B6B174A43F00403AF
:10CBE0001363154B1B6B03F00403FB60FB682023EE
:10CBF000FB6102233B6200237B620023BB620323B1
:10CC0000FB6207F11C0319460C4803F0E9F84023C6
:10CC1000FB6102233B6200237B620023BB62032390
:10CC2000FB6207F11C031946074803F0D9F800BF5F
:10CC30003037BD4680BD00BF0038024000000240D2
:10CC4000000C0040000401400008024080B58AB09A
:10CC500000AF786007F1140300221A605A609A60EE
:10CC6000DA601A617B681B68194A93422CD1002351
:10CC70003B61184B5B6C174A43F010035364154B30
:10CC80005B6C03F010033B613B690023FB60114BBD
:10CC90001B6B104A43F0010313630E4B1B6B03F035
:10CCA0000103FB60FB684FF4C0637B610223BB613F
:10CCB0000023FB6103233B6207237B6207F114031C
:10CCC0001946054803F08CF800BF2837BD4680BDE3
:10CCD00000100140003802400000024080B400AF64
:10CCE000FEE780B400AFFEE780B400AFFEE780B49B
:10CCF00000AFFEE780B400AFFEE780B400AF00BF36
:10CD0000BD465DF8047B704780B400AF00BFBD46F0
:10CD10005DF8047B704780B400AF00BFBD465DF88E
:10CD2000047B704780B500AF01F000FD00BF80BDFF
:10CD300080B500AF024804F07FFF00BF80BD00BF98
:10CD4000708E002080B500AF4FF4805003F0FCF9E6
:10CD500000BF80BD80B500AF024804F06DFF00BF8A
:10CD600080BD00BF288C002080B500AF024802F0D3
:10CD7000E5FB00BF80BD00BF108E002080B500AF76
:10CD8000024802F0DBFB00BF80BD00BFB08E002078
:10CD900080B400AF084BD3F88830074A43F47003DF
:10CDA000C2F88830044B4FF000629A6000BFBD4665
:10CDB0005DF8047B704700BF00ED00E070B50446ED
:10CDC00082B00D46FDF72EFB2046FDF70FFB2146F6
:10CDD0002846FEF7BBF904F10803EB6101260223A4
:10CDE0006A7829782C612046CDE90036FDF7ECFC05
:10CDF00002B070BD70B56F4D82B02846FEF7C0F925
:10CE0000AB7A062B00F2D080DFE803F0A2CE76CE1C
:10CE10004ACE0400684BDFED695AD3ED007AD3EDBA
:10CE2000034A93ED015ADFED666A93ED026A9FEDC6
:10CE3000657A77EEA47AF6EE004AB4EEE55A67EE2C
:10CE4000A47AF1EE10FAB4EEE66ACCBF0126002611
:10CE5000F1EE10FAF4EEC77ACCBF01210021F1EE19
:10CE600010FACCBF0122002200202C7B6B7A66F3E3
:10CE7000010460F3830461F3051462F387145249DB
:10CE80002A7A52482C73FDF7D7FB012402236A78D3
:10CE900029784E48CDE90034FDF796FC02B070BD0C
:10CEA000454BDFED475AD3ED007AD3ED034AD3ED7E
:10CEB000016A93ED025A9FED436A9FED407A77EE47
:10CEC000A47AF6EE004A67EEA47AB4EEE55AF1EEE3
:10CED00010FAF4EEC67ACCBF01200020F1EE10FA71
:10CEE000F4EEC76ACCBF01210021F1EE10FACCBFED
:10CEF000012200220026B8E72F4BDFED315AD3ED97
:10CF0000007AD3ED034AD3ED016A93ED025A9FED07
:10CF10002D6A9FED2A7A77EEA47AF6EE004A67EE44
:10CF2000A47AB4EEE55AF1EE10FAF4EEC67ACCBF6C
:10CF300001260026F1EE10FAF4EEC76ACCBF0120FC
:10CF40000020F1EE10FACCBF0121002100228CE775
:10CF5000194B9FED1C5AD3ED007AD3ED034A9FED98
:10CF6000176AD3ED015A9FED167AD3ED026A77EE78
:10CF7000A47AF6EE004A67EEA47A0021F4EEC57AB0
:10CF8000F1EE10FAF4EEC65ACCBF01260E46F1EED1
:10CF900010FAF4EEC76ACCBF01200846F1EE10FA91
:10CFA000CCBF01220A4660E7002211461046164611
:10CFB0005BE700BF20820020F48900200000B4421B
:10CFC0000000C8420000344228820020CC830020A8
:10CFD0002DE9F0410C460123897A6A4D16462269F3
:10CFE0000746FDF713FD04F114010246E06104F168
:10CFF0000800FDF765FFE37D002203F007032A60C8
:10D00000062B6DD8DFE803F0106C255C314C040072
:10D01000002000F0A9FC5C4A5C4B12681A603046A4
:10D02000BDE8F041FCF7A4BD002000F09DFC3846AF
:10D03000E269A17DFDF760FE554B1B78002851D0B9
:10D04000DFED547A002B00F098800020C5ED007AC7
:10D0500052E0002000F088FC4B4A4C4B12681A60EA
:10D060003046BDE8F041FCF745BDDFF820810020E7
:10D07000012600F079FCC8F80060FCF7B9FD3846DD
:10D08000E269A17DFDF738FE414B1B78002842D0B4
:10D09000DFED407A002B6CD00020C5ED007A43E034
:10D0A0003A4C042000F060FC01232360FCF7A0FD53
:10D0B000354B1B6823603046BDE8F041FCF758BD96
:10D0C000324C012000F050FC01232360FCF790FD5E
:10D0D0002D4B1B6823603046BDE8F041FCF70ABDCC
:10D0E000BDE8F08103F0FF00002B37D19FED2A7AD5
:10D0F000F0EE477A85ED007A284B234AD3ED000AFB
:10D10000224B12689FED260A1A6077EEA00ABDE84E
:10D11000F041FCF7BDBB03F0FF00A3B99FED1E7A01
:10D12000F0EE477A85ED007A1C4A174BD2ED000AE3
:10D130001B68C8F800309FED1A0A77EEA00ABDE818
:10D14000F041FCF7A5BB174ADFED137A1368C5ED74
:10D15000007A023313604FF0FF30E5E7124ADFED4B
:10D160000E7A1368C5ED007A023313604FF0FF307A
:10D17000C2E73046C5ED007AD6E70120C5ED007A5A
:10D18000BAE700BF90890020208C0020248C00206A
:10D19000A68A00200000754300000000A88A002035
:10D1A0000000B4422C0000202800002080B586B08A
:10D1B00000AFF860B9607A6000237B610AE0FFF796
:10D1C00007F80146BB685A1CBA60CAB21A707B697C
:10D1D00001337B617A697B689A42F0DB7B68184691
:10D1E0001837BD4680BD80B586B000AFF860B96025
:10D1F0007A6000237B6109E0BB685A1CBA601B7827
:10D200001846FEF7D3FF7B6901337B617A697B683F
:10D210009A42F1DB7B6818461837BD4680BD80B462
:10D2200083B000AF78604FF0FF3318460C37BD462F
:10D230005DF8047B704780B483B000AF78603960DC
:10D240003B684FF400525A60002318460C37BD4625
:10D250005DF8047B704780B483B000AF7860012331
:10D2600018460C37BD465DF8047B704780B485B026
:10D2700000AFF860B9607A60002318461437BD46E5
:10D280005DF8047B7047000080B586B000AF786021
:10D29000144A154BD31A7B617B693B61134B1B68A6
:10D2A000002B02D1114B124A1A60104B1A687B688E
:10D2B00013443A699A4207D206F04AFA02460C230E
:10D2C00013604FF0FF3309E0084B1B68FB60074B0E
:10D2D0001A687B681344054A1360FB6818461837C0
:10D2E000BD4680BD0000022000040000487F0020F1
:10D2F000508F002080B500AF03220A490A4801F090
:10D300009BFA0346002B01D0FFF7A4F9022207493C
:10D31000074801F091FA0346002B01D0FFF79AF974
:10D3200000BF80BDCC7F0020888D0020D87F0020EA
:10D33000A88C002080B500AF0E4801F06FFB0346BB
:10D34000002B07D00C4807F0CBFFFFF783F90B4801
:10D3500007F0C6FF0A4801F061FB0346002B07D027
:10D36000084807F0BDFFFFF775F9074807F0B8FF59
:10D3700000BF80BD888D0020508B0108588B0108AC
:10D38000A88C0020608B0108688B010880B400AF76
:10D39000054B064A5A60044B054A5A6000BFBD4619
:10D3A0005DF8047B704700BF003C024023016745E5
:10D3B000AB89EFCD80B400AF054B1B69044A43F045
:10D3C0000043136100BFBD465DF8047B704700BF9A
:10D3D000003C024080B400AF00BF054BDB6803F4A3
:10D3E0008033002BF9D100BFBD465DF8047B704748
:10D3F000003C024080B582B000AF78603960FFF732
:10D40000C5FFFFF7E7FF0E4B1B690D4A43F400739E
:10D4100013610B4B1B690A4A43F0010313617B68DC
:10D420003A681A60FFF7D6FF054B1B69044A23F0E0
:10D4300001031361FFF7BEFF00BF0837BD4680BD83
:10D44000003C024080B582B000AF78603960FFF7E1
:10D450009DFFFFF7BFFF0F4B1B690E4A43F400739C
:10D4600013610C4B1B690B4A43F0010313617B688A
:10D470001A683B681A60FFF7ADFF064B1B69054A47
:10D4800023F001031361FFF795FF00BF0837BD4686
:10D4900080BD00BF003C024080B582B000AF786024
:10D4A00087ED000AFFF772FFFFF794FF0E4B1B6931
:10D4B0000D4A43F4007313610B4B1B690A4A43F096
:10D4C000010313617B683A681A60FFF783FF064B1C
:10D4D0001B69054A23F001031361FFF76BFF00BFCF
:10D4E0000837BD4680BD00BF003C024080B582B019
:10D4F00000AF78603960FFF749FFFFF76BFF0F4B14
:10D500001B690E4A43F4007313610C4B1B690B4AF1
:10D5100043F0010313617B681A683B681A60FFF7E8
:10D5200059FF064B1B69054A23F001031361FFF7FE
:10D5300041FF00BF0837BD4680BD00BF003C024030
:10D5400080B588B000AF02F061FA0023BB60012310
:10D550003B610223BB6101237B613A1D07F1080394
:10D560001146184602F01AFB0346FB7702F070FAE8
:10D57000FB7F002B05D17B68B3F1FF3F01D1012375
:10D5800000E0002303F00103DBB218462037BD465C
:10D5900080BD80B588B000AF02F038FA0023BB60D0
:10D5A00009233B610223BB6101237B613A1D07F123
:10D5B00008031146184602F0F1FA0346FB7702F021
:10D5C00047FAFB7F002B05D17B68B3F1FF3F01D108
:10D5D000012300E0002303F00103DBB218462037EB
:10D5E000BD4680BDB0F90020B1F900309A4204DC9C
:10D5F000B4BF4FF0FF30002070470120704700BFDC
:10D6000070B5234C234D82B061F07F0360F07F063C
:10D610000022204604218DF805308DF8046002F0C8
:10D6200079FD01A928466423012203F06BFA6423E3
:10D630000DF106012846012203F098FB2046012245
:10D64000042102F067FD20460022042102F062FD61
:10D650000DF1050128466423012203F053FA6423E7
:10D660000DF107012846012203F080FB204601222C
:10D67000042102F04FFD9DF806209DF8073043EA93
:10D6800002231BB200EE103AB8EEC00A02B070BD21
:10D69000000C0240308D002030B50D4CB0F9001068
:10D6A000B4F90400B4F90250A18083B06080ADF8F1
:10D6B0000410ADF80200074B2580684602220321C2
:10D6C000ADF8005007F04CFEBDF9020003B030BDCC
:10D6D000E47F0020E5D50008F0B53F4C3F4D83B016
:10D6E0004FF0B70C0E460746B8232046002204210F
:10D6F0008DF802C08DF8033002F00CFD0DF102012F
:10D7000028466423012203F0FDF9642301A9284679
:10D71000012203F02BFB20460122042102F0FAFC37
:10D7200020460022042102F0F5FC0DF103012846F9
:10D730006423012203F0E6F964230DF10501284674
:10D74000012203F013FB20460421012202F0E2FC37
:10D750009DF804209DF8053002A843EA022320F832
:10D76000023DFFF799FF07EE900A9FED1D7A1D4BD2
:10D770001D4AF8EEE77A108067EE877AC3ED007AEB
:10D78000D3ED007AF1EE677AC7ED007A17EE900AD2
:10D79000FAF712FE0CA3D3E90023FAF765FE0CA3F7
:10D7A000D3E90023FAF7A8FC044630680D46FAF7DF
:10D7B00003FE02460B4620462946FAF79FFCFBF77C
:10D7C0004BF9306003B0F0BDFCA9F1D24D62503F7F
:10D7D000D7A973BE38EEBD3E000C0240308D00204C
:10D7E000787D8B3AE07F0020188F002070B584B0E0
:10D7F00004AC104D104E8DF8071000F07F0004F8B7
:10D80000010D00222846042102F084FC2146304606
:10D810006423012203F076F964230DF107013046F9
:10D82000012203F06FF928460122042102F072FC64
:10D8300004B070BD000C0240308D002010B582B0E5
:10D8400002AC802304F8023D002204211B4802F0B0
:10D8500061FC214664230122194803F053F9642333
:10D8600001220DF10701164803F080FA012204217C
:10D87000124802F04FFC9DF80730E02B02D0012047
:10D8800002B010BD01210620FFF7B0FF10210320D8
:10D89000FFF7ACFF20217F20FFF7A8FF1721012011
:10D8A000FFF7A4FF17211420FFF7A0FF00217F201E
:10D8B000FFF79CFF012002B010BD00BF000C02402A
:10D8C000308D002038B564202DED028B00F04EFF26
:10D8D0009FED0B8A0B4D4FF4FA64D5ED007A0220D0
:10D8E00038EE278A00F042FF013CF6D19FED067A20
:10D8F000064BC8EE077ABDEC028BC3ED007A38BD4B
:10D9000000000000E07F00200000FA44EC7F0020CF
:10D9100080B500AF3C21044804F010F93C210348D5
:10D9200004F00CF900BF80BDF08C0020688C002052
:10D9300080B500AF0021044803F084FE00210248B6
:10D9400004F097FF00BF80BD288C002080B500AF99
