:020000040800F2
:1000000000000220390B0108810801088708010857
:100010008D080108930801089908010800000000F4
:100020000000000000000000000000009F08010820
:10003000AD08010800000000BB080108C90801085C
:10004000890B0108890B0108890B0108890B01083C
:10005000D5080108890B0108890B0108890B0108E3
:10006000890B0108890B0108890B0108890B01081C
:10007000890B0108890B0108890B0108890B01080C
:10008000890B0108890B0108E1080108890B0108A7
:10009000890B0108890B0108890B0108890B0108EC
:1000A000890B0108FD080108890B0108890B01086B
:1000B000110901082509010839090108890B0108FE
:1000C000890B0108890B0108890B0108890B0108BC
:1000D000890B0108890B0108890B0108890B0108AC
:1000E000890B0108890B0108890B0108890B01089C
:1000F0004D0901086109010875090108890B01080A
:10010000890B0108890B010889090108890B01087D
:10011000890B0108890B0108890B0108890B01086B
:100120009D090108890B0108B1090108890B010823
:10013000890B01080000000000000000890B010885
:10014000890B0108890B0108890B0108890B01083B
:10015000890B0108890B0108890B0108890B01082B
:10016000890B0108890B0108890B0108890B01081B
:10017000890B0108890B0108000000000000000045
:08018000890B0108890B01083D
:1080000010B5054C237833B9044B13B10448AFF3D2
:1080100000800123237010BD6002002000000000DA
:10802000D087010808B5034B1BB103490348AFF3E0
:10803000008008BD0000000064020020D087010815
:10804000034613F8012B002AFBD1181A0138704798
:1080500001F0FF01102A2BDB10F0070F08D010F8F9
:10806000013B013A8B422DD010F0070F42B3F6D1FD
:10807000F0B441EA012141EA014122F007047FF016
:1080800000070023F0E80256083C85EA010586EA6D
:10809000010685FA47F5A3FA87F586FA47F6A5FAA9
:1080A00087F68EB9EED1F0BC01F0FF0102F00702B5
:1080B00032B110F8013B013A83EA010313B1F8D160
:1080C0000020704701387047002D06BF3546033841
:1080D000073815F0010F07D1013015F4807F02BF7A
:1080E000013015F4C03F0130F0BC0138704700BFCB
:1080F00081F0004102E000BF83F0004330B54FEA59
:1081000041044FEA430594EA050F08BF90EA020FC5
:108110001FBF54EA000C55EA020C7FEA645C7FEA58
:10812000655C00F0E2804FEA5454D4EB5555B8BF7B
:108130006D420CDD2C4480EA020281EA030382EAEC
:10814000000083EA010180EA020281EA0303362D7E
:1081500088BF30BD11F0004F4FEA01314FF4801C51
:108160004CEA113102D0404261EB410113F0004F63
:108170004FEA03334CEA133302D0524263EB43031A
:1081800094EA050F00F0A780A4F10104D5F1200EB8
:108190000DDB02FA0EFC22FA05F2801841F1000113
:1081A00003FA0EF2801843FA05F359410EE0A5F1E7
:1081B00020050EF1200E012A03FA0EFC28BF4CF018
:1081C000020C43FA05F3C01851EBE37101F00045CE
:1081D00007D54FF0000EDCF1000C7EEB00006EEBDB
:1081E0000101B1F5801F1BD3B1F5001F0CD3490865
:1081F0005FEA30004FEA3C0C04F101044FEA4452BC
:1082000012F5800F80F09A80BCF1004F08BF5FEA42
:10821000500C50F1000041EB045141EA050130BD22
:108220005FEA4C0C404141EB010111F4801FA4F1C5
:108230000104E9D191F0000F04BF01460020B1FA1A
:1082400081F308BF2033A3F10B03B3F120020CDA52
:108250000C3208DD02F1140CC2F10C0201FA0CF030
:1082600021FA02F10CE002F11402D8BFC2F1200C95
:1082700001FA02F120FA0CFCDCBF41EA0C0190404B
:10828000E41AA2BF01EB0451294330BD6FEA040494
:108290001F3C1CDA0C340EDC04F11404C4F120027F
:1082A00020FA04F001FA02F340EA030021FA04F391
:1082B00045EA030130BDC4F10C04C4F1200220FAE8
:1082C00002F001FA04F340EA0300294630BD21FA26
:1082D00004F0294630BD94F0000F83F4801306BFEC
:1082E00081F480110134013D4EE77FEA645C18BFE0
:1082F0007FEA655C29D094EA050F08BF90EA020F77
:1083000005D054EA000C04BF1946104630BD91EA6E
:10831000030F1EBF0021002030BD5FEA545C05D171
:108320004000494128BF41F0004130BD14F58004B0
:108330003CBF01F5801130BD01F0004545F0FE4124
:1083400041F470014FF0000030BD7FEA645C1ABF59
:10835000194610467FEA655C1CBF0B46024650EA90
:10836000013406BF52EA033591EA030F41F40021BC
:1083700030BD00BF90F0000F04BF0021704730B542
:108380004FF4806404F132044FF000054FF0000117
:1083900050E700BF90F0000F04BF0021704730B5D8
:1083A0004FF4806404F1320410F0004548BF4042AD
:1083B0004FF000013EE700BF42004FEAE2014FEA02
:1083C00031014FEA02701FBF12F07F4393F07F4FDD
:1083D00081F06051704732F07F4208BF704793F0E0
:1083E0007F4F04BF41F40021704730B54FF46074F3
:1083F00001F0004521F000411CE700BF50EA0102F6
:1084000008BF704730B54FF000050AE050EA01029E
:1084100008BF704730B511F0004502D5404261EB0E
:1084200041014FF4806404F132045FEA915C3FF44F
:10843000D8AE4FF003025FEADC0C18BF03325FEAEC
:10844000DC0C18BF033202EBDC02C2F1200300FA9D
:1084500003FC20FA02F001FA03FE40EA0E0021FAC2
:1084600002F11444BDE600BF70B54FF0FF0C4CF4B0
:10847000E06C1CEA11541DBF1CEA135594EA0C0F62
:1084800095EA0C0F00F0DEF82C4481EA030621EA9D
:108490004C5123EA4C5350EA013518BF52EA0335D8
:1084A00041F4801143F4801338D0A0FB02CE4FF08A
:1084B0000005E1FB02E506F00042E0FB03E54FF0BA
:1084C0000006E1FB03569CF0000F18BF4EF0010EB2
:1084D000A4F1FF04B6F5007F64F5407404D25FEAAE
:1084E0004E0E6D4146EB060642EAC62141EA555161
:1084F0004FEAC52040EA5E504FEACE2EB4F1FD0CA3
:1085000088BFBCF5E06F1ED8BEF1004F08BF5FEA20
:10851000500E50F1000041EB045170BD06F00046D2
:1085200046EA010140EA020081EA0301B4EB5C047F
:10853000C2BFD4EB0C0541EA045170BD41F4801177
:108540004FF0000E013C00F3AB8014F1360FDEBF9C
:10855000002001F0004170BDC4F10004203C35DA78
:108560000C341BDC04F11404C4F1200500FA05F3FB
:1085700020FA04F001FA05F240EA020001F000429C
:1085800021F0004110EBD37021FA04F642EB060112
:108590005EEA430E08BF20EAD37070BDC4F10C043C
:1085A000C4F1200500FA04F320FA05F001FA04F200
:1085B00040EA020001F0004110EBD37041F10001EC
:1085C0005EEA430E08BF20EAD37070BDC4F12005F7
:1085D00000FA05F24EEA020E20FA04F301FA05F25F
:1085E00043EA020321FA04F001F0004121FA04F207
:1085F00020EA020000EBD3705EEA430E08BF20EAD7
:10860000D37070BD94F0000F0FD101F00046400010
:1086100041EB010111F4801F08BF013CF7D041EA92
:10862000060195F0000F18BF704703F00046520096
:1086300043EB030313F4801F08BF013DF7D043EA67
:108640000603704794EA0C0F0CEA135518BF95EA1D
:108650000C0F0CD050EA410618BF52EA4306D1D1A4
:1086600081EA030101F000414FF0000070BD50EAC3
:10867000410606BF1046194652EA430619D094EA4D
:108680000C0F02D150EA013613D195EA0C0F05D137
:1086900052EA03361CBF104619460AD181EA03018B
:1086A00001F0004141F0FE4141F470014FF0000043
:1086B00070BD41F0FE4141F4780170BD70B54FF0DE
:1086C000FF0C4CF4E06C1CEA11541DBF1CEA13555E
:1086D00094EA0C0F95EA0C0F00F0A7F8A4EB050440
:1086E00081EA030E52EA03354FEA013100F0888037
:1086F0004FEA03334FF0805545EA131343EA126300
:108700004FEA022245EA111545EA10654FEA0026B4
:108710000EF000419D4208BF964244F1FD0404F56D
:10872000407402D25B084FEA3202B61A65EB0305C9
:108730005B084FEA32024FF480104FF4002CB6EB86
:10874000020E75EB030E22BFB61A754640EA0C0006
:108750005B084FEA3202B6EB020E75EB030E22BF46
:10876000B61A754640EA5C005B084FEA3202B6EB87
:10877000020E75EB030E22BFB61A754640EA9C0046
:108780005B084FEA3202B6EB020E75EB030E22BF16
:10879000B61A754640EADC0055EA060E18D04FEAD4
:1087A000051545EA16754FEA06164FEAC30343EA74
:1087B00052734FEAC2025FEA1C1CC0D111F4801F41
:1087C0000BD141EA00014FF000004FF0004CB6E73A
:1087D00011F4801F04BF01430020B4F1FD0C88BFD9
:1087E000BCF5E06F3FF6AFAEB5EB030C04BFB6EBE4
:1087F000020C5FEA500C50F1000041EB045170BDD7
:108800000EF0004E4EEA113114EB5C04C2BFD4EB03
:108810000C0541EA045170BD41F480114FF0000E87
:10882000013C90E645EA060E8DE60CEA135594EA03
:108830000C0F08BF95EA0C0F3FF43BAF94EA0C0F06
:108840000AD150EA01347FF434AF95EA0C0F7FF47B
:1088500025AF104619462CE795EA0C0F06D152EACF
:1088600003353FF4FDAE1046194622E750EA4106B3
:1088700018BF52EA43067FF4C5AE50EA41047FF4C4
:108880000DAF52EA43057FF4EBAE12E74FF0FF3C29
:1088900006E000BF4FF0010C02E000BF4FF0010CFA
:1088A0004DF804CD4FEA410C7FEA6C5C4FEA430C73
:1088B00018BF7FEA6C5C1BD001B050EA410C0CBFC2
:1088C00052EA430C91EA030F02BF90EA020F002024
:1088D000704710F1000F91EA030F58BF994208BF8B
:1088E00090422CBFD8176FEAE37040F00100704748
:1088F0004FEA410C7FEA6C5C02D150EA013C07D19F
:108900004FEA430C7FEA6C5CD6D152EA033CD3D0E9
:108910005DF8040B704700BF8446104662468C46E3
:108920001946634600E000BF01B5FFF7B7FF002816
:1089300048BF10F1000F01BD4DF808EDFFF7F4FF3F
:108940000CBF012000205DF808FB00BF4DF808EDCA
:10895000FFF7EAFF34BF012000205DF808FB00BFED
:108960004DF808EDFFF7E0FF94BF012000205DF80F
:1089700008FB00BF4DF808EDFFF7CEFF94BF0120C4
:1089800000205DF808FB00BF4DF808EDFFF7C4FFBD
:1089900034BF012000205DF808FB00BF4FEA410C06
:1089A0007FEA6C5C02D150EA013C0AD14FEA430CE9
:1089B0007FEA6C5C02D152EA033C02D14FF0000026
:1089C00070474FF0010070474FEA410212F5001264
:1089D00015D211D56FF47873B3EB625212D94FEA06
:1089E000C12343F0004343EA505311F0004F23FAF0
:1089F00002F018BF404270474FF00000704750EA45
:108A0000013005D111F0004008BF6FF00040704701
:108A10004FF00000704700BF4FEA4102B2F1E0435F
:108A200024BFB3F5001CDCF1FE5C0DD901F0004C55
:108A30004FEAC0024CEA5070B2F1004F40EB8300A5
:108A400008BF20F00100704711F0804F21D113F1D1
:108A50003872BCBF01F00040704741F480114FEA0A
:108A60005252C2F11802C2F1200C10FA0CF320FA93
:108A700002F018BF40F001004FEAC1234FEAD323B0
:108A800003FA0CFC40EA0C0023FA02F34FEA43031A
:108A9000CCE77FEA625307D150EA01331EBF4FF0A3
:108AA000FE4040F44000704701F0004040F0FE40BE
:108AB00040F40000704700BF53B94AB9002908BF0D
:108AC00000281CBF4FF0FF314FF0FF3000F072B9AB
:108AD000ADF1080C6DE904CE00F006F8DDF804E015
:108AE000DDE9022304B070472DE9F047089E0446F3
:108AF0008846002B4BD18A42154667D9B2FA82F2DA
:108B00004AB1C2F1200701FA02F320FA07F79540B3
:108B100047EA030894404FEA154E230CB8FBFEF7D2
:108B20001FFA85FC0EFB178843EA084307FB0CF18C
:108B3000994209D9EB1807F1FF3080F01B81994267
:108B400040F21881023F2B445B1AA4B2B3FBFEF043
:108B50000EFB103344EA034400FB0CFCA44509D986
:108B60002C1900F1FF3380F00781A44540F2048105
:108B700002382C4440EA0740A4EB0C0400271EB145
:108B8000D4400023C6E900433946BDE8F0878B4254
:108B900009D9002E00F0EB800027C6E90001384615
:108BA0003946BDE8F087B3FA83F7002F47D18B42EF
:108BB00002D3824200F2FA80841A61EB030301209F
:108BC0009846002EE0D0C6E90048DDE702B9FFDE96
:108BD000B2FA82F2002A40F08F80491B4FEA154E0C
:108BE0001FFA85F80127B1FBFEFC230C0EFB1C11BC
:108BF00043EA014308FB0CF1994207D9EB180CF149
:108C0000FF3002D2994200F2CD808446591AA3B2B5
:108C1000B1FBFEF00EFB101443EA044408FB00F81D
:108C2000A04507D92C1900F1FF3302D2A04500F26C
:108C3000B6801846A4EB080440EA0C409FE7C7F151
:108C4000200CBB4022FA0CFE4EEA030E01FA07F498
:108C500020FA0CF521FA0CF34FEA1E482543B3FB2A
:108C6000F8F92C0C08FB19331FFA8EFA44EA034377
:108C700009FB0AF49C4202FA07F200FA07F10BD949
:108C80001EEB030309F1FF3080F087809C4240F225
:108C90008480A9F1020973441B1BADB2B3FBF8F049
:108CA00008FB103345EA034400FB0AFAA24508D941
:108CB0001EEB040400F1FF336BD2A24569D90238E0
:108CC000744440EA0940A0FB0289A4EB0A044C4525
:108CD000C2464B4654D351D0002E69D0B1EB0A05A1
:108CE00064EB030404FA0CFCFD40FC404CEA05056F
:108CF000C6E90054002747E7C2F1200320FA03F732
:108D0000954001FA02F021FA03F34FEA154E384379
:108D1000010CB3FBFEF71FFA85F80EFB173341EA8F
:108D2000034107FB08F38B4204FA02F407D96918E0
:108D300007F1FF3C2FD28B422DD9023F2944CB1A99
:108D400081B2B3FBFEF00EFB103341EA034100FB9E
:108D500008F38B4207D9691800F1FF3C17D28B4208
:108D600015D902382944C91A40EA07473BE7374674
:108D7000304609E70746E7E61846FBE64145ABD231
:108D8000B8EB020A69EB0E0201381346A4E760460D
:108D9000E9E7184695E76746D1E781467CE7023860
:108DA0002C4447E7ACF1020C2B442FE7384608E788
:108DB0003746E9E6704700BF90B587B000AF87ED52
:108DC000050AC7ED040A87ED031AC7ED021A87EDFD
:108DD000012AC7ED002A544B1B78002B0FD1534BAF
:108DE0004FF000021A60524B4FF000021A60514BD4
:108DF0004FF000021A60504B4FF000021A604A4BCD
:108E000001221A70D7ED057A9FED4C7A37EE877AFA
:108E1000D7ED047A77EE677A444BC3ED007A434B83
:108E200093ED007AD7ED037A27EE277A404BD3ED06
:108E3000007A77EE277A3E4BC3ED007A3B4B93EDF9
:108E4000007A3D4BD3ED007A77EE676A97ED037AAF
:108E5000C6EE877A374BC3ED007A344B1B68364A2F
:108E60001360324B93ED007AD7ED027A27EE277A22
:108E70002F4BD3ED006AD7ED017A66EEA77A37EE75
:108E8000277A2C4BD3ED006AD7ED007A66EEA77AED
:108E900077EE277A17EE900AFFF78EFA03460C4614
:108EA00044EC103B0DF08AF854EC103B1846214678
:108EB000FFF78AFD03461AB2214B1A801B4B93ED34
:108EC000007AD7ED027A27EE277A194BD3ED006AA4
:108ED000D7ED017A66EEA77A37EE277A154BD3EDF8
:108EE000006AD7ED007A66EEA77A77EE277A17EE5A
:108EF000900AFFF761FA03460C4644EC103B0DF074
:108F00005DF854EC103B18462146FFF75DFD034623
:108F10001BB29BB25B429BB21AB20A4B1A8000BFD3
:108F20001C37BD4690BD00BF7C020020800200209F
:108F300084020020880200208C02002000002042D1
:108F400022E0002034E0002090B587B000AF87ED2C
:108F5000050AC7ED040A87ED031AC7ED021A87ED6B
:108F6000012AC7ED002A594B1B78002B0FD1584B13
:108F70004FF000021A60574B4FF000021A60564B38
:108F80004FF000021A60554B4FF000021A604F4B31
:108F900001221A7097ED057AD7ED047A77EE677A99
:108FA00017EE900AFFF708FA4FF033324C4BFFF7F9
:108FB0005BFA03460C4618462146FFF72DFD024694
:108FC000434B1A60424B93ED007AD7ED037A27EEBC
:108FD000277A404BD3ED007A77EE277A3D4BC3EDED
:108FE000007A3B4B93ED007A3C4BD3ED007A77EE61
:108FF000676A97ED037AC6EE877A374BC3ED007A3E
:10900000334B1B68354A1360314B93ED007AD7ED33
:10901000027A27EE277A2F4BD3ED006AD7ED017A3B
:1090200066EEA77A37EE277A2B4BD3ED006AD7EDA1
:10903000007A66EEA77A77EE277A17EE900AFFF7A6
:10904000BBF903460C4644EC103B0CF0B7FF54EC64
:10905000103B18462146FFF7B7FC03461BB29BB2F4
:109060005B429BB21AB21F4B1A80194B93ED007AE8
:10907000D7ED027A27EE277A164BD3ED006AD7EDAB
:10908000017A66EEA77A37EE277A134BD3ED006AA2
:10909000D7ED007A66EEA77A77EE277A17EE900A78
:1090A000FFF78AF903460C4644EC103B0CF086FFB0
:1090B00054EC103B18462146FFF786FC03461AB2D3
:1090C000094B1A8000BF1C37BD4690BD7C020020B2
:1090D0009002002094020020980200209C020020B0
:1090E0003333F33F1EE0002040E0002090B587B00E
:1090F00000AF87ED050AC7ED040A87ED031AC7ED37
:10910000021A87ED012AC7ED002A594B1B78002B64
:109110000FD1584B4FF000021A60574B4FF000022E
:109120001A60564B4FF000021A60554B4FF0000288
:109130001A604F4B01221A7097ED057AD7ED047A29
:1091400077EE677A17EE900AFFF736F94FF0333271
:109150004C4BFFF789F903460C4618462146FFF7AA
:109160005BFC0246434B1A60424B93ED007AD7ED0D
:10917000037A27EE277A404BD3ED007A77EE277AF1
:109180003D4BC3ED007A3B4B93ED007A3C4BD3ED66
:10919000007A77EE676A97ED037AC6EE877A374BE7
:1091A000C3ED007A334B1B68354A1360314B93EDA6
:1091B000007AD7ED027A27EE277A2F4BD3ED006A9B
:1091C000D7ED017A66EEA77A37EE277A2B4BD3EDEF
:1091D000006AD7ED007A66EEA77A77EE277A17EE67
:1091E000900AFFF7E9F803460C4644EC103B0CF0FC
:1091F000E5FE54EC103B18462146FFF7E5FB03461D
:109200001AB2214B1A801B4B93ED007AD7ED027AEC
:1092100027EE277A184BD3ED006AD7ED017A66EE78
:10922000A77A37EE277A154BD3ED006AD7ED007A8F
:1092300066EEA77A77EE277A17EE900AFFF7BCF86A
:1092400003460C4644EC103B0CF0B8FE54EC103BCB
:1092500018462146FFF7B8FB03461BB29BB25B42A0
:109260009BB21AB2094B1A8000BF1C37BD4690BD95
:109270007C020020A0020020A4020020A8020020FE
:10928000AC0200203333F33F10E0002028E0002040
:1092900090B587B000AF87ED050AC7ED040A87EDEA
:1092A000031AC7ED021A87ED012AC7ED002A504BB9
:1092B0001B78002B0FD14F4B4FF000021A604E4B22
:1092C0004FF000021A604D4B4FF000021A604C4BF9
:1092D0004FF000021A60464B01221A7097ED057A92
:1092E000D7ED047A77EE677A424BC3ED007A414BB3
:1092F00093ED007AD7ED037A27EE277A3E4BD3ED34
:10930000007A77EE277A3C4BC3ED007A394B93ED28
:10931000007A3B4BD3ED007A77EE676A97ED037ADC
:10932000C6EE877A354BC3ED007A324B1B68344A60
:109330001360304B93ED007AD7ED027A27EE277A4F
:109340002D4BD3ED006AD7ED017A66EEA77A37EEA2
:10935000277A2A4BD3ED006AD7ED007A66EEA77A1A
:1093600077EE277A17EE900AFFF726F803460C46A9
:1093700044EC103B0CF022FE54EC103B1846214606
:10938000FFF722FB03461AB21E4B1A80194B93EDCE
:10939000007AD7ED027A27EE277A174BD3ED006AD1
:1093A000D7ED017A66EEA77A37EE277A134BD3ED25
:1093B000006AD7ED007A66EEA77A77EE277A17EE85
:1093C000900AFEF7F9FF03460C4644EC103B0CF004
:1093D000F5FD54EC103B18462146FFF7F5FA03461D
:1093E0001AB2094B1A8000BF1C37BD4690BD00BFA2
:1093F0007C020020B0020020B4020020B80200204D
:10940000BC02002024E000201CE0002090B587B0C2
:1094100000AF87ED050AC7ED040A87ED031AC7ED13
:10942000021A87ED012AC7ED002A394B1B78002B61
:109430000FD1384B4FF000021A60374B4FF000024B
:109440001A60364B4FF000021A60354B4FF00002A5
:109450001A602F4B01221A7097ED057AD7ED047A26
:1094600077EE677A2B4BC3ED007A2A4B93ED007AA7
:10947000D7ED037A27EE277A274BD3ED007A77EEE4
:10948000277A254BC3ED007A224B93ED007A244BCB
:10949000D3ED007A77EE676A97ED037AC6EE877AA6
:1094A0001E4BC3ED007A1B4B1B681D4A1360194B02
:1094B00093ED007AD7ED027A27EE277A164BD3ED9B
:1094C000006AD7ED017A66EEA77A37EE277A134B5A
:1094D000D3ED006AD7ED007A66EEA77A77EE277AA9
:1094E00017EE900AFEF768FF03460C4644EC103B6B
:1094F0000CF064FD54EC103B18462146FFF764FA6B
:1095000003461AB2074B1A8000BF1C37BD4690BDF8
:109510007C020020C0020020C4020020C8020020FB
:10952000CC02002014E0002090B587B000AF87ED9A
:10953000050AC7ED040A87ED031AC7ED021A87ED85
:10954000012AC7ED002A394B1B78002B0FD1384B6D
:109550004FF000021A60374B4FF000021A60364B92
:109560004FF000021A60354B4FF000021A602F4B8B
:1095700001221A7097ED057AD7ED047A77EE677AB3
:109580002B4BC3ED007A2A4B93ED007AD7ED037A8B
:1095900027EE277A274BD3ED007A77EE277A254BF3
:1095A000C3ED007A224B93ED007A244BD3ED007A81
:1095B00077EE676A97ED037AC6EE877A1E4BC3EDA6
:1095C000007A1B4B1B681D4A1360194B93ED007A00
:1095D000D7ED027A27EE277A164BD3ED006AD7ED46
:1095E000017A66EEA77A37EE277A134BD3ED006A3D
:1095F000D7ED007A66EEA77A77EE277A17EE900A13
:10960000FEF7DAFE03460C4644EC103B0CF0D6FCA9
:1096100054EC103B18462146FFF7D6F903461AB220
:10962000074B1A8000BF1C37BD4690BD7C0200204E
:10963000D0020020D4020020D8020020DC0200204A
:1096400036E0002090B585B000AF87ED030AC7ED86
:10965000020A87ED011AC7ED001A534B1B78002B45
:109660000FD1524B4FF000021A60514B4FF00002E5
:109670001A60504B4FF000021A604F4B4FF000023F
:109680001A60494B01221A704C4B93ED007A4C4BF7
:10969000D3ED007A77EE677A444BC3ED007A434B03
:1096A00093ED007AD7ED037A27EE277A404BD3ED7E
:1096B000007A77EE277A3E4BC3ED007A3B4B93ED71
:1096C000007A3D4BD3ED007A77EE676A97ED037A27
:1096D000C6EE877A374BC3ED007A344B1B68364AA7
:1096E0001360324B93ED007AD7ED027A27EE277A9A
:1096F0002F4BD3ED006AD7ED017A66EEA77A37EEED
:10970000277A2C4BD3ED006AD7ED007A66EEA77A64
:1097100077EE277A17EE900AFEF74EFE03460C46C8
:1097200044EC103B0CF04AFC54EC103B184621462C
:10973000FFF74AF903461AB2224B1A801B4B93EDEE
:10974000007AD7ED027A27EE277A194BD3ED006A1B
:10975000D7ED017A66EEA77A37EE277A154BD3ED6F
:10976000006AD7ED007A66EEA77A77EE277A17EED1
:10977000900AFEF721FE03460C4644EC103B0CF029
:109780001DFC54EC103B18462146FFF71DF903461B
:109790001BB29BB25B429BB21AB20B4B1A8000BF4A
:1097A0001437BD4690BD00BF7C020020E0020020BF
:1097B000E4020020E8020020EC02002030E000205B
:1097C0003CE0002020E0002012E0002080B584B0C2
:1097D00000AF0346FB71FB7963F07F03DBB2FB73E1
:1097E000002204210D4809F019FA07F10F01642342
:1097F00001220B4809F0F2FE07F10E016423012259
:1098000007480AF01FF801220421044809F006FA6B
:10981000BB7B18461037BD4680BD00BF000C024020
:109820003C9D012080B584B000AF03460A46FB7121
:109830001346BB71FB7903F07F03DBB2FB7300229D
:1098400004210C4809F0EAF907F10F016423012211
:10985000094809F0C3FEB91D64230122064809F036
:10986000BDFE01220421034809F0D8F900BF1037DA
:10987000BD4680BD000C02403C9D012080B582B0F9
:1098800000AF0020FFF7A2FF0346BB71BB79E02BBE
:1098900019D10123FB7101210620FFF7C3FF10211D
:1098A0000320FFF7BFFF20217F20FFF7BBFF172119
:1098B0000120FFF7B7FF06211420FFF7B3FF0021B7
:1098C0007F20FFF7AFFFFB7918460837BD4680BD04
:1098D00098B500AF3320FFF779FF03461B021CB297
:1098E0003420FFF773FF03461BB223431AB2114B18
:1098F0001A803520FFF76AFF03461B021CB2362090
:10990000FFF764FF03461BB223431AB20A4B1A80C7
:109910003720FFF75BFF03461B021CB23820FFF71E
:1099200055FF03461BB223431AB2044B1A8000BFF3
:1099300098BD00BF4AE0002048E0002042E000203F
:1099400098B500AF2D20FFF741FF03461B021CB264
:109950002E20FFF73BFF03461BB223431AB2114BE5
:109960001A802F20FFF732FF03461B021CB2302063
:10997000FFF72CFF03461BB223431AB20A4B1A808F
:109980003120FFF723FF03461B021CB23220FFF7F2
:109990001DFF03461BB223431AB2044B1A8000BFBB
:1099A00098BD00BF46E000204CE0002044E00020CD
:1099B00080B582B000AF7860391D4FF6FF73012289
:1099C00003480BF09BFE7B6818460837BD4680BDF8
:1099D000E49D012080B400AF2D4B00221A802C4B57
:1099E000B3F900202B4B1A802A4BB3F900202A4BE5
:1099F0001A80294BB3F90020284B1A80274BB3F962
:109A00000020274B1A80264BB3F90020254B1A80E3
:109A1000244BB3F90020244B1A80234BB3F90020C8
:109A2000224B1A80214BB3F90020214B1A80214B85
:109A300000221A801F4BB3F900201F4B1A801E4BC7
:109A4000B3F900201D4B1A801C4BB3F900201C4BAE
:109A50001A801B4BB3F900201A4B1A80194BB3F92B
:109A60000020194B1A80184BB3F90020174B1A80AD
:109A7000164BB3F90020164B1A80154BB3F9002092
:109A8000144B1A8000BFBD465DF8047B704700BFD1
:109A900036E0002012E0002026E000202CE000202C
:109AA00010E000201EE0002034E000201CE0002038
:109AB00040A7012014E0002020E000202AE0002040
:109AC0002EE0002028E0002040E0002022E00020DE
:109AD00024E00020AC9C012098B500AF194B93F90D
:109AE0000430002B03F00103B8BF5B425BB2012BD3
:109AF00025D0154BD3E900014FF00002134BFEF7C0
:109B0000FDFA03460C46104AC2E900340E4BD3E975
:109B100000014FF000020E4BFEF70EFF0346002B34
:109B200000D10CE00B4BD3E900014FF00002074BD2
:109B3000FEF7E4FA03460C46064AC2E9003400BFC9
:109B400098BD00BF74000020200300200000F03FFB
:109B500000408F4018030020B0B400AF354B002206
:109B60001A605EE0344B00221A6051E0314B1968F4
:109B7000314B1A68314C8B00981814F810300225BC
:109B800065F3871304F810302A4B1C682A4B1868B9
:109B90002A4D8B00134415F81330C3F38113DDB243
:109BA0002649A3001A1811F8123065F3051301F8BD
:109BB0001230204B1968204B1A68204DA300034433
:109BC00015F81330C3F30113DDB21C4C8B00981849
:109BD00014F8103065F3830304F81030154B1C683B
:109BE000154B1B68154889000A4410F81220C2F36F
:109BF0008102D0B21149A2001A4411F8123060F368
:109C0000010301F812300C4B1B6801330A4A136040
:109C1000094B1B68032BA9DD064B1B680133054A62
:109C20001360044B1B68032B9CDD00BFBD46B0BC1A
:109C3000704700BF94DF002098DF0020E0A60120DD
:109C400080B400AF4B4B03221A605DE04A4B002208
:109C50001A6050E0484B1A68464B1B68474992000F
:109C6000134411F81330C3F30103DAB2444B1B68F9
:109C70001146444AD154404B1A683E4B1B683F4939
:109C80009200134411F81330C3F38103DAB23C4B52
:109C90001B68013311463B4AD154374B1A68354B88
:109CA0001B6836499200134411F81330C3F30113B3
:109CB000DAB2334B1B6802331146324AD1542E4B71
:109CC0001A682C4B1B682D499200134411F813306D
:109CD000C3F38113DAB22A4B1B6803331146294AB6
:109CE000D154274B1B680433254A1360224B1B6851
:109CF0000133214A1360204B1B68032BAADD1D4B47
:109D00001B68013B1B4A13601A4B1B68002B9DDA32
:109D1000184B03221A6023E0174B00221A6016E04A
:109D2000154B1968134B1A68154B1B6816488900A8
:109D300001440A441178134AD154114B1B68013372
:109D40000F4A13600C4B1B6801330B4A13600A4B1C
:109D50001B68032BE4DD074B1B68013B054A1360BE
:109D6000044B1B68002BD7DA00BFBD465DF8047BAF
:109D7000704700BF9CDF0020A0DF0020E0A601208C
:109D8000A4DF0020949F002070A2012080B500AFC6
:109D90003F4B00221A6041E03E4B00221A6031E046
:109DA0003D4B1B683D4AD35C19463D480CF0EAFD2B
:109DB000394B1B68013303F00F03002B0ED0364BD9
:109DC0001B680133032B09DD334B1B68013303F0A0
:109DD0000303002B02D133480CF0D4FD2E4B1B683B
:109DE000013303F00F03002B02D12F480CF03EFE8D
:109DF000294B1B680133284A1360264B1B6801332B
:109E0000244A1360234B1B680F2BC9DD26480CF036
:109E10002DFE1F4B1B6801331D4A13601C4B1B6832
:109E2000032BB9DD20480CF021FE1F480CF01EFE6C
:109E3000174B00221A6024E0164B00221A6011E032
:109E4000154B1B68154AD35C194618480CF09AFD4F
:109E5000114B1B680133104A13600E4B1B68013312
:109E60000C4A13600B4B1B68032BE9DD0E480CF00A
:109E7000FDFD0D480CF0FAFD054B1B680133044A4B
:109E80001360034B1B68032BD6DD00BF80BD00BFF2
:109E9000A8DF0020ACDF0020B0DF0020949F00206E
:109EA000E8870108EC870108F0870108F4870108BA
:109EB00080B588B000AF08F07DFA0023BB600123B5
:109EC0003B610223BB6101237B613A1D07F108035B
:109ED0001146184608F0CEFB0346FB7708F08CFAD3
:109EE000FB7F002B05D17B68B3F1FF3F01D101233C
:109EF00000E0002303F00103DBB218462037BD4623
:109F000080BD000080B500AF054A064B10461946DB
:109F10004FF480431A460CF0C5F8014B184680BD3B
:109F2000949F00200040000890B585B000AFFFF777
:109F3000BFFF034683F00103DBB2002B01D00023F7
:109F40002FE01A4B7B6008F035FA4FF480533B60EA
:109F50000023BB6017E0BB689B00154A9918BB68DB
:109F60009B007A6813441B684FF000041A4623468E
:109F7000022008F017F90346FB73FB7B002B07D187
:109F8000BB680133BB60BA683B689A42E3D300E028
:109F900000BF08F031FAFB7B002B0CBF012300232C
:109FA000DBB218461437BD4690BD00BF949F002019
:109FB0000040000880B500AF002104480AF0AEF868
:109FC000002102480BF07BF900BF80BD58E0002063
:109FD00080B500AF002104480AF024F900210248AE
:109FE0000BF0C2F900BF80BD58E0002080B500AF83
:109FF00003220A490A4806F0E1FF0346002B01D07C
:10A0000006F0B2F802220749074806F0D7FF0346D8
:10A01000002B01D006F0A8F800BF80BD789F00207B
:10A02000989D0120809F0020DCE0002080B500AFDB
:10A03000084807F0B5F80346002B01D006F094F865
:10A04000054807F0ADF80346002B01D006F08CF868
:10A0500000BF80BD989D0120DCE0002080B500AFEE
:10A060003C2104480AF0D6FA3C2103480AF0D2FA0F
:10A0700000BF80BDF89C01209CE0002080B500AFAF
:10A080000C2109480AF09EF90346002B01D006F086
:10A090006BF8042105480AF095F90346002B01D01E
:10A0A00006F062F800BF80BD00A70120B49C01202B
:10A0B00080B500AF0C2109480AF0C2F90346002B15
:10A0C00001D006F051F8042105480AF0B9F9034619
:10A0D000002B01D006F048F800BF80BD00A701208A
:10A0E000B49C012080B500AFFFF764FFFFF77EFF4F
:10A0F000FFF7C4FBFFF7C2FF00BF80BD00000000F8
:10A10000B0B500AFFFF7E4FBFFF71AFC564B1B8816
:10A110001BB21846FEF73EF9544BD3E900341A46F9
:10A120002346FDF7E9FF03460C461846214648A39F
:10A13000D3E90023FEF7C2FA03460C46184621462F
:10A1400045A3D3E90023FEF78FF903460C461846D2
:10A1500021464FF00002464BFEF7B0FA03460C468C
:10A16000444AC2E90034444BD3E90001414BD3E9EE
:10A1700000341A462346FDF7C1FF03460C46184635
:10A18000214637A3D3E90023FEF76EF903460C46B8
:10A19000184621464FF000024FF08043FEF78EFA3A
:10A1A00003460C4618462146344BD3E900341A4680
:10A1B0002346FDF7A3FF03460C46304AC2E90034AC
:10A1C0002E4BD3E900452E4BD3E9000122A3D3E95E
:10A1D0000023FEF749F902460B46104619464FF098
:10A1E0000002234BFEF76AFA02460B462046294638
:10A1F000FDF782FF03460C46204AC2E900341D4B9E
:10A20000D3E900341C4AC2E900341C4BD3E90001F5
:10A210004FF00002164BFEF727F903460C4618468E
:10A2200021460DA3D3E90023FEF748FA03460C4666
:10A23000144AC2E900340F4BD3E9003444EC173B15
:10A24000B0EE470AF0EE670AB0BD00BFAFF3008082
:10A250006666666666663040182D4454FB210940E8
:10A26000FCA9F1D24D62503F42E0002010030020D3
:10A2700000806640B8DF0020C0DF0020000300201F
:10A2800018000020F8020020B0B58CB000AF87EDB8
:10A290000A0B87ED081B87ED062B87ED043B87ED46
:10A2A000024B87ED005B7C4B9B7903F00103DBB233
:10A2B000002B0FD0794BD3ED007AF5EE407AF1EE1A
:10A2C00010FA23D1764BD3ED007AF5EE407AF1EE19
:10A2D00010FA1BD1734A4FF000034FF00004C2E99B
:10A2E0000034714A4FF000034FF00004C2E900341B
:10A2F0006E4A4FF000034FF00004C2E900346C4A8C
:10A300004FF000034FF00004C2E90034624A937931
:10A3100043F001039371D7E90823D7E90A01FDF758
:10A32000EBFE03460C465F4AC2E900345D4BD3E9BD
:10A330000001D7E90623FEF797F803460C461846B6
:10A340002146594BD3E900341A462346FDF7D6FE81
:10A3500003460C46544AC2E90034524BD3E900018B
:10A36000534BD3E900341A462346FDF7C5FE034696
:10A370000C4618462146D7E90623FEF79FF9034607
:10A380000C464A4AC2E90034464BD3E90034484AF5
:10A39000C2E90034434BD3E90001D7E90423FEF7B7
:10A3A00063F803460C4625461C463F4BD3E90001A3
:10A3B000D7E90223FEF758F802460B462046294605
:10A3C000FDF79CFE03460C4625461C46374BD3E959
:10A3D0000001D7E90023FEF747F802460B46204666
:10A3E0002946FDF78BFE03460C4644EC173BB0EEC6
:10A3F000470AF0EE670A0BF0E1FD54EC103B1846FB
:10A400002146FEF7E1FA03461BB29BB25B429BB2C8
:10A410001AB2284B1A80234BD3E90001D7E9042351
:10A42000FEF722F803460C4625461C461E4BD3E990
:10A430000001D7E90223FEF717F802460B46204633
:10A440002946FDF75BFE03460C4625461C46174B86
:10A45000D3E90001D7E90023FEF706F802460B46D0
:10A4600020462946FDF74AFE03460C4644EC173BBE
:10A47000B0EE470AF0EE670A0BF0A0FD54EC103B7B
:10A4800018462146FEF7A0FA03461AB20A4B1A8074
:10A4900000BF3037BD46B0BD74000020F002002080
:10A4A000F4020020C8DF0020D0DF0020D8DF002029
:10A4B000E0DF002026E000202AE00020F0B589B08F
:10A4C00000AF6B461E464FF47A7006F0D1FB4FF496
:10A4D000FA63FB81B7F90E000346013BBB600346FC
:10A4E00019464FF000024FF000034FF000049401B2
:10A4F00044EA91648B01034619464FF000024FF085
:10A5000000034FF00004940144EA91648B01034678
:10A51000DB0007330733DB08DB00ADEB030D6B46D5
:10A520000733DB08DB007B600023FB8323E0204B49
:10A530001B881BB2FD8B1846FDF72CFF03460C460B
:10A540007968EA000A44C2E90034FB8B7A68DB00D0
:10A550001344D3E900341A462346D7E90401FDF732
:10A56000CDFD03460C46C7E90434022006F080FB0B
:10A57000FB8B0133FB83FA8BB7F90E309A42D6DBA3
:10A58000B7F90E301846FDF705FF03460C461A468C
:10A590002346D7E90401FEF791F803460C46054A25
:10A5A000C2E90034B54600BF2437BD46F0BD00BF48
:10A5B00042E000201003002080B500AF5A4B93F911
:10A5C0000030072B00F2AC8001A252F823F000BF4C
:10A5D000F1A5000817A600083DA6000863A600081C
:10A5E00089A60008AFA60008D5A60008FBA60008AB
:10A5F00000224FF400714D4808F010FB00224FF488
:10A6000080714A4808F00AFB00224FF40071484864
:10A6100008F004FB85E001224FF40071434808F084
:10A62000FDFA00224FF48071404808F0F7FA00224A
:10A630004FF400713E4808F0F1FA72E000224FF446
:10A6400000713A4808F0EAFA01224FF48071374865
:10A6500008F0E4FA00224FF40071354808F0DEFA01
:10A660005FE001224FF40071304808F0D7FA012270
:10A670004FF480712D4808F0D1FA00224FF4007198
:10A680002B4808F0CBFA4CE000224FF40071274829
:10A6900008F0C4FA00224FF48071244808F0BEFA92
:10A6A00001224FF40071224808F0B8FA39E0012283
:10A6B0004FF400711D4808F0B1FA00224FF4807188
:10A6C0001A4808F0ABFA01224FF40071184808F05C
:10A6D000A5FA26E000224FF40071144808F09EFA13
:10A6E00001224FF48071114808F098FA01224FF4CA
:10A6F00000710F4808F092FA13E001224FF4007144
:10A700000A4808F08BFA01224FF48071074808F0DC
:10A7100085FA01224FF40071054808F07FFA00E045
:10A7200000BF00BF80BD00BF7400002000080240D1
:10A730000004024080B582B000AF03460A46FB80A9
:10A740001346BB80B7F90630002B05DD012204213A
:10A750001A4808F063FA0CE0B7F90630002B08DA63
:10A7600000220421154808F059FAFB885B429BB28D
:10A77000FB80B7F90430002B05DD002201210F48D2
:10A7800008F04CFA0CE0B7F90430002B08DA01228B
:10A7900001210A4808F042FABB885B429BB2BB80A9
:10A7A000074B1B68B7F906201A64064B1B68B7F9FC
:10A7B00004209A6300BF0837BD4680BD00000240F8
:10A7C00000A70120B49C012080B400AF804B1B88FF
:10A7D0001AB2804B1A807E4B5B881AB27E4B1A806D
:10A7E0007E4B1B881AB27E4B1A807C4B5B881AB258
:10A7F0007C4B1A807C4BB3F900301A46754BB3F989
:10A800000030D31A002BB8BF5B421AB2774B1A80C4
:10A81000774BB3F900301A466F4BB3F90030D31AB7
:10A82000002BB8BF5B421AB2724B1A80724BB3F95D
:10A8300000301A466A4BB3F90030D31A002BB8BF68
:10A840005B421AB26D4B1A806D4BB3F900301A4659
:10A85000644BB3F90030D31A002BB8BF5B421AB275
:10A86000684B1A805B4BB3F900205F4B1A805A4B40
:10A87000B3F900205E4B1A80594BB3F900205E4BB0
:10A880001A80584BB3F900205D4B1A80504B9B88BF
:10A8900007EE903AF8EE677A5B4BC3ED007A5B4BBC
:10A8A000B3F900309AB2514BB3F900309BB2134464
:10A8B0009BB21AB2554B1A80554BB3F900309AB27D
:10A8C0004C4BB3F900309BB213449BB21AB2504BBD
:10A8D0001A80504BB3F900309AB2484BB3F90030AC
:10A8E0009BB213449BB21AB24A4B1A804A4BB3F93B
:10A8F00000309AB2434BB3F900309BB213449BB281
:10A900001AB2454B1A80454B1B680133434A13600A
:10A91000424B1B680A2B56D13C4BB3F9003007EE73
:10A92000903AF8EEE76A3D4B1B6807EE903AB8EEB6
:10A93000E77AC6EE877A3A4BC3ED007A344BB3F927
:10A94000003007EE903AF8EEE76A344B1B6807EEEA
:10A95000903AB8EEE77AC6EE877A324BC3ED007ACA
:10A960002C4BB3F9003007EE903AF8EEE76A2B4B28
:10A970001B6807EE903AB8EEE77AC6EE877A2A4B64
:10A98000C3ED007A244BB3F9003007EE903AF8EEAD
:10A99000E76A224B1B6807EE903AB8EEE77AC6EEFC
:10A9A000877A224BC3ED007A184B00221A80184B8D
:10A9B00000221A80174B00221A80174B00221A809F
:10A9C000164B00221A6000BFBD465DF8047B70473D
:10A9D000789F002024E1002028000020809F002094
:10A9E000869F002042A7012028E1002026E10020C8
:10A9F0008A9F00208C9F0020889F00208E9F00202F
:10AA000050E00020F49C0120BCA70120AE9C012056
:10AA1000E09D0120949D0120389D0120E8DF002069
:10AA2000A8A70120D8A6012054E00020B09C012056
:10AA300080B487B000AF87ED010AC7ED000A0F4B65
:10AA40007B614FF08E433B61D7ED056AD7ED047A09
:10AA500086EEA77AD7ED017A67EE276A97ED007A3E
:10AA6000C6EE877AC7ED037AFB6807EE903AB0EE40
:10AA7000670A1C37BD465DF8047B70470E1F824293
:10AA800080B400AF064B47F22F525A62054B47F293
:10AA90002F525A6200BFBD465DF8047B704700BF6D
:10AAA000000400400008004080B483B000AF0346BB
:10AAB000FB80B7F90630002B02D10023FB8030E089
:10AAC000B7F90630012B2CD11A4B5A68194B1B6869
:10AAD0001344184A5360184B5A68174B1B681344A9
:10AAE000154A5360134B5A68134B5B68134407EEC7
:10AAF000903AB8EEE77AF0EE006AC7EE267AFDEEFD
:10AB0000E77A17EE902A0D4B5A600A4B1A680A4BE7
:10AB10001B681A440A4B1B681344094A136001233B
:10AB2000FB80B7F9063018460C37BD465DF8047B4C
:10AB3000704700BF500000205C000020680000202B
:10AB40003003002090B585B000AF87ED000B0F4BB0
:10AB5000D3E90034C7E9023400BFD7E90023D7E9BD
:10AB60000201FDF7CBFA03460C4618462146074B77
:10AB7000D3E900341A462346FDF706FF0346002BAF
:10AB8000EBD100BF1437BD4690BD00BF28030020A5
:10AB900080B500AF224B00221A70FEF71BFF214B3D
:10ABA00000225A60204B00225A60204B00225A603B
:10ABB0001F4B0122DA7005E01D4B04225A711C4B19
:10ABC00001225A70174B5A68174B5B681344002BCD
:10ABD0000FDB144B5A68144B5B6813441846FDF79F
:10ABE000D9FB0DA3D3E90023FDF7B0FE0346002BEC
:10ABF000E2D10F4B00225A700E4B0F4A1A60094BDC
:10AC000000225A60084B00225A60084B00225A600A
:10AC100000BF80BDAFF30080C8BD6EFC245FEE4076
:10AC20007C020020500000205C0000206800002012
:10AC300074000020F00200200000344300000000F7
:10AC400080B500AF4A4B00221A70FEF7C3FE494B95
:10AC500003225A71484B00225A60484B00225A6026
:10AC6000474B00225A60434B0122DA704DE0414BC2
:10AC700002225A70404B5A68404B5B681344184696
:10AC8000FDF788FB36A3D3E90023FDF77DFE0346DD
:10AC9000002B37D03B4BD3ED007A9FED3B7AF4EE9F
:10ACA000C77AF1EE10FA0DDD384BD3ED007A9FED47
:10ACB000387AF4EEC77AF1EE10FA03DD2D4B00225C
:10ACC0005A7122E0314BD3ED007A9FED317AF4EEE8
:10ACD000C77AF1EE10FA03DD264B01225A7114E017
:10ACE000284BD3ED007A9FED287AF4EEC77AF1EE87
:10ACF00010FA03DD1F4B02225A7106E01D4B04229D
:10AD00005A7102E01B4B04225A711B4B5A681B4BB1
:10AD10005B681344002B0FDB174B5A68174B5B68BB
:10AD200013441846FDF736FB0FA3D3E90023FDF7C4
:10AD30000DFE0346002B9AD10E4B00225A70154B84
:10AD4000154A1A600C4B00225A600C4B00225A60C4
:10AD50000B4B00225A6000BF80BD00BFAFF30080E4
:10AD600066AE04DEA997D840F59C6AE11822E64059
:10AD70007C02002074000020500000205C000020B5
:10AD800068000020D8A601200000C84254E000203E
:10AD900000000C43F00200200000344300000000DB
:10ADA00080B500AF484B03225A714DE0464B032259
:10ADB0005A70464B5A68464B5B6813441846FDF779
:10ADC000E9FA3DA3D3E90023FDF7C0FD0346002BBC
:10ADD00037D0404BD3ED007A9FED3F7AF4EEC77A3F
:10ADE000F1EE10FA0DDD3D4BD3ED007A9FED3C7A8C
:10ADF000F4EEC77AF1EE10FA03DD334B00225A71FC
:10AE000022E0364BD3ED007A9FED357AF4EEC77A27
:10AE1000F1EE10FA03DD2C4B01225A7114E02D4B98
:10AE2000D3ED007A9FED2C7AF4EEC77AF1EE10FAAA
:10AE300003DD254B02225A7106E0234B04225A718E
:10AE400002E0214B04225A71204B5A68204B5B6868
:10AE500013441846FDF79EFA19A3D3E90023FDF722
:10AE600075FD0346002B12D01E4B93ED007A1E4B4E
:10AE7000D3ED007A37EE277AF0EE006AC7EE267A35
:10AE80009FED1A7AF4EEC77AF1EE10FA8ED40E4BDB
:10AE900000225A700C4B05225A71154B4FF00002DC
:10AEA0001A60094B0022DA70124B00221A70FEF76A
:10AEB00091FD00BF80BD00BF47D138D7CB82DD40B8
:10AEC000F59C6AE11822E640740000205000002042
:10AED0005C000020D8A601200000C84254E00020F9
:10AEE00000000C43A8A70120B09C012000C0F3443F
:10AEF000F00200207C020020B0B500AF7EE0544B91
:10AF00005A68544B5B6813441846FDF743FA0446ED
:10AF10000D46514BD3ED007A77EEA77A17EE900AE3
:10AF2000FDF74AFA46A3D3E90023FDF79DFA02464E
:10AF30000B4620462946FDF709FD0346002B22D18A
:10AF4000454BD3ED007A77EEA77A17EE900AFDF71E
:10AF500033FA3DA3D3E90023FDF7CEF803460C46B0
:10AF600025461C463A4B5A683A4B5B6813441846D0
:10AF7000FDF710FA02460B4620462946FDF7E6FC8F
:10AF80000346002B37D0354BD3ED007A9FED347A52
:10AF9000F4EEC77AF1EE10FA0DDD324BD3ED007A04
:10AFA0009FED317AF4EEC77AF1EE10FA03DD2F4B04
:10AFB00000225A711EE02B4BD3ED007A9FED2A7AC6
:10AFC000F4EEC77AF1EE10FA03DD284B01225A7134
:10AFD00014E0224BD3ED007A9FED217AF4EEC77A8C
:10AFE000F1EE10FA03DD214B02225A7106E01F4BED
:10AFF00004225A7102E01D4B04225A71144B5A6804
:10B00000144B5B68134407EE903AB8EEE77A124BA4
:10B01000D3ED007A77EEA77AB4EEE77AF1EE10FA84
:10B020003FF56DAF0A4B00225A600A4B00225A606E
:10B030000F4B00225A6000BFB0BD00BFAFF30080CD
:10B04000CDCCCCCCCCCCDC3F46D138D7CB82DD408C
:10B05000500000205C00002000000020D8A6012045
:10B060000000C84254E0002000000C43740000209F
:10B0700068000020000000002DE9B0432DED028B98
:10B0800084B000AF034687ED000BFB73FEF7F6FFBD
:10B0900097F90F30002B37DA27E0474B93ED008B01
:10B0A000464B1B681846FDF787F904460D46434B8F
:10B0B0005B681846FDF780F9804689463F4B9B68E0
:10B0C0001846FDF779F902460B4643EC152B49EC7F
:10B0D000148B45EC134B9FED362BB0EE481AF0EE77
:10B0E000681A97ED000BFFF7CFF897F90F30184665
:10B0F000FDF750F9324BD3E900341A462346FDF7E9
:10B1000025FC0346002BC8D197F90F30002B37DD03
:10B1100027E0294B93ED008B284B1B681846FDF761
:10B120004BF904460D46254B5B681846FDF744F97C
:10B1300080468946214B9B681846FDF73DF902463B
:10B140000B4643EC152B49EC148B45EC134B9FED50
:10B15000182BB0EE481AF0EE681A97ED000BFFF7C7
:10B1600093F897F90F301846FDF714F9144BD3E90B
:10B1700000341A462346FDF707FC0346002BC8D1CE
:10B18000104B0022DA70104A4FF000034FF0000419
:10B19000C2E900340A4A4FF000034FF00004C2E94C
:10B1A000003400BF1037BD46BDEC028BBDE8B08354
:10B1B000FCA9F1D24D62503F08030020440000205A
:10B1C000F8020020740000200003002080B582B047
:10B1D00000AF0023FB7145E0284B4FF000021A60DE
:10B1E000274B00221A70FEF7F5FB264B00225A600F
:10B1F000254B00225A60254B00225A60244B012225
:10B20000DA7005E0224B03225A71224B224A1A605F
:10B210001C4B5A681C4B5B68D31A07EE903AB8EE89
:10B22000E77A1E4BD3ED007A77EEA77AB4EEE77A91
:10B23000F1EE10FAE6D9164B0022DA70154B4FF0FA
:10B2400000021A600D4B4FF000021A600D4B0022F5
:10B250005A600D4B00225A600C4B00225A60FB7959
:10B260000133FB71FB79002BB6D0054B00221A701D
:10B27000FEF7B0FB00BF0837BD4680BDF0020020DE
:10B280007C020020500000205C00002068000020AC
:10B2900074000020F4020020000040C004000020E0
:10B2A00080B582B000AF0023FB7145E0284B4FF022
:10B2B00000021A60274B00221A70FEF78BFB264B08
:10B2C00000225A60254B00225A60254B00225A600A
:10B2D000244B0122DA7005E0224B03225A71224BE3
:10B2E000224A1A601D4B5A681B4B5B68D31A07EE43
:10B2F000903AB8EEE77A1E4BD3ED007A77EEA77A54
:10B30000B4EEE77AF1EE10FAE6D9164B0022DA70C5
:10B31000154B4FF000021A600D4B4FF000021A60FF
:10B320000D4B00225A600D4B00225A600C4B00223C
:10B330005A60FB790133FB71FB79002BB6D0054BCA
:10B3400000221A70FEF746FB00BF0837BD4680BDDD
:10B35000F00200207C020020500000205C00002051
:10B360006800002074000020F4020020000040402B
:10B37000040000200000000098B500AF504B0622EA
:10B380005A7102E04E4B06225A704E4B5A684E4B91
:10B390005B6813441846FCF7FDFF3FA3D3E9002385
:10B3A000FDF7D4FA0346002BECD1454B00225A702E
:10B3B00021E0464B464A1A60464B474A1A60454BC5
:10B3C0001B681846FCF7F8FF35A3D3E90023FDF707
:10B3D0004BF803460C461846214633A3D3E9002315
:10B3E000FDF76CF903460C4618462146FDF714FBA1
:10B3F00002463A4B1A60334B5A68334B5B6813442E
:10B400001846FCF7C7FF24A3D3E90023FDF7B2FADF
:10B410000346002B0FD02B4B5A682B4B5B68134411
:10B420001846FCF7B7FF22A3D3E90023FDF78EFAF5
:10B430000346002BBDD102E0214B07225A70214B5D
:10B440005A68214B5B6813441846FCF7A3FF1AA304
:10B45000D3E90023FDF77AFA0346002BECD1184B11
:10B4600000225A70164B04225A71164B00225A6061
:10B47000154B00225A601A4B00225A60154B4FF0B0
:10B4800000021A60154B4FF000021A600F4B104A71
:10B490001A6000BF98BD00BF39484F2382F0B74003
:10B4A0009A99999999994A403333333333B35F402A
:10B4B0003F3A959A38C6EF40A3917F6F2462F140DE
:10B4C00074000020500000205C000020F0020020EA
:10B4D0000000344338E000209A997D4318E00020B2
:10B4E000680000200000000098B500AF504B062215
:10B4F0005A7102E04E4B04225A704E4B5A684E4B22
:10B500005B6813441846FCF745FF3FA3D3E90023CB
:10B51000FDF71CFA0346002BECD1454B00225A7074
:10B5200021E0464B464A1A60464B474A1A60454B53
:10B530001B681846FCF740FF35A3D3E90023FCF74E
:10B5400093FF03460C461846214633A3D3E9002354
:10B55000FDF7B4F803460C4618462146FDF75CFAA1
:10B5600002463A4B1A60334B5A68334B5B681344BC
:10B570001846FCF70FFF24A3D3E90023FDF7FAF9DF
:10B580000346002B0FD02B4B5A682B4B5B681344A0
:10B590001846FCF7FFFE22A3D3E90023FDF7D6F9F6
:10B5A0000346002BBDD102E0214B05225A70214BEE
:10B5B0005A68214B5B6813441846FCF7EBFE1AA34C
:10B5C000D3E90023FDF7C2F90346002BECD1184B59
:10B5D00000225A70164B04225A71164B00225A60F0
:10B5E000154B00225A601A4B00225A60174B4FF03D
:10B5F00000021A60134B4FF000021A600F4B104A02
:10B600001A6000BF98BD00BF39484F2382F0B74091
:10B610009A99999999994A403333333333B35F40B8
:10B620003F3A959A38C6EF40A3917F6F2462F1406C
:10B6300074000020500000205C000020F002002078
:10B640000000344318E000209A997D4338E0002040
:10B65000680000200000000080B500AF70E0564B8D
:10B660005A68564B5B6813441846FCF793FE4AA38E
:10B67000D3E90023FDF76AF90346002B05D0504BB0
:10B6800004225A714F4B504A1A604B4B5A684B4B2D
:10B690005B6813441846FCF77DFE3FA3D3E9002303
:10B6A000FDF768F90346002B22D0434B5A68434B01
:10B6B0005B6813441846FCF76DFE39A3D3E90023F9
:10B6C000FDF744F90346002B12D03D4B06225A7178
:10B6D0003C4B3D4A1A603D4B3D4A1A603B4BD3ED13
:10B6E000007A9FED3C7A67EE877A3B4BC3ED007A98
:10B6F000314B5A68314B5B6813441846FCF74AFEDD
:10B7000027A3D3E90023FDF735F90346002B00D129
:10B7100016E0294B5A68294B5B6813441846FCF71E
:10B7200039FE21A3D3E90023FDF710F90346002BCE
:10B7300000D105E0224B04225A71224B224A1A60A2
:10B740001D4B5A681D4B5B6813441846FCF722FEDC
:10B7500017A3D3E90023FDF7F9F80346002B7FF484
:10B760007EAF174B04225A71134B00225A60134BC1
:10B7700000225A60194B00225A60144B4FF000020D
:10B780001A60154B4FF000021A600E4B0E4A1A60F9
:10B7900000BF80BDAFF3008052AFCD04962ADA40DF
:10B7A00002170040854CEB4055773321E830F440D8
:10B7B00056773321E830F440500000205C00002030
:10B7C00074000020F00200200000344338E0002024
:10B7D0000000B4430000000018E0002068000020D2
:10B7E00080B500AF70E0564B5A68564B5B68134407
:10B7F0001846FCF7CFFD4AA3D3E90023FDF7A6F8CE
:10B800000346002B05D0504B04225A714F4B504A2F
:10B810001A604B4B5A684B4B5B6813441846FCF755
:10B82000B9FD3FA3D3E90023FDF7A4F80346002B9D
:10B8300022D0434B5A68434B5B6813441846FCF7CD
:10B84000A9FD39A3D3E90023FDF780F80346002BB7
:10B8500012D03D4B06225A713C4B3D4A1A603D4B7B
:10B860003D4A1A603B4BD3ED007A9FED3C7A67EE80
:10B87000877A3B4BC3ED007A314B5A68314B5B689A
:10B8800013441846FCF786FD27A3D3E90023FDF7F0
:10B8900071F80346002B00D116E0294B5A68294B5A
:10B8A0005B6813441846FCF775FD21A3D3E9002318
:10B8B000FDF74CF80346002B00D105E0224B042293
:10B8C0005A71224B224A1A601D4B5A681D4B5B6805
:10B8D00013441846FCF75EFD17A3D3E90023FDF7D8
:10B8E00035F80346002B7FF47EAF174B04225A71C4
:10B8F000134B00225A60134B00225A60194B00224E
:10B900005A60174B4FF000021A60124B4FF00002C2
:10B910001A600E4B0E4A1A6000BF80BDAFF3008064
:10B9200052AFCD04962ADA4002170040854CEB4016
:10B9300055773321E830F44056773321E830F4402E
:10B94000500000205C00002074000020F002002065
:10B950000000344318E000200000B4430000000061
:10B9600038E000206800002080B582B000AF0023DE
:10B97000FB7154E0304B4FF000021A602F4B002255
:10B980001A70FEF727F82E4B00225A602D4B00222A
:10B990005A602D4B00225A602C4B0122DA7005E0D0
:10B9A0002A4B03225A712A4B2A4A1A60244B5B689D
:10B9B00007EE903AB8EEE77A274BD3ED007A77EEB0
:10B9C000A77AB4EEE77AF1EE10FAE9D91D4B5B687D
:10B9D00007EE903AB8EEE77A1F4BD3ED007AF1EE1E
:10B9E000677A77EEA77AB4EEE77AF1EE10FAD7DA53
:10B9F000164B0022DA70104B4FF000021A60144B05
:10BA00004FF000021A600E4B00225A600D4B0022CC
:10BA10005A600D4B00225A60FB790133FB71FB79B0
:10BA2000002BA7D0054B00221A70FDF7D3FF00BFF3
:10BA30000837BD4680BD00BFF00200207C02002018
:10BA4000500000205C0000206800002074000020EE
:10BA5000F40200200000C0C004000020000000002C
:10BA600080B582B000AF2A4B00221A70FDF7B2FFFA
:10BA7000284B00225A60284B00225A60274B002294
:10BA80005A60274B0122DA7005E0264B264A1A60DD
:10BA9000234B04225A711F4B5A681F4B5B68134497
:10BAA0001846FCF777FC18A3D3E90023FCF76CFFDA
:10BAB0000346002BE9D11B4B4FF000021A60184BD4
:10BAC00005225A71164B0022DA70124B00225A607E
:10BAD000114B00225A60114B00225A600C4B00227D
:10BAE0001A70FDF777FF00237B6002E07B6801336B
:10BAF0007B607B680D4A9342F8DD00BF0837BD4686
:10BB000080BD00BFAFF3008087643C2F3A65D5C08D
:10BB10007C020020500000205C0000206800002013
:10BB200074000020F00200200000B4C2BFD4010065
:10BB300080B500AF1E4B5B7A032B2DD801A252F8C3
:10BB400023F000BF55BB000873BB000879BB000899
:10BB50007FBB0008FFF724F99FED110BFEF7F2FF02
:10BB6000FFF734FB9FED0E0BFEF7ECFFFFF768F8D5
:10BB700012E0FFF701FC0FE0FFF76EFD0CE0FFF7AE
:10BB80000FF99FED090B6FF05900FFF775FAFDF7FC
:10BB900075FEFFF755F800BF00BF80BDAFF3008012
:10BBA000333333333333D33F00000000000014C07D
:10BBB000740000200000000080B500AF1E4B5B7ACF
:10BBC000032B2CD801A252F823F000BFDDBB0008E4
:10BBD000FBBB000801BC000807BC0008FFF7E0F849
:10BBE0009FED110BFEF7AEFFFFF75AFB9FED0E0B1B
:10BBF000FEF7A8FFFFF724F811E0FFF775FC0EE051
:10BC0000FFF7EEFD0BE0FFF7CBF89FED090B5A2095
:10BC1000FFF732FAFDF732FEFFF712F800BF00BF60
:10BC200080BD00BFAFF30080333333333333D33FB2
:10BC300000000000000014407400002080B500AF38
:10BC40004FF480515B4806F0D1FF0346012B40F0D2
:10BC5000A38059480AF00AFFFEF72AFA574808F06D
:10BC6000FCF9574808F0F9F9FEF7B2F9FEF7DEF9EA
:10BC70004FF4C87004F0FCFF524B93F90430DBB270
:10BC80000133DBB25AB24F4B1A714E4B93F9043069
:10BC9000052B40F081804B4B03221A717CE04A4B0C
:10BCA0005B6A1A46494B1A60484B1B68194648485C
:10BCB0000AF068FE454B1B6849F22E5293421EDD86
:10BCC000404B93F90030DBB20133DBB25AB23D4B4B
:10BCD0001A703C4B93F90030072B02DD394B0022E0
:10BCE0001A70FEF769FCFEF7CBFE364B93F9002085
:10BCF000344B9A704FF4FA7004F0BAFF4CE0334BB7
:10BD00001B6845F22F5293421EDC2E4B93F90030F4
:10BD1000DBB2013BDBB25AB22A4B1A70294B93F9C2
:10BD20000030002B02DA274B07221A70FEF744FC82
:10BD3000FEF7A6FE234B93F90020224B9A704FF496
:10BD4000FA7004F095FF27E04FF48051194806F08F
:10BD50004DFF0346012B1FD11E480AF087FE4FF40A
:10BD6000FA7004F085FFFEF7BDF9174B47F22F522A
:10BD70005A62194B47F22F525A62114808F049F99A
:10BD80000E4808F046F90F4B93F90430DBB201334B
:10BD9000DBB25AB20B4B1A710A4B93F90430002BE9
:10BDA00003F00103B8BF5B425BB2012B3FF477AFF6
:10BDB00000BF80BD0004024084880108B0A20120B9
:10BDC00058E00020740000200004004050000020D3
:10BDD00090880108F08701080008004080B485B011
:10BDE00000AF0023FB600023BB6000237B600023C7
:10BDF0003B600023FB6013E00023BB600AE0934A32
:10BE0000FB689B001A44BB6813440F221A70BB687E
:10BE10000133BB60BB68032BF1DDFB680133FB60C2
:10BE2000FB68032BE8DD0223FB6013E00023BB600B
:10BE30000AE0864AFB689B001A44BB681344002250
:10BE40001A70BB680133BB60BB68012BF1DDFB6876
:10BE50000133FB60FB68032BE8DD00237B600023DC
:10BE6000FB60E2E00023BB60D8E0784AFB689B00FF
:10BE70001A44BB6813441B781A463B68934240F04F
:10BE8000CA807349FB689A00BB68134411F81330E9
:10BE9000C3F30103DBB2012B25D0BB6801336B492F
:10BEA000FA6892000A4413441A786849FB689B00B8
:10BEB0001944BB680B441B789A4214D9BB68022B07
:10BEC00011DC624AFB689B001A44BB6813441A7871
:10BED000BB6801330132D0B25C49FA6892000A446F
:10BEE000134402461A705A49FB689A00BB6813440F
:10BEF00011F81330C3F38103DBB2012B25D0FB68AB
:10BF00000133524A9B001A44BB6813441A784F49C4
:10BF1000FB689B001944BB680B441B789A4214D9F8
:10BF2000FB68022B11DC494AFB689B001A44BB6882
:10BF300013441A78FB6801330132D1B2434A9B00A3
:10BF40001A44BB6813440A461A704149FB689A00B8
:10BF5000BB68134411F81330C3F30113DBB2012B98
:10BF600025D0BB68013B3949FA6892000A44134462
:10BF70001A783649FB689B001944BB680B441B7850
:10BF80009A4214D9BB68002B11DD304AFB689B0034
:10BF90001A44BB6813441A78BB68013B0132D0B223
:10BFA0002A49FA6892000A44134402461A70284942
:10BFB000FB689A00BB68134411F81330C3F3811374
:10BFC000DBB2012B25D0FB68013B204A9B001A44C1
:10BFD000BB6813441A781D49FB689B001944BB6871
:10BFE0000B441B789A4214D9FB68002B11DD174AC9
:10BFF000FB689B001A44BB6813441A78FB68013B3A
:10C000000132D1B2114A9B001A44BB6813440A465C
:10C010001A7001237B60BB680133BB60BB68032BD4
:10C020007FF723AFFB680133FB60FB68032B7FF7CF
:10C0300019AF3B6801333B607B68002B7FF40DAF89
:10C0400000BF1437BD465DF8047B704770A2012025
:10C05000E0A6012080B500AF4FF47A7004F008FE2E
:10C06000FEF7EEFDFEF748FFFEF746FFFEF798FEEF
:10C07000FEF71EF80A4807F0F0FF0A4807F0EDFF48
:10C08000094B1B68194609480AF07CFC084B1B68E1
:10C09000194608480AF076FC07480AF0E7FCEFE783
:10C0A000B0A2012058E00020340300209888010845
:10C0B00030030020B4880108F087010890B482B0F2
:10C0C00000AF8B4B93ED007A8A4BD3ED007A37EEBD
:10C0D000277AF0EE006AC7EE267AB3EE0E7AF4EE17
:10C0E000C77AF1EE10FACCBF01230023DAB2824BFB
:10C0F0001B7807F108010B4403F8042C7F4BD3EDA8
:10C10000007A9FED7F7AF4EEC77AF1EE10FACCBF99
:10C1100001230023D9B2784B1B7801335A4203F034
:10C12000030302F0030258BF53420A4607F1080115
:10C130000B4403F8042C704B1B7802335A4203F073
:10C14000030302F0030258BF534207F108021344ED
:10C15000002203F8042C6B4BD3ED007A9FED6A7A32
:10C16000F4EEC77AF1EE10FACCBF01230023D9B266
:10C17000614B1B7803335A4203F0030302F00302BE
:10C1800058BF53420A4607F108010B4403F8042C38
:10C1900039795E4B1B781C465D4B1B781A460B4663
:10C1A00003F00303D8B25B49A3001A4411F812301C
:10C1B00060F3010301F812307979544B1B781C4667
:10C1C000534B1B781A460B4603F00303D8B2514970
:10C1D000A3001A4411F8123060F3830301F81230FF
:10C1E000B9794A4B1B781C46494B1B781A460B46BB
:10C1F00003F00303D8B24749A3001A4411F81230E0
:10C2000060F3051301F81230F979404B1B781C4696
:10C210003F4B1B781A460B4603F00303D8B23D4947
:10C22000A3001A4411F8123060F3871301F812309A
:10C23000374B1B78022B12D83979344B1B781A46AE
:10C24000334B1B78013301F00301C8B2314992002E
:10C250001A4411F8123060F3051301F812302B4B19
:10C260001B78022B11D87979284B1B780133284A87
:10C27000127801F00301C8B226499B001A4411F854
:10C28000123060F3871301F81230214B1B78002B1A
:10C2900012D0B9791D4B1B781A461D4B1B78013BF8
:10C2A00001F00301C8B21B4992001A4411F8123080
:10C2B00060F3010301F81230144B1B78002B11D0EE
:10C2C000F979124B1B78013B114A127801F00301F6
:10C2D000C8B210499B001A4411F8123060F383036E
:10C2E00001F8123000BF0837BD4690BC704700BF50
:10C2F000A8A70120B09C01202AE10020D8A6012097
:10C300000000C84254E0002000000C43849F00203D
:10C31000859F0020E0A6012080B5BEB000AFFFF7EA
:10C32000CDFEFFF75BFDCC4B1B78032B00F2F786AD
:10C3300001A252F823F000BF49C30008FDC600085F
:10C34000A7CA0008E3CD0008FEF77AFCFEF728FD37
:10C35000C24B1B780133DAB2C04B1A70FFF7AEFE46
:10C360000023C7F8F03004E0D7F8F0300133C7F805
:10C37000F030D7F8F000FCF70DF8B5A3D3E90023AF
:10C38000FCF7E4FA0346002BEED1B54B1B78022BE9
:10C3900003D1522387F8F73006E0B14B1B78032B0B
:10C3A00002D14C2387F8F73097F8F730522B40F042
:10C3B000C980FEF70BFFA84B01221A700023C7F8B3
:10C3C000EC3004E0D7F8EC300133C7F8EC30D7F8A4
:10C3D000EC00FBF7DFFF9EA3D3E90023FCF7B6FADE
:10C3E0000346002BEED1FEF72BFCFEF7D9FC9C4B4D
:10C3F0001B780133DAB29A4B1A70FFF75FFE002305
:10C40000C7F8E83004E0D7F8E8300133C7F8E8307F
:10C41000D7F8E800FBF7BEFF8DA3D3E90023FCF7B4
:10C4200095FA0346002BEED1FEF7D0FE8A4B02228E
:10C430001A700023C7F8E43004E0D7F8E430013381
:10C44000C7F8E430D7F8E400FBF7A4FF80A3D3E9F2
:10C450000023FCF77BFA0346002BEED1FEF7F0FB3E
:10C46000FEF79EFC7D4B1B78013BDAB27B4B1A70CA
:10C47000FFF724FE0023C7F8E03004E0D7F8E030EF
:10C480000133C7F8E030D7F8E000FBF783FF70A373
:10C49000D3E90023FCF75AFA0346002BEED1FEF74E
:10C4A00095FE6D4B03221A700023C7F8DC3004E0C0
:10C4B000D7F8DC300133C7F8DC30D7F8DC00FBF705
:10C4C00069FF63A3D3E90023FCF740FA0346002B7E
:10C4D000EED1FEF7B5FBFEF763FC604B1B78013B2A
:10C4E000DAB25E4B1A700023C7F8D83004E0D7F8F0
:10C4F000D8300133C7F8D830D7F8D800FBF74AFF57
:10C5000053A3D3E90023FCF721FA0346002BEED115
:10C51000FEF7C6FE504B02221A700023C7F8D43033
:10C5200004E0D7F8D4300133C7F8D430D7F8D400BA
:10C53000FBF730FF46A3D3E90023FCF707FA0346D5
:10C54000002BEED197F8F7304C2B40F0EA85FEF740
:10C55000A7FE414B03221A700023C7F8D03004E035
:10C56000D7F8D0300133C7F8D030D7F8D000FBF778
:10C5700011FF37A3D3E90023FCF7E8F90346002BAA
:10C58000EED1FEF75DFBFEF70BFC354B1B78013B54
:10C59000DAB2334B1A70FFF791FD0023C7F8CC30A5
:10C5A00004E0D7F8CC300133C7F8CC30D7F8CC0052
:10C5B000FBF7F0FE26A3D3E90023FCF7C7F90346F7
:10C5C000002BEED1FEF76CFE234B02221A700023E3
:10C5D000C7F8C83004E0D7F8C8300133C7F8C8300E
:10C5E000D7F8C800FBF7D6FE19A3D3E90023FCF760
:10C5F000ADF90346002BEED1FEF722FBFEF7D0FB90
:10C60000164B1B78013BDAB2144B1A70FFF756FD3C
:10C610000023C7F8C43004E0D7F8C4300133C7F8AA
:10C62000C430D7F8C400FBF7B5FE09A3D3E9002353
:10C63000FCF78CF90346002BEED1FEF731FE064BDA
:10C6400001221A700023C7F8C03010E0AFF3008059
:10C6500000000000004CCD402AE10020859F002012
:10C66000849F0020D7F8C0300133C7F8C030D7F816
:10C67000C000FBF78FFED6A3D3E90023FCF766F9D1
:10C680000346002BEED1FEF7DBFAFEF789FBD24B17
:10C690001B780133DAB2D04B1A700023C7F8BC30D4
:10C6A00004E0D7F8BC300133C7F8BC30D7F8BC0081
:10C6B000FBF770FEC6A3D3E90023FCF747F9034656
:10C6C000002BEED1FEF782FDC44B00221A7000232E
:10C6D000C7F8B83004E0D7F8B8300133C7F8B8303D
:10C6E000D7F8B800FBF756FEB9A3D3E90023FCF74F
:10C6F0002DF90346002BEED100F013BDFEF7A0FA92
:10C70000FEF74EFBB44B1B780133DAB2B24B1A7012
:10C71000FFF7D4FC0023C7F8B43004E0D7F8B430F6
:10C720000133C7F8B430D7F8B400FBF733FEA8A341
:10C73000D3E90023FCF70AF90346002BEED1A84BFE
:10C740001B78002B03D14C2387F8F73006E0A44B6D
:10C750001B78012B02D1522387F8F73097F8F73076
:10C76000522B40F0C980FEF731FD9C4B02221A701B
:10C770000023C7F8B03004E0D7F8B0300133C7F871
:10C78000B030D7F8B000FBF705FE91A3D3E9002342
:10C79000FCF7DCF80346002BEED1FEF751FAFEF76A
:10C7A000FFFA8F4B1B78013BDAB28D4B1A70FFF703
:10C7B00085FC0023C7F8AC3004E0D7F8AC30013377
:10C7C000C7F8AC30D7F8AC00FBF7E4FD80A3D3E9A1
:10C7D0000023FCF7BBF80346002BEED1FEF7F6FC76
:10C7E0007E4B03221A700023C7F8A83004E0D7F864
:10C7F000A8300133C7F8A830D7F8A800FBF7CAFD66
:10C8000073A3D3E90023FCF7A1F80346002BEED174
:10C81000FEF716FAFEF7C4FA6F4B1B78013BDAB24B
:10C820006D4B1A70FFF74AFC0023C7F8A43004E0F0
:10C83000D7F8A4300133C7F8A430D7F8A400FBF729
:10C84000A9FD63A3D3E90023FCF780F80346002B7E
:10C85000EED1FEF7BBFC614B00221A700023C7F833
:10C86000A03004E0D7F8A0300133C7F8A030D7F8E3
:10C87000A000FBF78FFD56A3D3E90023FCF766F871
:10C880000346002BEED1FEF7DBF9FEF789FA544B95
:10C890001B780133DAB2524B1A700023C7F89C3070
:10C8A00004E0D7F89C300133C7F89C30D7F89C00DF
:10C8B000FBF770FD46A3D3E90023FCF747F80346D6
:10C8C000002BEED1FEF7ECFC444B03221A70002340
:10C8D000C7F8983004E0D7F898300133C7F898309B
:10C8E000D7F89800FBF756FD39A3D3E90023FCF7EE
:10C8F0002DF80346002BEED197F8F7304C2B40F083
:10C900001284FEF7CDFC354B00221A700023C7F8C5
:10C91000943004E0D7F894300133C7F89430D7F856
:10C920009400FBF737FD2AA3D3E90023FCF70EF8A8
:10C930000346002BEED1FEF783F9FEF731FA284BC0
:10C940001B780133DAB2264B1A70FFF7B7FB0023CE
:10C95000C7F8903004E0D7F890300133C7F8903032
:10C96000D7F89000FBF716FD19A3D3E90023FBF7D6
:10C97000EDFF0346002BEED1FEF792FC174B03228E
:10C980001A700023C7F88C3004E0D7F88C300133DC
:10C99000C7F88C30D7F88C00FBF7FCFC0CA3D3E96C
:10C9A0000023FBF7D3FF0346002BEED1FEF748F937
:10C9B000FEF7F6F9084B1B78013BDAB2064B1A700A
:10C9C000FFF77CFB0023C7F8883010E0AFF300804E
:10C9D00000000000004CCD40849F00202AE1002090
:10C9E000859F0020D7F888300133C7F88830D7F802
:10C9F0008800FBF7CFFCBCA3D3E90023FBF7A6FF1D
:10CA00000346002BEED1FEF74BFCB94B02221A7005
:10CA10000023C7F8843004E0D7F884300133C7F826
:10CA20008430D7F88400FBF7B5FCAFA3D3E900232B
:10CA3000FBF78CFF0346002BEED1FEF701F9FEF762
:10CA4000AFF9AC4B1B78013BDAB2AA4B1A7000234A
:10CA5000C7F8803004E0D7F880300133C7F8803061
:10CA6000D7F88000FBF796FC9FA3D3E90023FBF7E0
:10CA70006DFF0346002BEED1FEF7A8FB9C4B032273
:10CA80001A700023FB6702E0FB6F0133FB67F86F4E
:10CA9000FBF780FC94A3D3E90023FBF757FF034681
:10CAA000002BF1D13FE3FEF7CBF8FEF779F9914B7C
:10CAB0001B78013BDAB28F4B1A70FFF7FFFA0023A5
:10CAC000BB6702E0BB6F0133BB67B86FFBF762FC6B
:10CAD00085A3D3E90023FBF739FF0346002BF1D1EF
:10CAE000854B1B78022B03D14C2387F8F73006E0E7
:10CAF000814B1B78032B02D1522387F8F73097F82C
:10CB0000F730522B40F0AD80FEF760FB784B0322EC
:10CB10001A7000237B6702E07B6F01337B67786FBD
:10CB2000FBF738FC70A3D3E90023FBF70FFF0346A4
:10CB3000002BF1D1FEF784F8FEF732F96E4B1B782B
:10CB4000013BDAB26C4B1A70FFF7B8FA00233B676F
:10CB500002E03B6F01333B67386FFBF71BFC62A3BE
:10CB6000D3E90023FBF7F2FE0346002BF1D1FEF7D9
:10CB70002DFB5F4B00221A700023FB6602E0FB6E68
:10CB80000133FB66F86EFBF705FC57A3D3E90023DE
:10CB9000FBF7DCFE0346002BF1D1FEF751F8FEF760
:10CBA000FFF8544B1B780133DAB2524B1A70FFF77F
:10CBB00085FA0023BB6602E0BB6E0133BB66B86E2C
:10CBC000FBF7E8FB48A3D3E90023FBF7BFFE0346CE
:10CBD000002BF1D1FEF7FAFA454B01221A7000231F
:10CBE0007B6602E07B6E01337B66786EFBF7D2FBDF
:10CBF0003DA3D3E90023FBF7A9FE0346002BF1D1A7
:10CC0000FEF71EF8FEF7CCF83B4B1B780133DAB287
:10CC1000394B1A7000233B6602E03B6E01333B66E2
:10CC2000386EFBF7B7FB30A3D3E90023FBF78EFE8A
:10CC30000346002BF1D1FEF733FB2D4B00221A7077
:10CC40000023FB6502E0FB6D0133FB65F86DFBF72C
:10CC5000A1FB25A3D3E90023FBF778FE0346002BB5
:10CC6000F1D197F8F7304C2B40F05F82FEF718FBBC
:10CC70001F4B01221A700023BB6502E0BB6D01331C
:10CC8000BB65B86DFBF786FB17A3D3E90023FBF761
:10CC90005DFE0346002BF1D1FDF7D2FFFEF780F8D1
:10CCA000154B1B780133DAB2134B1A70FFF706FAF3
:10CCB00000237B6502E07B6D01337B65786DFBF7BC
:10CCC00069FB09A3D3E90023FBF740FE0346002BD1
:10CCD000F1D1FEF7E5FA064B00221A7000233B65FE
:10CCE0000FE000BFAFF3008000000000004CCD401B
:10CCF0002AE10020859F0020849F00203B6D0133A6
:10CD00003B65386DFBF746FBBBA3D3E90023FBF77C
:10CD10001DFE0346002BF1D1FDF792FFFEF740F810
:10CD2000B74B1B780133DAB2B54B1A70FFF7C6F96F
:10CD30000023FB6402E0FB6C0133FB64F86CFBF73F
:10CD400029FBADA3D3E90023FBF700FE0346002B2C
:10CD5000F1D1FEF7A5FAAB4B03221A700023BB6496
:10CD600002E0BB6C0133BB64B86CFBF713FBA2A3FE
:10CD7000D3E90023FBF7EAFD0346002BF1D1FDF7D1
:10CD80005FFFFEF70DF8A04B1B78013BDAB29E4B1C
:10CD90001A7000237B6402E07B6C01337B64786C47
:10CDA000FBF7F8FA94A3D3E90023FBF7CFFD034682
:10CDB000002BF1D1FEF70AFA924B00221A700023E1
:10CDC0003B6402E03B6C01333B64386CFBF7E2FAF6
:10CDD00089A3D3E90023FBF7B9FD0346002BF1D16A
:10CDE000A3E1FDF72DFFFDF7DBFF874B1B78013B30
:10CDF000DAB2854B1A70FFF761F90023FB6302E09A
:10CE0000FB6B0133FB63F86BFBF7C4FA7AA3D3E93E
:10CE10000023FBF79BFD0346002BF1D1784B1B78D9
:10CE2000002B03D1522387F8F73006E0744B1B78B0
:10CE3000012B02D14C2387F8F73097F8F730522BAB
:10CE400040F0AD80FEF7C2F96E4B00221A7000234D
:10CE5000BB6302E0BB6B0133BB63B86BFBF79AFAB1
:10CE600065A3D3E90023FBF771FD0346002BF1D145
:10CE7000FDF7E6FEFDF794FF614B1B780133DAB254
:10CE80005F4B1A70FFF71AF900237B6302E07B6B9C
:10CE900001337B63786BFBF77DFA57A3D3E900235B
:10CEA000FBF754FD0346002BF1D1FEF78FF9554BEC
:10CEB00001221A7000233B6302E03B6B01333B63AA
:10CEC000386BFBF767FA4CA3D3E90023FBF73EFD71
:10CED0000346002BF1D1FDF7B3FEFDF761FF4A4B8E
:10CEE0001B780133DAB2484B1A70FFF7E7F80023DA
:10CEF000FB6202E0FB6A0133FB62F86AFBF74AFA65
:10CF00003DA3D3E90023FBF721FD0346002BF1D11C
:10CF1000FEF75CF93B4B02221A700023BB6202E071
:10CF2000BB6A0133BB62B86AFBF734FA32A3D3E9B8
:10CF30000023FBF70BFD0346002BF1D1FDF780FE2C
:10CF4000FDF72EFF2E4B1B78013BDAB22C4B1A70EB
:10CF500000237B6202E07B6A01337B62786AFBF725
:10CF600019FA25A3D3E90023FBF7F0FC0346002BB5
:10CF7000F1D1FEF795F9234B01221A7000233B6291
:10CF800002E03B6A01333B62386AFBF703FA1AA3FB
:10CF9000D3E90023FBF7DAFC0346002BF1D197F825
:10CFA000F7304C2B40F0C380FEF77AF9154B022284
:10CFB0001A700023FB6102E0FB690133FB61F86931
:10CFC000FBF7E8F90CA3D3E90023FBF7BFFC03460A
:10CFD000002BF1D1FDF734FEFDF7E2FE084B1B7884
:10CFE000013BDAB2064B1A70FFF768F80023BB6109
:10CFF0000FE000BFAFF3008000000000004CCD4008
:10D00000859F00202AE10020849F0020BB69013316
:10D01000BB61B869FBF7BEF949A3D3E90023FBF76D
:10D0200095FC0346002BF1D1FEF73AF9464B01225D
:10D030001A7000237B6102E07B6901337B617869B0
:10D04000FBF7A8F93EA3D3E90023FBF77FFC0346D7
:10D05000002BF1D1FDF7F4FDFDF7A2FE3B4B1B7851
:10D060000133DAB2394B1A70FFF728F800233B611D
:10D0700002E03B6901333B613869FBF78BF930A370
:10D08000D3E90023FBF762FC0346002BF1D1FEF746
:10D0900007F92D4B00221A700023FB6002E0FB68A9
:10D0A0000133FB60F868FBF775F925A3D3E900238A
:10D0B000FBF74CFC0346002BF1D1FDF7C1FDFDF75A
:10D0C0006FFE234B1B780133DAB2214B1A70002319
:10D0D000BB6002E0BB680133BB60B868FBF75AF97C
:10D0E00017A3D3E90023FBF731FC0346002BF1D152
:10D0F000FEF76CF8144B01221A7000237B6002E0EB
:10D100007B6801337B607868FBF744F90CA3D3E9B3
:10D110000023FBF71BFC0346002BF1D107E000BF07
:10D1200006E000BF04E000BF02E000BF00E000BF77
:10D13000FEF754FE00BFF837BD4680BDAFF3008058
:10D1400000000000004CCD402AE10020849F002018
:10D15000859F00200000000098B500AFAA4B002278
:10D160005A72AA4B1B78032B00F2648301A252F877
:10D1700023F000BF85D1000821D30008DDD40008CA
:10D1800099D60008A24B1B781846A24B1B7819466B
:10D19000A14A83000B4412F81330C3F30103DBB23E
:10D1A000002B27D19A4B1B781A469A4B1B780133D8
:10D1B0009A4992000A4413441A78954B1B781C46EE
:10D1C000944B1B7818469549A3000B4403441B78E5
:10D1D0009A420FD28F4B1B78022B0BD8FDF78CFE97
:10D1E0008A4B00221A708B4B1B780133DAB2894BC1
:10D1F0001A7094E0864B1B781846864B1B781946AC
:10D20000854A83000B4412F81330C3F38113DBB259
:10D21000002B27D17E4B1B78013B7E4A12781146AA
:10D220007E4A9B0013440B441A78794B1B781C46AA
:10D23000784B1B7818467949A3000B4403441B78AC
:10D240009A420FD2724B1B78002B0BD0FEF7B4FC26
:10D250006E4B03221A706E4B1B78013BDAB26C4B9B
:10D260001A705CE06A4B1B7818466A4B1B781946AB
:10D27000694A83000B4412F81330C3F38103DBB215
:10D28000002B27D1624B1B780133624A127811467A
:10D29000624A9B0013440B441A785D4B1B781C4672
:10D2A0005C4B1B7818465D49A3000B4403441B7874
:10D2B0009A420FD2564B1B78022B0BD8FEF738FC44
:10D2C000524B01221A70524B1B780133DAB2504B89
:10D2D0001A7024E0FDF764FD9FED490BFDF732FC69
:10D2E000494B93F90230012B01D1FCF7E1FEFEF727
:10D2F0003BFB9FED430BFDF725FCFEF7B1FB9FEDDC
:10D30000400BFDF71FFCFDF743FC404B02221A7057
:10D31000404B1B78013BDAB23E4B1A708BE28AE23B
:10D320003B4B1B7818463B4B1B7819463A4A830007
:10D330000B4412F81330C3F38103DBB2002B27D167
:10D34000334B1B780133334A12781146334A9B0022
:10D3500013440B441A782E4B1B781C462D4B1B781C
:10D3600018462E49A3000B4403441B789A420FD25F
:10D37000274B1B78022B0BD8FDF7BEFD234B012258
:10D380001A70234B1B780133DAB2214B1A70A4E0D8
:10D390001F4B1B7818461F4B1B7819461E4A8300EB
:10D3A0000B4412F81330C3F30103DBB2002B37D167
:10D3B000174B1B781A46174B1B78013317499200FD
:10D3C0000A4413441A78124B1B781C46114B1B78E5
:10D3D00018461249A3000B4403441B789A421FD2FB
:10D3E0000C4B1B78022B1BD8FEF7E6FB074B0022E9
:10D3F0001A70084B1B780133DAB2064B1A706CE0D6
:10D40000333333333333D33F740000202AE1002019
:10D41000849F0020859F0020E0A6012070A20120AB
:10D42000974B1B781846974B1B781946964A8300F2
:10D430000B4412F81330C3F30113DBB2002B27D1D6
:10D440008F4B1B781A468F4B1B78013B8F499200FC
:10D450000A4413441A788A4B1B781C46894B1B7864
:10D4600018468A49A3000B4403441B789A420FD202
:10D47000844B1B78002B0BD0FEF75AFB844B022207
:10D480001A70804B1B78013BDAB27E4B1A7024E095
:10D49000FDF786FC9FED780BFDF754FB7D4B93F970
:10D4A0000230012B01D1FCF703FEFEF75DFA9FED80
:10D4B000720BFDF747FBFEF7D3FA9FED6F0BFDF7FD
:10D4C00041FBFDF765FB724B03221A706C4B1B7816
:10D4D000013BDAB26A4B1A70ADE1ACE1684B1B78E4
:10D4E0001846684B1B781946674A83000B4412F8AC
:10D4F0001330C3F30113DBB2002B27D1604B1B7831
:10D500001A46604B1B78013B604992000A44134461
:10D510001A785B4B1B781C465A4B1B7818465B49A4
:10D52000A3000B4403441B789A420FD2554B1B783F
:10D53000002B0BD0FDF7E0FC554B02221A70514B2B
:10D540001B78013BDAB24F4B1A7094E04C4B1B78BE
:10D5500018464C4B1B7819464B4A83000B4412F873
:10D560001330C3F38103DBB2002B27D1444B1B786C
:10D570000133444A12781146444A9B0013440B4439
:10D580001A783F4B1B781C463E4B1B7818463F4988
:10D59000A3000B4403441B789A420FD2384B1B78EC
:10D5A000022B0BD8FEF708FB394B01221A70344BC3
:10D5B0001B780133DAB2324B1A705CE0304B1B78C7
:10D5C0001846304B1B7819462F4A83000B4412F83B
:10D5D0001330C3F38113DBB2002B27D1284B1B7808
:10D5E000013B284A12781146284A9B0013440B44F9
:10D5F0001A78234B1B781C46224B1B78184623496C
:10D60000A3000B4403441B789A420FD21C4B1B7897
:10D61000002B0BD0FEF78CFA1D4B03221A70184B0F
:10D620001B78013BDAB2164B1A7024E0FDF7B8FB09
:10D630009FED110BFDF786FA164B93F90230012B83
:10D6400001D1FCF735FDFEF78FF99FED0B0BFDF7D0
:10D6500079FAFEF705FA9FED080BFDF773FAFDF76F
:10D6600097FA0B4B00221A70064B1B780133DAB283
:10D67000044B1A70DFE0DEE0333333333333D33F10
:10D68000849F0020859F0020E0A6012070A2012039
:10D690002AE10020740000206B4B1B7818466B4B6E
:10D6A0001B7819466A4A83000B4412F81330C3F3FF
:10D6B0008113DBB2002B27D1634B1B78013B634AFC
:10D6C00012781146634A9B0013440B441A785E4B50
:10D6D0001B781C465D4B1B7818465E49A3000B4423
:10D6E00003441B789A420FD2574B1B78002B0BD068
:10D6F000FDF702FC584B03221A70534B1B78013B79
:10D70000DAB2514B1A7094E04F4B1B7818464F4BCE
:10D710001B7819464E4A83000B4412F81330C3F3AA
:10D720000113DBB2002B27D1474B1B781A46474B1E
:10D730001B78013B474992000A4413441A78424B34
:10D740001B781C46414B1B7818464249A3000B44EA
:10D7500003441B789A420FD23C4B1B78002B0BD012
:10D76000FEF72AFA3C4B02221A70384B1B78013B19
:10D77000DAB2364B1A705CE0334B1B781846334BE9
:10D780001B781946324A83000B4412F81330C3F356
:10D790000103DBB2002B27D12B4B1B781A462B4BF6
:10D7A0001B7801332B4992000A4413441A78264B04
:10D7B0001B781C46254B1B7818462649A3000B44B2
:10D7C00003441B789A420FD2204B1B78022B0BD8B4
:10D7D000FEF7AEF9204B00221A701C4B1B78013368
:10D7E000DAB21A4B1A7024E0FDF7DAFA9FED140B47
:10D7F000FDF7A8F9194B93F90230012B01D1FCF781
:10D8000057FCFEF7B1F89FED0E0BFDF79BF9FEF705
:10D8100027F99FED0B0BFDF795F9FDF7B9F90E4BC5
:10D8200001221A70084B1B780133DAB2064B1A70CA
:10D8300001E000E000BF00BF98BD00BFAFF3008073
:10D84000333333333333D33F849F0020859F00200D
:10D85000E0A6012070A201202AE10020740000202F
:10D8600098B500AFAA4B00225A72AA4B1B78032B23
:10D8700000F2648301A252F823F000BF8DD80008A3
:10D8800029DA0008E5DB0008A1DD0008A24B1B78BF
:10D890001846A24B1B781946A14A83000B4412F884
:10D8A0001330C3F30103DBB2002B27D19A4B1B7853
:10D8B0001A469A4B1B7801339A4992000A44134442
:10D8C0001A78954B1B781C46944B1B781846954943
:10D8D000A3000B4403441B789A420FD98F4B1B784B
:10D8E000022B0BD8FDF708FB8A4B00221A708B4BDA
:10D8F0001B780133DAB2894B1A7094E0864B1B789F
:10D900001846864B1B781946854A83000B4412F84B
:10D910001330C3F38113DBB2002B27D17E4B1B786E
:10D92000013B7E4A127811467E4A9B0013440B4409
:10D930001A78794B1B781C46784B1B781846794926
:10D94000A3000B4403441B789A420FD9724B1B78F7
