:020000040800F2
:1000000000000220D5B600089511000897110008DD
:10001000991100089B1100089D11000800000000C4
:100020000000000000000000000000009F11000818
:10003000A111000800000000A3110008A51100088C
:1000400025B7000825B7000825B7000825B7000820
:1000500025B7000825B7000825B7000825B7000810
:1000600025B7000825B7000825B7000825B7000800
:1000700025B7000825B7000825B7000825B70008F0
:1000800025B7000825B7000825B7000825B70008E0
:1000900025B7000825B7000825B7000825B70008D0
:1000A00025B70008AD11000825B7000825B70008DE
:1000B00025B7000825B7000825B7000825B70008B0
:1000C00025B7000825B7000825B7000825B70008A0
:1000D00025B7000825B7000825B7000825B7000890
:1000E000BD11000825B7000825B7000825B700088E
:1000F000C911000825B7000825B7000825B7000872
:1001000025B7000825B7000825B7000825B700085F
:1001100025B7000825B7000825B7000825B700084F
:10012000D911000825B70008E911000825B7000813
:1001300025B70008000000000000000025B70008F7
:1001400025B7000825B7000825B7000825B700081F
:1001500025B7000825B7000825B7000825B700080F
:1001600025B7000825B7000825B7000825B70008FF
:1001700025B7000825B700080000000000000000B7
:0801800025B7000825B70008AF
:1001900010B5054C237833B9044B13B10448AFF3C1
:1001A00000800123237010BD7C00002000000000AF
:1001B00000CC000808B5034B1BB103490348AFF35B
:1001C000008008BD000000008000002000CC000876
:1001D00001F0FF01102A2BDB10F0070F08D010F8F8
:1001E000013B013A8B422DD010F0070F42B3F6D1FC
:1001F000F0B441EA012141EA014122F007047FF015
:1002000000070023F0E80256083C85EA010586EA6B
:10021000010685FA47F5A3FA87F586FA47F6A5FAA7
:1002200087F68EB9EED1F0BC01F0FF0102F00702B3
:1002300032B110F8013B013A83EA010313B1F8D15E
:100240000020704701387047002D06BF354603383F
:10025000073815F0010F07D1013015F4807F02BF78
:10026000013015F4C03F0130F0BC0138704700BFC9
:1002700081F0004102E000BF83F0004330B54FEA57
:1002800041044FEA430594EA050F08BF90EA020FC4
:100290001FBF54EA000C55EA020C7FEA645C7FEA57
:1002A000655C00F0E2804FEA5454D4EB5555B8BF7A
:1002B0006D420CDD2C4480EA020281EA030382EAEB
:1002C000000083EA010180EA020281EA0303362D7D
:1002D00088BF30BD11F0004F4FEA01314FF4801C50
:1002E0004CEA113102D0404261EB410113F0004F62
:1002F0004FEA03334CEA133302D0524263EB430319
:1003000094EA050F00F0A780A4F10104D5F1200EB6
:100310000DDB02FA0EFC22FA05F2801841F1000111
:1003200003FA0EF2801843FA05F359410EE0A5F1E5
:1003300020050EF1200E012A03FA0EFC28BF4CF016
:10034000020C43FA05F3C01851EBE37101F00045CC
:1003500007D54FF0000EDCF1000C7EEB00006EEBD9
:100360000101B1F5801F1BD3B1F5001F0CD3490863
:100370005FEA30004FEA3C0C04F101044FEA4452BA
:1003800012F5800F80F09A80BCF1004F08BF5FEA41
:10039000500C50F1000041EB045141EA050130BD21
:1003A0005FEA4C0C404141EB0101013C28BFB1F533
:1003B000801FE9D291F0000F04BF01460020B1FA7E
:1003C00081F308BF2033A3F10B03B3F120020CDA51
:1003D0000C3208DD02F1140CC2F10C0201FA0CF02F
:1003E00021FA02F10CE002F11402D8BFC2F1200C94
:1003F00001FA02F120FA0CFCDCBF41EA0C0190404A
:10040000E41AA2BF01EB0451294330BD6FEA040492
:100410001F3C1CDA0C340EDC04F11404C4F120027D
:1004200020FA04F001FA02F340EA030021FA04F38F
:1004300045EA030130BDC4F10C04C4F1200220FAE6
:1004400002F001FA04F340EA0300294630BD21FA24
:1004500004F0294630BD94F0000F83F4801306BFEA
:1004600081F480110134013D4EE77FEA645C18BFDE
:100470007FEA655C29D094EA050F08BF90EA020F75
:1004800005D054EA000C04BF1946104630BD91EA6D
:10049000030F1EBF0021002030BD5FEA545C05D170
:1004A0004000494128BF41F0004130BD14F58004AF
:1004B0003CBF01F5801130BD01F0004545F0FE4123
:1004C00041F470014FF0000030BD7FEA645C1ABF58
:1004D000194610467FEA655C1CBF0B46024650EA8F
:1004E000013406BF52EA033591EA030F41F40021BB
:1004F00030BD00BF90F0000F04BF0021704730B541
:100500004FF4806404F132044FF000054FF0000115
:1005100050E700BF90F0000F04BF0021704730B5D6
:100520004FF4806404F1320410F0004548BF4042AB
:100530004FF000013EE700BF42004FEAE2014FEA00
:1005400031014FEA02701FBF12F07F4393F07F4FDB
:1005500081F06051704732F07F4208BF704793F0DE
:100560007F4F04BF41F40021704730B54FF46074F1
:1005700001F0004521F000411CE700BF50EA0102F4
:1005800008BF704730B54FF000050AE050EA01029D
:1005900008BF704730B511F0004502D5404261EB0D
:1005A00041014FF4806404F132045FEA915C3FF44E
:1005B000D8AE4FF003025FEADC0C18BF03325FEAEB
:1005C000DC0C18BF033202EBDC02C2F1200300FA9C
:1005D00003FC20FA02F001FA03FE40EA0E0021FAC1
:1005E00002F11444BDE600BF70B54FF0FF0C4CF4AF
:1005F000E06C1CEA11541DBF1CEA135594EA0C0F61
:1006000095EA0C0F00F0DEF82C4481EA030621EA9B
:100610004C5123EA4C5350EA013518BF52EA0335D6
:1006200041F4801143F4801338D0A0FB02CE4FF088
:100630000005E1FB02E506F00042E0FB03E54FF0B8
:100640000006E1FB03569CF0000F18BF4EF0010EB0
:10065000A4F1FF04B6F5007F64F5407404D25FEAAC
:100660004E0E6D4146EB060642EAC62141EA55515F
:100670004FEAC52040EA5E504FEACE2EB4F1FD0CA1
:1006800088BFBCF5E06F1ED8BEF1004F08BF5FEA1F
:10069000500E50F1000041EB045170BD06F00046D1
:1006A00046EA010140EA020081EA0301B4EB5C047E
:1006B000C2BFD4EB0C0541EA045170BD41F4801176
:1006C0004FF0000E013C00F3AB8014F1360FDEBF9B
:1006D000002001F0004170BDC4F10004203C35DA77
:1006E0000C341BDC04F11404C4F1200500FA05F3FA
:1006F00020FA04F001FA05F240EA020001F000429B
:1007000021F0004110EBD37021FA04F642EB060110
:100710005EEA430E08BF20EAD37070BDC4F10C043A
:10072000C4F1200500FA04F320FA05F001FA04F2FE
:1007300040EA020001F0004110EBD37041F10001EA
:100740005EEA430E08BF20EAD37070BDC4F12005F5
:1007500000FA05F24EEA020E20FA04F301FA05F25D
:1007600043EA020321FA04F001F0004121FA04F205
:1007700020EA020000EBD3705EEA430E08BF20EAD5
:10078000D37070BD94F0000F0FD101F0004640000F
:1007900041EB010111F4801F08BF013CF7D041EA91
:1007A000060195F0000F18BF704703F00046520095
:1007B00043EB030313F4801F08BF013DF7D043EA66
:1007C0000603704794EA0C0F0CEA135518BF95EA1C
:1007D0000C0F0CD050EA410618BF52EA4306D1D1A3
:1007E00081EA030101F000414FF0000070BD50EAC2
:1007F000410606BF1046194652EA430619D094EA4C
:100800000C0F02D150EA013613D195EA0C0F05D135
:1008100052EA03361CBF104619460AD181EA030189
:1008200001F0004141F0FE4141F470014FF0000041
:1008300070BD41F0FE4141F4780170BD70B54FF0DC
:10084000FF0C4CF4E06C1CEA11541DBF1CEA13555C
:1008500094EA0C0F95EA0C0F00F0A7F8A4EB05043E
:1008600081EA030E52EA03354FEA013100F0888035
:100870004FEA03334FF0805545EA131343EA1263FE
:100880004FEA022245EA111545EA10654FEA0026B3
:100890000EF000419D4208BF964244F1FD0404F56C
:1008A000407402D25B084FEA3202B61A65EB0305C8
:1008B0005B084FEA32024FF480104FF4002CB6EB85
:1008C000020E75EB030E22BFB61A754640EA0C0005
:1008D0005B084FEA3202B6EB020E75EB030E22BF45
:1008E000B61A754640EA5C005B084FEA3202B6EB86
:1008F000020E75EB030E22BFB61A754640EA9C0045
:100900005B084FEA3202B6EB020E75EB030E22BF14
:10091000B61A754640EADC0055EA060E18D04FEAD2
:10092000051545EA16754FEA06164FEAC30343EA72
:1009300052734FEAC2025FEA1C1CC0D111F4801F3F
:100940000BD141EA00014FF000004FF0004CB6E738
:1009500011F4801F04BF01430020B4F1FD0C88BFD7
:10096000BCF5E06F3FF6AFAEB5EB030C04BFB6EBE2
:10097000020C5FEA500C50F1000041EB045170BDD5
:100980000EF0004E4EEA113114EB5C04C2BFD4EB02
:100990000C0541EA045170BD41F480114FF0000E86
:1009A000013C90E645EA060E8DE60CEA135594EA02
:1009B0000C0F08BF95EA0C0F3FF43BAF94EA0C0F05
:1009C0000AD150EA01347FF434AF95EA0C0F7FF47A
:1009D00025AF104619462CE795EA0C0F06D152EACE
:1009E00003353FF4FDAE1046194622E750EA4106B2
:1009F00018BF52EA43067FF4C5AE50EA41047FF4C3
:100A00000DAF52EA43057FF4EBAE12E74FF0FF3C27
:100A100006E000BF4FF0010C02E000BF4FF0010CF8
:100A20004DF804CD4FEA410C7FEA6C5C4FEA430C71
:100A300018BF7FEA6C5C1BD001B050EA410C0CBFC0
:100A400052EA430C91EA030F02BF90EA020F002022
:100A5000704710F1000F91EA030F58BF994208BF89
:100A600090422CBFD8176FEAE37040F00100704746
:100A70004FEA410C7FEA6C5C02D150EA013C07D19D
:100A80004FEA430C7FEA6C5CD6D152EA033CD3D0E8
:100A90005DF8040B704700BF8446104662468C46E2
:100AA0001946634600E000BF01B5FFF7B7FF002815
:100AB00048BF10F1000F01BD4DF808EDFFF7F4FF3E
:100AC0000CBF012000205DF808FB00BF4DF808EDC9
:100AD000FFF7EAFF34BF012000205DF808FB00BFEC
:100AE0004DF808EDFFF7E0FF94BF012000205DF80E
:100AF00008FB00BF4DF808EDFFF7CEFF94BF0120C3
:100B000000205DF808FB00BF4DF808EDFFF7C4FFBB
:100B100034BF012000205DF808FB00BF4FEA41020E
:100B200012F5001215D211D56FF47873B3EB62523F
:100B300012D94FEAC12343F0004343EA505311F066
:100B4000004F23FA02F018BF404270474FF00000F8
:100B5000704750EA013005D111F0004008BF6FF036
:100B6000004070474FF00000704700BF4FEA41025D
:100B7000B2F1E04324BFB3F5001CDCF1FE5C0DD9FB
:100B800001F0004C4FEAC0024CEA5070B2F1004F45
:100B900040EB830008BF20F00100704711F0804F48
:100BA00021D113F13872BCBF01F00040704741F40D
:100BB00080114FEA5252C2F11802C2F1200C10FA11
:100BC0000CF320FA02F018BF40F001004FEAC123F5
:100BD0004FEAD32303FA0CFC40EA0C0023FA02F399
:100BE0004FEA4303CCE77FEA625307D150EA01336F
:100BF0001EBF4FF0FE4040F44000704701F000403F
:100C000040F0FE4040F40000704700BF53B94AB9BD
:100C1000002908BF00281CBF4FF0FF314FF0FF3004
:100C200000F074B9ADF1080C6DE904CE00F006F8DF
:100C3000DDF804E0DDE9022304B070472DE9F04758
:100C4000089D04468E46002B4DD18A42944669D9B0
:100C5000B2FA82F252B101FA02F3C2F1200120FA93
:100C600001F10CFA02FC41EA030E94404FEA1C48E1
:100C7000210CBEFBF8F61FFA8CF708FB16E341EADD
:100C8000034306FB07F199420AD91CEB030306F163
:100C9000FF3080F01F81994240F21C81023E634484
:100CA0005B1AA4B2B3FBF8F008FB103344EA034428
:100CB00000FB07F7A7420AD91CEB040400F1FF333D
:100CC00080F00A81A74240F207816444023840EA7A
:100CD0000640E41B00261DB1D4400023C5E90043B3
:100CE0003146BDE8F0878B4209D9002D00F0EF8036
:100CF0000026C5E9000130463146BDE8F087B3FA69
:100D000083F6002E4AD18B4202D3824200F2F98050
:100D1000841A61EB030301209E46002DE0D0C5E953
:100D2000004EDDE702B9FFDEB2FA82F2002A40F09F
:100D30009280A1EB0C014FEA1C471FFA8CFE0126A2
:100D4000200CB1FBF7F307FB131140EA01410EFB46
:100D500003F0884208D91CEB010103F1FF3802D2ED
:100D6000884200F2CB804346091AA4B2B1FBF7F0E7
:100D700007FB101144EA01440EFB00FEA64508D90A
:100D80001CEB040400F1FF3102D2A64500F2BB8047
:100D90000846A4EB0E0440EA03409CE7C6F1200796
:100DA000B34022FA07FC4CEA030C20FA07F401FADC
:100DB00006F31C43F9404FEA1C4900FA06F3B1FB65
:100DC000F9F8200C1FFA8CFE09FB181140EA0141CA
:100DD00008FB0EF0884202FA06F20BD91CEB010167
:100DE00008F1FF3A80F08880884240F28580A8F1BF
:100DF00002086144091AA4B2B1FBF9F009FB101111
:100E000044EA014100FB0EFE8E4508D91CEB0101AE
:100E100000F1FF346CD28E456AD90238614440EA51
:100E20000840A0FB0294A1EB0E01A142C846A646D1
:100E300056D353D05DB1B3EB080261EB0E0101FA5A
:100E400007F722FA06F3F1401F43C5E900710026B7
:100E50003146BDE8F087C2F12003D8400CFA02FC0D
:100E600021FA03F3914001434FEA1C471FFA8CFE1D
:100E7000B3FBF7F007FB10360B0C43EA064300FB0D
:100E80000EF69E4204FA02F408D91CEB030300F1AB
:100E9000FF382FD29E422DD9023863449B1B89B262
:100EA000B3FBF7F607FB163341EA034106FB0EF3EB
:100EB0008B4208D91CEB010106F1FF3816D28B4298
:100EC00014D9023E6144C91A46EA004638E72E4664
:100ED000284605E70646E3E61846F8E64B45A9D25C
:100EE000B9EB020864EB0C0E0138A3E74646EAE7CB
:100EF000204694E74046D1E7D0467BE7023B614479
:100F000032E7304609E76444023842E7704700BFE1
:100F100000B583B001904FF6FF73012201A9034889
:100F20000AF093FA019803B05DF804FBA06C00206E
:100F300000B583B0022006E00A2301220DF107016B
:100F400004480AF0EEFA0028F6D19DF8070003B035
:100F50005DF804FBA06C002072B6FEE700B595B00A
:100F60003022002108A80AF029FE002303930493ED
:100F70000593069307930193204A116C41F0805129
:100F80001164126C02F080520192019A02931C4B80
:100F90001A6842F480421A601B6803F4804302938B
:100FA000029B012308934FF4A023099302220E927F
:100FB0004FF480030F9304231093A82111911292F0
:100FC000139308A808F0B6F998B90F2303930223E6
:100FD0000493002305934FF4A05306934FF48053DA
:100FE0000793052103A808F00BFC20B915B05DF8A4
:100FF00004FBFFF7B1FFFFF7AFFF00BF003802406F
:101000000070004000B583B00AF024FB06F0DAFB64
:1010100006F0C0FD06F076FC06F0C6FC07F02CF9E1
:1010200000F054F906F06CFE524B986800F0C4FDD5
:1010300000F068F90DF107020721002000F010FE12
:101040009DF9070000F0A4FDFFF788FF06F0BAFB4A
:1010500006F0A0FD06F056FC06F0A6FC06F050FED9
:1010600006F0E2FF06F0B8FD07F006F907F032F8E7
:1010700006F078FE07F086F806F00AFE9FED3E8A3D
:101080009FED3E9ADFED3E8AB0EE481AF0EE490A37
:10109000B0EE680A042000F0EDFCB0EE481AF0EE65
:1010A000490AB0EE680A052000F0E4FCB0EE481AE8
:1010B000DFED340A9FED340A002000F0DBFCB0EED7
:1010C000481AF0EE480A9FED310A082000F0D2FCE1
:1010D000B0EE481AF7EE000AB1EE080A012000F05F
:1010E000C9FCB0EE481AF7EE000AB2EE080A022078
:1010F00000F0C0FCB0EE481AF7EE000AB2EE080AA3
:10110000032000F0B7FC0FE0012005F00FFB2048A2
:101110000BF0C6F90DF107020721002000F0A0FD39
:101120009DF9070000F034FD9DF90730013B062BC7
:10113000EDD801A252F823F009110008551100085A
:101140005B110008611100080F1100086711000809
:101150006D11000805F06CFBD9E705F07BFAD6E7C6
:1011600005F072FFD3E705F065FDD0E705F096FBCB
:10117000CDE700BF9C0000200000000000409C451F
:10118000CDCC82410000A042000016420000124275
:1011900028CC0008FEE7FEE7FEE7FEE7FEE7704723
:1011A0007047704708B50AF06FFA08BD08B50248E5
:1011B00009F080FA08BD00BFF06A002008B54FF4BE
:1011C000805008F0A9F808BD08B5024809F072FA85
:1011D00008BD00BF586C002008B5024807F068FD44
:1011E00008BD00BFD869002008B5024807F060FDBF
:1011F00008BD00BF386A002082B0002100910B4B6F
:101200005A6C42F480425A645A6C02F48042009252
:10121000009A01911A6C42F080521A641B6C03F020
:1012200080530193019B02B0704700BF0038024019
:1012300070B50C461646002506E0FFF779FE2146FC
:1012400001F8010B01350C46B542F6DB304670BDA6
:1012500070B50C461646002504E014F8010BFFF7A4
:1012600057FE0135B542F8DB304670BD4FF0FF3018
:1012700070474FF400534B600020704701207047C7
:101280000020704710B503460C4A0D490D48006810
:1012900040B10C4800680344521A934206D8094AE8
:1012A000136010BD0748084C0460F2E70AF03CFAEE
:1012B0000C2303604FF0FF30F3E700BF0000022073
:1012C0000004000098000020186D002008B50322DB
:1012D0000849094807F0F8F830B9022207490848D8
:1012E00007F0F2F818B908BDFFF736FEF5E7FFF78B
:1012F00033FEF8E79C00002048690020A800002089
:101300009069002008B50D4807F0ACF920B90C48E9
:1013100007F0A8F948B908BD0A480BF0C1F8FFF773
:101320001BFE09480BF0BCF8F1E708480BF0B8F8D1
:10133000FFF712FE06480BF0B3F8ECE7486900200F
:101340009069002044CC00084CCC000854CC000824
:101350005CCC0008024BDB6813F4803FFAD1704785
:10136000003C024070B505460E460E4C0E4B6360C5
:1013700003F188336360FFF7EDFF236943F40073E3
:101380002361236943F0010323612E60FFF7E2FF2D
:10139000236923F001032361236943F000432361A0
:1013A00070BD00BF003C02402301674570B5064692
:1013B0000D460E4C0E4B636003F188336360FFF7FC
:1013C000C9FF236943F400732361236943F00103D8
:1013D000236133682B60FFF7BDFF236923F001030E
:1013E0002361236943F00043236170BD003C024048
:1013F0002301674510B586B007F044FE0023019332
:1014000001230393022205920493694601A807F081
:10141000A9FD044607F04EFE2CB9009BB3F1FF3F37
:1014200004D0002000E0002006B010BD0120FBE742
:10143000B0F90020B1F900309A4203DC04DA4FF031
:10144000FF307047012070470020704730B583B0EF
:101450008DF800008DF8011060F07F008DF8070016
:1014600061F07F018DF806101E4C002204212046F9
:1014700007F04CFF1C4D642301220DF107012846A3
:1014800008F0D7FB642301220DF10501284608F07E
:10149000C8FD01220421204607F038FF0022042164
:1014A000204607F033FF642301220DF10601284690
:1014B00008F0BFFB6423012201A9284608F0B1FD12
:1014C00001220421204607F021FF9DF805301B0270
:1014D0001BB29DF80420134300EE103AB8EEC00A88
:1014E00003B030BD000C0240986A002000B583B004
:1014F00000230093ADF804300D4BB3F902C0A3F8FC
:1015000000C0B3F904105980B0F900209A80ADF8FA
:1015100000C0ADF80210ADF80420064B02220321F2
:1015200068460AF0FDFFBDF9020003B05DF804FB58
:10153000B800002031140008F0B585B007460C460D
:1015400043F63703ADF80830B7238DF80F30B823D2
:101550008DF80E303A4D00220421284607F0D6FEC1
:10156000384E642301220DF10F01304608F061FB73
:10157000642301220DF10D01304608F052FD0122D5
:101580000421284607F0C2FE00220421284607F065
:10159000BDFE642301220DF10E01304608F049FB27
:1015A0006423012203A9304608F03BFD01220421F7
:1015B000284607F0ABFE9DF80D209DF80C3043EA5D
:1015C0000223ADF806300DF10600FFF78FFF1E4B2A
:1015D000188007EE900AF8EEE77A9FED1C7A67EE26
:1015E000877A1B4BC3ED007AD3ED007AF1EE677A70
:1015F00017EE900AC7ED007AFEF79EFF0CA3D3E921
:101600000023FEF7F1FF0CA3D3E90023FEF734FE1D
:1016100006460F462068FEF78FFF32463B46FEF730
:101620002DFEFFF7A3FA206005B0F0BDAFF30080F8
:10163000FCA9F1D24D62503FD7A973BE38EEBD3E32
:10164000000C0240986A0020B0000020787D8B3AA0
:10165000B400002030B585B08DF8071000F07F0091
:101660008DF80F000D4C00220421204607F04EFE9D
:101670000B4D642301220DF10F01284608F0D9FA21
:10168000642301220DF10701284608F0D2FA012255
:101690000421204607F03AFE05B030BD000C0240A0
:1016A000986A002030B583B080238DF806301D4C39
:1016B00000220421204607F029FE1B4D642301224D
:1016C0000DF10601284608F0B4FA642301220DF159
:1016D0000701284608F0A5FC01220421204607F056
:1016E00015FE9DF80730E02B02D0012003B030BD7D
:1016F00001210620FFF7AEFF10210320FFF7AAFF0C
:1017000020217F20FFF7A6FF17210120FFF7A2FF6E
:1017100017211420FFF79EFF00217F20FFF79AFF7B
:10172000E3E700BF000C0240986A002008B53C21A6
:10173000034809F0C7FC3C21024809F0C3FC08BD7E
:10174000806B0020C86B002010B5054C002120469E
:1017500009F022FB0021204608F032FD10BD00BF39
:10176000586C002010B5054C0021204609F0BAFB4A
:101770000021204608F0BCFD10BD00BF586C0020C1
:1017800010B5072818D8DFE800F004182C4054687A
:101790007C90504C00224FF40071204607F0B6FDBB
:1017A00000224FF48071204607F0B0FD00224FF474
:1017B0000071494807F0AAFD10BD464C01224FF4C4
:1017C0000071204607F0A2FD00224FF480712046F0
:1017D00007F09CFD00224FF400713F4807F096FD92
:1017E000EAE73C4C00224FF40071204607F08EFDE2
:1017F00001224FF48071204607F088FD00224FF44B
:101800000071354807F082FDD6E7324C01224FF4D3
:101810000071204607F07AFD01224FF480712046C6
:1018200007F074FD00224FF400712B4807F06EFDA5
:10183000C2E7284C00224FF40071204607F066FDF5
:1018400000224FF48071204607F060FD01224FF422
:101850000071214807F05AFDAEE71E4C01224FF4FB
:101860000071204607F052FD00224FF4807120469F
:1018700007F04CFD01224FF40071174807F046FDB8
:101880009AE7144C00224FF40071204607F03EFD09
:1018900001224FF48071204607F038FD01224FF4F9
:1018A00000710D4807F032FD86E70A4C01224FF423
:1018B0000071204607F02AFD01224FF48071204676
:1018C00007F024FD01224FF40071034807F01EFDCC
:1018D00072E700BF000802400004024008B50C2176
:1018E000074809F06DFB28B90421064809F068FB98
:1018F00018B908BDFFF730FBF6E7FFF72DFBF8E757
:10190000386B0020106C002038B50D46041E16DC24
:10191000002C1ADB002D1FDC002D23DB40F6D81332
:101920009C4200DD1C4640F6D8139D4200DD1D465A
:10193000104B1B689D63104B1B681C6438BD012253
:1019400004210E4807F0E2FCE4E7002204210B48E2
:1019500007F0DCFC6442DDE700220121074807F0C4
:10196000D5FCDBE701221146044807F0CFFC6D42AD
:10197000D4E700BF106C0020386B0020000002404C
:101980000160704710B41A4C54F822305B1A002BD7
:10199000B8BF5B4244F82210164951F82240234454
:1019A00041F82230144C54F82210013144F822102E
:1019B000814207D0114B03EB820292ED000A5DF8E1
:1019C000044B704707EE903AF8EEE77A07EE101AEC
:1019D000B8EEC77AC7EE876A084B03EB8203C3ED04
:1019E000006A0023034941F8223044F82230E1E73D
:1019F000F4000020E4000020D4000020C4000020F7
:101A000007EE900AF8EEE77A67EE807A67EEA07A42
:101A100087EE810A704702460023012002E002FBA4
:101A200000F001338B42FADB7047024680EE016A18
:101A300080EE817AF7EE007A77EEC77A06EE900AAA
:101A4000F8EEE65AC7EEA56A0023184600E0013317
:101A500093420EDA07EE903AF8EEE77A67EEA67A4E
:101A600077EE877AF4EEC67AF1EE10FAEFD81846E0
:101A7000EDE77047054B2C2202FB003080ED000A99
:101A8000C0ED010A80ED021A704700BF040100207A
:101A9000024B2C2202FB00339962704704010020A4
:101AA000054B2C2202FB00300023C360036143611D
:101AB00083610023436270470401002010B504468F
:101AC000284B2C2202FB0033986A50B9254B02FBAD
:101AD00004340023E36023616361A3610023636234
:101AE00010BD204B2C2000FB043484ED080AC4ED0B
:101AF000070A70EE600AC4ED030A9FED1B7A20EE20
:101B0000877AD4ED047A37EE277A84ED047AD4ED1F
:101B1000067A70EEE77ADFED156A67EEA67AC4ED15
:101B2000057AC4ED060A94ED000A60EE800AD4ED51
:101B3000016A27EE267A70EE870A94ED027A67EE44
:101B4000877A70EEA77A17EE900AFEF7F5FC41EC63
:101B5000100B0BF005F851EC100BFEF7DFFF606285
:101B6000BEE700BF040100206F12833AFFFF7944F3
:101B7000B0F5805F00D07047044A136801331360EA
:101B8000012BF8DD134600221A60F4E7E80200207A
:101B900038B5054600240CE02846FFF7F1FD642027
:101BA00009F084FD0020FFF7EBFD642009F07EFDC5
:101BB0000134042CF0DD38BD10B52DED028B9FED06
:101BC000101ADFED100AB0EE080AFFF719FFB0EEA9
:101BD000408A03210220FFF71EFF9FED0B1ADFED65
:101BE0000B0AB0EE480AFFF720FF044601460848FA
:101BF0000AF0BAFB60B2FFF7CBFFBDEC028B10BD61
:101C00000000804533335340666606416666E64011
:101C10006CCC000808B502220D490E4806F054FCB1
:101C200000210D4808F0CCFA02E00C480AF09CFBB9
:101C3000074B5968C729F8D9064806F013FD00215B
:101C4000054808F055FB0720FFF7A2FF08BD00BFBD
:101C5000A800002090690020586C002074CC000877
:101C6000F8B52DED028B06460D4614462A4F00218D
:101C7000384609F027FA0421384609F023FA26707D
:101C8000264B47F22F525A62254B00221A600EE073
:101C900094F90000FFF774FD204B47F22F525A626F
:101CA000DFED207AB4EEE78AF1EE10FA16D91C4B7C
:101CB0001B681BBB194B93ED098AB8EEC88ADFED90
:101CC0001A7AB4EEE78AF1EE10FAE9DB23780133F1
:101CD0005BB22370AB42DBDD2670D9E72378013B92
:101CE0005BB22370B34200DA257094F90000FFF76D
:101CF00047FD0A4B47F22F525A62D8E70021084BA2
:101D00001960054C204609F043FA0421204609F0E9
:101D10003FFABDEC028BF8BD806B00200004004050
:101D2000E802002000BC5446002F3547837A03F0B8
:101D30000703062B59D8DFE803F0045819582E582A
:101D40004300037B03F00302012A50D003F0CC02CE
:101D5000442A4ED003F00C02042A4CD003F0C003F6
:101D6000402B01D00620704702207047037B03F010
:101D70000C02042A41D003F03302112A3FD003F0B1
:101D80000302012A3DD003F03003102B01D00620BE
:101D9000704703207047037B03F03002102A32D0D3
:101DA00003F0CC02442A30D003F00C02042A2ED0D7
:101DB00003F0C003402B01D006207047032070477A
:101DC000037B03F0C002402A23D003F03302112A20
:101DD00021D003F00302012A1FD003F03003102B9F
:101DE00001D0062070470220704706207047082067
:101DF000704701207047032070470820704701207A
:101E00007047022070470820704701207047022069
:101E1000704708207047012070470320704700007A
:101E200008B500230E4A93600E4A13600E4A1360F1
:101E30000E4A13600420FFF733FE0520FFF730FE43
:101E40000020FFF72DFE0A4BD3ED027AF5EE407A23
:101E5000F1EE10FAE5D1642009F028FC08BD00BFBE
:101E600074560020E455002060560020F0550020F4
:101E7000005600200000000000B52DED048B87B057
:101E8000B0EE409AF0EE608A00238B4A13608B4AD2
:101E900000219162F3EE0E7A60EE277ADFED886A18
:101EA00087EEA67ADFED877A60EEA77A67EEA07AF2
:101EB00077EE076A87EEA68A8DED038A04938DED8F
:101EC000058A17EE100AFEF737FB77A3D3E9002344
:101ED000FEF78AFB00227C4BFEF7B0FCFEF746FEC5
:101EE00006EE900A009001900290F5EEC08AF1EEA5
:101EF00010FA74DD754BD3ED007A76EEA77AC3ED58
:101F0000007A02E0724B83ED008A704B93ED007A09
:101F1000704BD3ED007AB4EEE77AF1EE10FAF1DC13
:101F20006A4BD3ED007A76EEA77AC3ED007A02E031
:101F3000674B00221A60654B93ED007A654BD3ED39
:101F4000007AB4EEE77AF1EE10FAF1DC5F4BD3EDF4
:101F5000007A76EEA76AC3ED006A5C4B93ED007AD7
:101F60005C4BD3ED007AB4EEE77AF1EE10FA0CDDBB
:101F7000F1EE487A564BC3ED007A574BD3ED007A19
:101F8000F5EEC07AF1EE10FAE7D8514B00221A6054
:101F9000FFF746FFDFED517AC9EE277A17EE900A78
:101FA000FEF7CAFA42A3D3E90023FEF71DFBFEF7B2
:101FB000B5FDF5EEC08AF1EE10FA61D4F5EEC08AF7
:101FC000F1EE10FA67DD464B1A6800EBD07002EBB9
:101FD00060021A605A68A2EB600058605BE0F5EEA0
:101FE000C08AF1EE10FAD0D5384BD3ED007A77EEF7
:101FF000E67AC3ED007A04E0F1EE487A344BC3EDA3
:10200000007A324B93ED007A324BD3ED007AB4EE86
:10201000E77AF1EE10FAEFD42C4BD3ED007A77EE9D
:10202000E67AC3ED007A02E0294B00221A60274BC2
:1020300093ED007A274BD3ED007AB4EEE77AF1EE18
:1020400010FAF1D4214BD3ED007A77EEE66AC3EDB6
:10205000006A1E4B93ED007A1E4BD3ED007AB4EE6E
:10206000E77AF1EE10FA90D5194B83ED008A1A4BFE
:10207000D3ED007AF5EEC07AF1EE10FAE9DB84E7F1
:10208000174B1A6800EBD070A2EB60021A605A6816
:1020900002EB60005860124B9A689A6007B0BDEC82
:1020A000048B5DF804FB00BF182D4454FB2109404C
:1020B000496632CBD615FA40605600200401002054
:1020C0000000B4426F12833D008066405C560020E1
:1020D000F0550020EC550020F85500200000B443D6
:1020E00010560020837A03F00703062B14D8DFE88C
:1020F00003F0041308130C131000007B00F003001E
:102100007047007BC0F381007047007BC0F3011073
:102110007047007B8009704740F2E730704700004D
:1021200038B52DED028B04460D46694B01229A62AB
:10213000684A13685268134406EE903A0AE0002396
:10214000654A1360654A1360654A1360654B1A68F7
:10215000654B9A60654BD3ED007AB8EEE67A37EEC0
:10216000277A5C4A13685268134407EE903AF8EEF7
:10217000E77AB4EEE77AF1EE10FAE0DC5C4B93ED2F
:10218000007A534B00229A6207E0584B9A68544BEE
:102190001A60544B1A68544B9A60544BD3ED047A2E
:1021A00077EE877A524BD3ED006AF4EEE67AF1EEE1
:1021B00010FAEADC00234A4A1360484A136006E03A
:1021C000454B1A681A60474B1A68474B9A60474B51
:1021D000D3ED057A77EE877A454BD3ED006AF4EEBE
:1021E000E67AF1EE10FAEBDC404BD3ED067A77EEAF
:1021F000877A3F4BD3ED006AF4EEE67AF1EE10FAFF
:1022000016DD3A4BD3ED027AF1EE677A344BC3ED2B
:10221000007A314BD3ED007AF5EEC07AF1EE10FA88
:1022200004D4304B1A68304B9A60DDE700221A6004
:1022300000232B4A1360284A1360264A1368526809
:10224000134408EE103A294BD3ED017AB8EEC87A60
:1022500037EE277A1F4A13685268134407EE903A04
:10226000F8EEE77AB4EEE77AF1EE10FA12DD1A4BE7
:1022700000221A601B4B1A681B4B9A601D4B1B688F
:10228000002BE0D12946204605F04CF8194B0122DD
:102290001A60D8E7184C2068FEF74EF90AA3D3E974
:1022A0000023FDF7EBFFFEF761FC2060094B9A6805
:1022B000124B9968511A9A680A449A60BDEC028BD5
:1022C00038BD00BFAFF30080182D4454FB21F93F07
:1022D000040100208056002060560020F4550020A4
:1022E000F05500200C560020745600204056002067
:1022F000EC550020FC5500205C56002010560020B4
:1023000038B52DED028B05460C46794B01229A62B9
:10231000784A13685268134408EE103A0846FFF7EB
:10232000E1FE012828D10AE00023734A1360734AB2
:102330001360734A1360734B1A68734B9A60734B44
:1023400093ED007ADFED727AB4EEE77AF1EE10FAEF
:10235000EAD493ED037ADFED6F7AB4EEE77AF1EE2B
:1023600010FAE1D41CE00023634A1360644A13604E
:10237000644B1A68644B9A60674BD3ED007AB8EEF1
:10238000C87A37EE277A5B4A13685268134407EE1F
:10239000903AF8EEE77AB4EEE77AF1EE10FAE2DC82
:1023A000534B00229A625D4B93ED007A0BE05A4B3F
:1023B000D3ED027AF1EE677A514BC3ED007A514BBF
:1023C0001A68514B9A60544BD3ED047A77EE677AD2
:1023D000524BD3ED006AF4EEE67AF1EE10FAE6D451
:1023E0000023474A1360454A136006E0424B1A68CF
:1023F0001A60444B1A68444B9A60474BD3ED057AF8
:1024000077EE677A454BD3ED006AF4EEE67AF1EEAB
:1024100010FAEBD4404BD3ED067A77EE677A3F4B58
:10242000D3ED006AF4EEE67AF1EE10FA12D53A4BEB
:102430009A68334B1A60304BD3ED007AF5EEC07AD0
:10244000F1EE10FA04DC2F4B1A682F4B9A60E1E78B
:1024500000221A6000232A4A1360274A1360254A83
:1024600013685268134408EE103A2B4BD3ED017AEF
:10247000B8EEC87A37EE277A1E4A136852681344BA
:1024800007EE903AF8EEE77AB4EEE77AF1EE10FA5A
:1024900012DD194B00221A601A4B1A681A4B9A6007
:1024A0001F4B1B68002BE0D12146284604F03AFF61
:1024B0001B4B01221A60D8E71A4C2068FEF73CF843
:1024C00009A3D3E90023FDF7D7FEFEF74FFB2060F9
:1024D000084B9A68144B9968511A9A680A449A6092
:1024E000BDEC028B38BD00BF182D4454FB21F93FD1
:1024F000040100208056002060560020F455002082
:10250000F05500200C560020745600201C56002068
:10251000000034430000664340560020EC55002084
:10252000FC5500205C56002010560020594B01221B
:102530009A62594A13685268134406EE903A0AE0C8
:102540000023564A1360564A1360564A1360564B8E
:102550001A68564B9A60D0ED007AB8EEE67A37EEFC
:10256000277A4D4A13685268134407EE903AF8EE02
:10257000E77AB4EEE77AF1EE10FAE1DC4C4B93ED3A
:10258000007A444B00229A6206E08268454B1A604A
:10259000454B1A68454B9A60D0ED047A77EE877AFE
:1025A000434BD3ED006AF4EEE67AF1EE10FAECDC80
:1025B00000233C4A13603A4A136006E0374B1A681E
:1025C0001A60394B1A68394B9A60D0ED057A77EE6C
:1025D000877A374BD3ED006AF4EEE67AF1EE10FA23
:1025E000ECDC03E0304B1A68304B9A60D0ED066AA1
:1025F00036EE876A2E4BD3ED007AB4EEE76AF1EE41
:1026000010FA10DDD0ED027AF1EE677A254BC3EDBA
:10261000007A224BD3ED007AF5EEC07AF1EE10FA93
:10262000E0D500221A6000231E4A13601B4A136083
:10263000194A13685268134406EE103AD0ED017A35
:10264000B8EEC67A37EE277A134A136852681344F5
:1026500007EE903AF8EEE77AB4EEE77AF1EE10FA88
:1026600007DD0E4B00221A600F4B1A680F4B9A6061
:10267000E4E7104BD3ED007A76EEA76AC3ED006A6B
:10268000054B9A680C4B9968511A9A680A449A60EB
:10269000704700BF040100208056002060560020D3
:1026A000F4550020F05500200C56002074560020F0
:1026B000EC5500205C56002010560020584B01229B
:1026C0009A62584A13685268134406EE903A08E03A
:1026D0000023554A1360554A1360554B1A68554BF1
:1026E0009A60D0ED007AB8EEE67A37EE277A4D4A56
:1026F00013685268134407EE903AF8EEE77AB4EEA6
:10270000E77AF1EE10FAE3DC454B00229A624A4B7D
:1027100093ED007A0AE0D0ED027AF1EE677A434B4E
:10272000C3ED007A424B1A68424B9A60D0ED047AAE
:1027300077EE677A404BD3ED006AF4EEE67AF1EE7D
:1027400010FAE8D40023394A13603C4A136006E0CB
:10275000354B1A681A60364B1A68364B9A60D0EDC2
:10276000057A77EE677A344BD3ED006AF4EEE67AB9
:10277000F1EE10FAECD403E02D4B1A682D4B9A6061
:10278000D0ED066A37EE666A2B4BD3ED007AB4EED5
:10279000E76AF1EE10FA0CD58268244B1A60224BDE
:1027A000D3ED007AF5EEC07AF1EE10FAE4DD002206
:1027B0001A6000231D4A13601B4A1360194A1368EC
:1027C0005268134406EE103AD0ED017AB8EEC67A9C
:1027D00037EE277A134A13685268134407EE903A8B
:1027E000F8EEE77AB4EEE77AF1EE10FA07DD0E4B79
:1027F00000221A600E4B1A680E4B9A60E4E7104BE9
:10280000D3ED007A77EEE66AC3ED006A054B9A686D
:102810000C4B9968511A9A680A449A60704700BF35
:10282000040100208056002060560020F055002052
:102830000C56002074560020EC550020F455002062
:102840005C560020105600202DE9F8432DED028B38
:10285000B0EE608A804689463F4B00221A603F4BAB
:102860003F4A1A60DFED3F7A20EE270AFDEEC07A7C
:1028700017EE906A3C4B01229A6207E03B4BD3ED86
:10288000027AF4EEC87AF1EE10FA33DC384B9B682A
:102890003344384A9268934233DD354B9F68304663
:1028A000FDF738FE2AA3D3E90023FDF79DFE044679
:1028B0000D463846FDF72EFE22462B46FDF7DEFC80
:1028C00004460D462B4B9868FDF724FE02460B4646
:1028D00020462946FEF7FAF80028CFD0264B1B6881
:1028E000002BCBD14946404604F01CFD224B01226F
:1028F0001A60C3E7194B00221A601C4B83ED028A51
:10290000C4E7164B00221A60194B9A6832449A6049
:1029100093ED007A07EE906AF8EEE77AF6EE006A39
:1029200067EEA67AB8EEC77A37EE277ABDEEC77A99
:1029300083ED007A93ED017AB8EEC77A77EE277AC5
:10294000FDEEE77AC3ED017ABDEC028BBDE8F883BA
:102950009A9999999999E93F60560020E455002089
:10296000C3F53840552AF74404010020745600206E
:102970001056002080560020FC550020000000006A
:10298000F8B52DED028BB0EE608A534B534A1A60B6
:10299000DFED537A20EE270AFDEEC07A17EE906A3B
:1029A00015E0B5EE408AF1EE10FA10D04D4BD3EDA4
:1029B000027AF4EEC87AF1EE10FA08D883ED028AB2
:1029C0000023454A1360484A1360484A1360484B45
:1029D000D3ED037A93ED007A77EE877A9FED457A0F
:1029E000F4EEC77AF1EE10FA42D5434B9B683344BC
:1029F000424A926893423BDD3F4B9F683046FDF769
:102A000089FD33A3D3E90023FDF7EEFD04460D460F
:102A10003846FDF77FFD22462B46FDF72FFC044686
:102A20000D46364B9868FDF775FD02460B4620466D
:102A30002946FEF74BF810B1314B01229A62B5EEF0
:102A4000408AF1EE10FAACD1264B93ED027ADFED1D
:102A50002D7AB4EEE77AF1EE10FAB8D8C3ED027A27
:102A600000231D4A1360204A1360204A1360AEE71A
:102A70001C4B83ED028A0023174A13601A4A136025
:102A80001A4A13601C4B9A6832449A6093ED007A9C
:102A900007EE906AF8EEE77AF6EE006A67EEA67A3D
:102AA000B8EEC77A37EE277ABDEEC77A83ED007AA3
:102AB00093ED017AB8EEC77A77EE277AFDEEE77AE2
:102AC000C3ED017ABDEC028BF8BD00BFAFF300800F
:102AD000CDCCCCCCCCCCE43FE4550020C3F538C001
:102AE000552AF7447456002060560020F055002007
:102AF0001C56002000806D45105600208056002096
:102B0000040100200000B44207EE900AF8EEE77AD4
:102B10009FED1A7A67EE877AFDEEE77A17EE902A34
:102B2000002A06DC10E0164B00211960154B1649EF
:102B30009960164B9B681344154989688B42F2DCF7
:102B400012498B6813448B60002A0BDB00230D4A6B
:102B500093600B4A13607047094B00211960094BC1
:102B60000C499960094B9B681344094989688B4259
:102B7000F2DB06498B681A448A60E7E7552AF74476
:102B8000E455002074560020000034421056002006
:102B900080560020000034C208B501210020FEF755
:102BA00077FF6FF01800FFF7AFFF00210846FEF730
:102BB0006FFF08BD30B583B0044600210220FEF748
:102BC00067FF00210320FEF763FF00210120FEF7CD
:102BD0005FFF00210846FEF75BFF2046FFF7A6F8DF
:102BE0000546964B93E8030002AB03E90300A37A82
:102BF00003F00703062B0ED8DFE803F0040D540D95
:102C0000970DDB00237B03F00302012A10D003F0B1
:102C10003003102B30D08A482C2303FB05050023FA
:102C2000AB62884B00221A609FED870A03B030BD6B
:102C30006FF00400FFF768FF01212846FEF728FF28
:102C4000824BD3ED007A93ED037A77EE877A9FED8E
:102C5000807AF4EEC77AF1EE10FAF1DDD3ED007A66
:102C600093ED037A77EE877A9FED7A7AF4EEC77A5E
:102C7000F1EE10FAE4D5CEE701212846FEF708FF71
:102C8000FFF78AFF6E4B2C2202FB05350023AB6257
:102C90006C4B00221A60704B1A68704B1A609FEDE3
:102CA000700AC3E7237B03F00C02042A19D003F057
:102CB000C003402BAFD101212846FEF7E9FEFFF704
:102CC0006BFF5F4B2C2202FB05350023AB625D4B93
:102CD00000221A60604B1A68604B1A609FED600A10
:102CE000A4E76FF00400FFF70FFF01212846FEF76D
:102CF000CFFE564BD3ED007A93ED037A77EE877AC9
:102D00009FED537AF4EEC77AF1EE10FAF1DDD3EDD0
:102D1000007A93ED037A77EE877A9FED4E7AF4EEA0
:102D2000C77AF1EE10FAE4D575E7237B03F03002A1
:102D3000102A1AD003F00303012B7FF46CAF01219A
:102D40002846FEF7A5FEFFF727FF3D4B2C2202FB8E
:102D500005350023AB623B4B00221A603E4B1A68DC
:102D60003E4B1A609FED3E0A60E76FF00400FFF7EC
:102D7000CBFE01212846FEF78BFE344BD3ED007AC3
:102D800093ED037A77EE877A9FED317AF4EEC77A86
:102D9000F1EE10FAF1DDD3ED007A93ED037A77EEE0
:102DA000877A9FED2C7AF4EEC77AF1EE10FAE4D52B
:102DB00031E7237B03F0C002402A1AD003F00C0352
:102DC000042B7FF428AF01212846FEF761FEFFF7B0
:102DD000E3FE1B4B2C2202FB05350023AB62194B93
:102DE00000221A601C4B1A681C4B1A609FED1C0ACB
:102DF0001CE76FF00400FFF787FE01212846FEF76D
:102E000047FE124BD3ED007A93ED037A77EE877A83
:102E10009FED0F7AF4EEC77AF1EE10FAF1DDD3ED03
:102E2000007A93ED037A77EE877A9FED0A7AF4EED3
:102E3000C77AF1EE10FAE4D5EDE600BF18CC000831
:102E40000401002060560020000034421C5600207F
:102E50000000614500007A455C560020EC550020DA
:102E600000007642837A03F00703062B31D8DFE8AF
:102E700003F004300F301A302500037B03F00C02FE
:102E8000042A28D003F0C003402B26D00620704728
:102E9000037B03F00302012A21D003F03003102B3F
:102EA0001FD006207047037B03F00C02042A1AD0BF
:102EB00003F0C003402B18D006207047037B03F0BB
:102EC0000302012A13D003F03003102B11D0062087
:102ED0007047062070470320704702207047022089
:102EE000704703207047022070470320704703207B
:102EF00070470220704700002DE9F04F83B0019128
:102F00009246914B01229A62DFED907A60EE277A29
:102F100090421AD0FDEEE77A17EE904AB0F1FF3FEB
:102F20001AD09AF80B3003F00703032B6FD0052B50
:102F300000F0CE80042B00F0CD805046FEF7F6FE68
:102F40000546062864D1002562E0814B1A7051467F
:102F50000198FFF779FCEAE07D4B00221A70F6EE4B
:102F6000087A20EE270AFFF70BFD7A4BD3ED027AA1
:102F700007EE104AB8EEC76AB5EE007A26EE077A79
:102F8000F8EEE77A77EE877A734BD3ED026AF8EEC4
:102F9000E66AF4EEE67AF1EE10FA0BDD6F4B1B6891
:102FA000002BE2D15146019804F0BCF96B4B012291
:102FB0001A60DAE7674BD3ED027AF8EEE77A37EE7C
:102FC000877ABDEEC77A83ED027AD3ED007AB4EE4C
:102FD000007A26EE076AF8EEE77A77EE867AFDEE5B
:102FE000E77AC3ED007AD3ED017AF8EEE77A37EEAF
:102FF000866ABDEEC66A83ED016A98E0524B0022F4
:103000009A622C2202FB053301229A6233E00025EA
:10301000504B9B682344504A926893425CDD4D4B71
:10302000D3F808B02046FDF775FA06460F4642A3CE
:10303000D3E90023FDF7D8FA804689465846FDF7C4
:1030400069FA42464B46FDF719F980468946424BDC
:103050009868FDF75FFA02460B4640464946FDF781
:1030600035FD0028CAD0384B01229A622C2202FB7F
:10307000053300229A62374BD3F8088030A3D3E996
:10308000002330463946FDF7AFFA06460F46404664
:10309000FDF740FA32463B46FDF7F0F806460F468C
:1030A0002D4B9868FDF736FA02460B4630463946F6
:1030B000FDF70CFD0028ABD0284B1B68002BA7D1D7
:1030C0005146019804F02EF9244B01221A609FE723
:1030D00000259DE700259BE71B4B01229A622C20CF
:1030E00000FB053300229A621D4B00221A60194B27
:1030F0009A6822449A6093ED007A07EE904AF8EEBF
:10310000E77AF6EE006A67EEA67AB8EEC77A37EE8F
:10311000277ABDEEC77A83ED007A93ED017AB8EE97
:10312000C77A77EE277AFDEEE77AC3ED017A03B02E
:10313000BDE8F08FAFF300809A9999999999D93F9A
:103140009A9999999999E93F04010020552AF744E1
:10315000905600201056002080560020FC5500207C
:10316000E455002070B52DED028B0D461446532812
:103170002CD0542827D19FED188ADFED180AB0EE25
:10318000480AFFF7FDFBFEF74BFEFEF7EBFA144E85
:103190000023B362DFED130A9FED130AFEF76CFE06
:1031A000A37A0233A372FEF7CFFA642008F07EFA06
:1031B0000123B362214628460C4BD3ED000AB0EE42
:1031C000480AFFF741FBBDEC028B70BD1146284653
:1031D000FEF7A6FFF7E700BF000034420000000042
:1031E00004010020DB0FC9400000B4420C5600204F
:1031F00070B52DED028B0D46144653282FD0542860
:103200002AD19FED198ADFED190AB0EE480AFFF7BF
:10321000B7FBFEF705FEFEF7A5FA154E0023B362D5
:10322000DFED140A9FED140AFEF726FEA37A023B97
:10323000A372FEF789FA642008F038FA642008F0D7
:1032400035FA0123B362214628460C4BD3ED000A20
:10325000B0EE480AFFF7F8FABDEC028B70BD1146DC
:103260002846FFF74DF8F7E7000034420000000061
:1032700004010020DB0FC9C00000B4420C5600203E
:1032800038B52DED028B05460C46DFED550A9FED56
:10329000550AFFF775FB2046FFF78CFCFEF7C0FDD3
:1032A0002046FFF7DFFD022821D0032849D0062859
:1032B00071D02046FFF77EFCB0EE408AFEF7B0FDED
:1032C000284603F0CDFF21462846474BD3ED000AA0
:1032D000B0EE480AFFF7B8FAA37A03F00703062B0B
:1032E0006FD8DFE803F06B6E716E756E7900DFEDFD
:1032F0003F8A9FED3F8AF0EE680AB0EE480AFEF77B
:10330000BBFDA37A023B5A4203F0070302F0070217
:1033100058BF5342A3722046FFF74CFCFEF780FDD6
:10332000F0EE680AB0EE480AFEF7A6FDA37A023B6B
:103330005A4203F0070302F0070258BF5342A37238
:10334000B7E7DFED2C8A9FED2A8AF0EE680AB0EE2F
:10335000480AFEF791FDA37A02335A4203F00703AD
:1033600002F0070258BF5342A3722046FFF722FC27
:10337000FEF756FDF0EE680AB0EE480AFEF77CFD57
:10338000A37A02335A4203F0070302F0070258BF40
:103390005342A3728DE7DFED170A9FED170AFEF780
:1033A0006BFDA37A02335A4203F0070302F00702CF
:1033B00058BF5342A372FEF733FD7AE7637A0133B5
:1033C0006372BDEC028B38BD237A01332372F8E7B8
:1033D000637A013B6372F4E7237A013B2372F0E7DF
:1033E00000000000000034420C560020DB0FC9C072
:1033F0000000B442DB0FC94000003443014B0022FF
:103400001A707047EC020020014B01221A707047BD
:10341000ED020020014B00221A707047ED020020DF
:10342000014B1878704700BFED020020014B0022CD
:103430001A607047F0020020014B1860704700BF0F
:10344000F0020020014B1868704700BFF002002016
:1034500082B0094B1A68094B33F81230ADF80430CA
:1034600000209DF8043063F307009DF8053063F3F6
:103470000F2002B0704700BFF0020020F4030020CC
:1034800002780B789A4201D00020704742784B783E
:103490009A4201D00020704701207047002008E0C8
:1034A000084A02EB00120021D15401330F2BF7DD43
:1034B00001300F2801DC0023F8E7024B01221A70CB
:1034C000704700BFF402002038B50F250DE0094B0E
:1034D00003EB0413595D084808F046FF01340F2C34
:1034E000F5DD064808F0DCFF013D002D01DB00247E
:1034F000F5E738BDF402002084CC0008D8CC0008E1
:1035000082B0ADF804009DF804109DF80520034B2F
:1035100003EB01130121995402B07047F40200201B
:1035200001784278024B03EB0113985C704700BFAF
:10353000F4020020024B00221A705A70704700BF3C
:10354000F40300202DE9F04707460C4691F800905F
:1035500091F801A08B689D7993F807808E78FFF72A
:1035600071FF06F00703062B00F2CB81DFE813F0B2
:103570000700C9017700C901DB00C90154010F2D03
:1035800020D86B1C08EB031303F5887317F833304E
:10359000002B5ED1B9F10E0F5DD809F10103B04ADD
:1035A00002EB031313F80A30002B56D1421C09F129
:1035B0000101AC4B03F81210617803EB4203597020
:1035C000012600E0002608EB051303F5887317F8C1
:1035D0003330ABB9B9F1000F12D009F1FF33A04A73
:1035E00002EB031313F80A3053B90136227881191C
:1035F000013A9C4B03F81120627803EB41035A70A7
:10360000B8F10F0F1DD808F1010805EB0515454469
:1036100017F83530ABB9BAF10E0F12D80AF1010A1A
:103620008F4B03EB091919F80A3053B90136811988
:1036300022788C4B03F811206278013203EB4103AE
:103640005A703044FFF7F8FE301E18BF0120BDE865
:10365000F0870026B7E70026B5E70026B3E705EBBD
:103660000513434417F83330ABB9BAF1000F56D005
:103670000AF1FF337A4A02EB0912D35C002B50D1D6
:10368000421C784B03F812906178013903EB420336
:103690005970012600E00026B8F10F0F1CD808F180
:1036A000010305EB0512134417F83330A3B9BAF13F
:1036B0000E0F11D80AF10103694A02EB0912D35C1B
:1036C00053B9013681192278664B03F811206278CC
:1036D000013203EB41035A700F2DB2D8013508EBCC
:1036E000051808F5887817F83830002BA9D1B9F1FA
:1036F0000E0FA6D809F10109594B03EB091919F866
:103700000A30002B9DD10136227881190132554BA8
:1037100003F81120627803EB41035A7091E7002609
:10372000BAE70026B8E7B8F1000F21D008F1FF335F
:1037300003EB051303F5887317F83330002B65D1BD
:10374000B9F1000F64D009F1FF33454A02EB0313CE
:1037500013F80A30002B5DD1421C09F1FF31414BB7
:1037600003F81210617803EB42035970012600E060
:1037700000260F2D22D8B8F1000F1FD06B1C08F1C6
:10378000FF3202EB031303F5887317F83330ABB93C
:10379000B9F10E0F12D809F10103314A02EB0313FC
:1037A00013F80A3053B901362278811901322D4BB2
:1037B00003F81120627803EB41035A70B8F1000F4F
:1037C0003FF43FAF08F1FF3805EB0515454417F806
:1037D0003530002B7FF435AFBAF1000F3FF431AF35
:1037E0000AF1FF3A1E4B03EB091919F80A30002BB6
:1037F0007FF427AF0136811922781A4B03F8112084
:103800006278013A03EB41035A701AE70026B0E7E9
:103810000026AEE70026ACE735B3B8F10F0F68D845
:103820006B1E08F1010203EB0313134417F8333046
:10383000002B60D1BAF10E0F5FD80AF10103084ADC
:1038400002EB0912D35C002B59D1421C054B03F843
:1038500012906178013103EB42035970012604E0B4
:10386000F4020020F40300200026DDB16B1E03EB00
:103870000313434417F83330A3B9BAF1000F11D042
:103880000AF1FF33204A02EB0912D35C53B9013627
:10389000811922781D4B03F811206278013A03EB5D
:1038A00041035A70002D3FF4CCAE013D08EB0515E5
:1038B00005F5887517F83530002B7FF4C2AEB9F1E5
:1038C000000F3FF4BEAE09F1FF390F4B03EB0919AE
:1038D00019F80A30002B7FF4B4AE01362278811932
:1038E000013A0A4B03F81120627803EB41035A7046
:1038F000A7E60026B9E70026B7E70026B5E70026C9
:10390000B3E70020A3E600BFF4020020F403002088
:1039100070B52DED048BF0EE409AB0EE609A11EE8A
:10392000106A11EE905AB0EE428AF0EE628ADFED34
:10393000AF7A60EE277A67EEA07AAD4B00221A606C
:103940009FEDAC7A67EE877AFDEEE77A17EE904A44
:1039500054E0A94B1E6063E001210846FEF798F889
:1039600000210846FEF794F800210320FEF790F8A6
:1039700000210220FEF78CF80520FDF701FF3DE055
:1039800001210220FEF784F800210846FEF780F8A6
:1039900000210320FEF77CF800210120FEF778F8D3
:1039A0000420FDF7EDFE29E001210020FEF770F86C
:1039B00000210320FEF76CF800210220FEF768F8D2
:1039C00000210120FEF764F80220FDF7D9FE15E082
:1039D00001338A4A136000210120FEF759F80021C3
:1039E0000320FEF755F800210220FEF751F80121CF
:1039F0000020FEF74DF80020FDF7C2FE804B9A68CC
:103A0000804B9B6823449A425BDA7F4BD3ED027A6A
:103A1000F4EEC87AF1EE10FA9BDB774B00221A60C5
:103A2000774B9968774B9A68744B1B68774800FB13
:103A300003229142CCDB724A9168724A92687448C0
:103A400000FB03229142C3DC724B93ED027ADFED5F
:103A5000727AB4EEE77AF1EE10FA09DB93ED017AAF
:103A6000DFED627AB4EEE77AF1EE10FABFF674AFEA
:103A7000684B93ED027ADFED687AB4EEE77AF1EE07
:103A800010FABFF67DAF634B93ED017ADFED577A05
:103A9000B4EEE77AF1EE10FA86DB01210320FDF7A0
:103AA000F7FF00210846FDF7F3FF00210120FDF795
:103AB000EFFF00210220FDF7EBFF0120FDF760FE84
:103AC0009CE700210120FDF7E3FF00210320FDF723
:103AD000DFFF00210220FDF7DBFF01210020FDF7C1
:103AE000D7FF0020FDF74CFE444B00221A60424BEA
:103AF00000221A60434B9A6822449A6093ED007A40
:103B000007EE904AF8EEE77AF6EE006A67EEA67ADC
:103B1000B8EEC77A37EE277ABDEEC77A83ED007A22
:103B200093ED017AB8EEC77A37EE277ABDEEC77A01
:103B300083ED017AF7EE007A77EEE97A9FED2B7A42
:103B400067EE877A67EE897A9FED2A7A67EE877A41
:103B5000FDEEE77A17EE902A01E0274B1D602D4B12
:103B6000D3ED037A93ED007A77EE877A9FED2B7A87
:103B7000F4EEC77AF1EE10FA12D5224B9B6813448B
:103B80001F4989688B420BDD1F4BD3ED027AF4EE9F
:103B9000E87AF1EE10FAE0D8174B00211960DEE761
:103BA000154B00211960174B99681144996093EDEA
:103BB000007A07EE902AF8EEE77AF6EE006A67EEF2
:103BC000A67AB8EEC77A37EE277ABDEEC77A83EDCC
:103BD000007A93ED017AB8EEC77A77EE277AFDEE98
:103BE000E77AC3ED017ABDEC048B70BD0000B442EE
:103BF00060560020552AF744E4550020481700205D
:103C00008056002010560020745600206594020053
:103C1000E9D902001C5600200000C84200806D4512
:103C2000F8B52DED028B0446B0EE608A11EE107AE5
:103C300011EE906A12EE105AF0EE628A70EE007A7F
:103C400017EE900AFCF778FC31A3D3E90023FCF7C8
:103C5000F5FDFCF78BFF206078EE087A17EE900AEE
:103C6000FCF76AFC2AA3D3E90023FCF7E7FDFCF785
:103C70007DFF60603846FCF75FFC21A3D3E9002399
:103C8000FCF7B2FC0022204BFCF7D8FDFCF76EFFDE
:103C900020613046FCF750FC19A3D3E90023FCF760
:103CA000A3FC0022184BFCF7C9FDFCF75FFF606125
:103CB0002846FCF741FC12A3D3E90023FCF794FC4F
:103CC0000022114BFCF7BAFDFCF750FFA061DFEDBD
:103CD0000F7A68EEA77A17EE900AFCF72DFC08A37E
:103CE000D3E90023FCF780FC0022074BFCF7A6FD7C
:103CF000FCF73CFFA060BDEC028BF8BDAFF3008089
:103D0000182D4454FB210940008066406F12833A0D
:103D10006626CA236892503F00B1704708B52DED62
:103D2000068BDFED3F8A9FED3F8AF0EE682AB0EE0A
:103D3000482AF3EE0E1AB2EE0E1AF3EE060AB1EEB0
:103D4000000A3948FFF76CFFF0EE682AB0EE482A07
:103D5000F3EE0E1AB2EE0E1AF1EE000AB3EE060AF8
:103D60003248FFF75DFF9FED329A9FED328ADFED1B
:103D7000328ADFED322AB0EE492AF0EE481AB3EE6D
:103D80000E1AF0EE080AB0EE680A2D48FFF748FF59
:103D9000DFED2C2A9FED2C2ADFED2C1AB0EE481A0D
:103DA000F0EE680AB0EE680A2948FFF739FFDFED48
:103DB00029AA9FED29AADFED299ADFED298AF0EEE5
:103DC0006A2AB0EE4A2AF0EE691AB0EE681AF2EEEC
:103DD000080AB2EE0E0A2348FFF722FFF0EE6A2A25
:103DE000B0EE4A2AF0EE691AB0EE681AF2EE0E0A48
:103DF000B2EE080A1C48FFF713FFDFED1C2AB0EEF5
:103E0000492AF0EE481AB3EE0E1AF3EE000AB0EEAD
:103E1000600A1748FFF704FFBDEC068B08BD00BF22
:103E200000E02B4500003442D4160020F01600209C
:103E30000000B442000070420000000000A0B9443D
:103E40000C1700200028D244000034430000F04248
:103E5000B816002000C028450000074300008C422F
:103E600000008242801600209C1600200080A2459F
:103E7000281700200000000070B52DED028BB24B1A
:103E80001D680020FDF77CFC00242FE001210020AC
:103E9000FDF7FEFD00210320FDF7FAFD00210220C1
:103EA000FDF7F6FD00210120FDF7F2FDA74B93ED94
:103EB000002AF0EE422ADFEDA61A9FEDA61ADFEDEA
:103EC000A60AB7EE000AFFF723FD00210846FDF71A
:103ED000DFFD00210320FDF7DBFD00210220FDF7BF
:103EE000D7FD00210120FDF7D3FD0134AC4200F3E2
:103EF0001E819A4B03EB04131B7B132BF5D801A2F5
:103F000052F823F08D3E0008EB3E00088B4000087D
:103F1000EB3F0008EB3E0008EB3E00088F40000836
:103F2000B7400008EB3E0008EB3E0008DF40000809
:103F3000E7400008EF400008FF4000080F4100087C
:103F40001F410008F740000807410008174100081A
:103F5000274100080136814B03EB06131B7B032B23
:103F6000F8D0331B08EE103AB8EEC88A64B918EEE0
:103F7000100AFCF7E1FA70A3D3E90023FCF77EF9FD
:103F8000FCF7F4FD08EE100A01210020FDF780FD8A
:103F900000210320FDF77CFD00210220FDF778FDC4
:103FA00000210120FDF774FD684BD3ED002A9FED41
:103FB0006C2ADFED671A9FED671AF0EE480AB6EE3D
:103FC000000AFFF7A5FC741E00210846FDF760FDFE
:103FD00000210320FDF75CFD00210220FDF758FDC4
:103FE00000210120FDF754FD7FE72646B3E70136A7
:103FF0005A4B03EB06131B7B032BF8D0341B07EE45
:10400000904AB8EEE78A01210020FDF741FD00212A
:104010000320FDF73DFD00210220FDF739FD0021C1
:104020000120FDF735FD18EE100AFCF785FA002295
:104030004C4BFCF7D9FA42A3D3E90023FCF7D4FA9E
:10404000424B93ED008AFCF791FDF0EE482A9FED7C
:10405000442ADFED3F1A9FED3F1A00EE900AB6EEBC
:10406000000AFFF755FC741E00210846FDF710FDFD
:1040700000210320FDF70CFD00210220FDF708FDC3
:1040800000210120FDF704FD2FE72646B0E70021BF
:104090000846FDF7FDFC00210320FDF7F9FC002197
:1040A0000220FDF7F5FC00210120FDF7F1FC2E4870
:1040B000FEF704FB19E700210846FDF7E9FC0021A3
:1040C0000320FDF7E5FC00210220FDF7E1FC0021C3
:1040D0000120FDF7DDFC2448FEF728FA05E7234818
:1040E000FEF7ECFA01E72148FEF720FAFDE620484A
:1040F000FEF7E4FAF9E61F48FEF7E0FAF5E61C4899
:10410000FEF714FAF1E61B48FEF710FAEDE61A483E
:10411000FEF7D4FAE9E61948FEF7D0FAE5E61648C4
:10412000FEF704FAE1E61548FEF700FADDE6BDEC1D
:10413000028B70BDAFF30080777777777777C73FD3
:104140008DD13AAA9AA0F63F7C1600200C5600208A
:10415000C3F538C0C3F53840BCBB3B3E7C060020ED
:1041600000007A450000E03F0C17002028170020CF
:10417000D4160020F0160020801600209C16002087
:1041800070B506460C46002305E0334A02EB0312E5
:10419000002151730133FF2BF7DD637A227A214628
:1041A000304602F0F4F9637D227D2146304602F06C
:1041B0001FFA2A4B1A68284B03EB021304F108027A
:1041C00007CA83E8070001225A73204601F078FDF0
:1041D00025E003232269A17A304601F07BFD0246E7
:1041E000E06104F1080504F11401284602F049F8E1
:1041F000637D227D2146304602F0FAF917490B68AB
:104200005A1C0A60144B03EB021395E8070083E87D
:104210000700204601F054FD114808F041F92278CA
:10422000237A9A42D5D8A2789342D2D86278637A18
:104230009A42CED8E2789342CBD8084A1368013329
:104240001360054D05EB0315143494E8070085E869
:104250000700044A136070BD7C060020441700204C
:10426000D8CC00087C1600202DE9F04782B00378F6
:10427000AD4A91688A79934209D88478A24206D8D7
:104280004478CA79944202D8C1788A4211D9A64AA0
:1042900091698A7993420FD883789A420CD84278F0
:1042A000CB799A4208D8C278934205D89E4B012216
:1042B0001A7302B0BDE8F0879B4B9B6A5B7933B100
:1042C0000022994B1A7300234FF0010CA6E1012242
:1042D000954B1A73F7E74F7902F10208924C04EB01
:1042E0000814D4F8089099F80540A7421ED0141D70
:1042F0008D4E06EB0414A4686679B7421FD04D7941
:10430000D11C894C04EB011189684C79A54200F05D
:10431000EF811A46062B00F27681DFE813F04501A3
:10432000740160017401560174016A017E4901EB58
:104330000C1103240C730CF1010C01326EE1CE88D8
:10434000ADF80060E488ADF804401E46062B11D895
:10435000DFE803F0041092105410D0009DF80540DF
:10436000744519D09DF80440671CBD422AD0013520
:10437000AC4237D06C4C04EB0C14247B082C00F0BE
:10438000F980092C00F00381103CE4B2012CB6D86E
:104390000CF1010C033241E19DF80440671CBD4261
:1043A00008D00135AC42E5D15F4C04EB0C14092573
:1043B0002573DFE75C4F07EB0C174FF0080E87F80B
:1043C0000CE0EEE7584F07EB0C1E4FF00C0A8EF88E
:1043D0000CA00CF1010C07EB0C174FF00D0E87F839
:1043E0000CE0C4E7504C04EB0C150D272F730CF1B7
:1043F000010C04EB0C140C252573BBE79DF805405C
:10440000744513D09DF80440671CBD4224D001358B
:10441000AC42AFD1444C04EB0C150C272F730CF1BC
:10442000010C04EB0C140D252573A3E79DF8044043
:10443000671CBD4208D00135AC429BD13A4C04EB1D
:104440000C140825257395E7374F07EB0C174FF031
:10445000090E87F80CE0EEE7334F07EB0C1E4FF028
:104460000D0A8EF80CA00CF1010C07EB0C174FF0A5
:104470000C0E87F80CE0CAE79DF80440AC4215D05A
:104480009DF80540651CAE4526D00EF1010E744521
:104490007FF470AF244C04EB0C150C272F730CF138
:1044A000010C04EB0C140D25257363E79DF8054002
:1044B000651CAE450AD00EF1010E74457FF45AAF6B
:1044C000194C04EB0C140825257353E7164D05EB26
:1044D0000C1509272F73EEE7134D05EB0C174FF062
:1044E0000D0A87F80CA00CF1010C05EB0C150C273C
:1044F0002F73CAE79DF80440AC4217D09DF80540E1
:10450000651CAE4528D00EF1010E74457FF432AF24
:10451000054C04EB0C150D272F730CF1010C04EB6B
:104520000C140C25257325E77C0600209DF805401A
:10453000651CAE450AD00EF1010E74457FF41AAF2A
:10454000B34C04EB0C140925257313E7B04D05EBB0
:104550000C1508272F73EEE7AD4D05EB0C174FF048
:104560000C0A87F80CA00CF1010C05EB0C150D27BB
:104570002F73C8E7331F594203F0070301F0070107
:1045800058BF4B42DBB20CF1010C033246E0331D45
:10459000594203F0070301F0070158BF4B42DBB259
:1045A0000CF1010C033239E099F8064089798C420C
:1045B00005D9974901EB0C1106240C7323E09449AB
:1045C00001EB0C1107240C731DE099F806508C794F
:1045D000A54267D98E4C04EB0C140725257399F876
:1045E0000750CC79A54263D9894C04EB0C140725FC
:1045F000257399F80740C9798C425FD9844901EB4A
:104600000C1106240C73824901EB0C11097B06295D
:104610005AD0072962D00CF1010C424604787C493B
:1046200001EB021189688D79AC4203D88478A542E8
:104630007FF63FAE447891F807E074453FF639AE17
:10464000C478A6453FF635AE002B3FF444AE042BAC
:104650003FF441AE022B3FF43EAE062B3FF43BAE9F
:104660004C79951C6A4901EB0511896849798C429E
:1046700000F07B81002C00F0AB82591E0629CDD8BA
:1046800001A454F821F000BF954B00081D46000816
:10469000B34B00081D460008954B00081D46000856
:1046A000B34B00085A4C04EB0C140625257396E70F
:1046B000574C04EB0C14062525739AE7544901EB7B
:1046C0000C1107240C739EE7931E5A4203F0070354
:1046D00002F0070258BF5342DBB29AE702335A4254
:1046E00003F0070302F0070258BF5342DBB292E720
:1046F000541C474A02EB04129268D288ADF800209D
:10470000CA88ADF804201946062B15D8DFE803F057
:1047100004148D145114C9009DF801409DF80560E2
:10472000B4421DD09DF800506F1C9DF804209742A4
:104730002BD00132954233D0354A02EB0C12127B5A
:104740000C2A00F0EA800D2A00F0F1800E2A00F019
:10475000F8800F2A00F0FF800CF1010C42465DE763
:104760009DF800509DF80420954206D9284F07EB8C
:104770000C174FF00E0E87F80CE09542D2D2244A67
:1047800002EB0C120F251573CCE7671CB742D0D192
:104790001F4F07EB0C174FF00D0E87F80CE0C8E722
:1047A0000134B442C8D11A4A02EB0C120C2414731F
:1047B000C2E79DF801609DF80540A64212D09DF821
:1047C00000506F1C9DF80420974223D0013295427F
:1047D000B2D10134A642AFD10D4A02EB0C120D2426
:1047E0001473A9E79DF800509DF80420954206D95E
:1047F000074F07EB0C174FF00F0E87F80CE09542B0
:10480000DDD2034A02EB0C120E251573D7E700BF69
:104810007C060020671CBE42D8D1AF4F07EB0C17B7
:104820004FF00C0E87F80CE0D0E79DF800209DF8C3
:104830000440A24213D00132A24225D0A2427FF40A
:104840007BAF9DF8012001329DF80540A2427FF424
:1048500073AFA14A02EB0C120C2414736CE79DF8A1
:1048600001609DF80550AE4206D99B4F07EB0C172F
:104870004FF00F0E87F80CE0AE42DCD2964D05EB00
:104880000C150E262E73D6E79DF801609DF8055095
:104890000135AE42D2D1904D05EB0C150D262E738D
:1048A000CCE79DF800409DF80420944213D00132DB
:1048B000944225D094427FF43FAF9DF8012001320D
:1048C0009DF80540A2427FF437AF834A02EB0C12F9
:1048D0000D24147330E79DF801609DF80550AE4239
:1048E00006D97D4F07EB0C174FF00E0E87F80CE042
:1048F000AE42DCD2784D05EB0C150F262E73D6E7B1
:104900009DF801609DF805500135AE42D2D1724D3F
:1049100005EB0C150C262E73CCE74B1E594203F009
:10492000070301F0070158BF4B42DBB20BE701332D
:10493000594203F0070301F0070158BF4B42DBB2B5
:1049400004E7033B594203F0070301F0070158BF96
:104950004B42DBB2FDE603335A4203F0070302F099
:10496000070258BF5342DBB2F6E65B4E1701F75B16
:10497000ADF800702F01F65BADF804609DF80060A3
:1049800006F1010E9DF80470BE451BD007F1010829
:10499000464527D0464535D0BE4542D0002C00F0D4
:1049A0009D80D41C4C4A02EB0412926852799142C9
:1049B00046D05A1E062A7BD8DFE802F06C7A7E7A4F
:1049C0006C7A7E009DF8018008F101089DF8059041
:1049D000C845DBD1404901EB0C1101240C73A44400
:1049E00022441BE69DF801A09DF8059009F10109FC
:1049F000CA45CFD1384901EB0C1101240C73A444F2
:104A000022440BE69DF8016001369DF8058046457D
:104A1000C2D1314901EB0C1101240C73A44422448E
:104A2000FCE59DF801709DF805600136B742B5D1EF
:104A3000294901EB0C1101240C73A4442244EDE537
:104A40005A1E062A13D8DFE802F0041216120412C6
:104A50001600214A02EB0C120E211173033B5A423D
:104A600003F0070302F0070258BF5342DBB20CF118
:104A7000010C2A46D2E5184A02EB0C120F211173E1
:104A800003335A4203F0070302F0070258BF5342B0
:104A9000DBB2ECE7104A02EB0C120A211173023B65
:104AA0005A4203F0070302F0070258BF5342DBB239
:104AB0000CF1010C2A46B1E5074A02EB0C120B215E
:104AC000117302335A4203F0070302F0070258BF82
:104AD0005342DBB2ECE700BF7C060020D41C564AF0
:104AE00002EB041292685279914208D05A1E062AAB
:104AF0003DD8DFE802F02E3C403C2E3C40005A1EE0
:104B0000062A13D8DFE802F0041216120412160067
:104B1000494A02EB0C120F21117303335A4203F07E
:104B2000070302F0070258BF5342DBB20CF1010C3D
:104B30002A4673E5404A02EB0C120E211173033B27
:104B40005A4203F0070302F0070258BF5342DBB298
:104B5000ECE7394A02EB0C120B21117302335A4273
:104B600003F0070302F0070258BF5342DBB20CF117
:104B7000010C2A4652E5304A02EB0C120A2111734D
:104B8000023B5A4203F0070302F0070258BF5342A8
:104B9000DBB2ECE7284901EB0C110C240C73013B50
:104BA000594203F0070301F0070158BF4B42DBB243
:104BB00034E5214901EB0C110D240C7301335942EA
:104BC00003F0070301F0070158BF4B42DBB225E5B4
:104BD000591E06293FF622AD01A454F821F000BF6A
:104BE000FD4B00081D4600081B4C00081D46000830
:104BF000FD4B00081D4600081B4C00080E4901EB48
:104C00000C110D240C730133594203F0070301F01A
:104C1000070158BF4B42DBB200E5074901EB0C111D
:104C20000C240C73013B594203F0070301F0070108
:104C300058BF4B42DBB2F1E47C06002000000000CC
:104C400070B5A54A516A47F22F53591AA34C2160F7
:104C50005362A348426A9A1A6260436207EE901A4E
:104C6000B8EEE77ADFED9F6A27EE267A9E4B83ED5A
:104C7000007A07EE902AF8EEE77A67EEA67AC3ED9F
:104C8000017AD3ED007A93ED017A77EE877AB6EE6A
:104C9000007A67EE877AC3ED027A944B1B68581E40
:104CA000B0F5FA6F0ED205468F480668904C04EBBB
:104CB0008504266044688F4800EB8500046001335A
:104CC0008A4803608C4B18680144196059680A448B
:104CD0005A601A6859680A449A6088498848FCF7FB
:104CE0002BFC884B9B6A012B5BD0864B5B6D012BA9
:104CF00068D0844BD3F88030012B00F08280814B48
:104D0000D3F8AC30012B00F097807E4BD3F888317C
:104D1000012B00F0AC807C4B93ED007A7B4CD4ED02
:104D2000027A77EE877AC4ED027A794B93ED007AB6
:104D3000784BD3ED007A77EE877AC3ED007AD4ED25
:104D4000026A93ED007A9FED746A27EE067AF6EE1A
:104D5000007A27EE277A36EEC77A84ED017AD3ED12
:104D6000007A67EE867A94ED017A77EE877AC4ED61
:104D7000007A94ED000A5C4ED6ED000A0420FCF7A0
:104D80009DFE664D286094ED010AD6ED010A0520CE
:104D9000FCF794FE0146624B18602868FCF7B4FDEE
:104DA00070BD604B93ED000A544BD3ED000A002018
:104DB000FCF784FE07EE900AF8EEE77A554BC3ED58
:104DC000007AA8E7584B93ED020AD3ED010A574B3E
:104DD000D3ED007A70EEA70A0120FCF76FFE07EE14
:104DE000900AF8EEE77A17EE900AFBF7A5FB38A3D6
:104DF000D3E90023FBF7F8FBFBF7B8FE454B18603F
:104E000089E7494B93ED020A494BD3ED020A022090
:104E1000FCF754FE07EE900AF8EEE77A17EE900AD8
:104E2000FBF78AFB2AA3D3E90023FBF7DDFBFBF7A3
:104E30009DFE384B18606EE73D4B93ED010A3A4BEF
:104E4000D3ED010A0320FCF739FE07EE900AF8EED5
:104E5000E77A17EE900AFBF76FFB1DA3D3E9002357
:104E6000FBF7C2FBFBF782FE2A4B186053E72E4B81
:104E7000D3ED030AD3ED007A70EEA70A9FED2D0A59
:104E80000820FCF71BFE07EE900AF8EEE77A17EE13
:104E9000900AFBF751FB0EA3D3E90023FBF7A4FB19
:104EA000FBF764FE194B98601E4B93ED000A134B01
:104EB000D3ED000A0020FCF701FE07EE900AF8EEA1
:104EC000E77A144BC3ED007A25E700BFAFF300800B
:104ED000FCA9F1D24D62503F000400403056002042
:104EE00000080040CD77813F005600205017002079
:104EF000541700209436002080560020EC550020E6
:104F0000F855002004010020E455002074560020CC
:104F1000F0550020605600209A9909428C560020D6
:104F2000945600205C5600201C5600202C56002071
:104F30006456002000806D45F8B52DED028B6A4A5D
:104F4000516A47F22F53591A684C216053626848DE
:104F5000426A9A1A6260436207EE901AB8EEE77AE4
:104F6000DFED646A27EE267A634D85ED007A07EE61
:104F7000902AF8EEE77A67EEA67AC5ED017AD5EDCC
:104F8000007A95ED017A77EE877AF6EE008A67EE81
:104F9000A87AC5ED027A594B18680144196059681E
:104FA0000A445A601A6859680A449A6038213720BE
:104FB000FCF74CFA524B83ED000A93ED008A514BFB
:104FC000D3ED007A38EE678A4F4BD3ED007A28EEA6
:104FD000278A18EE100AFBF7AFFA3FA3D3E90023A4
:104FE000FBF702FB06460F46484C2068FBF7A4FA85
:104FF0003BA3D3E90023FBF7F7FA02460B46304602
:105000003946FBF73BF9FBF7B1FD07EE900AF1EEED
:10501000677A3F4BC3ED007A84ED008AD3ED007AC6
:105020009FED3C7A27EE877A3B4BD3ED007A77EE03
:10503000877AC3ED007A394BD3ED007A384A92ED86
:10504000007A77EE877AC3ED007A364A92ED007ADD
:10505000354CD4ED027A77EE877AC4ED027A93ED7F
:10506000007A324BD3ED007A77EE877AC3ED007A7F
:10507000D4ED026A93ED007A9FED2D6A27EE067A51
:1050800027EE287A36EEC77A84ED017AD3ED007ADE
:1050900067EE867A94ED017A77EE877AC4ED007A2E
:1050A00094ED000AD5ED000A0420FCF707FD214E1F
:1050B000306094ED010AD5ED010A0520FCF7FEFCF5
:1050C00001461D4B18603068FCF71EFCBDEC028BDE
:1050D000F8BD00BFAFF300807B14AE47E17A843F98
:1050E000AE47E17A14AEEF3F000400403056002096
:1050F00000080040CD77813F0056002080560020F8
:10510000B4000020C000002068CC0008DC5500205E
:10511000F85500206F12833AEC550020F05500201E
:10512000F4550020E45500207456002060560020FD
:105130009A9909428C5600209456002038B50446AE
:10514000244B984203D0244B9C4223D038BD234BA0
:105150001B68062B0DD0072B0ED0052BF3D1204B4F
:105160001A6841F287339A4209DD1E4B00221A6009
:10517000E9E7FFF765FDE6E7FFF7DEFEE3E71A493B
:105180001A48FCF7D9F9164A1368164909680B44FE
:105190001360D8E7164D002229680A20FCF7F2FBBD
:1051A000144C84ED000A012269680A20FCF7EAFB2E
:1051B00084ED010A104D022229680A20FCF7E2FB67
:1051C00084ED020A032269680A20FCF7DBFB84ED08
:1051D000030ABBE7F06A0020586C00204C1700203F
:1051E000D8550020D4550020EC550020F85500205B
:1051F0009C0000201C560020A800002001EB011399
:10520000134400EBC30043884BB90939C9B20129E3
:1052100007D8093AD2B2022A05D9002070470020E7
:105220007047002070470120704702EB011303F51F
:10523000887300EBC30043884BB90939C9B202290E
:1052400007D8093AD2B2012A05D9002070470020B8
:105250007047002070470120704700B5531C01EBD8
:10526000011E734400EBC3031B7901F1010C02EB37
:105270000C1C0CF5887C00EBCC0C9CF804C003EBF8
:105280004C03964400EBCE0E9EF804C04FEA8C0C03
:105290005CFA83F302EB011202F5887200EBC202A2
:1052A0001079C00050FA83F0C0B25DF804FB002111
:1052B0000CE001EB0113134400EBC30340F6FF7C49
:1052C000A3F802C00132102AF3DD01310F2901DCFD
:1052D0000022F8E74FF0000C0DE002EB0C1303F591
:1052E000887300EBC30340F6FF71598001320F2A27
:1052F000F3DD0CF1010CBCF1100F01DC0022F6E72C
:10530000704700B5002114E001EB011313444FF086
:10531000020C00F833C000EBC3034FF0000C83F81D
:1053200004C083F805C09971DA7101320F2AEBDDF0
:1053300001310F2901DC0122F8E700221DE002EB18
:10534000021C00EBCC03012100F83C1019714FF056
:10535000000C83F805C05FFA82FE83F806E083F84C
:1053600007C083F8801083F8841083F885C083F821
:1053700086E0102183F8871001320F2ADFDD01213A
:1053800017E002EB011303F588734FF0020C00F8ED
:1053900033C000EBC3034FF0000C83F804C04FF0A0
:1053A000010C83F805C09971DA7162440F2AE8DDB7
:1053B00001310F2901DC0022F8E700211DE001F591
:1053C0008873012200F8332000EBC3031A715A716D
:1053D0004FF0000C83F806C05FFA81FC83F807C029
:1053E00001F5047300F8332000EBC3031A715A71FE
:1053F00010229A7183F807C001310F29DFDD0122E5
:1054000080F800290023037280F8042903735DF8F3
:1054100004FB2DE9F0410D4614461F469DF8186027
:1054200000215CE040F6FF780EEB0E13634400EBC6
:10543000C303A3F802806B1C0B4404EB020C0CEBBF
:10544000031808F5887810F83880B8F1010F3CD0BF
:105450004FF000080CEB031303F5887300EBC30354
:10546000A3F802800EEB0E13634410F83330012BC7
:105470002ED04FF000080EEB0E13634400EBC30375
:10548000A3F802800CEB0E1303F5887310F8333089
:10549000012B20D000230CEB0E1C0CF5887C00EBBC
:1054A000CC0CACF802300132964217DD05EB010E50
:1054B000631C03EB020C0EEB0E13634410F8333045
:1054C000012BAFD04FF00008AEE740F6FF78C1E700
:1054D00040F6FF78CFE740F6FF73DCE701318F42FB
:1054E00001DD0022E0E7BDE8F0812DE9F04182B066
:1054F00004460E4617469846099DFFF7D8FE9DF8CC
:105500002030009343463A4631462046FFF781FF5C
:1055100000E20EF1010E02EB0C1C0CF5887C04EB92
:10552000CC0CACF802E0012081E00E2A2CDC02F168
:10553000010C03EB0311614414F8311029420AD124
:1055400003EB0311614404EBC1014E8840F6FF7187
:105550008E4200F09880002B16DD591E02F1010EDC
:1055600001EB011CF44414F83CC01CEA050F0BD1FC
:1055700001EB011CF44404EBCC0CBCF802C040F677
:10558000FF76B44500F09080002A28DD03EB03117C
:10559000114414F8311029420AD103EB03111144CC
:1055A00004EBC1014E8840F6FF718E4200F08C8002
:1055B000002B14DD591E01EB011C944414F83CC06F
:1055C0001CEA050F0BD101EB011C944404EBCC0C3D
:1055D000BCF802C040F6FF76B44500F08580013289
:1055E0000F2A00F3918002EB031101F5887104EB9F
:1055F000C101B1F802E040F6FF718E45EFD00E2BED
:1056000015DC03F1010C02EB0C1101F5887114F8A3
:10561000311029420BD102EB0C1101F5887104EB1A
:10562000C1014E8840F6FF718E423FF472AF012BEC
:105630007FF77BAF03F1FF3C02EB0C1101F58871A2
:1056400014F8311029427FF470AF02EB0C1101F510
:10565000887104EBC1014E8840F6FF718E427FF4E1
:1056600064AF02EB031101F5887104EBC1014988B5
:10567000013102EB0C1C0CF5887C04EBCC0CACF873
:105680000210012051E702EB031101F5887104EBD0
:10569000C1014888033003EB03118C4404EBCC0CAC
:1056A000ACF80200012056E702EB031000F5887009
:1056B00004EBC0004088033001EB0111714404EB9E
:1056C000C101488001205FE702EB031101F58871F9
:1056D00004EBC1014888033003EB0311114404EBD0
:1056E000C1014880012063E702EB031000F58870D8
:1056F00004EBC0004088033001EB0111114404EBBE
:10570000C101488001206AE701330F2B01DC002230
:1057100066E70023F9E00CF1010C03EB03118E4462
:1057200004EBCE0EAEF802C0012085E00E2B2FDC7C
:1057300003F1010C02EB0C1101F5887114F8311022
:1057400029420BD102EB0C1101F5887104EBC10168
:105750004E8840F6FF718E4200F09380002A17DDDC
:1057600003F1010E02F1FF3C0CEB0E1101F5887103
:1057700014F8311029420BD10CEB0E1101F5887190
:1057800004EBC1014E8840F6FF718E4200F08A8022
:10579000002B2CDD02EB031101F5887114F8311098
:1057A00029420CD102EB031101F5887104EBC10110
:1057B000B1F802C040F6FF718C4500F08480002AE9
:1057C00015DD02F1FF3C0CEB031101F5887114F8B3
:1057D000311029420BD10CEB031101F5887104EB58
:1057E000C101B1F802E040F6FF718E457BD0013275
:1057F0000F2A00F3898003EB0311114404EBC1016C
:10580000B1F802C040F6FF718C45F0D00E2A13DCCF
:1058100002F1010E03EB0311714414F83110294217
:105820000AD103EB0311714404EBC1014E8840F629
:10583000FF718E423FF46FAF012A7FF777AF02F11D
:10584000FF3C03EB0311614414F8311029427FF44B
:105850006DAF03EB0311614404EBC1014E8840F6C8
:10586000FF718E427FF462AF03EB0311881804EBE3
:10587000C00040880130614404EBC1014880012030
:1058800054E703EB0311114404EBC10149880331D0
:1058900002EB0C1C0CF5887C04EBCC0CACF8021071
:1058A00001205BE703EB0311114404EBC1014988BC
:1058B00003310CEB0E1C0CF5887C04EBCC0CACF823
:1058C0000210012064E703EB0311114404EBC10152
:1058D0004888033002EB031101F5887104EBC10124
:1058E000488001206BE703EB0311114404EBC10175
:1058F000498803310CEB031C0CF5887C04EBCC0CC1
:10590000ACF80210012072E701330F2B01DC0122F9
:105910006EE710B100200123F7E602B0BDE8F08188
:1059200070B503F1010E02EB0214744410F8344018
:10593000022C5CD002EB0215754400F8354002F1F0
:10594000010C03EB0C1404F5887410F83440022C9D
:1059500051D003EB0C1505F5887500F8354002EBC6
:1059600002141C4410F83450022D48D002EB0214EB
:105970001C4400F8345003EB021404F5887410F84A
:105980003440022C3FD003EB021101F5887100F87E
:10599000314002EB0212964410F83E60012E14BF13
:1059A0000026012600EBCE0E8EF8046003EB0C1CE3
:1059B0000CF5887C10F83CE0BEF1010F14BF4FF0ED
:1059C000000E4FF0010E00EBCC0C8CF804E0012D22
:1059D00014BF002501251A4400EBC2021571012CE9
:1059E00014BF0024012400EBC100047170BD0C79C8
:1059F00004F003049EE70C79C4F38104A9E70D7950
:105A0000C5F30115B2E70C79A409BCE7F8B5064661
:105A10000F46414806F044FD10255BE004EB0413FB
:105A20002B4406EBC30359883C4806F09DFC0E2C22
:105A300002DC3B4806F098FC01340F2C15DCEAB27E
:105A4000E1B23046FFF7DAFB28B93B78A342E5D153
:105A50007B78AB42E2D104EB04132B4406EBC30387
:105A60005988304806F080FCE1E72F4806F018FD21
:105A7000002410E06B1E03EB041303F5887306EBA0
:105A8000C3035988254806F06FFC0F2C02DC274819
:105A900006F06AFC0134102C18DC6A1ED2B2E1B2A6
:105AA0003046FFF7C2FB28B93B78A342E2D17B78AE
:105AB000AB42DFD16B1E03EB041303F5887306EBD7
:105AC000C3035988174806F04FFCDEE7164806F076
:105AD000E7FC013D002D04DD114806F045FC0024E3
