:020000040800F2
:1000000000000220C949010881900008839000087F
:100010008590000887900008899000080000000083
:100020000000000000000000000000008B900008AD
:100030008D900008000000008F900008919000084B
:10004000194A0108194A0108194A0108194A010800
:10005000194A0108194A0108194A0108194A0108F0
:10006000194A0108194A0108194A0108194A0108E0
:10007000194A0108194A0108194A0108194A0108D0
:10008000194A0108194A0108194A0108194A0108C0
:10009000194A0108194A0108194A0108194A0108B0
:1000A000194A010899900008194A0108194A0108DB
:1000B000194A0108194A0108194A0108194A010890
:1000C000194A0108194A0108194A0108194A010880
:1000D000194A0108A9900008194A0108194A01089B
:1000E000B9900008194A0108194A0108194A01087B
:1000F000C5900008194A0108194A0108194A01085F
:10010000194A0108194A0108194A0108194A01083F
:10011000194A0108194A0108194A0108194A01082F
:10012000D5900008194A0108E5900008194A01080D
:10013000194A01080000000000000000194A0108E7
:10014000194A0108194A0108194A0108194A0108FF
:10015000194A0108194A0108194A0108194A0108EF
:10016000194A0108194A0108194A0108194A0108DF
:10017000194A0108194A01080000000000000000A7
:08018000194A0108194A01089F
:1080000010B5054C237833B9044B13B10448AFF3D2
:1080100000800123237010BD98290020000000007B
:10802000347A010808B5034B1BB103490348AFF389
:10803000008008BD000000009C290020347A01085F
:10804000034613F8012B002AFBD1181A0138704798
:1080500001F0FF01102A2BDB10F0070F08D010F8F9
:10806000013B013A8B422DD010F0070F42B3F6D1FD
:10807000F0B441EA012141EA014122F007047FF016
:1080800000070023F0E80256083C85EA010586EA6D
:10809000010685FA47F5A3FA87F586FA47F6A5FAA9
:1080A00087F68EB9EED1F0BC01F0FF0102F00702B5
:1080B00032B110F8013B013A83EA010313B1F8D160
:1080C0000020704701387047002D06BF3546033841
:1080D000073815F0010F07D1013015F4807F02BF7A
:1080E000013015F4C03F0130F0BC0138704700BFCB
:1080F00081F0004102E000BF83F0004330B54FEA59
:1081000041044FEA430594EA050F08BF90EA020FC5
:108110001FBF54EA000C55EA020C7FEA645C7FEA58
:10812000655C00F0E2804FEA5454D4EB5555B8BF7B
:108130006D420CDD2C4480EA020281EA030382EAEC
:10814000000083EA010180EA020281EA0303362D7E
:1081500088BF30BD11F0004F4FEA01314FF4801C51
:108160004CEA113102D0404261EB410113F0004F63
:108170004FEA03334CEA133302D0524263EB43031A
:1081800094EA050F00F0A780A4F10104D5F1200EB8
:108190000DDB02FA0EFC22FA05F2801841F1000113
:1081A00003FA0EF2801843FA05F359410EE0A5F1E7
:1081B00020050EF1200E012A03FA0EFC28BF4CF018
:1081C000020C43FA05F3C01851EBE37101F00045CE
:1081D00007D54FF0000EDCF1000C7EEB00006EEBDB
:1081E0000101B1F5801F1BD3B1F5001F0CD3490865
:1081F0005FEA30004FEA3C0C04F101044FEA4452BC
:1082000012F5800F80F09A80BCF1004F08BF5FEA42
:10821000500C50F1000041EB045141EA050130BD22
:108220005FEA4C0C404141EB0101013C28BFB1F534
:10823000801FE9D291F0000F04BF01460020B1FA7F
:1082400081F308BF2033A3F10B03B3F120020CDA52
:108250000C3208DD02F1140CC2F10C0201FA0CF030
:1082600021FA02F10CE002F11402D8BFC2F1200C95
:1082700001FA02F120FA0CFCDCBF41EA0C0190404B
:10828000E41AA2BF01EB0451294330BD6FEA040494
:108290001F3C1CDA0C340EDC04F11404C4F120027F
:1082A00020FA04F001FA02F340EA030021FA04F391
:1082B00045EA030130BDC4F10C04C4F1200220FAE8
:1082C00002F001FA04F340EA0300294630BD21FA26
:1082D00004F0294630BD94F0000F83F4801306BFEC
:1082E00081F480110134013D4EE77FEA645C18BFE0
:1082F0007FEA655C29D094EA050F08BF90EA020F77
:1083000005D054EA000C04BF1946104630BD91EA6E
:10831000030F1EBF0021002030BD5FEA545C05D171
:108320004000494128BF41F0004130BD14F58004B0
:108330003CBF01F5801130BD01F0004545F0FE4124
:1083400041F470014FF0000030BD7FEA645C1ABF59
:10835000194610467FEA655C1CBF0B46024650EA90
:10836000013406BF52EA033591EA030F41F40021BC
:1083700030BD00BF90F0000F04BF0021704730B542
:108380004FF4806404F132044FF000054FF0000117
:1083900050E700BF90F0000F04BF0021704730B5D8
:1083A0004FF4806404F1320410F0004548BF4042AD
:1083B0004FF000013EE700BF42004FEAE2014FEA02
:1083C00031014FEA02701FBF12F07F4393F07F4FDD
:1083D00081F06051704732F07F4208BF704793F0E0
:1083E0007F4F04BF41F40021704730B54FF46074F3
:1083F00001F0004521F000411CE700BF50EA0102F6
:1084000008BF704730B54FF000050AE050EA01029E
:1084100008BF704730B511F0004502D5404261EB0E
:1084200041014FF4806404F132045FEA915C3FF44F
:10843000D8AE4FF003025FEADC0C18BF03325FEAEC
:10844000DC0C18BF033202EBDC02C2F1200300FA9D
:1084500003FC20FA02F001FA03FE40EA0E0021FAC2
:1084600002F11444BDE600BF70B54FF0FF0C4CF4B0
:10847000E06C1CEA11541DBF1CEA135594EA0C0F62
:1084800095EA0C0F00F0DEF82C4481EA030621EA9D
:108490004C5123EA4C5350EA013518BF52EA0335D8
:1084A00041F4801143F4801338D0A0FB02CE4FF08A
:1084B0000005E1FB02E506F00042E0FB03E54FF0BA
:1084C0000006E1FB03569CF0000F18BF4EF0010EB2
:1084D000A4F1FF04B6F5007F64F5407404D25FEAAE
:1084E0004E0E6D4146EB060642EAC62141EA555161
:1084F0004FEAC52040EA5E504FEACE2EB4F1FD0CA3
:1085000088BFBCF5E06F1ED8BEF1004F08BF5FEA20
:10851000500E50F1000041EB045170BD06F00046D2
:1085200046EA010140EA020081EA0301B4EB5C047F
:10853000C2BFD4EB0C0541EA045170BD41F4801177
:108540004FF0000E013C00F3AB8014F1360FDEBF9C
:10855000002001F0004170BDC4F10004203C35DA78
:108560000C341BDC04F11404C4F1200500FA05F3FB
:1085700020FA04F001FA05F240EA020001F000429C
:1085800021F0004110EBD37021FA04F642EB060112
:108590005EEA430E08BF20EAD37070BDC4F10C043C
:1085A000C4F1200500FA04F320FA05F001FA04F200
:1085B00040EA020001F0004110EBD37041F10001EC
:1085C0005EEA430E08BF20EAD37070BDC4F12005F7
:1085D00000FA05F24EEA020E20FA04F301FA05F25F
:1085E00043EA020321FA04F001F0004121FA04F207
:1085F00020EA020000EBD3705EEA430E08BF20EAD7
:10860000D37070BD94F0000F0FD101F00046400010
:1086100041EB010111F4801F08BF013CF7D041EA92
:10862000060195F0000F18BF704703F00046520096
:1086300043EB030313F4801F08BF013DF7D043EA67
:108640000603704794EA0C0F0CEA135518BF95EA1D
:108650000C0F0CD050EA410618BF52EA4306D1D1A4
:1086600081EA030101F000414FF0000070BD50EAC3
:10867000410606BF1046194652EA430619D094EA4D
:108680000C0F02D150EA013613D195EA0C0F05D137
:1086900052EA03361CBF104619460AD181EA03018B
:1086A00001F0004141F0FE4141F470014FF0000043
:1086B00070BD41F0FE4141F4780170BD70B54FF0DE
:1086C000FF0C4CF4E06C1CEA11541DBF1CEA13555E
:1086D00094EA0C0F95EA0C0F00F0A7F8A4EB050440
:1086E00081EA030E52EA03354FEA013100F0888037
:1086F0004FEA03334FF0805545EA131343EA126300
:108700004FEA022245EA111545EA10654FEA0026B4
:108710000EF000419D4208BF964244F1FD0404F56D
:10872000407402D25B084FEA3202B61A65EB0305C9
:108730005B084FEA32024FF480104FF4002CB6EB86
:10874000020E75EB030E22BFB61A754640EA0C0006
:108750005B084FEA3202B6EB020E75EB030E22BF46
:10876000B61A754640EA5C005B084FEA3202B6EB87
:10877000020E75EB030E22BFB61A754640EA9C0046
:108780005B084FEA3202B6EB020E75EB030E22BF16
:10879000B61A754640EADC0055EA060E18D04FEAD4
:1087A000051545EA16754FEA06164FEAC30343EA74
:1087B00052734FEAC2025FEA1C1CC0D111F4801F41
:1087C0000BD141EA00014FF000004FF0004CB6E73A
:1087D00011F4801F04BF01430020B4F1FD0C88BFD9
:1087E000BCF5E06F3FF6AFAEB5EB030C04BFB6EBE4
:1087F000020C5FEA500C50F1000041EB045170BDD7
:108800000EF0004E4EEA113114EB5C04C2BFD4EB03
:108810000C0541EA045170BD41F480114FF0000E87
:10882000013C90E645EA060E8DE60CEA135594EA03
:108830000C0F08BF95EA0C0F3FF43BAF94EA0C0F06
:108840000AD150EA01347FF434AF95EA0C0F7FF47B
:1088500025AF104619462CE795EA0C0F06D152EACF
:1088600003353FF4FDAE1046194622E750EA4106B3
:1088700018BF52EA43067FF4C5AE50EA41047FF4C4
:108880000DAF52EA43057FF4EBAE12E74FF0FF3C29
:1088900006E000BF4FF0010C02E000BF4FF0010CFA
:1088A0004DF804CD4FEA410C7FEA6C5C4FEA430C73
:1088B00018BF7FEA6C5C1BD001B050EA410C0CBFC2
:1088C00052EA430C91EA030F02BF90EA020F002024
:1088D000704710F1000F91EA030F58BF994208BF8B
:1088E00090422CBFD8176FEAE37040F00100704748
:1088F0004FEA410C7FEA6C5C02D150EA013C07D19F
:108900004FEA430C7FEA6C5CD6D152EA033CD3D0E9
:108910005DF8040B704700BF8446104662468C46E3
:108920001946634600E000BF01B5FFF7B7FF002816
:1089300048BF10F1000F01BD4DF808EDFFF7F4FF3F
:108940000CBF012000205DF808FB00BF4DF808EDCA
:10895000FFF7EAFF34BF012000205DF808FB00BFED
:108960004DF808EDFFF7E0FF94BF012000205DF80F
:1089700008FB00BF4DF808EDFFF7CEFF94BF0120C4
:1089800000205DF808FB00BF4DF808EDFFF7C4FFBD
:1089900034BF012000205DF808FB00BF4FEA410C06
:1089A0007FEA6C5C02D150EA013C0AD14FEA430CE9
:1089B0007FEA6C5C02D152EA033C02D14FF0000026
:1089C00070474FF0010070474FEA410212F5001264
:1089D00015D211D56FF47873B3EB625212D94FEA06
:1089E000C12343F0004343EA505311F0004F23FAF0
:1089F00002F018BF404270474FF00000704750EA45
:108A0000013005D111F0004008BF6FF00040704701
:108A10004FF00000704700BF4FEA4102B2F1E0435F
:108A200024BFB3F5001CDCF1FE5C0DD901F0004C55
:108A30004FEAC0024CEA5070B2F1004F40EB8300A5
:108A400008BF20F00100704711F0804F21D113F1D1
:108A50003872BCBF01F00040704741F480114FEA0A
:108A60005252C2F11802C2F1200C10FA0CF320FA93
:108A700002F018BF40F001004FEAC1234FEAD323B0
:108A800003FA0CFC40EA0C0023FA02F34FEA43031A
:108A9000CCE77FEA625307D150EA01331EBF4FF0A3
:108AA000FE4040F44000704701F0004040F0FE40BE
:108AB00040F40000704700BF53B94AB9002908BF0D
:108AC00000281CBF4FF0FF314FF0FF3000F074B9A9
:108AD000ADF1080C6DE904CE00F006F8DDF804E015
:108AE000DDE9022304B070472DE9F047089D0446F4
:108AF0008E46002B4DD18A42944669D9B2FA82F251
:108B000052B101FA02F3C2F1200120FA01F10CFA8C
:108B100002FC41EA030E94404FEA1C48210CBEFBC4
:108B2000F8F61FFA8CF708FB16E341EA034306FB4D
:108B300007F199420AD91CEB030306F1FF3080F0DC
:108B40001F81994240F21C81023E63445B1AA4B229
:108B5000B3FBF8F008FB103344EA034400FB07F7CB
:108B6000A7420AD91CEB040400F1FF3380F00A810C
:108B7000A74240F207816444023840EA0640E41B01
:108B800000261DB1D4400023C5E900433146BDE8AD
:108B9000F0878B4209D9002D00F0EF800026C5E94F
:108BA000000130463146BDE8F087B3FA83F6002E67
:108BB0004AD18B4202D3824200F2F980841A61EBDF
:108BC000030301209E46002DE0D0C5E9004EDDE7FD
:108BD00002B9FFDEB2FA82F2002A40F09280A1EBE5
:108BE0000C014FEA1C471FFA8CFE0126200CB1FB3A
:108BF000F7F307FB131140EA01410EFB03F0884233
:108C000008D91CEB010103F1FF3802D2884200F2BF
:108C1000CB804346091AA4B2B1FBF7F007FB101151
:108C200044EA01440EFB00FEA64508D91CEB0404EF
:108C300000F1FF3102D2A64500F2BB800846A4EB4A
:108C40000E0440EA03409CE7C6F12007B34022FA35
:108C500007FC4CEA030C20FA07F401FA06F31C4364
:108C6000F9404FEA1C4900FA06F3B1FBF9F8200C71
:108C70001FFA8CFE09FB181140EA014108FB0EF0B7
:108C8000884202FA06F20BD91CEB010108F1FF3A07
:108C900080F08880884240F28580A8F10208614413
:108CA000091AA4B2B1FBF9F009FB101144EA014121
:108CB00000FB0EFE8E4508D91CEB010100F1FF34CC
:108CC0006CD28E456AD90238614440EA0840A0FB64
:108CD0000294A1EB0E01A142C846A64656D353D03A
:108CE0005DB1B3EB080261EB0E0101FA07F722FA5E
:108CF00006F3F1401F43C5E9007100263146BDE887
:108D0000F087C2F12003D8400CFA02FC21FA03F3E9
:108D1000914001434FEA1C471FFA8CFEB3FBF7F06A
:108D200007FB10360B0C43EA064300FB0EF69E428F
:108D300004FA02F408D91CEB030300F1FF382FD228
:108D40009E422DD9023863449B1B89B2B3FBF7F6D0
:108D500007FB163341EA034106FB0EF38B4208D9A9
:108D60001CEB010106F1FF3816D28B4214D9023EEA
:108D70006144C91A46EA004638E72E46284605E708
:108D80000646E3E61846F8E64B45A9D2B9EB0208D9
:108D900064EB0C0E0138A3E74646EAE7204694E769
:108DA0004046D1E7D0467BE7023B614432E730469C
:108DB00009E76444023842E7704700BF38B5084C01
:108DC000084D0122214628460BF06DFB0122214669
:108DD00028460BF076FD23780133237038BD00BFA1
:108DE000B42900201463002000B583B001904FF631
:108DF000FF73012201A903480BF077FA019803B031
:108E00005DF804FB1463002000B583B0022006E087
:108E10000A2301220DF1070104480BF0D2FA0028C1
:108E2000F6D19DF8070003B05DF804FB1463002041
:108E300072B6FEE700B595B03022002108A80CF00C
:108E400057F8002303930493059306930793019324
:108E5000204A116C41F080511164126C02F0805272
:108E60000192019A02931C4B1A6842F480421A60E4
:108E70001B6803F480430293029B012308934FF481
:108E8000A023099302220E924FF480030F93042330
:108E90001093A82111911292139308A809F0DEF8FB
:108EA00098B90F23039302230493002305934FF4EF
:108EB000A05306934FF480530793052103A809F0AC
:108EC00033FB20B915B05DF804FBFFF7B1FFFFF7E6
:108ED000AFFF00BF003802400070004000B583B013
:108EE0000BF032FD07F0EAFA07F0D0FC07F086FB42
:108EF00007F0D6FB08F03CF800F076F907F07CFDAF
:108F0000564B986800F00AFF00F08AF90DF107024D
:108F10000721002000F056FF9DF9070000F0EAFE4F
:108F2000FFF788FF07F0CAFA07F0B0FC07F066FB0E
:108F300007F0B6FB07F060FD07F0F2FE07F0C8FC93
:108F400008F016F807F042FF07F088FD07F096FFDB
:108F500007F01AFD0122424942480BF0B2FC9FED96
:108F6000428A9FED429ADFED428AB0EE481AF0EE57
:108F7000490AB0EE680A042000F030FDB0EE481A4D
:108F8000F0EE490AB0EE680A052000F027FDB0EEC9
:108F9000481AF3EE020A9FED370A002000F01EFD8A
:108FA000B0EE481AF0EE480A9FED330A082000F0B0
:108FB00015FDB0EE481AF7EE000AB1EE080A0120DE
:108FC00000F00CFDB0EE481AF7EE000AB2EE080A07
:108FD000022000F003FDB0EE481AF7EE000AB2EEF0
:108FE000080A032000F0FAFC0FE0012003F016FD50
:108FF00022480CF0C5FE0DF107020721002000F009
:10900000E1FE9DF9070000F075FE9DF90730013B78
:10901000062BEDD801A252F823F000BFEB8F000819
:10902000399000083F900008459000084B900008D8
:10903000519000085790000803F072FDD8E703F044
:10904000B3FCD5E704F0BEFBD2E703F07DFECFE72B
:1090500004F0BAFACCE703F001FEC9E7BC2900200E
:10906000B4290020146300200000000000007A44AE
:10907000333353406666F640000012426C7A0108B2
:10908000FEE7FEE7FEE7FEE7FEE770477047704742
:1090900008B50BF073FC08BD08B502480AF0B7F933
:1090A00008BD00BF6461002008B502480BF0ACFAAF
:1090B00008BD00BF1463002008B54FF4805008F0CD
:1090C000BFFF08BD08B502480AF0A1F908BD00BFFE
:1090D000CC62002008B5024808F07EFC08BD00BF45
:1090E0004C60002008B5024808F076FC08BD00BFBF
:1090F000AC60002082B0002100910B4B5A6C42F40E
:1091000080425A645A6C02F480420092009A0191A3
:109110001A6C42F080521A641B6C03F08053019366
:10912000019B02B0704700BF003802400120704729
:1091300008B50BF073FC162303604FF0FF3008BD39
:1091400008B54FF0FF31FFF7F3FFFEE770B50C46AF
:109150001646002506E0FFF757FE214601F8010BF1
:1091600001350C46B542F6DB304670BD70B50C4695
:109170001646002504E014F8010BFFF735FE013513
:10918000B542F8DB304670BD4FF0FF3070474FF40A
:1091900000534B600020704701207047002070474B
:1091A00010B503460C4A0D490D48006840B10C4803
:1091B00000680344521A934206D8094A136010BD4E
:1091C0000748084C0460F2E70BF028FC0C2303600E
:1091D0004FF0FF30F3E700BF000002200004000062
:1091E000B82900209063002008B5032208490948E7
:1091F00007F0ECFF30B902220749084807F0E6FF04
:1092000018B908BDFFF714FEF5E7FFF711FEF8E700
:10921000BC290020BC5F0020C82900200460002079
:1092200008B50D4808F0A0F820B90C4808F09CF8E3
:1092300048B908BD0A480CF0A3FDFFF7F9FD09483D
:109240000CF09EFDF1E708480CF09AFDFFF7F0FDE9
:1092500006480CF095FDECE7BC5F002004600020A0
:10926000807A0108887A0108907A0108987A0108C2
:10927000024BDB6813F4803FFAD17047003C024098
:1092800070B505460E460E4C0E4B636003F18833F5
:109290006360FFF7EDFF236943F4007323612369E3
:1092A00043F0010323612E60FFF7E2FF236923F0FF
:1092B00001032361236943F00043236170BD00BFB4
:1092C000003C02402301674570B506460D460E4C32
:1092D0000E4B636003F188336360FFF7C9FF2369B6
:1092E00043F400732361236943F00103236133686E
:1092F0002B60FFF7BDFF236923F00103236123697E
:1093000043F00043236170BD003C024023016745E8
:1093100010B586B008F04AFD0023019301230393A2
:10932000022205920493694601A808F0AFFC0446A6
:1093300008F054FD2CB9009BB3F1FF3F04D000208E
:1093400000E0002006B010BD0120FBE7B0F90020CE
:10935000B1F900309A4203DC04DA4FF0FF30704775
:10936000012070470020704730B583B08DF80000B1
:109370008DF8011060F07F008DF8070061F07F012B
:109380008DF806101E4C00220421204608F052FEE3
:109390001C4D642301220DF10701284609F0DDFA76
:1093A000642301220DF10501284609F0CEFC0122BB
:1093B0000421204608F03EFE00220421204608F049
:1093C00039FE642301220DF10601284609F0C5FA91
:1093D0006423012201A9284609F0B7FC01220421D7
:1093E000204608F027FE9DF805301B021BB29DF8B1
:1093F0000420134300EE103AB8EEC00A03B030BDAB
:10940000000C02400C61002000B583B000230093E3
:10941000ADF804300D4BB3F902C0A3F800C0B3F9A6
:1094200004105980B0F900209A80ADF800C0ADF862
:109430000210ADF80420064B0222032168460CF00E
:10944000DFFCBDF9020003B05DF804FBD829002061
:109450004D93000800000000F0B585B007460C46AB
:1094600043F63703ADF80830B7238DF80F30B82333
:109470008DF80E303A4D00220421284608F0DAFD1E
:10948000384E642301220DF10F01304609F065FAD0
:10949000642301220DF10D01304609F056FC012232
:1094A0000421284608F0C6FD00220421284608F0C1
:1094B000C1FD642301220DF10E01304609F04DFA81
:1094C0006423012203A9304609F03FFC0122042154
:1094D000284608F0AFFD9DF80D209DF80C3043EABA
:1094E0000223ADF806300DF10600FFF78DFF1E4B8D
:1094F000188007EE900AF8EEE77A9FED1C7A67EE87
:10950000877A1B4BC3ED007AD3ED007AF1EE677AD0
:1095100017EE900AC7ED007AFEF74EFF0CA3D3E9D1
:109520000023FEF7A1FF0CA3D3E90023FEF7E4FD1F
:1095300006460F462068FEF73FFF32463B46FEF7E1
:10954000DDFDFFF769FA206005B0F0BDAFF30080E4
:10955000FCA9F1D24D62503FD7A973BE38EEBD3E93
:10956000000C02400C610020D0290020787D8B3A4D
:10957000D429002030B585B08DF8071000F07F00A9
:109580008DF80F000D4C00220421204608F052FDFA
:109590000B4D642301220DF10F01284609F0DDF97E
:1095A000642301220DF10701284609F0D6F90122B2
:1095B0000421204608F03EFD05B030BD000C0240FD
:1095C0000C61002030B583B080238DF806301D4C2F
:1095D00000220421204608F02DFD1B4D64230122AA
:1095E0000DF10601284609F0B8F9642301220DF1B6
:1095F0000701284609F0A9FB01220421204608F0B2
:1096000019FD9DF80730E02B02D0012003B030BDDA
:1096100001210620FFF7AEFF10210320FFF7AAFF6C
:1096200020217F20FFF7A6FF17210120FFF7A2FFCF
:1096300017211420FFF79EFF00217F20FFF79AFFDC
:10964000E3E700BF000C02400C61002008B53C219C
:1096500003480AF029FC3C2102480AF025FC08BD19
:10966000F46100203C62002008B53C2103480AF068
:1096700081FC3C2102480AF07DFC08BDF461002019
:109680003C62002010B5054C002120460AF030FA5B
:109690000021204609F028FC10BD00BFCC6200204C
:1096A00010B5054C002120460AF0C8FA00212046DA
:1096B00009F0B2FC10BD00BFCC62002010B5072835
:1096C00018D8DFE800F004182C4054687C90504C07
:1096D00000224FF40071204608F0ACFC00224FF449
:1096E0008071204608F0A6FC00224FF40071494822
:1096F00008F0A0FC10BD464C01224FF4007120463A
:1097000008F098FC00224FF48071204608F092FC8B
:1097100000224FF400713F4808F08CFCEAE73C4C13
:1097200000224FF40071204608F084FC01224FF41F
:109730008071204608F07EFC00224FF4007135480D
:1097400008F078FCD6E7324C01224FF40071204635
:1097500008F070FC01224FF48071204608F06AFC8A
:1097600000224FF400712B4808F064FCC2E7284C3B
:1097700000224FF40071204608F05CFC00224FF4F8
:109780008071204608F056FC01224FF400712148F8
:1097900008F050FCAEE71E4C01224FF40071204649
:1097A00008F048FC00224FF48071204608F042FC8B
:1097B00001224FF40071174808F03CFC9AE7144C62
:1097C00000224FF40071204608F034FC01224FF4CF
:1097D0008071204608F02EFC01224FF400710D48E4
:1097E00008F028FC86E70A4C01224FF4007120465D
:1097F00008F020FC01224FF48071204608F01AFC8A
:1098000001224FF40071034808F014FC72E700BF16
:10981000000802400004024008B50C2107480AF085
:109820007BFA28B9042106480AF076FA18B908BD6F
:10983000FFF7FEFAF6E7FFF7FBFAF8E7AC61002066
:109840008462002008B50C2107480AF0E7FA28B91D
:10985000042106480AF0E2FA18B908BDFFF7E8FA51
:10986000F6E7FFF7E5FAF8E7AC6100208462002034
:1098700038B50D46041E16DC002C1ADB002D1FDC4B
:10988000002D23DBB4F5137F01DD4FF41374B5F520
:10989000137F01DD4FF41375104B1B689D63104B54
:1098A0001B681C6438BD012204210E4808F0C2FB6D
:1098B000E4E7002204210B4808F0BCFB6442DDE72A
:1098C00000220121074808F0B5FBDBE70122114621
:1098D000044808F0AFFB6D42D4E700BF846200206B
:1098E000AC610020000002400160704710B41A4CC7
:1098F00054F822305B1A002BB8BF5B4244F82210A8
:10990000164951F82240234441F82230144C54F8AF
:109910002210013144F82210814207D0114B03EB91
:10992000820292ED000A5DF8044B704707EE903A10
:10993000F8EEE77A07EE101AB8EEC77AC7EE876A34
:10994000084B03EB8203C3ED006A0023034941F88F
:10995000223044F82230E1E7142A0020042A0020B3
:10996000F4290020E429002007EE900AF8EEE77AB7
:1099700067EE807A67EEA07A87EE810A704702462A
:109980000023012002E002FB00F001338B42FADBEE
:109990007047024680EE016A80EE817AF7EE007A27
:1099A00077EEC77A06EE900AF8EEE65AC7EEA56A99
:1099B0000023184600E0013393420EDA07EE903A96
:1099C000F8EEE77A67EEA67A77EE877AF4EEC67A53
:1099D000F1EE10FAEFD81846EDE77047054B2C2250
:1099E00002FB003080ED000AC0ED010A80ED021A92
:1099F000704700BF242A0020024B2C2202FB0033B8
:109A000099627047242A0020064B2C2202FB00306A
:109A10000023C360036143618361002242620362E9
:109A2000C3617047242A002010B50446284B2C221D
:109A300002FB0033986A50B9254B02FB0434002323
:109A4000E36023616361A3610023636210BD204B67
:109A50002C2000FB043484ED080AC4ED070A70EEE4
:109A6000600AC4ED030A9FED1B7A20EE877AD4EDDD
:109A7000047A37EE277A84ED047AD4ED067A70EE14
:109A8000E77ADFED156A67EEA67AC4ED057AC4EDD4
:109A9000060A94ED000A60EE800AD4ED016A27EE12
:109AA000267A70EE870A94ED027A67EE877A70EE76
:109AB000A77A17EE900AFEF77FFC41EC100B0DF031
:109AC00069FF51EC100BFEF77FFF6062BEE700BF3D
:109AD000242A00206F12833AFFFF794438B500250D
:109AE00010E0642303FB045302330B4A52F82310A3
:109AF0000A480CF0A9F80134032CF2DD08480CF0F8
:109B00003FF90135632D05DC294606480CF09CF829
:109B10000024F1E738BD00BF0C2C0020B07A01080A
:109B2000587E0108A87A0108124B1B78D3B9114B53
:109B300000225A6070470F494B684FF0640C0CFBD1
:109B40000233023350F8224041F823400132032A05
:109B5000F1DD084A536801335360642B05D05DF88A
:109B6000044B704710B40022F1E7134600221A702C
:109B7000F5E700BF0C2C002008B5FFF783FDFFF7C9
:109B800033FB134809F0E0FB124809F0DDFB1248F3
:109B90000CF0F6F8114B01221A7004E00F4B5968D3
:109BA0000F480CF051F80D4B1A78002AF6D10848EE
:109BB00009F00EFC074809F00BFCFFF771FDFFF7F9
:109BC0002FFB08480CF0DCF8FFF788FF08BD00BF4A
:109BD000CC62002064610020B87A01080C2C0020BF
:109BE000CC7A0108E47A0108C16002700022826028
:109BF0004360704703780BB983607047C36882681D
:109C000003EB820383ED000A8368013383604268BB
:109C1000934200D0704700230370FBE738B5054638
:109C200000240BE0EB6803EB84031868FEF7C4FB29
:109C300002460B4603480CF007F801346B68A34258
:109C4000F0DC38BDF87A0108007870470170704781
:109C5000014B1870704700BF082C0020014B18788A
:109C6000704700BF082C0020002312E00B4A02EBD3
:109C70008302D2ED007A67EE807AC2ED007A084A5C
:109C800002EB8302D2ED007A67EEA07AC2ED007A91
:109C9000013340F2F5429342E8DD7047D8130020CB
:109CA0000000002032B9094B03EB800003680B6011
:109CB0004B607047064B03EB8000D0ED007AB1EEAD
:109CC000677A81ED007AC1ED017A7047D8130020E0
:109CD00000000020B0F5805F00D07047044A136890
:109CE00001331360012BF8DD134600221A60F4E7FC
:109CF0009438002038B5054600240CE02846FFF7CC
:109D0000DDFC64200AF04CFE0020FFF7D7FC642045
:109D10000AF046FE0134042CF0DD38BD10B52DEDFF
:109D2000028B9FED101ADFED100AB0EE080AFFF764
:109D30001BFEB0EE408A03210220FFF720FE9FEDBC
:109D40000B1ADFED0B0AB0EE480AFFF722FE0446BD
:109D5000014608480BF078FF60B2FFF7CBFFBDEC7F
:109D6000028B10BD000080453333534066660641C8
:109D70006666E640807F010808B502220D490E485C
:109D800007F024FA00210D4809F0AEF802E00C4873
:109D90000BF05AFF074B5968C729F8D9064807F056
:109DA000E3FA0021054809F037F90720FFF7A2FF81
:109DB00008BD00BFC829002004600020CC6200203C
:109DC000007B0108F8B52DED028B06460D461446C2
:109DD0002A4F002138460AF067F8042138460AF075
:109DE00063F82670264B47F22F525A62254B002209
:109DF0001A600EE094F90000FFF760FC204B47F278
:109E00002F525A62DFED207AB4EEE78AF1EE10FAB3
:109E100016D91C4B1B681BBB194B93ED098AB8EE76
:109E2000C88ADFED1A7AB4EEE78AF1EE10FAE9DBC0
:109E3000237801335BB22370AB42DBDD2670D9E7B8
:109E40002378013B5BB22370B34200DA257094F9AA
:109E50000000FFF733FC0A4B47F22F525A62D8E753
:109E60000021084B1960054C20460AF083F80421B4
:109E700020460AF07FF8BDEC028BF8BDF4610020AB
:109E8000000400409438002000BC5446002F3547A1
:109E9000F0B585B004460D46164605F087FD6068AE
:109EA00003F0A6FDA37903F00703062B38D8DFE8FB
:109EB00003F0043752378637BA00D5ED007A95EDB6
:109EC000037A77EE877AB6EE007A67EE877A9FEDAF
:109ED000967AF4EEC77AF1EE10FACCBF0123002394
:109EE0004FF0000763F3010795ED017ADFED8F7AFC
:109EF000B4EEE77AF1EE10FACCBF0123002363F34E
:109F000083076FF3051795ED027ADFED897AB4EEDA
:109F1000E77AF1EE10FACCBF0123002363F3871731
:109F200027726379227904F10801304605F06EFC4E
:109F300000238DF80C308DF80D3003F0E9FC00287B
:109F400040F0A5807B4B1B68A21C2146304605F0E3
:109F500050F905B0F0BDD5ED007A95ED037A77EEB6
:109F6000877AB6EE007A67EE877A9FED6F7AF4EE25
:109F7000C77AF1EE10FACCBF012300234FF000079F
:109F800063F3830795ED017ADFED687AB4EEE77A43
:109F9000F1EE10FACCBF0123002363F305176FF332
:109FA000871795ED027ADFED627AB4EEE77AF1EE8B
:109FB00010FACCBF0123002363F30107B0E7D5ED0E
:109FC000007A95ED037A77EE877AB6EE007A67EE3F
:109FD000877A9FED557AF4EEC77AF1EE10FACCBF8E
:109FE000012300234FF0000763F3051795ED017A75
:109FF000DFED4E7AB4EEE77AF1EE10FACCBF012332
:10A00000002363F387176FF3010795ED027ADFED05
:10A01000487AB4EEE77AF1EE10FACCBF01230023C0
:10A0200063F383077CE7D5ED007A95ED037A77EE4D
:10A03000877AB6EE007A67EE877A9FED3B7AF4EE88
:10A04000C77AF1EE10FACCBF012300234FF00007CE
:10A0500063F3871795ED017ADFED347AB4EEE77A92
:10A06000F1EE10FACCBF0123002363F301076FF375
:10A07000830795ED027ADFED2E7AB4EEE77AF1EE02
:10A0800010FACCBF0123002363F3051748E7211D15
:10A09000204603F06DFC30B903A9204603F068FCAC
:10A0A00000283FF44FAF244B1B88ADF80430638089
:10A0B000211D304603F0BEFCC8B920480BF060FEFD
:10A0C00003F038FC0546B0B11A4B01221A6003F0C8
:10A0D00037FCADF8080002A803F09AFCADB1D8B186
:10A0E0000028F4D0013D284603F01EFCEFE7144899
:10A0F0000BF046FEE4E70F4B01221A6003F020FC50
:10A100002080284603F010FC1CE7BDF808302380AF
:10A110000C480BF035FE15E7BDF808302380681EAB
:10A1200003F002FC0EE700BF000048420000B4420A
:10A130000000C842B85F0020507A0108107B010877
:10A14000287B01084C7B0108837903F00703062B69
:10A1500059D8DFE803F0045819582E584300037A01
:10A1600003F00302012A50D003F0CC02442A4ED05F
:10A1700003F00C02042A4CD003F0C003402B01D0A2
:10A180000620704702207047037A03F00C02042A6D
:10A1900041D003F03302112A3FD003F00302012A19
:10A1A0003DD003F03003102B01D006207047032070
:10A1B0007047037A03F03002102A32D003F0CC0249
:10A1C000442A30D003F00C02042A2ED003F0C0033E
:10A1D000402B01D00620704703207047037A03F01C
:10A1E000C002402A23D003F03302112A21D003F009
:10A1F0000302012A1FD003F03003102B01D00620E8
:10A2000070470220704706207047082070470120E1
:10A2100070470320704708207047012070470220D4
:10A2200070470820704701207047022070470820BF
:10A2300070470120704703207047000008B50023D5
:10A240000E4A93600E4A13600E4A13600E4A136062
:10A250000420FFF7D9FB0520FFF7D6FB0020FFF70E
:10A26000D3FB0A4BD3ED027AF5EE407AF1EE10FA09
:10A27000E5D164200AF094FB08BD00BF143A002029
:10A2800084390020003A002090390020A0390020B5
:10A2900000B52DED048B87B0B0EE409AF0EE608AE9
:10A2A00000238B4A13608B4A00219162F3EE0E7AF1
:10A2B00060EE277ADFED886A87EEA67ADFED877A8F
:10A2C00060EEA77A67EEA07A77EE076A87EEA68A35
:10A2D0008DED038A04938DED058A17EE100AFEF7C3
:10A2E0006BF877A3D3E90023FEF7BEF800227C4B7E
:10A2F000FEF7E4F9FEF790FB06EE900A009001905D
:10A300000290F5EEC08AF1EE10FA74DD754BD3EDD4
:10A31000007A76EEA77AC3ED007A02E0724B83ED05
:10A32000008A704B93ED007A704BD3ED007AB4EE57
:10A33000E77AF1EE10FAF1DC6A4BD3ED007A76EEB3
:10A34000A77AC3ED007A02E0674B00221A60654BE2
:10A3500093ED007A654BD3ED007AB4EEE77AF1EE37
:10A3600010FAF1DC5F4BD3ED007A76EEA76AC3ED0D
:10A37000006A5C4B93ED007A5C4BD3ED007AB4EE4F
:10A38000E77AF1EE10FA0CDDF1EE487A564BC3EDA8
:10A39000007A574BD3ED007AF5EEC07AF1EE10FA61
:10A3A000E7D8514B00221A60FFF748FFDFED517AE2
:10A3B000C9EE277A17EE900AFDF7FEFF42A3D3E914
:10A3C0000023FEF751F8FEF7FFFAF5EEC08AF1EE32
:10A3D00010FA61D4F5EEC08AF1EE10FA67DD464B53
:10A3E0001A6800EBD07002EB60021A605A68A2EBA8
:10A3F000600058605BE0F5EEC08AF1EE10FAD0D54F
:10A40000384BD3ED007A77EEE67AC3ED007A04E0BC
:10A41000F1EE487A344BC3ED007A324B93ED007A7B
:10A42000324BD3ED007AB4EEE77AF1EE10FAEFD4C6
:10A430002C4BD3ED007A77EEE67AC3ED007A02E09A
:10A44000294B00221A60274B93ED007A274BD3ED5E
:10A45000007AB4EEE77AF1EE10FAF1D4214BD3EDA5
:10A46000007A77EEE66AC3ED006A1E4B93ED007A40
:10A470001E4BD3ED007AB4EEE77AF1EE10FA90D5E8
:10A48000194B83ED008A1A4BD3ED007AF5EEC07AB2
:10A49000F1EE10FAE9DB84E7174B1A6800EBD07095
:10A4A000A2EB60021A605A6802EB60005860124B1F
:10A4B0009A689A6007B0BDEC048B5DF804FB00BF9E
:10A4C000182D4454FB210940496632CBD615FA4079
:10A4D000003A0020242A00200000B4426F12833D7D
:10A4E00000806640FC390020903900208C39002023
:10A4F000983900200000B443B0390020837903F07C
:10A500000703062B14D8DFE803F0041308130C1319
:10A510001000007A00F003007047007AC0F3810059
:10A520007047007AC0F301107047007A80097047C5
:10A5300040F2E7307047000038B52DED028B04463D
:10A540000D46694B01229A62684A136852681344A7
:10A5500006EE903A0AE00023654A1360654A1360EC
:10A56000654A1360654B1A68654B9A60654BD3ED7D
:10A57000007AB8EEE67A37EE277A5C4A13685268BA
:10A58000134407EE903AF8EEE77AB4EEE77AF1EE8C
:10A5900010FAE0DC5C4B93ED007A534B00229A6298
:10A5A00007E0584B9A68544B1A60544B1A68544B46
:10A5B0009A60544BD3ED047A77EE877A524BD3ED01
:10A5C000006AF4EEE67AF1EE10FAEADC00234A4A79
:10A5D0001360484A136006E0454B1A681A60474BFF
:10A5E0001A68474B9A60474BD3ED057A77EE877A26
:10A5F000454BD3ED006AF4EEE67AF1EE10FAEBDCAF
:10A60000404BD3ED067A77EE877A3F4BD3ED006A65
:10A61000F4EEE67AF1EE10FA16DD3A4BD3ED027A5B
:10A62000F1EE677A344BC3ED007A314BD3ED007A0B
:10A63000F5EEC07AF1EE10FA04D4304B1A68304BC4
:10A640009A60DDE700221A6000232B4A1360284A33
:10A650001360264A13685268134408EE103A294BD7
:10A66000D3ED017AB8EEC87A37EE277A1F4A13681D
:10A670005268134407EE903AF8EEE77AB4EEE77AC0
:10A68000F1EE10FA13DD1A4B00221A601B4B1A6808
:10A690001B4B9A601D4B1B68002BE0D122461C49C6
:10A6A0002846FFF7F5FB194B01221A60D7E7194C32
:10A6B0002068FDF781FE0AA3D3E90023FDF71EFD04
:10A6C000FEF7AAF92060094B9A68134B9968511A52
:10A6D0009A680A449A60BDEC028B38BDAFF30080E3
:10A6E000182D4454FB21F93F242A0020203A002051
:10A6F000003A00209439002090390020AC39002025
:10A70000143A0020E03900208C3900209C390020C8
:10A71000BC390020FC390020B039002000000000C6
:10A7200038B52DED028B05460C46794B01229A6215
:10A73000784A13685268134408EE103A0846FFF747
:10A74000DDFE012828D10AE00023734A1360734A12
:10A750001360734A1360734B1A68734B9A60734BA0
:10A7600093ED007ADFED727AB4EEE77AF1EE10FA4B
:10A77000EAD493ED037ADFED6F7AB4EEE77AF1EE87
:10A7800010FAE1D41CE00023634A1360644A1360AA
:10A79000644B1A68644B9A60674BD3ED007AB8EE4D
:10A7A000C87A37EE277A5B4A13685268134407EE7B
:10A7B000903AF8EEE77AB4EEE77AF1EE10FAE2DCDE
:10A7C000534B00229A625D4B93ED007A0BE05A4B9B
:10A7D000D3ED027AF1EE677A514BC3ED007A514B1B
:10A7E0001A68514B9A60544BD3ED047A77EE677A2E
:10A7F000524BD3ED006AF4EEE67AF1EE10FAE6D4AD
:10A800000023474A1360454A136006E0424B1A682A
:10A810001A60444B1A68444B9A60474BD3ED057A53
:10A8200077EE677A454BD3ED006AF4EEE67AF1EE07
:10A8300010FAEBD4404BD3ED067A77EE677A3F4BB4
:10A84000D3ED006AF4EEE67AF1EE10FA12D53A4B47
:10A850009A68334B1A60304BD3ED007AF5EEC07A2C
:10A86000F1EE10FA04DC2F4B1A682F4B9A60E1E7E7
:10A8700000221A6000232A4A1360274A1360254ADF
:10A8800013685268134408EE103A2B4BD3ED017A4B
:10A89000B8EEC87A37EE277A1E4A13685268134416
:10A8A00007EE903AF8EEE77AB4EEE77AF1EE10FAB6
:10A8B00013DD194B00221A601A4B1A681A4B9A6062
:10A8C0001F4B1B68002BE0D12A4618492046FFF792
:10A8D000DFFA1B4B01221A60D7E71A4C2068FDF7FC
:10A8E0006BFD09A3D3E90023FDF706FCFEF794F8FE
:10A8F0002060084B9A68144B9968511A9A680A4468
:10A900009A60BDEC028B38BD182D4454FB21F93FF1
:10A91000242A0020203A0020003A00209439002008
:10A9200090390020AC390020143A0020BC390020B6
:10A930000000344300006643E03900208C390020D9
:10A940009C390020FC390020B0390020594B0122ED
:10A950009A62594A13685268134406EE903A0AE024
:10A960000023564A1360564A1360564A1360564BEA
:10A970001A68564B9A60D0ED007AB8EEE67A37EE58
:10A98000277A4D4A13685268134407EE903AF8EE5E
:10A99000E77AB4EEE77AF1EE10FAE1DC4C4B93ED96
:10A9A000007A444B00229A6206E08268454B1A60A6
:10A9B000454B1A68454B9A60D0ED047A77EE877A5A
:10A9C000434BD3ED006AF4EEE67AF1EE10FAECDCDC
:10A9D00000233C4A13603A4A136006E0374B1A687A
:10A9E0001A60394B1A68394B9A60D0ED057A77EEC8
:10A9F000877A374BD3ED006AF4EEE67AF1EE10FA7F
:10AA0000ECDC03E0304B1A68304B9A60D0ED066AFC
:10AA100036EE876A2E4BD3ED007AB4EEE76AF1EE9C
:10AA200010FA10DDD0ED027AF1EE677A254BC3ED16
:10AA3000007A224BD3ED007AF5EEC07AF1EE10FAEF
:10AA4000E0D500221A6000231E4A13601B4A1360DF
:10AA5000194A13685268134406EE103AD0ED017A91
:10AA6000B8EEC67A37EE277A134A13685268134451
:10AA700007EE903AF8EEE77AB4EEE77AF1EE10FAE4
:10AA800007DD0E4B00221A600F4B1A680F4B9A60BD
:10AA9000E4E7104BD3ED007A76EEA76AC3ED006AC7
:10AAA000054B9A680C4B9968511A9A680A449A6047
:10AAB000704700BF242A0020203A0020003A0020DE
:10AAC0009439002090390020AC390020143A00203D
:10AAD0008C390020FC390020B0390020584B01226D
:10AAE0009A62584A13685268134406EE903A08E096
:10AAF0000023554A1360554A1360554B1A68554B4D
:10AB00009A60D0ED007AB8EEE67A37EE277A4D4AB1
:10AB100013685268134407EE903AF8EEE77AB4EE01
:10AB2000E77AF1EE10FAE3DC454B00229A624A4BD9
:10AB300093ED007A0AE0D0ED027AF1EE677A434BAA
:10AB4000C3ED007A424B1A68424B9A60D0ED047A0A
:10AB500077EE677A404BD3ED006AF4EEE67AF1EED9
:10AB600010FAE8D40023394A13603C4A136006E027
:10AB7000354B1A681A60364B1A68364B9A60D0ED1E
:10AB8000057A77EE677A344BD3ED006AF4EEE67A15
:10AB9000F1EE10FAECD403E02D4B1A682D4B9A60BD
:10ABA000D0ED066A37EE666A2B4BD3ED007AB4EE31
:10ABB000E76AF1EE10FA0CD58268244B1A60224B3A
:10ABC000D3ED007AF5EEC07AF1EE10FAE4DD002262
:10ABD0001A6000231D4A13601B4A1360194A136848
:10ABE0005268134406EE103AD0ED017AB8EEC67AF8
:10ABF00037EE277A134A13685268134407EE903AE7
:10AC0000F8EEE77AB4EEE77AF1EE10FA07DD0E4BD4
:10AC100000221A600E4B1A680E4B9A60E4E7104B44
:10AC2000D3ED007A77EEE66AC3ED006A054B9A68C9
:10AC30000C4B9968511A9A680A449A60704700BF91
:10AC4000242A0020203A0020003A002090390020D9
:10AC5000AC390020143A00208C39002094390020AF
:10AC6000FC390020B03900202DE9F8432DED028B8E
:10AC7000B0EE608A80468946414B00221A60414B03
:10AC8000414A1A60DFED417A20EE270AFDEEC07AD4
:10AC900017EE906A3E4B01229A6207E03D4BD3EDDE
:10ACA000027AF4EEC87AF1EE10FA34DC3A4B9B6883
:10ACB00033443A4A9268934234DD374B9F683046BA
:10ACC000FDF768FB2CA3D3E90023FDF7CDFB044679
:10ACD0000D463846FDF75EFB22462B46FDF70EFA81
:10ACE00004460D462D4B9868FDF754FB02460B4673
:10ACF00020462946FDF72AFE0028CFD0284B1B68A6
:10AD0000002BCBD1424627494846FFF7C1F8244BD8
:10AD100001221A60C2E71B4B00221A601D4B83ED13
:10AD2000028AC3E7174B00221A601B4B9A68324411
:10AD30009A6093ED007A07EE906AF8EEE77AF6EE05
:10AD4000006A67EEA67AB8EEC77A37EE277ABDEECC
:10AD5000C77A83ED007A93ED017AB8EEC77A77EE81
:10AD6000277AFDEEE77AC3ED017ABDEC028BBDE8F0
:10AD7000F88300BFAFF300809A9999999999E93FB8
:10AD8000003A002084390020C3F53840552AF744A2
:10AD9000242A0020143A0020B0390020203A002054
:10ADA0009C390020BC390020F8B52DED028BB0EEA7
:10ADB000608A534B534A1A60DFED537A20EE270A1C
:10ADC000FDEEC07A17EE906A15E0B5EE408AF1EE1E
:10ADD00010FA10D04D4BD3ED027AF4EEC87AF1EEB2
:10ADE00010FA08D883ED028A0023454A1360484AC6
:10ADF0001360484A1360484BD3ED037A93ED007A11
:10AE000077EE877A9FED457AF4EEC77AF1EE10FA85
:10AE100042D5434B9B683344424A926893423BDDA0
:10AE20003F4B9F683046FDF7B5FA33A3D3E90023C3
:10AE3000FDF71AFB04460D463846FDF7ABFA2246ED
:10AE40002B46FDF75BF904460D46364B9868FDF737
:10AE5000A1FA02460B4620462946FDF777FD10B1C0
:10AE6000314B01229A62B5EE408AF1EE10FAACD174
:10AE7000264B93ED027ADFED2D7AB4EEE77AF1EE10
:10AE800010FAB8D8C3ED027A00231D4A1360204A95
:10AE90001360204A1360AEE71C4B83ED028A002347
:10AEA000174A13601A4A13601A4A13601C4B9A68B7
:10AEB00032449A6093ED007A07EE906AF8EEE77AF2
:10AEC000F6EE006A67EEA67AB8EEC77A37EE277A12
:10AED000BDEEC77A83ED007A93ED017AB8EEC77ABA
:10AEE00077EE277AFDEEE77AC3ED017ABDEC028BAF
:10AEF000F8BD00BFAFF30080CDCCCCCCCCCCE43FD0
:10AF000084390020C3F538C0552AF744143A00208C
:10AF1000003A002090390020BC39002000401C4538
:10AF2000B0390020203A0020242A00200000B4423A
:10AF300007EE900AF8EEE77A9FED1A7A67EE877AC5
:10AF4000FDEEE77A17EE902A002A06DC10E0164B99
:10AF500000211960154B16499960164B9B681344E4
:10AF6000154989688B42F2DC12498B6813448B6067
:10AF7000002A0BDB00230D4A93600B4A13607047D5
:10AF8000094B00211960094B0C499960094B9B68DA
:10AF90001344094989688B42F2DB06498B681A44DD
:10AFA0008A60E7E7552AF74484390020143A0020E4
:10AFB00000003442B0390020203A0020000034C2A2
:10AFC00008B501210020FEF717FD6FF01800FFF70C
:10AFD000AFFF00210846FEF70FFD08BD30B583B076
:10AFE000044600210220FEF707FD00210320FEF7A2
:10AFF00003FD00210120FEF7FFFC00210846FEF7BB
:10B00000FBFC2046FFF7A0F805468A4B93E80300B7
:10B0100002AB03E90300A37903F00703062B0ED864
:10B02000DFE803F0040D4E0D8B0DC900237A03F009
:10B030000302012A10D003F03003102B2AD07E48DF
:10B040002C2303FB05050023AB627C4B00221A6016
:10B050009FED7B0A03B030BD6FF00400FFF768FF7F
:10B0600001212846FEF7C8FC764BD3ED007A93ED1C
:10B07000037A77EE877A9FED747AF4EEC77AF1EE71
:10B0800010FAF1DD9FED717AF4EEC77AF1EE10FA65
:10B09000EAD5D4E701212846FEF7AEFCFFF790FF82
:10B0A000654B2C2202FB05350023AB62634B00226B
:10B0B0001A60674B1A68674B1A609FED670AC9E709
:10B0C000237A03F00C02042A19D003F0C003402BAA
:10B0D000B5D101212846FEF78FFCFFF771FF564BD3
:10B0E0002C2202FB05350023AB62544B00221A6070
:10B0F000574B1A68574B1A609FED570AAAE76FF033
:10B100000400FFF715FF01212846FEF775FC4D4BA3
:10B11000D3ED007A93ED037A77EE877A9FED4A7A42
:10B12000F4EEC77AF1EE10FAF1DD9FED487AF4EE15
:10B13000C77AF1EE10FAEAD581E7237A03F03002FC
:10B14000102A1AD003F00303012B7FF478AF0121FA
:10B150002846FEF751FCFFF733FF374B2C2202FB4A
:10B1600005350023AB62354B00221A60384B1A6854
:10B17000384B1A609FED380A6CE76FF00400FFF758
:10B18000D7FE01212846FEF737FC2E4BD3ED007A7F
:10B1900093ED037A77EE877A9FED2B7AF4EEC77AF8
:10B1A000F1EE10FAF1DD9FED297AF4EEC77AF1EEB7
:10B1B00010FAEAD543E7237A03F0C002402A1AD0F6
:10B1C00003F00C03042B7FF43AAF01212846FEF76D
:10B1D00013FCFFF7F5FE184B2C2202FB053500236C
:10B1E000AB62164B00221A60194B1A68194B1A6091
:10B1F0009FED190A2EE76FF00400FFF799FE012179
:10B200002846FEF7F9FB0F4BD3ED007A93ED037A56
:10B2100077EE877A9FED0C7AF4EEC77AF1EE10FAAA
:10B22000F1DD9FED0A7AF4EEC77AF1EE10FAEAD575
:10B2300005E700BF547A0108242A0020003A0020C4
:10B2400000003442BC3900200000614500007A450E
:10B25000FC3900208C39002000007642837903F00D
:10B260000703062B31D8DFE803F004300F301A3023
:10B270002500037A03F00C02042A28D003F0C0034F
:10B28000402B26D006207047037A03F00302012AE0
:10B2900021D003F03003102B1FD006207047037A13
:10B2A00003F00C02042A1AD003F0C003402B18D07C
:10B2B00006207047037A03F00302012A13D003F03B
:10B2C0003003102B11D00620704706207047032052
:10B2D0007047022070470220704703207047022009
:10B2E000704703207047032070470220704700001A
:10B2F0002DE9F04F83B001919246914B01229A6261
:10B30000DFED907A60EE277A90421AD0FDEEE77A70
:10B3100017EE904AB0F1FF3F1AD09AF8073003F0C9
:10B320000703032B70D0052B00F0D080042B00F016
:10B33000CF805046FEF708FF0546062865D1002558
:10B3400063E0814B1A7051460198FFF78DFCECE0E9
:10B350007D4B00221A70F6EE087A20EE270AFFF7DE
:10B3600023FD7A4BD3ED027A07EE104AB8EEC76A96
:10B37000B5EE007A26EE077AF8EEE77A77EE877A6E
:10B38000734BD3ED026AF8EEE66AF4EEE67AF1EE7C
:10B3900010FA0CDD6F4B1B68002BE2D1019A6E494D
:10B3A0005046FEF775FD6B4B01221A60D9E7674BDB
:10B3B000D3ED027AF8EEE77A37EE877ABDEEC77AF8
:10B3C00083ED027AD3ED007AB4EE007A26EE076AB6
:10B3D000F8EEE77A77EE867AFDEEE77AC3ED007A4B
:10B3E000D3ED017AF8EEE77A37EE866ABDEEC66AEB
:10B3F00083ED016A99E0524B00229A622C2202FBF3
:10B40000053301229A6233E00025504B9B682344A8
:10B410004F4A926893425DDD4C4BD3F808B020460A
:10B42000FCF7B8FF06460F4641A3D3E90023FDF71A
:10B430001BF8804689465846FCF7ACFF42464B460F
:10B44000FCF75CFE80468946414B9868FCF7A2FFFA
:10B4500002460B4640464946FDF778FA0028CAD016
:10B46000374B01229A622C2202FB053300229A629A
:10B47000364BD3F8088030A3D3E900233046394651
:10B48000FCF7F2FF06460F464046FCF783FF3246C4
:10B490003B46FCF733FE06460F462D4B9868FCF7FB
:10B4A00079FF02460B4630463946FDF74FFA002831
:10B4B000ABD0284B1B68002BA7D1019A26495046D8
:10B4C000FEF7E6FC234B01221A609EE700259CE76D
:10B4D00000259AE71A4B01229A622C2000FB0533C3
:10B4E00000229A621D4B00221A60184B9A6822446F
:10B4F0009A6093ED007A07EE904AF8EEE77AF6EE5E
:10B50000006A67EEA67AB8EEC77A37EE277ABDEE04
:10B51000C77A83ED007A93ED017AB8EEC77A77EEB9
:10B52000277AFDEEE77AC3ED017A03B0BDE8F08F2C
:10B530009A9999999999D93F9A9999999999E93F9D
:10B54000242A0020552AF744303A0020B039002040
:10B55000203A00209C390020BC390020843900208A
:10B5600070B52DED028B0D46144653282CD054286F
:10B5700027D19FED188ADFED180AB0EE480AFFF7D1
:10B5800013FCFEF75BFEFEF78BF8144E0023B3624C
:10B59000DFED130A9FED130AFEF77AFEA37902335B
:10B5A000A371FEF76FF8642009F0FAF90123B36282
:10B5B000214628460C4BD3ED000AB0EE480AFFF7AF
:10B5C00053FBBDEC028B70BD11462846FEF7B4FF5D
:10B5D000F7E700BF0000344200000000242A0020EA
:10B5E000DB0FC9400000B442AC39002070B52DED2E
:10B5F000028B0D46144653282CD0542827D19FED9A
:10B60000188ADFED180AB0EE480AFFF7CDFBFEF707
:10B6100015FEFEF745F8144E0023B362DFED130A62
:10B620009FED130AFEF734FEA379023BA371FEF7E8
:10B6300029F8642009F0B4F90123B36221462846B1
:10B640000C4BD3ED000AB0EE480AFFF70DFBBDEC42
:10B65000028B70BD11462846FFF762F8F7E700BF7E
:10B660000000344200000000242A0020DB0FC9C083
:10B670000000B442AC39002038B52DED028B0546F0
:10B680000C46DFED550A9FED550AFFF78DFB20466E
:10B69000FFF7A4FCFEF7D2FD2046FFF7DFFD0228EE
:10B6A00021D0032849D0062871D02046FFF796FC08
:10B6B000B0EE408AFEF7C2FD284604F0BBF92146F1
:10B6C0002846474BD3ED000AB0EE480AFFF7CCFA04
:10B6D000A37903F00703062B6FD8DFE803F06B6E46
:10B6E000716E756E7900DFED3F8A9FED3F8AF0EE57
:10B6F000680AB0EE480AFEF7CBFDA379023B5A4236
:10B7000003F0070302F0070258BF5342A37120461B
:10B71000FFF764FCFEF792FDF0EE680AB0EE480A0F
:10B72000FEF7B6FDA379023B5A4203F0070302F08D
:10B73000070258BF5342A371B7E7DFED2C8A9FED94
:10B740002A8AF0EE680AB0EE480AFEF7A1FDA37956
:10B7500002335A4203F0070302F0070258BF534274
:10B76000A3712046FFF73AFCFEF768FDF0EE680A89
:10B77000B0EE480AFEF78CFDA37902335A4203F07B
:10B78000070302F0070258BF5342A3718DE7DFEDB4
:10B79000170A9FED170AFEF77BFDA37902335A4281
:10B7A00003F0070302F0070258BF5342A371FEF7EC
:10B7B00045FD7AE7637901336371BDEC028B38BDD7
:10B7C000237901332371F8E76379013B6371F4E76F
:10B7D0002379013B2371F0E70000000000003442B0
:10B7E000AC390020DB0FC9C00000B442DB0FC940F8
:10B7F00000003443F8B505460C461646604B002160
:10B800001960E37903F00703062B2AD8DFE803F079
:10B8100004294852619EAD00A269A17C04F0D4FACB
:10B8200060B3584B1B78EBB1574BD3ED007AB7EEB2
:10B83000087A67EE877A524BC3ED007A0020534BAB
:10B840001A68534B1A60504BD3ED000A4C4BD3EDA2
:10B85000007A2246294670EEA70A9FED4E0AFFF7AE
:10B8600047FDF8BD484BD3ED007AB7EE087A67EE96
:10B87000877A434BC3ED007A0120E0E7414B1B7808
:10B880004BB1454A1368023313603D4B00221A60E6
:10B890004FF0FF30D3E73A4B00221A600020CEE78A
:10B8A0003A4B1A683A4B1A60224601463046FFF777
:10B8B00057FED6E7364F01233B602146FFF7DCFEFB
:10B8C000324B1B683B60224629463046FFF748FE54
:10B8D000C7E72F4B01221A602146FFF7CDFEA26970
:10B8E000A17C284604F070FAF0B1264B1B78B3B166
:10B8F000234B2A4A1A600020244B1A68244B1A60F2
:10B90000214BD3ED000A1E4BD3ED007A2246294687
:10B9100070EEA70A9FED1F0AFFF7EAFCA1E7184B9C
:10B920001E4A1A600120E7E7164B1B784BB11C4AF0
:10B93000136802331360124B00221A604FF0FF307D
:10B94000DAE70F4B00221A600020D5E7104F0123E1
:10B950003B602146FFF790FE0C4B1B683B60224684
:10B9600029463046FFF742FE7BE7084B1A68084B32
:10B970001A60224601463046FFF738FE71E700BFE5
:10B9800088390020303A0020AC390020DC39002012
:10B990009C3900200000B442B42700200000754309
:10B9A000B02700200000000070B52DED028BB44AD6
:10B9B000516A47F22F53591AB24C21605362B24870
:10B9C000426A9A1A6260436207EE901AB8EEE77A0A
:10B9D000DFEDAE6A27EE267AAD4B83ED007A07EEF7
:10B9E000902AF8EEE77A67EEA67AC3ED017AD3EDF6
:10B9F000007A93ED017A77EE877AB6EE007A67EEF9
:10BA0000877AC3ED027AA34B18680144196059681C
:10BA10000A445A601A6859680A449A609E499F48C5
:10BA2000FDF71AFD9E4B9B6A012B00F08B809C4B0F
:10BA30005B6D012B00F09780994BD3F88030012B80
:10BA400000F0B080964BD3F8AC30012B00F0C580ED
:10BA5000934BD3F88831012B00F0DA80914B93EDB2
:10BA6000007A914CD4ED027A77EE877AC4ED027AAF
:10BA70008E4B93ED007A8E4BD3ED007A77EE877A7A
:10BA8000C3ED007AD4ED026A93ED007A9FED896AE6
:10BA900027EE067AF6EE007A27EE277A36EEC77A98
:10BAA00084ED017AD3ED007A67EE867A94ED017A1F
:10BAB00077EE877AC4ED007A9FED7F1ADFED7F0A7B
:10BAC000B0EE080A7E4B9868FDF74EFF10EE100AA4
:10BAD000FCF772FC02460B4665A1D1E90001FCF7B8
:10BAE000EDFDFCF799FF08EE100A94ED000A684E90
:10BAF000D6ED000A0420FDF797FF07EE900AF8EE56
:10BB0000E77A67EE887A6F4DFDEEE77AC5ED007A49
:10BB100094ED010AD6ED010A0520FDF785FF07EE39
:10BB2000900AF8EEE77A67EE887AFDEEE77A17EE8C
:10BB3000901A654BC3ED007A2868FDF799FEBDECBD
:10BB4000028B70BD614B93ED000A534BD3ED000A9D
:10BB50000020FDF769FF07EE900AF8EEE77A544BF4
:10BB6000C3ED007A7AE75A4BD3ED010A594AD2ED78
:10BB7000007A70EEA70A93ED020A0120FDF754FF48
:10BB800007EE900AF8EEE77A17EE900AFCF714FC3D
:10BB900039A3D3E90023FCF767FCFCF73DFF444BD6
:10BBA00018605BE74C4BD3ED020A494B93ED020A58
:10BBB0000220FDF739FF07EE900AF8EEE77A17EE5C
:10BBC000900AFCF7F9FB2CA3D3E90023FCF74CFC0B
:10BBD000FCF722FF364B186040E73F4B93ED010A1C
:10BBE0003B4BD3ED010A0320FDF71EFF07EE900A41
:10BBF000F8EEE77A17EE900AFCF7DEFB1EA3D3E916
:10BC00000023FCF731FCFCF707FF294B186025E700
:10BC10002F4BD3ED030AD3ED007A70EEA70A9FED08
:10BC20002F0A0820FDF700FF07EE900AF8EEE77AEA
:10BC300017EE900AFCF7C0FB0FA3D3E90023FCF733
:10BC400013FCFCF7E9FE184B9860204B93ED000ABB
:10BC5000114BD3ED000A0020FDF7E6FE07EE900A37
:10BC6000F8EEE77A124BC3ED007AF7E6AFF3008007
:10BC7000CDCCCCCCCCCC2040FCA9F1D24D62503FF5
:10BC800000040040D039002000080040CD77813FFB
:10BC9000A0390020203A00208C390020983900205B
:10BCA000242A002084390020143A002090390020F2
:10BCB000003A00209A9909420000804533335340EE
:10BCC000BC2900202C3A0020343A0020FC39002006
:10BCD000BC390020CC390020043A002000806D459A
:10BCE000F8B5454A516A47F22F53591A434C21601F
:10BCF00053624348426A9A1A6260436207EE901A9E
:10BD0000B8EEE77ADFED3F6A27EE267A3E4C84ED07
:10BD1000007A07EE902AF8EEE77A67EEA67AC4ED8D
:10BD2000017AD4ED007A94ED017A77EE877AB6EE57
:10BD3000007A67EE877AC4ED027A344B18680144C2
:10BD4000196059680A445A601A6859680A449A6026
:10BD50002F4D30492846FDF77FFB2F4B93ED000A0E
:10BD6000D5ED000A0020FDF75FFE05462B4F97ED4D
:10BD7000020AD4ED000A0420FDF756FE284E30607A
:10BD800097ED020AD4ED010A0520FDF74DFE254C82
:10BD900020609FED251ADFED250AB0EE080A244B3E
:10BDA0009868FDF7E1FDF7EE007A87EE807A336858
:10BDB000EB1807EE903AF8EEE77ADFED1E6A67EED1
:10BDC000A67A67EE877AFDEEE77A17EE900AC6ED5F
:10BDD000007A23685B1B07EE903AF8EEE77A67EE8D
:10BDE000A67A67EE877AFDEEE77A17EE901AC4ED31
:10BDF000007AFDF73DFDF8BD00040040D039002079
:10BE000000080040CD77813FA0390020203A002073
:10BE1000983900208C390020003A0020143A002084
:10BE20002C3A0020343A0020000080453333534040
:10BE3000BC29002000005244F8B52DED028B6A4A5F
:10BE4000516A47F22F53591A684C2160536268486F
:10BE5000426A9A1A6260436207EE901AB8EEE77A75
:10BE6000DFED646A27EE267A634D85ED007A07EEF2
:10BE7000902AF8EEE77A67EEA67AC5ED017AD5ED5D
:10BE8000007A95ED017A77EE877AF6EE008A67EE12
:10BE9000A87AC5ED027A594B1868014419605968AF
:10BEA0000A445A601A6859680A449A60382137204F
:10BEB000FDF75AFA524B83ED000A93ED008A514B7D
:10BEC000D3ED007A38EE678A4F4BD3ED007A28EE37
:10BED000278A18EE100AFCF76FFA3FA3D3E9002374
:10BEE000FCF7C2FA06460F46484C2068FCF764FA95
:10BEF0003BA3D3E90023FCF7B7FA02460B463046D2
:10BF00003946FCF7FBF8FCF787FD07EE900AF1EEE7
:10BF1000677A3F4BC3ED007A84ED008AD3ED007A57
:10BF20009FED3C7A27EE877A3B4BD3ED007A77EE94
:10BF3000877AC3ED007A394BD3ED007A384A92ED17
:10BF4000007A77EE877AC3ED007A364A92ED007A6E
:10BF5000354CD4ED027A77EE877AC4ED027A93ED10
:10BF6000007A324BD3ED007A77EE877AC3ED007A10
:10BF7000D4ED026A93ED007A9FED2D6A27EE067AE2
:10BF800027EE287A36EEC77A84ED017AD3ED007A6F
:10BF900067EE867A94ED017A77EE877AC4ED007ABF
:10BFA00094ED000AD5ED000A0420FDF73DFD214E79
:10BFB000306094ED010AD5ED010A0520FDF734FD4E
:10BFC00001461D4B18603068FDF752FCBDEC028B3A
:10BFD000F8BD00BFAFF300807B14AE47E17A843F29
:10BFE000AE47E17A14AEEF3F00040040D0390020A4
:10BFF00000080040CD77813FA0390020203A002082
:10C00000D4290020E0290020A47A010880390020EA
:10C01000983900206F12833A8C3900209039002023
:10C020009439002084390020143A0020003A00207E
:10C030009A9909422C3A0020343A002030B52DED6F
:10C04000028B85B0524B5A6A47F22F518A1A514CD3
:10C05000226059625048436ACB1A6360416207EE1E
:10C06000902AB8EEE77ADFED4D6A27EE267A4C4C3F
:10C0700084ED007A07EE903AF8EEE77A67EEA67A5A
:10C08000C4ED017AD4ED007A94ED017A77EE877AE7
:10C09000B6EE007A67EE877AC4ED027A414D4249E6
:10C0A0002846FDF7D9F9A36802932B680393002370
:10C0B00000930193FDF7D2FD04469FED3C1ADFED9E
:10C0C0003C0AB0EE080A3B4B9868FDF74DFCDFEDEB
:10C0D0003A7A87EE808A394800EB0410FDF7B4FD08
:10C0E00000284CD0364B1A68364981FB0231D317F1
:10C0F000C3EBE10303EB8303B2EB830F14D0304BAC
:10C100001A68304981FB0231D317C3EB211303EBCB
:10C110008303B2EBC30F12D0294A136801331360B3
:10C1200005B0BDEC028B30BD04AB03EB840313ED13
:10C13000020A224800EB0410FDF75CFDDFE7224D08
:10C14000224669462868FDF7ADFDDDED007A68EE10
:10C15000277ACDED007A9DED017A28EE078A8DEDE4
:10C16000018ABDEEC87A17EE101AFDEEE77A17EED7
:10C17000900AFDF77DFB2B6801332B60CCE7002193
:10C180000846FDF775FB0E4B00221A60C8E700BF9A
:10C1900000040040D039002000080040CD77813FE6
:10C1A000A0390020983900208C39002000008045FB
:10C1B00033335340BC29002000005244443900204E
:10C1C0009C380020676666666439002070B584B0CC
:10C1D0000446334B984204D0324B9C4235D004B0D5
:10C1E00070BD314B1B68052BF6D801A252F823F025
:10C1F00009C200080FC2000815C200083FC20008AB
:10C20000D9C1000845C20008FFF7CEFBE4E7FFF7FD
:10C2100013FEE1E7254B1A6841F287339A4203DDAA
:10C22000234B00221A60D7E722492348FDF714F96F
:10C230001E4A13681E4909680B441360CCE7FFF7D8
:10C24000FDFEC9E7FFF74CFDC6E71C4C0022216844
:10C250000A20FDF74BFB1A4E86ED000A01226168A9
:10C260000A20FDF743FB86ED010A164D02222968DC
:10C270000A20FDF73BFB86ED020A032269680A20CB
:10C28000FDF734FB86ED030A2B68009323680193C6
:10C290006B680293636803936846FDF745FC9EE76D
:10C2A00064610020CC620020983800207C39002096
:10C2B000783900208C39002098390020BC290020D2
:10C2C000BC390020C829002010B50138032812D835
:10C2D000DFE800F0024A5C6E434A444B1A60444B6C
:10C2E0004449196044495960444999604449196175
:10C2F000444959619A613E4C2068FCF75DF836A3C9
:10C30000D3E90023FCF7B0F8FCF786FB20606068F7
:10C31000FCF752F830A3D3E90023FCF7A5F8FCF7AB
:10C320007BFB60602069FCF747F82DA3D3E900236D
:10C33000FCF79AF8FCF770FB20616069FCF73CF8A9
:10C3400027A3D3E90023FCF78FF8FCF765FB6061B6
:10C35000A069FCF731F822A3D3E90023FCF784F8A5
:10C36000FCF75AFBA06110BD204B274A1A60204BF6
:10C370004FF082421A60254A5A60254A9A60204A44
:10C380001A61204A5A61184A9A61B4E7174B214A48
:10C390001A60174B4FF082421A601C4A5A601E4ABC
:10C3A0009A60174A1A61174A5A610F4A9A61A2E7BE
:10C3B0000E4B1A4A1A600E4B194A1A60194A5A60F3
:10C3C000194A9A600E4A1A610E4A5A61064A9A61DF
:10C3D00091E700BFAFF30080540D8F9F4AE59E4068
:10C3E000399D52A246DF913F0000B442AC39002093
:10C3F000E0390020000010410000A0414260653C8F
:10C400000000F04100007042000034430000404151
:10C41000C520303D0000704377BE9F3D000096432D
:10C42000000040400000A040B29DEF3D08B5FDF780
:10C43000C9F80146164809F007FCFDF7C3F80146A4
:10C44000144809F001FC642008F0AAFA38213720CA
:10C45000FCF78AFF104B83ED000A1868FBF7ACFF6E
:10C4600002460B460D4809F0EFFBFDF7D5F9FDF745
:10C47000EDF8FDF707F9FCF7B7FE47F22F51084832
:10C48000FDF732FA47F22F510648FDF72DFA08BDA5
:10C49000587B0108807B0108D4290020A87B010873
:10C4A000240400402408004008B50420FDF7ACFA3D
:10C4B0000520FDF7A9FA0020FDF7A6FA0220FDF7F6
:10C4C000A3FA0320FDF7A0FA0120FDF79DFA08BDAD
:10C4D00010B5044601460420FDF78EFA21460520DA
:10C4E000FDF78AFA21460220FDF786FA214603204D
:10C4F000FDF782FA21460120FDF77EFA2146002051
:10C50000FDF77AFA10BD000008B547F22F51074831
:10C51000FDF7EAF947F22F510548FDF7E5F9054B1C
:10C5200000229A601A605A6008BD00BF24040040CF
:10C5300024080040203A002008B5FFF7E5FF0C4A28
:10C5400000239360136053600A4A13600A4A136021
:10C550000A4A13600A4A13600A4A13600A4B0B4ADC
:10C560009A600B4A5A600B4B0B4A1A6008BD00BF19
:10C57000143A0020003A002084390020903900202D
:10C58000FC3900208C390020043A00200000B94317
:10C5900000009643CC39002000008C4208B5FFF71C
:10C5A00045FF074806F0D0FE064806F0CDFE002005
:10C5B000FFF78EFFFFF778FFFFF7BEFF08BD00BF54
:10C5C00064610020CC620020F8B52DED028B04469A
:10C5D000B0EE608A11EE107A11EE906A12EE105AE7
:10C5E000F0EE628A70EE007A17EE900AFBF7E4FE36
:10C5F00031A3D3E90023FCF761F8FCF70DFA2060C2
:10C6000078EE087A17EE900AFBF7D6FE2AA3D3E954
:10C610000023FCF753F8FCF7FFF960603846FBF79E
:10C62000CBFE21A3D3E90023FBF71EFF0022204B02
:10C63000FCF744F8FCF7F0F920613046FBF7BCFE4C
:10C6400019A3D3E90023FBF70FFF0022184BFCF7D7
:10C6500035F8FCF7E1F960612846FBF7ADFE12A35F
:10C66000D3E90023FBF700FF0022114BFCF726F86B
:10C67000FCF7D2F9A061DFED0F7A68EEA77A17EE2A
:10C68000900AFBF799FE08A3D3E90023FBF7ECFE21
:10C690000022074BFCF712F8FCF7BEF9A060BDECD6
:10C6A000028BF8BDAFF30080182D4454FB210940E4
:10C6B000008066406F12833A6626CA236892503F14
:10C6C00000B1704708B52DED068BDFED3F8A9FED79
:10C6D0003F8AF0EE682AB0EE482AF3EE0E1AB2EE68
:10C6E0000E1AF3EE060AB1EE000A3948FFF76CFFA6
:10C6F000F0EE682AB0EE482AF3EE0E1AB2EE0E1AE9
:10C70000F1EE000AB3EE060A3248FFF75DFF9FED37
:10C71000329A9FED328ADFED328ADFED322AB0EEB7
:10C72000492AF0EE481AB3EE0E1AF0EE080AB0EEFF
:10C73000680A2D48FFF748FFDFED2C2A9FED2C2AD1
:10C74000DFED2C1AB0EE481AF0EE680AB0EE680A77
:10C750002948FFF739FFDFED29AA9FED29AADFED70
:10C76000299ADFED298AF0EE6A2AB0EE4A2AF0EE25
:10C77000691AB0EE681AF2EE080AB2EE0E0A234801
:10C78000FFF722FFF0EE6A2AB0EE4A2AF0EE691AAD
:10C79000B0EE681AF2EE0E0AB2EE080A1C48FFF775
:10C7A00013FFDFED1C2AB0EE492AF0EE481AB3EE73
:10C7B0000E1AF3EE000AB0EE600A1748FFF704FF06
:10C7C000BDEC068B08BD00BF00E02B4500003442E5
:10C7D0008C3A0020A83A00200000B44200007042C9
:10C7E0000000000000A0B944C43A00200028D24450
:10C7F000000034430000F042703A002000C0284599
:10C800000000074300008C4200008242383A0020BA
:10C81000543A00200080A245E03A0020F0B583B0F1
:10C82000044610EE106A002501950123002201A99B
:10C83000FDF7DAF9FFF780FE244FBD600025244B99
:10C840001D60244B1D60FFF7F1FD2846FFF740FEF9
:10C85000FFF72AFE01210420FDF7CEF80121052073
:10C86000FDF7CAF81C4B1D601C4806F06DFD072043
:10C87000FDF740FABE6001212046FDF7E7F954219B
:10C880000846FCF7F5FF2046FDF7DEF90028FAD14F
:10C890000E4B00229A6000210846FCF7E9FFFCF7E6
:10C8A000D1FFFCF7E1FE0020FFF712FE0B4806F077
:10C8B0008FFD42F2107008F073F80720FDF71AFAA6
:10C8C0002046FDF7ABF903B0F0BD00BF143A0020DD
:10C8D000343A00202C3A002098380020646100206F
:10C8E00030B5ADF51E5D8DB00546FDF7B1F942F2EC
:10C8F000B0720021684608F0FBFA264C04EB0514E0
:10C9000040F6EC13002269462046FDF76DF99FEDD5
:10C91000220AF0EE400AFDF7A7F9204B03221A6025
:10C92000FFF70AFEFFF782FDFCF7BAFE0020FFF7D3
:10C93000CFFDFFF7B9FD1A4806F006FD0720FDF709
:10C94000D9F901212046FDF781F92046FDF77CF950
:10C950000028FAD100210846FCF78AFFFCF772FF95
:10C96000FCF782FE0020FFF7B3FD0D4806F030FD16
:10C9700042F2107008F014F80720FDF7BBF90948DF
:10C9800009F0FEF92046FDF749F901200DF51E5D7D
:10C990000DB030BD44390020CDCC0C3F983800207C
:10C9A00064610020587E010800B583B000208DF836
:10C9B00007000DF107020721FDF704FA9DF90700B2
:10C9C000FDF798F99DF90730013B032B10D8DFE8FC
:10C9D00003F00212181C4FF4FA6007F0E1FF9DF912
:10C9E0000700FCF76BFEFDF7C7F80020FCF766FEBA
:10C9F00003B05DF804FB9FED070A0748FFF70EFF41
:10CA0000F6E70120FFF76CFFF2E70020FFF768FF71
:10CA1000EEE700BF000000006839002030B583B0A9
:10CA20000546012414E0344809F0AAF9002003B0B7
:10CA300030BD324809F0A4F93EE02F4809F0A0F9D2
:10CA4000F4E72F4809F09CF92E4809F099F90024E1
:10CA5000002C4ED068B2FDF74DF92B4809F090F943
:10CA600000208DF805000DF105020721FDF7AAF958
:10CA70009DF905000028EBD00728D4D0FCF71EFE56
:10CA8000224809F07DF9224809F07AF900208DF852
:10CA900006000DF106020321FDF794F99DF9060049
:10CAA000FDF728F99DF90630002BD1D0012B03D0DA
:10CAB000022BBED0032BC0D0164809F061F900202C
:10CAC0008DF807000DF107020321FDF77BF99DF9B1
:10CAD0000730002BBCD0012BB3D0022B05D0032B89
:10CAE000A4D00D4809F04CF9B2E70C4809F048F918
:10CAF000AAE701209BE700BFD87B01086C7C0108F6
:10CB0000287D0108F07A0108B47B0108F87B010850
:10CB1000247C0108807C0108547D0108307D0108D7
:10CB2000F0B52DED048B8BB005243F4B1C60FFF757
:10CB300035FD9FED3E1ADFED3E0A9FED3E0A0020D7
:10CB4000FCF74CFF9FED3C9ADFED3C8A9FED3C8A61
:10CB5000B0EE491AF0EE680AB0EE480A0420FCF77D
:10CB60003DFFB0EE491AF0EE680AB0EE480A2046E2
:10CB7000FCF734FF01210420FCF73EFF0121204691
:10CB8000FCF73AFF01210020FCF736FF00210120CD
:10CB9000FCF732FF00210220FCF72EFF00210320CA
:10CBA000FCF72AFF274B00221A602046FCF786FD7F
:10CBB000254B264A9A60264B00221A60254BD3ED5E
:10CBC000007A93ED038A77EE888A9E685F6817EE95
:10CBD000900AFBF7F1FB04460D4611A3D3E90023AD
:10CBE000CDE908233846FBF7E7FBCDE906013046DF
:10CBF000FBF7E2FBCDE9040118EE900AFBF7DCFB42
:10CC0000CDE9020118EE100AFBF7D6FBCDE90001D1
:10CC100022462B46104809F017F8C9E7AFF3008009
:10CC200000000060B81E25409838002085D99F3844
:10CC300038C45940F740CE3D69E62D3874EAFA3ED3
:10CC4000E59C583CAC390020143A002000007043A9
:10CC5000003A0020BC3900205C7D0108F0B583B0AB
:10CC6000304F01253D60304E00243460FFF796FCC4
:10CC700029460420FCF7C0FE29460520FCF7BCFE2F
:10CC800021462846FCF7B8FE21460220FCF7B4FEF8
:10CC900021460320FCF7B0FE3C6029462046FCF705
:10CCA000ABFE224B00221A600720FCF707FD35601F
:10CCB000B2EE043ADFED1E2ABEEE002AF6EE001AAE
:10CCC0009FED1C1AF2EE000AB0EE610A00F000F9C6
:10CCD00034601AE0184B03EB8403184A02EB840219
:10CCE00015681868FBF768FB06460F462846FBF7F1
:10CCF00063FBCDE9000132463B462146104808F06F
:10CD0000A3FF0134B4F5167FE4DB00210846FCF7ED
:10CD100073FE0C4B00229A6041F2883007F040FE0F
:10CD20000024EFE798380020A0380020AC3900201C
:10CD300000007A450000B442A4380020F4380020F6
:10CD40009C7D0108143A002010B5244B02221A6081
:10CD5000FCF738FC0146224C204608F075FFFCF732
:10CD600031FC0146204608F06FFF642007F018FEF2
:10CD700038213720FCF7F8FA1A4B83ED000A1868BF
:10CD8000FBF71AFB02460B46174808F05DFF00242C
:10CD9000164B1C60164B01221A60164B1868FBF7E5
:10CDA0000BFB02460B462146134808F04DFF134883
:10CDB00006F0CAFA02E0124808F0E2FF0C4B1B68CA
:10CDC000012BF8D00A4B00221A600C4806F000FB39
:10CDD0004FF47A7007F0E4FDFEE700BF98380020BA
:10CDE000AC7D0108D4290020A87B01087C390020F3
:10CDF000783900208C390020C87D0108646100204A
:10CE0000587E0108F8B50646144B1C6800270CE054
:10CE100007EB07132B4416F833102046FCF730FAC3
:10CE200004340135102DF3DD01370F2F01DC00250F
:10CE3000F8E700270DE005EB071303F5887316F8F4
:10CE400033102046FCF71CFA043401350F2DF2DDB7
:10CE50000137102F01DC0025F8E7F8BDA07A0108A2
:10CE6000F0B583B00646194B1C68002710E000237C
:10CE7000019301A92046FCF727FA07EB07132B447F
:10CE8000019A06F8332004340135102DEFDD013707
:10CE90000F2F01DC0025F8E7002711E000230193A4
:10CEA00001A92046FCF710FA05EB071303F5887378
:10CEB000019A06F83320043401350F2DEEDD0137D9
:10CEC000102F01DC0025F8E703B0F0BDA07A0108BF
:10CED00070B52DED068BB0EE40AAF0EE609AF0EE44
:10CEE000418A11EE906A12EE105AB0EE629AB0EEDC
:10CEF000438A60EE017A67EEA07A7E4B00221A60C8
:10CF00009FED7D7A67EE877AFDEEE77A17EE904A1D
:10CF100018E07A4B1E6027E00133794A1360002144
:10CF20000120FCF769FD00210320FCF765FD0021CD
:10CF30000220FCF761FD01210020FCF75DFD0020CF
:10CF4000FCF7BCFB6F4B9A686F4B9B6823449A427B
:10CF50003DDA6E4BD3ED027AF4EEC97AF1EE10FAB7
:10CF6000D7DB664B00221A60664B9968664B9A685D
:10CF7000DFED677A68EEA77A9FED5F7A67EE877AD2
:10CF8000FDEEE77A5E4B1B6817EE900A03FB00226A
:10CF90009142C1DB5B4A91685B4A92685D4800FB45
:10CFA00003229142B8DC01210020FCF725FD00217D
:10CFB0000320FCF721FD00210220FCF71DFD0021CC
:10CFC0000120FCF719FD0220FCF778FBBAE70021ED
:10CFD0000120FCF711FD00210320FCF70DFD0021CD
:10CFE0000220FCF709FD01210020FCF705FD0020CF
:10CFF000FCF764FB424B00221A60404B00221A608F
:10D00000414B9A6822449A6093ED007A07EE904A69
:10D01000F8EEE77AF6EE006A67EEA67AB8EEC77A1F
:10D0200037EE277ABDEEC77A83ED007A93ED017A69
:10D03000B8EEC77A77EE277AFDEEE77AC3ED017A8C
:10D04000F7EE007A77EECA7A67EEA87A67EEA97AE9
:10D050009FED297A67EE877AFDEEE77A17EE902A40
:10D0600001E0264B1D602C4BD3ED037A93ED007A43
:10D0700077EE877A9FED297AF4EEC77AF1EE10FA0F
:10D0800012D5214B9B6813441E4989688B420BDDE6
:10D090001E4BD3ED027AF4EEC87AF1EE10FAE0D826
:10D0A000164B00211960DEE7144B00211960164B66
:10D0B00099681144996093ED007A07EE902AF8EE92
:10D0C000E77AF6EE006A67EEA67AB8EEC77A37EE30
:10D0D000277ABDEEC77A83ED007A93ED017AB8EE38
:10D0E000C77A77EE277AFDEEE77AC3ED017ABDECD9
:10D0F000068B70BD003A0020552AF7448439002081
:10D100001C4C0020203A0020B0390020143A0020A6
:10D110003333733FE9D90200BC39002000806D45EC
:10D1200070B52DED028B0546DF4B93ED008A002094
:10D13000FCF7C4FA002431E001210020FCF75CFC7C
:10D1400000210320FCF758FC00210220FCF754FCCE
:10D1500000210120FCF750FCD34BD3ED002AB0EEA8
:10D16000623A9FEDD22ADFEDD21A9FEDD21ADFED9F
:10D17000D20AB7EE000AFFF7ABFE00210846FCF723
:10D180003BFC00210320FCF737FC00210220FCF7C8
:10D1900033FC00210120FCF72FFC0134AC4200F3EA
:10D1A0000582C64B03EB04131B7B132BF5D801A29E
:10D1B00052F823F039D100089BD1000833D300087E
:10D1C00023D200089BD100089BD1000837D3000868
:10D1D0005FD3000887D30008AFD30008D7D3000877
:10D1E000FFD3000827D4000877D400080DD5000825
:10D1F0005DD500084FD40008E5D4000835D50008F7
:10D2000085D500089FEDAE8A0136AC4B03EB0613C3
:10D210001B7B032B07D1AE42F4D0A34B93ED008AC6
:10D22000F2E72646F1E7331B08EE903AF8EEE88A7B
:10D2300064B918EE900AFBF7BFF899A3D3E900236D
:10D24000FAF75CFFFBF7E8FB08EE900A01210020EB
:10D25000FCF7D2FB00210320FCF7CEFB00210220CB
:10D26000FCF7CAFB00210120FCF7C6FBB0EE483AF0
:10D27000DFED942A9FED8D2ADFED8D1A9FED8D1A3B
:10D28000F0EE680AB6EE000AFFF722FE741E0021D7
:10D290000846FCF7B1FB00210320FCF7ADFB0021A1
:10D2A0000220FCF7A9FB00210120FCF7A5FB74E795
:10D2B0000136824B03EB06131B7B022BF8D0341B89
:10D2C00007EE904AF8EEE78A01210020FCF794FB74
:10D2D00000210320FCF790FB00210220FCF78CFBCF
:10D2E00000210120FCF788FB6F4B93ED003ADFED46
:10D2F000762A73EE222A9FED6D2ADFED6D1A9FEDDF
:10D30000731AF0EE680AB6EE000AFFF7E1FD741E2C
:10D3100000210846FCF770FB00210320FCF76CFBA2
:10D3200000210220FCF768FB00210120FCF764FBD0
:10D3300033E72646BDE700210846FCF75DFB0021E8
:10D340000320FCF759FB00210220FCF755FB0021CC
:10D350000120FCF751FB5E48FDF7C0FB1DE70021F3
:10D360000846FCF749FB00210320FCF745FB0021A0
:10D370000220FCF741FB00210120FCF73DFB544853
:10D38000FDF7E4FA09E700210846FCF735FB002128
:10D390000320FCF731FB00210220FCF72DFB0021CC
:10D3A0000120FCF729FB4B48FDF798FBF5E600212F
:10D3B0000846FCF721FB00210320FCF71DFB0021A0
:10D3C0000220FCF719FB00210120FCF715FB414866
:10D3D000FDF7BCFAE1E600210846FCF70DFB002151
:10D3E0000320FCF709FB00210220FCF705FB0021CC
:10D3F0000120FCF701FB3848FDF770FBCDE600216A
:10D400000846FCF7F9FA00210320FCF7F5FA0021A1
:10D410000220FCF7F1FA00210120FCF7EDFA2E487A
:10D42000FDF794FAB9E600210846FCF7E5FA002179
:10D430000320FCF7E1FA00210220FCF7DDFA0021CD
:10D440000120FCF7D9FA2548FDF748FBA5E60021A5
:10D450000846FCF7D1FA00210320FCF7CDFA0021A1
:10D460000220FCF7C9FA00210120FCF7C5FA1C488C
:10D47000FDF734FB91E600210846FCF7BDFA0021D8
:10D480000320FCF7B9FA00210220FCF7B5FA0021CD
:10D490000120FCF7B1FA1148FDF758FA7DE600BF0C
:10D4A000777777777777C73FAC390020C3F538C0F7
:10D4B000C3F538400000B442BCBB3B3EB04F002037
:10D4C0000000000000007A4500003442CC8E7E420D
:10D4D000C43A0020703A0020E03A00208C3A002044
:10D4E000A83A002000210846FCF786FA0021032014
:10D4F000FCF782FA00210220FCF77EFA00210120CD
:10D50000FCF77AFA2C48FDF721FA46E60021084696
:10D51000FCF772FA00210320FCF76EFA00210220CA
:10D52000FCF76AFA00210120FCF766FA2348FDF7B0
:10D53000D5FA32E600210846FCF75EFA0021032006
:10D54000FCF75AFA00210220FCF756FA00210120CC
:10D55000FCF752FA1A48FDF7C1FA1EE60021084608
:10D56000FCF74AFA00210320FCF746FA00210220CA
:10D57000FCF742FA00210120FCF73EFA0F48FDF7C4
:10D58000E5F90AE600210846FCF736FA00210320F7
:10D59000FCF732FA00210220FCF72EFA00210120CC
:10D5A000FCF72AFA0648FDF7D1F9F6E5054B00220B
:10D5B0009A60BDEC028B70BDA83A0020383A00207A
:10D5C000543A0020143A00202DE9F04182B06F4B0C
:10D5D00000221A6001208DF807000DF107020221D8
:10D5E000FCF7F0FB9DF90700FCF784FB9DF9073081
:10D5F000012B55D0022B55D0542501248DF806401F
:10D600000DF1060204212046FCF7DCFB9DF9060023
:10D61000FCF770FBFCF7B0FB9DF90600FEF754FE2B
:10D62000FEF7BCFF21460420FCF7E6F92146052061
:10D63000FCF7E2F921460020FCF7DEF9DFF88081F3
:10D6400088F800400023524A1370524A1360524A2D
:10D650001360524B1C6000F049F900F053F900F0E0
:10D66000E1F94F4E4F4F3146384602F005FF00F0CA
:10D670008DF94D4B1C604D4B1B88ADF80430338049
:10D6800098F80030B370F37000F048F9314638462E
:10D69000474BD3ED000A9FED470AFDF7E5FA19E085
:10D6A0005425AAE75325A8E73C4F3D4C3D4E3B6827
:10D6B000E268A179304602F01FFA0246A06104F147
:10D6C0001001201D02F0EFFC3B682A46214630463F
:10D6D000FEF790F8324B1B79043BDBB2022BE3D808
:10D6E0002F4B5B79043BDBB2022BDDD800F004F951
:10D6F00015E02A4F2A4C2B4E3B68E268A179304650
:10D7000002F0FAF90246A06104F11001201D02F0B6
:10D71000CAFC3B682A4621463046FEF76BF8204B90
:10D720001B88002BE5D11E4B9B88002BE1D10720E5
:10D73000FBF7C4FFDFED200A9FED200AFDF734FB65
:10D74000FCF77CFD164C204602F030F9606800F0D2
:10D750004FF900210846FCF74FF9FBF7D9FD0720E8
:10D76000FCF7C8FA0F48FFF74DFB0120FCF7C2FA9F
:10D770000C4C204601F0E2FF204602F01BF808495D
:10D78000204601F049FF00F017F9F1E79838002032
:10D79000303A0020DC3900209C390020B85F00209E
:10D7A000004C0020003B0020A03800205C7A0108DB
:10D7B000AC39002000007642000000000000344236
:10D7C000FC3A00202DE9F04182B000253A4B1D6063
:10D7D00001248DF807400DF1070204212046FCF7D3
:10D7E000F1FA9DF90700FCF785FAFCF7C5FAFEF798
:10D7F000D5FE21460420FCF7FFF821460520FCF762
:10D80000FBF82E4B99681A685B682D4808F01CFAE3
:10D810002846FEF755FF9DF90730A34248D0294B13
:10D8200000221A70284B01221A601A68274B1A60CE
:10D830000326274B1E70274B1B88ADF80430264C5F
:10D840002380A670E670254D2146284602F014FE7E
:10D8500000F09CF82846FFF703FB04F1020833466A
:10D8600042462146284601F0C4FC2146284600F0E5
:10D870001FFD204600F0A0FD07462146284602F085
:10D88000FBFD2846FFF7ECFA334642462146284680
:10D8900001F0AFFC0720FCF72DFA3846FFF740FCFB
:10D8A0000720FCF727FA0E490C4801F0B5FEFAE70D
:10D8B0000C4B0D4A1A60B2E798380020203A00203D
:10D8C000E47D0108303A0020DC3900209C3900203A
:10D8D000FC3A00205C7A0108004C0020003B00204C
:10D8E000044C0020AC39002000009643014B00227C
:10D8F0001A707047204C0020014B01221A707047AB
:10D90000214C0020014B00221A707047214C00204E
:10D91000014B1878704700BF214C0020014B0022BA
:10D920001A607047244C0020014B1860704700BFFC
:10D93000244C0020014B1868704700BF244C002085
:10D9400082B0094B1A68094B33F81230ADF8043035
