:020000040800F2
:1000000000000220394A010881900008839000080E
:100010008590000887900008899000080000000083
:100020000000000000000000000000008B900008AD
:100030008D900008000000008F900008919000084B
:10004000894A0108894A0108894A0108894A010840
:10005000894A0108894A0108894A0108894A010830
:10006000894A0108894A0108894A0108894A010820
:10007000894A0108894A0108894A0108894A010810
:10008000894A0108894A0108894A0108894A010800
:10009000894A0108894A0108894A0108894A0108F0
:1000A000894A010899900008894A0108894A01088B
:1000B000894A0108894A0108894A0108894A0108D0
:1000C000894A0108894A0108894A0108894A0108C0
:1000D000894A0108A9900008894A0108894A01084B
:1000E000B9900008894A0108894A0108894A01082B
:1000F000C5900008894A0108894A0108894A01080F
:10010000894A0108894A0108894A0108894A01087F
:10011000894A0108894A0108894A0108894A01086F
:10012000D5900008894A0108E5900008894A01082D
:10013000894A01080000000000000000894A010807
:10014000894A0108894A0108894A0108894A01083F
:10015000894A0108894A0108894A0108894A01082F
:10016000894A0108894A0108894A0108894A01081F
:10017000894A0108894A01080000000000000000C7
:08018000894A0108894A0108BF
:1080000010B5054C237833B9044B13B10448AFF3D2
:1080100000800123237010BDE80100200000000053
:10802000A47A010808B5034B1BB103490348AFF319
:10803000008008BD00000000EC010020A47A0108C7
:10804000034613F8012B002AFBD1181A0138704798
:1080500001F0FF01102A2BDB10F0070F08D010F8F9
:10806000013B013A8B422DD010F0070F42B3F6D1FD
:10807000F0B441EA012141EA014122F007047FF016
:1080800000070023F0E80256083C85EA010586EA6D
:10809000010685FA47F5A3FA87F586FA47F6A5FAA9
:1080A00087F68EB9EED1F0BC01F0FF0102F00702B5
:1080B00032B110F8013B013A83EA010313B1F8D160
:1080C0000020704701387047002D06BF3546033841
:1080D000073815F0010F07D1013015F4807F02BF7A
:1080E000013015F4C03F0130F0BC0138704700BFCB
:1080F00081F0004102E000BF83F0004330B54FEA59
:1081000041044FEA430594EA050F08BF90EA020FC5
:108110001FBF54EA000C55EA020C7FEA645C7FEA58
:10812000655C00F0E2804FEA5454D4EB5555B8BF7B
:108130006D420CDD2C4480EA020281EA030382EAEC
:10814000000083EA010180EA020281EA0303362D7E
:1081500088BF30BD11F0004F4FEA01314FF4801C51
:108160004CEA113102D0404261EB410113F0004F63
:108170004FEA03334CEA133302D0524263EB43031A
:1081800094EA050F00F0A780A4F10104D5F1200EB8
:108190000DDB02FA0EFC22FA05F2801841F1000113
:1081A00003FA0EF2801843FA05F359410EE0A5F1E7
:1081B00020050EF1200E012A03FA0EFC28BF4CF018
:1081C000020C43FA05F3C01851EBE37101F00045CE
:1081D00007D54FF0000EDCF1000C7EEB00006EEBDB
:1081E0000101B1F5801F1BD3B1F5001F0CD3490865
:1081F0005FEA30004FEA3C0C04F101044FEA4452BC
:1082000012F5800F80F09A80BCF1004F08BF5FEA42
:10821000500C50F1000041EB045141EA050130BD22
:108220005FEA4C0C404141EB0101013C28BFB1F534
:10823000801FE9D291F0000F04BF01460020B1FA7F
:1082400081F308BF2033A3F10B03B3F120020CDA52
:108250000C3208DD02F1140CC2F10C0201FA0CF030
:1082600021FA02F10CE002F11402D8BFC2F1200C95
:1082700001FA02F120FA0CFCDCBF41EA0C0190404B
:10828000E41AA2BF01EB0451294330BD6FEA040494
:108290001F3C1CDA0C340EDC04F11404C4F120027F
:1082A00020FA04F001FA02F340EA030021FA04F391
:1082B00045EA030130BDC4F10C04C4F1200220FAE8
:1082C00002F001FA04F340EA0300294630BD21FA26
:1082D00004F0294630BD94F0000F83F4801306BFEC
:1082E00081F480110134013D4EE77FEA645C18BFE0
:1082F0007FEA655C29D094EA050F08BF90EA020F77
:1083000005D054EA000C04BF1946104630BD91EA6E
:10831000030F1EBF0021002030BD5FEA545C05D171
:108320004000494128BF41F0004130BD14F58004B0
:108330003CBF01F5801130BD01F0004545F0FE4124
:1083400041F470014FF0000030BD7FEA645C1ABF59
:10835000194610467FEA655C1CBF0B46024650EA90
:10836000013406BF52EA033591EA030F41F40021BC
:1083700030BD00BF90F0000F04BF0021704730B542
:108380004FF4806404F132044FF000054FF0000117
:1083900050E700BF90F0000F04BF0021704730B5D8
:1083A0004FF4806404F1320410F0004548BF4042AD
:1083B0004FF000013EE700BF42004FEAE2014FEA02
:1083C00031014FEA02701FBF12F07F4393F07F4FDD
:1083D00081F06051704732F07F4208BF704793F0E0
:1083E0007F4F04BF41F40021704730B54FF46074F3
:1083F00001F0004521F000411CE700BF50EA0102F6
:1084000008BF704730B54FF000050AE050EA01029E
:1084100008BF704730B511F0004502D5404261EB0E
:1084200041014FF4806404F132045FEA915C3FF44F
:10843000D8AE4FF003025FEADC0C18BF03325FEAEC
:10844000DC0C18BF033202EBDC02C2F1200300FA9D
:1084500003FC20FA02F001FA03FE40EA0E0021FAC2
:1084600002F11444BDE600BF70B54FF0FF0C4CF4B0
:10847000E06C1CEA11541DBF1CEA135594EA0C0F62
:1084800095EA0C0F00F0DEF82C4481EA030621EA9D
:108490004C5123EA4C5350EA013518BF52EA0335D8
:1084A00041F4801143F4801338D0A0FB02CE4FF08A
:1084B0000005E1FB02E506F00042E0FB03E54FF0BA
:1084C0000006E1FB03569CF0000F18BF4EF0010EB2
:1084D000A4F1FF04B6F5007F64F5407404D25FEAAE
:1084E0004E0E6D4146EB060642EAC62141EA555161
:1084F0004FEAC52040EA5E504FEACE2EB4F1FD0CA3
:1085000088BFBCF5E06F1ED8BEF1004F08BF5FEA20
:10851000500E50F1000041EB045170BD06F00046D2
:1085200046EA010140EA020081EA0301B4EB5C047F
:10853000C2BFD4EB0C0541EA045170BD41F4801177
:108540004FF0000E013C00F3AB8014F1360FDEBF9C
:10855000002001F0004170BDC4F10004203C35DA78
:108560000C341BDC04F11404C4F1200500FA05F3FB
:1085700020FA04F001FA05F240EA020001F000429C
:1085800021F0004110EBD37021FA04F642EB060112
:108590005EEA430E08BF20EAD37070BDC4F10C043C
:1085A000C4F1200500FA04F320FA05F001FA04F200
:1085B00040EA020001F0004110EBD37041F10001EC
:1085C0005EEA430E08BF20EAD37070BDC4F12005F7
:1085D00000FA05F24EEA020E20FA04F301FA05F25F
:1085E00043EA020321FA04F001F0004121FA04F207
:1085F00020EA020000EBD3705EEA430E08BF20EAD7
:10860000D37070BD94F0000F0FD101F00046400010
:1086100041EB010111F4801F08BF013CF7D041EA92
:10862000060195F0000F18BF704703F00046520096
:1086300043EB030313F4801F08BF013DF7D043EA67
:108640000603704794EA0C0F0CEA135518BF95EA1D
:108650000C0F0CD050EA410618BF52EA4306D1D1A4
:1086600081EA030101F000414FF0000070BD50EAC3
:10867000410606BF1046194652EA430619D094EA4D
:108680000C0F02D150EA013613D195EA0C0F05D137
:1086900052EA03361CBF104619460AD181EA03018B
:1086A00001F0004141F0FE4141F470014FF0000043
:1086B00070BD41F0FE4141F4780170BD70B54FF0DE
:1086C000FF0C4CF4E06C1CEA11541DBF1CEA13555E
:1086D00094EA0C0F95EA0C0F00F0A7F8A4EB050440
:1086E00081EA030E52EA03354FEA013100F0888037
:1086F0004FEA03334FF0805545EA131343EA126300
:108700004FEA022245EA111545EA10654FEA0026B4
:108710000EF000419D4208BF964244F1FD0404F56D
:10872000407402D25B084FEA3202B61A65EB0305C9
:108730005B084FEA32024FF480104FF4002CB6EB86
:10874000020E75EB030E22BFB61A754640EA0C0006
:108750005B084FEA3202B6EB020E75EB030E22BF46
:10876000B61A754640EA5C005B084FEA3202B6EB87
:10877000020E75EB030E22BFB61A754640EA9C0046
:108780005B084FEA3202B6EB020E75EB030E22BF16
:10879000B61A754640EADC0055EA060E18D04FEAD4
:1087A000051545EA16754FEA06164FEAC30343EA74
:1087B00052734FEAC2025FEA1C1CC0D111F4801F41
:1087C0000BD141EA00014FF000004FF0004CB6E73A
:1087D00011F4801F04BF01430020B4F1FD0C88BFD9
:1087E000BCF5E06F3FF6AFAEB5EB030C04BFB6EBE4
:1087F000020C5FEA500C50F1000041EB045170BDD7
:108800000EF0004E4EEA113114EB5C04C2BFD4EB03
:108810000C0541EA045170BD41F480114FF0000E87
:10882000013C90E645EA060E8DE60CEA135594EA03
:108830000C0F08BF95EA0C0F3FF43BAF94EA0C0F06
:108840000AD150EA01347FF434AF95EA0C0F7FF47B
:1088500025AF104619462CE795EA0C0F06D152EACF
:1088600003353FF4FDAE1046194622E750EA4106B3
:1088700018BF52EA43067FF4C5AE50EA41047FF4C4
:108880000DAF52EA43057FF4EBAE12E74FF0FF3C29
:1088900006E000BF4FF0010C02E000BF4FF0010CFA
:1088A0004DF804CD4FEA410C7FEA6C5C4FEA430C73
:1088B00018BF7FEA6C5C1BD001B050EA410C0CBFC2
:1088C00052EA430C91EA030F02BF90EA020F002024
:1088D000704710F1000F91EA030F58BF994208BF8B
:1088E00090422CBFD8176FEAE37040F00100704748
:1088F0004FEA410C7FEA6C5C02D150EA013C07D19F
:108900004FEA430C7FEA6C5CD6D152EA033CD3D0E9
:108910005DF8040B704700BF8446104662468C46E3
:108920001946634600E000BF01B5FFF7B7FF002816
:1089300048BF10F1000F01BD4DF808EDFFF7F4FF3F
:108940000CBF012000205DF808FB00BF4DF808EDCA
:10895000FFF7EAFF34BF012000205DF808FB00BFED
:108960004DF808EDFFF7E0FF94BF012000205DF80F
:1089700008FB00BF4DF808EDFFF7CEFF94BF0120C4
:1089800000205DF808FB00BF4DF808EDFFF7C4FFBD
:1089900034BF012000205DF808FB00BF4FEA410C06
:1089A0007FEA6C5C02D150EA013C0AD14FEA430CE9
:1089B0007FEA6C5C02D152EA033C02D14FF0000026
:1089C00070474FF0010070474FEA410212F5001264
:1089D00015D211D56FF47873B3EB625212D94FEA06
:1089E000C12343F0004343EA505311F0004F23FAF0
:1089F00002F018BF404270474FF00000704750EA45
:108A0000013005D111F0004008BF6FF00040704701
:108A10004FF00000704700BF4FEA4102B2F1E0435F
:108A200024BFB3F5001CDCF1FE5C0DD901F0004C55
:108A30004FEAC0024CEA5070B2F1004F40EB8300A5
:108A400008BF20F00100704711F0804F21D113F1D1
:108A50003872BCBF01F00040704741F480114FEA0A
:108A60005252C2F11802C2F1200C10FA0CF320FA93
:108A700002F018BF40F001004FEAC1234FEAD323B0
:108A800003FA0CFC40EA0C0023FA02F34FEA43031A
:108A9000CCE77FEA625307D150EA01331EBF4FF0A3
:108AA000FE4040F44000704701F0004040F0FE40BE
:108AB00040F40000704700BF53B94AB9002908BF0D
:108AC00000281CBF4FF0FF314FF0FF3000F074B9A9
:108AD000ADF1080C6DE904CE00F006F8DDF804E015
:108AE000DDE9022304B070472DE9F047089D0446F4
:108AF0008E46002B4DD18A42944669D9B2FA82F251
:108B000052B101FA02F3C2F1200120FA01F10CFA8C
:108B100002FC41EA030E94404FEA1C48210CBEFBC4
:108B2000F8F61FFA8CF708FB16E341EA034306FB4D
:108B300007F199420AD91CEB030306F1FF3080F0DC
:108B40001F81994240F21C81023E63445B1AA4B229
:108B5000B3FBF8F008FB103344EA034400FB07F7CB
:108B6000A7420AD91CEB040400F1FF3380F00A810C
:108B7000A74240F207816444023840EA0640E41B01
:108B800000261DB1D4400023C5E900433146BDE8AD
:108B9000F0878B4209D9002D00F0EF800026C5E94F
:108BA000000130463146BDE8F087B3FA83F6002E67
:108BB0004AD18B4202D3824200F2F980841A61EBDF
:108BC000030301209E46002DE0D0C5E9004EDDE7FD
:108BD00002B9FFDEB2FA82F2002A40F09280A1EBE5
:108BE0000C014FEA1C471FFA8CFE0126200CB1FB3A
:108BF000F7F307FB131140EA01410EFB03F0884233
:108C000008D91CEB010103F1FF3802D2884200F2BF
:108C1000CB804346091AA4B2B1FBF7F007FB101151
:108C200044EA01440EFB00FEA64508D91CEB0404EF
:108C300000F1FF3102D2A64500F2BB800846A4EB4A
:108C40000E0440EA03409CE7C6F12007B34022FA35
:108C500007FC4CEA030C20FA07F401FA06F31C4364
:108C6000F9404FEA1C4900FA06F3B1FBF9F8200C71
:108C70001FFA8CFE09FB181140EA014108FB0EF0B7
:108C8000884202FA06F20BD91CEB010108F1FF3A07
:108C900080F08880884240F28580A8F10208614413
:108CA000091AA4B2B1FBF9F009FB101144EA014121
:108CB00000FB0EFE8E4508D91CEB010100F1FF34CC
:108CC0006CD28E456AD90238614440EA0840A0FB64
:108CD0000294A1EB0E01A142C846A64656D353D03A
:108CE0005DB1B3EB080261EB0E0101FA07F722FA5E
:108CF00006F3F1401F43C5E9007100263146BDE887
:108D0000F087C2F12003D8400CFA02FC21FA03F3E9
:108D1000914001434FEA1C471FFA8CFEB3FBF7F06A
:108D200007FB10360B0C43EA064300FB0EF69E428F
:108D300004FA02F408D91CEB030300F1FF382FD228
:108D40009E422DD9023863449B1B89B2B3FBF7F6D0
:108D500007FB163341EA034106FB0EF38B4208D9A9
:108D60001CEB010106F1FF3816D28B4214D9023EEA
:108D70006144C91A46EA004638E72E46284605E708
:108D80000646E3E61846F8E64B45A9D2B9EB0208D9
:108D900064EB0C0E0138A3E74646EAE7204694E769
:108DA0004046D1E7D0467BE7023B614432E730469C
:108DB00009E76444023842E7704700BF38B5084C01
:108DC000084D0122214628460BF0A5FB0122214631
:108DD00028460BF0AEFD23780133237038BD00BF69
:108DE000040200204074002000B583B001904FF6CB
:108DF000FF73012201A903480BF0AFFA019803B0F9
:108E00005DF804FB4074002000B583B0022006E04A
:108E10000A2301220DF1070104480BF00AFB002888
:108E2000F6D19DF8070003B05DF804FB4074002004
:108E300072B6FEE700B595B03022002108A80CF00C
:108E40008FF80023039304930593069307930193EC
:108E5000204A116C41F080511164126C02F0805272
:108E60000192019A02931C4B1A6842F480421A60E4
:108E70001B6803F480430293029B012308934FF481
:108E8000A023099302220E924FF480030F93042330
:108E90001093A82111911292139308A809F016F9C2
:108EA00098B90F23039302230493002305934FF4EF
:108EB000A05306934FF480530793052103A809F0AC
:108EC0006BFB20B915B05DF804FBFFF7B1FFFFF7AE
:108ED000AFFF00BF003802400070004000B583B013
:108EE0000BF06AFD07F022FB07F008FD07F0BEFB60
:108EF00007F00EFC08F074F800F076F907F0B4FD06
:108F0000564B986800F00AFF00F08AF90DF107024D
:108F10000721002000F056FF9DF9070000F0EAFE4F
:108F2000FFF788FF07F002FB07F0E8FC07F09EFB65
:108F300007F0EEFB07F098FD07F02AFF07F000FDB1
:108F400008F04EF807F07AFF07F0C0FD07F0CEFFFB
:108F500007F052FD0122424942480BF0EAFC9FED26
:108F6000428A9FED429ADFED428AB0EE481AF0EE57
:108F7000490AB0EE680A042000F030FDB0EE481A4D
:108F8000F0EE490AB0EE680A052000F027FDB0EEC9
:108F9000481AF3EE020A9FED370A002000F01EFD8A
:108FA000B0EE481AF0EE480A9FED330A082000F0B0
:108FB00015FDB0EE481AF7EE000AB1EE080A0120DE
:108FC00000F00CFDB0EE481AF7EE000AB2EE080A07
:108FD000022000F003FDB0EE481AF7EE000AB2EEF0
:108FE000080A032000F0FAFC0FE0012003F072FDF4
:108FF00022480CF0FDFE0DF107020721002000F0D1
:10900000E1FE9DF9070000F075FE9DF90730013B78
:10901000062BEDD801A252F823F000BFEB8F000819
:10902000399000083F900008459000084B900008D8
:10903000519000085790000803F0CEFDD8E703F0E8
:109040000FFDD5E704F0FEFBD2E703F0BBFECFE750
:1090500004F0FAFACCE703F05DFEC9E70C02002049
:1090600004020020407400200000000000007A4448
:10907000333353406666F64000001242DC7A010842
:10908000FEE7FEE7FEE7FEE7FEE770477047704742
:1090900008B50BF0ABFC08BD08B502480AF0EFF9C3
:1090A00008BD00BF9072002008B502480BF0E4FA3A
:1090B00008BD00BF4074002008B54FF4805008F090
:1090C000F7FF08BD08B502480AF0D9F908BD00BF8E
:1090D000F873002008B5024808F0B6FC08BD00BFD0
:1090E0007871002008B5024808F0AEFC08BD00BF4A
:1090F000D871002082B0002100910B4B5A6C42F4D1
:1091000080425A645A6C02F480420092009A0191A3
:109110001A6C42F080521A641B6C03F08053019366
:10912000019B02B0704700BF003802400120704729
:1091300008B50BF0ABFC162303604FF0FF3008BD01
:1091400008B54FF0FF31FFF7F3FFFEE770B50C46AF
:109150001646002506E0FFF757FE214601F8010BF1
:1091600001350C46B542F6DB304670BD70B50C4695
:109170001646002504E014F8010BFFF735FE013513
:10918000B542F8DB304670BD4FF0FF3070474FF40A
:1091900000534B600020704701207047002070474B
:1091A00010B503460C4A0D490D48006840B10C4803
:1091B00000680344521A934206D8094A136010BD4E
:1091C0000748084C0460F2E70BF060FC0C230360D6
:1091D0004FF0FF30F3E700BF000002200004000062
:1091E00008020020B874002008B503220849094885
:1091F00008F024F830B902220749084808F01EF8A0
:1092000018B908BDFFF714FEF5E7FFF711FEF8E700
:109210000C020020E87000201802002030710020AD
:1092200008B50D4808F0D8F820B90C4808F0D4F873
:1092300048B908BD0A480CF0DBFDFFF7F9FD094805
:109240000CF0D6FDF1E708480CF0D2FDFFF7F0FD79
:1092500006480CF0CDFDECE7E870002030710020EE
:10926000F07A0108F87A0108007B0108087B010800
:10927000024BDB6813F4803FFAD17047003C024098
:1092800070B505460E460E4C0E4B636003F18833F5
:109290006360FFF7EDFF236943F4007323612369E3
:1092A00043F0010323612E60FFF7E2FF236923F0FF
:1092B00001032361236943F00043236170BD00BFB4
:1092C000003C02402301674570B506460D460E4C32
:1092D0000E4B636003F188336360FFF7C9FF2369B6
:1092E00043F400732361236943F00103236133686E
:1092F0002B60FFF7BDFF236923F00103236123697E
:1093000043F00043236170BD003C024023016745E8
:1093100010B586B008F082FD00230193012303936A
:10932000022205920493694601A808F0E7FC04466E
:1093300008F08CFD2CB9009BB3F1FF3F04D0002056
:1093400000E0002006B010BD0120FBE7B0F90020CE
:10935000B1F900309A4203DC04DA4FF0FF30704775
:10936000012070470020704730B583B08DF80000B1
:109370008DF8011060F07F008DF8070061F07F012B
:109380008DF806101E4C00220421204608F08AFEAB
:109390001C4D642301220DF10701284609F015FB3D
:1093A000642301220DF10501284609F006FD012282
:1093B0000421204608F076FE00220421204608F011
:1093C00071FE642301220DF10601284609F0FDFA21
:1093D0006423012201A9284609F0EFFC012204219F
:1093E000204608F05FFE9DF805301B021BB29DF879
:1093F0000420134300EE103AB8EEC00A03B030BDAB
:10940000000C02403872002000B583B000230093A6
:10941000ADF804300D4BB3F902C0A3F800C0B3F9A6
:1094200004105980B0F900209A80ADF800C0ADF862
:109430000210ADF80420064B0222032168460CF00E
:1094400017FDBDF9020003B05DF804FB28020020FF
:109450004D93000800000000F0B585B007460C46AB
:1094600043F63703ADF80830B7238DF80F30B82333
:109470008DF80E303A4D00220421284608F012FEE5
:10948000384E642301220DF10F01304609F09DFA98
:10949000642301220DF10D01304609F08EFC0122FA
:1094A0000421284608F0FEFD00220421284608F089
:1094B000F9FD642301220DF10E01304609F085FA11
:1094C0006423012203A9304609F077FC012204211C
:1094D000284608F0E7FD9DF80D209DF80C3043EA82
:1094E0000223ADF806300DF10600FFF78DFF1E4B8D
:1094F000188007EE900AF8EEE77A9FED1C7A67EE87
:10950000877A1B4BC3ED007AD3ED007AF1EE677AD0
:1095100017EE900AC7ED007AFEF74EFF0CA3D3E9D1
:109520000023FEF7A1FF0CA3D3E90023FEF7E4FD1F
:1095300006460F462068FEF73FFF32463B46FEF7E1
:10954000DDFDFFF769FA206005B0F0BDAFF30080E4
:10955000FCA9F1D24D62503FD7A973BE38EEBD3E93
:10956000000C02403872002020020020787D8B3AE7
:109570002402002030B585B08DF8071000F07F0080
:109580008DF80F000D4C00220421204608F08AFDC2
:109590000B4D642301220DF10F01284609F015FA45
:1095A000642301220DF10701284609F00EFA012279
:1095B0000421204608F076FD05B030BD000C0240C5
:1095C0003872002030B583B080238DF806301D4CF2
:1095D00000220421204608F065FD1B4D6423012272
:1095E0000DF10601284609F0F0F9642301220DF17E
:1095F0000701284609F0E1FB01220421204608F07A
:1096000051FD9DF80730E02B02D0012003B030BDA2
:1096100001210620FFF7AEFF10210320FFF7AAFF6C
:1096200020217F20FFF7A6FF17210120FFF7A2FFCF
:1096300017211420FFF79EFF00217F20FFF79AFFDC
:10964000E3E700BF000C02403872002008B53C215F
:1096500003480AF061FC3C2102480AF05DFC08BDA9
:10966000207300206873002008B53C2103480AF0ED
:10967000B9FC3C2102480AF0B5FC08BD207300206B
:109680006873002010B5054C002120460AF068FAE6
:109690000021204609F060FC10BD00BFF8730020D7
:1096A00010B5054C002120460AF000FB00212046A1
:1096B00009F0EAFC10BD00BFF873002010B50728C0
:1096C00018D8DFE800F004182C4054687C90504C07
:1096D00000224FF40071204608F0E4FC00224FF411
:1096E0008071204608F0DEFC00224FF400714948EA
:1096F00008F0D8FC10BD464C01224FF40071204602
:1097000008F0D0FC00224FF48071204608F0CAFC1B
:1097100000224FF400713F4808F0C4FCEAE73C4CDB
:1097200000224FF40071204608F0BCFC01224FF4E7
:109730008071204608F0B6FC00224FF400713548D5
:1097400008F0B0FCD6E7324C01224FF400712046FD
:1097500008F0A8FC01224FF48071204608F0A2FC1A
:1097600000224FF400712B4808F09CFCC2E7284C03
:1097700000224FF40071204608F094FC00224FF4C0
:109780008071204608F08EFC01224FF400712148C0
:1097900008F088FCAEE71E4C01224FF40071204611
:1097A00008F080FC00224FF48071204608F07AFC1B
:1097B00001224FF40071174808F074FC9AE7144C2A
:1097C00000224FF40071204608F06CFC01224FF497
:1097D0008071204608F066FC01224FF400710D48AC
:1097E00008F060FC86E70A4C01224FF40071204625
:1097F00008F058FC01224FF48071204608F052FC1A
:1098000001224FF40071034808F04CFC72E700BFDE
:10981000000802400004024008B50C2107480AF085
:10982000B3FA28B9042106480AF0AEFA18B908BDFF
:10983000FFF7FEFAF6E7FFF7FBFAF8E7D872002029
:10984000B073002008B50C2107480AF01FFB28B9A7
:10985000042106480AF01AFB18B908BDFFF7E8FA18
:10986000F6E7FFF7E5FAF8E7D8720020B0730020BA
:1098700038B50D46041E16DC002C1ADB002D1FDC4B
:10988000002D23DBB4F5137F01DD4FF41374B5F520
:10989000137F01DD4FF41375104B1B689D63104B54
:1098A0001B681C6438BD012204210E4808F0FAFB35
:1098B000E4E7002204210B4808F0F4FB6442DDE7F2
:1098C00000220121074808F0EDFBDBE701221146E9
:1098D000044808F0E7FB6D42D4E700BFB0730020F6
:1098E000D8720020000002400160704710B41A4C8A
:1098F00054F822305B1A002BB8BF5B4244F82210A8
:10990000164951F82240234441F82230144C54F8AF
:109910002210013144F82210814207D0114B03EB91
:10992000820292ED000A5DF8044B704707EE903A10
:10993000F8EEE77A07EE101AB8EEC77AC7EE876A34
:10994000084B03EB8203C3ED006A0023034941F88F
:10995000223044F82230E1E7640200205402002063
:10996000440200203402002007EE900AF8EEE77A65
:1099700067EE807A67EEA07A87EE810A704702462A
:109980000023012002E002FB00F001338B42FADBEE
:109990007047024680EE016A80EE817AF7EE007A27
:1099A00077EEC77A06EE900AF8EEE65AC7EEA56A99
:1099B0000023184600E0013393420EDA07EE903A96
:1099C000F8EEE77A67EEA67A77EE877AF4EEC67A53
:1099D000F1EE10FAEFD81846EDE77047054B2C2250
:1099E00002FB003080ED000AC0ED010A80ED021A92
:1099F000704700BF74020020024B2C2202FB003390
:109A00009962704774020020064B2C2202FB003042
:109A10000023C360036143618361002242620362E9
:109A2000C36170477402002010B50446284B2C22F5
:109A300002FB0033986A50B9254B02FB0434002323
:109A4000E36023616361A3610023636210BD204B67
:109A50002C2000FB043484ED080AC4ED070A70EEE4
:109A6000600AC4ED030A9FED1B7A20EE877AD4EDDD
:109A7000047A37EE277A84ED047AD4ED067A70EE14
:109A8000E77ADFED156A67EEA67AC4ED057AC4EDD4
:109A9000060A94ED000A60EE800AD4ED016A27EE12
:109AA000267A70EE870A94ED027A67EE877A70EE76
:109AB000A77A17EE900AFEF77FFC41EC100B0DF031
:109AC000A1FF51EC100BFEF77FFF6062BEE700BF05
:109AD000740200206F12833AFFFF794438B50025E5
:109AE00010E0642303FB045302330B4A52F82310A3
:109AF0000A480CF0E1F80134032CF2DD08480CF0C0
:109B000077F90135632D05DC294606480CF0D4F8B9
:109B10000024F1E738BD00BF60040020207B01086D
:109B2000707E0108187B0108124B1B78D3B9114BCA
:109B300000225A6070470F494B684FF0640C0CFBD1
:109B40000233023350F8224041F823400132032A05
:109B5000F1DD084A536801335360642B05D05DF88A
:109B6000044B704710B40022F1E7134600221A702C
:109B7000F5E700BF6004002008B5FFF783FDFFF79D
:109B800033FB134809F018FC124809F015FC124881
:109B90000CF02EF9114B01221A7004E00F4B59689A
:109BA0000F480CF089F80D4B1A78002AF6D10848B6
:109BB00009F046FC074809F043FCFFF771FDFFF789
:109BC0002FFB08480CF014F9FFF788FF08BD00BF11
:109BD000F873002090720020287B010860040020A8
:109BE0003C7B0108547B0108C16002700022826046
:109BF0004360704703780BB983607047C36882681D
:109C000003EB820383ED000A8368013383604268BB
:109C1000934200D0704700230370FBE738B5054638
:109C200000240BE0EB6803EB84031868FEF7C4FB29
:109C300002460B4603480CF03FF801346B68A34220
:109C4000F0DC38BD687B0108007870470170704710
:109C5000014B1860704700BF5C040020014B187076
:109C6000704700BF58040020014B1878704700BFB0
:109C7000580400200023002B00DD704700EB830216
:109C8000D2ED007A67EE807AC2ED007A01EB8302B2
:109C9000D2ED007A67EEA07AC2ED007A0133EAE7EE
:109CA00042B90B4B1B6803EB800003680B60036831
:109CB0004B607047064B1B6803EB8000D0ED007AC9
:109CC000F1EE677AC1ED007A03684B60704700BF20
:109CD0005C040020B0F5805F00D07047044A136830
:109CE00001331360012BF8DD134600221A60F4E7FC
:109CF000E810002038B5054600240CE02846FFF7A0
:109D0000DDFC64200AF084FE0020FFF7D7FC64200D
:109D10000AF07EFE0134042CF0DD38BD10B52DEDC7
:109D2000028B9FED101ADFED100AB0EE080AFFF764
:109D30001BFEB0EE408A03210220FFF720FE9FEDBC
:109D40000B1ADFED0B0AB0EE480AFFF722FE0446BD
:109D5000014608480BF0B0FF60B2FFF7CBFFBDEC47
:109D6000028B10BD000080453333534066660641C8
:109D70006666E640987F010808B502220D490E4844
:109D800007F05CFA00210D4809F0E6F802E00C4803
:109D90000BF092FF074B5968C729F8D9064807F01E
:109DA0001BFB0021054809F06FF90720FFF7A2FF10
:109DB00008BD00BF1802002030710020F873002099
:109DC000707B0108F8B52DED028B06460D46144652
:109DD0002A4F002138460AF09FF8042138460AF03D
:109DE0009BF82670264B47F22F525A62254B0022D1
:109DF0001A600EE094F90000FFF760FC204B47F278
:109E00002F525A62DFED207AB4EEE78AF1EE10FAB3
:109E100016D91C4B1B681BBB194B93ED098AB8EE76
:109E2000C88ADFED1A7AB4EEE78AF1EE10FAE9DBC0
:109E3000237801335BB22370AB42DBDD2670D9E7B8
:109E40002378013B5BB22370B34200DA257094F9AA
:109E50000000FFF733FC0A4B47F22F525A62D8E753
:109E60000021084B1960054C20460AF0BBF804217C
:109E700020460AF0B7F8BDEC028BF8BD2073002035
:109E800000040040E810002000BC5446002F354775
:109E9000F0B585B004460D46164605F0BFFD606876
:109EA00003F0E0FDA37903F00703062B38D8DFE8C1
:109EB00003F0043758378C37C000D5ED007A95EDA4
:109EC000037A77EE877AB6EE007A67EE877A9FEDAF
:109ED000997AF4EEC77AF1EE10FACCBF0123002391
:109EE0004FF0000763F3010795ED017ADFED927AF9
:109EF000B4EEE77AF1EE10FACCBF0123002363F34E
:109F000083076FF3051795ED027ADFED8C7AB4EED7
:109F1000E77AF1EE10FACCBF0123002363F3871731
:109F200027726379227904F10801304605F0A4FC18
:109F30002379073BDBB2012B40F2AF8000238DF881
:109F40000C308DF80D3003F027FD002840F0AE8076
:109F50007B4B1B68A21C2146304605F083F905B0F7
:109F6000F0BDD5ED007A95ED037A77EE877AB6EEFF
:109F7000007A67EE877A9FED6F7AF4EEC77AF1EE9A
:109F800010FACCBF012300234FF0000763F38307CF
:109F900095ED017ADFED687AB4EEE77AF1EE10FA2A
:109FA000CCBF0123002363F305176FF3871795EDEB
:109FB000027ADFED627AB4EEE77AF1EE10FACCBF06
:109FC0000123002363F30107AAE7D5ED007A95ED9D
:109FD000037A77EE877AB6EE007A67EE877A9FED9E
:109FE000557AF4EEC77AF1EE10FACCBF01230023C4
:109FF0004FF0000763F3051795ED017ADFED4E7A18
:10A00000B4EEE77AF1EE10FACCBF0123002363F33C
:10A0100087176FF3010795ED027ADFED487AB4EE0A
:10A02000E77AF1EE10FACCBF0123002363F3830734
:10A0300076E7D5ED007A95ED037A77EE877AB6EE7E
:10A04000007A67EE877A9FED3B7AF4EEC77AF1EEFD
:10A0500010FACCBF012300234FF0000763F38717EA
:10A0600095ED017ADFED347AB4EEE77AF1EE10FA8D
:10A07000CCBF0123002363F301076FF3830795ED42
:10A08000027ADFED2E7AB4EEE77AF1EE10FACCBF69
:10A090000123002363F3051742E76379073BDBB233
:10A0A000012B3FF64BAF03F05FFC47E7254B1B88C6
:10A0B000ADF80430638003F081FCA28823889A42C3
:10A0C0001FD1211D304603F0EFFC03F077FC05465D
:10A0D00003F056FC00283FF43BAFB5B1184B01220A
:10A0E0001A6003F071FCADF8080002A803F0CAFC86
:10A0F000ADB1C0B10028F4D0013D284603F058FCB2
:10A10000EFE7013003F054FCDBE70D4B01221A604E
:10A1100003F05AFC2080284603F04AFC18E7BDF8FB
:10A120000830238014E7BDF808302380681E03F050
:10A130003FFC0DE7000048420000B4420000C84266
:10A14000E4700020C07A0108837903F00703062B2E
:10A1500059D8DFE803F0045819582E584300037A01
:10A1600003F00302012A50D003F0CC02442A4ED05F
:10A1700003F00C02042A4CD003F0C003402B01D0A2
:10A180000620704702207047037A03F00C02042A6D
:10A1900041D003F03302112A3FD003F00302012A19
:10A1A0003DD003F03003102B01D006207047032070
:10A1B0007047037A03F03002102A32D003F0CC0249
:10A1C000442A30D003F00C02042A2ED003F0C0033E
:10A1D000402B01D00620704703207047037A03F01C
:10A1E000C002402A23D003F03302112A21D003F009
:10A1F0000302012A1FD003F03003102B01D00620E8
:10A2000070470220704706207047082070470120E1
:10A2100070470320704708207047012070470220D4
:10A2200070470820704701207047022070470820BF
:10A2300070470120704703207047000008B50023D5
:10A240000E4A93600E4A13600E4A13600E4A136062
:10A250000420FFF7D9FB0520FFF7D6FB0020FFF70E
:10A26000D3FB0A4BD3ED027AF5EE407AF1EE10FA09
:10A27000E5D164200AF0CCFB08BD00BFC811002066
:10A2800038110020B4110020441100205411002086
:10A2900000B52DED048B87B0B0EE409AF0EE608AE9
:10A2A00000238B4A13608B4A00219162F3EE0E7AF1
:10A2B00060EE277ADFED886A87EEA67ADFED877A8F
:10A2C00060EEA77A67EEA07A77EE076A87EEA68A35
:10A2D0008DED038A04938DED058A17EE100AFEF7C3
:10A2E0006BF877A3D3E90023FEF7BEF800227C4B7E
:10A2F000FEF7E4F9FEF790FB06EE900A009001905D
:10A300000290F5EEC08AF1EE10FA74DD754BD3EDD4
:10A31000007A76EEA77AC3ED007A02E0724B83ED05
:10A32000008A704B93ED007A704BD3ED007AB4EE57
:10A33000E77AF1EE10FAF1DC6A4BD3ED007A76EEB3
:10A34000A77AC3ED007A02E0674B00221A60654BE2
:10A3500093ED007A654BD3ED007AB4EEE77AF1EE37
:10A3600010FAF1DC5F4BD3ED007A76EEA76AC3ED0D
:10A37000006A5C4B93ED007A5C4BD3ED007AB4EE4F
:10A38000E77AF1EE10FA0CDDF1EE487A564BC3EDA8
:10A39000007A574BD3ED007AF5EEC07AF1EE10FA61
:10A3A000E7D8514B00221A60FFF748FFDFED517AE2
:10A3B000C9EE277A17EE900AFDF7FEFF42A3D3E914
:10A3C0000023FEF751F8FEF7FFFAF5EEC08AF1EE32
:10A3D00010FA61D4F5EEC08AF1EE10FA67DD464B53
:10A3E0001A6800EBD07002EB60021A605A68A2EBA8
:10A3F000600058605BE0F5EEC08AF1EE10FAD0D54F
:10A40000384BD3ED007A77EEE67AC3ED007A04E0BC
:10A41000F1EE487A344BC3ED007A324B93ED007A7B
:10A42000324BD3ED007AB4EEE77AF1EE10FAEFD4C6
:10A430002C4BD3ED007A77EEE67AC3ED007A02E09A
:10A44000294B00221A60274B93ED007A274BD3ED5E
:10A45000007AB4EEE77AF1EE10FAF1D4214BD3EDA5
:10A46000007A77EEE66AC3ED006A1E4B93ED007A40
:10A470001E4BD3ED007AB4EEE77AF1EE10FA90D5E8
:10A48000194B83ED008A1A4BD3ED007AF5EEC07AB2
:10A49000F1EE10FAE9DB84E7174B1A6800EBD07095
:10A4A000A2EB60021A605A6802EB60005860124B1F
:10A4B0009A689A6007B0BDEC048B5DF804FB00BF9E
:10A4C000182D4454FB210940496632CBD615FA4079
:10A4D000B4110020740200200000B4426F12833DCA
:10A4E00000806640B011002044110020401100207F
:10A4F0004C1100200000B44364110020837903F064
:10A500000703062B14D8DFE803F0041308130C1319
:10A510001000007A00F003007047007AC0F3810059
:10A520007047007AC0F301107047007A80097047C5
:10A5300040F2E7307047000038B52DED028B05463C
:10A540000C467B4B01229A627A4A13685268134484
:10A5500008EE103A0846FFF7D1FF01282AD10AE099
:10A560000023754A1360754A1360754A1360754B72
:10A570001A68754B9A60754B93ED007ADFED747A2B
:10A58000B4EEE77AF1EE10FAEAD493ED037ADFED58
:10A59000717AB4EEE77AF1EE10FAE1D41EE000230E
:10A5A000654A1360654A1360654A1360654B1A6813
:10A5B000654B9A60684BD3ED007AB8EEC87A37EEF7
:10A5C000277A5C4A13685268134407EE903AF8EE13
:10A5D000E77AB4EEE77AF1EE10FAE0DC5F4B93ED48
:10A5E000007A534B00229A6207E05B4B9A68544B07
:10A5F0001A60544B1A68544B9A60574BD3ED047A47
:10A6000077EE877A554BD3ED006AF4EEE67AF1EEF9
:10A6100010FAEADC00234A4A1360484A136006E055
:10A62000454B1A681A60474B1A68474B9A604A4B69
:10A63000D3ED057A77EE877A484BD3ED006AF4EED6
:10A64000E67AF1EE10FAEBDC434BD3ED067A77EEC7
:10A65000877A424BD3ED006AF4EEE67AF1EE10FA17
:10A6600016DD3D4BD3ED027AF1EE677A344BC3ED44
:10A67000007A314BD3ED007AF5EEC07AF1EE10FAA4
:10A6800004D4304B1A68304B9A60DDE700221A6020
:10A6900000232B4A1360284A1360264A1368526825
:10A6A000134408EE103A2C4BD3ED017AB8EEC87A79
:10A6B00037EE277A1F4A13685268134407EE903A20
:10A6C000F8EEE77AB4EEE77AF1EE10FA13DD1A4B02
:10A6D00000221A601B4B1A681B4B9A60204B1B68A8
:10A6E000002BE0D12A4619492046FFF7D1FB1C4B2D
:10A6F00001221A60D7E71B4C2068FDF75DFE0AA314
:10A70000D3E90023FDF7FAFCFEF786F92060094B38
:10A710009A68154B9968511A9A680A449A60BDEC78
:10A72000028B38BDAFF30080182D4454FB21F93F54
:10A7300074020020D4110020B41100204811002020
:10A740004411002060110020C81100207011002069
:10A7500000005C430000874394110020401100205A
:10A7600050110020B01100206411002000000000F2
:10A7700038B52DED028B05460C46794B01229A62C5
:10A78000784A13685268134408EE103A0846FFF7F7
:10A79000B5FE012828D10AE00023734A1360734AEA
:10A7A0001360734A1360734B1A68734B9A60734B50
:10A7B00093ED007ADFED727AB4EEE77AF1EE10FAFB
:10A7C000EAD493ED037ADFED6F7AB4EEE77AF1EE37
:10A7D00010FAE1D41CE00023634A1360644A13605A
:10A7E000644B1A68644B9A60674BD3ED007AB8EEFD
:10A7F000C87A37EE277A5B4A13685268134407EE2B
:10A80000903AF8EEE77AB4EEE77AF1EE10FAE2DC8D
:10A81000534B00229A625D4B93ED007A0BE05A4B4A
:10A82000D3ED027AF1EE677A514BC3ED007A514BCA
:10A830001A68514B9A60544BD3ED047A77EE677ADD
:10A84000524BD3ED006AF4EEE67AF1EE10FAE6D45C
:10A850000023474A1360454A136006E0424B1A68DA
:10A860001A60444B1A68444B9A60474BD3ED057A03
:10A8700077EE677A454BD3ED006AF4EEE67AF1EEB7
:10A8800010FAEBD4404BD3ED067A77EE677A3F4B64
:10A89000D3ED006AF4EEE67AF1EE10FA12D53A4BF7
:10A8A0009A68334B1A60304BD3ED007AF5EEC07ADC
:10A8B000F1EE10FA04DC2F4B1A682F4B9A60E1E797
:10A8C00000221A6000232A4A1360274A1360254A8F
:10A8D00013685268134408EE103A2B4BD3ED017AFB
:10A8E000B8EEC87A37EE277A1E4A136852681344C6
:10A8F00007EE903AF8EEE77AB4EEE77AF1EE10FA66
:10A9000013DD194B00221A601A4B1A681A4B9A6011
:10A910001F4B1B68002BE0D12A4618492046FFF741
:10A92000B7FA1B4B01221A60D7E71A4C2068FDF7D3
:10A9300043FD09A3D3E90023FDF7DEFBFEF76CF826
:10A940002060084B9A68144B9968511A9A680A4417
:10A950009A60BDEC028B38BD182D4454FB21F93FA1
:10A9600074020020D4110020B411002048110020EE
:10A970004411002060110020C81100207011002037
:10A9800000005C4300008743941100204011002028
:10A9900050110020B011002064110020594B0122F9
:10A9A0009A62594A13685268134406EE903A0AE0D4
:10A9B0000023564A1360564A1360564A1360564B9A
:10A9C0001A68564B9A60D0ED007AB8EEE67A37EE08
:10A9D000277A4D4A13685268134407EE903AF8EE0E
:10A9E000E77AB4EEE77AF1EE10FAE1DC4C4B93ED46
:10A9F000007A444B00229A6206E08268454B1A6056
:10AA0000454B1A68454B9A60D0ED047A77EE877A09
:10AA1000434BD3ED006AF4EEE67AF1EE10FAECDC8B
:10AA200000233C4A13603A4A136006E0374B1A6829
:10AA30001A60394B1A68394B9A60D0ED057A77EE77
:10AA4000877A374BD3ED006AF4EEE67AF1EE10FA2E
:10AA5000ECDC03E0304B1A68304B9A60D0ED066AAC
:10AA600036EE876A2E4BD3ED007AB4EEE76AF1EE4C
:10AA700010FA10DDD0ED027AF1EE677A254BC3EDC6
:10AA8000007A224BD3ED007AF5EEC07AF1EE10FA9F
:10AA9000E0D500221A6000231E4A13601B4A13608F
:10AAA000194A13685268134406EE103AD0ED017A41
:10AAB000B8EEC67A37EE277A134A13685268134401
:10AAC00007EE903AF8EEE77AB4EEE77AF1EE10FA94
:10AAD00007DD0E4B00221A600F4B1A680F4B9A606D
:10AAE000E4E7104BD3ED007A76EEA76AC3ED006A77
:10AAF000054B9A680C4B9968511A9A680A449A60F7
:10AB0000704700BF74020020D4110020B41100204F
:10AB1000481100204411002060110020C8110020BD
:10AB200040110020B011002064110020584B012278
:10AB30009A62584A13685268134406EE903A08E045
:10AB40000023554A1360554A1360554B1A68554BFC
:10AB50009A60D0ED007AB8EEE67A37EE277A4D4A61
:10AB600013685268134407EE903AF8EEE77AB4EEB1
:10AB7000E77AF1EE10FAE3DC454B00229A624A4B89
:10AB800093ED007A0AE0D0ED027AF1EE677A434B5A
:10AB9000C3ED007A424B1A68424B9A60D0ED047ABA
:10ABA00077EE677A404BD3ED006AF4EEE67AF1EE89
:10ABB00010FAE8D40023394A13603C4A136006E0D7
:10ABC000354B1A681A60364B1A68364B9A60D0EDCE
:10ABD000057A77EE677A344BD3ED006AF4EEE67AC5
:10ABE000F1EE10FAECD403E02D4B1A682D4B9A606D
:10ABF000D0ED066A37EE666A2B4BD3ED007AB4EEE1
:10AC0000E76AF1EE10FA0CD58268244B1A60224BE9
:10AC1000D3ED007AF5EEC07AF1EE10FAE4DD002211
:10AC20001A6000231D4A13601B4A1360194A1368F7
:10AC30005268134406EE103AD0ED017AB8EEC67AA7
:10AC400037EE277A134A13685268134407EE903A96
:10AC5000F8EEE77AB4EEE77AF1EE10FA07DD0E4B84
:10AC600000221A600E4B1A680E4B9A60E4E7104BF4
:10AC7000D3ED007A77EEE66AC3ED006A054B9A6879
:10AC80000C4B9968511A9A680A449A60704700BF41
:10AC900074020020D4110020B411002044110020BF
:10ACA00060110020C8110020401100204811002030
:10ACB000B0110020641100202DE9F8432DED028B26
:10ACC000B0EE608A80468946414B00221A60414BB3
:10ACD000414A1A60DFED417A20EE270AFDEEC07A84
:10ACE00017EE906A3E4B01229A6207E03D4BD3ED8E
:10ACF000027AF4EEC87AF1EE10FA34DC3A4B9B6833
:10AD000033443A4A9268934234DD374B9F68304669
:10AD1000FDF740FB2CA3D3E90023FDF7A5FB044678
:10AD20000D463846FDF736FB22462B46FDF7E6F981
:10AD300004460D462D4B9868FDF72CFB02460B464A
:10AD400020462946FDF702FE0028CFD0284B1B687D
:10AD5000002BCBD1424627494846FFF799F8244BB0
:10AD600001221A60C2E71B4B00221A601D4B83EDC3
:10AD7000028AC3E7174B00221A601B4B9A683244C1
:10AD80009A6093ED007A07EE906AF8EEE77AF6EEB5
:10AD9000006A67EEA67AB8EEC77A37EE277ABDEE7C
:10ADA000C77A83ED007A93ED017AB8EEC77A77EE31
:10ADB000277AFDEEE77AC3ED017ABDEC028BBDE8A0
:10ADC000F88300BFAFF300809A9999999999E93F68
:10ADD000B411002038110020C3F53840552AF7443B
:10ADE00074020020C811002064110020D41100203A
:10ADF0005011002070110020F8B52DED028BB0EE3F
:10AE0000608A534B534A1A60DFED537A20EE270ACB
:10AE1000FDEEC07A17EE906A15E0B5EE408AF1EECD
:10AE200010FA10D04D4BD3ED027AF4EEC87AF1EE61
:10AE300010FA08D883ED028A0023454A1360484A75
:10AE40001360484A1360484BD3ED037A93ED007AC0
:10AE500077EE877A9FED457AF4EEC77AF1EE10FA35
:10AE600042D5434B9B683344424A926893423BDD50
:10AE70003F4B9F683046FDF78DFA33A3D3E900239B
:10AE8000FDF7F2FA04460D463846FDF783FA2246EE
:10AE90002B46FDF733F904460D46364B9868FDF70F
:10AEA00079FA02460B4620462946FDF74FFD10B1C0
:10AEB000314B01229A62B5EE408AF1EE10FAACD124
:10AEC000264B93ED027ADFED2D7AB4EEE77AF1EEC0
:10AED00010FAB8D8C3ED027A00231D4A1360204A45
:10AEE0001360204A1360AEE71C4B83ED028A0023F7
:10AEF000174A13601A4A13601A4A13601C4B9A6867
:10AF000032449A6093ED007A07EE906AF8EEE77AA1
:10AF1000F6EE006A67EEA67AB8EEC77A37EE277AC1
:10AF2000BDEEC77A83ED007A93ED017AB8EEC77A69
:10AF300077EE277AFDEEE77AC3ED017ABDEC028B5E
:10AF4000F8BD00BFAFF30080CDCCCCCCCCCCE43F7F
:10AF500038110020C3F538C0552AF744C811002025
:10AF6000B4110020441100207011002000401C4545
:10AF700064110020D4110020740200200000B442AB
:10AF800007EE900AF8EEE77A9FED1A7A67EE877A75
:10AF9000FDEEE77A17EE902A002A06DC10E0164B49
:10AFA00000211960154B16499960164B9B68134494
:10AFB000154989688B42F2DC12498B6813448B6017
:10AFC000002A0BDB00230D4A93600B4A1360704785
:10AFD000094B00211960094B0C499960094B9B688A
:10AFE0001344094989688B42F2DB06498B681A448D
:10AFF0008A60E7E7552AF74438110020C81100207D
:10B000000000344264110020D4110020000034C23A
:10B0100008B501210020FEF7EFFC6FF01800FFF7E4
:10B02000AFFF00210846FEF7E7FC08BD30B583B04E
:10B03000044600210220FEF7DFFC00210320FEF77A
:10B04000DBFC00210120FEF7D7FC00210846FEF7BB
:10B05000D3FC2046FFF778F805468A4B93E80300B7
:10B0600002AB03E90300A37903F00703062B0ED814
:10B07000DFE803F0040D4E0D8B0DC900237A03F0B9
:10B080000302012A10D003F03003102B2AD07E488F
:10B090002C2303FB05050023AB627C4B00221A60C6
:10B0A0009FED7B0A03B030BD6FF00400FFF768FF2F
:10B0B00001212846FEF7A0FC764BD3ED007A93EDF4
:10B0C000037A77EE877A9FED747AF4EEC77AF1EE21
:10B0D00010FAF1DD9FED717AF4EEC77AF1EE10FA15
:10B0E000EAD5D4E701212846FEF786FCFFF790FF5A
:10B0F000654B2C2202FB05350023AB62634B00221B
:10B100001A60674B1A68674B1A609FED670AC9E7B8
:10B11000237A03F00C02042A19D003F0C003402B59
:10B12000B5D101212846FEF767FCFFF771FF564BAA
:10B130002C2202FB05350023AB62544B00221A601F
:10B14000574B1A68574B1A609FED570AAAE76FF0E2
:10B150000400FFF715FF01212846FEF74DFC4D4B7B
:10B16000D3ED007A93ED037A77EE877A9FED4A7AF2
:10B17000F4EEC77AF1EE10FAF1DD9FED487AF4EEC5
:10B18000C77AF1EE10FAEAD581E7237A03F03002AC
:10B19000102A1AD003F00303012B7FF478AF0121AA
:10B1A0002846FEF729FCFFF733FF374B2C2202FB22
:10B1B00005350023AB62354B00221A60384B1A6804
:10B1C000384B1A609FED380A6CE76FF00400FFF708
:10B1D000D7FE01212846FEF70FFC2E4BD3ED007A57
:10B1E00093ED037A77EE877A9FED2B7AF4EEC77AA8
:10B1F000F1EE10FAF1DD9FED297AF4EEC77AF1EE67
:10B2000010FAEAD543E7237A03F0C002402A1AD0A5
:10B2100003F00C03042B7FF43AAF01212846FEF71C
:10B22000EBFBFFF7F5FE184B2C2202FB0535002344
:10B23000AB62164B00221A60194B1A68194B1A6040
:10B240009FED190A2EE76FF00400FFF799FE012128
:10B250002846FEF7D1FB0F4BD3ED007A93ED037A2E
:10B2600077EE877A9FED0C7AF4EEC77AF1EE10FA5A
:10B27000F1DD9FED0A7AF4EEC77AF1EE10FAEAD525
:10B2800005E700BFC47A010874020020B411002051
:10B2900000003442701100200000614500007A4532
:10B2A000B01100204011002000007642837903F0A5
:10B2B0000703062B31D8DFE803F004300F301A30D3
:10B2C0002500037A03F00C02042A28D003F0C003FF
:10B2D000402B26D006207047037A03F00302012A90
:10B2E00021D003F03003102B1FD006207047037AC3
:10B2F00003F00C02042A1AD003F0C003402B18D02C
:10B3000006207047037A03F00302012A13D003F0EA
:10B310003003102B11D00620704706207047032001
:10B3200070470220704702207047032070470220B8
:10B3300070470320704703207047022070470000C9
:10B340002DE9F04F83B001919246914B01229A6210
:10B35000DFED907A60EE277A90421AD0FDEEE77A20
:10B3600017EE904AB0F1FF3F1AD09AF8073003F079
:10B370000703032B70D0052B00F0D080042B00F0C6
:10B38000CF805046FEF7E0FE0546062865D1002531
:10B3900063E0814B1A7051460198FFF78DFCECE099
:10B3A0007D4B00221A70F6EE087A20EE270AFFF78E
:10B3B00023FD7A4BD3ED027A07EE104AB8EEC76A46
:10B3C000B5EE007A26EE077AF8EEE77A77EE877A1E
:10B3D000734BD3ED026AF8EEE66AF4EEE67AF1EE2C
:10B3E00010FA0CDD6F4B1B68002BE2D1019A6E49FD
:10B3F0005046FEF74DFD6B4B01221A60D9E7674BB3
:10B40000D3ED027AF8EEE77A37EE877ABDEEC77AA7
:10B4100083ED027AD3ED007AB4EE007A26EE076A65
:10B42000F8EEE77A77EE867AFDEEE77AC3ED007AFA
:10B43000D3ED017AF8EEE77A37EE866ABDEEC66A9A
:10B4400083ED016A99E0524B00229A622C2202FBA2
:10B45000053301229A6233E00025504B9B68234458
:10B460004F4A926893425DDD4C4BD3F808B02046BA
:10B47000FCF790FF06460F4641A3D3E90023FCF7F3
:10B48000F3FF804689465846FCF784FF42464B4608
:10B49000FCF734FE80468946414B9868FCF77AFFFA
:10B4A00002460B4640464946FDF750FA0028CAD0EE
:10B4B000374B01229A622C2202FB053300229A624A
:10B4C000364BD3F8088030A3D3E900233046394601
:10B4D000FCF7CAFF06460F464046FCF75BFF3246C4
:10B4E0003B46FCF70BFE06460F462D4B9868FCF7D3
:10B4F00051FF02460B4630463946FDF727FA002831
:10B50000ABD0284B1B68002BA7D1019A2649504687
:10B51000FEF7BEFC234B01221A609EE700259CE744
:10B5200000259AE71A4B01229A622C2000FB053372
:10B5300000229A621D4B00221A60184B9A6822441E
:10B540009A6093ED007A07EE904AF8EEE77AF6EE0D
:10B55000006A67EEA67AB8EEC77A37EE277ABDEEB4
:10B56000C77A83ED007A93ED017AB8EEC77A77EE69
:10B57000277AFDEEE77AC3ED017A03B0BDE8F08FDC
:10B580009A9999999999D93F9A9999999999E93F4D
:10B5900074020020552AF744E411002064110020B1
:10B5A000D41100205011002070110020381100200B
:10B5B00070B52DED028B0D46144653282CD054281F
:10B5C00027D19FED188ADFED180AB0EE480AFFF781
:10B5D00013FCFEF733FEFEF763F8144E0023B3624C
:10B5E000DFED130A9FED130AFEF752FEA379023333
:10B5F000A371FEF747F8642009F00AFA0123B36249
:10B60000214628460C4BD3ED000AB0EE480AFFF75E
:10B6100053FBBDEC028B70BD11462846FEF78CFF34
:10B62000F7E700BF00003442000000007402002071
:10B63000DB0FC9400000B4426011002070B52DED51
:10B64000028B0D46144653282CD0542827D19FED49
:10B65000188ADFED180AB0EE480AFFF7CDFBFEF7B7
:10B66000EDFDFEF71DF8144E0023B362DFED130A63
:10B670009FED130AFEF70CFEA379023BA371FEF7C0
:10B6800001F8642009F0C4F90123B3622146284679
:10B690000C4BD3ED000AB0EE480AFFF70DFBBDECF2
:10B6A000028B70BD11462846FFF762F8F7E700BF2E
:10B6B000000034420000000074020020DB0FC9C00B
:10B6C0000000B4426011002038B52DED028B054614
:10B6D0000C46DFED610A9FED610AFFF78DFB204606
:10B6E000FFF7A4FCFEF7AAFD2046FFF7DFFD0228C6
:10B6F00034D003285CD0062800F084802046FFF771
:10B7000095FCB0EE408ADFED567AB4EEE70AF1EE32
:10B7100010FA07DBDFED537AB4EEE70AF1EE10FA28
:10B7200040F283800120FDF7C9FFFEF787FD284620
:10B7300004F0B8F9214628464B4BD3ED000AB0EE91
:10B74000480AFFF7B9FAA37903F00703062B73D869
:10B75000DFE803F06F72757279727D00DFED438A66
:10B760009FED438AF0EE680AB0EE480AFEF790FDBE
:10B77000A379023B5A4203F0070302F0070258BFC5
:10B780005342A3712046FFF751FCFEF757FDF0EE40
:10B79000680AB0EE480AFEF77BFDA379023B5A42E5
:10B7A00003F0070302F0070258BF5342A371A5E755
:10B7B000DFED308A9FED2E8AF0EE680AB0EE480A7F
:10B7C000FEF766FDA37902335A4203F0070302F045
:10B7D000070258BF5342A3712046FFF727FCFEF72C
:10B7E0002DFDF0EE680AB0EE480AFEF751FDA37990
:10B7F00002335A4203F0070302F0070258BF5342D4
:10B80000A3717BE7DFED1B0A9FED1B0AFEF740FDEE
:10B81000A37902335A4203F0070302F0070258BF2C
:10B820005342A371FEF70AFD68E70720FDF746FFC4
:10B830007BE7637901336371BDEC028B38BD2379FB
:10B8400001332371F8E76379013B6371F4E72379EE
:10B85000013B2371F0E700BF00000000000034420C
:10B86000000032420000364260110020DB0FC9C0E8
:10B870000000B442DB0FC94000003443F8B5054670
:10B880000C461646604B00211960E37903F007036C
:10B89000062B2AD8DFE803F004294852619EAD0048
:10B8A000A269A17C04F0C8FA60B3584B1B78EBB1D5
:10B8B000574BD3ED007AB7EE087A67EE877A524B92
:10B8C000C3ED007A0020534B1A68534B1A60504B5B
:10B8D000D3ED000A4C4BD3ED007A2246294670EE98
:10B8E000A70A9FED4E0AFFF72BFDF8BD484BD3ED9D
:10B8F000007AB7EE087A67EE877A434BC3ED007A99
:10B900000120E0E7414B1B784BB1454A13680233F5
:10B9100013603D4B00221A604FF0FF30D3E73A4BE3
:10B9200000221A600020CEE73A4B1A683A4B1A60A0
:10B93000224601463046FFF73BFED6E7364F01234D
:10B940003B602146FFF7C0FE324B1B683B6022463E
:10B9500029463046FFF72CFEC7E72F4B01221A601D
:10B960002146FFF7B1FEA269A17C284604F064FAE3
:10B97000F0B1264B1B78B3B1234B2A4A1A60002042
:10B98000244B1A68244B1A60214BD3ED000A1E4B3E
:10B99000D3ED007A2246294670EEA70A9FED1F0AD2
:10B9A000FFF7CEFCA1E7184B1E4A1A600120E7E71B
:10B9B000164B1B784BB11C4A136802331360124BB1
:10B9C00000221A604FF0FF30DAE70F4B00221A60B6
:10B9D0000020D5E7104F01233B602146FFF774FE9E
:10B9E0000C4B1B683B60224629463046FFF726FE7B
:10B9F0007BE7084B1A68084B1A602246014630461E
:10BA0000FFF71CFE71E700BF3C110020E41100208D
:10BA10006011002090110020501100200000B4425D
:10BA2000040000200000754300000020000000001A
:10BA300070B52DED028BB44A516A47F22F53591A53
:10BA4000B24C21605362B248426A9A1A6260436201
:10BA500007EE901AB8EEE77ADFEDAE6A27EE267AA7
:10BA6000AD4B83ED007A07EE902AF8EEE77A67EEA9
:10BA7000A67AC3ED017AD3ED007A93ED017A77EEE1
:10BA8000877AB6EE007A67EE877AC3ED027AA34B27
:10BA900018680144196059680A445A601A6859685C
:10BAA0000A449A609E499F48FDF7D6FC9E4B9B6ACC
:10BAB000012B00F08B809C4B5B6D012B00F097807D
:10BAC000994BD3F88030012B00F0B080964BD3F81F
:10BAD000AC30012B00F0C580934BD3F88831012B9B
:10BAE00000F0DA80914B93ED007A914CD4ED027A1C
:10BAF00077EE877AC4ED027A8E4B93ED007A8E4B07
:10BB0000D3ED007A77EE877AC3ED007AD4ED026A3E
:10BB100093ED007A9FED896A27EE067AF6EE007AB9
:10BB200027EE277A36EEC77A84ED017AD3ED007AD4
:10BB300067EE867A94ED017A77EE877AC4ED007A23
:10BB40009FED7F1ADFED7F0AB0EE080A7E4B986802
:10BB5000FDF70AFF10EE100AFCF72EFC02460B461A
:10BB600065A1D1E90001FCF7A9FDFCF755FF08EE3E
:10BB7000100A94ED000A684ED6ED000A0420FDF785
:10BB800053FF07EE900AF8EEE77A67EE887A6F4D7A
:10BB9000FDEEE77AC5ED007A94ED010AD6ED010AD3
:10BBA0000520FDF741FF07EE900AF8EEE77A67EE11
:10BBB000887AFDEEE77A17EE901A654BC3ED007AAE
:10BBC0002868FDF755FEBDEC028B70BD614B93ED0F
:10BBD000000A534BD3ED000A0020FDF725FF07EEC6
:10BBE000900AF8EEE77A544BC3ED007A7AE75A4BA5
:10BBF000D3ED010A594AD2ED007A70EEA70A93ED0F
:10BC0000020A0120FDF710FF07EE900AF8EEE77A2E
:10BC100017EE900AFCF7D0FB39A3D3E90023FCF719
:10BC200023FCFCF7F9FE444B18605BE74C4BD3ED6B
:10BC3000020A494B93ED020A0220FDF7F5FE07EEDA
:10BC4000900AF8EEE77A17EE900AFCF7B5FB2CA302
:10BC5000D3E90023FCF708FCFCF7DEFE364B186046
:10BC600040E73F4B93ED010A3B4BD3ED010A032024
:10BC7000FDF7DAFE07EE900AF8EEE77A17EE900A83
:10BC8000FCF79AFB1EA3D3E90023FCF7EDFBFCF7BE
:10BC9000C3FE294B186025E72F4BD3ED030AD3EDE4
:10BCA000007A70EEA70A9FED2F0A0820FDF7BCFE70
:10BCB00007EE900AF8EEE77A17EE900AFCF77CFBA5
:10BCC0000FA3D3E90023FCF7CFFBFCF7A5FE184B2D
:10BCD0009860204B93ED000A114BD3ED000A002031
:10BCE000FDF7A2FE07EE900AF8EEE77A124BC3EDDD
:10BCF000007AF7E6AFF30080CDCCCCCCCCCC2040A2
:10BD0000FCA9F1D24D62503F000400408411002094
:10BD100000080040CD77813F54110020D41100204D
:10BD2000401100204C110020740200203811002026
:10BD3000C811002044110020B41100209A99094232
:10BD400000008045333353400C020020E0110020F6
:10BD5000E8110020B0110020701100208011002097
:10BD6000B811002000806D45F8B5454A516A47F288
:10BD70002F53591A434C216053624348426A9A1A1E
:10BD80006260436207EE901AB8EEE77ADFED3F6A31
:10BD900027EE267A3E4C84ED007A07EE902AF8EEE4
:10BDA000E77A67EEA67AC4ED017AD4ED007A94EDD5
:10BDB000017A77EE877AB6EE007A67EE877AC4ED7D
:10BDC000027A344B18680144196059680A445A6071
:10BDD0001A6859680A449A602F4D30492846FDF781
:10BDE0003BFB2F4B93ED000AD5ED000A0020FDF739
:10BDF0001BFE05462B4F97ED020AD4ED000A0420E6
:10BE0000FDF712FE284E306097ED020AD4ED010ACC
:10BE10000520FDF709FE254C20609FED251ADFED7A
:10BE2000250AB0EE080A244B9868FDF79DFDF7EE51
:10BE3000007A87EE807A3368EB1807EE903AF8EED6
:10BE4000E77ADFED1E6A67EEA67A67EE877AFDEE87
:10BE5000E77A17EE900AC6ED007A23685B1B07EEBF
:10BE6000903AF8EEE77A67EEA67A67EE877AFDEE0B
:10BE7000E77A17EE901AC4ED007AFDF7F9FCF8BDE9
:10BE8000000400408411002000080040CD77813F6D
:10BE900054110020D41100204C110020401100202A
:10BEA000B4110020C8110020E0110020E81100208A
:10BEB00000008045333353400C0200200000524400
:10BEC00030B52DED028B85B0574A516A47F22F539A
:10BED000591A564C216053625548426A9A1A626058
:10BEE000436207EE901AB8EEE77ADFED526A27EE6A
:10BEF000267A514C84ED007A07EE902AF8EEE77A24
:10BF000067EEA67AC4ED017AD4ED007A94ED017A59
:10BF100077EE877AB6EE007A67EE877AC4ED027A1A
:10BF2000464B18680144196059680A445A601A68F7
:10BF300059680A449A60424D42492846FDF78CFAF6
:10BF4000A36802932B680393002300930193FDF7EA
:10BF50008BFE04469FED3C1ADFED3C0AB0EE080A6A
:10BF60003B4B9868FDF700FDDFED3A7A87EE808A5B
:10BF7000394800EB0410FDF767FE00284CD0374B22
:10BF80001A68374981FB0231D317C3EBE10303EB96
:10BF90008303B2EB830F14D0304B1A68304981FB16
:10BFA0000231D317C3EB211303EB8303B2EBC30FAF
:10BFB00012D02A4A13680133136005B0BDEC028B1E
:10BFC00030BD04AB03EB840313ED020A224800EBFF
:10BFD0000410FDF70FFEDFE7224D22466946286870
:10BFE000FDF75EFEDDED007A68EE277ACDED007A92
:10BFF0009DED017A28EE078A8DED018ABDEEC87AA3
:10C0000017EE101AFDEEE77A17EE900AFDF730FCF6
:10C010002B6801332B60CCE700210846FDF728FC94
:10C020000E4B00221A60C8E7000400408411002073
:10C0300000080040CD77813F54110020D41100202A
:10C040004C11002040110020000080453333534044
:10C050000C02002000005244F8100020F0100020D4
:10C060006766666618110020F8B52DED028B6A4AE6
:10C07000516A47F22F53591A684C2160536268483D
:10C08000426A9A1A6260436207EE901AB8EEE77A43
:10C09000DFED646A27EE267A634D85ED007A07EEC0
:10C0A000902AF8EEE77A67EEA67AC5ED017AD5ED2B
:10C0B000007A95ED017A77EE877AF6EE008A67EEE0
:10C0C000A87AC5ED027A594B18680144196059687D
:10C0D0000A445A601A6859680A449A60382137201D
:10C0E000FDF742F9524B83ED000A93ED008A514B64
:10C0F000D3ED007A38EE678A4F4BD3ED007A28EE05
:10C10000278A18EE100AFCF757F93FA3D3E900235A
:10C11000FCF7AAF906460F46484C2068FCF74CF994
:10C120003BA3D3E90023FCF79FF902460B463046B8
:10C130003946FBF7E3FFFCF76FFC07EE900AF1EEE0
:10C14000677A3F4BC3ED007A84ED008AD3ED007A25
:10C150009FED3C7A27EE877A3B4BD3ED007A77EE62
:10C16000877AC3ED007A394BD3ED007A384A92EDE5
:10C17000007A77EE877AC3ED007A364A92ED007A3C
:10C18000354CD4ED027A77EE877AC4ED027A93EDDE
:10C19000007A324BD3ED007A77EE877AC3ED007ADE
:10C1A000D4ED026A93ED007A9FED2D6A27EE067AB0
:10C1B00027EE287A36EEC77A84ED017AD3ED007A3D
:10C1C00067EE867A94ED017A77EE877AC4ED007A8D
:10C1D00094ED000AD5ED000A0420FDF725FC214E60
:10C1E000306094ED010AD5ED010A0520FDF71CFC35
:10C1F00001461D4B18603068FDF73AFBBDEC028B21
:10C20000F8BD00BFAFF300807B14AE47E17A843FF6
:10C21000AE47E17A14AEEF3F0004004084110020E5
:10C2200000080040CD77813F54110020D411002038
:10C230002402002030020020147B01083411002069
:10C240004C1100206F12833A40110020441100204D
:10C250004811002038110020C8110020B41100201E
:10C260009A990942E0110020E811002070B584B0CD
:10C270000446334B984204D0324B9C4235D004B034
:10C2800070BD314B1B68052BF6D801A252F823F084
:10C29000A9C20008AFC20008B5C20008DFC200088A
:10C2A00079C20008E5C20008FFF7C2FBE4E7FFF728
:10C2B000DBFEE1E7254B1A6841F287339A4203DD42
:10C2C000234B00221A60D7E722492348FDF7C4F820
:10C2D0001E4A13681E4909680B441360CCE7FFF738
:10C2E000EFFDC9E7FFF740FDC6E71C4C00222168BF
:10C2F0000A20FDF7FBFA1A4E86ED000A012261685A
:10C300000A20FDF7F3FA86ED010A164D022229688C
:10C310000A20FDF7EBFA86ED020A032269680A207B
:10C32000FDF7E4FA86ED030A2B6800932368019376
:10C330006B680293636803936846FDF7F5FB9EE71D
:10C3400090720020F8730020EC10002030110020C3
:10C350002C110020401100204C1100200C02002064
:10C36000701100201802002010B50138032812D8DF
:10C37000DFE800F0024A5C6E434A444B1A60444BCB
:10C3800044491960444959604449996044491961D4
:10C39000444959619A613E4C2068FCF70DF836A378
:10C3A000D3E90023FCF760F8FCF736FB20606068F7
:10C3B000FCF702F830A3D3E90023FCF755F8FCF7AB
:10C3C0002BFB60602069FBF7F7FF2DA3D3E9002367
:10C3D000FCF74AF8FCF720FB20616069FBF7ECFFF3
:10C3E00027A3D3E90023FCF73FF8FCF715FB6061B6
:10C3F000A069FBF7E1FF22A3D3E90023FCF734F89F
:10C40000FCF70AFBA06110BD204B274A1A60204BA5
:10C410004FF083421A60254A5A60254A9A60204AA2
:10C420001A61204A5A61184A9A61B4E7174B214AA7
:10C430001A60174B4FF082421A601C4A5A601E4A1B
:10C440009A60174A1A61174A5A610F4A9A61A2E71D
:10C450000E4B1A4A1A600E4B194A1A60194A5A6052
:10C46000194A9A600E4A1A610E4A5A61064A9A613E
:10C4700091E700BFAFF30080540D8F9F4AE59E40C7
:10C48000399D52A246DF913F0000B4426011002066
:10C4900094110020000010410000A0414260653C62
:10C4A0000000F041000070420000344300004041B1
:10C4B000C520303D0000704377BE9F3D000096438D
:10C4C000000040400000A040B29DEF3D08B5FDF7E0
:10C4D00079F80146164809F0EFFBFDF773F80146BD
:10C4E000144809F0E9FB642008F092FA382137205B
:10C4F000FCF73AFF104B83ED000A1868FBF75CFF6E
:10C5000002460B460D4809F0D7FBFDF785F9FDF70C
:10C510009DF8FDF7B7F8FCF767FE47F22F51084882
:10C52000FDF7E2F947F22F510648FDF7DDF908BDA6
:10C53000807B0108A87B010824020020D07B010831
:10C54000240400402408004008B50420FDF75CFAEC
:10C550000520FDF759FA0020FDF756FA0220FDF7F5
:10C5600053FA0320FDF750FA0120FDF74DFA08BDFC
:10C5700010B5044601460420FDF73EFA2146052089
:10C58000FDF73AFA21460220FDF736FA214603204C
:10C59000FDF732FA21460120FDF72EFA2146002050
:10C5A000FDF72AFA10BD000008B547F22F510748E1
:10C5B000FDF79AF947F22F510548FDF795F9054B1C
:10C5C00000229A601A605A6008BD00BF240400402F
:10C5D00024080040D411002008B5FFF7E5FF0C4AFD
:10C5E00000239360136053600A4A13600A4A136081
:10C5F0000A4A13600A4A13600A4A13600A4B0B4A3C
:10C600009A600B4A5A600B4B0B4A1A6008BD00BF78
:10C61000C8110020B411002038110020441100205E
:10C62000B011002040110020B81100200000B943D3
:10C63000000096438011002000008C4208B5FFF7EF
:10C6400045FF074806F0B8FE064806F0B5FE002094
:10C65000FFF78EFFFFF778FFFFF7BEFF08BD00BFB3
:10C6600090720020F8730020F8B52DED028B04467F
:10C67000B0EE608A11EE107A11EE906A12EE105A46
:10C68000F0EE628A70EE007A17EE900AFBF794FEE5
:10C6900031A3D3E90023FCF711F8FCF7BDF92060C2
:10C6A00078EE087A17EE900AFBF786FE2AA3D3E904
:10C6B0000023FCF703F8FCF7AFF960603846FBF79E
:10C6C0007BFE21A3D3E90023FBF7CEFE0022204B03
:10C6D000FBF7F4FFFCF7A0F920613046FBF76CFE96
:10C6E00019A3D3E90023FBF7BFFE0022184BFBF789
:10C6F000E5FFFCF791F960612846FBF75DFE12A3A8
:10C70000D3E90023FBF7B0FE0022114BFBF7D6FF65
:10C71000FCF782F9A061DFED0F7A68EEA77A17EED9
:10C72000900AFBF749FE08A3D3E90023FBF79CFE20
:10C730000022074BFBF7C2FFFCF76EF9A060BDECCF
:10C74000028BF8BDAFF30080182D4454FB21094043
:10C75000008066406F12833A6626CA236892503F73
:10C7600000B1704708B52DED068BDFED3F8A9FEDD8
:10C770003F8AF0EE682AB0EE482AF3EE0E1AB2EEC7
:10C780000E1AF3EE060AB1EE000A3948FFF76CFF05
:10C79000F0EE682AB0EE482AF3EE0E1AB2EE0E1A48
:10C7A000F1EE000AB3EE060A3248FFF75DFF9FED97
:10C7B000329A9FED328ADFED328ADFED322AB0EE17
:10C7C000492AF0EE481AB3EE0E1AF0EE080AB0EE5F
:10C7D000680A2D48FFF748FFDFED2C2A9FED2C2A31
:10C7E000DFED2C1AB0EE481AF0EE680AB0EE680AD7
:10C7F0002948FFF739FFDFED29AA9FED29AADFEDD0
:10C80000299ADFED298AF0EE6A2AB0EE4A2AF0EE84
:10C81000691AB0EE681AF2EE080AB2EE0E0A234860
:10C82000FFF722FFF0EE6A2AB0EE4A2AF0EE691A0C
:10C83000B0EE681AF2EE0E0AB2EE080A1C48FFF7D4
:10C8400013FFDFED1C2AB0EE492AF0EE481AB3EED2
:10C850000E1AF3EE000AB0EE600A1748FFF704FF65
:10C86000BDEC068B08BD00BF00E02B450000344244
:10C87000401200205C1200200000B4420000704210
:10C880000000000000A0B944781200200028D24423
:10C89000000034430000F0422412002000C028456C
:10C8A0000000074300008C4200008242EC1100208F
:10C8B000081200200080A24594120020F0B583B039
:10C8C000044610EE106A002501950123002201A9FB
:10C8D000FDF78AF9FFF780FE244FBD600025244B49
:10C8E0001D60244B1D60FFF7F1FD2846FFF740FE59
:10C8F000FFF72AFE01210420FDF77EF80121052023
:10C90000FDF77AF81C4B1D601C4806F055FD07200A
:10C91000FDF7F0F9BE6001212046FDF797F954219B
:10C920000846FCF7A5FF2046FDF78EF90028FAD14E
:10C930000E4B00229A6000210846FCF799FFFCF795
:10C9400081FFFCF791FE0020FFF712FE0B4806F076
:10C9500077FD42F2107008F05BF80720FDF7CAF986
:10C960002046FDF75BF903B0F0BD00BFC811002001
:10C97000E8110020E0110020EC100020907200204F
:10C9800070B584B00546FDF769F900220292039262
:10C990002E4E06EB0516022302A93046FDF724F9B8
:10C9A0004FF07E5301930093002D47D0002D49D1C5
:10C9B0009FED270AF0EE400A694601A8FDF75AF9F3
:10C9C000244B03221A60FFF707FEFFF77FFDFCF7F9
:10C9D00067FE0020FFF7CCFDFFF7B6FD1E4806F00E
:10C9E000EBFC0720FDF786F9184C04EB0514012138
:10C9F0002046FDF72BF92046FDF726F90028FAD14D
:10CA000000210846FCF734FFFCF71CFFFCF72CFE66
:10CA10000020FFF7ADFD104806F012FD42F2107045
:10CA200007F0F6FF0720FDF765F90C4809F0E0F97B
:10CA30003046FDF7F3F8012004B070BD01A8FDF702
:10CA400007F9B3E76846FDF703F9B1E7F8100020EE
:10CA5000CDCC0C3FEC10002090720020707E0108BD
:10CA600000B583B000208DF807000DF10702072103
:10CA7000FDF7A8F99DF90700FDF73CF99DF907308E
:10CA8000013B032B10D8DFE803F00212181C4FF40F
:10CA9000FA6007F0BDFF9DF90700FCF70FFEFDF7F8
:10CAA0006BF80020FCF70AFE03B05DF804FB9FED75
:10CAB000070A0748FFF702FFF6E70120FFF760FFCC
:10CAC000F2E70020FFF75CFFEEE700BF0000000088
:10CAD0001C11002030B583B00546012414E0344811
:10CAE00009F086F9002003B030BD324809F080F922
:10CAF0003EE02F4809F07CF9F4E72F4809F078F977
:10CB00002E4809F075F90024002C4ED068B2FDF7CC
:10CB1000F1F82B4809F06CF900208DF805000DF1B3
:10CB200005020721FDF74EF99DF905000028EBD01D
:10CB30000728D4D0FCF7C2FD224809F059F9224851
:10CB400009F056F900208DF806000DF106020321C8
:10CB5000FDF738F99DF90600FDF7CCF89DF9063090
:10CB6000002BD1D0012B03D0022BBED0032BC0D081
:10CB7000164809F03DF900208DF807000DF1070275
:10CB80000321FDF71FF99DF90730002BBCD0012BC5
:10CB9000B3D0022B05D0032BA4D00D4809F028F9FF
:10CBA000B2E70C4809F024F9AAE701209BE700BF8F
:10CBB000007C0108947C0108507D0108607B01081D
:10CBC000DC7B0108207C01084C7C0108A87C010862
:10CBD0007C7D0108587D0108F0B52DED048B8BB0EC
:10CBE00005243F4B1C60FFF729FD9FED3E1ADFED4A
:10CBF0003E0A9FED3E0A0020FCF7F0FE9FED3C9AB6
:10CC0000DFED3C8A9FED3C8AB0EE491AF0EE680AEF
:10CC1000B0EE480A0420FCF7E1FEB0EE491AF0EE4F
:10CC2000680AB0EE480A2046FCF7D8FE012104202D
:10CC3000FCF7E2FE01212046FCF7DEFE0121002088
:10CC4000FCF7DAFE00210120FCF7D6FE00210220CD
:10CC5000FCF7D2FE00210320FCF7CEFE274B00227A
:10CC60001A602046FCF72AFD254B264A9A60264B7F
:10CC700000221A60254BD3ED007A93ED038A77EEFC
:10CC8000888A9E685F6817EE900AFBF795FB04465A
:10CC90000D4611A3D3E90023CDE908233846FBF75D
:10CCA0008BFBCDE906013046FBF786FBCDE904019D
:10CCB00018EE900AFBF780FBCDE9020118EE100A8E
:10CCC000FBF77AFBCDE9000122462B46104808F01D
:10CCD000F3FFC9E7AFF3008000000060B81E2540F5
:10CCE000EC10002085D99F3838C45940F740CE3D1C
:10CCF00069E62D3874EAFA3EE59C583C6011002044
:10CD0000C811002000007043B411002070110020F1
:10CD1000847D0108F8B5254F01253D60244E00248F
:10CD20003460FFF78BFC29460420FCF765FE29469A
:10CD30000520FCF761FE21462846FCF75DFE2146F2
:10CD40000220FCF759FE21460320FCF755FE3C600B
:10CD500029462046FCF750FE164B00221A60072099
:10CD6000FCF7ACFC3560B2EE043ADFED132ABEEE00
:10CD7000002AF6EE001A9FED111AF2EE000AB0EE4C
:10CD8000610A00F0E3F8346003E00133B3F5167F85
:10CD9000FBDB00210846FCF72FFE094B00229A60BE
:10CDA00041F2883007F034FE0023EFE7EC1000205A
:10CDB000F41000206011002000007A450000B44209
:10CDC000C811002010B5244B02221A60FCF7FAFBB0
:10CDD0000146224C204608F06FFFFCF7F3FB0146AA
:10CDE000204608F069FF642007F012FE3821372042
:10CDF000FCF7BAFA1A4B83ED000A1868FBF7DCFA65
:10CE000002460B46174808F057FF0024164B1C60DB
:10CE1000164B01221A60164B1868FBF7CDFA024632
:10CE20000B462146134808F047FF134806F0C4FAA2
:10CE300002E0124808F0DCFF0C4B1B68012BF8D015
:10CE40000A4B00221A600C4806F0FAFA4FF47A7086
:10CE500007F0DEFDFEE700BFEC100020C47D0108F6
:10CE600024020020D07B0108301100202C1100206A
:10CE700040110020E07D010890720020707E0108C2
:10CE8000F8B50646144B1C6800270CE007EB471367
:10CE90002B4416F833102046FCF7F2F90434013520
:10CEA000202DF3DD01371F2F01DC0025F8E70027D7
:10CEB0000DE005EB471303F5846316F833102046A5
:10CEC000FCF7DEF9043401351F2DF2DD0137202F88
:10CED00001DC0025F8E7F8BD107B0108F0B583B050
:10CEE0000646194B1C68002710E00023019301A996
:10CEF0002046FCF7E9F907EB47132B44019A06F8A3
:10CF0000332004340135202DEFDD01371F2F01DCE4
:10CF10000025F8E7002711E00023019301A920462E
:10CF2000FCF7D2F905EB471303F58463019A06F881
:10CF30003320043401351F2DEEDD0137202F01DCB5
:10CF40000025F8E703B0F0BD107B010870B52DEDAA
:10CF5000068BB0EE40AAF0EE609AF0EE418A11EE38
:10CF6000906A12EE105AB0EE629AB0EE438A60EE0A
:10CF7000017A67EEA07A7E4B00221A609FED7D7ADF
:10CF800067EE877AFDEEE77A17EE904A18E07A4B63
:10CF90001E6027E00133794A136000210120FCF76D
:10CFA0002BFD00210320FCF727FD00210220FCF7C8
:10CFB00023FD01210020FCF71FFD0020FCF77EFB74
:10CFC0006F4B9A686F4B9B6823449A423DDA6E4BD5
:10CFD000D3ED027AF4EEC97AF1EE10FAD7DB664BA4
:10CFE00000221A60664B9968664B9A68DFED677A93
:10CFF00068EEA77A9FED5F7A67EE877AFDEEE77AB3
:10D000005E4B1B6817EE900A03FB00229142C1DBC6
:10D010005B4A91685B4A92685D4800FB032291423B
:10D02000B8DC01210020FCF7E7FC00210320FCF71D
:10D03000E3FC00210220FCF7DFFC00210120FCF7CB
:10D04000DBFC0220FCF73AFBBAE700210120FCF7E9
:10D05000D3FC00210320FCF7CFFC00210220FCF7C9
:10D06000CBFC01210020FCF7C7FC0020FCF726FBCD
:10D07000424B00221A60404B00221A60414B9A68D2
:10D0800022449A6093ED007A07EE904AF8EEE77A30
:10D09000F6EE006A67EEA67AB8EEC77A37EE277A20
:10D0A000BDEEC77A83ED007A93ED017AB8EEC77AC8
:10D0B00077EE277AFDEEE77AC3ED017AF7EE007A94
:10D0C00077EECA7A67EEA87A67EEA97A9FED297A99
:10D0D00067EE877AFDEEE77A17EE902A01E0264B9D
:10D0E0001D602C4BD3ED037A93ED007A77EE877AAF
:10D0F0009FED297AF4EEC77AF1EE10FA12D5214BA2
:10D100009B6813441E4989688B420BDD1E4BD3ED8F
:10D11000027AF4EEC87AF1EE10FAE0D8164B00214C
:10D120001960DEE7144B00211960164B9968114411
:10D13000996093ED007A07EE902AF8EEE77AF6EE22
:10D14000006A67EEA67AB8EEC77A37EE277ABDEEA8
:10D15000C77A83ED007A93ED017AB8EEC77A77EE5D
:10D16000277AFDEEE77AC3ED017ABDEC068B70BD40
:10D17000B4110020552AF74438110020D054002063
:10D18000D411002064110020C81100203333733FF4
:10D19000E9D902007011002000806D4500000000F8
:10D1A00070B52DED028B0546DF4B93ED008A002014
:10D1B000FCF784FA002431E001210020FCF71CFC7C
:10D1C00000210320FCF718FC00210220FCF714FCCE
:10D1D00000210120FCF710FCD34BD3ED002AB0EE68
:10D1E000623A9FEDD22ADFEDD21A9FEDD21ADFED1F
:10D1F000D20AB7EE000AFFF7A9FE00210846FCF7A5
:10D20000FBFB00210320FCF7F7FB00210220FCF7C9
:10D21000F3FB00210120FCF7EFFB0134AC4200F3EB
:10D220000582C64B03EB04131B7B132BF5D801A21D
:10D2300052F823F0B9D100081BD20008B3D300087C
:10D24000A3D200081BD200081BD20008B7D30008E5
:10D25000DFD3000807D400082FD4000857D40008F3
:10D260007FD40008A7D40008F7D400088DD50008A3
:10D27000DDD50008CFD4000865D50008B5D5000875
:10D2800005D600089FEDAE8A0136AC4B03EB0613C2
:10D290001B7B032B07D1AE42F4D0A34B93ED008A46
:10D2A000F2E72646F1E7331B08EE903AF8EEE88AFB
:10D2B00064B918EE900AFBF77FF899A3D3E900232D
:10D2C000FAF71CFFFBF7A8FB08EE900A01210020EB
:10D2D000FCF792FB00210320FCF78EFB00210220CB
:10D2E000FCF78AFB00210120FCF786FBB0EE483AF0
:10D2F000DFED942A9FED8D2ADFED8D1A9FED8D1ABB
:10D30000F0EE680AB6EE000AFFF720FE741E002158
:10D310000846FCF771FB00210320FCF76DFB0021A0
:10D320000220FCF769FB00210120FCF765FB74E794
:10D330000136824B03EB06131B7B022BF8D0341B08
:10D3400007EE904AF8EEE78A01210020FCF754FB33
:10D3500000210320FCF750FB00210220FCF74CFBCE
:10D3600000210120FCF748FB6F4B93ED003ADFED05
:10D37000762A73EE222A9FED6D2ADFED6D1A9FED5E
:10D38000731AF0EE680AB6EE000AFFF7DFFD741EAE
:10D3900000210846FCF730FB00210320FCF72CFBA2
:10D3A00000210220FCF728FB00210120FCF724FBD0
:10D3B00033E72646BDE700210846FCF71DFB0021A8
:10D3C0000320FCF719FB00210220FCF715FB0021CC
:10D3D0000120FCF711FB5E48FDF7A8FB1DE70021CB
:10D3E0000846FCF709FB00210320FCF705FB0021A0
:10D3F0000220FCF701FB00210120FCF7FDFA544854
:10D40000FDF7CCFA09E700210846FCF7F5FA002100
:10D410000320FCF7F1FA00210220FCF7EDFA0021CD
:10D420000120FCF7E9FA4B48FDF780FBF5E6002107
:10D430000846FCF7E1FA00210320FCF7DDFA0021A1
:10D440000220FCF7D9FA00210120FCF7D5FA414867
:10D45000FDF7A4FAE1E600210846FCF7CDFA002129
:10D460000320FCF7C9FA00210220FCF7C5FA0021CD
:10D470000120FCF7C1FA3848FDF758FBCDE6002142
:10D480000846FCF7B9FA00210320FCF7B5FA0021A1
:10D490000220FCF7B1FA00210120FCF7ADFA2E487A
:10D4A000FDF77CFAB9E600210846FCF7A5FA002151
:10D4B0000320FCF7A1FA00210220FCF79DFA0021CD
:10D4C0000120FCF799FA2548FDF730FBA5E600217D
:10D4D0000846FCF791FA00210320FCF78DFA0021A1
:10D4E0000220FCF789FA00210120FCF785FA1C488C
:10D4F000FDF71CFB91E600210846FCF77DFA0021B0
:10D500000320FCF779FA00210220FCF775FA0021CC
:10D510000120FCF771FA1148FDF740FA7DE600BFE3
:10D52000777777777777C73F60110020C3F538C0EA
:10D53000C3F538400000B442BCBB3B3EDC60002079
:10D540000000000000007A4500003442CC8E7E428C
:10D550007812002024120020941200204012002093
:10D560005C12002000210846FCF746FA0021032047
:10D57000FCF742FA00210220FCF73EFA00210120CC
:10D58000FCF73AFA2C48FDF709FA46E6002108466E
:10D59000FCF732FA00210320FCF72EFA00210220CA
:10D5A000FCF72AFA00210120FCF726FA2348FDF7B0
:10D5B000BDFA32E600210846FCF71EFA00210320DE
:10D5C000FCF71AFA00210220FCF716FA00210120CC
:10D5D000FCF712FA1A48FDF7A9FA1EE600210846E0
:10D5E000FCF70AFA00210320FCF706FA00210220CA
:10D5F000FCF702FA00210120FCF7FEF90F48FDF7C5
:10D60000CDF90AE600210846FCF7F6F900210320CF
:10D61000FCF7F2F900210220FCF7EEF900210120CD
:10D62000FCF7EAF90648FDF7B9F9F6E5054B0022E3
:10D630009A60BDEC028B70BD5C120020EC110020E2
:10D6400008120020C81100202DE9F04182B06F4B74
:10D6500000221A6001208DF807000DF10702022157
:10D66000FCF7B0FB9DF90700FCF744FB9DF9073080
:10D67000012B55D0022B55D0542501248DF806409E
:10D680000DF1060204212046FCF79CFB9DF90600E3
:10D69000FCF730FBFCF770FB9DF90600FEF764FE1B
:10D6A000FEF7CCFF21460420FCF7A6F92146052011
:10D6B000FCF7A2F921460020FCF79EF9DFF88081F3
:10D6C00088F800400023524A1370524A1360524AAD
:10D6D0001360524B1C6000F04DF900F057F900F058
:10D6E000DBF94F4E4F4F3146384602F0FDFE00F059
:10D6F00083F94D4B1C604D4B1B88ADF804303380D3
:10D7000098F80030B370F37000F04CF931463846A9
:10D71000474BD3ED000A9FED470AFDF7CDFA19E01C
:10D720005425AAE75325A8E73C4F3D4C3D4E3B68A6
:10D73000E268A179304602F017FA0246A06104F1CE
:10D740001001201D02F0E7FC3B682A4621463046C6
:10D75000FEF794F8324B1B79073BDBB2012BE3D881
:10D760002F4B5B79073BDBB2012BDDD800F00EF9C4
:10D7700015E02A4F2A4C2B4E3B68E268A1793046CF
:10D7800002F0F2F90246A06104F11001201D02F03E
:10D79000C2FC3B682A4621463046FEF76FF8204B14
:10D7A0001B88002BE5D11E4B9B88002BE1D1072065
:10D7B000FBF784FFDFED200A9FED200AFDF71CFB3D
:10D7C000FCF73CFD164C204602F028F9606800F09A
:10D7D00049F900210846FCF70FF9FBF799FD0720EE
:10D7E000FCF788FA0F48FFF74BFB0120FCF782FAA1
:10D7F0000C4C204601F0D8FF204602F011F80849F1
:10D80000204601F03FFF00F00DF9F1E7EC10002099
:10D81000E41100209011002050110020E47000203D
:10D82000B4540020B4120020F4100020CC7A010877
:10D830006011002000007642000000000000344229
:10D84000B0120020F0B583B000253A4B1D600124D2
:10D850008DF807400DF1070204212046FCF7B2FACB
:10D860009DF90700FCF746FAFCF786FAFEF7E6FE9C
:10D8700021460420FCF7C0F821460520FCF7BCF83F
:10D880002D4B99681A685B682C4808F015FA2846F1
:10D89000FEF766FF9DF90730A34247D0284B0022D0
:10D8A0001A70284B01221A601A68274B1A6002234B
:10D8B000264A1370264A1288ADF80420254C22808F
:10D8C000A370E370244D2146284602F00DFE00F0BF
:10D8D00093F82846FFF702FBA71C03233A4621468C
:10D8E000284601F0BFFC2146284600F01BFD2046DB
:10D8F00000F09CFD06462146284602F0F5FD28462C
:10D90000FFF7ECFA03233A462146284601F0AAFC29
:10D910000720FCF7EFF93046FFF742FC0720FCF741
:10D92000E9F90E490C4801F0ADFEFAE70C4B0D4A3F
:10D930001A60B3E7EC100020D4110020FC7D010830
:10D94000E41100209011002050110020B01200209E
